{
	"github/fahadashiq/block-chain/smart-contracts/voting.sol": {
		"Voting": {
			"abi": [
				{
					"inputs": [],
					"stateMutability": "nonpayable",
					"type": "constructor"
				},
				{
					"inputs": [
						{
							"internalType": "string",
							"name": "campaignName",
							"type": "string"
						}
					],
					"name": "addCampaign",
					"outputs": [],
					"stateMutability": "nonpayable",
					"type": "function"
				},
				{
					"inputs": [
						{
							"internalType": "string",
							"name": "campaignName",
							"type": "string"
						},
						{
							"internalType": "string",
							"name": "candidateName",
							"type": "string"
						},
						{
							"internalType": "string",
							"name": "candidateSign",
							"type": "string"
						}
					],
					"name": "addCandidates",
					"outputs": [],
					"stateMutability": "nonpayable",
					"type": "function"
				},
				{
					"inputs": [],
					"name": "admin",
					"outputs": [
						{
							"internalType": "address",
							"name": "",
							"type": "address"
						}
					],
					"stateMutability": "view",
					"type": "function"
				},
				{
					"inputs": [
						{
							"internalType": "string",
							"name": "",
							"type": "string"
						}
					],
					"name": "campaigns",
					"outputs": [
						{
							"internalType": "string",
							"name": "name",
							"type": "string"
						}
					],
					"stateMutability": "view",
					"type": "function"
				},
				{
					"inputs": [
						{
							"internalType": "uint256",
							"name": "",
							"type": "uint256"
						}
					],
					"name": "compaignNames",
					"outputs": [
						{
							"internalType": "string",
							"name": "",
							"type": "string"
						}
					],
					"stateMutability": "view",
					"type": "function"
				},
				{
					"inputs": [],
					"name": "getAllCampaigns",
					"outputs": [
						{
							"components": [
								{
									"internalType": "string",
									"name": "name",
									"type": "string"
								},
								{
									"components": [
										{
											"internalType": "string",
											"name": "name",
											"type": "string"
										},
										{
											"internalType": "string",
											"name": "sign",
											"type": "string"
										},
										{
											"internalType": "uint256",
											"name": "votes",
											"type": "uint256"
										}
									],
									"internalType": "struct Voting.Candidate[]",
									"name": "candidates",
									"type": "tuple[]"
								}
							],
							"internalType": "struct Voting.Campaign",
							"name": "campaign",
							"type": "tuple"
						}
					],
					"stateMutability": "view",
					"type": "function"
				},
				{
					"inputs": [],
					"name": "getAllCompainNames",
					"outputs": [
						{
							"internalType": "string[]",
							"name": "campaignNames",
							"type": "string[]"
						}
					],
					"stateMutability": "view",
					"type": "function"
				},
				{
					"inputs": [
						{
							"internalType": "string",
							"name": "campaignName",
							"type": "string"
						},
						{
							"internalType": "string",
							"name": "candidateName",
							"type": "string"
						}
					],
					"name": "getCandidateVotes",
					"outputs": [
						{
							"internalType": "uint256",
							"name": "votes",
							"type": "uint256"
						}
					],
					"stateMutability": "view",
					"type": "function"
				},
				{
					"inputs": [],
					"name": "getNumResult",
					"outputs": [
						{
							"internalType": "uint256",
							"name": "res",
							"type": "uint256"
						}
					],
					"stateMutability": "view",
					"type": "function"
				},
				{
					"inputs": [
						{
							"internalType": "string",
							"name": "campaignName",
							"type": "string"
						},
						{
							"internalType": "string",
							"name": "candidateName",
							"type": "string"
						}
					],
					"name": "voteForCandidate",
					"outputs": [],
					"stateMutability": "nonpayable",
					"type": "function"
				}
			],
			"devdoc": {
				"kind": "dev",
				"methods": {},
				"version": 1
			},
			"evm": {
				"assembly": "    /* \"github/fahadashiq/block-chain/smart-contracts/voting.sol\":109:4542  contract Voting {... */\n  mstore(0x40, 0x80)\n    /* \"github/fahadashiq/block-chain/smart-contracts/voting.sol\":853:904  constructor() {... */\n  callvalue\n  dup1\n  iszero\n  tag_1\n  jumpi\n  0x00\n  dup1\n  revert\ntag_1:\n  pop\n    /* \"github/fahadashiq/block-chain/smart-contracts/voting.sol\":886:896  msg.sender */\n  caller\n    /* \"github/fahadashiq/block-chain/smart-contracts/voting.sol\":878:883  admin */\n  0x03\n  0x00\n    /* \"github/fahadashiq/block-chain/smart-contracts/voting.sol\":878:896  admin = msg.sender */\n  0x0100\n  exp\n  dup2\n  sload\n  dup2\n  0xffffffffffffffffffffffffffffffffffffffff\n  mul\n  not\n  and\n  swap1\n  dup4\n  0xffffffffffffffffffffffffffffffffffffffff\n  and\n  mul\n  or\n  swap1\n  sstore\n  pop\n    /* \"github/fahadashiq/block-chain/smart-contracts/voting.sol\":109:4542  contract Voting {... */\n  dataSize(sub_0)\n  dup1\n  dataOffset(sub_0)\n  0x00\n  codecopy\n  0x00\n  return\nstop\n\nsub_0: assembly {\n        /* \"github/fahadashiq/block-chain/smart-contracts/voting.sol\":109:4542  contract Voting {... */\n      mstore(0x40, 0x80)\n      callvalue\n      dup1\n      iszero\n      tag_1\n      jumpi\n      0x00\n      dup1\n      revert\n    tag_1:\n      pop\n      jumpi(tag_2, lt(calldatasize, 0x04))\n      shr(0xe0, calldataload(0x00))\n      dup1\n      0x86cdf604\n      gt\n      tag_13\n      jumpi\n      dup1\n      0x86cdf604\n      eq\n      tag_8\n      jumpi\n      dup1\n      0xb7ff50fc\n      eq\n      tag_9\n      jumpi\n      dup1\n      0xbf80f44a\n      eq\n      tag_10\n      jumpi\n      dup1\n      0xc157b6f5\n      eq\n      tag_11\n      jumpi\n      dup1\n      0xf851a440\n      eq\n      tag_12\n      jumpi\n      jump(tag_2)\n    tag_13:\n      dup1\n      0x1d39e509\n      eq\n      tag_3\n      jumpi\n      dup1\n      0x202e7be4\n      eq\n      tag_4\n      jumpi\n      dup1\n      0x6f732627\n      eq\n      tag_5\n      jumpi\n      dup1\n      0x76dc15a7\n      eq\n      tag_6\n      jumpi\n      dup1\n      0x8329ac52\n      eq\n      tag_7\n      jumpi\n    tag_2:\n      0x00\n      dup1\n      revert\n        /* \"github/fahadashiq/block-chain/smart-contracts/voting.sol\":654:698  mapping(string => Campaign) public campaigns */\n    tag_3:\n      tag_14\n      0x04\n      dup1\n      calldatasize\n      sub\n      dup2\n      add\n      swap1\n      tag_15\n      swap2\n      swap1\n      tag_16\n      jump\t// in\n    tag_15:\n      tag_17\n      jump\t// in\n    tag_14:\n      mload(0x40)\n      tag_18\n      swap2\n      swap1\n      tag_19\n      jump\t// in\n    tag_18:\n      mload(0x40)\n      dup1\n      swap2\n      sub\n      swap1\n      return\n        /* \"github/fahadashiq/block-chain/smart-contracts/voting.sol\":912:2017  function addCampaign(string memory campaignName) public {... */\n    tag_4:\n      tag_20\n      0x04\n      dup1\n      calldatasize\n      sub\n      dup2\n      add\n      swap1\n      tag_21\n      swap2\n      swap1\n      tag_16\n      jump\t// in\n    tag_21:\n      tag_22\n      jump\t// in\n    tag_20:\n      stop\n        /* \"github/fahadashiq/block-chain/smart-contracts/voting.sol\":786:815  string[] public compaignNames */\n    tag_5:\n      tag_23\n      0x04\n      dup1\n      calldatasize\n      sub\n      dup2\n      add\n      swap1\n      tag_24\n      swap2\n      swap1\n      tag_25\n      jump\t// in\n    tag_24:\n      tag_26\n      jump\t// in\n    tag_23:\n      mload(0x40)\n      tag_27\n      swap2\n      swap1\n      tag_19\n      jump\t// in\n    tag_27:\n      mload(0x40)\n      dup1\n      swap2\n      sub\n      swap1\n      return\n        /* \"github/fahadashiq/block-chain/smart-contracts/voting.sol\":2025:2317  function addCandidates( string memory campaignName, string memory candidateName, string memory candidateSign) public {... */\n    tag_6:\n      tag_28\n      0x04\n      dup1\n      calldatasize\n      sub\n      dup2\n      add\n      swap1\n      tag_29\n      swap2\n      swap1\n      tag_30\n      jump\t// in\n    tag_29:\n      tag_31\n      jump\t// in\n    tag_28:\n      stop\n        /* \"github/fahadashiq/block-chain/smart-contracts/voting.sol\":2325:2744  function voteForCandidate( string memory campaignName, string memory candidateName) public {... */\n    tag_7:\n      tag_32\n      0x04\n      dup1\n      calldatasize\n      sub\n      dup2\n      add\n      swap1\n      tag_33\n      swap2\n      swap1\n      tag_34\n      jump\t// in\n    tag_33:\n      tag_35\n      jump\t// in\n    tag_32:\n      stop\n        /* \"github/fahadashiq/block-chain/smart-contracts/voting.sol\":3221:3335  function getAllCampaigns()public view returns(Campaign memory campaign){... */\n    tag_8:\n      tag_36\n      tag_37\n      jump\t// in\n    tag_36:\n      mload(0x40)\n      tag_38\n      swap2\n      swap1\n      tag_39\n      jump\t// in\n    tag_38:\n      mload(0x40)\n      dup1\n      swap2\n      sub\n      swap1\n      return\n        /* \"github/fahadashiq/block-chain/smart-contracts/voting.sol\":2752:3212  function getCandidateVotes( string memory campaignName, string memory candidateName) public view returns (uint votes) {... */\n    tag_9:\n      tag_40\n      0x04\n      dup1\n      calldatasize\n      sub\n      dup2\n      add\n      swap1\n      tag_41\n      swap2\n      swap1\n      tag_34\n      jump\t// in\n    tag_41:\n      tag_42\n      jump\t// in\n    tag_40:\n      mload(0x40)\n      tag_43\n      swap2\n      swap1\n      tag_44\n      jump\t// in\n    tag_43:\n      mload(0x40)\n      dup1\n      swap2\n      sub\n      swap1\n      return\n        /* \"github/fahadashiq/block-chain/smart-contracts/voting.sol\":3675:3761  function getNumResult() public view returns (uint res) {... */\n    tag_10:\n      tag_45\n      tag_46\n      jump\t// in\n    tag_45:\n      mload(0x40)\n      tag_47\n      swap2\n      swap1\n      tag_44\n      jump\t// in\n    tag_47:\n      mload(0x40)\n      dup1\n      swap2\n      sub\n      swap1\n      return\n        /* \"github/fahadashiq/block-chain/smart-contracts/voting.sol\":3343:3664  function getAllCompainNames() public view returns (string[] memory campaignNames) {... */\n    tag_11:\n      tag_48\n      tag_49\n      jump\t// in\n    tag_48:\n      mload(0x40)\n      tag_50\n      swap2\n      swap1\n      tag_51\n      jump\t// in\n    tag_50:\n      mload(0x40)\n      dup1\n      swap2\n      sub\n      swap1\n      return\n        /* \"github/fahadashiq/block-chain/smart-contracts/voting.sol\":824:844  address public admin */\n    tag_12:\n      tag_52\n      tag_53\n      jump\t// in\n    tag_52:\n      mload(0x40)\n      tag_54\n      swap2\n      swap1\n      tag_55\n      jump\t// in\n    tag_54:\n      mload(0x40)\n      dup1\n      swap2\n      sub\n      swap1\n      return\n        /* \"github/fahadashiq/block-chain/smart-contracts/voting.sol\":654:698  mapping(string => Campaign) public campaigns */\n    tag_17:\n      0x00\n      dup2\n      dup1\n      mload\n      0x20\n      dup2\n      add\n      dup3\n      add\n      dup1\n      mload\n      dup5\n      dup3\n      mstore\n      0x20\n      dup4\n      add\n      0x20\n      dup6\n      add\n      keccak256\n      dup2\n      dup4\n      mstore\n      dup1\n      swap6\n      pop\n      pop\n      pop\n      pop\n      pop\n      pop\n      0x00\n      swap2\n      pop\n      swap1\n      pop\n      dup1\n      0x00\n      add\n      dup1\n      sload\n      tag_56\n      swap1\n      tag_57\n      jump\t// in\n    tag_56:\n      dup1\n      0x1f\n      add\n      0x20\n      dup1\n      swap2\n      div\n      mul\n      0x20\n      add\n      mload(0x40)\n      swap1\n      dup2\n      add\n      0x40\n      mstore\n      dup1\n      swap3\n      swap2\n      swap1\n      dup2\n      dup2\n      mstore\n      0x20\n      add\n      dup3\n      dup1\n      sload\n      tag_58\n      swap1\n      tag_57\n      jump\t// in\n    tag_58:\n      dup1\n      iszero\n      tag_59\n      jumpi\n      dup1\n      0x1f\n      lt\n      tag_60\n      jumpi\n      0x0100\n      dup1\n      dup4\n      sload\n      div\n      mul\n      dup4\n      mstore\n      swap2\n      0x20\n      add\n      swap2\n      jump(tag_59)\n    tag_60:\n      dup3\n      add\n      swap2\n      swap1\n      0x00\n      mstore\n      keccak256(0x00, 0x20)\n      swap1\n    tag_61:\n      dup2\n      sload\n      dup2\n      mstore\n      swap1\n      0x01\n      add\n      swap1\n      0x20\n      add\n      dup1\n      dup4\n      gt\n      tag_61\n      jumpi\n      dup3\n      swap1\n      sub\n      0x1f\n      and\n      dup3\n      add\n      swap2\n    tag_59:\n      pop\n      pop\n      pop\n      pop\n      pop\n      swap1\n      pop\n      dup2\n      jump\t// out\n        /* \"github/fahadashiq/block-chain/smart-contracts/voting.sol\":912:2017  function addCampaign(string memory campaignName) public {... */\n    tag_22:\n        /* \"github/fahadashiq/block-chain/smart-contracts/voting.sol\":1001:1006  admin */\n      0x03\n      0x00\n      swap1\n      sload\n      swap1\n      0x0100\n      exp\n      swap1\n      div\n      0xffffffffffffffffffffffffffffffffffffffff\n      and\n        /* \"github/fahadashiq/block-chain/smart-contracts/voting.sol\":987:1006  msg.sender == admin */\n      0xffffffffffffffffffffffffffffffffffffffff\n      and\n        /* \"github/fahadashiq/block-chain/smart-contracts/voting.sol\":987:997  msg.sender */\n      caller\n        /* \"github/fahadashiq/block-chain/smart-contracts/voting.sol\":987:1006  msg.sender == admin */\n      0xffffffffffffffffffffffffffffffffffffffff\n      and\n      eq\n        /* \"github/fahadashiq/block-chain/smart-contracts/voting.sol\":979:1042  require(msg.sender == admin, 'Only admin can start a campaign') */\n      tag_63\n      jumpi\n      mload(0x40)\n      0x08c379a000000000000000000000000000000000000000000000000000000000\n      dup2\n      mstore\n      0x04\n      add\n      tag_64\n      swap1\n      tag_65\n      jump\t// in\n    tag_64:\n      mload(0x40)\n      dup1\n      swap2\n      sub\n      swap1\n      revert\n    tag_63:\n        /* \"github/fahadashiq/block-chain/smart-contracts/voting.sol\":1446:1467  Campaign storage comp */\n      0x00\n        /* \"github/fahadashiq/block-chain/smart-contracts/voting.sol\":1470:1479  campaigns */\n      dup1\n        /* \"github/fahadashiq/block-chain/smart-contracts/voting.sol\":1480:1492  campaignName */\n      dup3\n        /* \"github/fahadashiq/block-chain/smart-contracts/voting.sol\":1470:1493  campaigns[campaignName] */\n      mload(0x40)\n      tag_66\n      swap2\n      swap1\n      tag_67\n      jump\t// in\n    tag_66:\n      swap1\n      dup2\n      mstore\n      0x20\n      add\n      mload(0x40)\n      dup1\n      swap2\n      sub\n      swap1\n      keccak256\n        /* \"github/fahadashiq/block-chain/smart-contracts/voting.sol\":1446:1493  Campaign storage comp = campaigns[campaignName] */\n      swap1\n      pop\n        /* \"github/fahadashiq/block-chain/smart-contracts/voting.sol\":1516:1528  campaignName */\n      dup2\n        /* \"github/fahadashiq/block-chain/smart-contracts/voting.sol\":1504:1508  comp */\n      dup2\n        /* \"github/fahadashiq/block-chain/smart-contracts/voting.sol\":1504:1513  comp.name */\n      0x00\n      add\n        /* \"github/fahadashiq/block-chain/smart-contracts/voting.sol\":1504:1528  comp.name = campaignName */\n      swap1\n      dup1\n      mload\n      swap1\n      0x20\n      add\n      swap1\n      tag_68\n      swap3\n      swap2\n      swap1\n      tag_69\n      jump\t// in\n    tag_68:\n      pop\n        /* \"github/fahadashiq/block-chain/smart-contracts/voting.sol\":1678:1695  numberOfCampaigns */\n      0x01\n      0x00\n        /* \"github/fahadashiq/block-chain/smart-contracts/voting.sol\":1678:1697  numberOfCampaigns++ */\n      dup2\n      sload\n      dup1\n      swap3\n      swap2\n      swap1\n      tag_70\n      swap1\n      tag_71\n      jump\t// in\n    tag_70:\n      swap2\n      swap1\n      pop\n      sstore\n      pop\n        /* \"github/fahadashiq/block-chain/smart-contracts/voting.sol\":1708:1721  compaignNames */\n      0x02\n        /* \"github/fahadashiq/block-chain/smart-contracts/voting.sol\":1727:1739  campaignName */\n      dup3\n        /* \"github/fahadashiq/block-chain/smart-contracts/voting.sol\":1708:1740  compaignNames.push(campaignName) */\n      swap1\n      dup1\n      0x01\n      dup2\n      sload\n      add\n      dup1\n      dup3\n      sstore\n      dup1\n      swap2\n      pop\n      pop\n      0x01\n      swap1\n      sub\n      swap1\n      0x00\n      mstore\n      keccak256(0x00, 0x20)\n      add\n      0x00\n      swap1\n      swap2\n      swap1\n      swap2\n      swap1\n      swap2\n      pop\n      swap1\n      dup1\n      mload\n      swap1\n      0x20\n      add\n      swap1\n      tag_73\n      swap3\n      swap2\n      swap1\n      tag_69\n      jump\t// in\n    tag_73:\n      pop\n        /* \"github/fahadashiq/block-chain/smart-contracts/voting.sol\":968:2017  {... */\n      pop\n        /* \"github/fahadashiq/block-chain/smart-contracts/voting.sol\":912:2017  function addCampaign(string memory campaignName) public {... */\n      pop\n      jump\t// out\n        /* \"github/fahadashiq/block-chain/smart-contracts/voting.sol\":786:815  string[] public compaignNames */\n    tag_26:\n      0x02\n      dup2\n      dup2\n      sload\n      dup2\n      lt\n      tag_74\n      jumpi\n      0x00\n      dup1\n      revert\n    tag_74:\n      swap1\n      0x00\n      mstore\n      keccak256(0x00, 0x20)\n      add\n      0x00\n      swap2\n      pop\n      swap1\n      pop\n      dup1\n      sload\n      tag_76\n      swap1\n      tag_57\n      jump\t// in\n    tag_76:\n      dup1\n      0x1f\n      add\n      0x20\n      dup1\n      swap2\n      div\n      mul\n      0x20\n      add\n      mload(0x40)\n      swap1\n      dup2\n      add\n      0x40\n      mstore\n      dup1\n      swap3\n      swap2\n      swap1\n      dup2\n      dup2\n      mstore\n      0x20\n      add\n      dup3\n      dup1\n      sload\n      tag_77\n      swap1\n      tag_57\n      jump\t// in\n    tag_77:\n      dup1\n      iszero\n      tag_78\n      jumpi\n      dup1\n      0x1f\n      lt\n      tag_79\n      jumpi\n      0x0100\n      dup1\n      dup4\n      sload\n      div\n      mul\n      dup4\n      mstore\n      swap2\n      0x20\n      add\n      swap2\n      jump(tag_78)\n    tag_79:\n      dup3\n      add\n      swap2\n      swap1\n      0x00\n      mstore\n      keccak256(0x00, 0x20)\n      swap1\n    tag_80:\n      dup2\n      sload\n      dup2\n      mstore\n      swap1\n      0x01\n      add\n      swap1\n      0x20\n      add\n      dup1\n      dup4\n      gt\n      tag_80\n      jumpi\n      dup3\n      swap1\n      sub\n      0x1f\n      and\n      dup3\n      add\n      swap2\n    tag_78:\n      pop\n      pop\n      pop\n      pop\n      pop\n      dup2\n      jump\t// out\n        /* \"github/fahadashiq/block-chain/smart-contracts/voting.sol\":2025:2317  function addCandidates( string memory campaignName, string memory candidateName, string memory candidateSign) public {... */\n    tag_31:\n        /* \"github/fahadashiq/block-chain/smart-contracts/voting.sol\":2175:2180  admin */\n      0x03\n      0x00\n      swap1\n      sload\n      swap1\n      0x0100\n      exp\n      swap1\n      div\n      0xffffffffffffffffffffffffffffffffffffffff\n      and\n        /* \"github/fahadashiq/block-chain/smart-contracts/voting.sol\":2161:2180  msg.sender == admin */\n      0xffffffffffffffffffffffffffffffffffffffff\n      and\n        /* \"github/fahadashiq/block-chain/smart-contracts/voting.sol\":2161:2171  msg.sender */\n      caller\n        /* \"github/fahadashiq/block-chain/smart-contracts/voting.sol\":2161:2180  msg.sender == admin */\n      0xffffffffffffffffffffffffffffffffffffffff\n      and\n      eq\n        /* \"github/fahadashiq/block-chain/smart-contracts/voting.sol\":2153:2215  require(msg.sender == admin, 'Only admin can add a candidate') */\n      tag_82\n      jumpi\n      mload(0x40)\n      0x08c379a000000000000000000000000000000000000000000000000000000000\n      dup2\n      mstore\n      0x04\n      add\n      tag_83\n      swap1\n      tag_84\n      jump\t// in\n    tag_83:\n      mload(0x40)\n      dup1\n      swap2\n      sub\n      swap1\n      revert\n    tag_82:\n        /* \"github/fahadashiq/block-chain/smart-contracts/voting.sol\":2226:2235  campaigns */\n      0x00\n        /* \"github/fahadashiq/block-chain/smart-contracts/voting.sol\":2236:2248  campaignName */\n      dup4\n        /* \"github/fahadashiq/block-chain/smart-contracts/voting.sol\":2226:2249  campaigns[campaignName] */\n      mload(0x40)\n      tag_85\n      swap2\n      swap1\n      tag_67\n      jump\t// in\n    tag_85:\n      swap1\n      dup2\n      mstore\n      0x20\n      add\n      mload(0x40)\n      dup1\n      swap2\n      sub\n      swap1\n      keccak256\n        /* \"github/fahadashiq/block-chain/smart-contracts/voting.sol\":2226:2260  campaigns[campaignName].candidates */\n      0x01\n      add\n        /* \"github/fahadashiq/block-chain/smart-contracts/voting.sol\":2266:2308  Candidate(candidateName, candidateSign, 0) */\n      mload(0x40)\n      dup1\n      0x60\n      add\n      0x40\n      mstore\n      dup1\n        /* \"github/fahadashiq/block-chain/smart-contracts/voting.sol\":2276:2289  candidateName */\n      dup5\n        /* \"github/fahadashiq/block-chain/smart-contracts/voting.sol\":2266:2308  Candidate(candidateName, candidateSign, 0) */\n      dup2\n      mstore\n      0x20\n      add\n        /* \"github/fahadashiq/block-chain/smart-contracts/voting.sol\":2291:2304  candidateSign */\n      dup4\n        /* \"github/fahadashiq/block-chain/smart-contracts/voting.sol\":2266:2308  Candidate(candidateName, candidateSign, 0) */\n      dup2\n      mstore\n      0x20\n      add\n        /* \"github/fahadashiq/block-chain/smart-contracts/voting.sol\":2306:2307  0 */\n      0x00\n        /* \"github/fahadashiq/block-chain/smart-contracts/voting.sol\":2266:2308  Candidate(candidateName, candidateSign, 0) */\n      dup2\n      mstore\n      pop\n        /* \"github/fahadashiq/block-chain/smart-contracts/voting.sol\":2226:2309  campaigns[campaignName].candidates.push(Candidate(candidateName, candidateSign, 0)) */\n      swap1\n      dup1\n      0x01\n      dup2\n      sload\n      add\n      dup1\n      dup3\n      sstore\n      dup1\n      swap2\n      pop\n      pop\n      0x01\n      swap1\n      sub\n      swap1\n      0x00\n      mstore\n      keccak256(0x00, 0x20)\n      swap1\n      0x03\n      mul\n      add\n      0x00\n      swap1\n      swap2\n      swap1\n      swap2\n      swap1\n      swap2\n      pop\n      0x00\n      dup3\n      add\n      mload\n      dup2\n      0x00\n      add\n      swap1\n      dup1\n      mload\n      swap1\n      0x20\n      add\n      swap1\n      tag_87\n      swap3\n      swap2\n      swap1\n      tag_69\n      jump\t// in\n    tag_87:\n      pop\n      0x20\n      dup3\n      add\n      mload\n      dup2\n      0x01\n      add\n      swap1\n      dup1\n      mload\n      swap1\n      0x20\n      add\n      swap1\n      tag_88\n      swap3\n      swap2\n      swap1\n      tag_69\n      jump\t// in\n    tag_88:\n      pop\n      0x40\n      dup3\n      add\n      mload\n      dup2\n      0x02\n      add\n      sstore\n      pop\n      pop\n        /* \"github/fahadashiq/block-chain/smart-contracts/voting.sol\":2025:2317  function addCandidates( string memory campaignName, string memory candidateName, string memory candidateSign) public {... */\n      pop\n      pop\n      pop\n      jump\t// out\n        /* \"github/fahadashiq/block-chain/smart-contracts/voting.sol\":2325:2744  function voteForCandidate( string memory campaignName, string memory candidateName) public {... */\n    tag_35:\n        /* \"github/fahadashiq/block-chain/smart-contracts/voting.sol\":2431:2437  uint i */\n      0x00\n        /* \"github/fahadashiq/block-chain/smart-contracts/voting.sol\":2427:2727  for(uint i = 0; i < campaigns[campaignName].candidates.length; i++) {... */\n    tag_90:\n        /* \"github/fahadashiq/block-chain/smart-contracts/voting.sol\":2447:2456  campaigns */\n      0x00\n        /* \"github/fahadashiq/block-chain/smart-contracts/voting.sol\":2457:2469  campaignName */\n      dup4\n        /* \"github/fahadashiq/block-chain/smart-contracts/voting.sol\":2447:2470  campaigns[campaignName] */\n      mload(0x40)\n      tag_93\n      swap2\n      swap1\n      tag_67\n      jump\t// in\n    tag_93:\n      swap1\n      dup2\n      mstore\n      0x20\n      add\n      mload(0x40)\n      dup1\n      swap2\n      sub\n      swap1\n      keccak256\n        /* \"github/fahadashiq/block-chain/smart-contracts/voting.sol\":2447:2481  campaigns[campaignName].candidates */\n      0x01\n      add\n        /* \"github/fahadashiq/block-chain/smart-contracts/voting.sol\":2447:2488  campaigns[campaignName].candidates.length */\n      dup1\n      sload\n      swap1\n      pop\n        /* \"github/fahadashiq/block-chain/smart-contracts/voting.sol\":2443:2444  i */\n      dup2\n        /* \"github/fahadashiq/block-chain/smart-contracts/voting.sol\":2443:2488  i < campaigns[campaignName].candidates.length */\n      lt\n        /* \"github/fahadashiq/block-chain/smart-contracts/voting.sol\":2427:2727  for(uint i = 0; i < campaigns[campaignName].candidates.length; i++) {... */\n      iszero\n      tag_91\n      jumpi\n        /* \"github/fahadashiq/block-chain/smart-contracts/voting.sol\":2510:2536  Candidate memory candidate */\n      0x00\n        /* \"github/fahadashiq/block-chain/smart-contracts/voting.sol\":2539:2548  campaigns */\n      dup1\n        /* \"github/fahadashiq/block-chain/smart-contracts/voting.sol\":2549:2561  campaignName */\n      dup5\n        /* \"github/fahadashiq/block-chain/smart-contracts/voting.sol\":2539:2562  campaigns[campaignName] */\n      mload(0x40)\n      tag_94\n      swap2\n      swap1\n      tag_67\n      jump\t// in\n    tag_94:\n      swap1\n      dup2\n      mstore\n      0x20\n      add\n      mload(0x40)\n      dup1\n      swap2\n      sub\n      swap1\n      keccak256\n        /* \"github/fahadashiq/block-chain/smart-contracts/voting.sol\":2539:2573  campaigns[campaignName].candidates */\n      0x01\n      add\n        /* \"github/fahadashiq/block-chain/smart-contracts/voting.sol\":2574:2575  i */\n      dup3\n        /* \"github/fahadashiq/block-chain/smart-contracts/voting.sol\":2539:2576  campaigns[campaignName].candidates[i] */\n      dup2\n      sload\n      dup2\n      lt\n      tag_95\n      jumpi\n      tag_96\n      tag_97\n      jump\t// in\n    tag_96:\n    tag_95:\n      swap1\n      0x00\n      mstore\n      keccak256(0x00, 0x20)\n      swap1\n      0x03\n      mul\n      add\n        /* \"github/fahadashiq/block-chain/smart-contracts/voting.sol\":2510:2576  Candidate memory candidate = campaigns[campaignName].candidates[i] */\n      mload(0x40)\n      dup1\n      0x60\n      add\n      0x40\n      mstore\n      swap1\n      dup2\n      0x00\n      dup3\n      add\n      dup1\n      sload\n      tag_99\n      swap1\n      tag_57\n      jump\t// in\n    tag_99:\n      dup1\n      0x1f\n      add\n      0x20\n      dup1\n      swap2\n      div\n      mul\n      0x20\n      add\n      mload(0x40)\n      swap1\n      dup2\n      add\n      0x40\n      mstore\n      dup1\n      swap3\n      swap2\n      swap1\n      dup2\n      dup2\n      mstore\n      0x20\n      add\n      dup3\n      dup1\n      sload\n      tag_100\n      swap1\n      tag_57\n      jump\t// in\n    tag_100:\n      dup1\n      iszero\n      tag_101\n      jumpi\n      dup1\n      0x1f\n      lt\n      tag_102\n      jumpi\n      0x0100\n      dup1\n      dup4\n      sload\n      div\n      mul\n      dup4\n      mstore\n      swap2\n      0x20\n      add\n      swap2\n      jump(tag_101)\n    tag_102:\n      dup3\n      add\n      swap2\n      swap1\n      0x00\n      mstore\n      keccak256(0x00, 0x20)\n      swap1\n    tag_103:\n      dup2\n      sload\n      dup2\n      mstore\n      swap1\n      0x01\n      add\n      swap1\n      0x20\n      add\n      dup1\n      dup4\n      gt\n      tag_103\n      jumpi\n      dup3\n      swap1\n      sub\n      0x1f\n      and\n      dup3\n      add\n      swap2\n    tag_101:\n      pop\n      pop\n      pop\n      pop\n      pop\n      dup2\n      mstore\n      0x20\n      add\n      0x01\n      dup3\n      add\n      dup1\n      sload\n      tag_104\n      swap1\n      tag_57\n      jump\t// in\n    tag_104:\n      dup1\n      0x1f\n      add\n      0x20\n      dup1\n      swap2\n      div\n      mul\n      0x20\n      add\n      mload(0x40)\n      swap1\n      dup2\n      add\n      0x40\n      mstore\n      dup1\n      swap3\n      swap2\n      swap1\n      dup2\n      dup2\n      mstore\n      0x20\n      add\n      dup3\n      dup1\n      sload\n      tag_105\n      swap1\n      tag_57\n      jump\t// in\n    tag_105:\n      dup1\n      iszero\n      tag_106\n      jumpi\n      dup1\n      0x1f\n      lt\n      tag_107\n      jumpi\n      0x0100\n      dup1\n      dup4\n      sload\n      div\n      mul\n      dup4\n      mstore\n      swap2\n      0x20\n      add\n      swap2\n      jump(tag_106)\n    tag_107:\n      dup3\n      add\n      swap2\n      swap1\n      0x00\n      mstore\n      keccak256(0x00, 0x20)\n      swap1\n    tag_108:\n      dup2\n      sload\n      dup2\n      mstore\n      swap1\n      0x01\n      add\n      swap1\n      0x20\n      add\n      dup1\n      dup4\n      gt\n      tag_108\n      jumpi\n      dup3\n      swap1\n      sub\n      0x1f\n      and\n      dup3\n      add\n      swap2\n    tag_106:\n      pop\n      pop\n      pop\n      pop\n      pop\n      dup2\n      mstore\n      0x20\n      add\n      0x02\n      dup3\n      add\n      sload\n      dup2\n      mstore\n      pop\n      pop\n      swap1\n      pop\n        /* \"github/fahadashiq/block-chain/smart-contracts/voting.sol\":2647:2660  candidateName */\n      dup3\n        /* \"github/fahadashiq/block-chain/smart-contracts/voting.sol\":2631:2662  keccak256(bytes(candidateName)) */\n      dup1\n      mload\n      swap1\n      0x20\n      add\n      keccak256\n        /* \"github/fahadashiq/block-chain/smart-contracts/voting.sol\":2611:2620  candidate */\n      dup2\n        /* \"github/fahadashiq/block-chain/smart-contracts/voting.sol\":2611:2625  candidate.name */\n      0x00\n      add\n      mload\n        /* \"github/fahadashiq/block-chain/smart-contracts/voting.sol\":2595:2627  keccak256(bytes(candidate.name)) */\n      dup1\n      mload\n      swap1\n      0x20\n      add\n      keccak256\n        /* \"github/fahadashiq/block-chain/smart-contracts/voting.sol\":2595:2662  keccak256(bytes(candidate.name)) == keccak256(bytes(candidateName)) */\n      sub\n        /* \"github/fahadashiq/block-chain/smart-contracts/voting.sol\":2591:2716  if (keccak256(bytes(candidate.name)) == keccak256(bytes(candidateName))) {... */\n      tag_109\n      jumpi\n        /* \"github/fahadashiq/block-chain/smart-contracts/voting.sol\":2683:2692  candidate */\n      dup1\n        /* \"github/fahadashiq/block-chain/smart-contracts/voting.sol\":2683:2698  candidate.votes */\n      0x40\n      add\n        /* \"github/fahadashiq/block-chain/smart-contracts/voting.sol\":2683:2700  candidate.votes++ */\n      dup1\n      mload\n      dup1\n      swap2\n      swap1\n      tag_110\n      swap1\n      tag_71\n      jump\t// in\n    tag_110:\n      dup2\n      mstore\n      pop\n      pop\n        /* \"github/fahadashiq/block-chain/smart-contracts/voting.sol\":2591:2716  if (keccak256(bytes(candidate.name)) == keccak256(bytes(candidateName))) {... */\n    tag_109:\n        /* \"github/fahadashiq/block-chain/smart-contracts/voting.sol\":2495:2727  {... */\n      pop\n        /* \"github/fahadashiq/block-chain/smart-contracts/voting.sol\":2490:2493  i++ */\n      dup1\n      dup1\n      tag_111\n      swap1\n      tag_71\n      jump\t// in\n    tag_111:\n      swap2\n      pop\n      pop\n        /* \"github/fahadashiq/block-chain/smart-contracts/voting.sol\":2427:2727  for(uint i = 0; i < campaigns[campaignName].candidates.length; i++) {... */\n      jump(tag_90)\n    tag_91:\n      pop\n        /* \"github/fahadashiq/block-chain/smart-contracts/voting.sol\":2325:2744  function voteForCandidate( string memory campaignName, string memory candidateName) public {... */\n      pop\n      pop\n      jump\t// out\n        /* \"github/fahadashiq/block-chain/smart-contracts/voting.sol\":3221:3335  function getAllCampaigns()public view returns(Campaign memory campaign){... */\n    tag_37:\n        /* \"github/fahadashiq/block-chain/smart-contracts/voting.sol\":3267:3291  Campaign memory campaign */\n      tag_112\n      tag_113\n      jump\t// in\n    tag_112:\n        /* \"github/fahadashiq/block-chain/smart-contracts/voting.sol\":3310:3319  campaigns */\n      0x00\n        /* \"github/fahadashiq/block-chain/smart-contracts/voting.sol\":3310:3327  campaigns['1122'] */\n      mload(0x40)\n      tag_115\n      swap1\n      tag_116\n      jump\t// in\n    tag_115:\n      swap1\n      dup2\n      mstore\n      0x20\n      add\n      mload(0x40)\n      dup1\n      swap2\n      sub\n      swap1\n      keccak256\n        /* \"github/fahadashiq/block-chain/smart-contracts/voting.sol\":3303:3327  return campaigns['1122'] */\n      mload(0x40)\n      dup1\n      0x40\n      add\n      0x40\n      mstore\n      swap1\n      dup2\n      0x00\n      dup3\n      add\n      dup1\n      sload\n      tag_117\n      swap1\n      tag_57\n      jump\t// in\n    tag_117:\n      dup1\n      0x1f\n      add\n      0x20\n      dup1\n      swap2\n      div\n      mul\n      0x20\n      add\n      mload(0x40)\n      swap1\n      dup2\n      add\n      0x40\n      mstore\n      dup1\n      swap3\n      swap2\n      swap1\n      dup2\n      dup2\n      mstore\n      0x20\n      add\n      dup3\n      dup1\n      sload\n      tag_118\n      swap1\n      tag_57\n      jump\t// in\n    tag_118:\n      dup1\n      iszero\n      tag_119\n      jumpi\n      dup1\n      0x1f\n      lt\n      tag_120\n      jumpi\n      0x0100\n      dup1\n      dup4\n      sload\n      div\n      mul\n      dup4\n      mstore\n      swap2\n      0x20\n      add\n      swap2\n      jump(tag_119)\n    tag_120:\n      dup3\n      add\n      swap2\n      swap1\n      0x00\n      mstore\n      keccak256(0x00, 0x20)\n      swap1\n    tag_121:\n      dup2\n      sload\n      dup2\n      mstore\n      swap1\n      0x01\n      add\n      swap1\n      0x20\n      add\n      dup1\n      dup4\n      gt\n      tag_121\n      jumpi\n      dup3\n      swap1\n      sub\n      0x1f\n      and\n      dup3\n      add\n      swap2\n    tag_119:\n      pop\n      pop\n      pop\n      pop\n      pop\n      dup2\n      mstore\n      0x20\n      add\n      0x01\n      dup3\n      add\n      dup1\n      sload\n      dup1\n      0x20\n      mul\n      0x20\n      add\n      mload(0x40)\n      swap1\n      dup2\n      add\n      0x40\n      mstore\n      dup1\n      swap3\n      swap2\n      swap1\n      dup2\n      dup2\n      mstore\n      0x20\n      add\n      0x00\n      swap1\n    tag_122:\n      dup3\n      dup3\n      lt\n      iszero\n      tag_123\n      jumpi\n      dup4\n      dup3\n      swap1\n      0x00\n      mstore\n      keccak256(0x00, 0x20)\n      swap1\n      0x03\n      mul\n      add\n      mload(0x40)\n      dup1\n      0x60\n      add\n      0x40\n      mstore\n      swap1\n      dup2\n      0x00\n      dup3\n      add\n      dup1\n      sload\n      tag_125\n      swap1\n      tag_57\n      jump\t// in\n    tag_125:\n      dup1\n      0x1f\n      add\n      0x20\n      dup1\n      swap2\n      div\n      mul\n      0x20\n      add\n      mload(0x40)\n      swap1\n      dup2\n      add\n      0x40\n      mstore\n      dup1\n      swap3\n      swap2\n      swap1\n      dup2\n      dup2\n      mstore\n      0x20\n      add\n      dup3\n      dup1\n      sload\n      tag_126\n      swap1\n      tag_57\n      jump\t// in\n    tag_126:\n      dup1\n      iszero\n      tag_127\n      jumpi\n      dup1\n      0x1f\n      lt\n      tag_128\n      jumpi\n      0x0100\n      dup1\n      dup4\n      sload\n      div\n      mul\n      dup4\n      mstore\n      swap2\n      0x20\n      add\n      swap2\n      jump(tag_127)\n    tag_128:\n      dup3\n      add\n      swap2\n      swap1\n      0x00\n      mstore\n      keccak256(0x00, 0x20)\n      swap1\n    tag_129:\n      dup2\n      sload\n      dup2\n      mstore\n      swap1\n      0x01\n      add\n      swap1\n      0x20\n      add\n      dup1\n      dup4\n      gt\n      tag_129\n      jumpi\n      dup3\n      swap1\n      sub\n      0x1f\n      and\n      dup3\n      add\n      swap2\n    tag_127:\n      pop\n      pop\n      pop\n      pop\n      pop\n      dup2\n      mstore\n      0x20\n      add\n      0x01\n      dup3\n      add\n      dup1\n      sload\n      tag_130\n      swap1\n      tag_57\n      jump\t// in\n    tag_130:\n      dup1\n      0x1f\n      add\n      0x20\n      dup1\n      swap2\n      div\n      mul\n      0x20\n      add\n      mload(0x40)\n      swap1\n      dup2\n      add\n      0x40\n      mstore\n      dup1\n      swap3\n      swap2\n      swap1\n      dup2\n      dup2\n      mstore\n      0x20\n      add\n      dup3\n      dup1\n      sload\n      tag_131\n      swap1\n      tag_57\n      jump\t// in\n    tag_131:\n      dup1\n      iszero\n      tag_132\n      jumpi\n      dup1\n      0x1f\n      lt\n      tag_133\n      jumpi\n      0x0100\n      dup1\n      dup4\n      sload\n      div\n      mul\n      dup4\n      mstore\n      swap2\n      0x20\n      add\n      swap2\n      jump(tag_132)\n    tag_133:\n      dup3\n      add\n      swap2\n      swap1\n      0x00\n      mstore\n      keccak256(0x00, 0x20)\n      swap1\n    tag_134:\n      dup2\n      sload\n      dup2\n      mstore\n      swap1\n      0x01\n      add\n      swap1\n      0x20\n      add\n      dup1\n      dup4\n      gt\n      tag_134\n      jumpi\n      dup3\n      swap1\n      sub\n      0x1f\n      and\n      dup3\n      add\n      swap2\n    tag_132:\n      pop\n      pop\n      pop\n      pop\n      pop\n      dup2\n      mstore\n      0x20\n      add\n      0x02\n      dup3\n      add\n      sload\n      dup2\n      mstore\n      pop\n      pop\n      dup2\n      mstore\n      0x20\n      add\n      swap1\n      0x01\n      add\n      swap1\n      jump(tag_122)\n    tag_123:\n      pop\n      pop\n      pop\n      pop\n      dup2\n      mstore\n      pop\n      pop\n      swap1\n      pop\n        /* \"github/fahadashiq/block-chain/smart-contracts/voting.sol\":3221:3335  function getAllCampaigns()public view returns(Campaign memory campaign){... */\n      swap1\n      jump\t// out\n        /* \"github/fahadashiq/block-chain/smart-contracts/voting.sol\":2752:3212  function getCandidateVotes( string memory campaignName, string memory candidateName) public view returns (uint votes) {... */\n    tag_42:\n        /* \"github/fahadashiq/block-chain/smart-contracts/voting.sol\":2858:2868  uint votes */\n      0x00\n        /* \"github/fahadashiq/block-chain/smart-contracts/voting.sol\":2885:2891  uint i */\n      dup1\n        /* \"github/fahadashiq/block-chain/smart-contracts/voting.sol\":2894:2895  0 */\n      0x00\n        /* \"github/fahadashiq/block-chain/smart-contracts/voting.sol\":2885:2895  uint i = 0 */\n      swap1\n      pop\n        /* \"github/fahadashiq/block-chain/smart-contracts/voting.sol\":2881:3186  for(uint i = 0; i < campaigns[campaignName].candidates.length; i++) {... */\n    tag_136:\n        /* \"github/fahadashiq/block-chain/smart-contracts/voting.sol\":2901:2910  campaigns */\n      0x00\n        /* \"github/fahadashiq/block-chain/smart-contracts/voting.sol\":2911:2923  campaignName */\n      dup5\n        /* \"github/fahadashiq/block-chain/smart-contracts/voting.sol\":2901:2924  campaigns[campaignName] */\n      mload(0x40)\n      tag_139\n      swap2\n      swap1\n      tag_67\n      jump\t// in\n    tag_139:\n      swap1\n      dup2\n      mstore\n      0x20\n      add\n      mload(0x40)\n      dup1\n      swap2\n      sub\n      swap1\n      keccak256\n        /* \"github/fahadashiq/block-chain/smart-contracts/voting.sol\":2901:2935  campaigns[campaignName].candidates */\n      0x01\n      add\n        /* \"github/fahadashiq/block-chain/smart-contracts/voting.sol\":2901:2942  campaigns[campaignName].candidates.length */\n      dup1\n      sload\n      swap1\n      pop\n        /* \"github/fahadashiq/block-chain/smart-contracts/voting.sol\":2897:2898  i */\n      dup2\n        /* \"github/fahadashiq/block-chain/smart-contracts/voting.sol\":2897:2942  i < campaigns[campaignName].candidates.length */\n      lt\n        /* \"github/fahadashiq/block-chain/smart-contracts/voting.sol\":2881:3186  for(uint i = 0; i < campaigns[campaignName].candidates.length; i++) {... */\n      iszero\n      tag_137\n      jumpi\n        /* \"github/fahadashiq/block-chain/smart-contracts/voting.sol\":2964:2990  Candidate memory candidate */\n      0x00\n        /* \"github/fahadashiq/block-chain/smart-contracts/voting.sol\":2993:3002  campaigns */\n      dup1\n        /* \"github/fahadashiq/block-chain/smart-contracts/voting.sol\":3003:3015  campaignName */\n      dup6\n        /* \"github/fahadashiq/block-chain/smart-contracts/voting.sol\":2993:3016  campaigns[campaignName] */\n      mload(0x40)\n      tag_140\n      swap2\n      swap1\n      tag_67\n      jump\t// in\n    tag_140:\n      swap1\n      dup2\n      mstore\n      0x20\n      add\n      mload(0x40)\n      dup1\n      swap2\n      sub\n      swap1\n      keccak256\n        /* \"github/fahadashiq/block-chain/smart-contracts/voting.sol\":2993:3027  campaigns[campaignName].candidates */\n      0x01\n      add\n        /* \"github/fahadashiq/block-chain/smart-contracts/voting.sol\":3028:3029  i */\n      dup3\n        /* \"github/fahadashiq/block-chain/smart-contracts/voting.sol\":2993:3030  campaigns[campaignName].candidates[i] */\n      dup2\n      sload\n      dup2\n      lt\n      tag_141\n      jumpi\n      tag_142\n      tag_97\n      jump\t// in\n    tag_142:\n    tag_141:\n      swap1\n      0x00\n      mstore\n      keccak256(0x00, 0x20)\n      swap1\n      0x03\n      mul\n      add\n        /* \"github/fahadashiq/block-chain/smart-contracts/voting.sol\":2964:3030  Candidate memory candidate = campaigns[campaignName].candidates[i] */\n      mload(0x40)\n      dup1\n      0x60\n      add\n      0x40\n      mstore\n      swap1\n      dup2\n      0x00\n      dup3\n      add\n      dup1\n      sload\n      tag_144\n      swap1\n      tag_57\n      jump\t// in\n    tag_144:\n      dup1\n      0x1f\n      add\n      0x20\n      dup1\n      swap2\n      div\n      mul\n      0x20\n      add\n      mload(0x40)\n      swap1\n      dup2\n      add\n      0x40\n      mstore\n      dup1\n      swap3\n      swap2\n      swap1\n      dup2\n      dup2\n      mstore\n      0x20\n      add\n      dup3\n      dup1\n      sload\n      tag_145\n      swap1\n      tag_57\n      jump\t// in\n    tag_145:\n      dup1\n      iszero\n      tag_146\n      jumpi\n      dup1\n      0x1f\n      lt\n      tag_147\n      jumpi\n      0x0100\n      dup1\n      dup4\n      sload\n      div\n      mul\n      dup4\n      mstore\n      swap2\n      0x20\n      add\n      swap2\n      jump(tag_146)\n    tag_147:\n      dup3\n      add\n      swap2\n      swap1\n      0x00\n      mstore\n      keccak256(0x00, 0x20)\n      swap1\n    tag_148:\n      dup2\n      sload\n      dup2\n      mstore\n      swap1\n      0x01\n      add\n      swap1\n      0x20\n      add\n      dup1\n      dup4\n      gt\n      tag_148\n      jumpi\n      dup3\n      swap1\n      sub\n      0x1f\n      and\n      dup3\n      add\n      swap2\n    tag_146:\n      pop\n      pop\n      pop\n      pop\n      pop\n      dup2\n      mstore\n      0x20\n      add\n      0x01\n      dup3\n      add\n      dup1\n      sload\n      tag_149\n      swap1\n      tag_57\n      jump\t// in\n    tag_149:\n      dup1\n      0x1f\n      add\n      0x20\n      dup1\n      swap2\n      div\n      mul\n      0x20\n      add\n      mload(0x40)\n      swap1\n      dup2\n      add\n      0x40\n      mstore\n      dup1\n      swap3\n      swap2\n      swap1\n      dup2\n      dup2\n      mstore\n      0x20\n      add\n      dup3\n      dup1\n      sload\n      tag_150\n      swap1\n      tag_57\n      jump\t// in\n    tag_150:\n      dup1\n      iszero\n      tag_151\n      jumpi\n      dup1\n      0x1f\n      lt\n      tag_152\n      jumpi\n      0x0100\n      dup1\n      dup4\n      sload\n      div\n      mul\n      dup4\n      mstore\n      swap2\n      0x20\n      add\n      swap2\n      jump(tag_151)\n    tag_152:\n      dup3\n      add\n      swap2\n      swap1\n      0x00\n      mstore\n      keccak256(0x00, 0x20)\n      swap1\n    tag_153:\n      dup2\n      sload\n      dup2\n      mstore\n      swap1\n      0x01\n      add\n      swap1\n      0x20\n      add\n      dup1\n      dup4\n      gt\n      tag_153\n      jumpi\n      dup3\n      swap1\n      sub\n      0x1f\n      and\n      dup3\n      add\n      swap2\n    tag_151:\n      pop\n      pop\n      pop\n      pop\n      pop\n      dup2\n      mstore\n      0x20\n      add\n      0x02\n      dup3\n      add\n      sload\n      dup2\n      mstore\n      pop\n      pop\n      swap1\n      pop\n        /* \"github/fahadashiq/block-chain/smart-contracts/voting.sol\":3101:3114  candidateName */\n      dup4\n        /* \"github/fahadashiq/block-chain/smart-contracts/voting.sol\":3085:3116  keccak256(bytes(candidateName)) */\n      dup1\n      mload\n      swap1\n      0x20\n      add\n      keccak256\n        /* \"github/fahadashiq/block-chain/smart-contracts/voting.sol\":3065:3074  candidate */\n      dup2\n        /* \"github/fahadashiq/block-chain/smart-contracts/voting.sol\":3065:3079  candidate.name */\n      0x00\n      add\n      mload\n        /* \"github/fahadashiq/block-chain/smart-contracts/voting.sol\":3049:3081  keccak256(bytes(candidate.name)) */\n      dup1\n      mload\n      swap1\n      0x20\n      add\n      keccak256\n        /* \"github/fahadashiq/block-chain/smart-contracts/voting.sol\":3049:3116  keccak256(bytes(candidate.name)) == keccak256(bytes(candidateName)) */\n      sub\n        /* \"github/fahadashiq/block-chain/smart-contracts/voting.sol\":3045:3175  if (keccak256(bytes(candidate.name)) == keccak256(bytes(candidateName))) {... */\n      tag_154\n      jumpi\n        /* \"github/fahadashiq/block-chain/smart-contracts/voting.sol\":3144:3153  candidate */\n      dup1\n        /* \"github/fahadashiq/block-chain/smart-contracts/voting.sol\":3144:3159  candidate.votes */\n      0x40\n      add\n      mload\n        /* \"github/fahadashiq/block-chain/smart-contracts/voting.sol\":3137:3159  return candidate.votes */\n      swap3\n      pop\n      pop\n      pop\n      jump(tag_135)\n        /* \"github/fahadashiq/block-chain/smart-contracts/voting.sol\":3045:3175  if (keccak256(bytes(candidate.name)) == keccak256(bytes(candidateName))) {... */\n    tag_154:\n        /* \"github/fahadashiq/block-chain/smart-contracts/voting.sol\":2949:3186  {... */\n      pop\n        /* \"github/fahadashiq/block-chain/smart-contracts/voting.sol\":2944:2947  i++ */\n      dup1\n      dup1\n      tag_155\n      swap1\n      tag_71\n      jump\t// in\n    tag_155:\n      swap2\n      pop\n      pop\n        /* \"github/fahadashiq/block-chain/smart-contracts/voting.sol\":2881:3186  for(uint i = 0; i < campaigns[campaignName].candidates.length; i++) {... */\n      jump(tag_136)\n    tag_137:\n      pop\n        /* \"github/fahadashiq/block-chain/smart-contracts/voting.sol\":3203:3204  0 */\n      0x00\n        /* \"github/fahadashiq/block-chain/smart-contracts/voting.sol\":3196:3204  return 0 */\n      swap1\n      pop\n        /* \"github/fahadashiq/block-chain/smart-contracts/voting.sol\":2752:3212  function getCandidateVotes( string memory campaignName, string memory candidateName) public view returns (uint votes) {... */\n    tag_135:\n      swap3\n      swap2\n      pop\n      pop\n      jump\t// out\n        /* \"github/fahadashiq/block-chain/smart-contracts/voting.sol\":3675:3761  function getNumResult() public view returns (uint res) {... */\n    tag_46:\n        /* \"github/fahadashiq/block-chain/smart-contracts/voting.sol\":3720:3728  uint res */\n      0x00\n        /* \"github/fahadashiq/block-chain/smart-contracts/voting.sol\":3749:3752  123 */\n      0x7b\n        /* \"github/fahadashiq/block-chain/smart-contracts/voting.sol\":3742:3752  return 123 */\n      swap1\n      pop\n        /* \"github/fahadashiq/block-chain/smart-contracts/voting.sol\":3675:3761  function getNumResult() public view returns (uint res) {... */\n      swap1\n      jump\t// out\n        /* \"github/fahadashiq/block-chain/smart-contracts/voting.sol\":3343:3664  function getAllCompainNames() public view returns (string[] memory campaignNames) {... */\n    tag_49:\n        /* \"github/fahadashiq/block-chain/smart-contracts/voting.sol\":3394:3423  string[] memory campaignNames */\n      0x60\n        /* \"github/fahadashiq/block-chain/smart-contracts/voting.sol\":3436:3463  string[] memory memoryArray */\n      0x00\n        /* \"github/fahadashiq/block-chain/smart-contracts/voting.sol\":3479:3496  numberOfCampaigns */\n      sload(0x01)\n        /* \"github/fahadashiq/block-chain/smart-contracts/voting.sol\":3466:3497  new string[](numberOfCampaigns) */\n      0xffffffffffffffff\n      dup2\n      gt\n      iszero\n      tag_158\n      jumpi\n      tag_159\n      tag_160\n      jump\t// in\n    tag_159:\n    tag_158:\n      mload(0x40)\n      swap1\n      dup1\n      dup3\n      mstore\n      dup1\n      0x20\n      mul\n      0x20\n      add\n      dup3\n      add\n      0x40\n      mstore\n      dup1\n      iszero\n      tag_161\n      jumpi\n      dup2\n      0x20\n      add\n    tag_162:\n      0x60\n      dup2\n      mstore\n      0x20\n      add\n      swap1\n      0x01\n      swap1\n      sub\n      swap1\n      dup2\n      tag_162\n      jumpi\n      swap1\n      pop\n    tag_161:\n      pop\n        /* \"github/fahadashiq/block-chain/smart-contracts/voting.sol\":3436:3497  string[] memory memoryArray = new string[](numberOfCampaigns) */\n      swap1\n      pop\n        /* \"github/fahadashiq/block-chain/smart-contracts/voting.sol\":3512:3518  uint i */\n      0x00\n        /* \"github/fahadashiq/block-chain/smart-contracts/voting.sol\":3508:3628  for(uint i = 0; i < numberOfCampaigns; i++) {... */\n    tag_163:\n        /* \"github/fahadashiq/block-chain/smart-contracts/voting.sol\":3528:3545  numberOfCampaigns */\n      sload(0x01)\n        /* \"github/fahadashiq/block-chain/smart-contracts/voting.sol\":3524:3525  i */\n      dup2\n        /* \"github/fahadashiq/block-chain/smart-contracts/voting.sol\":3524:3545  i < numberOfCampaigns */\n      lt\n        /* \"github/fahadashiq/block-chain/smart-contracts/voting.sol\":3508:3628  for(uint i = 0; i < numberOfCampaigns; i++) {... */\n      iszero\n      tag_164\n      jumpi\n        /* \"github/fahadashiq/block-chain/smart-contracts/voting.sol\":3584:3593  campaigns */\n      0x00\n        /* \"github/fahadashiq/block-chain/smart-contracts/voting.sol\":3594:3607  compaignNames */\n      0x02\n        /* \"github/fahadashiq/block-chain/smart-contracts/voting.sol\":3608:3609  i */\n      dup3\n        /* \"github/fahadashiq/block-chain/smart-contracts/voting.sol\":3594:3610  compaignNames[i] */\n      dup2\n      sload\n      dup2\n      lt\n      tag_166\n      jumpi\n      tag_167\n      tag_97\n      jump\t// in\n    tag_167:\n    tag_166:\n      swap1\n      0x00\n      mstore\n      keccak256(0x00, 0x20)\n      add\n        /* \"github/fahadashiq/block-chain/smart-contracts/voting.sol\":3584:3611  campaigns[compaignNames[i]] */\n      mload(0x40)\n      tag_169\n      swap2\n      swap1\n      tag_170\n      jump\t// in\n    tag_169:\n      swap1\n      dup2\n      mstore\n      0x20\n      add\n      mload(0x40)\n      dup1\n      swap2\n      sub\n      swap1\n      keccak256\n        /* \"github/fahadashiq/block-chain/smart-contracts/voting.sol\":3584:3616  campaigns[compaignNames[i]].name */\n      0x00\n      add\n        /* \"github/fahadashiq/block-chain/smart-contracts/voting.sol\":3567:3616  memoryArray[i] = campaigns[compaignNames[i]].name */\n      dup1\n      sload\n      tag_171\n      swap1\n      tag_57\n      jump\t// in\n    tag_171:\n      dup1\n      0x1f\n      add\n      0x20\n      dup1\n      swap2\n      div\n      mul\n      0x20\n      add\n      mload(0x40)\n      swap1\n      dup2\n      add\n      0x40\n      mstore\n      dup1\n      swap3\n      swap2\n      swap1\n      dup2\n      dup2\n      mstore\n      0x20\n      add\n      dup3\n      dup1\n      sload\n      tag_172\n      swap1\n      tag_57\n      jump\t// in\n    tag_172:\n      dup1\n      iszero\n      tag_173\n      jumpi\n      dup1\n      0x1f\n      lt\n      tag_174\n      jumpi\n      0x0100\n      dup1\n      dup4\n      sload\n      div\n      mul\n      dup4\n      mstore\n      swap2\n      0x20\n      add\n      swap2\n      jump(tag_173)\n    tag_174:\n      dup3\n      add\n      swap2\n      swap1\n      0x00\n      mstore\n      keccak256(0x00, 0x20)\n      swap1\n    tag_175:\n      dup2\n      sload\n      dup2\n      mstore\n      swap1\n      0x01\n      add\n      swap1\n      0x20\n      add\n      dup1\n      dup4\n      gt\n      tag_175\n      jumpi\n      dup3\n      swap1\n      sub\n      0x1f\n      and\n      dup3\n      add\n      swap2\n    tag_173:\n      pop\n      pop\n      pop\n      pop\n      pop\n        /* \"github/fahadashiq/block-chain/smart-contracts/voting.sol\":3567:3578  memoryArray */\n      dup3\n        /* \"github/fahadashiq/block-chain/smart-contracts/voting.sol\":3579:3580  i */\n      dup3\n        /* \"github/fahadashiq/block-chain/smart-contracts/voting.sol\":3567:3581  memoryArray[i] */\n      dup2\n      mload\n      dup2\n      lt\n      tag_176\n      jumpi\n      tag_177\n      tag_97\n      jump\t// in\n    tag_177:\n    tag_176:\n      0x20\n      mul\n      0x20\n      add\n      add\n        /* \"github/fahadashiq/block-chain/smart-contracts/voting.sol\":3567:3616  memoryArray[i] = campaigns[compaignNames[i]].name */\n      dup2\n      swap1\n      mstore\n      pop\n        /* \"github/fahadashiq/block-chain/smart-contracts/voting.sol\":3547:3550  i++ */\n      dup1\n      dup1\n      tag_178\n      swap1\n      tag_71\n      jump\t// in\n    tag_178:\n      swap2\n      pop\n      pop\n        /* \"github/fahadashiq/block-chain/smart-contracts/voting.sol\":3508:3628  for(uint i = 0; i < numberOfCampaigns; i++) {... */\n      jump(tag_163)\n    tag_164:\n      pop\n        /* \"github/fahadashiq/block-chain/smart-contracts/voting.sol\":3645:3656  memoryArray */\n      dup1\n        /* \"github/fahadashiq/block-chain/smart-contracts/voting.sol\":3638:3656  return memoryArray */\n      swap2\n      pop\n      pop\n        /* \"github/fahadashiq/block-chain/smart-contracts/voting.sol\":3343:3664  function getAllCompainNames() public view returns (string[] memory campaignNames) {... */\n      swap1\n      jump\t// out\n        /* \"github/fahadashiq/block-chain/smart-contracts/voting.sol\":824:844  address public admin */\n    tag_53:\n      0x03\n      0x00\n      swap1\n      sload\n      swap1\n      0x0100\n      exp\n      swap1\n      div\n      0xffffffffffffffffffffffffffffffffffffffff\n      and\n      dup2\n      jump\t// out\n    tag_69:\n      dup3\n      dup1\n      sload\n      tag_179\n      swap1\n      tag_57\n      jump\t// in\n    tag_179:\n      swap1\n      0x00\n      mstore\n      keccak256(0x00, 0x20)\n      swap1\n      0x1f\n      add\n      0x20\n      swap1\n      div\n      dup2\n      add\n      swap3\n      dup3\n      tag_181\n      jumpi\n      0x00\n      dup6\n      sstore\n      jump(tag_180)\n    tag_181:\n      dup3\n      0x1f\n      lt\n      tag_182\n      jumpi\n      dup1\n      mload\n      not(0xff)\n      and\n      dup4\n      dup1\n      add\n      or\n      dup6\n      sstore\n      jump(tag_180)\n    tag_182:\n      dup3\n      dup1\n      add\n      0x01\n      add\n      dup6\n      sstore\n      dup3\n      iszero\n      tag_180\n      jumpi\n      swap2\n      dup3\n      add\n    tag_183:\n      dup3\n      dup2\n      gt\n      iszero\n      tag_184\n      jumpi\n      dup3\n      mload\n      dup3\n      sstore\n      swap2\n      0x20\n      add\n      swap2\n      swap1\n      0x01\n      add\n      swap1\n      jump(tag_183)\n    tag_184:\n    tag_180:\n      pop\n      swap1\n      pop\n      tag_185\n      swap2\n      swap1\n      tag_186\n      jump\t// in\n    tag_185:\n      pop\n      swap1\n      jump\t// out\n    tag_113:\n      mload(0x40)\n      dup1\n      0x40\n      add\n      0x40\n      mstore\n      dup1\n      0x60\n      dup2\n      mstore\n      0x20\n      add\n      0x60\n      dup2\n      mstore\n      pop\n      swap1\n      jump\t// out\n    tag_186:\n    tag_187:\n      dup1\n      dup3\n      gt\n      iszero\n      tag_188\n      jumpi\n      0x00\n      dup2\n      0x00\n      swap1\n      sstore\n      pop\n      0x01\n      add\n      jump(tag_187)\n    tag_188:\n      pop\n      swap1\n      jump\t// out\n        /* \"#utility.yul\":7:82   */\n    tag_189:\n        /* \"#utility.yul\":40:46   */\n      0x00\n        /* \"#utility.yul\":73:75   */\n      0x40\n        /* \"#utility.yul\":67:76   */\n      mload\n        /* \"#utility.yul\":57:76   */\n      swap1\n      pop\n        /* \"#utility.yul\":7:82   */\n      swap1\n      jump\t// out\n        /* \"#utility.yul\":88:205   */\n    tag_190:\n        /* \"#utility.yul\":197:198   */\n      0x00\n        /* \"#utility.yul\":194:195   */\n      dup1\n        /* \"#utility.yul\":187:199   */\n      revert\n        /* \"#utility.yul\":211:328   */\n    tag_191:\n        /* \"#utility.yul\":320:321   */\n      0x00\n        /* \"#utility.yul\":317:318   */\n      dup1\n        /* \"#utility.yul\":310:322   */\n      revert\n        /* \"#utility.yul\":334:451   */\n    tag_192:\n        /* \"#utility.yul\":443:444   */\n      0x00\n        /* \"#utility.yul\":440:441   */\n      dup1\n        /* \"#utility.yul\":433:445   */\n      revert\n        /* \"#utility.yul\":457:574   */\n    tag_193:\n        /* \"#utility.yul\":566:567   */\n      0x00\n        /* \"#utility.yul\":563:564   */\n      dup1\n        /* \"#utility.yul\":556:568   */\n      revert\n        /* \"#utility.yul\":580:682   */\n    tag_194:\n        /* \"#utility.yul\":621:627   */\n      0x00\n        /* \"#utility.yul\":672:674   */\n      0x1f\n        /* \"#utility.yul\":668:675   */\n      not\n        /* \"#utility.yul\":663:665   */\n      0x1f\n        /* \"#utility.yul\":656:661   */\n      dup4\n        /* \"#utility.yul\":652:666   */\n      add\n        /* \"#utility.yul\":648:676   */\n      and\n        /* \"#utility.yul\":638:676   */\n      swap1\n      pop\n        /* \"#utility.yul\":580:682   */\n      swap2\n      swap1\n      pop\n      jump\t// out\n        /* \"#utility.yul\":688:868   */\n    tag_160:\n        /* \"#utility.yul\":736:813   */\n      0x4e487b7100000000000000000000000000000000000000000000000000000000\n        /* \"#utility.yul\":733:734   */\n      0x00\n        /* \"#utility.yul\":726:814   */\n      mstore\n        /* \"#utility.yul\":833:837   */\n      0x41\n        /* \"#utility.yul\":830:831   */\n      0x04\n        /* \"#utility.yul\":823:838   */\n      mstore\n        /* \"#utility.yul\":857:861   */\n      0x24\n        /* \"#utility.yul\":854:855   */\n      0x00\n        /* \"#utility.yul\":847:862   */\n      revert\n        /* \"#utility.yul\":874:1155   */\n    tag_195:\n        /* \"#utility.yul\":957:984   */\n      tag_250\n        /* \"#utility.yul\":979:983   */\n      dup3\n        /* \"#utility.yul\":957:984   */\n      tag_194\n      jump\t// in\n    tag_250:\n        /* \"#utility.yul\":949:955   */\n      dup2\n        /* \"#utility.yul\":945:985   */\n      add\n        /* \"#utility.yul\":1087:1093   */\n      dup2\n        /* \"#utility.yul\":1075:1085   */\n      dup2\n        /* \"#utility.yul\":1072:1094   */\n      lt\n        /* \"#utility.yul\":1051:1069   */\n      0xffffffffffffffff\n        /* \"#utility.yul\":1039:1049   */\n      dup3\n        /* \"#utility.yul\":1036:1070   */\n      gt\n        /* \"#utility.yul\":1033:1095   */\n      or\n        /* \"#utility.yul\":1030:1118   */\n      iszero\n      tag_251\n      jumpi\n        /* \"#utility.yul\":1098:1116   */\n      tag_252\n      tag_160\n      jump\t// in\n    tag_252:\n        /* \"#utility.yul\":1030:1118   */\n    tag_251:\n        /* \"#utility.yul\":1138:1148   */\n      dup1\n        /* \"#utility.yul\":1134:1136   */\n      0x40\n        /* \"#utility.yul\":1127:1149   */\n      mstore\n        /* \"#utility.yul\":917:1155   */\n      pop\n        /* \"#utility.yul\":874:1155   */\n      pop\n      pop\n      jump\t// out\n        /* \"#utility.yul\":1161:1290   */\n    tag_196:\n        /* \"#utility.yul\":1195:1201   */\n      0x00\n        /* \"#utility.yul\":1222:1242   */\n      tag_254\n      tag_189\n      jump\t// in\n    tag_254:\n        /* \"#utility.yul\":1212:1242   */\n      swap1\n      pop\n        /* \"#utility.yul\":1251:1284   */\n      tag_255\n        /* \"#utility.yul\":1279:1283   */\n      dup3\n        /* \"#utility.yul\":1271:1277   */\n      dup3\n        /* \"#utility.yul\":1251:1284   */\n      tag_195\n      jump\t// in\n    tag_255:\n        /* \"#utility.yul\":1161:1290   */\n      swap2\n      swap1\n      pop\n      jump\t// out\n        /* \"#utility.yul\":1296:1604   */\n    tag_197:\n        /* \"#utility.yul\":1358:1362   */\n      0x00\n        /* \"#utility.yul\":1448:1466   */\n      0xffffffffffffffff\n        /* \"#utility.yul\":1440:1446   */\n      dup3\n        /* \"#utility.yul\":1437:1467   */\n      gt\n        /* \"#utility.yul\":1434:1490   */\n      iszero\n      tag_257\n      jumpi\n        /* \"#utility.yul\":1470:1488   */\n      tag_258\n      tag_160\n      jump\t// in\n    tag_258:\n        /* \"#utility.yul\":1434:1490   */\n    tag_257:\n        /* \"#utility.yul\":1508:1537   */\n      tag_259\n        /* \"#utility.yul\":1530:1536   */\n      dup3\n        /* \"#utility.yul\":1508:1537   */\n      tag_194\n      jump\t// in\n    tag_259:\n        /* \"#utility.yul\":1500:1537   */\n      swap1\n      pop\n        /* \"#utility.yul\":1592:1596   */\n      0x20\n        /* \"#utility.yul\":1586:1590   */\n      dup2\n        /* \"#utility.yul\":1582:1597   */\n      add\n        /* \"#utility.yul\":1574:1597   */\n      swap1\n      pop\n        /* \"#utility.yul\":1296:1604   */\n      swap2\n      swap1\n      pop\n      jump\t// out\n        /* \"#utility.yul\":1610:1764   */\n    tag_198:\n        /* \"#utility.yul\":1694:1700   */\n      dup3\n        /* \"#utility.yul\":1689:1692   */\n      dup2\n        /* \"#utility.yul\":1684:1687   */\n      dup4\n        /* \"#utility.yul\":1671:1701   */\n      calldatacopy\n        /* \"#utility.yul\":1756:1757   */\n      0x00\n        /* \"#utility.yul\":1747:1753   */\n      dup4\n        /* \"#utility.yul\":1742:1745   */\n      dup4\n        /* \"#utility.yul\":1738:1754   */\n      add\n        /* \"#utility.yul\":1731:1758   */\n      mstore\n        /* \"#utility.yul\":1610:1764   */\n      pop\n      pop\n      pop\n      jump\t// out\n        /* \"#utility.yul\":1770:2182   */\n    tag_199:\n        /* \"#utility.yul\":1848:1853   */\n      0x00\n        /* \"#utility.yul\":1873:1939   */\n      tag_262\n        /* \"#utility.yul\":1889:1938   */\n      tag_263\n        /* \"#utility.yul\":1931:1937   */\n      dup5\n        /* \"#utility.yul\":1889:1938   */\n      tag_197\n      jump\t// in\n    tag_263:\n        /* \"#utility.yul\":1873:1939   */\n      tag_196\n      jump\t// in\n    tag_262:\n        /* \"#utility.yul\":1864:1939   */\n      swap1\n      pop\n        /* \"#utility.yul\":1962:1968   */\n      dup3\n        /* \"#utility.yul\":1955:1960   */\n      dup2\n        /* \"#utility.yul\":1948:1969   */\n      mstore\n        /* \"#utility.yul\":2000:2004   */\n      0x20\n        /* \"#utility.yul\":1993:1998   */\n      dup2\n        /* \"#utility.yul\":1989:2005   */\n      add\n        /* \"#utility.yul\":2038:2041   */\n      dup5\n        /* \"#utility.yul\":2029:2035   */\n      dup5\n        /* \"#utility.yul\":2024:2027   */\n      dup5\n        /* \"#utility.yul\":2020:2036   */\n      add\n        /* \"#utility.yul\":2017:2042   */\n      gt\n        /* \"#utility.yul\":2014:2126   */\n      iszero\n      tag_264\n      jumpi\n        /* \"#utility.yul\":2045:2124   */\n      tag_265\n      tag_193\n      jump\t// in\n    tag_265:\n        /* \"#utility.yul\":2014:2126   */\n    tag_264:\n        /* \"#utility.yul\":2135:2176   */\n      tag_266\n        /* \"#utility.yul\":2169:2175   */\n      dup5\n        /* \"#utility.yul\":2164:2167   */\n      dup3\n        /* \"#utility.yul\":2159:2162   */\n      dup6\n        /* \"#utility.yul\":2135:2176   */\n      tag_198\n      jump\t// in\n    tag_266:\n        /* \"#utility.yul\":1854:2182   */\n      pop\n        /* \"#utility.yul\":1770:2182   */\n      swap4\n      swap3\n      pop\n      pop\n      pop\n      jump\t// out\n        /* \"#utility.yul\":2202:2542   */\n    tag_200:\n        /* \"#utility.yul\":2258:2263   */\n      0x00\n        /* \"#utility.yul\":2307:2310   */\n      dup3\n        /* \"#utility.yul\":2300:2304   */\n      0x1f\n        /* \"#utility.yul\":2292:2298   */\n      dup4\n        /* \"#utility.yul\":2288:2305   */\n      add\n        /* \"#utility.yul\":2284:2311   */\n      slt\n        /* \"#utility.yul\":2274:2396   */\n      tag_268\n      jumpi\n        /* \"#utility.yul\":2315:2394   */\n      tag_269\n      tag_192\n      jump\t// in\n    tag_269:\n        /* \"#utility.yul\":2274:2396   */\n    tag_268:\n        /* \"#utility.yul\":2432:2438   */\n      dup2\n        /* \"#utility.yul\":2419:2439   */\n      calldataload\n        /* \"#utility.yul\":2457:2536   */\n      tag_270\n        /* \"#utility.yul\":2532:2535   */\n      dup5\n        /* \"#utility.yul\":2524:2530   */\n      dup3\n        /* \"#utility.yul\":2517:2521   */\n      0x20\n        /* \"#utility.yul\":2509:2515   */\n      dup7\n        /* \"#utility.yul\":2505:2522   */\n      add\n        /* \"#utility.yul\":2457:2536   */\n      tag_199\n      jump\t// in\n    tag_270:\n        /* \"#utility.yul\":2448:2536   */\n      swap2\n      pop\n        /* \"#utility.yul\":2264:2542   */\n      pop\n        /* \"#utility.yul\":2202:2542   */\n      swap3\n      swap2\n      pop\n      pop\n      jump\t// out\n        /* \"#utility.yul\":2548:3057   */\n    tag_16:\n        /* \"#utility.yul\":2617:2623   */\n      0x00\n        /* \"#utility.yul\":2666:2668   */\n      0x20\n        /* \"#utility.yul\":2654:2663   */\n      dup3\n        /* \"#utility.yul\":2645:2652   */\n      dup5\n        /* \"#utility.yul\":2641:2664   */\n      sub\n        /* \"#utility.yul\":2637:2669   */\n      slt\n        /* \"#utility.yul\":2634:2753   */\n      iszero\n      tag_272\n      jumpi\n        /* \"#utility.yul\":2672:2751   */\n      tag_273\n      tag_190\n      jump\t// in\n    tag_273:\n        /* \"#utility.yul\":2634:2753   */\n    tag_272:\n        /* \"#utility.yul\":2820:2821   */\n      0x00\n        /* \"#utility.yul\":2809:2818   */\n      dup3\n        /* \"#utility.yul\":2805:2822   */\n      add\n        /* \"#utility.yul\":2792:2823   */\n      calldataload\n        /* \"#utility.yul\":2850:2868   */\n      0xffffffffffffffff\n        /* \"#utility.yul\":2842:2848   */\n      dup2\n        /* \"#utility.yul\":2839:2869   */\n      gt\n        /* \"#utility.yul\":2836:2953   */\n      iszero\n      tag_274\n      jumpi\n        /* \"#utility.yul\":2872:2951   */\n      tag_275\n      tag_191\n      jump\t// in\n    tag_275:\n        /* \"#utility.yul\":2836:2953   */\n    tag_274:\n        /* \"#utility.yul\":2977:3040   */\n      tag_276\n        /* \"#utility.yul\":3032:3039   */\n      dup5\n        /* \"#utility.yul\":3023:3029   */\n      dup3\n        /* \"#utility.yul\":3012:3021   */\n      dup6\n        /* \"#utility.yul\":3008:3030   */\n      add\n        /* \"#utility.yul\":2977:3040   */\n      tag_200\n      jump\t// in\n    tag_276:\n        /* \"#utility.yul\":2967:3040   */\n      swap2\n      pop\n        /* \"#utility.yul\":2763:3050   */\n      pop\n        /* \"#utility.yul\":2548:3057   */\n      swap3\n      swap2\n      pop\n      pop\n      jump\t// out\n        /* \"#utility.yul\":3063:3162   */\n    tag_201:\n        /* \"#utility.yul\":3115:3121   */\n      0x00\n        /* \"#utility.yul\":3149:3154   */\n      dup2\n        /* \"#utility.yul\":3143:3155   */\n      mload\n        /* \"#utility.yul\":3133:3155   */\n      swap1\n      pop\n        /* \"#utility.yul\":3063:3162   */\n      swap2\n      swap1\n      pop\n      jump\t// out\n        /* \"#utility.yul\":3168:3337   */\n    tag_202:\n        /* \"#utility.yul\":3252:3263   */\n      0x00\n        /* \"#utility.yul\":3286:3292   */\n      dup3\n        /* \"#utility.yul\":3281:3284   */\n      dup3\n        /* \"#utility.yul\":3274:3293   */\n      mstore\n        /* \"#utility.yul\":3326:3330   */\n      0x20\n        /* \"#utility.yul\":3321:3324   */\n      dup3\n        /* \"#utility.yul\":3317:3331   */\n      add\n        /* \"#utility.yul\":3302:3331   */\n      swap1\n      pop\n        /* \"#utility.yul\":3168:3337   */\n      swap3\n      swap2\n      pop\n      pop\n      jump\t// out\n        /* \"#utility.yul\":3343:3650   */\n    tag_203:\n        /* \"#utility.yul\":3411:3412   */\n      0x00\n        /* \"#utility.yul\":3421:3534   */\n    tag_280:\n        /* \"#utility.yul\":3435:3441   */\n      dup4\n        /* \"#utility.yul\":3432:3433   */\n      dup2\n        /* \"#utility.yul\":3429:3442   */\n      lt\n        /* \"#utility.yul\":3421:3534   */\n      iszero\n      tag_282\n      jumpi\n        /* \"#utility.yul\":3520:3521   */\n      dup1\n        /* \"#utility.yul\":3515:3518   */\n      dup3\n        /* \"#utility.yul\":3511:3522   */\n      add\n        /* \"#utility.yul\":3505:3523   */\n      mload\n        /* \"#utility.yul\":3501:3502   */\n      dup2\n        /* \"#utility.yul\":3496:3499   */\n      dup5\n        /* \"#utility.yul\":3492:3503   */\n      add\n        /* \"#utility.yul\":3485:3524   */\n      mstore\n        /* \"#utility.yul\":3457:3459   */\n      0x20\n        /* \"#utility.yul\":3454:3455   */\n      dup2\n        /* \"#utility.yul\":3450:3460   */\n      add\n        /* \"#utility.yul\":3445:3460   */\n      swap1\n      pop\n        /* \"#utility.yul\":3421:3534   */\n      jump(tag_280)\n    tag_282:\n        /* \"#utility.yul\":3552:3558   */\n      dup4\n        /* \"#utility.yul\":3549:3550   */\n      dup2\n        /* \"#utility.yul\":3546:3559   */\n      gt\n        /* \"#utility.yul\":3543:3644   */\n      iszero\n      tag_283\n      jumpi\n        /* \"#utility.yul\":3632:3633   */\n      0x00\n        /* \"#utility.yul\":3623:3629   */\n      dup5\n        /* \"#utility.yul\":3618:3621   */\n      dup5\n        /* \"#utility.yul\":3614:3630   */\n      add\n        /* \"#utility.yul\":3607:3634   */\n      mstore\n        /* \"#utility.yul\":3543:3644   */\n    tag_283:\n        /* \"#utility.yul\":3392:3650   */\n      pop\n        /* \"#utility.yul\":3343:3650   */\n      pop\n      pop\n      pop\n      jump\t// out\n        /* \"#utility.yul\":3656:4020   */\n    tag_204:\n        /* \"#utility.yul\":3744:3747   */\n      0x00\n        /* \"#utility.yul\":3772:3811   */\n      tag_285\n        /* \"#utility.yul\":3805:3810   */\n      dup3\n        /* \"#utility.yul\":3772:3811   */\n      tag_201\n      jump\t// in\n    tag_285:\n        /* \"#utility.yul\":3827:3898   */\n      tag_286\n        /* \"#utility.yul\":3891:3897   */\n      dup2\n        /* \"#utility.yul\":3886:3889   */\n      dup6\n        /* \"#utility.yul\":3827:3898   */\n      tag_202\n      jump\t// in\n    tag_286:\n        /* \"#utility.yul\":3820:3898   */\n      swap4\n      pop\n        /* \"#utility.yul\":3907:3959   */\n      tag_287\n        /* \"#utility.yul\":3952:3958   */\n      dup2\n        /* \"#utility.yul\":3947:3950   */\n      dup6\n        /* \"#utility.yul\":3940:3944   */\n      0x20\n        /* \"#utility.yul\":3933:3938   */\n      dup7\n        /* \"#utility.yul\":3929:3945   */\n      add\n        /* \"#utility.yul\":3907:3959   */\n      tag_203\n      jump\t// in\n    tag_287:\n        /* \"#utility.yul\":3984:4013   */\n      tag_288\n        /* \"#utility.yul\":4006:4012   */\n      dup2\n        /* \"#utility.yul\":3984:4013   */\n      tag_194\n      jump\t// in\n    tag_288:\n        /* \"#utility.yul\":3979:3982   */\n      dup5\n        /* \"#utility.yul\":3975:4014   */\n      add\n        /* \"#utility.yul\":3968:4014   */\n      swap2\n      pop\n        /* \"#utility.yul\":3748:4020   */\n      pop\n        /* \"#utility.yul\":3656:4020   */\n      swap3\n      swap2\n      pop\n      pop\n      jump\t// out\n        /* \"#utility.yul\":4026:4339   */\n    tag_19:\n        /* \"#utility.yul\":4139:4143   */\n      0x00\n        /* \"#utility.yul\":4177:4179   */\n      0x20\n        /* \"#utility.yul\":4166:4175   */\n      dup3\n        /* \"#utility.yul\":4162:4180   */\n      add\n        /* \"#utility.yul\":4154:4180   */\n      swap1\n      pop\n        /* \"#utility.yul\":4226:4235   */\n      dup2\n        /* \"#utility.yul\":4220:4224   */\n      dup2\n        /* \"#utility.yul\":4216:4236   */\n      sub\n        /* \"#utility.yul\":4212:4213   */\n      0x00\n        /* \"#utility.yul\":4201:4210   */\n      dup4\n        /* \"#utility.yul\":4197:4214   */\n      add\n        /* \"#utility.yul\":4190:4237   */\n      mstore\n        /* \"#utility.yul\":4254:4332   */\n      tag_290\n        /* \"#utility.yul\":4327:4331   */\n      dup2\n        /* \"#utility.yul\":4318:4324   */\n      dup5\n        /* \"#utility.yul\":4254:4332   */\n      tag_204\n      jump\t// in\n    tag_290:\n        /* \"#utility.yul\":4246:4332   */\n      swap1\n      pop\n        /* \"#utility.yul\":4026:4339   */\n      swap3\n      swap2\n      pop\n      pop\n      jump\t// out\n        /* \"#utility.yul\":4345:4422   */\n    tag_205:\n        /* \"#utility.yul\":4382:4389   */\n      0x00\n        /* \"#utility.yul\":4411:4416   */\n      dup2\n        /* \"#utility.yul\":4400:4416   */\n      swap1\n      pop\n        /* \"#utility.yul\":4345:4422   */\n      swap2\n      swap1\n      pop\n      jump\t// out\n        /* \"#utility.yul\":4428:4550   */\n    tag_206:\n        /* \"#utility.yul\":4501:4525   */\n      tag_293\n        /* \"#utility.yul\":4519:4524   */\n      dup2\n        /* \"#utility.yul\":4501:4525   */\n      tag_205\n      jump\t// in\n    tag_293:\n        /* \"#utility.yul\":4494:4499   */\n      dup2\n        /* \"#utility.yul\":4491:4526   */\n      eq\n        /* \"#utility.yul\":4481:4544   */\n      tag_294\n      jumpi\n        /* \"#utility.yul\":4540:4541   */\n      0x00\n        /* \"#utility.yul\":4537:4538   */\n      dup1\n        /* \"#utility.yul\":4530:4542   */\n      revert\n        /* \"#utility.yul\":4481:4544   */\n    tag_294:\n        /* \"#utility.yul\":4428:4550   */\n      pop\n      jump\t// out\n        /* \"#utility.yul\":4556:4695   */\n    tag_207:\n        /* \"#utility.yul\":4602:4607   */\n      0x00\n        /* \"#utility.yul\":4640:4646   */\n      dup2\n        /* \"#utility.yul\":4627:4647   */\n      calldataload\n        /* \"#utility.yul\":4618:4647   */\n      swap1\n      pop\n        /* \"#utility.yul\":4656:4689   */\n      tag_296\n        /* \"#utility.yul\":4683:4688   */\n      dup2\n        /* \"#utility.yul\":4656:4689   */\n      tag_206\n      jump\t// in\n    tag_296:\n        /* \"#utility.yul\":4556:4695   */\n      swap3\n      swap2\n      pop\n      pop\n      jump\t// out\n        /* \"#utility.yul\":4701:5030   */\n    tag_25:\n        /* \"#utility.yul\":4760:4766   */\n      0x00\n        /* \"#utility.yul\":4809:4811   */\n      0x20\n        /* \"#utility.yul\":4797:4806   */\n      dup3\n        /* \"#utility.yul\":4788:4795   */\n      dup5\n        /* \"#utility.yul\":4784:4807   */\n      sub\n        /* \"#utility.yul\":4780:4812   */\n      slt\n        /* \"#utility.yul\":4777:4896   */\n      iszero\n      tag_298\n      jumpi\n        /* \"#utility.yul\":4815:4894   */\n      tag_299\n      tag_190\n      jump\t// in\n    tag_299:\n        /* \"#utility.yul\":4777:4896   */\n    tag_298:\n        /* \"#utility.yul\":4935:4936   */\n      0x00\n        /* \"#utility.yul\":4960:5013   */\n      tag_300\n        /* \"#utility.yul\":5005:5012   */\n      dup5\n        /* \"#utility.yul\":4996:5002   */\n      dup3\n        /* \"#utility.yul\":4985:4994   */\n      dup6\n        /* \"#utility.yul\":4981:5003   */\n      add\n        /* \"#utility.yul\":4960:5013   */\n      tag_207\n      jump\t// in\n    tag_300:\n        /* \"#utility.yul\":4950:5013   */\n      swap2\n      pop\n        /* \"#utility.yul\":4906:5023   */\n      pop\n        /* \"#utility.yul\":4701:5030   */\n      swap3\n      swap2\n      pop\n      pop\n      jump\t// out\n        /* \"#utility.yul\":5036:6195   */\n    tag_30:\n        /* \"#utility.yul\":5143:5149   */\n      0x00\n        /* \"#utility.yul\":5151:5157   */\n      dup1\n        /* \"#utility.yul\":5159:5165   */\n      0x00\n        /* \"#utility.yul\":5208:5210   */\n      0x60\n        /* \"#utility.yul\":5196:5205   */\n      dup5\n        /* \"#utility.yul\":5187:5194   */\n      dup7\n        /* \"#utility.yul\":5183:5206   */\n      sub\n        /* \"#utility.yul\":5179:5211   */\n      slt\n        /* \"#utility.yul\":5176:5295   */\n      iszero\n      tag_302\n      jumpi\n        /* \"#utility.yul\":5214:5293   */\n      tag_303\n      tag_190\n      jump\t// in\n    tag_303:\n        /* \"#utility.yul\":5176:5295   */\n    tag_302:\n        /* \"#utility.yul\":5362:5363   */\n      0x00\n        /* \"#utility.yul\":5351:5360   */\n      dup5\n        /* \"#utility.yul\":5347:5364   */\n      add\n        /* \"#utility.yul\":5334:5365   */\n      calldataload\n        /* \"#utility.yul\":5392:5410   */\n      0xffffffffffffffff\n        /* \"#utility.yul\":5384:5390   */\n      dup2\n        /* \"#utility.yul\":5381:5411   */\n      gt\n        /* \"#utility.yul\":5378:5495   */\n      iszero\n      tag_304\n      jumpi\n        /* \"#utility.yul\":5414:5493   */\n      tag_305\n      tag_191\n      jump\t// in\n    tag_305:\n        /* \"#utility.yul\":5378:5495   */\n    tag_304:\n        /* \"#utility.yul\":5519:5582   */\n      tag_306\n        /* \"#utility.yul\":5574:5581   */\n      dup7\n        /* \"#utility.yul\":5565:5571   */\n      dup3\n        /* \"#utility.yul\":5554:5563   */\n      dup8\n        /* \"#utility.yul\":5550:5572   */\n      add\n        /* \"#utility.yul\":5519:5582   */\n      tag_200\n      jump\t// in\n    tag_306:\n        /* \"#utility.yul\":5509:5582   */\n      swap4\n      pop\n        /* \"#utility.yul\":5305:5592   */\n      pop\n        /* \"#utility.yul\":5659:5661   */\n      0x20\n        /* \"#utility.yul\":5648:5657   */\n      dup5\n        /* \"#utility.yul\":5644:5662   */\n      add\n        /* \"#utility.yul\":5631:5663   */\n      calldataload\n        /* \"#utility.yul\":5690:5708   */\n      0xffffffffffffffff\n        /* \"#utility.yul\":5682:5688   */\n      dup2\n        /* \"#utility.yul\":5679:5709   */\n      gt\n        /* \"#utility.yul\":5676:5793   */\n      iszero\n      tag_307\n      jumpi\n        /* \"#utility.yul\":5712:5791   */\n      tag_308\n      tag_191\n      jump\t// in\n    tag_308:\n        /* \"#utility.yul\":5676:5793   */\n    tag_307:\n        /* \"#utility.yul\":5817:5880   */\n      tag_309\n        /* \"#utility.yul\":5872:5879   */\n      dup7\n        /* \"#utility.yul\":5863:5869   */\n      dup3\n        /* \"#utility.yul\":5852:5861   */\n      dup8\n        /* \"#utility.yul\":5848:5870   */\n      add\n        /* \"#utility.yul\":5817:5880   */\n      tag_200\n      jump\t// in\n    tag_309:\n        /* \"#utility.yul\":5807:5880   */\n      swap3\n      pop\n        /* \"#utility.yul\":5602:5890   */\n      pop\n        /* \"#utility.yul\":5957:5959   */\n      0x40\n        /* \"#utility.yul\":5946:5955   */\n      dup5\n        /* \"#utility.yul\":5942:5960   */\n      add\n        /* \"#utility.yul\":5929:5961   */\n      calldataload\n        /* \"#utility.yul\":5988:6006   */\n      0xffffffffffffffff\n        /* \"#utility.yul\":5980:5986   */\n      dup2\n        /* \"#utility.yul\":5977:6007   */\n      gt\n        /* \"#utility.yul\":5974:6091   */\n      iszero\n      tag_310\n      jumpi\n        /* \"#utility.yul\":6010:6089   */\n      tag_311\n      tag_191\n      jump\t// in\n    tag_311:\n        /* \"#utility.yul\":5974:6091   */\n    tag_310:\n        /* \"#utility.yul\":6115:6178   */\n      tag_312\n        /* \"#utility.yul\":6170:6177   */\n      dup7\n        /* \"#utility.yul\":6161:6167   */\n      dup3\n        /* \"#utility.yul\":6150:6159   */\n      dup8\n        /* \"#utility.yul\":6146:6168   */\n      add\n        /* \"#utility.yul\":6115:6178   */\n      tag_200\n      jump\t// in\n    tag_312:\n        /* \"#utility.yul\":6105:6178   */\n      swap2\n      pop\n        /* \"#utility.yul\":5900:6188   */\n      pop\n        /* \"#utility.yul\":5036:6195   */\n      swap3\n      pop\n      swap3\n      pop\n      swap3\n      jump\t// out\n        /* \"#utility.yul\":6201:7035   */\n    tag_34:\n        /* \"#utility.yul\":6289:6295   */\n      0x00\n        /* \"#utility.yul\":6297:6303   */\n      dup1\n        /* \"#utility.yul\":6346:6348   */\n      0x40\n        /* \"#utility.yul\":6334:6343   */\n      dup4\n        /* \"#utility.yul\":6325:6332   */\n      dup6\n        /* \"#utility.yul\":6321:6344   */\n      sub\n        /* \"#utility.yul\":6317:6349   */\n      slt\n        /* \"#utility.yul\":6314:6433   */\n      iszero\n      tag_314\n      jumpi\n        /* \"#utility.yul\":6352:6431   */\n      tag_315\n      tag_190\n      jump\t// in\n    tag_315:\n        /* \"#utility.yul\":6314:6433   */\n    tag_314:\n        /* \"#utility.yul\":6500:6501   */\n      0x00\n        /* \"#utility.yul\":6489:6498   */\n      dup4\n        /* \"#utility.yul\":6485:6502   */\n      add\n        /* \"#utility.yul\":6472:6503   */\n      calldataload\n        /* \"#utility.yul\":6530:6548   */\n      0xffffffffffffffff\n        /* \"#utility.yul\":6522:6528   */\n      dup2\n        /* \"#utility.yul\":6519:6549   */\n      gt\n        /* \"#utility.yul\":6516:6633   */\n      iszero\n      tag_316\n      jumpi\n        /* \"#utility.yul\":6552:6631   */\n      tag_317\n      tag_191\n      jump\t// in\n    tag_317:\n        /* \"#utility.yul\":6516:6633   */\n    tag_316:\n        /* \"#utility.yul\":6657:6720   */\n      tag_318\n        /* \"#utility.yul\":6712:6719   */\n      dup6\n        /* \"#utility.yul\":6703:6709   */\n      dup3\n        /* \"#utility.yul\":6692:6701   */\n      dup7\n        /* \"#utility.yul\":6688:6710   */\n      add\n        /* \"#utility.yul\":6657:6720   */\n      tag_200\n      jump\t// in\n    tag_318:\n        /* \"#utility.yul\":6647:6720   */\n      swap3\n      pop\n        /* \"#utility.yul\":6443:6730   */\n      pop\n        /* \"#utility.yul\":6797:6799   */\n      0x20\n        /* \"#utility.yul\":6786:6795   */\n      dup4\n        /* \"#utility.yul\":6782:6800   */\n      add\n        /* \"#utility.yul\":6769:6801   */\n      calldataload\n        /* \"#utility.yul\":6828:6846   */\n      0xffffffffffffffff\n        /* \"#utility.yul\":6820:6826   */\n      dup2\n        /* \"#utility.yul\":6817:6847   */\n      gt\n        /* \"#utility.yul\":6814:6931   */\n      iszero\n      tag_319\n      jumpi\n        /* \"#utility.yul\":6850:6929   */\n      tag_320\n      tag_191\n      jump\t// in\n    tag_320:\n        /* \"#utility.yul\":6814:6931   */\n    tag_319:\n        /* \"#utility.yul\":6955:7018   */\n      tag_321\n        /* \"#utility.yul\":7010:7017   */\n      dup6\n        /* \"#utility.yul\":7001:7007   */\n      dup3\n        /* \"#utility.yul\":6990:6999   */\n      dup7\n        /* \"#utility.yul\":6986:7008   */\n      add\n        /* \"#utility.yul\":6955:7018   */\n      tag_200\n      jump\t// in\n    tag_321:\n        /* \"#utility.yul\":6945:7018   */\n      swap2\n      pop\n        /* \"#utility.yul\":6740:7028   */\n      pop\n        /* \"#utility.yul\":6201:7035   */\n      swap3\n      pop\n      swap3\n      swap1\n      pop\n      jump\t// out\n        /* \"#utility.yul\":7041:7200   */\n    tag_208:\n        /* \"#utility.yul\":7115:7126   */\n      0x00\n        /* \"#utility.yul\":7149:7155   */\n      dup3\n        /* \"#utility.yul\":7144:7147   */\n      dup3\n        /* \"#utility.yul\":7137:7156   */\n      mstore\n        /* \"#utility.yul\":7189:7193   */\n      0x20\n        /* \"#utility.yul\":7184:7187   */\n      dup3\n        /* \"#utility.yul\":7180:7194   */\n      add\n        /* \"#utility.yul\":7165:7194   */\n      swap1\n      pop\n        /* \"#utility.yul\":7041:7200   */\n      swap3\n      swap2\n      pop\n      pop\n      jump\t// out\n        /* \"#utility.yul\":7206:7550   */\n    tag_209:\n        /* \"#utility.yul\":7284:7287   */\n      0x00\n        /* \"#utility.yul\":7312:7351   */\n      tag_324\n        /* \"#utility.yul\":7345:7350   */\n      dup3\n        /* \"#utility.yul\":7312:7351   */\n      tag_201\n      jump\t// in\n    tag_324:\n        /* \"#utility.yul\":7367:7428   */\n      tag_325\n        /* \"#utility.yul\":7421:7427   */\n      dup2\n        /* \"#utility.yul\":7416:7419   */\n      dup6\n        /* \"#utility.yul\":7367:7428   */\n      tag_208\n      jump\t// in\n    tag_325:\n        /* \"#utility.yul\":7360:7428   */\n      swap4\n      pop\n        /* \"#utility.yul\":7437:7489   */\n      tag_326\n        /* \"#utility.yul\":7482:7488   */\n      dup2\n        /* \"#utility.yul\":7477:7480   */\n      dup6\n        /* \"#utility.yul\":7470:7474   */\n      0x20\n        /* \"#utility.yul\":7463:7468   */\n      dup7\n        /* \"#utility.yul\":7459:7475   */\n      add\n        /* \"#utility.yul\":7437:7489   */\n      tag_203\n      jump\t// in\n    tag_326:\n        /* \"#utility.yul\":7514:7543   */\n      tag_327\n        /* \"#utility.yul\":7536:7542   */\n      dup2\n        /* \"#utility.yul\":7514:7543   */\n      tag_194\n      jump\t// in\n    tag_327:\n        /* \"#utility.yul\":7509:7512   */\n      dup5\n        /* \"#utility.yul\":7505:7544   */\n      add\n        /* \"#utility.yul\":7498:7544   */\n      swap2\n      pop\n        /* \"#utility.yul\":7288:7550   */\n      pop\n        /* \"#utility.yul\":7206:7550   */\n      swap3\n      swap2\n      pop\n      pop\n      jump\t// out\n        /* \"#utility.yul\":7556:7695   */\n    tag_210:\n        /* \"#utility.yul\":7648:7654   */\n      0x00\n        /* \"#utility.yul\":7682:7687   */\n      dup2\n        /* \"#utility.yul\":7676:7688   */\n      mload\n        /* \"#utility.yul\":7666:7688   */\n      swap1\n      pop\n        /* \"#utility.yul\":7556:7695   */\n      swap2\n      swap1\n      pop\n      jump\t// out\n        /* \"#utility.yul\":7701:7900   */\n    tag_211:\n        /* \"#utility.yul\":7815:7826   */\n      0x00\n        /* \"#utility.yul\":7849:7855   */\n      dup3\n        /* \"#utility.yul\":7844:7847   */\n      dup3\n        /* \"#utility.yul\":7837:7856   */\n      mstore\n        /* \"#utility.yul\":7889:7893   */\n      0x20\n        /* \"#utility.yul\":7884:7887   */\n      dup3\n        /* \"#utility.yul\":7880:7894   */\n      add\n        /* \"#utility.yul\":7865:7894   */\n      swap1\n      pop\n        /* \"#utility.yul\":7701:7900   */\n      swap3\n      swap2\n      pop\n      pop\n      jump\t// out\n        /* \"#utility.yul\":7906:8063   */\n    tag_212:\n        /* \"#utility.yul\":7998:8002   */\n      0x00\n        /* \"#utility.yul\":8021:8024   */\n      dup2\n        /* \"#utility.yul\":8013:8024   */\n      swap1\n      pop\n        /* \"#utility.yul\":8051:8055   */\n      0x20\n        /* \"#utility.yul\":8046:8049   */\n      dup3\n        /* \"#utility.yul\":8042:8056   */\n      add\n        /* \"#utility.yul\":8034:8056   */\n      swap1\n      pop\n        /* \"#utility.yul\":7906:8063   */\n      swap2\n      swap1\n      pop\n      jump\t// out\n        /* \"#utility.yul\":8069:8177   */\n    tag_213:\n        /* \"#utility.yul\":8146:8170   */\n      tag_332\n        /* \"#utility.yul\":8164:8169   */\n      dup2\n        /* \"#utility.yul\":8146:8170   */\n      tag_205\n      jump\t// in\n    tag_332:\n        /* \"#utility.yul\":8141:8144   */\n      dup3\n        /* \"#utility.yul\":8134:8171   */\n      mstore\n        /* \"#utility.yul\":8069:8177   */\n      pop\n      pop\n      jump\t// out\n        /* \"#utility.yul\":8241:9083   */\n    tag_214:\n        /* \"#utility.yul\":8350:8353   */\n      0x00\n        /* \"#utility.yul\":8386:8390   */\n      0x60\n        /* \"#utility.yul\":8381:8384   */\n      dup4\n        /* \"#utility.yul\":8377:8391   */\n      add\n        /* \"#utility.yul\":8473:8477   */\n      0x00\n        /* \"#utility.yul\":8466:8471   */\n      dup4\n        /* \"#utility.yul\":8462:8478   */\n      add\n        /* \"#utility.yul\":8456:8479   */\n      mload\n        /* \"#utility.yul\":8526:8529   */\n      dup5\n        /* \"#utility.yul\":8520:8524   */\n      dup3\n        /* \"#utility.yul\":8516:8530   */\n      sub\n        /* \"#utility.yul\":8509:8513   */\n      0x00\n        /* \"#utility.yul\":8504:8507   */\n      dup7\n        /* \"#utility.yul\":8500:8514   */\n      add\n        /* \"#utility.yul\":8493:8531   */\n      mstore\n        /* \"#utility.yul\":8552:8625   */\n      tag_334\n        /* \"#utility.yul\":8620:8624   */\n      dup3\n        /* \"#utility.yul\":8606:8618   */\n      dup3\n        /* \"#utility.yul\":8552:8625   */\n      tag_209\n      jump\t// in\n    tag_334:\n        /* \"#utility.yul\":8544:8625   */\n      swap2\n      pop\n        /* \"#utility.yul\":8401:8636   */\n      pop\n        /* \"#utility.yul\":8718:8722   */\n      0x20\n        /* \"#utility.yul\":8711:8716   */\n      dup4\n        /* \"#utility.yul\":8707:8723   */\n      add\n        /* \"#utility.yul\":8701:8724   */\n      mload\n        /* \"#utility.yul\":8771:8774   */\n      dup5\n        /* \"#utility.yul\":8765:8769   */\n      dup3\n        /* \"#utility.yul\":8761:8775   */\n      sub\n        /* \"#utility.yul\":8754:8758   */\n      0x20\n        /* \"#utility.yul\":8749:8752   */\n      dup7\n        /* \"#utility.yul\":8745:8759   */\n      add\n        /* \"#utility.yul\":8738:8776   */\n      mstore\n        /* \"#utility.yul\":8797:8870   */\n      tag_335\n        /* \"#utility.yul\":8865:8869   */\n      dup3\n        /* \"#utility.yul\":8851:8863   */\n      dup3\n        /* \"#utility.yul\":8797:8870   */\n      tag_209\n      jump\t// in\n    tag_335:\n        /* \"#utility.yul\":8789:8870   */\n      swap2\n      pop\n        /* \"#utility.yul\":8646:8881   */\n      pop\n        /* \"#utility.yul\":8964:8968   */\n      0x40\n        /* \"#utility.yul\":8957:8962   */\n      dup4\n        /* \"#utility.yul\":8953:8969   */\n      add\n        /* \"#utility.yul\":8947:8970   */\n      mload\n        /* \"#utility.yul\":8983:9046   */\n      tag_336\n        /* \"#utility.yul\":9040:9044   */\n      0x40\n        /* \"#utility.yul\":9035:9038   */\n      dup7\n        /* \"#utility.yul\":9031:9045   */\n      add\n        /* \"#utility.yul\":9017:9029   */\n      dup3\n        /* \"#utility.yul\":8983:9046   */\n      tag_213\n      jump\t// in\n    tag_336:\n        /* \"#utility.yul\":8891:9056   */\n      pop\n        /* \"#utility.yul\":9073:9077   */\n      dup1\n        /* \"#utility.yul\":9066:9077   */\n      swap2\n      pop\n        /* \"#utility.yul\":8355:9083   */\n      pop\n        /* \"#utility.yul\":8241:9083   */\n      swap3\n      swap2\n      pop\n      pop\n      jump\t// out\n        /* \"#utility.yul\":9089:9345   */\n    tag_215:\n        /* \"#utility.yul\":9208:9218   */\n      0x00\n        /* \"#utility.yul\":9243:9339   */\n      tag_338\n        /* \"#utility.yul\":9335:9338   */\n      dup4\n        /* \"#utility.yul\":9327:9333   */\n      dup4\n        /* \"#utility.yul\":9243:9339   */\n      tag_214\n      jump\t// in\n    tag_338:\n        /* \"#utility.yul\":9229:9339   */\n      swap1\n      pop\n        /* \"#utility.yul\":9089:9345   */\n      swap3\n      swap2\n      pop\n      pop\n      jump\t// out\n        /* \"#utility.yul\":9351:9489   */\n    tag_216:\n        /* \"#utility.yul\":9446:9450   */\n      0x00\n        /* \"#utility.yul\":9478:9482   */\n      0x20\n        /* \"#utility.yul\":9473:9476   */\n      dup3\n        /* \"#utility.yul\":9469:9483   */\n      add\n        /* \"#utility.yul\":9461:9483   */\n      swap1\n      pop\n        /* \"#utility.yul\":9351:9489   */\n      swap2\n      swap1\n      pop\n      jump\t// out\n        /* \"#utility.yul\":9557:10648   */\n    tag_217:\n        /* \"#utility.yul\":9716:9719   */\n      0x00\n        /* \"#utility.yul\":9745:9824   */\n      tag_341\n        /* \"#utility.yul\":9818:9823   */\n      dup3\n        /* \"#utility.yul\":9745:9824   */\n      tag_210\n      jump\t// in\n    tag_341:\n        /* \"#utility.yul\":9840:9941   */\n      tag_342\n        /* \"#utility.yul\":9934:9940   */\n      dup2\n        /* \"#utility.yul\":9929:9932   */\n      dup6\n        /* \"#utility.yul\":9840:9941   */\n      tag_211\n      jump\t// in\n    tag_342:\n        /* \"#utility.yul\":9833:9941   */\n      swap4\n      pop\n        /* \"#utility.yul\":9967:9970   */\n      dup4\n        /* \"#utility.yul\":10012:10016   */\n      0x20\n        /* \"#utility.yul\":10004:10010   */\n      dup3\n        /* \"#utility.yul\":10000:10017   */\n      mul\n        /* \"#utility.yul\":9995:9998   */\n      dup6\n        /* \"#utility.yul\":9991:10018   */\n      add\n        /* \"#utility.yul\":10042:10123   */\n      tag_343\n        /* \"#utility.yul\":10117:10122   */\n      dup6\n        /* \"#utility.yul\":10042:10123   */\n      tag_212\n      jump\t// in\n    tag_343:\n        /* \"#utility.yul\":10146:10153   */\n      dup1\n        /* \"#utility.yul\":10177:10178   */\n      0x00\n        /* \"#utility.yul\":10162:10603   */\n    tag_344:\n        /* \"#utility.yul\":10187:10193   */\n      dup6\n        /* \"#utility.yul\":10184:10185   */\n      dup2\n        /* \"#utility.yul\":10181:10194   */\n      lt\n        /* \"#utility.yul\":10162:10603   */\n      iszero\n      tag_346\n      jumpi\n        /* \"#utility.yul\":10258:10267   */\n      dup5\n        /* \"#utility.yul\":10252:10256   */\n      dup5\n        /* \"#utility.yul\":10248:10268   */\n      sub\n        /* \"#utility.yul\":10243:10246   */\n      dup10\n        /* \"#utility.yul\":10236:10269   */\n      mstore\n        /* \"#utility.yul\":10309:10315   */\n      dup2\n        /* \"#utility.yul\":10303:10316   */\n      mload\n        /* \"#utility.yul\":10337:10451   */\n      tag_347\n        /* \"#utility.yul\":10446:10450   */\n      dup6\n        /* \"#utility.yul\":10431:10444   */\n      dup3\n        /* \"#utility.yul\":10337:10451   */\n      tag_215\n      jump\t// in\n    tag_347:\n        /* \"#utility.yul\":10329:10451   */\n      swap5\n      pop\n        /* \"#utility.yul\":10474:10559   */\n      tag_348\n        /* \"#utility.yul\":10552:10558   */\n      dup4\n        /* \"#utility.yul\":10474:10559   */\n      tag_216\n      jump\t// in\n    tag_348:\n        /* \"#utility.yul\":10464:10559   */\n      swap3\n      pop\n        /* \"#utility.yul\":10588:10592   */\n      0x20\n        /* \"#utility.yul\":10583:10586   */\n      dup11\n        /* \"#utility.yul\":10579:10593   */\n      add\n        /* \"#utility.yul\":10572:10593   */\n      swap10\n      pop\n        /* \"#utility.yul\":10222:10603   */\n      pop\n        /* \"#utility.yul\":10209:10210   */\n      0x01\n        /* \"#utility.yul\":10206:10207   */\n      dup2\n        /* \"#utility.yul\":10202:10211   */\n      add\n        /* \"#utility.yul\":10197:10211   */\n      swap1\n      pop\n        /* \"#utility.yul\":10162:10603   */\n      jump(tag_344)\n    tag_346:\n        /* \"#utility.yul\":10166:10180   */\n      pop\n        /* \"#utility.yul\":10619:10623   */\n      dup3\n        /* \"#utility.yul\":10612:10623   */\n      swap8\n      pop\n        /* \"#utility.yul\":10639:10642   */\n      dup8\n        /* \"#utility.yul\":10632:10642   */\n      swap6\n      pop\n        /* \"#utility.yul\":9721:10648   */\n      pop\n      pop\n      pop\n      pop\n      pop\n        /* \"#utility.yul\":9557:10648   */\n      swap3\n      swap2\n      pop\n      pop\n      jump\t// out\n        /* \"#utility.yul\":10710:11471   */\n    tag_218:\n        /* \"#utility.yul\":10827:10830   */\n      0x00\n        /* \"#utility.yul\":10863:10867   */\n      0x40\n        /* \"#utility.yul\":10858:10861   */\n      dup4\n        /* \"#utility.yul\":10854:10868   */\n      add\n        /* \"#utility.yul\":10950:10954   */\n      0x00\n        /* \"#utility.yul\":10943:10948   */\n      dup4\n        /* \"#utility.yul\":10939:10955   */\n      add\n        /* \"#utility.yul\":10933:10956   */\n      mload\n        /* \"#utility.yul\":11003:11006   */\n      dup5\n        /* \"#utility.yul\":10997:11001   */\n      dup3\n        /* \"#utility.yul\":10993:11007   */\n      sub\n        /* \"#utility.yul\":10986:10990   */\n      0x00\n        /* \"#utility.yul\":10981:10984   */\n      dup7\n        /* \"#utility.yul\":10977:10991   */\n      add\n        /* \"#utility.yul\":10970:11008   */\n      mstore\n        /* \"#utility.yul\":11029:11102   */\n      tag_350\n        /* \"#utility.yul\":11097:11101   */\n      dup3\n        /* \"#utility.yul\":11083:11095   */\n      dup3\n        /* \"#utility.yul\":11029:11102   */\n      tag_209\n      jump\t// in\n    tag_350:\n        /* \"#utility.yul\":11021:11102   */\n      swap2\n      pop\n        /* \"#utility.yul\":10878:11113   */\n      pop\n        /* \"#utility.yul\":11201:11205   */\n      0x20\n        /* \"#utility.yul\":11194:11199   */\n      dup4\n        /* \"#utility.yul\":11190:11206   */\n      add\n        /* \"#utility.yul\":11184:11207   */\n      mload\n        /* \"#utility.yul\":11254:11257   */\n      dup5\n        /* \"#utility.yul\":11248:11252   */\n      dup3\n        /* \"#utility.yul\":11244:11258   */\n      sub\n        /* \"#utility.yul\":11237:11241   */\n      0x20\n        /* \"#utility.yul\":11232:11235   */\n      dup7\n        /* \"#utility.yul\":11228:11242   */\n      add\n        /* \"#utility.yul\":11221:11259   */\n      mstore\n        /* \"#utility.yul\":11280:11433   */\n      tag_351\n        /* \"#utility.yul\":11428:11432   */\n      dup3\n        /* \"#utility.yul\":11414:11426   */\n      dup3\n        /* \"#utility.yul\":11280:11433   */\n      tag_217\n      jump\t// in\n    tag_351:\n        /* \"#utility.yul\":11272:11433   */\n      swap2\n      pop\n        /* \"#utility.yul\":11123:11444   */\n      pop\n        /* \"#utility.yul\":11461:11465   */\n      dup1\n        /* \"#utility.yul\":11454:11465   */\n      swap2\n      pop\n        /* \"#utility.yul\":10832:11471   */\n      pop\n        /* \"#utility.yul\":10710:11471   */\n      swap3\n      swap2\n      pop\n      pop\n      jump\t// out\n        /* \"#utility.yul\":11477:11846   */\n    tag_39:\n        /* \"#utility.yul\":11618:11622   */\n      0x00\n        /* \"#utility.yul\":11656:11658   */\n      0x20\n        /* \"#utility.yul\":11645:11654   */\n      dup3\n        /* \"#utility.yul\":11641:11659   */\n      add\n        /* \"#utility.yul\":11633:11659   */\n      swap1\n      pop\n        /* \"#utility.yul\":11705:11714   */\n      dup2\n        /* \"#utility.yul\":11699:11703   */\n      dup2\n        /* \"#utility.yul\":11695:11715   */\n      sub\n        /* \"#utility.yul\":11691:11692   */\n      0x00\n        /* \"#utility.yul\":11680:11689   */\n      dup4\n        /* \"#utility.yul\":11676:11693   */\n      add\n        /* \"#utility.yul\":11669:11716   */\n      mstore\n        /* \"#utility.yul\":11733:11839   */\n      tag_353\n        /* \"#utility.yul\":11834:11838   */\n      dup2\n        /* \"#utility.yul\":11825:11831   */\n      dup5\n        /* \"#utility.yul\":11733:11839   */\n      tag_218\n      jump\t// in\n    tag_353:\n        /* \"#utility.yul\":11725:11839   */\n      swap1\n      pop\n        /* \"#utility.yul\":11477:11846   */\n      swap3\n      swap2\n      pop\n      pop\n      jump\t// out\n        /* \"#utility.yul\":11852:11970   */\n    tag_219:\n        /* \"#utility.yul\":11939:11963   */\n      tag_355\n        /* \"#utility.yul\":11957:11962   */\n      dup2\n        /* \"#utility.yul\":11939:11963   */\n      tag_205\n      jump\t// in\n    tag_355:\n        /* \"#utility.yul\":11934:11937   */\n      dup3\n        /* \"#utility.yul\":11927:11964   */\n      mstore\n        /* \"#utility.yul\":11852:11970   */\n      pop\n      pop\n      jump\t// out\n        /* \"#utility.yul\":11976:12198   */\n    tag_44:\n        /* \"#utility.yul\":12069:12073   */\n      0x00\n        /* \"#utility.yul\":12107:12109   */\n      0x20\n        /* \"#utility.yul\":12096:12105   */\n      dup3\n        /* \"#utility.yul\":12092:12110   */\n      add\n        /* \"#utility.yul\":12084:12110   */\n      swap1\n      pop\n        /* \"#utility.yul\":12120:12191   */\n      tag_357\n        /* \"#utility.yul\":12188:12189   */\n      0x00\n        /* \"#utility.yul\":12177:12186   */\n      dup4\n        /* \"#utility.yul\":12173:12190   */\n      add\n        /* \"#utility.yul\":12164:12170   */\n      dup5\n        /* \"#utility.yul\":12120:12191   */\n      tag_219\n      jump\t// in\n    tag_357:\n        /* \"#utility.yul\":11976:12198   */\n      swap3\n      swap2\n      pop\n      pop\n      jump\t// out\n        /* \"#utility.yul\":12204:12328   */\n    tag_220:\n        /* \"#utility.yul\":12281:12287   */\n      0x00\n        /* \"#utility.yul\":12315:12320   */\n      dup2\n        /* \"#utility.yul\":12309:12321   */\n      mload\n        /* \"#utility.yul\":12299:12321   */\n      swap1\n      pop\n        /* \"#utility.yul\":12204:12328   */\n      swap2\n      swap1\n      pop\n      jump\t// out\n        /* \"#utility.yul\":12334:12528   */\n    tag_221:\n        /* \"#utility.yul\":12443:12454   */\n      0x00\n        /* \"#utility.yul\":12477:12483   */\n      dup3\n        /* \"#utility.yul\":12472:12475   */\n      dup3\n        /* \"#utility.yul\":12465:12484   */\n      mstore\n        /* \"#utility.yul\":12517:12521   */\n      0x20\n        /* \"#utility.yul\":12512:12515   */\n      dup3\n        /* \"#utility.yul\":12508:12522   */\n      add\n        /* \"#utility.yul\":12493:12522   */\n      swap1\n      pop\n        /* \"#utility.yul\":12334:12528   */\n      swap3\n      swap2\n      pop\n      pop\n      jump\t// out\n        /* \"#utility.yul\":12534:12676   */\n    tag_222:\n        /* \"#utility.yul\":12611:12615   */\n      0x00\n        /* \"#utility.yul\":12634:12637   */\n      dup2\n        /* \"#utility.yul\":12626:12637   */\n      swap1\n      pop\n        /* \"#utility.yul\":12664:12668   */\n      0x20\n        /* \"#utility.yul\":12659:12662   */\n      dup3\n        /* \"#utility.yul\":12655:12669   */\n      add\n        /* \"#utility.yul\":12647:12669   */\n      swap1\n      pop\n        /* \"#utility.yul\":12534:12676   */\n      swap2\n      swap1\n      pop\n      jump\t// out\n        /* \"#utility.yul\":12682:12878   */\n    tag_223:\n        /* \"#utility.yul\":12771:12781   */\n      0x00\n        /* \"#utility.yul\":12806:12872   */\n      tag_362\n        /* \"#utility.yul\":12868:12871   */\n      dup4\n        /* \"#utility.yul\":12860:12866   */\n      dup4\n        /* \"#utility.yul\":12806:12872   */\n      tag_209\n      jump\t// in\n    tag_362:\n        /* \"#utility.yul\":12792:12872   */\n      swap1\n      pop\n        /* \"#utility.yul\":12682:12878   */\n      swap3\n      swap2\n      pop\n      pop\n      jump\t// out\n        /* \"#utility.yul\":12884:13007   */\n    tag_224:\n        /* \"#utility.yul\":12964:12968   */\n      0x00\n        /* \"#utility.yul\":12996:13000   */\n      0x20\n        /* \"#utility.yul\":12991:12994   */\n      dup3\n        /* \"#utility.yul\":12987:13001   */\n      add\n        /* \"#utility.yul\":12979:13001   */\n      swap1\n      pop\n        /* \"#utility.yul\":12884:13007   */\n      swap2\n      swap1\n      pop\n      jump\t// out\n        /* \"#utility.yul\":13041:14032   */\n    tag_225:\n        /* \"#utility.yul\":13180:13183   */\n      0x00\n        /* \"#utility.yul\":13209:13273   */\n      tag_365\n        /* \"#utility.yul\":13267:13272   */\n      dup3\n        /* \"#utility.yul\":13209:13273   */\n      tag_220\n      jump\t// in\n    tag_365:\n        /* \"#utility.yul\":13289:13385   */\n      tag_366\n        /* \"#utility.yul\":13378:13384   */\n      dup2\n        /* \"#utility.yul\":13373:13376   */\n      dup6\n        /* \"#utility.yul\":13289:13385   */\n      tag_221\n      jump\t// in\n    tag_366:\n        /* \"#utility.yul\":13282:13385   */\n      swap4\n      pop\n        /* \"#utility.yul\":13411:13414   */\n      dup4\n        /* \"#utility.yul\":13456:13460   */\n      0x20\n        /* \"#utility.yul\":13448:13454   */\n      dup3\n        /* \"#utility.yul\":13444:13461   */\n      mul\n        /* \"#utility.yul\":13439:13442   */\n      dup6\n        /* \"#utility.yul\":13435:13462   */\n      add\n        /* \"#utility.yul\":13486:13552   */\n      tag_367\n        /* \"#utility.yul\":13546:13551   */\n      dup6\n        /* \"#utility.yul\":13486:13552   */\n      tag_222\n      jump\t// in\n    tag_367:\n        /* \"#utility.yul\":13575:13582   */\n      dup1\n        /* \"#utility.yul\":13606:13607   */\n      0x00\n        /* \"#utility.yul\":13591:13987   */\n    tag_368:\n        /* \"#utility.yul\":13616:13622   */\n      dup6\n        /* \"#utility.yul\":13613:13614   */\n      dup2\n        /* \"#utility.yul\":13610:13623   */\n      lt\n        /* \"#utility.yul\":13591:13987   */\n      iszero\n      tag_370\n      jumpi\n        /* \"#utility.yul\":13687:13696   */\n      dup5\n        /* \"#utility.yul\":13681:13685   */\n      dup5\n        /* \"#utility.yul\":13677:13697   */\n      sub\n        /* \"#utility.yul\":13672:13675   */\n      dup10\n        /* \"#utility.yul\":13665:13698   */\n      mstore\n        /* \"#utility.yul\":13738:13744   */\n      dup2\n        /* \"#utility.yul\":13732:13745   */\n      mload\n        /* \"#utility.yul\":13766:13850   */\n      tag_371\n        /* \"#utility.yul\":13845:13849   */\n      dup6\n        /* \"#utility.yul\":13830:13843   */\n      dup3\n        /* \"#utility.yul\":13766:13850   */\n      tag_223\n      jump\t// in\n    tag_371:\n        /* \"#utility.yul\":13758:13850   */\n      swap5\n      pop\n        /* \"#utility.yul\":13873:13943   */\n      tag_372\n        /* \"#utility.yul\":13936:13942   */\n      dup4\n        /* \"#utility.yul\":13873:13943   */\n      tag_224\n      jump\t// in\n    tag_372:\n        /* \"#utility.yul\":13863:13943   */\n      swap3\n      pop\n        /* \"#utility.yul\":13972:13976   */\n      0x20\n        /* \"#utility.yul\":13967:13970   */\n      dup11\n        /* \"#utility.yul\":13963:13977   */\n      add\n        /* \"#utility.yul\":13956:13977   */\n      swap10\n      pop\n        /* \"#utility.yul\":13651:13987   */\n      pop\n        /* \"#utility.yul\":13638:13639   */\n      0x01\n        /* \"#utility.yul\":13635:13636   */\n      dup2\n        /* \"#utility.yul\":13631:13640   */\n      add\n        /* \"#utility.yul\":13626:13640   */\n      swap1\n      pop\n        /* \"#utility.yul\":13591:13987   */\n      jump(tag_368)\n    tag_370:\n        /* \"#utility.yul\":13595:13609   */\n      pop\n        /* \"#utility.yul\":14003:14007   */\n      dup3\n        /* \"#utility.yul\":13996:14007   */\n      swap8\n      pop\n        /* \"#utility.yul\":14023:14026   */\n      dup8\n        /* \"#utility.yul\":14016:14026   */\n      swap6\n      pop\n        /* \"#utility.yul\":13185:14032   */\n      pop\n      pop\n      pop\n      pop\n      pop\n        /* \"#utility.yul\":13041:14032   */\n      swap3\n      swap2\n      pop\n      pop\n      jump\t// out\n        /* \"#utility.yul\":14038:14451   */\n    tag_51:\n        /* \"#utility.yul\":14201:14205   */\n      0x00\n        /* \"#utility.yul\":14239:14241   */\n      0x20\n        /* \"#utility.yul\":14228:14237   */\n      dup3\n        /* \"#utility.yul\":14224:14242   */\n      add\n        /* \"#utility.yul\":14216:14242   */\n      swap1\n      pop\n        /* \"#utility.yul\":14288:14297   */\n      dup2\n        /* \"#utility.yul\":14282:14286   */\n      dup2\n        /* \"#utility.yul\":14278:14298   */\n      sub\n        /* \"#utility.yul\":14274:14275   */\n      0x00\n        /* \"#utility.yul\":14263:14272   */\n      dup4\n        /* \"#utility.yul\":14259:14276   */\n      add\n        /* \"#utility.yul\":14252:14299   */\n      mstore\n        /* \"#utility.yul\":14316:14444   */\n      tag_374\n        /* \"#utility.yul\":14439:14443   */\n      dup2\n        /* \"#utility.yul\":14430:14436   */\n      dup5\n        /* \"#utility.yul\":14316:14444   */\n      tag_225\n      jump\t// in\n    tag_374:\n        /* \"#utility.yul\":14308:14444   */\n      swap1\n      pop\n        /* \"#utility.yul\":14038:14451   */\n      swap3\n      swap2\n      pop\n      pop\n      jump\t// out\n        /* \"#utility.yul\":14457:14583   */\n    tag_226:\n        /* \"#utility.yul\":14494:14501   */\n      0x00\n        /* \"#utility.yul\":14534:14576   */\n      0xffffffffffffffffffffffffffffffffffffffff\n        /* \"#utility.yul\":14527:14532   */\n      dup3\n        /* \"#utility.yul\":14523:14577   */\n      and\n        /* \"#utility.yul\":14512:14577   */\n      swap1\n      pop\n        /* \"#utility.yul\":14457:14583   */\n      swap2\n      swap1\n      pop\n      jump\t// out\n        /* \"#utility.yul\":14589:14685   */\n    tag_227:\n        /* \"#utility.yul\":14626:14633   */\n      0x00\n        /* \"#utility.yul\":14655:14679   */\n      tag_377\n        /* \"#utility.yul\":14673:14678   */\n      dup3\n        /* \"#utility.yul\":14655:14679   */\n      tag_226\n      jump\t// in\n    tag_377:\n        /* \"#utility.yul\":14644:14679   */\n      swap1\n      pop\n        /* \"#utility.yul\":14589:14685   */\n      swap2\n      swap1\n      pop\n      jump\t// out\n        /* \"#utility.yul\":14691:14809   */\n    tag_228:\n        /* \"#utility.yul\":14778:14802   */\n      tag_379\n        /* \"#utility.yul\":14796:14801   */\n      dup2\n        /* \"#utility.yul\":14778:14802   */\n      tag_227\n      jump\t// in\n    tag_379:\n        /* \"#utility.yul\":14773:14776   */\n      dup3\n        /* \"#utility.yul\":14766:14803   */\n      mstore\n        /* \"#utility.yul\":14691:14809   */\n      pop\n      pop\n      jump\t// out\n        /* \"#utility.yul\":14815:15037   */\n    tag_55:\n        /* \"#utility.yul\":14908:14912   */\n      0x00\n        /* \"#utility.yul\":14946:14948   */\n      0x20\n        /* \"#utility.yul\":14935:14944   */\n      dup3\n        /* \"#utility.yul\":14931:14949   */\n      add\n        /* \"#utility.yul\":14923:14949   */\n      swap1\n      pop\n        /* \"#utility.yul\":14959:15030   */\n      tag_381\n        /* \"#utility.yul\":15027:15028   */\n      0x00\n        /* \"#utility.yul\":15016:15025   */\n      dup4\n        /* \"#utility.yul\":15012:15029   */\n      add\n        /* \"#utility.yul\":15003:15009   */\n      dup5\n        /* \"#utility.yul\":14959:15030   */\n      tag_228\n      jump\t// in\n    tag_381:\n        /* \"#utility.yul\":14815:15037   */\n      swap3\n      swap2\n      pop\n      pop\n      jump\t// out\n        /* \"#utility.yul\":15043:15223   */\n    tag_229:\n        /* \"#utility.yul\":15091:15168   */\n      0x4e487b7100000000000000000000000000000000000000000000000000000000\n        /* \"#utility.yul\":15088:15089   */\n      0x00\n        /* \"#utility.yul\":15081:15169   */\n      mstore\n        /* \"#utility.yul\":15188:15192   */\n      0x22\n        /* \"#utility.yul\":15185:15186   */\n      0x04\n        /* \"#utility.yul\":15178:15193   */\n      mstore\n        /* \"#utility.yul\":15212:15216   */\n      0x24\n        /* \"#utility.yul\":15209:15210   */\n      0x00\n        /* \"#utility.yul\":15202:15217   */\n      revert\n        /* \"#utility.yul\":15229:15549   */\n    tag_57:\n        /* \"#utility.yul\":15273:15279   */\n      0x00\n        /* \"#utility.yul\":15310:15311   */\n      0x02\n        /* \"#utility.yul\":15304:15308   */\n      dup3\n        /* \"#utility.yul\":15300:15312   */\n      div\n        /* \"#utility.yul\":15290:15312   */\n      swap1\n      pop\n        /* \"#utility.yul\":15357:15358   */\n      0x01\n        /* \"#utility.yul\":15351:15355   */\n      dup3\n        /* \"#utility.yul\":15347:15359   */\n      and\n        /* \"#utility.yul\":15378:15396   */\n      dup1\n        /* \"#utility.yul\":15368:15449   */\n      tag_384\n      jumpi\n        /* \"#utility.yul\":15434:15438   */\n      0x7f\n        /* \"#utility.yul\":15426:15432   */\n      dup3\n        /* \"#utility.yul\":15422:15439   */\n      and\n        /* \"#utility.yul\":15412:15439   */\n      swap2\n      pop\n        /* \"#utility.yul\":15368:15449   */\n    tag_384:\n        /* \"#utility.yul\":15496:15498   */\n      0x20\n        /* \"#utility.yul\":15488:15494   */\n      dup3\n        /* \"#utility.yul\":15485:15499   */\n      lt\n        /* \"#utility.yul\":15465:15483   */\n      dup2\n        /* \"#utility.yul\":15462:15500   */\n      sub\n        /* \"#utility.yul\":15459:15543   */\n      tag_385\n      jumpi\n        /* \"#utility.yul\":15515:15533   */\n      tag_386\n      tag_229\n      jump\t// in\n    tag_386:\n        /* \"#utility.yul\":15459:15543   */\n    tag_385:\n        /* \"#utility.yul\":15280:15549   */\n      pop\n        /* \"#utility.yul\":15229:15549   */\n      swap2\n      swap1\n      pop\n      jump\t// out\n        /* \"#utility.yul\":15555:15736   */\n    tag_230:\n        /* \"#utility.yul\":15695:15728   */\n      0x4f6e6c792061646d696e2063616e20737461727420612063616d706169676e00\n        /* \"#utility.yul\":15691:15692   */\n      0x00\n        /* \"#utility.yul\":15683:15689   */\n      dup3\n        /* \"#utility.yul\":15679:15693   */\n      add\n        /* \"#utility.yul\":15672:15729   */\n      mstore\n        /* \"#utility.yul\":15555:15736   */\n      pop\n      jump\t// out\n        /* \"#utility.yul\":15742:16108   */\n    tag_231:\n        /* \"#utility.yul\":15884:15887   */\n      0x00\n        /* \"#utility.yul\":15905:15972   */\n      tag_389\n        /* \"#utility.yul\":15969:15971   */\n      0x1f\n        /* \"#utility.yul\":15964:15967   */\n      dup4\n        /* \"#utility.yul\":15905:15972   */\n      tag_202\n      jump\t// in\n    tag_389:\n        /* \"#utility.yul\":15898:15972   */\n      swap2\n      pop\n        /* \"#utility.yul\":15981:16074   */\n      tag_390\n        /* \"#utility.yul\":16070:16073   */\n      dup3\n        /* \"#utility.yul\":15981:16074   */\n      tag_230\n      jump\t// in\n    tag_390:\n        /* \"#utility.yul\":16099:16101   */\n      0x20\n        /* \"#utility.yul\":16094:16097   */\n      dup3\n        /* \"#utility.yul\":16090:16102   */\n      add\n        /* \"#utility.yul\":16083:16102   */\n      swap1\n      pop\n        /* \"#utility.yul\":15742:16108   */\n      swap2\n      swap1\n      pop\n      jump\t// out\n        /* \"#utility.yul\":16114:16533   */\n    tag_65:\n        /* \"#utility.yul\":16280:16284   */\n      0x00\n        /* \"#utility.yul\":16318:16320   */\n      0x20\n        /* \"#utility.yul\":16307:16316   */\n      dup3\n        /* \"#utility.yul\":16303:16321   */\n      add\n        /* \"#utility.yul\":16295:16321   */\n      swap1\n      pop\n        /* \"#utility.yul\":16367:16376   */\n      dup2\n        /* \"#utility.yul\":16361:16365   */\n      dup2\n        /* \"#utility.yul\":16357:16377   */\n      sub\n        /* \"#utility.yul\":16353:16354   */\n      0x00\n        /* \"#utility.yul\":16342:16351   */\n      dup4\n        /* \"#utility.yul\":16338:16355   */\n      add\n        /* \"#utility.yul\":16331:16378   */\n      mstore\n        /* \"#utility.yul\":16395:16526   */\n      tag_392\n        /* \"#utility.yul\":16521:16525   */\n      dup2\n        /* \"#utility.yul\":16395:16526   */\n      tag_231\n      jump\t// in\n    tag_392:\n        /* \"#utility.yul\":16387:16526   */\n      swap1\n      pop\n        /* \"#utility.yul\":16114:16533   */\n      swap2\n      swap1\n      pop\n      jump\t// out\n        /* \"#utility.yul\":16539:16687   */\n    tag_232:\n        /* \"#utility.yul\":16641:16652   */\n      0x00\n        /* \"#utility.yul\":16678:16681   */\n      dup2\n        /* \"#utility.yul\":16663:16681   */\n      swap1\n      pop\n        /* \"#utility.yul\":16539:16687   */\n      swap3\n      swap2\n      pop\n      pop\n      jump\t// out\n        /* \"#utility.yul\":16693:17070   */\n    tag_233:\n        /* \"#utility.yul\":16799:16802   */\n      0x00\n        /* \"#utility.yul\":16827:16866   */\n      tag_395\n        /* \"#utility.yul\":16860:16865   */\n      dup3\n        /* \"#utility.yul\":16827:16866   */\n      tag_201\n      jump\t// in\n    tag_395:\n        /* \"#utility.yul\":16882:16971   */\n      tag_396\n        /* \"#utility.yul\":16964:16970   */\n      dup2\n        /* \"#utility.yul\":16959:16962   */\n      dup6\n        /* \"#utility.yul\":16882:16971   */\n      tag_232\n      jump\t// in\n    tag_396:\n        /* \"#utility.yul\":16875:16971   */\n      swap4\n      pop\n        /* \"#utility.yul\":16980:17032   */\n      tag_397\n        /* \"#utility.yul\":17025:17031   */\n      dup2\n        /* \"#utility.yul\":17020:17023   */\n      dup6\n        /* \"#utility.yul\":17013:17017   */\n      0x20\n        /* \"#utility.yul\":17006:17011   */\n      dup7\n        /* \"#utility.yul\":17002:17018   */\n      add\n        /* \"#utility.yul\":16980:17032   */\n      tag_203\n      jump\t// in\n    tag_397:\n        /* \"#utility.yul\":17057:17063   */\n      dup1\n        /* \"#utility.yul\":17052:17055   */\n      dup5\n        /* \"#utility.yul\":17048:17064   */\n      add\n        /* \"#utility.yul\":17041:17064   */\n      swap2\n      pop\n        /* \"#utility.yul\":16803:17070   */\n      pop\n        /* \"#utility.yul\":16693:17070   */\n      swap3\n      swap2\n      pop\n      pop\n      jump\t// out\n        /* \"#utility.yul\":17076:17351   */\n    tag_67:\n        /* \"#utility.yul\":17208:17211   */\n      0x00\n        /* \"#utility.yul\":17230:17325   */\n      tag_399\n        /* \"#utility.yul\":17321:17324   */\n      dup3\n        /* \"#utility.yul\":17312:17318   */\n      dup5\n        /* \"#utility.yul\":17230:17325   */\n      tag_233\n      jump\t// in\n    tag_399:\n        /* \"#utility.yul\":17223:17325   */\n      swap2\n      pop\n        /* \"#utility.yul\":17342:17345   */\n      dup2\n        /* \"#utility.yul\":17335:17345   */\n      swap1\n      pop\n        /* \"#utility.yul\":17076:17351   */\n      swap3\n      swap2\n      pop\n      pop\n      jump\t// out\n        /* \"#utility.yul\":17357:17537   */\n    tag_234:\n        /* \"#utility.yul\":17405:17482   */\n      0x4e487b7100000000000000000000000000000000000000000000000000000000\n        /* \"#utility.yul\":17402:17403   */\n      0x00\n        /* \"#utility.yul\":17395:17483   */\n      mstore\n        /* \"#utility.yul\":17502:17506   */\n      0x11\n        /* \"#utility.yul\":17499:17500   */\n      0x04\n        /* \"#utility.yul\":17492:17507   */\n      mstore\n        /* \"#utility.yul\":17526:17530   */\n      0x24\n        /* \"#utility.yul\":17523:17524   */\n      0x00\n        /* \"#utility.yul\":17516:17531   */\n      revert\n        /* \"#utility.yul\":17543:17776   */\n    tag_71:\n        /* \"#utility.yul\":17582:17585   */\n      0x00\n        /* \"#utility.yul\":17605:17629   */\n      tag_402\n        /* \"#utility.yul\":17623:17628   */\n      dup3\n        /* \"#utility.yul\":17605:17629   */\n      tag_205\n      jump\t// in\n    tag_402:\n        /* \"#utility.yul\":17596:17629   */\n      swap2\n      pop\n        /* \"#utility.yul\":17651:17717   */\n      0xffffffffffffffffffffffffffffffffffffffffffffffffffffffffffffffff\n        /* \"#utility.yul\":17644:17649   */\n      dup3\n        /* \"#utility.yul\":17641:17718   */\n      sub\n        /* \"#utility.yul\":17638:17741   */\n      tag_403\n      jumpi\n        /* \"#utility.yul\":17721:17739   */\n      tag_404\n      tag_234\n      jump\t// in\n    tag_404:\n        /* \"#utility.yul\":17638:17741   */\n    tag_403:\n        /* \"#utility.yul\":17768:17769   */\n      0x01\n        /* \"#utility.yul\":17761:17766   */\n      dup3\n        /* \"#utility.yul\":17757:17770   */\n      add\n        /* \"#utility.yul\":17750:17770   */\n      swap1\n      pop\n        /* \"#utility.yul\":17543:17776   */\n      swap2\n      swap1\n      pop\n      jump\t// out\n        /* \"#utility.yul\":17782:17962   */\n    tag_235:\n        /* \"#utility.yul\":17922:17954   */\n      0x4f6e6c792061646d696e2063616e2061646420612063616e6469646174650000\n        /* \"#utility.yul\":17918:17919   */\n      0x00\n        /* \"#utility.yul\":17910:17916   */\n      dup3\n        /* \"#utility.yul\":17906:17920   */\n      add\n        /* \"#utility.yul\":17899:17955   */\n      mstore\n        /* \"#utility.yul\":17782:17962   */\n      pop\n      jump\t// out\n        /* \"#utility.yul\":17968:18334   */\n    tag_236:\n        /* \"#utility.yul\":18110:18113   */\n      0x00\n        /* \"#utility.yul\":18131:18198   */\n      tag_407\n        /* \"#utility.yul\":18195:18197   */\n      0x1e\n        /* \"#utility.yul\":18190:18193   */\n      dup4\n        /* \"#utility.yul\":18131:18198   */\n      tag_202\n      jump\t// in\n    tag_407:\n        /* \"#utility.yul\":18124:18198   */\n      swap2\n      pop\n        /* \"#utility.yul\":18207:18300   */\n      tag_408\n        /* \"#utility.yul\":18296:18299   */\n      dup3\n        /* \"#utility.yul\":18207:18300   */\n      tag_235\n      jump\t// in\n    tag_408:\n        /* \"#utility.yul\":18325:18327   */\n      0x20\n        /* \"#utility.yul\":18320:18323   */\n      dup3\n        /* \"#utility.yul\":18316:18328   */\n      add\n        /* \"#utility.yul\":18309:18328   */\n      swap1\n      pop\n        /* \"#utility.yul\":17968:18334   */\n      swap2\n      swap1\n      pop\n      jump\t// out\n        /* \"#utility.yul\":18340:18759   */\n    tag_84:\n        /* \"#utility.yul\":18506:18510   */\n      0x00\n        /* \"#utility.yul\":18544:18546   */\n      0x20\n        /* \"#utility.yul\":18533:18542   */\n      dup3\n        /* \"#utility.yul\":18529:18547   */\n      add\n        /* \"#utility.yul\":18521:18547   */\n      swap1\n      pop\n        /* \"#utility.yul\":18593:18602   */\n      dup2\n        /* \"#utility.yul\":18587:18591   */\n      dup2\n        /* \"#utility.yul\":18583:18603   */\n      sub\n        /* \"#utility.yul\":18579:18580   */\n      0x00\n        /* \"#utility.yul\":18568:18577   */\n      dup4\n        /* \"#utility.yul\":18564:18581   */\n      add\n        /* \"#utility.yul\":18557:18604   */\n      mstore\n        /* \"#utility.yul\":18621:18752   */\n      tag_410\n        /* \"#utility.yul\":18747:18751   */\n      dup2\n        /* \"#utility.yul\":18621:18752   */\n      tag_236\n      jump\t// in\n    tag_410:\n        /* \"#utility.yul\":18613:18752   */\n      swap1\n      pop\n        /* \"#utility.yul\":18340:18759   */\n      swap2\n      swap1\n      pop\n      jump\t// out\n        /* \"#utility.yul\":18765:18945   */\n    tag_97:\n        /* \"#utility.yul\":18813:18890   */\n      0x4e487b7100000000000000000000000000000000000000000000000000000000\n        /* \"#utility.yul\":18810:18811   */\n      0x00\n        /* \"#utility.yul\":18803:18891   */\n      mstore\n        /* \"#utility.yul\":18910:18914   */\n      0x32\n        /* \"#utility.yul\":18907:18908   */\n      0x04\n        /* \"#utility.yul\":18900:18915   */\n      mstore\n        /* \"#utility.yul\":18934:18938   */\n      0x24\n        /* \"#utility.yul\":18931:18932   */\n      0x00\n        /* \"#utility.yul\":18924:18939   */\n      revert\n        /* \"#utility.yul\":18951:19105   */\n    tag_237:\n        /* \"#utility.yul\":19091:19097   */\n      0x3131323200000000000000000000000000000000000000000000000000000000\n        /* \"#utility.yul\":19087:19088   */\n      0x00\n        /* \"#utility.yul\":19079:19085   */\n      dup3\n        /* \"#utility.yul\":19075:19089   */\n      add\n        /* \"#utility.yul\":19068:19098   */\n      mstore\n        /* \"#utility.yul\":18951:19105   */\n      pop\n      jump\t// out\n        /* \"#utility.yul\":19111:19511   */\n    tag_238:\n        /* \"#utility.yul\":19271:19274   */\n      0x00\n        /* \"#utility.yul\":19292:19376   */\n      tag_414\n        /* \"#utility.yul\":19374:19375   */\n      0x04\n        /* \"#utility.yul\":19369:19372   */\n      dup4\n        /* \"#utility.yul\":19292:19376   */\n      tag_232\n      jump\t// in\n    tag_414:\n        /* \"#utility.yul\":19285:19376   */\n      swap2\n      pop\n        /* \"#utility.yul\":19385:19478   */\n      tag_415\n        /* \"#utility.yul\":19474:19477   */\n      dup3\n        /* \"#utility.yul\":19385:19478   */\n      tag_237\n      jump\t// in\n    tag_415:\n        /* \"#utility.yul\":19503:19504   */\n      0x04\n        /* \"#utility.yul\":19498:19501   */\n      dup3\n        /* \"#utility.yul\":19494:19505   */\n      add\n        /* \"#utility.yul\":19487:19505   */\n      swap1\n      pop\n        /* \"#utility.yul\":19111:19511   */\n      swap2\n      swap1\n      pop\n      jump\t// out\n        /* \"#utility.yul\":19517:19898   */\n    tag_116:\n        /* \"#utility.yul\":19702:19705   */\n      0x00\n        /* \"#utility.yul\":19724:19872   */\n      tag_417\n        /* \"#utility.yul\":19868:19871   */\n      dup3\n        /* \"#utility.yul\":19724:19872   */\n      tag_238\n      jump\t// in\n    tag_417:\n        /* \"#utility.yul\":19717:19872   */\n      swap2\n      pop\n        /* \"#utility.yul\":19889:19892   */\n      dup2\n        /* \"#utility.yul\":19882:19892   */\n      swap1\n      pop\n        /* \"#utility.yul\":19517:19898   */\n      swap2\n      swap1\n      pop\n      jump\t// out\n        /* \"#utility.yul\":19904:20045   */\n    tag_239:\n        /* \"#utility.yul\":19953:19957   */\n      0x00\n        /* \"#utility.yul\":19976:19979   */\n      dup2\n        /* \"#utility.yul\":19968:19979   */\n      swap1\n      pop\n        /* \"#utility.yul\":19999:20002   */\n      dup2\n        /* \"#utility.yul\":19996:19997   */\n      0x00\n        /* \"#utility.yul\":19989:20003   */\n      mstore\n        /* \"#utility.yul\":20033:20037   */\n      0x20\n        /* \"#utility.yul\":20030:20031   */\n      0x00\n        /* \"#utility.yul\":20020:20038   */\n      keccak256\n        /* \"#utility.yul\":20012:20038   */\n      swap1\n      pop\n        /* \"#utility.yul\":19904:20045   */\n      swap2\n      swap1\n      pop\n      jump\t// out\n        /* \"#utility.yul\":20075:20920   */\n    tag_240:\n        /* \"#utility.yul\":20178:20181   */\n      0x00\n        /* \"#utility.yul\":20215:20220   */\n      dup2\n        /* \"#utility.yul\":20209:20221   */\n      sload\n        /* \"#utility.yul\":20244:20280   */\n      tag_420\n        /* \"#utility.yul\":20270:20279   */\n      dup2\n        /* \"#utility.yul\":20244:20280   */\n      tag_57\n      jump\t// in\n    tag_420:\n        /* \"#utility.yul\":20296:20385   */\n      tag_421\n        /* \"#utility.yul\":20378:20384   */\n      dup2\n        /* \"#utility.yul\":20373:20376   */\n      dup7\n        /* \"#utility.yul\":20296:20385   */\n      tag_232\n      jump\t// in\n    tag_421:\n        /* \"#utility.yul\":20289:20385   */\n      swap5\n      pop\n        /* \"#utility.yul\":20416:20417   */\n      0x01\n        /* \"#utility.yul\":20405:20414   */\n      dup3\n        /* \"#utility.yul\":20401:20418   */\n      and\n        /* \"#utility.yul\":20432:20433   */\n      0x00\n        /* \"#utility.yul\":20427:20564   */\n      dup2\n      eq\n      tag_423\n      jumpi\n        /* \"#utility.yul\":20578:20579   */\n      0x01\n        /* \"#utility.yul\":20573:20914   */\n      dup2\n      eq\n      tag_424\n      jumpi\n        /* \"#utility.yul\":20394:20914   */\n      jump(tag_422)\n        /* \"#utility.yul\":20427:20564   */\n    tag_423:\n        /* \"#utility.yul\":20511:20515   */\n      0xff\n        /* \"#utility.yul\":20507:20516   */\n      not\n        /* \"#utility.yul\":20496:20505   */\n      dup4\n        /* \"#utility.yul\":20492:20517   */\n      and\n        /* \"#utility.yul\":20487:20490   */\n      dup7\n        /* \"#utility.yul\":20480:20518   */\n      mstore\n        /* \"#utility.yul\":20547:20553   */\n      dup2\n        /* \"#utility.yul\":20542:20545   */\n      dup7\n        /* \"#utility.yul\":20538:20554   */\n      add\n        /* \"#utility.yul\":20531:20554   */\n      swap4\n      pop\n        /* \"#utility.yul\":20427:20564   */\n      jump(tag_422)\n        /* \"#utility.yul\":20573:20914   */\n    tag_424:\n        /* \"#utility.yul\":20640:20678   */\n      tag_425\n        /* \"#utility.yul\":20672:20677   */\n      dup6\n        /* \"#utility.yul\":20640:20678   */\n      tag_239\n      jump\t// in\n    tag_425:\n        /* \"#utility.yul\":20700:20701   */\n      0x00\n        /* \"#utility.yul\":20714:20868   */\n    tag_426:\n        /* \"#utility.yul\":20728:20734   */\n      dup4\n        /* \"#utility.yul\":20725:20726   */\n      dup2\n        /* \"#utility.yul\":20722:20735   */\n      lt\n        /* \"#utility.yul\":20714:20868   */\n      iszero\n      tag_428\n      jumpi\n        /* \"#utility.yul\":20802:20809   */\n      dup2\n        /* \"#utility.yul\":20796:20810   */\n      sload\n        /* \"#utility.yul\":20792:20793   */\n      dup2\n        /* \"#utility.yul\":20787:20790   */\n      dup10\n        /* \"#utility.yul\":20783:20794   */\n      add\n        /* \"#utility.yul\":20776:20811   */\n      mstore\n        /* \"#utility.yul\":20852:20853   */\n      0x01\n        /* \"#utility.yul\":20843:20850   */\n      dup3\n        /* \"#utility.yul\":20839:20854   */\n      add\n        /* \"#utility.yul\":20828:20854   */\n      swap2\n      pop\n        /* \"#utility.yul\":20750:20754   */\n      0x20\n        /* \"#utility.yul\":20747:20748   */\n      dup2\n        /* \"#utility.yul\":20743:20755   */\n      add\n        /* \"#utility.yul\":20738:20755   */\n      swap1\n      pop\n        /* \"#utility.yul\":20714:20868   */\n      jump(tag_426)\n    tag_428:\n        /* \"#utility.yul\":20897:20903   */\n      dup4\n        /* \"#utility.yul\":20892:20895   */\n      dup9\n        /* \"#utility.yul\":20888:20904   */\n      add\n        /* \"#utility.yul\":20881:20904   */\n      swap6\n      pop\n        /* \"#utility.yul\":20580:20914   */\n      pop\n      pop\n        /* \"#utility.yul\":20394:20914   */\n    tag_422:\n      pop\n        /* \"#utility.yul\":20182:20920   */\n      pop\n      pop\n        /* \"#utility.yul\":20075:20920   */\n      swap3\n      swap2\n      pop\n      pop\n      jump\t// out\n        /* \"#utility.yul\":20926:21195   */\n    tag_170:\n        /* \"#utility.yul\":21055:21058   */\n      0x00\n        /* \"#utility.yul\":21077:21169   */\n      tag_430\n        /* \"#utility.yul\":21165:21168   */\n      dup3\n        /* \"#utility.yul\":21156:21162   */\n      dup5\n        /* \"#utility.yul\":21077:21169   */\n      tag_240\n      jump\t// in\n    tag_430:\n        /* \"#utility.yul\":21070:21169   */\n      swap2\n      pop\n        /* \"#utility.yul\":21186:21189   */\n      dup2\n        /* \"#utility.yul\":21179:21189   */\n      swap1\n      pop\n        /* \"#utility.yul\":20926:21195   */\n      swap3\n      swap2\n      pop\n      pop\n      jump\t// out\n\n    auxdata: 0xa2646970667358221220ebf7f005107d76fdb23ba9b617f422ec44bc67a587c4b62e9da0311ce599e2bf64736f6c634300080d0033\n}\n",
				"bytecode": {
					"linkReferences": {},
					"object": "608060405234801561001057600080fd5b5033600360006101000a81548173ffffffffffffffffffffffffffffffffffffffff021916908373ffffffffffffffffffffffffffffffffffffffff1602179055506118dd806100616000396000f3fe608060405234801561001057600080fd5b506004361061009e5760003560e01c806386cdf6041161006657806386cdf60414610157578063b7ff50fc14610175578063bf80f44a146101a5578063c157b6f5146101c3578063f851a440146101e15761009e565b80631d39e509146100a3578063202e7be4146100d35780636f732627146100ef57806376dc15a71461011f5780638329ac521461013b575b600080fd5b6100bd60048036038101906100b89190610fb3565b6101ff565b6040516100ca9190611084565b60405180910390f35b6100ed60048036038101906100e89190610fb3565b6102bb565b005b610109600480360381019061010491906110dc565b6103dd565b6040516101169190611084565b60405180910390f35b61013960048036038101906101349190611109565b610489565b005b610155600480360381019061015091906111b0565b6105ca565b005b61015f6107bf565b60405161016c91906113de565b60405180910390f35b61018f600480360381019061018a91906111b0565b610a12565b60405161019c919061140f565b60405180910390f35b6101ad610c0a565b6040516101ba919061140f565b60405180910390f35b6101cb610c13565b6040516101d891906114ec565b60405180910390f35b6101e9610d76565b6040516101f6919061154f565b60405180910390f35b60008180516020810182018051848252602083016020850120818352809550505050505060009150905080600001805461023890611599565b80601f016020809104026020016040519081016040528092919081815260200182805461026490611599565b80156102b15780601f10610286576101008083540402835291602001916102b1565b820191906000526020600020905b81548152906001019060200180831161029457829003601f168201915b5050505050905081565b600360009054906101000a900473ffffffffffffffffffffffffffffffffffffffff1673ffffffffffffffffffffffffffffffffffffffff163373ffffffffffffffffffffffffffffffffffffffff161461034b576040517f08c379a000000000000000000000000000000000000000000000000000000000815260040161034290611616565b60405180910390fd5b6000808260405161035c9190611672565b9081526020016040518091039020905081816000019080519060200190610384929190610d9c565b5060016000815480929190610398906116b8565b91905055506002829080600181540180825580915050600190039060005260206000200160009091909190915090805190602001906103d8929190610d9c565b505050565b600281815481106103ed57600080fd5b90600052602060002001600091509050805461040890611599565b80601f016020809104026020016040519081016040528092919081815260200182805461043490611599565b80156104815780601f1061045657610100808354040283529160200191610481565b820191906000526020600020905b81548152906001019060200180831161046457829003601f168201915b505050505081565b600360009054906101000a900473ffffffffffffffffffffffffffffffffffffffff1673ffffffffffffffffffffffffffffffffffffffff163373ffffffffffffffffffffffffffffffffffffffff1614610519576040517f08c379a00000000000000000000000000000000000000000000000000000000081526004016105109061174c565b60405180910390fd5b6000836040516105299190611672565b9081526020016040518091039020600101604051806060016040528084815260200183815260200160008152509080600181540180825580915050600190039060005260206000209060030201600090919091909150600082015181600001908051906020019061059b929190610d9c565b5060208201518160010190805190602001906105b8929190610d9c565b50604082015181600201555050505050565b60005b6000836040516105dd9190611672565b9081526020016040518091039020600101805490508110156107ba576000808460405161060a9190611672565b9081526020016040518091039020600101828154811061062d5761062c61176c565b5b906000526020600020906003020160405180606001604052908160008201805461065690611599565b80601f016020809104026020016040519081016040528092919081815260200182805461068290611599565b80156106cf5780601f106106a4576101008083540402835291602001916106cf565b820191906000526020600020905b8154815290600101906020018083116106b257829003601f168201915b505050505081526020016001820180546106e890611599565b80601f016020809104026020016040519081016040528092919081815260200182805461071490611599565b80156107615780601f1061073657610100808354040283529160200191610761565b820191906000526020600020905b81548152906001019060200180831161074457829003601f168201915b5050505050815260200160028201548152505090508280519060200120816000015180519060200120036107a6578060400180518091906107a1906116b8565b815250505b5080806107b2906116b8565b9150506105cd565b505050565b6107c7610e22565b60006040516107d5906117e7565b90815260200160405180910390206040518060400160405290816000820180546107fe90611599565b80601f016020809104026020016040519081016040528092919081815260200182805461082a90611599565b80156108775780601f1061084c57610100808354040283529160200191610877565b820191906000526020600020905b81548152906001019060200180831161085a57829003601f168201915b5050505050815260200160018201805480602002602001604051908101604052809291908181526020016000905b82821015610a0557838290600052602060002090600302016040518060600160405290816000820180546108d890611599565b80601f016020809104026020016040519081016040528092919081815260200182805461090490611599565b80156109515780601f1061092657610100808354040283529160200191610951565b820191906000526020600020905b81548152906001019060200180831161093457829003601f168201915b5050505050815260200160018201805461096a90611599565b80601f016020809104026020016040519081016040528092919081815260200182805461099690611599565b80156109e35780601f106109b8576101008083540402835291602001916109e3565b820191906000526020600020905b8154815290600101906020018083116109c657829003601f168201915b50505050508152602001600282015481525050815260200190600101906108a5565b5050505081525050905090565b600080600090505b600084604051610a2a9190611672565b908152602001604051809103902060010180549050811015610bfe5760008085604051610a579190611672565b90815260200160405180910390206001018281548110610a7a57610a7961176c565b5b9060005260206000209060030201604051806060016040529081600082018054610aa390611599565b80601f0160208091040260200160405190810160405280929190818152602001828054610acf90611599565b8015610b1c5780601f10610af157610100808354040283529160200191610b1c565b820191906000526020600020905b815481529060010190602001808311610aff57829003601f168201915b50505050508152602001600182018054610b3590611599565b80601f0160208091040260200160405190810160405280929190818152602001828054610b6190611599565b8015610bae5780601f10610b8357610100808354040283529160200191610bae565b820191906000526020600020905b815481529060010190602001808311610b9157829003601f168201915b505050505081526020016002820154815250509050838051906020012081600001518051906020012003610bea57806040015192505050610c04565b508080610bf6906116b8565b915050610a1a565b50600090505b92915050565b6000607b905090565b6060600060015467ffffffffffffffff811115610c3357610c32610e88565b5b604051908082528060200260200182016040528015610c6657816020015b6060815260200190600190039081610c515790505b50905060005b600154811015610d6e57600060028281548110610c8c57610c8b61176c565b5b90600052602060002001604051610ca39190611890565b90815260200160405180910390206000018054610cbf90611599565b80601f0160208091040260200160405190810160405280929190818152602001828054610ceb90611599565b8015610d385780601f10610d0d57610100808354040283529160200191610d38565b820191906000526020600020905b815481529060010190602001808311610d1b57829003601f168201915b5050505050828281518110610d5057610d4f61176c565b5b60200260200101819052508080610d66906116b8565b915050610c6c565b508091505090565b600360009054906101000a900473ffffffffffffffffffffffffffffffffffffffff1681565b828054610da890611599565b90600052602060002090601f016020900481019282610dca5760008555610e11565b82601f10610de357805160ff1916838001178555610e11565b82800160010185558215610e11579182015b82811115610e10578251825591602001919060010190610df5565b5b509050610e1e9190610e3c565b5090565b604051806040016040528060608152602001606081525090565b5b80821115610e55576000816000905550600101610e3d565b5090565b6000604051905090565b600080fd5b600080fd5b600080fd5b600080fd5b6000601f19601f8301169050919050565b7f4e487b7100000000000000000000000000000000000000000000000000000000600052604160045260246000fd5b610ec082610e77565b810181811067ffffffffffffffff82111715610edf57610ede610e88565b5b80604052505050565b6000610ef2610e59565b9050610efe8282610eb7565b919050565b600067ffffffffffffffff821115610f1e57610f1d610e88565b5b610f2782610e77565b9050602081019050919050565b82818337600083830152505050565b6000610f56610f5184610f03565b610ee8565b905082815260208101848484011115610f7257610f71610e72565b5b610f7d848285610f34565b509392505050565b600082601f830112610f9a57610f99610e6d565b5b8135610faa848260208601610f43565b91505092915050565b600060208284031215610fc957610fc8610e63565b5b600082013567ffffffffffffffff811115610fe757610fe6610e68565b5b610ff384828501610f85565b91505092915050565b600081519050919050565b600082825260208201905092915050565b60005b8381101561103657808201518184015260208101905061101b565b83811115611045576000848401525b50505050565b600061105682610ffc565b6110608185611007565b9350611070818560208601611018565b61107981610e77565b840191505092915050565b6000602082019050818103600083015261109e818461104b565b905092915050565b6000819050919050565b6110b9816110a6565b81146110c457600080fd5b50565b6000813590506110d6816110b0565b92915050565b6000602082840312156110f2576110f1610e63565b5b6000611100848285016110c7565b91505092915050565b60008060006060848603121561112257611121610e63565b5b600084013567ffffffffffffffff8111156111405761113f610e68565b5b61114c86828701610f85565b935050602084013567ffffffffffffffff81111561116d5761116c610e68565b5b61117986828701610f85565b925050604084013567ffffffffffffffff81111561119a57611199610e68565b5b6111a686828701610f85565b9150509250925092565b600080604083850312156111c7576111c6610e63565b5b600083013567ffffffffffffffff8111156111e5576111e4610e68565b5b6111f185828601610f85565b925050602083013567ffffffffffffffff81111561121257611211610e68565b5b61121e85828601610f85565b9150509250929050565b600082825260208201905092915050565b600061124482610ffc565b61124e8185611228565b935061125e818560208601611018565b61126781610e77565b840191505092915050565b600081519050919050565b600082825260208201905092915050565b6000819050602082019050919050565b6112a7816110a6565b82525050565b600060608301600083015184820360008601526112ca8282611239565b915050602083015184820360208601526112e48282611239565b91505060408301516112f9604086018261129e565b508091505092915050565b600061131083836112ad565b905092915050565b6000602082019050919050565b600061133082611272565b61133a818561127d565b93508360208202850161134c8561128e565b8060005b8581101561138857848403895281516113698582611304565b945061137483611318565b925060208a01995050600181019050611350565b50829750879550505050505092915050565b600060408301600083015184820360008601526113b78282611239565b915050602083015184820360208601526113d18282611325565b9150508091505092915050565b600060208201905081810360008301526113f8818461139a565b905092915050565b611409816110a6565b82525050565b60006020820190506114246000830184611400565b92915050565b600081519050919050565b600082825260208201905092915050565b6000819050602082019050919050565b60006114628383611239565b905092915050565b6000602082019050919050565b60006114828261142a565b61148c8185611435565b93508360208202850161149e85611446565b8060005b858110156114da57848403895281516114bb8582611456565b94506114c68361146a565b925060208a019950506001810190506114a2565b50829750879550505050505092915050565b600060208201905081810360008301526115068184611477565b905092915050565b600073ffffffffffffffffffffffffffffffffffffffff82169050919050565b60006115398261150e565b9050919050565b6115498161152e565b82525050565b60006020820190506115646000830184611540565b92915050565b7f4e487b7100000000000000000000000000000000000000000000000000000000600052602260045260246000fd5b600060028204905060018216806115b157607f821691505b6020821081036115c4576115c361156a565b5b50919050565b7f4f6e6c792061646d696e2063616e20737461727420612063616d706169676e00600082015250565b6000611600601f83611007565b915061160b826115ca565b602082019050919050565b6000602082019050818103600083015261162f816115f3565b9050919050565b600081905092915050565b600061164c82610ffc565b6116568185611636565b9350611666818560208601611018565b80840191505092915050565b600061167e8284611641565b915081905092915050565b7f4e487b7100000000000000000000000000000000000000000000000000000000600052601160045260246000fd5b60006116c3826110a6565b91507fffffffffffffffffffffffffffffffffffffffffffffffffffffffffffffffff82036116f5576116f4611689565b5b600182019050919050565b7f4f6e6c792061646d696e2063616e2061646420612063616e6469646174650000600082015250565b6000611736601e83611007565b915061174182611700565b602082019050919050565b6000602082019050818103600083015261176581611729565b9050919050565b7f4e487b7100000000000000000000000000000000000000000000000000000000600052603260045260246000fd5b7f3131323200000000000000000000000000000000000000000000000000000000600082015250565b60006117d1600483611636565b91506117dc8261179b565b600482019050919050565b60006117f2826117c4565b9150819050919050565b60008190508160005260206000209050919050565b6000815461181e81611599565b6118288186611636565b94506001821660008114611843576001811461185457611887565b60ff19831686528186019350611887565b61185d856117fc565b60005b8381101561187f57815481890152600182019150602081019050611860565b838801955050505b50505092915050565b600061189c8284611811565b91508190509291505056fea2646970667358221220ebf7f005107d76fdb23ba9b617f422ec44bc67a587c4b62e9da0311ce599e2bf64736f6c634300080d0033",
					"opcodes": "PUSH1 0x80 PUSH1 0x40 MSTORE CALLVALUE DUP1 ISZERO PUSH2 0x10 JUMPI PUSH1 0x0 DUP1 REVERT JUMPDEST POP CALLER PUSH1 0x3 PUSH1 0x0 PUSH2 0x100 EXP DUP2 SLOAD DUP2 PUSH20 0xFFFFFFFFFFFFFFFFFFFFFFFFFFFFFFFFFFFFFFFF MUL NOT AND SWAP1 DUP4 PUSH20 0xFFFFFFFFFFFFFFFFFFFFFFFFFFFFFFFFFFFFFFFF AND MUL OR SWAP1 SSTORE POP PUSH2 0x18DD DUP1 PUSH2 0x61 PUSH1 0x0 CODECOPY PUSH1 0x0 RETURN INVALID PUSH1 0x80 PUSH1 0x40 MSTORE CALLVALUE DUP1 ISZERO PUSH2 0x10 JUMPI PUSH1 0x0 DUP1 REVERT JUMPDEST POP PUSH1 0x4 CALLDATASIZE LT PUSH2 0x9E JUMPI PUSH1 0x0 CALLDATALOAD PUSH1 0xE0 SHR DUP1 PUSH4 0x86CDF604 GT PUSH2 0x66 JUMPI DUP1 PUSH4 0x86CDF604 EQ PUSH2 0x157 JUMPI DUP1 PUSH4 0xB7FF50FC EQ PUSH2 0x175 JUMPI DUP1 PUSH4 0xBF80F44A EQ PUSH2 0x1A5 JUMPI DUP1 PUSH4 0xC157B6F5 EQ PUSH2 0x1C3 JUMPI DUP1 PUSH4 0xF851A440 EQ PUSH2 0x1E1 JUMPI PUSH2 0x9E JUMP JUMPDEST DUP1 PUSH4 0x1D39E509 EQ PUSH2 0xA3 JUMPI DUP1 PUSH4 0x202E7BE4 EQ PUSH2 0xD3 JUMPI DUP1 PUSH4 0x6F732627 EQ PUSH2 0xEF JUMPI DUP1 PUSH4 0x76DC15A7 EQ PUSH2 0x11F JUMPI DUP1 PUSH4 0x8329AC52 EQ PUSH2 0x13B JUMPI JUMPDEST PUSH1 0x0 DUP1 REVERT JUMPDEST PUSH2 0xBD PUSH1 0x4 DUP1 CALLDATASIZE SUB DUP2 ADD SWAP1 PUSH2 0xB8 SWAP2 SWAP1 PUSH2 0xFB3 JUMP JUMPDEST PUSH2 0x1FF JUMP JUMPDEST PUSH1 0x40 MLOAD PUSH2 0xCA SWAP2 SWAP1 PUSH2 0x1084 JUMP JUMPDEST PUSH1 0x40 MLOAD DUP1 SWAP2 SUB SWAP1 RETURN JUMPDEST PUSH2 0xED PUSH1 0x4 DUP1 CALLDATASIZE SUB DUP2 ADD SWAP1 PUSH2 0xE8 SWAP2 SWAP1 PUSH2 0xFB3 JUMP JUMPDEST PUSH2 0x2BB JUMP JUMPDEST STOP JUMPDEST PUSH2 0x109 PUSH1 0x4 DUP1 CALLDATASIZE SUB DUP2 ADD SWAP1 PUSH2 0x104 SWAP2 SWAP1 PUSH2 0x10DC JUMP JUMPDEST PUSH2 0x3DD JUMP JUMPDEST PUSH1 0x40 MLOAD PUSH2 0x116 SWAP2 SWAP1 PUSH2 0x1084 JUMP JUMPDEST PUSH1 0x40 MLOAD DUP1 SWAP2 SUB SWAP1 RETURN JUMPDEST PUSH2 0x139 PUSH1 0x4 DUP1 CALLDATASIZE SUB DUP2 ADD SWAP1 PUSH2 0x134 SWAP2 SWAP1 PUSH2 0x1109 JUMP JUMPDEST PUSH2 0x489 JUMP JUMPDEST STOP JUMPDEST PUSH2 0x155 PUSH1 0x4 DUP1 CALLDATASIZE SUB DUP2 ADD SWAP1 PUSH2 0x150 SWAP2 SWAP1 PUSH2 0x11B0 JUMP JUMPDEST PUSH2 0x5CA JUMP JUMPDEST STOP JUMPDEST PUSH2 0x15F PUSH2 0x7BF JUMP JUMPDEST PUSH1 0x40 MLOAD PUSH2 0x16C SWAP2 SWAP1 PUSH2 0x13DE JUMP JUMPDEST PUSH1 0x40 MLOAD DUP1 SWAP2 SUB SWAP1 RETURN JUMPDEST PUSH2 0x18F PUSH1 0x4 DUP1 CALLDATASIZE SUB DUP2 ADD SWAP1 PUSH2 0x18A SWAP2 SWAP1 PUSH2 0x11B0 JUMP JUMPDEST PUSH2 0xA12 JUMP JUMPDEST PUSH1 0x40 MLOAD PUSH2 0x19C SWAP2 SWAP1 PUSH2 0x140F JUMP JUMPDEST PUSH1 0x40 MLOAD DUP1 SWAP2 SUB SWAP1 RETURN JUMPDEST PUSH2 0x1AD PUSH2 0xC0A JUMP JUMPDEST PUSH1 0x40 MLOAD PUSH2 0x1BA SWAP2 SWAP1 PUSH2 0x140F JUMP JUMPDEST PUSH1 0x40 MLOAD DUP1 SWAP2 SUB SWAP1 RETURN JUMPDEST PUSH2 0x1CB PUSH2 0xC13 JUMP JUMPDEST PUSH1 0x40 MLOAD PUSH2 0x1D8 SWAP2 SWAP1 PUSH2 0x14EC JUMP JUMPDEST PUSH1 0x40 MLOAD DUP1 SWAP2 SUB SWAP1 RETURN JUMPDEST PUSH2 0x1E9 PUSH2 0xD76 JUMP JUMPDEST PUSH1 0x40 MLOAD PUSH2 0x1F6 SWAP2 SWAP1 PUSH2 0x154F JUMP JUMPDEST PUSH1 0x40 MLOAD DUP1 SWAP2 SUB SWAP1 RETURN JUMPDEST PUSH1 0x0 DUP2 DUP1 MLOAD PUSH1 0x20 DUP2 ADD DUP3 ADD DUP1 MLOAD DUP5 DUP3 MSTORE PUSH1 0x20 DUP4 ADD PUSH1 0x20 DUP6 ADD KECCAK256 DUP2 DUP4 MSTORE DUP1 SWAP6 POP POP POP POP POP POP PUSH1 0x0 SWAP2 POP SWAP1 POP DUP1 PUSH1 0x0 ADD DUP1 SLOAD PUSH2 0x238 SWAP1 PUSH2 0x1599 JUMP JUMPDEST DUP1 PUSH1 0x1F ADD PUSH1 0x20 DUP1 SWAP2 DIV MUL PUSH1 0x20 ADD PUSH1 0x40 MLOAD SWAP1 DUP2 ADD PUSH1 0x40 MSTORE DUP1 SWAP3 SWAP2 SWAP1 DUP2 DUP2 MSTORE PUSH1 0x20 ADD DUP3 DUP1 SLOAD PUSH2 0x264 SWAP1 PUSH2 0x1599 JUMP JUMPDEST DUP1 ISZERO PUSH2 0x2B1 JUMPI DUP1 PUSH1 0x1F LT PUSH2 0x286 JUMPI PUSH2 0x100 DUP1 DUP4 SLOAD DIV MUL DUP4 MSTORE SWAP2 PUSH1 0x20 ADD SWAP2 PUSH2 0x2B1 JUMP JUMPDEST DUP3 ADD SWAP2 SWAP1 PUSH1 0x0 MSTORE PUSH1 0x20 PUSH1 0x0 KECCAK256 SWAP1 JUMPDEST DUP2 SLOAD DUP2 MSTORE SWAP1 PUSH1 0x1 ADD SWAP1 PUSH1 0x20 ADD DUP1 DUP4 GT PUSH2 0x294 JUMPI DUP3 SWAP1 SUB PUSH1 0x1F AND DUP3 ADD SWAP2 JUMPDEST POP POP POP POP POP SWAP1 POP DUP2 JUMP JUMPDEST PUSH1 0x3 PUSH1 0x0 SWAP1 SLOAD SWAP1 PUSH2 0x100 EXP SWAP1 DIV PUSH20 0xFFFFFFFFFFFFFFFFFFFFFFFFFFFFFFFFFFFFFFFF AND PUSH20 0xFFFFFFFFFFFFFFFFFFFFFFFFFFFFFFFFFFFFFFFF AND CALLER PUSH20 0xFFFFFFFFFFFFFFFFFFFFFFFFFFFFFFFFFFFFFFFF AND EQ PUSH2 0x34B JUMPI PUSH1 0x40 MLOAD PUSH32 0x8C379A000000000000000000000000000000000000000000000000000000000 DUP2 MSTORE PUSH1 0x4 ADD PUSH2 0x342 SWAP1 PUSH2 0x1616 JUMP JUMPDEST PUSH1 0x40 MLOAD DUP1 SWAP2 SUB SWAP1 REVERT JUMPDEST PUSH1 0x0 DUP1 DUP3 PUSH1 0x40 MLOAD PUSH2 0x35C SWAP2 SWAP1 PUSH2 0x1672 JUMP JUMPDEST SWAP1 DUP2 MSTORE PUSH1 0x20 ADD PUSH1 0x40 MLOAD DUP1 SWAP2 SUB SWAP1 KECCAK256 SWAP1 POP DUP2 DUP2 PUSH1 0x0 ADD SWAP1 DUP1 MLOAD SWAP1 PUSH1 0x20 ADD SWAP1 PUSH2 0x384 SWAP3 SWAP2 SWAP1 PUSH2 0xD9C JUMP JUMPDEST POP PUSH1 0x1 PUSH1 0x0 DUP2 SLOAD DUP1 SWAP3 SWAP2 SWAP1 PUSH2 0x398 SWAP1 PUSH2 0x16B8 JUMP JUMPDEST SWAP2 SWAP1 POP SSTORE POP PUSH1 0x2 DUP3 SWAP1 DUP1 PUSH1 0x1 DUP2 SLOAD ADD DUP1 DUP3 SSTORE DUP1 SWAP2 POP POP PUSH1 0x1 SWAP1 SUB SWAP1 PUSH1 0x0 MSTORE PUSH1 0x20 PUSH1 0x0 KECCAK256 ADD PUSH1 0x0 SWAP1 SWAP2 SWAP1 SWAP2 SWAP1 SWAP2 POP SWAP1 DUP1 MLOAD SWAP1 PUSH1 0x20 ADD SWAP1 PUSH2 0x3D8 SWAP3 SWAP2 SWAP1 PUSH2 0xD9C JUMP JUMPDEST POP POP POP JUMP JUMPDEST PUSH1 0x2 DUP2 DUP2 SLOAD DUP2 LT PUSH2 0x3ED JUMPI PUSH1 0x0 DUP1 REVERT JUMPDEST SWAP1 PUSH1 0x0 MSTORE PUSH1 0x20 PUSH1 0x0 KECCAK256 ADD PUSH1 0x0 SWAP2 POP SWAP1 POP DUP1 SLOAD PUSH2 0x408 SWAP1 PUSH2 0x1599 JUMP JUMPDEST DUP1 PUSH1 0x1F ADD PUSH1 0x20 DUP1 SWAP2 DIV MUL PUSH1 0x20 ADD PUSH1 0x40 MLOAD SWAP1 DUP2 ADD PUSH1 0x40 MSTORE DUP1 SWAP3 SWAP2 SWAP1 DUP2 DUP2 MSTORE PUSH1 0x20 ADD DUP3 DUP1 SLOAD PUSH2 0x434 SWAP1 PUSH2 0x1599 JUMP JUMPDEST DUP1 ISZERO PUSH2 0x481 JUMPI DUP1 PUSH1 0x1F LT PUSH2 0x456 JUMPI PUSH2 0x100 DUP1 DUP4 SLOAD DIV MUL DUP4 MSTORE SWAP2 PUSH1 0x20 ADD SWAP2 PUSH2 0x481 JUMP JUMPDEST DUP3 ADD SWAP2 SWAP1 PUSH1 0x0 MSTORE PUSH1 0x20 PUSH1 0x0 KECCAK256 SWAP1 JUMPDEST DUP2 SLOAD DUP2 MSTORE SWAP1 PUSH1 0x1 ADD SWAP1 PUSH1 0x20 ADD DUP1 DUP4 GT PUSH2 0x464 JUMPI DUP3 SWAP1 SUB PUSH1 0x1F AND DUP3 ADD SWAP2 JUMPDEST POP POP POP POP POP DUP2 JUMP JUMPDEST PUSH1 0x3 PUSH1 0x0 SWAP1 SLOAD SWAP1 PUSH2 0x100 EXP SWAP1 DIV PUSH20 0xFFFFFFFFFFFFFFFFFFFFFFFFFFFFFFFFFFFFFFFF AND PUSH20 0xFFFFFFFFFFFFFFFFFFFFFFFFFFFFFFFFFFFFFFFF AND CALLER PUSH20 0xFFFFFFFFFFFFFFFFFFFFFFFFFFFFFFFFFFFFFFFF AND EQ PUSH2 0x519 JUMPI PUSH1 0x40 MLOAD PUSH32 0x8C379A000000000000000000000000000000000000000000000000000000000 DUP2 MSTORE PUSH1 0x4 ADD PUSH2 0x510 SWAP1 PUSH2 0x174C JUMP JUMPDEST PUSH1 0x40 MLOAD DUP1 SWAP2 SUB SWAP1 REVERT JUMPDEST PUSH1 0x0 DUP4 PUSH1 0x40 MLOAD PUSH2 0x529 SWAP2 SWAP1 PUSH2 0x1672 JUMP JUMPDEST SWAP1 DUP2 MSTORE PUSH1 0x20 ADD PUSH1 0x40 MLOAD DUP1 SWAP2 SUB SWAP1 KECCAK256 PUSH1 0x1 ADD PUSH1 0x40 MLOAD DUP1 PUSH1 0x60 ADD PUSH1 0x40 MSTORE DUP1 DUP5 DUP2 MSTORE PUSH1 0x20 ADD DUP4 DUP2 MSTORE PUSH1 0x20 ADD PUSH1 0x0 DUP2 MSTORE POP SWAP1 DUP1 PUSH1 0x1 DUP2 SLOAD ADD DUP1 DUP3 SSTORE DUP1 SWAP2 POP POP PUSH1 0x1 SWAP1 SUB SWAP1 PUSH1 0x0 MSTORE PUSH1 0x20 PUSH1 0x0 KECCAK256 SWAP1 PUSH1 0x3 MUL ADD PUSH1 0x0 SWAP1 SWAP2 SWAP1 SWAP2 SWAP1 SWAP2 POP PUSH1 0x0 DUP3 ADD MLOAD DUP2 PUSH1 0x0 ADD SWAP1 DUP1 MLOAD SWAP1 PUSH1 0x20 ADD SWAP1 PUSH2 0x59B SWAP3 SWAP2 SWAP1 PUSH2 0xD9C JUMP JUMPDEST POP PUSH1 0x20 DUP3 ADD MLOAD DUP2 PUSH1 0x1 ADD SWAP1 DUP1 MLOAD SWAP1 PUSH1 0x20 ADD SWAP1 PUSH2 0x5B8 SWAP3 SWAP2 SWAP1 PUSH2 0xD9C JUMP JUMPDEST POP PUSH1 0x40 DUP3 ADD MLOAD DUP2 PUSH1 0x2 ADD SSTORE POP POP POP POP POP JUMP JUMPDEST PUSH1 0x0 JUMPDEST PUSH1 0x0 DUP4 PUSH1 0x40 MLOAD PUSH2 0x5DD SWAP2 SWAP1 PUSH2 0x1672 JUMP JUMPDEST SWAP1 DUP2 MSTORE PUSH1 0x20 ADD PUSH1 0x40 MLOAD DUP1 SWAP2 SUB SWAP1 KECCAK256 PUSH1 0x1 ADD DUP1 SLOAD SWAP1 POP DUP2 LT ISZERO PUSH2 0x7BA JUMPI PUSH1 0x0 DUP1 DUP5 PUSH1 0x40 MLOAD PUSH2 0x60A SWAP2 SWAP1 PUSH2 0x1672 JUMP JUMPDEST SWAP1 DUP2 MSTORE PUSH1 0x20 ADD PUSH1 0x40 MLOAD DUP1 SWAP2 SUB SWAP1 KECCAK256 PUSH1 0x1 ADD DUP3 DUP2 SLOAD DUP2 LT PUSH2 0x62D JUMPI PUSH2 0x62C PUSH2 0x176C JUMP JUMPDEST JUMPDEST SWAP1 PUSH1 0x0 MSTORE PUSH1 0x20 PUSH1 0x0 KECCAK256 SWAP1 PUSH1 0x3 MUL ADD PUSH1 0x40 MLOAD DUP1 PUSH1 0x60 ADD PUSH1 0x40 MSTORE SWAP1 DUP2 PUSH1 0x0 DUP3 ADD DUP1 SLOAD PUSH2 0x656 SWAP1 PUSH2 0x1599 JUMP JUMPDEST DUP1 PUSH1 0x1F ADD PUSH1 0x20 DUP1 SWAP2 DIV MUL PUSH1 0x20 ADD PUSH1 0x40 MLOAD SWAP1 DUP2 ADD PUSH1 0x40 MSTORE DUP1 SWAP3 SWAP2 SWAP1 DUP2 DUP2 MSTORE PUSH1 0x20 ADD DUP3 DUP1 SLOAD PUSH2 0x682 SWAP1 PUSH2 0x1599 JUMP JUMPDEST DUP1 ISZERO PUSH2 0x6CF JUMPI DUP1 PUSH1 0x1F LT PUSH2 0x6A4 JUMPI PUSH2 0x100 DUP1 DUP4 SLOAD DIV MUL DUP4 MSTORE SWAP2 PUSH1 0x20 ADD SWAP2 PUSH2 0x6CF JUMP JUMPDEST DUP3 ADD SWAP2 SWAP1 PUSH1 0x0 MSTORE PUSH1 0x20 PUSH1 0x0 KECCAK256 SWAP1 JUMPDEST DUP2 SLOAD DUP2 MSTORE SWAP1 PUSH1 0x1 ADD SWAP1 PUSH1 0x20 ADD DUP1 DUP4 GT PUSH2 0x6B2 JUMPI DUP3 SWAP1 SUB PUSH1 0x1F AND DUP3 ADD SWAP2 JUMPDEST POP POP POP POP POP DUP2 MSTORE PUSH1 0x20 ADD PUSH1 0x1 DUP3 ADD DUP1 SLOAD PUSH2 0x6E8 SWAP1 PUSH2 0x1599 JUMP JUMPDEST DUP1 PUSH1 0x1F ADD PUSH1 0x20 DUP1 SWAP2 DIV MUL PUSH1 0x20 ADD PUSH1 0x40 MLOAD SWAP1 DUP2 ADD PUSH1 0x40 MSTORE DUP1 SWAP3 SWAP2 SWAP1 DUP2 DUP2 MSTORE PUSH1 0x20 ADD DUP3 DUP1 SLOAD PUSH2 0x714 SWAP1 PUSH2 0x1599 JUMP JUMPDEST DUP1 ISZERO PUSH2 0x761 JUMPI DUP1 PUSH1 0x1F LT PUSH2 0x736 JUMPI PUSH2 0x100 DUP1 DUP4 SLOAD DIV MUL DUP4 MSTORE SWAP2 PUSH1 0x20 ADD SWAP2 PUSH2 0x761 JUMP JUMPDEST DUP3 ADD SWAP2 SWAP1 PUSH1 0x0 MSTORE PUSH1 0x20 PUSH1 0x0 KECCAK256 SWAP1 JUMPDEST DUP2 SLOAD DUP2 MSTORE SWAP1 PUSH1 0x1 ADD SWAP1 PUSH1 0x20 ADD DUP1 DUP4 GT PUSH2 0x744 JUMPI DUP3 SWAP1 SUB PUSH1 0x1F AND DUP3 ADD SWAP2 JUMPDEST POP POP POP POP POP DUP2 MSTORE PUSH1 0x20 ADD PUSH1 0x2 DUP3 ADD SLOAD DUP2 MSTORE POP POP SWAP1 POP DUP3 DUP1 MLOAD SWAP1 PUSH1 0x20 ADD KECCAK256 DUP2 PUSH1 0x0 ADD MLOAD DUP1 MLOAD SWAP1 PUSH1 0x20 ADD KECCAK256 SUB PUSH2 0x7A6 JUMPI DUP1 PUSH1 0x40 ADD DUP1 MLOAD DUP1 SWAP2 SWAP1 PUSH2 0x7A1 SWAP1 PUSH2 0x16B8 JUMP JUMPDEST DUP2 MSTORE POP POP JUMPDEST POP DUP1 DUP1 PUSH2 0x7B2 SWAP1 PUSH2 0x16B8 JUMP JUMPDEST SWAP2 POP POP PUSH2 0x5CD JUMP JUMPDEST POP POP POP JUMP JUMPDEST PUSH2 0x7C7 PUSH2 0xE22 JUMP JUMPDEST PUSH1 0x0 PUSH1 0x40 MLOAD PUSH2 0x7D5 SWAP1 PUSH2 0x17E7 JUMP JUMPDEST SWAP1 DUP2 MSTORE PUSH1 0x20 ADD PUSH1 0x40 MLOAD DUP1 SWAP2 SUB SWAP1 KECCAK256 PUSH1 0x40 MLOAD DUP1 PUSH1 0x40 ADD PUSH1 0x40 MSTORE SWAP1 DUP2 PUSH1 0x0 DUP3 ADD DUP1 SLOAD PUSH2 0x7FE SWAP1 PUSH2 0x1599 JUMP JUMPDEST DUP1 PUSH1 0x1F ADD PUSH1 0x20 DUP1 SWAP2 DIV MUL PUSH1 0x20 ADD PUSH1 0x40 MLOAD SWAP1 DUP2 ADD PUSH1 0x40 MSTORE DUP1 SWAP3 SWAP2 SWAP1 DUP2 DUP2 MSTORE PUSH1 0x20 ADD DUP3 DUP1 SLOAD PUSH2 0x82A SWAP1 PUSH2 0x1599 JUMP JUMPDEST DUP1 ISZERO PUSH2 0x877 JUMPI DUP1 PUSH1 0x1F LT PUSH2 0x84C JUMPI PUSH2 0x100 DUP1 DUP4 SLOAD DIV MUL DUP4 MSTORE SWAP2 PUSH1 0x20 ADD SWAP2 PUSH2 0x877 JUMP JUMPDEST DUP3 ADD SWAP2 SWAP1 PUSH1 0x0 MSTORE PUSH1 0x20 PUSH1 0x0 KECCAK256 SWAP1 JUMPDEST DUP2 SLOAD DUP2 MSTORE SWAP1 PUSH1 0x1 ADD SWAP1 PUSH1 0x20 ADD DUP1 DUP4 GT PUSH2 0x85A JUMPI DUP3 SWAP1 SUB PUSH1 0x1F AND DUP3 ADD SWAP2 JUMPDEST POP POP POP POP POP DUP2 MSTORE PUSH1 0x20 ADD PUSH1 0x1 DUP3 ADD DUP1 SLOAD DUP1 PUSH1 0x20 MUL PUSH1 0x20 ADD PUSH1 0x40 MLOAD SWAP1 DUP2 ADD PUSH1 0x40 MSTORE DUP1 SWAP3 SWAP2 SWAP1 DUP2 DUP2 MSTORE PUSH1 0x20 ADD PUSH1 0x0 SWAP1 JUMPDEST DUP3 DUP3 LT ISZERO PUSH2 0xA05 JUMPI DUP4 DUP3 SWAP1 PUSH1 0x0 MSTORE PUSH1 0x20 PUSH1 0x0 KECCAK256 SWAP1 PUSH1 0x3 MUL ADD PUSH1 0x40 MLOAD DUP1 PUSH1 0x60 ADD PUSH1 0x40 MSTORE SWAP1 DUP2 PUSH1 0x0 DUP3 ADD DUP1 SLOAD PUSH2 0x8D8 SWAP1 PUSH2 0x1599 JUMP JUMPDEST DUP1 PUSH1 0x1F ADD PUSH1 0x20 DUP1 SWAP2 DIV MUL PUSH1 0x20 ADD PUSH1 0x40 MLOAD SWAP1 DUP2 ADD PUSH1 0x40 MSTORE DUP1 SWAP3 SWAP2 SWAP1 DUP2 DUP2 MSTORE PUSH1 0x20 ADD DUP3 DUP1 SLOAD PUSH2 0x904 SWAP1 PUSH2 0x1599 JUMP JUMPDEST DUP1 ISZERO PUSH2 0x951 JUMPI DUP1 PUSH1 0x1F LT PUSH2 0x926 JUMPI PUSH2 0x100 DUP1 DUP4 SLOAD DIV MUL DUP4 MSTORE SWAP2 PUSH1 0x20 ADD SWAP2 PUSH2 0x951 JUMP JUMPDEST DUP3 ADD SWAP2 SWAP1 PUSH1 0x0 MSTORE PUSH1 0x20 PUSH1 0x0 KECCAK256 SWAP1 JUMPDEST DUP2 SLOAD DUP2 MSTORE SWAP1 PUSH1 0x1 ADD SWAP1 PUSH1 0x20 ADD DUP1 DUP4 GT PUSH2 0x934 JUMPI DUP3 SWAP1 SUB PUSH1 0x1F AND DUP3 ADD SWAP2 JUMPDEST POP POP POP POP POP DUP2 MSTORE PUSH1 0x20 ADD PUSH1 0x1 DUP3 ADD DUP1 SLOAD PUSH2 0x96A SWAP1 PUSH2 0x1599 JUMP JUMPDEST DUP1 PUSH1 0x1F ADD PUSH1 0x20 DUP1 SWAP2 DIV MUL PUSH1 0x20 ADD PUSH1 0x40 MLOAD SWAP1 DUP2 ADD PUSH1 0x40 MSTORE DUP1 SWAP3 SWAP2 SWAP1 DUP2 DUP2 MSTORE PUSH1 0x20 ADD DUP3 DUP1 SLOAD PUSH2 0x996 SWAP1 PUSH2 0x1599 JUMP JUMPDEST DUP1 ISZERO PUSH2 0x9E3 JUMPI DUP1 PUSH1 0x1F LT PUSH2 0x9B8 JUMPI PUSH2 0x100 DUP1 DUP4 SLOAD DIV MUL DUP4 MSTORE SWAP2 PUSH1 0x20 ADD SWAP2 PUSH2 0x9E3 JUMP JUMPDEST DUP3 ADD SWAP2 SWAP1 PUSH1 0x0 MSTORE PUSH1 0x20 PUSH1 0x0 KECCAK256 SWAP1 JUMPDEST DUP2 SLOAD DUP2 MSTORE SWAP1 PUSH1 0x1 ADD SWAP1 PUSH1 0x20 ADD DUP1 DUP4 GT PUSH2 0x9C6 JUMPI DUP3 SWAP1 SUB PUSH1 0x1F AND DUP3 ADD SWAP2 JUMPDEST POP POP POP POP POP DUP2 MSTORE PUSH1 0x20 ADD PUSH1 0x2 DUP3 ADD SLOAD DUP2 MSTORE POP POP DUP2 MSTORE PUSH1 0x20 ADD SWAP1 PUSH1 0x1 ADD SWAP1 PUSH2 0x8A5 JUMP JUMPDEST POP POP POP POP DUP2 MSTORE POP POP SWAP1 POP SWAP1 JUMP JUMPDEST PUSH1 0x0 DUP1 PUSH1 0x0 SWAP1 POP JUMPDEST PUSH1 0x0 DUP5 PUSH1 0x40 MLOAD PUSH2 0xA2A SWAP2 SWAP1 PUSH2 0x1672 JUMP JUMPDEST SWAP1 DUP2 MSTORE PUSH1 0x20 ADD PUSH1 0x40 MLOAD DUP1 SWAP2 SUB SWAP1 KECCAK256 PUSH1 0x1 ADD DUP1 SLOAD SWAP1 POP DUP2 LT ISZERO PUSH2 0xBFE JUMPI PUSH1 0x0 DUP1 DUP6 PUSH1 0x40 MLOAD PUSH2 0xA57 SWAP2 SWAP1 PUSH2 0x1672 JUMP JUMPDEST SWAP1 DUP2 MSTORE PUSH1 0x20 ADD PUSH1 0x40 MLOAD DUP1 SWAP2 SUB SWAP1 KECCAK256 PUSH1 0x1 ADD DUP3 DUP2 SLOAD DUP2 LT PUSH2 0xA7A JUMPI PUSH2 0xA79 PUSH2 0x176C JUMP JUMPDEST JUMPDEST SWAP1 PUSH1 0x0 MSTORE PUSH1 0x20 PUSH1 0x0 KECCAK256 SWAP1 PUSH1 0x3 MUL ADD PUSH1 0x40 MLOAD DUP1 PUSH1 0x60 ADD PUSH1 0x40 MSTORE SWAP1 DUP2 PUSH1 0x0 DUP3 ADD DUP1 SLOAD PUSH2 0xAA3 SWAP1 PUSH2 0x1599 JUMP JUMPDEST DUP1 PUSH1 0x1F ADD PUSH1 0x20 DUP1 SWAP2 DIV MUL PUSH1 0x20 ADD PUSH1 0x40 MLOAD SWAP1 DUP2 ADD PUSH1 0x40 MSTORE DUP1 SWAP3 SWAP2 SWAP1 DUP2 DUP2 MSTORE PUSH1 0x20 ADD DUP3 DUP1 SLOAD PUSH2 0xACF SWAP1 PUSH2 0x1599 JUMP JUMPDEST DUP1 ISZERO PUSH2 0xB1C JUMPI DUP1 PUSH1 0x1F LT PUSH2 0xAF1 JUMPI PUSH2 0x100 DUP1 DUP4 SLOAD DIV MUL DUP4 MSTORE SWAP2 PUSH1 0x20 ADD SWAP2 PUSH2 0xB1C JUMP JUMPDEST DUP3 ADD SWAP2 SWAP1 PUSH1 0x0 MSTORE PUSH1 0x20 PUSH1 0x0 KECCAK256 SWAP1 JUMPDEST DUP2 SLOAD DUP2 MSTORE SWAP1 PUSH1 0x1 ADD SWAP1 PUSH1 0x20 ADD DUP1 DUP4 GT PUSH2 0xAFF JUMPI DUP3 SWAP1 SUB PUSH1 0x1F AND DUP3 ADD SWAP2 JUMPDEST POP POP POP POP POP DUP2 MSTORE PUSH1 0x20 ADD PUSH1 0x1 DUP3 ADD DUP1 SLOAD PUSH2 0xB35 SWAP1 PUSH2 0x1599 JUMP JUMPDEST DUP1 PUSH1 0x1F ADD PUSH1 0x20 DUP1 SWAP2 DIV MUL PUSH1 0x20 ADD PUSH1 0x40 MLOAD SWAP1 DUP2 ADD PUSH1 0x40 MSTORE DUP1 SWAP3 SWAP2 SWAP1 DUP2 DUP2 MSTORE PUSH1 0x20 ADD DUP3 DUP1 SLOAD PUSH2 0xB61 SWAP1 PUSH2 0x1599 JUMP JUMPDEST DUP1 ISZERO PUSH2 0xBAE JUMPI DUP1 PUSH1 0x1F LT PUSH2 0xB83 JUMPI PUSH2 0x100 DUP1 DUP4 SLOAD DIV MUL DUP4 MSTORE SWAP2 PUSH1 0x20 ADD SWAP2 PUSH2 0xBAE JUMP JUMPDEST DUP3 ADD SWAP2 SWAP1 PUSH1 0x0 MSTORE PUSH1 0x20 PUSH1 0x0 KECCAK256 SWAP1 JUMPDEST DUP2 SLOAD DUP2 MSTORE SWAP1 PUSH1 0x1 ADD SWAP1 PUSH1 0x20 ADD DUP1 DUP4 GT PUSH2 0xB91 JUMPI DUP3 SWAP1 SUB PUSH1 0x1F AND DUP3 ADD SWAP2 JUMPDEST POP POP POP POP POP DUP2 MSTORE PUSH1 0x20 ADD PUSH1 0x2 DUP3 ADD SLOAD DUP2 MSTORE POP POP SWAP1 POP DUP4 DUP1 MLOAD SWAP1 PUSH1 0x20 ADD KECCAK256 DUP2 PUSH1 0x0 ADD MLOAD DUP1 MLOAD SWAP1 PUSH1 0x20 ADD KECCAK256 SUB PUSH2 0xBEA JUMPI DUP1 PUSH1 0x40 ADD MLOAD SWAP3 POP POP POP PUSH2 0xC04 JUMP JUMPDEST POP DUP1 DUP1 PUSH2 0xBF6 SWAP1 PUSH2 0x16B8 JUMP JUMPDEST SWAP2 POP POP PUSH2 0xA1A JUMP JUMPDEST POP PUSH1 0x0 SWAP1 POP JUMPDEST SWAP3 SWAP2 POP POP JUMP JUMPDEST PUSH1 0x0 PUSH1 0x7B SWAP1 POP SWAP1 JUMP JUMPDEST PUSH1 0x60 PUSH1 0x0 PUSH1 0x1 SLOAD PUSH8 0xFFFFFFFFFFFFFFFF DUP2 GT ISZERO PUSH2 0xC33 JUMPI PUSH2 0xC32 PUSH2 0xE88 JUMP JUMPDEST JUMPDEST PUSH1 0x40 MLOAD SWAP1 DUP1 DUP3 MSTORE DUP1 PUSH1 0x20 MUL PUSH1 0x20 ADD DUP3 ADD PUSH1 0x40 MSTORE DUP1 ISZERO PUSH2 0xC66 JUMPI DUP2 PUSH1 0x20 ADD JUMPDEST PUSH1 0x60 DUP2 MSTORE PUSH1 0x20 ADD SWAP1 PUSH1 0x1 SWAP1 SUB SWAP1 DUP2 PUSH2 0xC51 JUMPI SWAP1 POP JUMPDEST POP SWAP1 POP PUSH1 0x0 JUMPDEST PUSH1 0x1 SLOAD DUP2 LT ISZERO PUSH2 0xD6E JUMPI PUSH1 0x0 PUSH1 0x2 DUP3 DUP2 SLOAD DUP2 LT PUSH2 0xC8C JUMPI PUSH2 0xC8B PUSH2 0x176C JUMP JUMPDEST JUMPDEST SWAP1 PUSH1 0x0 MSTORE PUSH1 0x20 PUSH1 0x0 KECCAK256 ADD PUSH1 0x40 MLOAD PUSH2 0xCA3 SWAP2 SWAP1 PUSH2 0x1890 JUMP JUMPDEST SWAP1 DUP2 MSTORE PUSH1 0x20 ADD PUSH1 0x40 MLOAD DUP1 SWAP2 SUB SWAP1 KECCAK256 PUSH1 0x0 ADD DUP1 SLOAD PUSH2 0xCBF SWAP1 PUSH2 0x1599 JUMP JUMPDEST DUP1 PUSH1 0x1F ADD PUSH1 0x20 DUP1 SWAP2 DIV MUL PUSH1 0x20 ADD PUSH1 0x40 MLOAD SWAP1 DUP2 ADD PUSH1 0x40 MSTORE DUP1 SWAP3 SWAP2 SWAP1 DUP2 DUP2 MSTORE PUSH1 0x20 ADD DUP3 DUP1 SLOAD PUSH2 0xCEB SWAP1 PUSH2 0x1599 JUMP JUMPDEST DUP1 ISZERO PUSH2 0xD38 JUMPI DUP1 PUSH1 0x1F LT PUSH2 0xD0D JUMPI PUSH2 0x100 DUP1 DUP4 SLOAD DIV MUL DUP4 MSTORE SWAP2 PUSH1 0x20 ADD SWAP2 PUSH2 0xD38 JUMP JUMPDEST DUP3 ADD SWAP2 SWAP1 PUSH1 0x0 MSTORE PUSH1 0x20 PUSH1 0x0 KECCAK256 SWAP1 JUMPDEST DUP2 SLOAD DUP2 MSTORE SWAP1 PUSH1 0x1 ADD SWAP1 PUSH1 0x20 ADD DUP1 DUP4 GT PUSH2 0xD1B JUMPI DUP3 SWAP1 SUB PUSH1 0x1F AND DUP3 ADD SWAP2 JUMPDEST POP POP POP POP POP DUP3 DUP3 DUP2 MLOAD DUP2 LT PUSH2 0xD50 JUMPI PUSH2 0xD4F PUSH2 0x176C JUMP JUMPDEST JUMPDEST PUSH1 0x20 MUL PUSH1 0x20 ADD ADD DUP2 SWAP1 MSTORE POP DUP1 DUP1 PUSH2 0xD66 SWAP1 PUSH2 0x16B8 JUMP JUMPDEST SWAP2 POP POP PUSH2 0xC6C JUMP JUMPDEST POP DUP1 SWAP2 POP POP SWAP1 JUMP JUMPDEST PUSH1 0x3 PUSH1 0x0 SWAP1 SLOAD SWAP1 PUSH2 0x100 EXP SWAP1 DIV PUSH20 0xFFFFFFFFFFFFFFFFFFFFFFFFFFFFFFFFFFFFFFFF AND DUP2 JUMP JUMPDEST DUP3 DUP1 SLOAD PUSH2 0xDA8 SWAP1 PUSH2 0x1599 JUMP JUMPDEST SWAP1 PUSH1 0x0 MSTORE PUSH1 0x20 PUSH1 0x0 KECCAK256 SWAP1 PUSH1 0x1F ADD PUSH1 0x20 SWAP1 DIV DUP2 ADD SWAP3 DUP3 PUSH2 0xDCA JUMPI PUSH1 0x0 DUP6 SSTORE PUSH2 0xE11 JUMP JUMPDEST DUP3 PUSH1 0x1F LT PUSH2 0xDE3 JUMPI DUP1 MLOAD PUSH1 0xFF NOT AND DUP4 DUP1 ADD OR DUP6 SSTORE PUSH2 0xE11 JUMP JUMPDEST DUP3 DUP1 ADD PUSH1 0x1 ADD DUP6 SSTORE DUP3 ISZERO PUSH2 0xE11 JUMPI SWAP2 DUP3 ADD JUMPDEST DUP3 DUP2 GT ISZERO PUSH2 0xE10 JUMPI DUP3 MLOAD DUP3 SSTORE SWAP2 PUSH1 0x20 ADD SWAP2 SWAP1 PUSH1 0x1 ADD SWAP1 PUSH2 0xDF5 JUMP JUMPDEST JUMPDEST POP SWAP1 POP PUSH2 0xE1E SWAP2 SWAP1 PUSH2 0xE3C JUMP JUMPDEST POP SWAP1 JUMP JUMPDEST PUSH1 0x40 MLOAD DUP1 PUSH1 0x40 ADD PUSH1 0x40 MSTORE DUP1 PUSH1 0x60 DUP2 MSTORE PUSH1 0x20 ADD PUSH1 0x60 DUP2 MSTORE POP SWAP1 JUMP JUMPDEST JUMPDEST DUP1 DUP3 GT ISZERO PUSH2 0xE55 JUMPI PUSH1 0x0 DUP2 PUSH1 0x0 SWAP1 SSTORE POP PUSH1 0x1 ADD PUSH2 0xE3D JUMP JUMPDEST POP SWAP1 JUMP JUMPDEST PUSH1 0x0 PUSH1 0x40 MLOAD SWAP1 POP SWAP1 JUMP JUMPDEST PUSH1 0x0 DUP1 REVERT JUMPDEST PUSH1 0x0 DUP1 REVERT JUMPDEST PUSH1 0x0 DUP1 REVERT JUMPDEST PUSH1 0x0 DUP1 REVERT JUMPDEST PUSH1 0x0 PUSH1 0x1F NOT PUSH1 0x1F DUP4 ADD AND SWAP1 POP SWAP2 SWAP1 POP JUMP JUMPDEST PUSH32 0x4E487B7100000000000000000000000000000000000000000000000000000000 PUSH1 0x0 MSTORE PUSH1 0x41 PUSH1 0x4 MSTORE PUSH1 0x24 PUSH1 0x0 REVERT JUMPDEST PUSH2 0xEC0 DUP3 PUSH2 0xE77 JUMP JUMPDEST DUP2 ADD DUP2 DUP2 LT PUSH8 0xFFFFFFFFFFFFFFFF DUP3 GT OR ISZERO PUSH2 0xEDF JUMPI PUSH2 0xEDE PUSH2 0xE88 JUMP JUMPDEST JUMPDEST DUP1 PUSH1 0x40 MSTORE POP POP POP JUMP JUMPDEST PUSH1 0x0 PUSH2 0xEF2 PUSH2 0xE59 JUMP JUMPDEST SWAP1 POP PUSH2 0xEFE DUP3 DUP3 PUSH2 0xEB7 JUMP JUMPDEST SWAP2 SWAP1 POP JUMP JUMPDEST PUSH1 0x0 PUSH8 0xFFFFFFFFFFFFFFFF DUP3 GT ISZERO PUSH2 0xF1E JUMPI PUSH2 0xF1D PUSH2 0xE88 JUMP JUMPDEST JUMPDEST PUSH2 0xF27 DUP3 PUSH2 0xE77 JUMP JUMPDEST SWAP1 POP PUSH1 0x20 DUP2 ADD SWAP1 POP SWAP2 SWAP1 POP JUMP JUMPDEST DUP3 DUP2 DUP4 CALLDATACOPY PUSH1 0x0 DUP4 DUP4 ADD MSTORE POP POP POP JUMP JUMPDEST PUSH1 0x0 PUSH2 0xF56 PUSH2 0xF51 DUP5 PUSH2 0xF03 JUMP JUMPDEST PUSH2 0xEE8 JUMP JUMPDEST SWAP1 POP DUP3 DUP2 MSTORE PUSH1 0x20 DUP2 ADD DUP5 DUP5 DUP5 ADD GT ISZERO PUSH2 0xF72 JUMPI PUSH2 0xF71 PUSH2 0xE72 JUMP JUMPDEST JUMPDEST PUSH2 0xF7D DUP5 DUP3 DUP6 PUSH2 0xF34 JUMP JUMPDEST POP SWAP4 SWAP3 POP POP POP JUMP JUMPDEST PUSH1 0x0 DUP3 PUSH1 0x1F DUP4 ADD SLT PUSH2 0xF9A JUMPI PUSH2 0xF99 PUSH2 0xE6D JUMP JUMPDEST JUMPDEST DUP2 CALLDATALOAD PUSH2 0xFAA DUP5 DUP3 PUSH1 0x20 DUP7 ADD PUSH2 0xF43 JUMP JUMPDEST SWAP2 POP POP SWAP3 SWAP2 POP POP JUMP JUMPDEST PUSH1 0x0 PUSH1 0x20 DUP3 DUP5 SUB SLT ISZERO PUSH2 0xFC9 JUMPI PUSH2 0xFC8 PUSH2 0xE63 JUMP JUMPDEST JUMPDEST PUSH1 0x0 DUP3 ADD CALLDATALOAD PUSH8 0xFFFFFFFFFFFFFFFF DUP2 GT ISZERO PUSH2 0xFE7 JUMPI PUSH2 0xFE6 PUSH2 0xE68 JUMP JUMPDEST JUMPDEST PUSH2 0xFF3 DUP5 DUP3 DUP6 ADD PUSH2 0xF85 JUMP JUMPDEST SWAP2 POP POP SWAP3 SWAP2 POP POP JUMP JUMPDEST PUSH1 0x0 DUP2 MLOAD SWAP1 POP SWAP2 SWAP1 POP JUMP JUMPDEST PUSH1 0x0 DUP3 DUP3 MSTORE PUSH1 0x20 DUP3 ADD SWAP1 POP SWAP3 SWAP2 POP POP JUMP JUMPDEST PUSH1 0x0 JUMPDEST DUP4 DUP2 LT ISZERO PUSH2 0x1036 JUMPI DUP1 DUP3 ADD MLOAD DUP2 DUP5 ADD MSTORE PUSH1 0x20 DUP2 ADD SWAP1 POP PUSH2 0x101B JUMP JUMPDEST DUP4 DUP2 GT ISZERO PUSH2 0x1045 JUMPI PUSH1 0x0 DUP5 DUP5 ADD MSTORE JUMPDEST POP POP POP POP JUMP JUMPDEST PUSH1 0x0 PUSH2 0x1056 DUP3 PUSH2 0xFFC JUMP JUMPDEST PUSH2 0x1060 DUP2 DUP6 PUSH2 0x1007 JUMP JUMPDEST SWAP4 POP PUSH2 0x1070 DUP2 DUP6 PUSH1 0x20 DUP7 ADD PUSH2 0x1018 JUMP JUMPDEST PUSH2 0x1079 DUP2 PUSH2 0xE77 JUMP JUMPDEST DUP5 ADD SWAP2 POP POP SWAP3 SWAP2 POP POP JUMP JUMPDEST PUSH1 0x0 PUSH1 0x20 DUP3 ADD SWAP1 POP DUP2 DUP2 SUB PUSH1 0x0 DUP4 ADD MSTORE PUSH2 0x109E DUP2 DUP5 PUSH2 0x104B JUMP JUMPDEST SWAP1 POP SWAP3 SWAP2 POP POP JUMP JUMPDEST PUSH1 0x0 DUP2 SWAP1 POP SWAP2 SWAP1 POP JUMP JUMPDEST PUSH2 0x10B9 DUP2 PUSH2 0x10A6 JUMP JUMPDEST DUP2 EQ PUSH2 0x10C4 JUMPI PUSH1 0x0 DUP1 REVERT JUMPDEST POP JUMP JUMPDEST PUSH1 0x0 DUP2 CALLDATALOAD SWAP1 POP PUSH2 0x10D6 DUP2 PUSH2 0x10B0 JUMP JUMPDEST SWAP3 SWAP2 POP POP JUMP JUMPDEST PUSH1 0x0 PUSH1 0x20 DUP3 DUP5 SUB SLT ISZERO PUSH2 0x10F2 JUMPI PUSH2 0x10F1 PUSH2 0xE63 JUMP JUMPDEST JUMPDEST PUSH1 0x0 PUSH2 0x1100 DUP5 DUP3 DUP6 ADD PUSH2 0x10C7 JUMP JUMPDEST SWAP2 POP POP SWAP3 SWAP2 POP POP JUMP JUMPDEST PUSH1 0x0 DUP1 PUSH1 0x0 PUSH1 0x60 DUP5 DUP7 SUB SLT ISZERO PUSH2 0x1122 JUMPI PUSH2 0x1121 PUSH2 0xE63 JUMP JUMPDEST JUMPDEST PUSH1 0x0 DUP5 ADD CALLDATALOAD PUSH8 0xFFFFFFFFFFFFFFFF DUP2 GT ISZERO PUSH2 0x1140 JUMPI PUSH2 0x113F PUSH2 0xE68 JUMP JUMPDEST JUMPDEST PUSH2 0x114C DUP7 DUP3 DUP8 ADD PUSH2 0xF85 JUMP JUMPDEST SWAP4 POP POP PUSH1 0x20 DUP5 ADD CALLDATALOAD PUSH8 0xFFFFFFFFFFFFFFFF DUP2 GT ISZERO PUSH2 0x116D JUMPI PUSH2 0x116C PUSH2 0xE68 JUMP JUMPDEST JUMPDEST PUSH2 0x1179 DUP7 DUP3 DUP8 ADD PUSH2 0xF85 JUMP JUMPDEST SWAP3 POP POP PUSH1 0x40 DUP5 ADD CALLDATALOAD PUSH8 0xFFFFFFFFFFFFFFFF DUP2 GT ISZERO PUSH2 0x119A JUMPI PUSH2 0x1199 PUSH2 0xE68 JUMP JUMPDEST JUMPDEST PUSH2 0x11A6 DUP7 DUP3 DUP8 ADD PUSH2 0xF85 JUMP JUMPDEST SWAP2 POP POP SWAP3 POP SWAP3 POP SWAP3 JUMP JUMPDEST PUSH1 0x0 DUP1 PUSH1 0x40 DUP4 DUP6 SUB SLT ISZERO PUSH2 0x11C7 JUMPI PUSH2 0x11C6 PUSH2 0xE63 JUMP JUMPDEST JUMPDEST PUSH1 0x0 DUP4 ADD CALLDATALOAD PUSH8 0xFFFFFFFFFFFFFFFF DUP2 GT ISZERO PUSH2 0x11E5 JUMPI PUSH2 0x11E4 PUSH2 0xE68 JUMP JUMPDEST JUMPDEST PUSH2 0x11F1 DUP6 DUP3 DUP7 ADD PUSH2 0xF85 JUMP JUMPDEST SWAP3 POP POP PUSH1 0x20 DUP4 ADD CALLDATALOAD PUSH8 0xFFFFFFFFFFFFFFFF DUP2 GT ISZERO PUSH2 0x1212 JUMPI PUSH2 0x1211 PUSH2 0xE68 JUMP JUMPDEST JUMPDEST PUSH2 0x121E DUP6 DUP3 DUP7 ADD PUSH2 0xF85 JUMP JUMPDEST SWAP2 POP POP SWAP3 POP SWAP3 SWAP1 POP JUMP JUMPDEST PUSH1 0x0 DUP3 DUP3 MSTORE PUSH1 0x20 DUP3 ADD SWAP1 POP SWAP3 SWAP2 POP POP JUMP JUMPDEST PUSH1 0x0 PUSH2 0x1244 DUP3 PUSH2 0xFFC JUMP JUMPDEST PUSH2 0x124E DUP2 DUP6 PUSH2 0x1228 JUMP JUMPDEST SWAP4 POP PUSH2 0x125E DUP2 DUP6 PUSH1 0x20 DUP7 ADD PUSH2 0x1018 JUMP JUMPDEST PUSH2 0x1267 DUP2 PUSH2 0xE77 JUMP JUMPDEST DUP5 ADD SWAP2 POP POP SWAP3 SWAP2 POP POP JUMP JUMPDEST PUSH1 0x0 DUP2 MLOAD SWAP1 POP SWAP2 SWAP1 POP JUMP JUMPDEST PUSH1 0x0 DUP3 DUP3 MSTORE PUSH1 0x20 DUP3 ADD SWAP1 POP SWAP3 SWAP2 POP POP JUMP JUMPDEST PUSH1 0x0 DUP2 SWAP1 POP PUSH1 0x20 DUP3 ADD SWAP1 POP SWAP2 SWAP1 POP JUMP JUMPDEST PUSH2 0x12A7 DUP2 PUSH2 0x10A6 JUMP JUMPDEST DUP3 MSTORE POP POP JUMP JUMPDEST PUSH1 0x0 PUSH1 0x60 DUP4 ADD PUSH1 0x0 DUP4 ADD MLOAD DUP5 DUP3 SUB PUSH1 0x0 DUP7 ADD MSTORE PUSH2 0x12CA DUP3 DUP3 PUSH2 0x1239 JUMP JUMPDEST SWAP2 POP POP PUSH1 0x20 DUP4 ADD MLOAD DUP5 DUP3 SUB PUSH1 0x20 DUP7 ADD MSTORE PUSH2 0x12E4 DUP3 DUP3 PUSH2 0x1239 JUMP JUMPDEST SWAP2 POP POP PUSH1 0x40 DUP4 ADD MLOAD PUSH2 0x12F9 PUSH1 0x40 DUP7 ADD DUP3 PUSH2 0x129E JUMP JUMPDEST POP DUP1 SWAP2 POP POP SWAP3 SWAP2 POP POP JUMP JUMPDEST PUSH1 0x0 PUSH2 0x1310 DUP4 DUP4 PUSH2 0x12AD JUMP JUMPDEST SWAP1 POP SWAP3 SWAP2 POP POP JUMP JUMPDEST PUSH1 0x0 PUSH1 0x20 DUP3 ADD SWAP1 POP SWAP2 SWAP1 POP JUMP JUMPDEST PUSH1 0x0 PUSH2 0x1330 DUP3 PUSH2 0x1272 JUMP JUMPDEST PUSH2 0x133A DUP2 DUP6 PUSH2 0x127D JUMP JUMPDEST SWAP4 POP DUP4 PUSH1 0x20 DUP3 MUL DUP6 ADD PUSH2 0x134C DUP6 PUSH2 0x128E JUMP JUMPDEST DUP1 PUSH1 0x0 JUMPDEST DUP6 DUP2 LT ISZERO PUSH2 0x1388 JUMPI DUP5 DUP5 SUB DUP10 MSTORE DUP2 MLOAD PUSH2 0x1369 DUP6 DUP3 PUSH2 0x1304 JUMP JUMPDEST SWAP5 POP PUSH2 0x1374 DUP4 PUSH2 0x1318 JUMP JUMPDEST SWAP3 POP PUSH1 0x20 DUP11 ADD SWAP10 POP POP PUSH1 0x1 DUP2 ADD SWAP1 POP PUSH2 0x1350 JUMP JUMPDEST POP DUP3 SWAP8 POP DUP8 SWAP6 POP POP POP POP POP POP SWAP3 SWAP2 POP POP JUMP JUMPDEST PUSH1 0x0 PUSH1 0x40 DUP4 ADD PUSH1 0x0 DUP4 ADD MLOAD DUP5 DUP3 SUB PUSH1 0x0 DUP7 ADD MSTORE PUSH2 0x13B7 DUP3 DUP3 PUSH2 0x1239 JUMP JUMPDEST SWAP2 POP POP PUSH1 0x20 DUP4 ADD MLOAD DUP5 DUP3 SUB PUSH1 0x20 DUP7 ADD MSTORE PUSH2 0x13D1 DUP3 DUP3 PUSH2 0x1325 JUMP JUMPDEST SWAP2 POP POP DUP1 SWAP2 POP POP SWAP3 SWAP2 POP POP JUMP JUMPDEST PUSH1 0x0 PUSH1 0x20 DUP3 ADD SWAP1 POP DUP2 DUP2 SUB PUSH1 0x0 DUP4 ADD MSTORE PUSH2 0x13F8 DUP2 DUP5 PUSH2 0x139A JUMP JUMPDEST SWAP1 POP SWAP3 SWAP2 POP POP JUMP JUMPDEST PUSH2 0x1409 DUP2 PUSH2 0x10A6 JUMP JUMPDEST DUP3 MSTORE POP POP JUMP JUMPDEST PUSH1 0x0 PUSH1 0x20 DUP3 ADD SWAP1 POP PUSH2 0x1424 PUSH1 0x0 DUP4 ADD DUP5 PUSH2 0x1400 JUMP JUMPDEST SWAP3 SWAP2 POP POP JUMP JUMPDEST PUSH1 0x0 DUP2 MLOAD SWAP1 POP SWAP2 SWAP1 POP JUMP JUMPDEST PUSH1 0x0 DUP3 DUP3 MSTORE PUSH1 0x20 DUP3 ADD SWAP1 POP SWAP3 SWAP2 POP POP JUMP JUMPDEST PUSH1 0x0 DUP2 SWAP1 POP PUSH1 0x20 DUP3 ADD SWAP1 POP SWAP2 SWAP1 POP JUMP JUMPDEST PUSH1 0x0 PUSH2 0x1462 DUP4 DUP4 PUSH2 0x1239 JUMP JUMPDEST SWAP1 POP SWAP3 SWAP2 POP POP JUMP JUMPDEST PUSH1 0x0 PUSH1 0x20 DUP3 ADD SWAP1 POP SWAP2 SWAP1 POP JUMP JUMPDEST PUSH1 0x0 PUSH2 0x1482 DUP3 PUSH2 0x142A JUMP JUMPDEST PUSH2 0x148C DUP2 DUP6 PUSH2 0x1435 JUMP JUMPDEST SWAP4 POP DUP4 PUSH1 0x20 DUP3 MUL DUP6 ADD PUSH2 0x149E DUP6 PUSH2 0x1446 JUMP JUMPDEST DUP1 PUSH1 0x0 JUMPDEST DUP6 DUP2 LT ISZERO PUSH2 0x14DA JUMPI DUP5 DUP5 SUB DUP10 MSTORE DUP2 MLOAD PUSH2 0x14BB DUP6 DUP3 PUSH2 0x1456 JUMP JUMPDEST SWAP5 POP PUSH2 0x14C6 DUP4 PUSH2 0x146A JUMP JUMPDEST SWAP3 POP PUSH1 0x20 DUP11 ADD SWAP10 POP POP PUSH1 0x1 DUP2 ADD SWAP1 POP PUSH2 0x14A2 JUMP JUMPDEST POP DUP3 SWAP8 POP DUP8 SWAP6 POP POP POP POP POP POP SWAP3 SWAP2 POP POP JUMP JUMPDEST PUSH1 0x0 PUSH1 0x20 DUP3 ADD SWAP1 POP DUP2 DUP2 SUB PUSH1 0x0 DUP4 ADD MSTORE PUSH2 0x1506 DUP2 DUP5 PUSH2 0x1477 JUMP JUMPDEST SWAP1 POP SWAP3 SWAP2 POP POP JUMP JUMPDEST PUSH1 0x0 PUSH20 0xFFFFFFFFFFFFFFFFFFFFFFFFFFFFFFFFFFFFFFFF DUP3 AND SWAP1 POP SWAP2 SWAP1 POP JUMP JUMPDEST PUSH1 0x0 PUSH2 0x1539 DUP3 PUSH2 0x150E JUMP JUMPDEST SWAP1 POP SWAP2 SWAP1 POP JUMP JUMPDEST PUSH2 0x1549 DUP2 PUSH2 0x152E JUMP JUMPDEST DUP3 MSTORE POP POP JUMP JUMPDEST PUSH1 0x0 PUSH1 0x20 DUP3 ADD SWAP1 POP PUSH2 0x1564 PUSH1 0x0 DUP4 ADD DUP5 PUSH2 0x1540 JUMP JUMPDEST SWAP3 SWAP2 POP POP JUMP JUMPDEST PUSH32 0x4E487B7100000000000000000000000000000000000000000000000000000000 PUSH1 0x0 MSTORE PUSH1 0x22 PUSH1 0x4 MSTORE PUSH1 0x24 PUSH1 0x0 REVERT JUMPDEST PUSH1 0x0 PUSH1 0x2 DUP3 DIV SWAP1 POP PUSH1 0x1 DUP3 AND DUP1 PUSH2 0x15B1 JUMPI PUSH1 0x7F DUP3 AND SWAP2 POP JUMPDEST PUSH1 0x20 DUP3 LT DUP2 SUB PUSH2 0x15C4 JUMPI PUSH2 0x15C3 PUSH2 0x156A JUMP JUMPDEST JUMPDEST POP SWAP2 SWAP1 POP JUMP JUMPDEST PUSH32 0x4F6E6C792061646D696E2063616E20737461727420612063616D706169676E00 PUSH1 0x0 DUP3 ADD MSTORE POP JUMP JUMPDEST PUSH1 0x0 PUSH2 0x1600 PUSH1 0x1F DUP4 PUSH2 0x1007 JUMP JUMPDEST SWAP2 POP PUSH2 0x160B DUP3 PUSH2 0x15CA JUMP JUMPDEST PUSH1 0x20 DUP3 ADD SWAP1 POP SWAP2 SWAP1 POP JUMP JUMPDEST PUSH1 0x0 PUSH1 0x20 DUP3 ADD SWAP1 POP DUP2 DUP2 SUB PUSH1 0x0 DUP4 ADD MSTORE PUSH2 0x162F DUP2 PUSH2 0x15F3 JUMP JUMPDEST SWAP1 POP SWAP2 SWAP1 POP JUMP JUMPDEST PUSH1 0x0 DUP2 SWAP1 POP SWAP3 SWAP2 POP POP JUMP JUMPDEST PUSH1 0x0 PUSH2 0x164C DUP3 PUSH2 0xFFC JUMP JUMPDEST PUSH2 0x1656 DUP2 DUP6 PUSH2 0x1636 JUMP JUMPDEST SWAP4 POP PUSH2 0x1666 DUP2 DUP6 PUSH1 0x20 DUP7 ADD PUSH2 0x1018 JUMP JUMPDEST DUP1 DUP5 ADD SWAP2 POP POP SWAP3 SWAP2 POP POP JUMP JUMPDEST PUSH1 0x0 PUSH2 0x167E DUP3 DUP5 PUSH2 0x1641 JUMP JUMPDEST SWAP2 POP DUP2 SWAP1 POP SWAP3 SWAP2 POP POP JUMP JUMPDEST PUSH32 0x4E487B7100000000000000000000000000000000000000000000000000000000 PUSH1 0x0 MSTORE PUSH1 0x11 PUSH1 0x4 MSTORE PUSH1 0x24 PUSH1 0x0 REVERT JUMPDEST PUSH1 0x0 PUSH2 0x16C3 DUP3 PUSH2 0x10A6 JUMP JUMPDEST SWAP2 POP PUSH32 0xFFFFFFFFFFFFFFFFFFFFFFFFFFFFFFFFFFFFFFFFFFFFFFFFFFFFFFFFFFFFFFFF DUP3 SUB PUSH2 0x16F5 JUMPI PUSH2 0x16F4 PUSH2 0x1689 JUMP JUMPDEST JUMPDEST PUSH1 0x1 DUP3 ADD SWAP1 POP SWAP2 SWAP1 POP JUMP JUMPDEST PUSH32 0x4F6E6C792061646D696E2063616E2061646420612063616E6469646174650000 PUSH1 0x0 DUP3 ADD MSTORE POP JUMP JUMPDEST PUSH1 0x0 PUSH2 0x1736 PUSH1 0x1E DUP4 PUSH2 0x1007 JUMP JUMPDEST SWAP2 POP PUSH2 0x1741 DUP3 PUSH2 0x1700 JUMP JUMPDEST PUSH1 0x20 DUP3 ADD SWAP1 POP SWAP2 SWAP1 POP JUMP JUMPDEST PUSH1 0x0 PUSH1 0x20 DUP3 ADD SWAP1 POP DUP2 DUP2 SUB PUSH1 0x0 DUP4 ADD MSTORE PUSH2 0x1765 DUP2 PUSH2 0x1729 JUMP JUMPDEST SWAP1 POP SWAP2 SWAP1 POP JUMP JUMPDEST PUSH32 0x4E487B7100000000000000000000000000000000000000000000000000000000 PUSH1 0x0 MSTORE PUSH1 0x32 PUSH1 0x4 MSTORE PUSH1 0x24 PUSH1 0x0 REVERT JUMPDEST PUSH32 0x3131323200000000000000000000000000000000000000000000000000000000 PUSH1 0x0 DUP3 ADD MSTORE POP JUMP JUMPDEST PUSH1 0x0 PUSH2 0x17D1 PUSH1 0x4 DUP4 PUSH2 0x1636 JUMP JUMPDEST SWAP2 POP PUSH2 0x17DC DUP3 PUSH2 0x179B JUMP JUMPDEST PUSH1 0x4 DUP3 ADD SWAP1 POP SWAP2 SWAP1 POP JUMP JUMPDEST PUSH1 0x0 PUSH2 0x17F2 DUP3 PUSH2 0x17C4 JUMP JUMPDEST SWAP2 POP DUP2 SWAP1 POP SWAP2 SWAP1 POP JUMP JUMPDEST PUSH1 0x0 DUP2 SWAP1 POP DUP2 PUSH1 0x0 MSTORE PUSH1 0x20 PUSH1 0x0 KECCAK256 SWAP1 POP SWAP2 SWAP1 POP JUMP JUMPDEST PUSH1 0x0 DUP2 SLOAD PUSH2 0x181E DUP2 PUSH2 0x1599 JUMP JUMPDEST PUSH2 0x1828 DUP2 DUP7 PUSH2 0x1636 JUMP JUMPDEST SWAP5 POP PUSH1 0x1 DUP3 AND PUSH1 0x0 DUP2 EQ PUSH2 0x1843 JUMPI PUSH1 0x1 DUP2 EQ PUSH2 0x1854 JUMPI PUSH2 0x1887 JUMP JUMPDEST PUSH1 0xFF NOT DUP4 AND DUP7 MSTORE DUP2 DUP7 ADD SWAP4 POP PUSH2 0x1887 JUMP JUMPDEST PUSH2 0x185D DUP6 PUSH2 0x17FC JUMP JUMPDEST PUSH1 0x0 JUMPDEST DUP4 DUP2 LT ISZERO PUSH2 0x187F JUMPI DUP2 SLOAD DUP2 DUP10 ADD MSTORE PUSH1 0x1 DUP3 ADD SWAP2 POP PUSH1 0x20 DUP2 ADD SWAP1 POP PUSH2 0x1860 JUMP JUMPDEST DUP4 DUP9 ADD SWAP6 POP POP POP JUMPDEST POP POP POP SWAP3 SWAP2 POP POP JUMP JUMPDEST PUSH1 0x0 PUSH2 0x189C DUP3 DUP5 PUSH2 0x1811 JUMP JUMPDEST SWAP2 POP DUP2 SWAP1 POP SWAP3 SWAP2 POP POP JUMP INVALID LOG2 PUSH5 0x6970667358 0x22 SLT KECCAK256 0xEB 0xF7 CREATE SDIV LT PUSH30 0x76FDB23BA9B617F422EC44BC67A587C4B62E9DA0311CE599E2BF64736F6C PUSH4 0x4300080D STOP CALLER "
				},
				"gasEstimates": {
					"creation": {
						"codeDepositCost": "1273000",
						"executionCost": "25588",
						"totalCost": "1298588"
					},
					"external": {
						"addCampaign(string)": "infinite",
						"addCandidates(string,string,string)": "infinite",
						"admin()": "2602",
						"campaigns(string)": "infinite",
						"compaignNames(uint256)": "infinite",
						"getAllCampaigns()": "infinite",
						"getAllCompainNames()": "infinite",
						"getCandidateVotes(string,string)": "infinite",
						"getNumResult()": "381",
						"voteForCandidate(string,string)": "infinite"
					}
				},
				"methodIdentifiers": {
					"addCampaign(string)": "202e7be4",
					"addCandidates(string,string,string)": "76dc15a7",
					"admin()": "f851a440",
					"campaigns(string)": "1d39e509",
					"compaignNames(uint256)": "6f732627",
					"getAllCampaigns()": "86cdf604",
					"getAllCompainNames()": "c157b6f5",
					"getCandidateVotes(string,string)": "b7ff50fc",
					"getNumResult()": "bf80f44a",
					"voteForCandidate(string,string)": "8329ac52"
				}
			},
			"storageLayout": {
				"storage": [
					{
						"astId": 35,
						"contract": "github/fahadashiq/block-chain/smart-contracts/voting.sol:Voting",
						"label": "campaigns",
						"offset": 0,
						"slot": "0",
						"type": "t_mapping(t_string_memory_ptr,t_struct(Campaign)23_storage)"
					},
					{
						"astId": 37,
						"contract": "github/fahadashiq/block-chain/smart-contracts/voting.sol:Voting",
						"label": "numberOfCampaigns",
						"offset": 0,
						"slot": "1",
						"type": "t_uint256"
					},
					{
						"astId": 40,
						"contract": "github/fahadashiq/block-chain/smart-contracts/voting.sol:Voting",
						"label": "compaignNames",
						"offset": 0,
						"slot": "2",
						"type": "t_array(t_string_storage)dyn_storage"
					},
					{
						"astId": 42,
						"contract": "github/fahadashiq/block-chain/smart-contracts/voting.sol:Voting",
						"label": "admin",
						"offset": 0,
						"slot": "3",
						"type": "t_address"
					}
				],
				"types": {
					"t_address": {
						"encoding": "inplace",
						"label": "address",
						"numberOfBytes": "20"
					},
					"t_array(t_string_storage)dyn_storage": {
						"base": "t_string_storage",
						"encoding": "dynamic_array",
						"label": "string[]",
						"numberOfBytes": "32"
					},
					"t_array(t_struct(Candidate)30_storage)dyn_storage": {
						"base": "t_struct(Candidate)30_storage",
						"encoding": "dynamic_array",
						"label": "struct Voting.Candidate[]",
						"numberOfBytes": "32"
					},
					"t_mapping(t_string_memory_ptr,t_struct(Campaign)23_storage)": {
						"encoding": "mapping",
						"key": "t_string_memory_ptr",
						"label": "mapping(string => struct Voting.Campaign)",
						"numberOfBytes": "32",
						"value": "t_struct(Campaign)23_storage"
					},
					"t_string_memory_ptr": {
						"encoding": "bytes",
						"label": "string",
						"numberOfBytes": "32"
					},
					"t_string_storage": {
						"encoding": "bytes",
						"label": "string",
						"numberOfBytes": "32"
					},
					"t_struct(Campaign)23_storage": {
						"encoding": "inplace",
						"label": "struct Voting.Campaign",
						"members": [
							{
								"astId": 18,
								"contract": "github/fahadashiq/block-chain/smart-contracts/voting.sol:Voting",
								"label": "name",
								"offset": 0,
								"slot": "0",
								"type": "t_string_storage"
							},
							{
								"astId": 22,
								"contract": "github/fahadashiq/block-chain/smart-contracts/voting.sol:Voting",
								"label": "candidates",
								"offset": 0,
								"slot": "1",
								"type": "t_array(t_struct(Candidate)30_storage)dyn_storage"
							}
						],
						"numberOfBytes": "64"
					},
					"t_struct(Candidate)30_storage": {
						"encoding": "inplace",
						"label": "struct Voting.Candidate",
						"members": [
							{
								"astId": 25,
								"contract": "github/fahadashiq/block-chain/smart-contracts/voting.sol:Voting",
								"label": "name",
								"offset": 0,
								"slot": "0",
								"type": "t_string_storage"
							},
							{
								"astId": 27,
								"contract": "github/fahadashiq/block-chain/smart-contracts/voting.sol:Voting",
								"label": "sign",
								"offset": 0,
								"slot": "1",
								"type": "t_string_storage"
							},
							{
								"astId": 29,
								"contract": "github/fahadashiq/block-chain/smart-contracts/voting.sol:Voting",
								"label": "votes",
								"offset": 0,
								"slot": "2",
								"type": "t_uint256"
							}
						],
						"numberOfBytes": "96"
					},
					"t_uint256": {
						"encoding": "inplace",
						"label": "uint256",
						"numberOfBytes": "32"
					}
				}
			},
			"userdoc": {
				"kind": "user",
				"methods": {},
				"version": 1
			}
		}
	}
}