{
	"github/fahadashiq/block-chain/smart-contracts/voting.sol": {
		"Voting": {
			"abi": [
				{
					"inputs": [],
					"stateMutability": "nonpayable",
					"type": "constructor"
				},
				{
					"inputs": [
						{
							"internalType": "string",
							"name": "campaignName",
							"type": "string"
						}
					],
					"name": "addCampaign",
					"outputs": [],
					"stateMutability": "nonpayable",
					"type": "function"
				},
				{
					"inputs": [
						{
							"internalType": "string",
							"name": "campaignName",
							"type": "string"
						},
						{
							"internalType": "string",
							"name": "candidateName",
							"type": "string"
						},
						{
							"internalType": "string",
							"name": "candidateSign",
							"type": "string"
						}
					],
					"name": "addCandidates",
					"outputs": [],
					"stateMutability": "nonpayable",
					"type": "function"
				},
				{
					"inputs": [],
					"name": "admin",
					"outputs": [
						{
							"internalType": "address",
							"name": "",
							"type": "address"
						}
					],
					"stateMutability": "view",
					"type": "function"
				},
				{
					"inputs": [
						{
							"internalType": "string",
							"name": "",
							"type": "string"
						}
					],
					"name": "campaigns",
					"outputs": [
						{
							"internalType": "string",
							"name": "name",
							"type": "string"
						}
					],
					"stateMutability": "view",
					"type": "function"
				},
				{
					"inputs": [
						{
							"internalType": "uint256",
							"name": "",
							"type": "uint256"
						}
					],
					"name": "compaignNames",
					"outputs": [
						{
							"internalType": "string",
							"name": "",
							"type": "string"
						}
					],
					"stateMutability": "view",
					"type": "function"
				},
				{
					"inputs": [],
					"name": "getAllCampaigns",
					"outputs": [
						{
							"components": [
								{
									"internalType": "string",
									"name": "name",
									"type": "string"
								},
								{
									"components": [
										{
											"internalType": "string",
											"name": "name",
											"type": "string"
										},
										{
											"internalType": "string",
											"name": "sign",
											"type": "string"
										},
										{
											"internalType": "uint256",
											"name": "votes",
											"type": "uint256"
										}
									],
									"internalType": "struct Voting.Candidate[]",
									"name": "candidates",
									"type": "tuple[]"
								}
							],
							"internalType": "struct Voting.Campaign",
							"name": "campaign",
							"type": "tuple"
						}
					],
					"stateMutability": "view",
					"type": "function"
				},
				{
					"inputs": [],
					"name": "getAllCompainNames",
					"outputs": [
						{
							"internalType": "string[]",
							"name": "campaignNames",
							"type": "string[]"
						}
					],
					"stateMutability": "view",
					"type": "function"
				},
				{
					"inputs": [],
					"name": "getNumResult",
					"outputs": [
						{
							"internalType": "uint256",
							"name": "res",
							"type": "uint256"
						}
					],
					"stateMutability": "view",
					"type": "function"
				}
			],
			"devdoc": {
				"kind": "dev",
				"methods": {},
				"version": 1
			},
			"evm": {
				"assembly": "    /* \"github/fahadashiq/block-chain/smart-contracts/voting.sol\":109:3653  contract Voting {... */\n  mstore(0x40, 0x80)\n    /* \"github/fahadashiq/block-chain/smart-contracts/voting.sol\":853:904  constructor() {... */\n  callvalue\n  dup1\n  iszero\n  tag_1\n  jumpi\n  0x00\n  dup1\n  revert\ntag_1:\n  pop\n    /* \"github/fahadashiq/block-chain/smart-contracts/voting.sol\":886:896  msg.sender */\n  caller\n    /* \"github/fahadashiq/block-chain/smart-contracts/voting.sol\":878:883  admin */\n  0x03\n  0x00\n    /* \"github/fahadashiq/block-chain/smart-contracts/voting.sol\":878:896  admin = msg.sender */\n  0x0100\n  exp\n  dup2\n  sload\n  dup2\n  0xffffffffffffffffffffffffffffffffffffffff\n  mul\n  not\n  and\n  swap1\n  dup4\n  0xffffffffffffffffffffffffffffffffffffffff\n  and\n  mul\n  or\n  swap1\n  sstore\n  pop\n    /* \"github/fahadashiq/block-chain/smart-contracts/voting.sol\":109:3653  contract Voting {... */\n  dataSize(sub_0)\n  dup1\n  dataOffset(sub_0)\n  0x00\n  codecopy\n  0x00\n  return\nstop\n\nsub_0: assembly {\n        /* \"github/fahadashiq/block-chain/smart-contracts/voting.sol\":109:3653  contract Voting {... */\n      mstore(0x40, 0x80)\n      callvalue\n      dup1\n      iszero\n      tag_1\n      jumpi\n      0x00\n      dup1\n      revert\n    tag_1:\n      pop\n      jumpi(tag_2, lt(calldatasize, 0x04))\n      shr(0xe0, calldataload(0x00))\n      dup1\n      0x86cdf604\n      gt\n      tag_11\n      jumpi\n      dup1\n      0x86cdf604\n      eq\n      tag_7\n      jumpi\n      dup1\n      0xbf80f44a\n      eq\n      tag_8\n      jumpi\n      dup1\n      0xc157b6f5\n      eq\n      tag_9\n      jumpi\n      dup1\n      0xf851a440\n      eq\n      tag_10\n      jumpi\n      jump(tag_2)\n    tag_11:\n      dup1\n      0x1d39e509\n      eq\n      tag_3\n      jumpi\n      dup1\n      0x202e7be4\n      eq\n      tag_4\n      jumpi\n      dup1\n      0x6f732627\n      eq\n      tag_5\n      jumpi\n      dup1\n      0x76dc15a7\n      eq\n      tag_6\n      jumpi\n    tag_2:\n      0x00\n      dup1\n      revert\n        /* \"github/fahadashiq/block-chain/smart-contracts/voting.sol\":654:698  mapping(string => Campaign) public campaigns */\n    tag_3:\n      tag_12\n      0x04\n      dup1\n      calldatasize\n      sub\n      dup2\n      add\n      swap1\n      tag_13\n      swap2\n      swap1\n      tag_14\n      jump\t// in\n    tag_13:\n      tag_15\n      jump\t// in\n    tag_12:\n      mload(0x40)\n      tag_16\n      swap2\n      swap1\n      tag_17\n      jump\t// in\n    tag_16:\n      mload(0x40)\n      dup1\n      swap2\n      sub\n      swap1\n      return\n        /* \"github/fahadashiq/block-chain/smart-contracts/voting.sol\":912:2017  function addCampaign(string memory campaignName) public {... */\n    tag_4:\n      tag_18\n      0x04\n      dup1\n      calldatasize\n      sub\n      dup2\n      add\n      swap1\n      tag_19\n      swap2\n      swap1\n      tag_14\n      jump\t// in\n    tag_19:\n      tag_20\n      jump\t// in\n    tag_18:\n      stop\n        /* \"github/fahadashiq/block-chain/smart-contracts/voting.sol\":786:815  string[] public compaignNames */\n    tag_5:\n      tag_21\n      0x04\n      dup1\n      calldatasize\n      sub\n      dup2\n      add\n      swap1\n      tag_22\n      swap2\n      swap1\n      tag_23\n      jump\t// in\n    tag_22:\n      tag_24\n      jump\t// in\n    tag_21:\n      mload(0x40)\n      tag_25\n      swap2\n      swap1\n      tag_17\n      jump\t// in\n    tag_25:\n      mload(0x40)\n      dup1\n      swap2\n      sub\n      swap1\n      return\n        /* \"github/fahadashiq/block-chain/smart-contracts/voting.sol\":2025:2323  function addCandidates( string memory campaignName, string memory candidateName, string memory candidateSign) public {... */\n    tag_6:\n      tag_26\n      0x04\n      dup1\n      calldatasize\n      sub\n      dup2\n      add\n      swap1\n      tag_27\n      swap2\n      swap1\n      tag_28\n      jump\t// in\n    tag_27:\n      tag_29\n      jump\t// in\n    tag_26:\n      stop\n        /* \"github/fahadashiq/block-chain/smart-contracts/voting.sol\":2332:2446  function getAllCampaigns()public view returns(Campaign memory campaign){... */\n    tag_7:\n      tag_30\n      tag_31\n      jump\t// in\n    tag_30:\n      mload(0x40)\n      tag_32\n      swap2\n      swap1\n      tag_33\n      jump\t// in\n    tag_32:\n      mload(0x40)\n      dup1\n      swap2\n      sub\n      swap1\n      return\n        /* \"github/fahadashiq/block-chain/smart-contracts/voting.sol\":2786:2872  function getNumResult() public view returns (uint res) {... */\n    tag_8:\n      tag_34\n      tag_35\n      jump\t// in\n    tag_34:\n      mload(0x40)\n      tag_36\n      swap2\n      swap1\n      tag_37\n      jump\t// in\n    tag_36:\n      mload(0x40)\n      dup1\n      swap2\n      sub\n      swap1\n      return\n        /* \"github/fahadashiq/block-chain/smart-contracts/voting.sol\":2454:2775  function getAllCompainNames() public view returns (string[] memory campaignNames) {... */\n    tag_9:\n      tag_38\n      tag_39\n      jump\t// in\n    tag_38:\n      mload(0x40)\n      tag_40\n      swap2\n      swap1\n      tag_41\n      jump\t// in\n    tag_40:\n      mload(0x40)\n      dup1\n      swap2\n      sub\n      swap1\n      return\n        /* \"github/fahadashiq/block-chain/smart-contracts/voting.sol\":824:844  address public admin */\n    tag_10:\n      tag_42\n      tag_43\n      jump\t// in\n    tag_42:\n      mload(0x40)\n      tag_44\n      swap2\n      swap1\n      tag_45\n      jump\t// in\n    tag_44:\n      mload(0x40)\n      dup1\n      swap2\n      sub\n      swap1\n      return\n        /* \"github/fahadashiq/block-chain/smart-contracts/voting.sol\":654:698  mapping(string => Campaign) public campaigns */\n    tag_15:\n      0x00\n      dup2\n      dup1\n      mload\n      0x20\n      dup2\n      add\n      dup3\n      add\n      dup1\n      mload\n      dup5\n      dup3\n      mstore\n      0x20\n      dup4\n      add\n      0x20\n      dup6\n      add\n      keccak256\n      dup2\n      dup4\n      mstore\n      dup1\n      swap6\n      pop\n      pop\n      pop\n      pop\n      pop\n      pop\n      0x00\n      swap2\n      pop\n      swap1\n      pop\n      dup1\n      0x00\n      add\n      dup1\n      sload\n      tag_46\n      swap1\n      tag_47\n      jump\t// in\n    tag_46:\n      dup1\n      0x1f\n      add\n      0x20\n      dup1\n      swap2\n      div\n      mul\n      0x20\n      add\n      mload(0x40)\n      swap1\n      dup2\n      add\n      0x40\n      mstore\n      dup1\n      swap3\n      swap2\n      swap1\n      dup2\n      dup2\n      mstore\n      0x20\n      add\n      dup3\n      dup1\n      sload\n      tag_48\n      swap1\n      tag_47\n      jump\t// in\n    tag_48:\n      dup1\n      iszero\n      tag_49\n      jumpi\n      dup1\n      0x1f\n      lt\n      tag_50\n      jumpi\n      0x0100\n      dup1\n      dup4\n      sload\n      div\n      mul\n      dup4\n      mstore\n      swap2\n      0x20\n      add\n      swap2\n      jump(tag_49)\n    tag_50:\n      dup3\n      add\n      swap2\n      swap1\n      0x00\n      mstore\n      keccak256(0x00, 0x20)\n      swap1\n    tag_51:\n      dup2\n      sload\n      dup2\n      mstore\n      swap1\n      0x01\n      add\n      swap1\n      0x20\n      add\n      dup1\n      dup4\n      gt\n      tag_51\n      jumpi\n      dup3\n      swap1\n      sub\n      0x1f\n      and\n      dup3\n      add\n      swap2\n    tag_49:\n      pop\n      pop\n      pop\n      pop\n      pop\n      swap1\n      pop\n      dup2\n      jump\t// out\n        /* \"github/fahadashiq/block-chain/smart-contracts/voting.sol\":912:2017  function addCampaign(string memory campaignName) public {... */\n    tag_20:\n        /* \"github/fahadashiq/block-chain/smart-contracts/voting.sol\":1001:1006  admin */\n      0x03\n      0x00\n      swap1\n      sload\n      swap1\n      0x0100\n      exp\n      swap1\n      div\n      0xffffffffffffffffffffffffffffffffffffffff\n      and\n        /* \"github/fahadashiq/block-chain/smart-contracts/voting.sol\":987:1006  msg.sender == admin */\n      0xffffffffffffffffffffffffffffffffffffffff\n      and\n        /* \"github/fahadashiq/block-chain/smart-contracts/voting.sol\":987:997  msg.sender */\n      caller\n        /* \"github/fahadashiq/block-chain/smart-contracts/voting.sol\":987:1006  msg.sender == admin */\n      0xffffffffffffffffffffffffffffffffffffffff\n      and\n      eq\n        /* \"github/fahadashiq/block-chain/smart-contracts/voting.sol\":979:1042  require(msg.sender == admin, 'Only admin can start a campaign') */\n      tag_53\n      jumpi\n      mload(0x40)\n      0x08c379a000000000000000000000000000000000000000000000000000000000\n      dup2\n      mstore\n      0x04\n      add\n      tag_54\n      swap1\n      tag_55\n      jump\t// in\n    tag_54:\n      mload(0x40)\n      dup1\n      swap2\n      sub\n      swap1\n      revert\n    tag_53:\n        /* \"github/fahadashiq/block-chain/smart-contracts/voting.sol\":1446:1467  Campaign storage comp */\n      0x00\n        /* \"github/fahadashiq/block-chain/smart-contracts/voting.sol\":1470:1479  campaigns */\n      dup1\n        /* \"github/fahadashiq/block-chain/smart-contracts/voting.sol\":1480:1492  campaignName */\n      dup3\n        /* \"github/fahadashiq/block-chain/smart-contracts/voting.sol\":1470:1493  campaigns[campaignName] */\n      mload(0x40)\n      tag_56\n      swap2\n      swap1\n      tag_57\n      jump\t// in\n    tag_56:\n      swap1\n      dup2\n      mstore\n      0x20\n      add\n      mload(0x40)\n      dup1\n      swap2\n      sub\n      swap1\n      keccak256\n        /* \"github/fahadashiq/block-chain/smart-contracts/voting.sol\":1446:1493  Campaign storage comp = campaigns[campaignName] */\n      swap1\n      pop\n        /* \"github/fahadashiq/block-chain/smart-contracts/voting.sol\":1516:1528  campaignName */\n      dup2\n        /* \"github/fahadashiq/block-chain/smart-contracts/voting.sol\":1504:1508  comp */\n      dup2\n        /* \"github/fahadashiq/block-chain/smart-contracts/voting.sol\":1504:1513  comp.name */\n      0x00\n      add\n        /* \"github/fahadashiq/block-chain/smart-contracts/voting.sol\":1504:1528  comp.name = campaignName */\n      swap1\n      dup1\n      mload\n      swap1\n      0x20\n      add\n      swap1\n      tag_58\n      swap3\n      swap2\n      swap1\n      tag_59\n      jump\t// in\n    tag_58:\n      pop\n        /* \"github/fahadashiq/block-chain/smart-contracts/voting.sol\":1678:1695  numberOfCampaigns */\n      0x01\n      0x00\n        /* \"github/fahadashiq/block-chain/smart-contracts/voting.sol\":1678:1697  numberOfCampaigns++ */\n      dup2\n      sload\n      dup1\n      swap3\n      swap2\n      swap1\n      tag_60\n      swap1\n      tag_61\n      jump\t// in\n    tag_60:\n      swap2\n      swap1\n      pop\n      sstore\n      pop\n        /* \"github/fahadashiq/block-chain/smart-contracts/voting.sol\":1708:1721  compaignNames */\n      0x02\n        /* \"github/fahadashiq/block-chain/smart-contracts/voting.sol\":1727:1739  campaignName */\n      dup3\n        /* \"github/fahadashiq/block-chain/smart-contracts/voting.sol\":1708:1740  compaignNames.push(campaignName) */\n      swap1\n      dup1\n      0x01\n      dup2\n      sload\n      add\n      dup1\n      dup3\n      sstore\n      dup1\n      swap2\n      pop\n      pop\n      0x01\n      swap1\n      sub\n      swap1\n      0x00\n      mstore\n      keccak256(0x00, 0x20)\n      add\n      0x00\n      swap1\n      swap2\n      swap1\n      swap2\n      swap1\n      swap2\n      pop\n      swap1\n      dup1\n      mload\n      swap1\n      0x20\n      add\n      swap1\n      tag_63\n      swap3\n      swap2\n      swap1\n      tag_59\n      jump\t// in\n    tag_63:\n      pop\n        /* \"github/fahadashiq/block-chain/smart-contracts/voting.sol\":968:2017  {... */\n      pop\n        /* \"github/fahadashiq/block-chain/smart-contracts/voting.sol\":912:2017  function addCampaign(string memory campaignName) public {... */\n      pop\n      jump\t// out\n        /* \"github/fahadashiq/block-chain/smart-contracts/voting.sol\":786:815  string[] public compaignNames */\n    tag_24:\n      0x02\n      dup2\n      dup2\n      sload\n      dup2\n      lt\n      tag_64\n      jumpi\n      0x00\n      dup1\n      revert\n    tag_64:\n      swap1\n      0x00\n      mstore\n      keccak256(0x00, 0x20)\n      add\n      0x00\n      swap2\n      pop\n      swap1\n      pop\n      dup1\n      sload\n      tag_66\n      swap1\n      tag_47\n      jump\t// in\n    tag_66:\n      dup1\n      0x1f\n      add\n      0x20\n      dup1\n      swap2\n      div\n      mul\n      0x20\n      add\n      mload(0x40)\n      swap1\n      dup2\n      add\n      0x40\n      mstore\n      dup1\n      swap3\n      swap2\n      swap1\n      dup2\n      dup2\n      mstore\n      0x20\n      add\n      dup3\n      dup1\n      sload\n      tag_67\n      swap1\n      tag_47\n      jump\t// in\n    tag_67:\n      dup1\n      iszero\n      tag_68\n      jumpi\n      dup1\n      0x1f\n      lt\n      tag_69\n      jumpi\n      0x0100\n      dup1\n      dup4\n      sload\n      div\n      mul\n      dup4\n      mstore\n      swap2\n      0x20\n      add\n      swap2\n      jump(tag_68)\n    tag_69:\n      dup3\n      add\n      swap2\n      swap1\n      0x00\n      mstore\n      keccak256(0x00, 0x20)\n      swap1\n    tag_70:\n      dup2\n      sload\n      dup2\n      mstore\n      swap1\n      0x01\n      add\n      swap1\n      0x20\n      add\n      dup1\n      dup4\n      gt\n      tag_70\n      jumpi\n      dup3\n      swap1\n      sub\n      0x1f\n      and\n      dup3\n      add\n      swap2\n    tag_68:\n      pop\n      pop\n      pop\n      pop\n      pop\n      dup2\n      jump\t// out\n        /* \"github/fahadashiq/block-chain/smart-contracts/voting.sol\":2025:2323  function addCandidates( string memory campaignName, string memory candidateName, string memory candidateSign) public {... */\n    tag_29:\n        /* \"github/fahadashiq/block-chain/smart-contracts/voting.sol\":2175:2180  admin */\n      0x03\n      0x00\n      swap1\n      sload\n      swap1\n      0x0100\n      exp\n      swap1\n      div\n      0xffffffffffffffffffffffffffffffffffffffff\n      and\n        /* \"github/fahadashiq/block-chain/smart-contracts/voting.sol\":2161:2180  msg.sender == admin */\n      0xffffffffffffffffffffffffffffffffffffffff\n      and\n        /* \"github/fahadashiq/block-chain/smart-contracts/voting.sol\":2161:2171  msg.sender */\n      caller\n        /* \"github/fahadashiq/block-chain/smart-contracts/voting.sol\":2161:2180  msg.sender == admin */\n      0xffffffffffffffffffffffffffffffffffffffff\n      and\n      eq\n        /* \"github/fahadashiq/block-chain/smart-contracts/voting.sol\":2153:2215  require(msg.sender == admin, 'Only admin can add a candidate') */\n      tag_72\n      jumpi\n      mload(0x40)\n      0x08c379a000000000000000000000000000000000000000000000000000000000\n      dup2\n      mstore\n      0x04\n      add\n      tag_73\n      swap1\n      tag_74\n      jump\t// in\n    tag_73:\n      mload(0x40)\n      dup1\n      swap2\n      sub\n      swap1\n      revert\n    tag_72:\n        /* \"github/fahadashiq/block-chain/smart-contracts/voting.sol\":2226:2235  campaigns */\n      0x00\n        /* \"github/fahadashiq/block-chain/smart-contracts/voting.sol\":2236:2248  campaignName */\n      dup4\n        /* \"github/fahadashiq/block-chain/smart-contracts/voting.sol\":2226:2249  campaigns[campaignName] */\n      mload(0x40)\n      tag_75\n      swap2\n      swap1\n      tag_57\n      jump\t// in\n    tag_75:\n      swap1\n      dup2\n      mstore\n      0x20\n      add\n      mload(0x40)\n      dup1\n      swap2\n      sub\n      swap1\n      keccak256\n        /* \"github/fahadashiq/block-chain/smart-contracts/voting.sol\":2226:2260  campaigns[campaignName].candidates */\n      0x01\n      add\n        /* \"github/fahadashiq/block-chain/smart-contracts/voting.sol\":2266:2308  Candidate(candidateName, candidateSign, 0) */\n      mload(0x40)\n      dup1\n      0x60\n      add\n      0x40\n      mstore\n      dup1\n        /* \"github/fahadashiq/block-chain/smart-contracts/voting.sol\":2276:2289  candidateName */\n      dup5\n        /* \"github/fahadashiq/block-chain/smart-contracts/voting.sol\":2266:2308  Candidate(candidateName, candidateSign, 0) */\n      dup2\n      mstore\n      0x20\n      add\n        /* \"github/fahadashiq/block-chain/smart-contracts/voting.sol\":2291:2304  candidateSign */\n      dup4\n        /* \"github/fahadashiq/block-chain/smart-contracts/voting.sol\":2266:2308  Candidate(candidateName, candidateSign, 0) */\n      dup2\n      mstore\n      0x20\n      add\n        /* \"github/fahadashiq/block-chain/smart-contracts/voting.sol\":2306:2307  0 */\n      0x00\n        /* \"github/fahadashiq/block-chain/smart-contracts/voting.sol\":2266:2308  Candidate(candidateName, candidateSign, 0) */\n      dup2\n      mstore\n      pop\n        /* \"github/fahadashiq/block-chain/smart-contracts/voting.sol\":2226:2309  campaigns[campaignName].candidates.push(Candidate(candidateName, candidateSign, 0)) */\n      swap1\n      dup1\n      0x01\n      dup2\n      sload\n      add\n      dup1\n      dup3\n      sstore\n      dup1\n      swap2\n      pop\n      pop\n      0x01\n      swap1\n      sub\n      swap1\n      0x00\n      mstore\n      keccak256(0x00, 0x20)\n      swap1\n      0x03\n      mul\n      add\n      0x00\n      swap1\n      swap2\n      swap1\n      swap2\n      swap1\n      swap2\n      pop\n      0x00\n      dup3\n      add\n      mload\n      dup2\n      0x00\n      add\n      swap1\n      dup1\n      mload\n      swap1\n      0x20\n      add\n      swap1\n      tag_77\n      swap3\n      swap2\n      swap1\n      tag_59\n      jump\t// in\n    tag_77:\n      pop\n      0x20\n      dup3\n      add\n      mload\n      dup2\n      0x01\n      add\n      swap1\n      dup1\n      mload\n      swap1\n      0x20\n      add\n      swap1\n      tag_78\n      swap3\n      swap2\n      swap1\n      tag_59\n      jump\t// in\n    tag_78:\n      pop\n      0x40\n      dup3\n      add\n      mload\n      dup2\n      0x02\n      add\n      sstore\n      pop\n      pop\n        /* \"github/fahadashiq/block-chain/smart-contracts/voting.sol\":2025:2323  function addCandidates( string memory campaignName, string memory candidateName, string memory candidateSign) public {... */\n      pop\n      pop\n      pop\n      jump\t// out\n        /* \"github/fahadashiq/block-chain/smart-contracts/voting.sol\":2332:2446  function getAllCampaigns()public view returns(Campaign memory campaign){... */\n    tag_31:\n        /* \"github/fahadashiq/block-chain/smart-contracts/voting.sol\":2378:2402  Campaign memory campaign */\n      tag_79\n      tag_80\n      jump\t// in\n    tag_79:\n        /* \"github/fahadashiq/block-chain/smart-contracts/voting.sol\":2421:2430  campaigns */\n      0x00\n        /* \"github/fahadashiq/block-chain/smart-contracts/voting.sol\":2421:2438  campaigns['1122'] */\n      mload(0x40)\n      tag_82\n      swap1\n      tag_83\n      jump\t// in\n    tag_82:\n      swap1\n      dup2\n      mstore\n      0x20\n      add\n      mload(0x40)\n      dup1\n      swap2\n      sub\n      swap1\n      keccak256\n        /* \"github/fahadashiq/block-chain/smart-contracts/voting.sol\":2414:2438  return campaigns['1122'] */\n      mload(0x40)\n      dup1\n      0x40\n      add\n      0x40\n      mstore\n      swap1\n      dup2\n      0x00\n      dup3\n      add\n      dup1\n      sload\n      tag_84\n      swap1\n      tag_47\n      jump\t// in\n    tag_84:\n      dup1\n      0x1f\n      add\n      0x20\n      dup1\n      swap2\n      div\n      mul\n      0x20\n      add\n      mload(0x40)\n      swap1\n      dup2\n      add\n      0x40\n      mstore\n      dup1\n      swap3\n      swap2\n      swap1\n      dup2\n      dup2\n      mstore\n      0x20\n      add\n      dup3\n      dup1\n      sload\n      tag_85\n      swap1\n      tag_47\n      jump\t// in\n    tag_85:\n      dup1\n      iszero\n      tag_86\n      jumpi\n      dup1\n      0x1f\n      lt\n      tag_87\n      jumpi\n      0x0100\n      dup1\n      dup4\n      sload\n      div\n      mul\n      dup4\n      mstore\n      swap2\n      0x20\n      add\n      swap2\n      jump(tag_86)\n    tag_87:\n      dup3\n      add\n      swap2\n      swap1\n      0x00\n      mstore\n      keccak256(0x00, 0x20)\n      swap1\n    tag_88:\n      dup2\n      sload\n      dup2\n      mstore\n      swap1\n      0x01\n      add\n      swap1\n      0x20\n      add\n      dup1\n      dup4\n      gt\n      tag_88\n      jumpi\n      dup3\n      swap1\n      sub\n      0x1f\n      and\n      dup3\n      add\n      swap2\n    tag_86:\n      pop\n      pop\n      pop\n      pop\n      pop\n      dup2\n      mstore\n      0x20\n      add\n      0x01\n      dup3\n      add\n      dup1\n      sload\n      dup1\n      0x20\n      mul\n      0x20\n      add\n      mload(0x40)\n      swap1\n      dup2\n      add\n      0x40\n      mstore\n      dup1\n      swap3\n      swap2\n      swap1\n      dup2\n      dup2\n      mstore\n      0x20\n      add\n      0x00\n      swap1\n    tag_89:\n      dup3\n      dup3\n      lt\n      iszero\n      tag_90\n      jumpi\n      dup4\n      dup3\n      swap1\n      0x00\n      mstore\n      keccak256(0x00, 0x20)\n      swap1\n      0x03\n      mul\n      add\n      mload(0x40)\n      dup1\n      0x60\n      add\n      0x40\n      mstore\n      swap1\n      dup2\n      0x00\n      dup3\n      add\n      dup1\n      sload\n      tag_92\n      swap1\n      tag_47\n      jump\t// in\n    tag_92:\n      dup1\n      0x1f\n      add\n      0x20\n      dup1\n      swap2\n      div\n      mul\n      0x20\n      add\n      mload(0x40)\n      swap1\n      dup2\n      add\n      0x40\n      mstore\n      dup1\n      swap3\n      swap2\n      swap1\n      dup2\n      dup2\n      mstore\n      0x20\n      add\n      dup3\n      dup1\n      sload\n      tag_93\n      swap1\n      tag_47\n      jump\t// in\n    tag_93:\n      dup1\n      iszero\n      tag_94\n      jumpi\n      dup1\n      0x1f\n      lt\n      tag_95\n      jumpi\n      0x0100\n      dup1\n      dup4\n      sload\n      div\n      mul\n      dup4\n      mstore\n      swap2\n      0x20\n      add\n      swap2\n      jump(tag_94)\n    tag_95:\n      dup3\n      add\n      swap2\n      swap1\n      0x00\n      mstore\n      keccak256(0x00, 0x20)\n      swap1\n    tag_96:\n      dup2\n      sload\n      dup2\n      mstore\n      swap1\n      0x01\n      add\n      swap1\n      0x20\n      add\n      dup1\n      dup4\n      gt\n      tag_96\n      jumpi\n      dup3\n      swap1\n      sub\n      0x1f\n      and\n      dup3\n      add\n      swap2\n    tag_94:\n      pop\n      pop\n      pop\n      pop\n      pop\n      dup2\n      mstore\n      0x20\n      add\n      0x01\n      dup3\n      add\n      dup1\n      sload\n      tag_97\n      swap1\n      tag_47\n      jump\t// in\n    tag_97:\n      dup1\n      0x1f\n      add\n      0x20\n      dup1\n      swap2\n      div\n      mul\n      0x20\n      add\n      mload(0x40)\n      swap1\n      dup2\n      add\n      0x40\n      mstore\n      dup1\n      swap3\n      swap2\n      swap1\n      dup2\n      dup2\n      mstore\n      0x20\n      add\n      dup3\n      dup1\n      sload\n      tag_98\n      swap1\n      tag_47\n      jump\t// in\n    tag_98:\n      dup1\n      iszero\n      tag_99\n      jumpi\n      dup1\n      0x1f\n      lt\n      tag_100\n      jumpi\n      0x0100\n      dup1\n      dup4\n      sload\n      div\n      mul\n      dup4\n      mstore\n      swap2\n      0x20\n      add\n      swap2\n      jump(tag_99)\n    tag_100:\n      dup3\n      add\n      swap2\n      swap1\n      0x00\n      mstore\n      keccak256(0x00, 0x20)\n      swap1\n    tag_101:\n      dup2\n      sload\n      dup2\n      mstore\n      swap1\n      0x01\n      add\n      swap1\n      0x20\n      add\n      dup1\n      dup4\n      gt\n      tag_101\n      jumpi\n      dup3\n      swap1\n      sub\n      0x1f\n      and\n      dup3\n      add\n      swap2\n    tag_99:\n      pop\n      pop\n      pop\n      pop\n      pop\n      dup2\n      mstore\n      0x20\n      add\n      0x02\n      dup3\n      add\n      sload\n      dup2\n      mstore\n      pop\n      pop\n      dup2\n      mstore\n      0x20\n      add\n      swap1\n      0x01\n      add\n      swap1\n      jump(tag_89)\n    tag_90:\n      pop\n      pop\n      pop\n      pop\n      dup2\n      mstore\n      pop\n      pop\n      swap1\n      pop\n        /* \"github/fahadashiq/block-chain/smart-contracts/voting.sol\":2332:2446  function getAllCampaigns()public view returns(Campaign memory campaign){... */\n      swap1\n      jump\t// out\n        /* \"github/fahadashiq/block-chain/smart-contracts/voting.sol\":2786:2872  function getNumResult() public view returns (uint res) {... */\n    tag_35:\n        /* \"github/fahadashiq/block-chain/smart-contracts/voting.sol\":2831:2839  uint res */\n      0x00\n        /* \"github/fahadashiq/block-chain/smart-contracts/voting.sol\":2860:2863  123 */\n      0x7b\n        /* \"github/fahadashiq/block-chain/smart-contracts/voting.sol\":2853:2863  return 123 */\n      swap1\n      pop\n        /* \"github/fahadashiq/block-chain/smart-contracts/voting.sol\":2786:2872  function getNumResult() public view returns (uint res) {... */\n      swap1\n      jump\t// out\n        /* \"github/fahadashiq/block-chain/smart-contracts/voting.sol\":2454:2775  function getAllCompainNames() public view returns (string[] memory campaignNames) {... */\n    tag_39:\n        /* \"github/fahadashiq/block-chain/smart-contracts/voting.sol\":2505:2534  string[] memory campaignNames */\n      0x60\n        /* \"github/fahadashiq/block-chain/smart-contracts/voting.sol\":2547:2574  string[] memory memoryArray */\n      0x00\n        /* \"github/fahadashiq/block-chain/smart-contracts/voting.sol\":2590:2607  numberOfCampaigns */\n      sload(0x01)\n        /* \"github/fahadashiq/block-chain/smart-contracts/voting.sol\":2577:2608  new string[](numberOfCampaigns) */\n      0xffffffffffffffff\n      dup2\n      gt\n      iszero\n      tag_104\n      jumpi\n      tag_105\n      tag_106\n      jump\t// in\n    tag_105:\n    tag_104:\n      mload(0x40)\n      swap1\n      dup1\n      dup3\n      mstore\n      dup1\n      0x20\n      mul\n      0x20\n      add\n      dup3\n      add\n      0x40\n      mstore\n      dup1\n      iszero\n      tag_107\n      jumpi\n      dup2\n      0x20\n      add\n    tag_108:\n      0x60\n      dup2\n      mstore\n      0x20\n      add\n      swap1\n      0x01\n      swap1\n      sub\n      swap1\n      dup2\n      tag_108\n      jumpi\n      swap1\n      pop\n    tag_107:\n      pop\n        /* \"github/fahadashiq/block-chain/smart-contracts/voting.sol\":2547:2608  string[] memory memoryArray = new string[](numberOfCampaigns) */\n      swap1\n      pop\n        /* \"github/fahadashiq/block-chain/smart-contracts/voting.sol\":2623:2629  uint i */\n      0x00\n        /* \"github/fahadashiq/block-chain/smart-contracts/voting.sol\":2619:2739  for(uint i = 0; i < numberOfCampaigns; i++) {... */\n    tag_109:\n        /* \"github/fahadashiq/block-chain/smart-contracts/voting.sol\":2639:2656  numberOfCampaigns */\n      sload(0x01)\n        /* \"github/fahadashiq/block-chain/smart-contracts/voting.sol\":2635:2636  i */\n      dup2\n        /* \"github/fahadashiq/block-chain/smart-contracts/voting.sol\":2635:2656  i < numberOfCampaigns */\n      lt\n        /* \"github/fahadashiq/block-chain/smart-contracts/voting.sol\":2619:2739  for(uint i = 0; i < numberOfCampaigns; i++) {... */\n      iszero\n      tag_110\n      jumpi\n        /* \"github/fahadashiq/block-chain/smart-contracts/voting.sol\":2695:2704  campaigns */\n      0x00\n        /* \"github/fahadashiq/block-chain/smart-contracts/voting.sol\":2705:2718  compaignNames */\n      0x02\n        /* \"github/fahadashiq/block-chain/smart-contracts/voting.sol\":2719:2720  i */\n      dup3\n        /* \"github/fahadashiq/block-chain/smart-contracts/voting.sol\":2705:2721  compaignNames[i] */\n      dup2\n      sload\n      dup2\n      lt\n      tag_112\n      jumpi\n      tag_113\n      tag_114\n      jump\t// in\n    tag_113:\n    tag_112:\n      swap1\n      0x00\n      mstore\n      keccak256(0x00, 0x20)\n      add\n        /* \"github/fahadashiq/block-chain/smart-contracts/voting.sol\":2695:2722  campaigns[compaignNames[i]] */\n      mload(0x40)\n      tag_116\n      swap2\n      swap1\n      tag_117\n      jump\t// in\n    tag_116:\n      swap1\n      dup2\n      mstore\n      0x20\n      add\n      mload(0x40)\n      dup1\n      swap2\n      sub\n      swap1\n      keccak256\n        /* \"github/fahadashiq/block-chain/smart-contracts/voting.sol\":2695:2727  campaigns[compaignNames[i]].name */\n      0x00\n      add\n        /* \"github/fahadashiq/block-chain/smart-contracts/voting.sol\":2678:2727  memoryArray[i] = campaigns[compaignNames[i]].name */\n      dup1\n      sload\n      tag_118\n      swap1\n      tag_47\n      jump\t// in\n    tag_118:\n      dup1\n      0x1f\n      add\n      0x20\n      dup1\n      swap2\n      div\n      mul\n      0x20\n      add\n      mload(0x40)\n      swap1\n      dup2\n      add\n      0x40\n      mstore\n      dup1\n      swap3\n      swap2\n      swap1\n      dup2\n      dup2\n      mstore\n      0x20\n      add\n      dup3\n      dup1\n      sload\n      tag_119\n      swap1\n      tag_47\n      jump\t// in\n    tag_119:\n      dup1\n      iszero\n      tag_120\n      jumpi\n      dup1\n      0x1f\n      lt\n      tag_121\n      jumpi\n      0x0100\n      dup1\n      dup4\n      sload\n      div\n      mul\n      dup4\n      mstore\n      swap2\n      0x20\n      add\n      swap2\n      jump(tag_120)\n    tag_121:\n      dup3\n      add\n      swap2\n      swap1\n      0x00\n      mstore\n      keccak256(0x00, 0x20)\n      swap1\n    tag_122:\n      dup2\n      sload\n      dup2\n      mstore\n      swap1\n      0x01\n      add\n      swap1\n      0x20\n      add\n      dup1\n      dup4\n      gt\n      tag_122\n      jumpi\n      dup3\n      swap1\n      sub\n      0x1f\n      and\n      dup3\n      add\n      swap2\n    tag_120:\n      pop\n      pop\n      pop\n      pop\n      pop\n        /* \"github/fahadashiq/block-chain/smart-contracts/voting.sol\":2678:2689  memoryArray */\n      dup3\n        /* \"github/fahadashiq/block-chain/smart-contracts/voting.sol\":2690:2691  i */\n      dup3\n        /* \"github/fahadashiq/block-chain/smart-contracts/voting.sol\":2678:2692  memoryArray[i] */\n      dup2\n      mload\n      dup2\n      lt\n      tag_123\n      jumpi\n      tag_124\n      tag_114\n      jump\t// in\n    tag_124:\n    tag_123:\n      0x20\n      mul\n      0x20\n      add\n      add\n        /* \"github/fahadashiq/block-chain/smart-contracts/voting.sol\":2678:2727  memoryArray[i] = campaigns[compaignNames[i]].name */\n      dup2\n      swap1\n      mstore\n      pop\n        /* \"github/fahadashiq/block-chain/smart-contracts/voting.sol\":2658:2661  i++ */\n      dup1\n      dup1\n      tag_125\n      swap1\n      tag_61\n      jump\t// in\n    tag_125:\n      swap2\n      pop\n      pop\n        /* \"github/fahadashiq/block-chain/smart-contracts/voting.sol\":2619:2739  for(uint i = 0; i < numberOfCampaigns; i++) {... */\n      jump(tag_109)\n    tag_110:\n      pop\n        /* \"github/fahadashiq/block-chain/smart-contracts/voting.sol\":2756:2767  memoryArray */\n      dup1\n        /* \"github/fahadashiq/block-chain/smart-contracts/voting.sol\":2749:2767  return memoryArray */\n      swap2\n      pop\n      pop\n        /* \"github/fahadashiq/block-chain/smart-contracts/voting.sol\":2454:2775  function getAllCompainNames() public view returns (string[] memory campaignNames) {... */\n      swap1\n      jump\t// out\n        /* \"github/fahadashiq/block-chain/smart-contracts/voting.sol\":824:844  address public admin */\n    tag_43:\n      0x03\n      0x00\n      swap1\n      sload\n      swap1\n      0x0100\n      exp\n      swap1\n      div\n      0xffffffffffffffffffffffffffffffffffffffff\n      and\n      dup2\n      jump\t// out\n    tag_59:\n      dup3\n      dup1\n      sload\n      tag_126\n      swap1\n      tag_47\n      jump\t// in\n    tag_126:\n      swap1\n      0x00\n      mstore\n      keccak256(0x00, 0x20)\n      swap1\n      0x1f\n      add\n      0x20\n      swap1\n      div\n      dup2\n      add\n      swap3\n      dup3\n      tag_128\n      jumpi\n      0x00\n      dup6\n      sstore\n      jump(tag_127)\n    tag_128:\n      dup3\n      0x1f\n      lt\n      tag_129\n      jumpi\n      dup1\n      mload\n      not(0xff)\n      and\n      dup4\n      dup1\n      add\n      or\n      dup6\n      sstore\n      jump(tag_127)\n    tag_129:\n      dup3\n      dup1\n      add\n      0x01\n      add\n      dup6\n      sstore\n      dup3\n      iszero\n      tag_127\n      jumpi\n      swap2\n      dup3\n      add\n    tag_130:\n      dup3\n      dup2\n      gt\n      iszero\n      tag_131\n      jumpi\n      dup3\n      mload\n      dup3\n      sstore\n      swap2\n      0x20\n      add\n      swap2\n      swap1\n      0x01\n      add\n      swap1\n      jump(tag_130)\n    tag_131:\n    tag_127:\n      pop\n      swap1\n      pop\n      tag_132\n      swap2\n      swap1\n      tag_133\n      jump\t// in\n    tag_132:\n      pop\n      swap1\n      jump\t// out\n    tag_80:\n      mload(0x40)\n      dup1\n      0x40\n      add\n      0x40\n      mstore\n      dup1\n      0x60\n      dup2\n      mstore\n      0x20\n      add\n      0x60\n      dup2\n      mstore\n      pop\n      swap1\n      jump\t// out\n    tag_133:\n    tag_134:\n      dup1\n      dup3\n      gt\n      iszero\n      tag_135\n      jumpi\n      0x00\n      dup2\n      0x00\n      swap1\n      sstore\n      pop\n      0x01\n      add\n      jump(tag_134)\n    tag_135:\n      pop\n      swap1\n      jump\t// out\n        /* \"#utility.yul\":7:82   */\n    tag_136:\n        /* \"#utility.yul\":40:46   */\n      0x00\n        /* \"#utility.yul\":73:75   */\n      0x40\n        /* \"#utility.yul\":67:76   */\n      mload\n        /* \"#utility.yul\":57:76   */\n      swap1\n      pop\n        /* \"#utility.yul\":7:82   */\n      swap1\n      jump\t// out\n        /* \"#utility.yul\":88:205   */\n    tag_137:\n        /* \"#utility.yul\":197:198   */\n      0x00\n        /* \"#utility.yul\":194:195   */\n      dup1\n        /* \"#utility.yul\":187:199   */\n      revert\n        /* \"#utility.yul\":211:328   */\n    tag_138:\n        /* \"#utility.yul\":320:321   */\n      0x00\n        /* \"#utility.yul\":317:318   */\n      dup1\n        /* \"#utility.yul\":310:322   */\n      revert\n        /* \"#utility.yul\":334:451   */\n    tag_139:\n        /* \"#utility.yul\":443:444   */\n      0x00\n        /* \"#utility.yul\":440:441   */\n      dup1\n        /* \"#utility.yul\":433:445   */\n      revert\n        /* \"#utility.yul\":457:574   */\n    tag_140:\n        /* \"#utility.yul\":566:567   */\n      0x00\n        /* \"#utility.yul\":563:564   */\n      dup1\n        /* \"#utility.yul\":556:568   */\n      revert\n        /* \"#utility.yul\":580:682   */\n    tag_141:\n        /* \"#utility.yul\":621:627   */\n      0x00\n        /* \"#utility.yul\":672:674   */\n      0x1f\n        /* \"#utility.yul\":668:675   */\n      not\n        /* \"#utility.yul\":663:665   */\n      0x1f\n        /* \"#utility.yul\":656:661   */\n      dup4\n        /* \"#utility.yul\":652:666   */\n      add\n        /* \"#utility.yul\":648:676   */\n      and\n        /* \"#utility.yul\":638:676   */\n      swap1\n      pop\n        /* \"#utility.yul\":580:682   */\n      swap2\n      swap1\n      pop\n      jump\t// out\n        /* \"#utility.yul\":688:868   */\n    tag_106:\n        /* \"#utility.yul\":736:813   */\n      0x4e487b7100000000000000000000000000000000000000000000000000000000\n        /* \"#utility.yul\":733:734   */\n      0x00\n        /* \"#utility.yul\":726:814   */\n      mstore\n        /* \"#utility.yul\":833:837   */\n      0x41\n        /* \"#utility.yul\":830:831   */\n      0x04\n        /* \"#utility.yul\":823:838   */\n      mstore\n        /* \"#utility.yul\":857:861   */\n      0x24\n        /* \"#utility.yul\":854:855   */\n      0x00\n        /* \"#utility.yul\":847:862   */\n      revert\n        /* \"#utility.yul\":874:1155   */\n    tag_142:\n        /* \"#utility.yul\":957:984   */\n      tag_197\n        /* \"#utility.yul\":979:983   */\n      dup3\n        /* \"#utility.yul\":957:984   */\n      tag_141\n      jump\t// in\n    tag_197:\n        /* \"#utility.yul\":949:955   */\n      dup2\n        /* \"#utility.yul\":945:985   */\n      add\n        /* \"#utility.yul\":1087:1093   */\n      dup2\n        /* \"#utility.yul\":1075:1085   */\n      dup2\n        /* \"#utility.yul\":1072:1094   */\n      lt\n        /* \"#utility.yul\":1051:1069   */\n      0xffffffffffffffff\n        /* \"#utility.yul\":1039:1049   */\n      dup3\n        /* \"#utility.yul\":1036:1070   */\n      gt\n        /* \"#utility.yul\":1033:1095   */\n      or\n        /* \"#utility.yul\":1030:1118   */\n      iszero\n      tag_198\n      jumpi\n        /* \"#utility.yul\":1098:1116   */\n      tag_199\n      tag_106\n      jump\t// in\n    tag_199:\n        /* \"#utility.yul\":1030:1118   */\n    tag_198:\n        /* \"#utility.yul\":1138:1148   */\n      dup1\n        /* \"#utility.yul\":1134:1136   */\n      0x40\n        /* \"#utility.yul\":1127:1149   */\n      mstore\n        /* \"#utility.yul\":917:1155   */\n      pop\n        /* \"#utility.yul\":874:1155   */\n      pop\n      pop\n      jump\t// out\n        /* \"#utility.yul\":1161:1290   */\n    tag_143:\n        /* \"#utility.yul\":1195:1201   */\n      0x00\n        /* \"#utility.yul\":1222:1242   */\n      tag_201\n      tag_136\n      jump\t// in\n    tag_201:\n        /* \"#utility.yul\":1212:1242   */\n      swap1\n      pop\n        /* \"#utility.yul\":1251:1284   */\n      tag_202\n        /* \"#utility.yul\":1279:1283   */\n      dup3\n        /* \"#utility.yul\":1271:1277   */\n      dup3\n        /* \"#utility.yul\":1251:1284   */\n      tag_142\n      jump\t// in\n    tag_202:\n        /* \"#utility.yul\":1161:1290   */\n      swap2\n      swap1\n      pop\n      jump\t// out\n        /* \"#utility.yul\":1296:1604   */\n    tag_144:\n        /* \"#utility.yul\":1358:1362   */\n      0x00\n        /* \"#utility.yul\":1448:1466   */\n      0xffffffffffffffff\n        /* \"#utility.yul\":1440:1446   */\n      dup3\n        /* \"#utility.yul\":1437:1467   */\n      gt\n        /* \"#utility.yul\":1434:1490   */\n      iszero\n      tag_204\n      jumpi\n        /* \"#utility.yul\":1470:1488   */\n      tag_205\n      tag_106\n      jump\t// in\n    tag_205:\n        /* \"#utility.yul\":1434:1490   */\n    tag_204:\n        /* \"#utility.yul\":1508:1537   */\n      tag_206\n        /* \"#utility.yul\":1530:1536   */\n      dup3\n        /* \"#utility.yul\":1508:1537   */\n      tag_141\n      jump\t// in\n    tag_206:\n        /* \"#utility.yul\":1500:1537   */\n      swap1\n      pop\n        /* \"#utility.yul\":1592:1596   */\n      0x20\n        /* \"#utility.yul\":1586:1590   */\n      dup2\n        /* \"#utility.yul\":1582:1597   */\n      add\n        /* \"#utility.yul\":1574:1597   */\n      swap1\n      pop\n        /* \"#utility.yul\":1296:1604   */\n      swap2\n      swap1\n      pop\n      jump\t// out\n        /* \"#utility.yul\":1610:1764   */\n    tag_145:\n        /* \"#utility.yul\":1694:1700   */\n      dup3\n        /* \"#utility.yul\":1689:1692   */\n      dup2\n        /* \"#utility.yul\":1684:1687   */\n      dup4\n        /* \"#utility.yul\":1671:1701   */\n      calldatacopy\n        /* \"#utility.yul\":1756:1757   */\n      0x00\n        /* \"#utility.yul\":1747:1753   */\n      dup4\n        /* \"#utility.yul\":1742:1745   */\n      dup4\n        /* \"#utility.yul\":1738:1754   */\n      add\n        /* \"#utility.yul\":1731:1758   */\n      mstore\n        /* \"#utility.yul\":1610:1764   */\n      pop\n      pop\n      pop\n      jump\t// out\n        /* \"#utility.yul\":1770:2182   */\n    tag_146:\n        /* \"#utility.yul\":1848:1853   */\n      0x00\n        /* \"#utility.yul\":1873:1939   */\n      tag_209\n        /* \"#utility.yul\":1889:1938   */\n      tag_210\n        /* \"#utility.yul\":1931:1937   */\n      dup5\n        /* \"#utility.yul\":1889:1938   */\n      tag_144\n      jump\t// in\n    tag_210:\n        /* \"#utility.yul\":1873:1939   */\n      tag_143\n      jump\t// in\n    tag_209:\n        /* \"#utility.yul\":1864:1939   */\n      swap1\n      pop\n        /* \"#utility.yul\":1962:1968   */\n      dup3\n        /* \"#utility.yul\":1955:1960   */\n      dup2\n        /* \"#utility.yul\":1948:1969   */\n      mstore\n        /* \"#utility.yul\":2000:2004   */\n      0x20\n        /* \"#utility.yul\":1993:1998   */\n      dup2\n        /* \"#utility.yul\":1989:2005   */\n      add\n        /* \"#utility.yul\":2038:2041   */\n      dup5\n        /* \"#utility.yul\":2029:2035   */\n      dup5\n        /* \"#utility.yul\":2024:2027   */\n      dup5\n        /* \"#utility.yul\":2020:2036   */\n      add\n        /* \"#utility.yul\":2017:2042   */\n      gt\n        /* \"#utility.yul\":2014:2126   */\n      iszero\n      tag_211\n      jumpi\n        /* \"#utility.yul\":2045:2124   */\n      tag_212\n      tag_140\n      jump\t// in\n    tag_212:\n        /* \"#utility.yul\":2014:2126   */\n    tag_211:\n        /* \"#utility.yul\":2135:2176   */\n      tag_213\n        /* \"#utility.yul\":2169:2175   */\n      dup5\n        /* \"#utility.yul\":2164:2167   */\n      dup3\n        /* \"#utility.yul\":2159:2162   */\n      dup6\n        /* \"#utility.yul\":2135:2176   */\n      tag_145\n      jump\t// in\n    tag_213:\n        /* \"#utility.yul\":1854:2182   */\n      pop\n        /* \"#utility.yul\":1770:2182   */\n      swap4\n      swap3\n      pop\n      pop\n      pop\n      jump\t// out\n        /* \"#utility.yul\":2202:2542   */\n    tag_147:\n        /* \"#utility.yul\":2258:2263   */\n      0x00\n        /* \"#utility.yul\":2307:2310   */\n      dup3\n        /* \"#utility.yul\":2300:2304   */\n      0x1f\n        /* \"#utility.yul\":2292:2298   */\n      dup4\n        /* \"#utility.yul\":2288:2305   */\n      add\n        /* \"#utility.yul\":2284:2311   */\n      slt\n        /* \"#utility.yul\":2274:2396   */\n      tag_215\n      jumpi\n        /* \"#utility.yul\":2315:2394   */\n      tag_216\n      tag_139\n      jump\t// in\n    tag_216:\n        /* \"#utility.yul\":2274:2396   */\n    tag_215:\n        /* \"#utility.yul\":2432:2438   */\n      dup2\n        /* \"#utility.yul\":2419:2439   */\n      calldataload\n        /* \"#utility.yul\":2457:2536   */\n      tag_217\n        /* \"#utility.yul\":2532:2535   */\n      dup5\n        /* \"#utility.yul\":2524:2530   */\n      dup3\n        /* \"#utility.yul\":2517:2521   */\n      0x20\n        /* \"#utility.yul\":2509:2515   */\n      dup7\n        /* \"#utility.yul\":2505:2522   */\n      add\n        /* \"#utility.yul\":2457:2536   */\n      tag_146\n      jump\t// in\n    tag_217:\n        /* \"#utility.yul\":2448:2536   */\n      swap2\n      pop\n        /* \"#utility.yul\":2264:2542   */\n      pop\n        /* \"#utility.yul\":2202:2542   */\n      swap3\n      swap2\n      pop\n      pop\n      jump\t// out\n        /* \"#utility.yul\":2548:3057   */\n    tag_14:\n        /* \"#utility.yul\":2617:2623   */\n      0x00\n        /* \"#utility.yul\":2666:2668   */\n      0x20\n        /* \"#utility.yul\":2654:2663   */\n      dup3\n        /* \"#utility.yul\":2645:2652   */\n      dup5\n        /* \"#utility.yul\":2641:2664   */\n      sub\n        /* \"#utility.yul\":2637:2669   */\n      slt\n        /* \"#utility.yul\":2634:2753   */\n      iszero\n      tag_219\n      jumpi\n        /* \"#utility.yul\":2672:2751   */\n      tag_220\n      tag_137\n      jump\t// in\n    tag_220:\n        /* \"#utility.yul\":2634:2753   */\n    tag_219:\n        /* \"#utility.yul\":2820:2821   */\n      0x00\n        /* \"#utility.yul\":2809:2818   */\n      dup3\n        /* \"#utility.yul\":2805:2822   */\n      add\n        /* \"#utility.yul\":2792:2823   */\n      calldataload\n        /* \"#utility.yul\":2850:2868   */\n      0xffffffffffffffff\n        /* \"#utility.yul\":2842:2848   */\n      dup2\n        /* \"#utility.yul\":2839:2869   */\n      gt\n        /* \"#utility.yul\":2836:2953   */\n      iszero\n      tag_221\n      jumpi\n        /* \"#utility.yul\":2872:2951   */\n      tag_222\n      tag_138\n      jump\t// in\n    tag_222:\n        /* \"#utility.yul\":2836:2953   */\n    tag_221:\n        /* \"#utility.yul\":2977:3040   */\n      tag_223\n        /* \"#utility.yul\":3032:3039   */\n      dup5\n        /* \"#utility.yul\":3023:3029   */\n      dup3\n        /* \"#utility.yul\":3012:3021   */\n      dup6\n        /* \"#utility.yul\":3008:3030   */\n      add\n        /* \"#utility.yul\":2977:3040   */\n      tag_147\n      jump\t// in\n    tag_223:\n        /* \"#utility.yul\":2967:3040   */\n      swap2\n      pop\n        /* \"#utility.yul\":2763:3050   */\n      pop\n        /* \"#utility.yul\":2548:3057   */\n      swap3\n      swap2\n      pop\n      pop\n      jump\t// out\n        /* \"#utility.yul\":3063:3162   */\n    tag_148:\n        /* \"#utility.yul\":3115:3121   */\n      0x00\n        /* \"#utility.yul\":3149:3154   */\n      dup2\n        /* \"#utility.yul\":3143:3155   */\n      mload\n        /* \"#utility.yul\":3133:3155   */\n      swap1\n      pop\n        /* \"#utility.yul\":3063:3162   */\n      swap2\n      swap1\n      pop\n      jump\t// out\n        /* \"#utility.yul\":3168:3337   */\n    tag_149:\n        /* \"#utility.yul\":3252:3263   */\n      0x00\n        /* \"#utility.yul\":3286:3292   */\n      dup3\n        /* \"#utility.yul\":3281:3284   */\n      dup3\n        /* \"#utility.yul\":3274:3293   */\n      mstore\n        /* \"#utility.yul\":3326:3330   */\n      0x20\n        /* \"#utility.yul\":3321:3324   */\n      dup3\n        /* \"#utility.yul\":3317:3331   */\n      add\n        /* \"#utility.yul\":3302:3331   */\n      swap1\n      pop\n        /* \"#utility.yul\":3168:3337   */\n      swap3\n      swap2\n      pop\n      pop\n      jump\t// out\n        /* \"#utility.yul\":3343:3650   */\n    tag_150:\n        /* \"#utility.yul\":3411:3412   */\n      0x00\n        /* \"#utility.yul\":3421:3534   */\n    tag_227:\n        /* \"#utility.yul\":3435:3441   */\n      dup4\n        /* \"#utility.yul\":3432:3433   */\n      dup2\n        /* \"#utility.yul\":3429:3442   */\n      lt\n        /* \"#utility.yul\":3421:3534   */\n      iszero\n      tag_229\n      jumpi\n        /* \"#utility.yul\":3520:3521   */\n      dup1\n        /* \"#utility.yul\":3515:3518   */\n      dup3\n        /* \"#utility.yul\":3511:3522   */\n      add\n        /* \"#utility.yul\":3505:3523   */\n      mload\n        /* \"#utility.yul\":3501:3502   */\n      dup2\n        /* \"#utility.yul\":3496:3499   */\n      dup5\n        /* \"#utility.yul\":3492:3503   */\n      add\n        /* \"#utility.yul\":3485:3524   */\n      mstore\n        /* \"#utility.yul\":3457:3459   */\n      0x20\n        /* \"#utility.yul\":3454:3455   */\n      dup2\n        /* \"#utility.yul\":3450:3460   */\n      add\n        /* \"#utility.yul\":3445:3460   */\n      swap1\n      pop\n        /* \"#utility.yul\":3421:3534   */\n      jump(tag_227)\n    tag_229:\n        /* \"#utility.yul\":3552:3558   */\n      dup4\n        /* \"#utility.yul\":3549:3550   */\n      dup2\n        /* \"#utility.yul\":3546:3559   */\n      gt\n        /* \"#utility.yul\":3543:3644   */\n      iszero\n      tag_230\n      jumpi\n        /* \"#utility.yul\":3632:3633   */\n      0x00\n        /* \"#utility.yul\":3623:3629   */\n      dup5\n        /* \"#utility.yul\":3618:3621   */\n      dup5\n        /* \"#utility.yul\":3614:3630   */\n      add\n        /* \"#utility.yul\":3607:3634   */\n      mstore\n        /* \"#utility.yul\":3543:3644   */\n    tag_230:\n        /* \"#utility.yul\":3392:3650   */\n      pop\n        /* \"#utility.yul\":3343:3650   */\n      pop\n      pop\n      pop\n      jump\t// out\n        /* \"#utility.yul\":3656:4020   */\n    tag_151:\n        /* \"#utility.yul\":3744:3747   */\n      0x00\n        /* \"#utility.yul\":3772:3811   */\n      tag_232\n        /* \"#utility.yul\":3805:3810   */\n      dup3\n        /* \"#utility.yul\":3772:3811   */\n      tag_148\n      jump\t// in\n    tag_232:\n        /* \"#utility.yul\":3827:3898   */\n      tag_233\n        /* \"#utility.yul\":3891:3897   */\n      dup2\n        /* \"#utility.yul\":3886:3889   */\n      dup6\n        /* \"#utility.yul\":3827:3898   */\n      tag_149\n      jump\t// in\n    tag_233:\n        /* \"#utility.yul\":3820:3898   */\n      swap4\n      pop\n        /* \"#utility.yul\":3907:3959   */\n      tag_234\n        /* \"#utility.yul\":3952:3958   */\n      dup2\n        /* \"#utility.yul\":3947:3950   */\n      dup6\n        /* \"#utility.yul\":3940:3944   */\n      0x20\n        /* \"#utility.yul\":3933:3938   */\n      dup7\n        /* \"#utility.yul\":3929:3945   */\n      add\n        /* \"#utility.yul\":3907:3959   */\n      tag_150\n      jump\t// in\n    tag_234:\n        /* \"#utility.yul\":3984:4013   */\n      tag_235\n        /* \"#utility.yul\":4006:4012   */\n      dup2\n        /* \"#utility.yul\":3984:4013   */\n      tag_141\n      jump\t// in\n    tag_235:\n        /* \"#utility.yul\":3979:3982   */\n      dup5\n        /* \"#utility.yul\":3975:4014   */\n      add\n        /* \"#utility.yul\":3968:4014   */\n      swap2\n      pop\n        /* \"#utility.yul\":3748:4020   */\n      pop\n        /* \"#utility.yul\":3656:4020   */\n      swap3\n      swap2\n      pop\n      pop\n      jump\t// out\n        /* \"#utility.yul\":4026:4339   */\n    tag_17:\n        /* \"#utility.yul\":4139:4143   */\n      0x00\n        /* \"#utility.yul\":4177:4179   */\n      0x20\n        /* \"#utility.yul\":4166:4175   */\n      dup3\n        /* \"#utility.yul\":4162:4180   */\n      add\n        /* \"#utility.yul\":4154:4180   */\n      swap1\n      pop\n        /* \"#utility.yul\":4226:4235   */\n      dup2\n        /* \"#utility.yul\":4220:4224   */\n      dup2\n        /* \"#utility.yul\":4216:4236   */\n      sub\n        /* \"#utility.yul\":4212:4213   */\n      0x00\n        /* \"#utility.yul\":4201:4210   */\n      dup4\n        /* \"#utility.yul\":4197:4214   */\n      add\n        /* \"#utility.yul\":4190:4237   */\n      mstore\n        /* \"#utility.yul\":4254:4332   */\n      tag_237\n        /* \"#utility.yul\":4327:4331   */\n      dup2\n        /* \"#utility.yul\":4318:4324   */\n      dup5\n        /* \"#utility.yul\":4254:4332   */\n      tag_151\n      jump\t// in\n    tag_237:\n        /* \"#utility.yul\":4246:4332   */\n      swap1\n      pop\n        /* \"#utility.yul\":4026:4339   */\n      swap3\n      swap2\n      pop\n      pop\n      jump\t// out\n        /* \"#utility.yul\":4345:4422   */\n    tag_152:\n        /* \"#utility.yul\":4382:4389   */\n      0x00\n        /* \"#utility.yul\":4411:4416   */\n      dup2\n        /* \"#utility.yul\":4400:4416   */\n      swap1\n      pop\n        /* \"#utility.yul\":4345:4422   */\n      swap2\n      swap1\n      pop\n      jump\t// out\n        /* \"#utility.yul\":4428:4550   */\n    tag_153:\n        /* \"#utility.yul\":4501:4525   */\n      tag_240\n        /* \"#utility.yul\":4519:4524   */\n      dup2\n        /* \"#utility.yul\":4501:4525   */\n      tag_152\n      jump\t// in\n    tag_240:\n        /* \"#utility.yul\":4494:4499   */\n      dup2\n        /* \"#utility.yul\":4491:4526   */\n      eq\n        /* \"#utility.yul\":4481:4544   */\n      tag_241\n      jumpi\n        /* \"#utility.yul\":4540:4541   */\n      0x00\n        /* \"#utility.yul\":4537:4538   */\n      dup1\n        /* \"#utility.yul\":4530:4542   */\n      revert\n        /* \"#utility.yul\":4481:4544   */\n    tag_241:\n        /* \"#utility.yul\":4428:4550   */\n      pop\n      jump\t// out\n        /* \"#utility.yul\":4556:4695   */\n    tag_154:\n        /* \"#utility.yul\":4602:4607   */\n      0x00\n        /* \"#utility.yul\":4640:4646   */\n      dup2\n        /* \"#utility.yul\":4627:4647   */\n      calldataload\n        /* \"#utility.yul\":4618:4647   */\n      swap1\n      pop\n        /* \"#utility.yul\":4656:4689   */\n      tag_243\n        /* \"#utility.yul\":4683:4688   */\n      dup2\n        /* \"#utility.yul\":4656:4689   */\n      tag_153\n      jump\t// in\n    tag_243:\n        /* \"#utility.yul\":4556:4695   */\n      swap3\n      swap2\n      pop\n      pop\n      jump\t// out\n        /* \"#utility.yul\":4701:5030   */\n    tag_23:\n        /* \"#utility.yul\":4760:4766   */\n      0x00\n        /* \"#utility.yul\":4809:4811   */\n      0x20\n        /* \"#utility.yul\":4797:4806   */\n      dup3\n        /* \"#utility.yul\":4788:4795   */\n      dup5\n        /* \"#utility.yul\":4784:4807   */\n      sub\n        /* \"#utility.yul\":4780:4812   */\n      slt\n        /* \"#utility.yul\":4777:4896   */\n      iszero\n      tag_245\n      jumpi\n        /* \"#utility.yul\":4815:4894   */\n      tag_246\n      tag_137\n      jump\t// in\n    tag_246:\n        /* \"#utility.yul\":4777:4896   */\n    tag_245:\n        /* \"#utility.yul\":4935:4936   */\n      0x00\n        /* \"#utility.yul\":4960:5013   */\n      tag_247\n        /* \"#utility.yul\":5005:5012   */\n      dup5\n        /* \"#utility.yul\":4996:5002   */\n      dup3\n        /* \"#utility.yul\":4985:4994   */\n      dup6\n        /* \"#utility.yul\":4981:5003   */\n      add\n        /* \"#utility.yul\":4960:5013   */\n      tag_154\n      jump\t// in\n    tag_247:\n        /* \"#utility.yul\":4950:5013   */\n      swap2\n      pop\n        /* \"#utility.yul\":4906:5023   */\n      pop\n        /* \"#utility.yul\":4701:5030   */\n      swap3\n      swap2\n      pop\n      pop\n      jump\t// out\n        /* \"#utility.yul\":5036:6195   */\n    tag_28:\n        /* \"#utility.yul\":5143:5149   */\n      0x00\n        /* \"#utility.yul\":5151:5157   */\n      dup1\n        /* \"#utility.yul\":5159:5165   */\n      0x00\n        /* \"#utility.yul\":5208:5210   */\n      0x60\n        /* \"#utility.yul\":5196:5205   */\n      dup5\n        /* \"#utility.yul\":5187:5194   */\n      dup7\n        /* \"#utility.yul\":5183:5206   */\n      sub\n        /* \"#utility.yul\":5179:5211   */\n      slt\n        /* \"#utility.yul\":5176:5295   */\n      iszero\n      tag_249\n      jumpi\n        /* \"#utility.yul\":5214:5293   */\n      tag_250\n      tag_137\n      jump\t// in\n    tag_250:\n        /* \"#utility.yul\":5176:5295   */\n    tag_249:\n        /* \"#utility.yul\":5362:5363   */\n      0x00\n        /* \"#utility.yul\":5351:5360   */\n      dup5\n        /* \"#utility.yul\":5347:5364   */\n      add\n        /* \"#utility.yul\":5334:5365   */\n      calldataload\n        /* \"#utility.yul\":5392:5410   */\n      0xffffffffffffffff\n        /* \"#utility.yul\":5384:5390   */\n      dup2\n        /* \"#utility.yul\":5381:5411   */\n      gt\n        /* \"#utility.yul\":5378:5495   */\n      iszero\n      tag_251\n      jumpi\n        /* \"#utility.yul\":5414:5493   */\n      tag_252\n      tag_138\n      jump\t// in\n    tag_252:\n        /* \"#utility.yul\":5378:5495   */\n    tag_251:\n        /* \"#utility.yul\":5519:5582   */\n      tag_253\n        /* \"#utility.yul\":5574:5581   */\n      dup7\n        /* \"#utility.yul\":5565:5571   */\n      dup3\n        /* \"#utility.yul\":5554:5563   */\n      dup8\n        /* \"#utility.yul\":5550:5572   */\n      add\n        /* \"#utility.yul\":5519:5582   */\n      tag_147\n      jump\t// in\n    tag_253:\n        /* \"#utility.yul\":5509:5582   */\n      swap4\n      pop\n        /* \"#utility.yul\":5305:5592   */\n      pop\n        /* \"#utility.yul\":5659:5661   */\n      0x20\n        /* \"#utility.yul\":5648:5657   */\n      dup5\n        /* \"#utility.yul\":5644:5662   */\n      add\n        /* \"#utility.yul\":5631:5663   */\n      calldataload\n        /* \"#utility.yul\":5690:5708   */\n      0xffffffffffffffff\n        /* \"#utility.yul\":5682:5688   */\n      dup2\n        /* \"#utility.yul\":5679:5709   */\n      gt\n        /* \"#utility.yul\":5676:5793   */\n      iszero\n      tag_254\n      jumpi\n        /* \"#utility.yul\":5712:5791   */\n      tag_255\n      tag_138\n      jump\t// in\n    tag_255:\n        /* \"#utility.yul\":5676:5793   */\n    tag_254:\n        /* \"#utility.yul\":5817:5880   */\n      tag_256\n        /* \"#utility.yul\":5872:5879   */\n      dup7\n        /* \"#utility.yul\":5863:5869   */\n      dup3\n        /* \"#utility.yul\":5852:5861   */\n      dup8\n        /* \"#utility.yul\":5848:5870   */\n      add\n        /* \"#utility.yul\":5817:5880   */\n      tag_147\n      jump\t// in\n    tag_256:\n        /* \"#utility.yul\":5807:5880   */\n      swap3\n      pop\n        /* \"#utility.yul\":5602:5890   */\n      pop\n        /* \"#utility.yul\":5957:5959   */\n      0x40\n        /* \"#utility.yul\":5946:5955   */\n      dup5\n        /* \"#utility.yul\":5942:5960   */\n      add\n        /* \"#utility.yul\":5929:5961   */\n      calldataload\n        /* \"#utility.yul\":5988:6006   */\n      0xffffffffffffffff\n        /* \"#utility.yul\":5980:5986   */\n      dup2\n        /* \"#utility.yul\":5977:6007   */\n      gt\n        /* \"#utility.yul\":5974:6091   */\n      iszero\n      tag_257\n      jumpi\n        /* \"#utility.yul\":6010:6089   */\n      tag_258\n      tag_138\n      jump\t// in\n    tag_258:\n        /* \"#utility.yul\":5974:6091   */\n    tag_257:\n        /* \"#utility.yul\":6115:6178   */\n      tag_259\n        /* \"#utility.yul\":6170:6177   */\n      dup7\n        /* \"#utility.yul\":6161:6167   */\n      dup3\n        /* \"#utility.yul\":6150:6159   */\n      dup8\n        /* \"#utility.yul\":6146:6168   */\n      add\n        /* \"#utility.yul\":6115:6178   */\n      tag_147\n      jump\t// in\n    tag_259:\n        /* \"#utility.yul\":6105:6178   */\n      swap2\n      pop\n        /* \"#utility.yul\":5900:6188   */\n      pop\n        /* \"#utility.yul\":5036:6195   */\n      swap3\n      pop\n      swap3\n      pop\n      swap3\n      jump\t// out\n        /* \"#utility.yul\":6201:6360   */\n    tag_155:\n        /* \"#utility.yul\":6275:6286   */\n      0x00\n        /* \"#utility.yul\":6309:6315   */\n      dup3\n        /* \"#utility.yul\":6304:6307   */\n      dup3\n        /* \"#utility.yul\":6297:6316   */\n      mstore\n        /* \"#utility.yul\":6349:6353   */\n      0x20\n        /* \"#utility.yul\":6344:6347   */\n      dup3\n        /* \"#utility.yul\":6340:6354   */\n      add\n        /* \"#utility.yul\":6325:6354   */\n      swap1\n      pop\n        /* \"#utility.yul\":6201:6360   */\n      swap3\n      swap2\n      pop\n      pop\n      jump\t// out\n        /* \"#utility.yul\":6366:6710   */\n    tag_156:\n        /* \"#utility.yul\":6444:6447   */\n      0x00\n        /* \"#utility.yul\":6472:6511   */\n      tag_262\n        /* \"#utility.yul\":6505:6510   */\n      dup3\n        /* \"#utility.yul\":6472:6511   */\n      tag_148\n      jump\t// in\n    tag_262:\n        /* \"#utility.yul\":6527:6588   */\n      tag_263\n        /* \"#utility.yul\":6581:6587   */\n      dup2\n        /* \"#utility.yul\":6576:6579   */\n      dup6\n        /* \"#utility.yul\":6527:6588   */\n      tag_155\n      jump\t// in\n    tag_263:\n        /* \"#utility.yul\":6520:6588   */\n      swap4\n      pop\n        /* \"#utility.yul\":6597:6649   */\n      tag_264\n        /* \"#utility.yul\":6642:6648   */\n      dup2\n        /* \"#utility.yul\":6637:6640   */\n      dup6\n        /* \"#utility.yul\":6630:6634   */\n      0x20\n        /* \"#utility.yul\":6623:6628   */\n      dup7\n        /* \"#utility.yul\":6619:6635   */\n      add\n        /* \"#utility.yul\":6597:6649   */\n      tag_150\n      jump\t// in\n    tag_264:\n        /* \"#utility.yul\":6674:6703   */\n      tag_265\n        /* \"#utility.yul\":6696:6702   */\n      dup2\n        /* \"#utility.yul\":6674:6703   */\n      tag_141\n      jump\t// in\n    tag_265:\n        /* \"#utility.yul\":6669:6672   */\n      dup5\n        /* \"#utility.yul\":6665:6704   */\n      add\n        /* \"#utility.yul\":6658:6704   */\n      swap2\n      pop\n        /* \"#utility.yul\":6448:6710   */\n      pop\n        /* \"#utility.yul\":6366:6710   */\n      swap3\n      swap2\n      pop\n      pop\n      jump\t// out\n        /* \"#utility.yul\":6716:6855   */\n    tag_157:\n        /* \"#utility.yul\":6808:6814   */\n      0x00\n        /* \"#utility.yul\":6842:6847   */\n      dup2\n        /* \"#utility.yul\":6836:6848   */\n      mload\n        /* \"#utility.yul\":6826:6848   */\n      swap1\n      pop\n        /* \"#utility.yul\":6716:6855   */\n      swap2\n      swap1\n      pop\n      jump\t// out\n        /* \"#utility.yul\":6861:7060   */\n    tag_158:\n        /* \"#utility.yul\":6975:6986   */\n      0x00\n        /* \"#utility.yul\":7009:7015   */\n      dup3\n        /* \"#utility.yul\":7004:7007   */\n      dup3\n        /* \"#utility.yul\":6997:7016   */\n      mstore\n        /* \"#utility.yul\":7049:7053   */\n      0x20\n        /* \"#utility.yul\":7044:7047   */\n      dup3\n        /* \"#utility.yul\":7040:7054   */\n      add\n        /* \"#utility.yul\":7025:7054   */\n      swap1\n      pop\n        /* \"#utility.yul\":6861:7060   */\n      swap3\n      swap2\n      pop\n      pop\n      jump\t// out\n        /* \"#utility.yul\":7066:7223   */\n    tag_159:\n        /* \"#utility.yul\":7158:7162   */\n      0x00\n        /* \"#utility.yul\":7181:7184   */\n      dup2\n        /* \"#utility.yul\":7173:7184   */\n      swap1\n      pop\n        /* \"#utility.yul\":7211:7215   */\n      0x20\n        /* \"#utility.yul\":7206:7209   */\n      dup3\n        /* \"#utility.yul\":7202:7216   */\n      add\n        /* \"#utility.yul\":7194:7216   */\n      swap1\n      pop\n        /* \"#utility.yul\":7066:7223   */\n      swap2\n      swap1\n      pop\n      jump\t// out\n        /* \"#utility.yul\":7229:7337   */\n    tag_160:\n        /* \"#utility.yul\":7306:7330   */\n      tag_270\n        /* \"#utility.yul\":7324:7329   */\n      dup2\n        /* \"#utility.yul\":7306:7330   */\n      tag_152\n      jump\t// in\n    tag_270:\n        /* \"#utility.yul\":7301:7304   */\n      dup3\n        /* \"#utility.yul\":7294:7331   */\n      mstore\n        /* \"#utility.yul\":7229:7337   */\n      pop\n      pop\n      jump\t// out\n        /* \"#utility.yul\":7401:8243   */\n    tag_161:\n        /* \"#utility.yul\":7510:7513   */\n      0x00\n        /* \"#utility.yul\":7546:7550   */\n      0x60\n        /* \"#utility.yul\":7541:7544   */\n      dup4\n        /* \"#utility.yul\":7537:7551   */\n      add\n        /* \"#utility.yul\":7633:7637   */\n      0x00\n        /* \"#utility.yul\":7626:7631   */\n      dup4\n        /* \"#utility.yul\":7622:7638   */\n      add\n        /* \"#utility.yul\":7616:7639   */\n      mload\n        /* \"#utility.yul\":7686:7689   */\n      dup5\n        /* \"#utility.yul\":7680:7684   */\n      dup3\n        /* \"#utility.yul\":7676:7690   */\n      sub\n        /* \"#utility.yul\":7669:7673   */\n      0x00\n        /* \"#utility.yul\":7664:7667   */\n      dup7\n        /* \"#utility.yul\":7660:7674   */\n      add\n        /* \"#utility.yul\":7653:7691   */\n      mstore\n        /* \"#utility.yul\":7712:7785   */\n      tag_272\n        /* \"#utility.yul\":7780:7784   */\n      dup3\n        /* \"#utility.yul\":7766:7778   */\n      dup3\n        /* \"#utility.yul\":7712:7785   */\n      tag_156\n      jump\t// in\n    tag_272:\n        /* \"#utility.yul\":7704:7785   */\n      swap2\n      pop\n        /* \"#utility.yul\":7561:7796   */\n      pop\n        /* \"#utility.yul\":7878:7882   */\n      0x20\n        /* \"#utility.yul\":7871:7876   */\n      dup4\n        /* \"#utility.yul\":7867:7883   */\n      add\n        /* \"#utility.yul\":7861:7884   */\n      mload\n        /* \"#utility.yul\":7931:7934   */\n      dup5\n        /* \"#utility.yul\":7925:7929   */\n      dup3\n        /* \"#utility.yul\":7921:7935   */\n      sub\n        /* \"#utility.yul\":7914:7918   */\n      0x20\n        /* \"#utility.yul\":7909:7912   */\n      dup7\n        /* \"#utility.yul\":7905:7919   */\n      add\n        /* \"#utility.yul\":7898:7936   */\n      mstore\n        /* \"#utility.yul\":7957:8030   */\n      tag_273\n        /* \"#utility.yul\":8025:8029   */\n      dup3\n        /* \"#utility.yul\":8011:8023   */\n      dup3\n        /* \"#utility.yul\":7957:8030   */\n      tag_156\n      jump\t// in\n    tag_273:\n        /* \"#utility.yul\":7949:8030   */\n      swap2\n      pop\n        /* \"#utility.yul\":7806:8041   */\n      pop\n        /* \"#utility.yul\":8124:8128   */\n      0x40\n        /* \"#utility.yul\":8117:8122   */\n      dup4\n        /* \"#utility.yul\":8113:8129   */\n      add\n        /* \"#utility.yul\":8107:8130   */\n      mload\n        /* \"#utility.yul\":8143:8206   */\n      tag_274\n        /* \"#utility.yul\":8200:8204   */\n      0x40\n        /* \"#utility.yul\":8195:8198   */\n      dup7\n        /* \"#utility.yul\":8191:8205   */\n      add\n        /* \"#utility.yul\":8177:8189   */\n      dup3\n        /* \"#utility.yul\":8143:8206   */\n      tag_160\n      jump\t// in\n    tag_274:\n        /* \"#utility.yul\":8051:8216   */\n      pop\n        /* \"#utility.yul\":8233:8237   */\n      dup1\n        /* \"#utility.yul\":8226:8237   */\n      swap2\n      pop\n        /* \"#utility.yul\":7515:8243   */\n      pop\n        /* \"#utility.yul\":7401:8243   */\n      swap3\n      swap2\n      pop\n      pop\n      jump\t// out\n        /* \"#utility.yul\":8249:8505   */\n    tag_162:\n        /* \"#utility.yul\":8368:8378   */\n      0x00\n        /* \"#utility.yul\":8403:8499   */\n      tag_276\n        /* \"#utility.yul\":8495:8498   */\n      dup4\n        /* \"#utility.yul\":8487:8493   */\n      dup4\n        /* \"#utility.yul\":8403:8499   */\n      tag_161\n      jump\t// in\n    tag_276:\n        /* \"#utility.yul\":8389:8499   */\n      swap1\n      pop\n        /* \"#utility.yul\":8249:8505   */\n      swap3\n      swap2\n      pop\n      pop\n      jump\t// out\n        /* \"#utility.yul\":8511:8649   */\n    tag_163:\n        /* \"#utility.yul\":8606:8610   */\n      0x00\n        /* \"#utility.yul\":8638:8642   */\n      0x20\n        /* \"#utility.yul\":8633:8636   */\n      dup3\n        /* \"#utility.yul\":8629:8643   */\n      add\n        /* \"#utility.yul\":8621:8643   */\n      swap1\n      pop\n        /* \"#utility.yul\":8511:8649   */\n      swap2\n      swap1\n      pop\n      jump\t// out\n        /* \"#utility.yul\":8717:9808   */\n    tag_164:\n        /* \"#utility.yul\":8876:8879   */\n      0x00\n        /* \"#utility.yul\":8905:8984   */\n      tag_279\n        /* \"#utility.yul\":8978:8983   */\n      dup3\n        /* \"#utility.yul\":8905:8984   */\n      tag_157\n      jump\t// in\n    tag_279:\n        /* \"#utility.yul\":9000:9101   */\n      tag_280\n        /* \"#utility.yul\":9094:9100   */\n      dup2\n        /* \"#utility.yul\":9089:9092   */\n      dup6\n        /* \"#utility.yul\":9000:9101   */\n      tag_158\n      jump\t// in\n    tag_280:\n        /* \"#utility.yul\":8993:9101   */\n      swap4\n      pop\n        /* \"#utility.yul\":9127:9130   */\n      dup4\n        /* \"#utility.yul\":9172:9176   */\n      0x20\n        /* \"#utility.yul\":9164:9170   */\n      dup3\n        /* \"#utility.yul\":9160:9177   */\n      mul\n        /* \"#utility.yul\":9155:9158   */\n      dup6\n        /* \"#utility.yul\":9151:9178   */\n      add\n        /* \"#utility.yul\":9202:9283   */\n      tag_281\n        /* \"#utility.yul\":9277:9282   */\n      dup6\n        /* \"#utility.yul\":9202:9283   */\n      tag_159\n      jump\t// in\n    tag_281:\n        /* \"#utility.yul\":9306:9313   */\n      dup1\n        /* \"#utility.yul\":9337:9338   */\n      0x00\n        /* \"#utility.yul\":9322:9763   */\n    tag_282:\n        /* \"#utility.yul\":9347:9353   */\n      dup6\n        /* \"#utility.yul\":9344:9345   */\n      dup2\n        /* \"#utility.yul\":9341:9354   */\n      lt\n        /* \"#utility.yul\":9322:9763   */\n      iszero\n      tag_284\n      jumpi\n        /* \"#utility.yul\":9418:9427   */\n      dup5\n        /* \"#utility.yul\":9412:9416   */\n      dup5\n        /* \"#utility.yul\":9408:9428   */\n      sub\n        /* \"#utility.yul\":9403:9406   */\n      dup10\n        /* \"#utility.yul\":9396:9429   */\n      mstore\n        /* \"#utility.yul\":9469:9475   */\n      dup2\n        /* \"#utility.yul\":9463:9476   */\n      mload\n        /* \"#utility.yul\":9497:9611   */\n      tag_285\n        /* \"#utility.yul\":9606:9610   */\n      dup6\n        /* \"#utility.yul\":9591:9604   */\n      dup3\n        /* \"#utility.yul\":9497:9611   */\n      tag_162\n      jump\t// in\n    tag_285:\n        /* \"#utility.yul\":9489:9611   */\n      swap5\n      pop\n        /* \"#utility.yul\":9634:9719   */\n      tag_286\n        /* \"#utility.yul\":9712:9718   */\n      dup4\n        /* \"#utility.yul\":9634:9719   */\n      tag_163\n      jump\t// in\n    tag_286:\n        /* \"#utility.yul\":9624:9719   */\n      swap3\n      pop\n        /* \"#utility.yul\":9748:9752   */\n      0x20\n        /* \"#utility.yul\":9743:9746   */\n      dup11\n        /* \"#utility.yul\":9739:9753   */\n      add\n        /* \"#utility.yul\":9732:9753   */\n      swap10\n      pop\n        /* \"#utility.yul\":9382:9763   */\n      pop\n        /* \"#utility.yul\":9369:9370   */\n      0x01\n        /* \"#utility.yul\":9366:9367   */\n      dup2\n        /* \"#utility.yul\":9362:9371   */\n      add\n        /* \"#utility.yul\":9357:9371   */\n      swap1\n      pop\n        /* \"#utility.yul\":9322:9763   */\n      jump(tag_282)\n    tag_284:\n        /* \"#utility.yul\":9326:9340   */\n      pop\n        /* \"#utility.yul\":9779:9783   */\n      dup3\n        /* \"#utility.yul\":9772:9783   */\n      swap8\n      pop\n        /* \"#utility.yul\":9799:9802   */\n      dup8\n        /* \"#utility.yul\":9792:9802   */\n      swap6\n      pop\n        /* \"#utility.yul\":8881:9808   */\n      pop\n      pop\n      pop\n      pop\n      pop\n        /* \"#utility.yul\":8717:9808   */\n      swap3\n      swap2\n      pop\n      pop\n      jump\t// out\n        /* \"#utility.yul\":9870:10631   */\n    tag_165:\n        /* \"#utility.yul\":9987:9990   */\n      0x00\n        /* \"#utility.yul\":10023:10027   */\n      0x40\n        /* \"#utility.yul\":10018:10021   */\n      dup4\n        /* \"#utility.yul\":10014:10028   */\n      add\n        /* \"#utility.yul\":10110:10114   */\n      0x00\n        /* \"#utility.yul\":10103:10108   */\n      dup4\n        /* \"#utility.yul\":10099:10115   */\n      add\n        /* \"#utility.yul\":10093:10116   */\n      mload\n        /* \"#utility.yul\":10163:10166   */\n      dup5\n        /* \"#utility.yul\":10157:10161   */\n      dup3\n        /* \"#utility.yul\":10153:10167   */\n      sub\n        /* \"#utility.yul\":10146:10150   */\n      0x00\n        /* \"#utility.yul\":10141:10144   */\n      dup7\n        /* \"#utility.yul\":10137:10151   */\n      add\n        /* \"#utility.yul\":10130:10168   */\n      mstore\n        /* \"#utility.yul\":10189:10262   */\n      tag_288\n        /* \"#utility.yul\":10257:10261   */\n      dup3\n        /* \"#utility.yul\":10243:10255   */\n      dup3\n        /* \"#utility.yul\":10189:10262   */\n      tag_156\n      jump\t// in\n    tag_288:\n        /* \"#utility.yul\":10181:10262   */\n      swap2\n      pop\n        /* \"#utility.yul\":10038:10273   */\n      pop\n        /* \"#utility.yul\":10361:10365   */\n      0x20\n        /* \"#utility.yul\":10354:10359   */\n      dup4\n        /* \"#utility.yul\":10350:10366   */\n      add\n        /* \"#utility.yul\":10344:10367   */\n      mload\n        /* \"#utility.yul\":10414:10417   */\n      dup5\n        /* \"#utility.yul\":10408:10412   */\n      dup3\n        /* \"#utility.yul\":10404:10418   */\n      sub\n        /* \"#utility.yul\":10397:10401   */\n      0x20\n        /* \"#utility.yul\":10392:10395   */\n      dup7\n        /* \"#utility.yul\":10388:10402   */\n      add\n        /* \"#utility.yul\":10381:10419   */\n      mstore\n        /* \"#utility.yul\":10440:10593   */\n      tag_289\n        /* \"#utility.yul\":10588:10592   */\n      dup3\n        /* \"#utility.yul\":10574:10586   */\n      dup3\n        /* \"#utility.yul\":10440:10593   */\n      tag_164\n      jump\t// in\n    tag_289:\n        /* \"#utility.yul\":10432:10593   */\n      swap2\n      pop\n        /* \"#utility.yul\":10283:10604   */\n      pop\n        /* \"#utility.yul\":10621:10625   */\n      dup1\n        /* \"#utility.yul\":10614:10625   */\n      swap2\n      pop\n        /* \"#utility.yul\":9992:10631   */\n      pop\n        /* \"#utility.yul\":9870:10631   */\n      swap3\n      swap2\n      pop\n      pop\n      jump\t// out\n        /* \"#utility.yul\":10637:11006   */\n    tag_33:\n        /* \"#utility.yul\":10778:10782   */\n      0x00\n        /* \"#utility.yul\":10816:10818   */\n      0x20\n        /* \"#utility.yul\":10805:10814   */\n      dup3\n        /* \"#utility.yul\":10801:10819   */\n      add\n        /* \"#utility.yul\":10793:10819   */\n      swap1\n      pop\n        /* \"#utility.yul\":10865:10874   */\n      dup2\n        /* \"#utility.yul\":10859:10863   */\n      dup2\n        /* \"#utility.yul\":10855:10875   */\n      sub\n        /* \"#utility.yul\":10851:10852   */\n      0x00\n        /* \"#utility.yul\":10840:10849   */\n      dup4\n        /* \"#utility.yul\":10836:10853   */\n      add\n        /* \"#utility.yul\":10829:10876   */\n      mstore\n        /* \"#utility.yul\":10893:10999   */\n      tag_291\n        /* \"#utility.yul\":10994:10998   */\n      dup2\n        /* \"#utility.yul\":10985:10991   */\n      dup5\n        /* \"#utility.yul\":10893:10999   */\n      tag_165\n      jump\t// in\n    tag_291:\n        /* \"#utility.yul\":10885:10999   */\n      swap1\n      pop\n        /* \"#utility.yul\":10637:11006   */\n      swap3\n      swap2\n      pop\n      pop\n      jump\t// out\n        /* \"#utility.yul\":11012:11130   */\n    tag_166:\n        /* \"#utility.yul\":11099:11123   */\n      tag_293\n        /* \"#utility.yul\":11117:11122   */\n      dup2\n        /* \"#utility.yul\":11099:11123   */\n      tag_152\n      jump\t// in\n    tag_293:\n        /* \"#utility.yul\":11094:11097   */\n      dup3\n        /* \"#utility.yul\":11087:11124   */\n      mstore\n        /* \"#utility.yul\":11012:11130   */\n      pop\n      pop\n      jump\t// out\n        /* \"#utility.yul\":11136:11358   */\n    tag_37:\n        /* \"#utility.yul\":11229:11233   */\n      0x00\n        /* \"#utility.yul\":11267:11269   */\n      0x20\n        /* \"#utility.yul\":11256:11265   */\n      dup3\n        /* \"#utility.yul\":11252:11270   */\n      add\n        /* \"#utility.yul\":11244:11270   */\n      swap1\n      pop\n        /* \"#utility.yul\":11280:11351   */\n      tag_295\n        /* \"#utility.yul\":11348:11349   */\n      0x00\n        /* \"#utility.yul\":11337:11346   */\n      dup4\n        /* \"#utility.yul\":11333:11350   */\n      add\n        /* \"#utility.yul\":11324:11330   */\n      dup5\n        /* \"#utility.yul\":11280:11351   */\n      tag_166\n      jump\t// in\n    tag_295:\n        /* \"#utility.yul\":11136:11358   */\n      swap3\n      swap2\n      pop\n      pop\n      jump\t// out\n        /* \"#utility.yul\":11364:11488   */\n    tag_167:\n        /* \"#utility.yul\":11441:11447   */\n      0x00\n        /* \"#utility.yul\":11475:11480   */\n      dup2\n        /* \"#utility.yul\":11469:11481   */\n      mload\n        /* \"#utility.yul\":11459:11481   */\n      swap1\n      pop\n        /* \"#utility.yul\":11364:11488   */\n      swap2\n      swap1\n      pop\n      jump\t// out\n        /* \"#utility.yul\":11494:11688   */\n    tag_168:\n        /* \"#utility.yul\":11603:11614   */\n      0x00\n        /* \"#utility.yul\":11637:11643   */\n      dup3\n        /* \"#utility.yul\":11632:11635   */\n      dup3\n        /* \"#utility.yul\":11625:11644   */\n      mstore\n        /* \"#utility.yul\":11677:11681   */\n      0x20\n        /* \"#utility.yul\":11672:11675   */\n      dup3\n        /* \"#utility.yul\":11668:11682   */\n      add\n        /* \"#utility.yul\":11653:11682   */\n      swap1\n      pop\n        /* \"#utility.yul\":11494:11688   */\n      swap3\n      swap2\n      pop\n      pop\n      jump\t// out\n        /* \"#utility.yul\":11694:11836   */\n    tag_169:\n        /* \"#utility.yul\":11771:11775   */\n      0x00\n        /* \"#utility.yul\":11794:11797   */\n      dup2\n        /* \"#utility.yul\":11786:11797   */\n      swap1\n      pop\n        /* \"#utility.yul\":11824:11828   */\n      0x20\n        /* \"#utility.yul\":11819:11822   */\n      dup3\n        /* \"#utility.yul\":11815:11829   */\n      add\n        /* \"#utility.yul\":11807:11829   */\n      swap1\n      pop\n        /* \"#utility.yul\":11694:11836   */\n      swap2\n      swap1\n      pop\n      jump\t// out\n        /* \"#utility.yul\":11842:12038   */\n    tag_170:\n        /* \"#utility.yul\":11931:11941   */\n      0x00\n        /* \"#utility.yul\":11966:12032   */\n      tag_300\n        /* \"#utility.yul\":12028:12031   */\n      dup4\n        /* \"#utility.yul\":12020:12026   */\n      dup4\n        /* \"#utility.yul\":11966:12032   */\n      tag_156\n      jump\t// in\n    tag_300:\n        /* \"#utility.yul\":11952:12032   */\n      swap1\n      pop\n        /* \"#utility.yul\":11842:12038   */\n      swap3\n      swap2\n      pop\n      pop\n      jump\t// out\n        /* \"#utility.yul\":12044:12167   */\n    tag_171:\n        /* \"#utility.yul\":12124:12128   */\n      0x00\n        /* \"#utility.yul\":12156:12160   */\n      0x20\n        /* \"#utility.yul\":12151:12154   */\n      dup3\n        /* \"#utility.yul\":12147:12161   */\n      add\n        /* \"#utility.yul\":12139:12161   */\n      swap1\n      pop\n        /* \"#utility.yul\":12044:12167   */\n      swap2\n      swap1\n      pop\n      jump\t// out\n        /* \"#utility.yul\":12201:13192   */\n    tag_172:\n        /* \"#utility.yul\":12340:12343   */\n      0x00\n        /* \"#utility.yul\":12369:12433   */\n      tag_303\n        /* \"#utility.yul\":12427:12432   */\n      dup3\n        /* \"#utility.yul\":12369:12433   */\n      tag_167\n      jump\t// in\n    tag_303:\n        /* \"#utility.yul\":12449:12545   */\n      tag_304\n        /* \"#utility.yul\":12538:12544   */\n      dup2\n        /* \"#utility.yul\":12533:12536   */\n      dup6\n        /* \"#utility.yul\":12449:12545   */\n      tag_168\n      jump\t// in\n    tag_304:\n        /* \"#utility.yul\":12442:12545   */\n      swap4\n      pop\n        /* \"#utility.yul\":12571:12574   */\n      dup4\n        /* \"#utility.yul\":12616:12620   */\n      0x20\n        /* \"#utility.yul\":12608:12614   */\n      dup3\n        /* \"#utility.yul\":12604:12621   */\n      mul\n        /* \"#utility.yul\":12599:12602   */\n      dup6\n        /* \"#utility.yul\":12595:12622   */\n      add\n        /* \"#utility.yul\":12646:12712   */\n      tag_305\n        /* \"#utility.yul\":12706:12711   */\n      dup6\n        /* \"#utility.yul\":12646:12712   */\n      tag_169\n      jump\t// in\n    tag_305:\n        /* \"#utility.yul\":12735:12742   */\n      dup1\n        /* \"#utility.yul\":12766:12767   */\n      0x00\n        /* \"#utility.yul\":12751:13147   */\n    tag_306:\n        /* \"#utility.yul\":12776:12782   */\n      dup6\n        /* \"#utility.yul\":12773:12774   */\n      dup2\n        /* \"#utility.yul\":12770:12783   */\n      lt\n        /* \"#utility.yul\":12751:13147   */\n      iszero\n      tag_308\n      jumpi\n        /* \"#utility.yul\":12847:12856   */\n      dup5\n        /* \"#utility.yul\":12841:12845   */\n      dup5\n        /* \"#utility.yul\":12837:12857   */\n      sub\n        /* \"#utility.yul\":12832:12835   */\n      dup10\n        /* \"#utility.yul\":12825:12858   */\n      mstore\n        /* \"#utility.yul\":12898:12904   */\n      dup2\n        /* \"#utility.yul\":12892:12905   */\n      mload\n        /* \"#utility.yul\":12926:13010   */\n      tag_309\n        /* \"#utility.yul\":13005:13009   */\n      dup6\n        /* \"#utility.yul\":12990:13003   */\n      dup3\n        /* \"#utility.yul\":12926:13010   */\n      tag_170\n      jump\t// in\n    tag_309:\n        /* \"#utility.yul\":12918:13010   */\n      swap5\n      pop\n        /* \"#utility.yul\":13033:13103   */\n      tag_310\n        /* \"#utility.yul\":13096:13102   */\n      dup4\n        /* \"#utility.yul\":13033:13103   */\n      tag_171\n      jump\t// in\n    tag_310:\n        /* \"#utility.yul\":13023:13103   */\n      swap3\n      pop\n        /* \"#utility.yul\":13132:13136   */\n      0x20\n        /* \"#utility.yul\":13127:13130   */\n      dup11\n        /* \"#utility.yul\":13123:13137   */\n      add\n        /* \"#utility.yul\":13116:13137   */\n      swap10\n      pop\n        /* \"#utility.yul\":12811:13147   */\n      pop\n        /* \"#utility.yul\":12798:12799   */\n      0x01\n        /* \"#utility.yul\":12795:12796   */\n      dup2\n        /* \"#utility.yul\":12791:12800   */\n      add\n        /* \"#utility.yul\":12786:12800   */\n      swap1\n      pop\n        /* \"#utility.yul\":12751:13147   */\n      jump(tag_306)\n    tag_308:\n        /* \"#utility.yul\":12755:12769   */\n      pop\n        /* \"#utility.yul\":13163:13167   */\n      dup3\n        /* \"#utility.yul\":13156:13167   */\n      swap8\n      pop\n        /* \"#utility.yul\":13183:13186   */\n      dup8\n        /* \"#utility.yul\":13176:13186   */\n      swap6\n      pop\n        /* \"#utility.yul\":12345:13192   */\n      pop\n      pop\n      pop\n      pop\n      pop\n        /* \"#utility.yul\":12201:13192   */\n      swap3\n      swap2\n      pop\n      pop\n      jump\t// out\n        /* \"#utility.yul\":13198:13611   */\n    tag_41:\n        /* \"#utility.yul\":13361:13365   */\n      0x00\n        /* \"#utility.yul\":13399:13401   */\n      0x20\n        /* \"#utility.yul\":13388:13397   */\n      dup3\n        /* \"#utility.yul\":13384:13402   */\n      add\n        /* \"#utility.yul\":13376:13402   */\n      swap1\n      pop\n        /* \"#utility.yul\":13448:13457   */\n      dup2\n        /* \"#utility.yul\":13442:13446   */\n      dup2\n        /* \"#utility.yul\":13438:13458   */\n      sub\n        /* \"#utility.yul\":13434:13435   */\n      0x00\n        /* \"#utility.yul\":13423:13432   */\n      dup4\n        /* \"#utility.yul\":13419:13436   */\n      add\n        /* \"#utility.yul\":13412:13459   */\n      mstore\n        /* \"#utility.yul\":13476:13604   */\n      tag_312\n        /* \"#utility.yul\":13599:13603   */\n      dup2\n        /* \"#utility.yul\":13590:13596   */\n      dup5\n        /* \"#utility.yul\":13476:13604   */\n      tag_172\n      jump\t// in\n    tag_312:\n        /* \"#utility.yul\":13468:13604   */\n      swap1\n      pop\n        /* \"#utility.yul\":13198:13611   */\n      swap3\n      swap2\n      pop\n      pop\n      jump\t// out\n        /* \"#utility.yul\":13617:13743   */\n    tag_173:\n        /* \"#utility.yul\":13654:13661   */\n      0x00\n        /* \"#utility.yul\":13694:13736   */\n      0xffffffffffffffffffffffffffffffffffffffff\n        /* \"#utility.yul\":13687:13692   */\n      dup3\n        /* \"#utility.yul\":13683:13737   */\n      and\n        /* \"#utility.yul\":13672:13737   */\n      swap1\n      pop\n        /* \"#utility.yul\":13617:13743   */\n      swap2\n      swap1\n      pop\n      jump\t// out\n        /* \"#utility.yul\":13749:13845   */\n    tag_174:\n        /* \"#utility.yul\":13786:13793   */\n      0x00\n        /* \"#utility.yul\":13815:13839   */\n      tag_315\n        /* \"#utility.yul\":13833:13838   */\n      dup3\n        /* \"#utility.yul\":13815:13839   */\n      tag_173\n      jump\t// in\n    tag_315:\n        /* \"#utility.yul\":13804:13839   */\n      swap1\n      pop\n        /* \"#utility.yul\":13749:13845   */\n      swap2\n      swap1\n      pop\n      jump\t// out\n        /* \"#utility.yul\":13851:13969   */\n    tag_175:\n        /* \"#utility.yul\":13938:13962   */\n      tag_317\n        /* \"#utility.yul\":13956:13961   */\n      dup2\n        /* \"#utility.yul\":13938:13962   */\n      tag_174\n      jump\t// in\n    tag_317:\n        /* \"#utility.yul\":13933:13936   */\n      dup3\n        /* \"#utility.yul\":13926:13963   */\n      mstore\n        /* \"#utility.yul\":13851:13969   */\n      pop\n      pop\n      jump\t// out\n        /* \"#utility.yul\":13975:14197   */\n    tag_45:\n        /* \"#utility.yul\":14068:14072   */\n      0x00\n        /* \"#utility.yul\":14106:14108   */\n      0x20\n        /* \"#utility.yul\":14095:14104   */\n      dup3\n        /* \"#utility.yul\":14091:14109   */\n      add\n        /* \"#utility.yul\":14083:14109   */\n      swap1\n      pop\n        /* \"#utility.yul\":14119:14190   */\n      tag_319\n        /* \"#utility.yul\":14187:14188   */\n      0x00\n        /* \"#utility.yul\":14176:14185   */\n      dup4\n        /* \"#utility.yul\":14172:14189   */\n      add\n        /* \"#utility.yul\":14163:14169   */\n      dup5\n        /* \"#utility.yul\":14119:14190   */\n      tag_175\n      jump\t// in\n    tag_319:\n        /* \"#utility.yul\":13975:14197   */\n      swap3\n      swap2\n      pop\n      pop\n      jump\t// out\n        /* \"#utility.yul\":14203:14383   */\n    tag_176:\n        /* \"#utility.yul\":14251:14328   */\n      0x4e487b7100000000000000000000000000000000000000000000000000000000\n        /* \"#utility.yul\":14248:14249   */\n      0x00\n        /* \"#utility.yul\":14241:14329   */\n      mstore\n        /* \"#utility.yul\":14348:14352   */\n      0x22\n        /* \"#utility.yul\":14345:14346   */\n      0x04\n        /* \"#utility.yul\":14338:14353   */\n      mstore\n        /* \"#utility.yul\":14372:14376   */\n      0x24\n        /* \"#utility.yul\":14369:14370   */\n      0x00\n        /* \"#utility.yul\":14362:14377   */\n      revert\n        /* \"#utility.yul\":14389:14709   */\n    tag_47:\n        /* \"#utility.yul\":14433:14439   */\n      0x00\n        /* \"#utility.yul\":14470:14471   */\n      0x02\n        /* \"#utility.yul\":14464:14468   */\n      dup3\n        /* \"#utility.yul\":14460:14472   */\n      div\n        /* \"#utility.yul\":14450:14472   */\n      swap1\n      pop\n        /* \"#utility.yul\":14517:14518   */\n      0x01\n        /* \"#utility.yul\":14511:14515   */\n      dup3\n        /* \"#utility.yul\":14507:14519   */\n      and\n        /* \"#utility.yul\":14538:14556   */\n      dup1\n        /* \"#utility.yul\":14528:14609   */\n      tag_322\n      jumpi\n        /* \"#utility.yul\":14594:14598   */\n      0x7f\n        /* \"#utility.yul\":14586:14592   */\n      dup3\n        /* \"#utility.yul\":14582:14599   */\n      and\n        /* \"#utility.yul\":14572:14599   */\n      swap2\n      pop\n        /* \"#utility.yul\":14528:14609   */\n    tag_322:\n        /* \"#utility.yul\":14656:14658   */\n      0x20\n        /* \"#utility.yul\":14648:14654   */\n      dup3\n        /* \"#utility.yul\":14645:14659   */\n      lt\n        /* \"#utility.yul\":14625:14643   */\n      dup2\n        /* \"#utility.yul\":14622:14660   */\n      sub\n        /* \"#utility.yul\":14619:14703   */\n      tag_323\n      jumpi\n        /* \"#utility.yul\":14675:14693   */\n      tag_324\n      tag_176\n      jump\t// in\n    tag_324:\n        /* \"#utility.yul\":14619:14703   */\n    tag_323:\n        /* \"#utility.yul\":14440:14709   */\n      pop\n        /* \"#utility.yul\":14389:14709   */\n      swap2\n      swap1\n      pop\n      jump\t// out\n        /* \"#utility.yul\":14715:14896   */\n    tag_177:\n        /* \"#utility.yul\":14855:14888   */\n      0x4f6e6c792061646d696e2063616e20737461727420612063616d706169676e00\n        /* \"#utility.yul\":14851:14852   */\n      0x00\n        /* \"#utility.yul\":14843:14849   */\n      dup3\n        /* \"#utility.yul\":14839:14853   */\n      add\n        /* \"#utility.yul\":14832:14889   */\n      mstore\n        /* \"#utility.yul\":14715:14896   */\n      pop\n      jump\t// out\n        /* \"#utility.yul\":14902:15268   */\n    tag_178:\n        /* \"#utility.yul\":15044:15047   */\n      0x00\n        /* \"#utility.yul\":15065:15132   */\n      tag_327\n        /* \"#utility.yul\":15129:15131   */\n      0x1f\n        /* \"#utility.yul\":15124:15127   */\n      dup4\n        /* \"#utility.yul\":15065:15132   */\n      tag_149\n      jump\t// in\n    tag_327:\n        /* \"#utility.yul\":15058:15132   */\n      swap2\n      pop\n        /* \"#utility.yul\":15141:15234   */\n      tag_328\n        /* \"#utility.yul\":15230:15233   */\n      dup3\n        /* \"#utility.yul\":15141:15234   */\n      tag_177\n      jump\t// in\n    tag_328:\n        /* \"#utility.yul\":15259:15261   */\n      0x20\n        /* \"#utility.yul\":15254:15257   */\n      dup3\n        /* \"#utility.yul\":15250:15262   */\n      add\n        /* \"#utility.yul\":15243:15262   */\n      swap1\n      pop\n        /* \"#utility.yul\":14902:15268   */\n      swap2\n      swap1\n      pop\n      jump\t// out\n        /* \"#utility.yul\":15274:15693   */\n    tag_55:\n        /* \"#utility.yul\":15440:15444   */\n      0x00\n        /* \"#utility.yul\":15478:15480   */\n      0x20\n        /* \"#utility.yul\":15467:15476   */\n      dup3\n        /* \"#utility.yul\":15463:15481   */\n      add\n        /* \"#utility.yul\":15455:15481   */\n      swap1\n      pop\n        /* \"#utility.yul\":15527:15536   */\n      dup2\n        /* \"#utility.yul\":15521:15525   */\n      dup2\n        /* \"#utility.yul\":15517:15537   */\n      sub\n        /* \"#utility.yul\":15513:15514   */\n      0x00\n        /* \"#utility.yul\":15502:15511   */\n      dup4\n        /* \"#utility.yul\":15498:15515   */\n      add\n        /* \"#utility.yul\":15491:15538   */\n      mstore\n        /* \"#utility.yul\":15555:15686   */\n      tag_330\n        /* \"#utility.yul\":15681:15685   */\n      dup2\n        /* \"#utility.yul\":15555:15686   */\n      tag_178\n      jump\t// in\n    tag_330:\n        /* \"#utility.yul\":15547:15686   */\n      swap1\n      pop\n        /* \"#utility.yul\":15274:15693   */\n      swap2\n      swap1\n      pop\n      jump\t// out\n        /* \"#utility.yul\":15699:15847   */\n    tag_179:\n        /* \"#utility.yul\":15801:15812   */\n      0x00\n        /* \"#utility.yul\":15838:15841   */\n      dup2\n        /* \"#utility.yul\":15823:15841   */\n      swap1\n      pop\n        /* \"#utility.yul\":15699:15847   */\n      swap3\n      swap2\n      pop\n      pop\n      jump\t// out\n        /* \"#utility.yul\":15853:16230   */\n    tag_180:\n        /* \"#utility.yul\":15959:15962   */\n      0x00\n        /* \"#utility.yul\":15987:16026   */\n      tag_333\n        /* \"#utility.yul\":16020:16025   */\n      dup3\n        /* \"#utility.yul\":15987:16026   */\n      tag_148\n      jump\t// in\n    tag_333:\n        /* \"#utility.yul\":16042:16131   */\n      tag_334\n        /* \"#utility.yul\":16124:16130   */\n      dup2\n        /* \"#utility.yul\":16119:16122   */\n      dup6\n        /* \"#utility.yul\":16042:16131   */\n      tag_179\n      jump\t// in\n    tag_334:\n        /* \"#utility.yul\":16035:16131   */\n      swap4\n      pop\n        /* \"#utility.yul\":16140:16192   */\n      tag_335\n        /* \"#utility.yul\":16185:16191   */\n      dup2\n        /* \"#utility.yul\":16180:16183   */\n      dup6\n        /* \"#utility.yul\":16173:16177   */\n      0x20\n        /* \"#utility.yul\":16166:16171   */\n      dup7\n        /* \"#utility.yul\":16162:16178   */\n      add\n        /* \"#utility.yul\":16140:16192   */\n      tag_150\n      jump\t// in\n    tag_335:\n        /* \"#utility.yul\":16217:16223   */\n      dup1\n        /* \"#utility.yul\":16212:16215   */\n      dup5\n        /* \"#utility.yul\":16208:16224   */\n      add\n        /* \"#utility.yul\":16201:16224   */\n      swap2\n      pop\n        /* \"#utility.yul\":15963:16230   */\n      pop\n        /* \"#utility.yul\":15853:16230   */\n      swap3\n      swap2\n      pop\n      pop\n      jump\t// out\n        /* \"#utility.yul\":16236:16511   */\n    tag_57:\n        /* \"#utility.yul\":16368:16371   */\n      0x00\n        /* \"#utility.yul\":16390:16485   */\n      tag_337\n        /* \"#utility.yul\":16481:16484   */\n      dup3\n        /* \"#utility.yul\":16472:16478   */\n      dup5\n        /* \"#utility.yul\":16390:16485   */\n      tag_180\n      jump\t// in\n    tag_337:\n        /* \"#utility.yul\":16383:16485   */\n      swap2\n      pop\n        /* \"#utility.yul\":16502:16505   */\n      dup2\n        /* \"#utility.yul\":16495:16505   */\n      swap1\n      pop\n        /* \"#utility.yul\":16236:16511   */\n      swap3\n      swap2\n      pop\n      pop\n      jump\t// out\n        /* \"#utility.yul\":16517:16697   */\n    tag_181:\n        /* \"#utility.yul\":16565:16642   */\n      0x4e487b7100000000000000000000000000000000000000000000000000000000\n        /* \"#utility.yul\":16562:16563   */\n      0x00\n        /* \"#utility.yul\":16555:16643   */\n      mstore\n        /* \"#utility.yul\":16662:16666   */\n      0x11\n        /* \"#utility.yul\":16659:16660   */\n      0x04\n        /* \"#utility.yul\":16652:16667   */\n      mstore\n        /* \"#utility.yul\":16686:16690   */\n      0x24\n        /* \"#utility.yul\":16683:16684   */\n      0x00\n        /* \"#utility.yul\":16676:16691   */\n      revert\n        /* \"#utility.yul\":16703:16936   */\n    tag_61:\n        /* \"#utility.yul\":16742:16745   */\n      0x00\n        /* \"#utility.yul\":16765:16789   */\n      tag_340\n        /* \"#utility.yul\":16783:16788   */\n      dup3\n        /* \"#utility.yul\":16765:16789   */\n      tag_152\n      jump\t// in\n    tag_340:\n        /* \"#utility.yul\":16756:16789   */\n      swap2\n      pop\n        /* \"#utility.yul\":16811:16877   */\n      0xffffffffffffffffffffffffffffffffffffffffffffffffffffffffffffffff\n        /* \"#utility.yul\":16804:16809   */\n      dup3\n        /* \"#utility.yul\":16801:16878   */\n      sub\n        /* \"#utility.yul\":16798:16901   */\n      tag_341\n      jumpi\n        /* \"#utility.yul\":16881:16899   */\n      tag_342\n      tag_181\n      jump\t// in\n    tag_342:\n        /* \"#utility.yul\":16798:16901   */\n    tag_341:\n        /* \"#utility.yul\":16928:16929   */\n      0x01\n        /* \"#utility.yul\":16921:16926   */\n      dup3\n        /* \"#utility.yul\":16917:16930   */\n      add\n        /* \"#utility.yul\":16910:16930   */\n      swap1\n      pop\n        /* \"#utility.yul\":16703:16936   */\n      swap2\n      swap1\n      pop\n      jump\t// out\n        /* \"#utility.yul\":16942:17122   */\n    tag_182:\n        /* \"#utility.yul\":17082:17114   */\n      0x4f6e6c792061646d696e2063616e2061646420612063616e6469646174650000\n        /* \"#utility.yul\":17078:17079   */\n      0x00\n        /* \"#utility.yul\":17070:17076   */\n      dup3\n        /* \"#utility.yul\":17066:17080   */\n      add\n        /* \"#utility.yul\":17059:17115   */\n      mstore\n        /* \"#utility.yul\":16942:17122   */\n      pop\n      jump\t// out\n        /* \"#utility.yul\":17128:17494   */\n    tag_183:\n        /* \"#utility.yul\":17270:17273   */\n      0x00\n        /* \"#utility.yul\":17291:17358   */\n      tag_345\n        /* \"#utility.yul\":17355:17357   */\n      0x1e\n        /* \"#utility.yul\":17350:17353   */\n      dup4\n        /* \"#utility.yul\":17291:17358   */\n      tag_149\n      jump\t// in\n    tag_345:\n        /* \"#utility.yul\":17284:17358   */\n      swap2\n      pop\n        /* \"#utility.yul\":17367:17460   */\n      tag_346\n        /* \"#utility.yul\":17456:17459   */\n      dup3\n        /* \"#utility.yul\":17367:17460   */\n      tag_182\n      jump\t// in\n    tag_346:\n        /* \"#utility.yul\":17485:17487   */\n      0x20\n        /* \"#utility.yul\":17480:17483   */\n      dup3\n        /* \"#utility.yul\":17476:17488   */\n      add\n        /* \"#utility.yul\":17469:17488   */\n      swap1\n      pop\n        /* \"#utility.yul\":17128:17494   */\n      swap2\n      swap1\n      pop\n      jump\t// out\n        /* \"#utility.yul\":17500:17919   */\n    tag_74:\n        /* \"#utility.yul\":17666:17670   */\n      0x00\n        /* \"#utility.yul\":17704:17706   */\n      0x20\n        /* \"#utility.yul\":17693:17702   */\n      dup3\n        /* \"#utility.yul\":17689:17707   */\n      add\n        /* \"#utility.yul\":17681:17707   */\n      swap1\n      pop\n        /* \"#utility.yul\":17753:17762   */\n      dup2\n        /* \"#utility.yul\":17747:17751   */\n      dup2\n        /* \"#utility.yul\":17743:17763   */\n      sub\n        /* \"#utility.yul\":17739:17740   */\n      0x00\n        /* \"#utility.yul\":17728:17737   */\n      dup4\n        /* \"#utility.yul\":17724:17741   */\n      add\n        /* \"#utility.yul\":17717:17764   */\n      mstore\n        /* \"#utility.yul\":17781:17912   */\n      tag_348\n        /* \"#utility.yul\":17907:17911   */\n      dup2\n        /* \"#utility.yul\":17781:17912   */\n      tag_183\n      jump\t// in\n    tag_348:\n        /* \"#utility.yul\":17773:17912   */\n      swap1\n      pop\n        /* \"#utility.yul\":17500:17919   */\n      swap2\n      swap1\n      pop\n      jump\t// out\n        /* \"#utility.yul\":17925:18079   */\n    tag_184:\n        /* \"#utility.yul\":18065:18071   */\n      0x3131323200000000000000000000000000000000000000000000000000000000\n        /* \"#utility.yul\":18061:18062   */\n      0x00\n        /* \"#utility.yul\":18053:18059   */\n      dup3\n        /* \"#utility.yul\":18049:18063   */\n      add\n        /* \"#utility.yul\":18042:18072   */\n      mstore\n        /* \"#utility.yul\":17925:18079   */\n      pop\n      jump\t// out\n        /* \"#utility.yul\":18085:18485   */\n    tag_185:\n        /* \"#utility.yul\":18245:18248   */\n      0x00\n        /* \"#utility.yul\":18266:18350   */\n      tag_351\n        /* \"#utility.yul\":18348:18349   */\n      0x04\n        /* \"#utility.yul\":18343:18346   */\n      dup4\n        /* \"#utility.yul\":18266:18350   */\n      tag_179\n      jump\t// in\n    tag_351:\n        /* \"#utility.yul\":18259:18350   */\n      swap2\n      pop\n        /* \"#utility.yul\":18359:18452   */\n      tag_352\n        /* \"#utility.yul\":18448:18451   */\n      dup3\n        /* \"#utility.yul\":18359:18452   */\n      tag_184\n      jump\t// in\n    tag_352:\n        /* \"#utility.yul\":18477:18478   */\n      0x04\n        /* \"#utility.yul\":18472:18475   */\n      dup3\n        /* \"#utility.yul\":18468:18479   */\n      add\n        /* \"#utility.yul\":18461:18479   */\n      swap1\n      pop\n        /* \"#utility.yul\":18085:18485   */\n      swap2\n      swap1\n      pop\n      jump\t// out\n        /* \"#utility.yul\":18491:18872   */\n    tag_83:\n        /* \"#utility.yul\":18676:18679   */\n      0x00\n        /* \"#utility.yul\":18698:18846   */\n      tag_354\n        /* \"#utility.yul\":18842:18845   */\n      dup3\n        /* \"#utility.yul\":18698:18846   */\n      tag_185\n      jump\t// in\n    tag_354:\n        /* \"#utility.yul\":18691:18846   */\n      swap2\n      pop\n        /* \"#utility.yul\":18863:18866   */\n      dup2\n        /* \"#utility.yul\":18856:18866   */\n      swap1\n      pop\n        /* \"#utility.yul\":18491:18872   */\n      swap2\n      swap1\n      pop\n      jump\t// out\n        /* \"#utility.yul\":18878:19058   */\n    tag_114:\n        /* \"#utility.yul\":18926:19003   */\n      0x4e487b7100000000000000000000000000000000000000000000000000000000\n        /* \"#utility.yul\":18923:18924   */\n      0x00\n        /* \"#utility.yul\":18916:19004   */\n      mstore\n        /* \"#utility.yul\":19023:19027   */\n      0x32\n        /* \"#utility.yul\":19020:19021   */\n      0x04\n        /* \"#utility.yul\":19013:19028   */\n      mstore\n        /* \"#utility.yul\":19047:19051   */\n      0x24\n        /* \"#utility.yul\":19044:19045   */\n      0x00\n        /* \"#utility.yul\":19037:19052   */\n      revert\n        /* \"#utility.yul\":19064:19205   */\n    tag_186:\n        /* \"#utility.yul\":19113:19117   */\n      0x00\n        /* \"#utility.yul\":19136:19139   */\n      dup2\n        /* \"#utility.yul\":19128:19139   */\n      swap1\n      pop\n        /* \"#utility.yul\":19159:19162   */\n      dup2\n        /* \"#utility.yul\":19156:19157   */\n      0x00\n        /* \"#utility.yul\":19149:19163   */\n      mstore\n        /* \"#utility.yul\":19193:19197   */\n      0x20\n        /* \"#utility.yul\":19190:19191   */\n      0x00\n        /* \"#utility.yul\":19180:19198   */\n      keccak256\n        /* \"#utility.yul\":19172:19198   */\n      swap1\n      pop\n        /* \"#utility.yul\":19064:19205   */\n      swap2\n      swap1\n      pop\n      jump\t// out\n        /* \"#utility.yul\":19235:20080   */\n    tag_187:\n        /* \"#utility.yul\":19338:19341   */\n      0x00\n        /* \"#utility.yul\":19375:19380   */\n      dup2\n        /* \"#utility.yul\":19369:19381   */\n      sload\n        /* \"#utility.yul\":19404:19440   */\n      tag_358\n        /* \"#utility.yul\":19430:19439   */\n      dup2\n        /* \"#utility.yul\":19404:19440   */\n      tag_47\n      jump\t// in\n    tag_358:\n        /* \"#utility.yul\":19456:19545   */\n      tag_359\n        /* \"#utility.yul\":19538:19544   */\n      dup2\n        /* \"#utility.yul\":19533:19536   */\n      dup7\n        /* \"#utility.yul\":19456:19545   */\n      tag_179\n      jump\t// in\n    tag_359:\n        /* \"#utility.yul\":19449:19545   */\n      swap5\n      pop\n        /* \"#utility.yul\":19576:19577   */\n      0x01\n        /* \"#utility.yul\":19565:19574   */\n      dup3\n        /* \"#utility.yul\":19561:19578   */\n      and\n        /* \"#utility.yul\":19592:19593   */\n      0x00\n        /* \"#utility.yul\":19587:19724   */\n      dup2\n      eq\n      tag_361\n      jumpi\n        /* \"#utility.yul\":19738:19739   */\n      0x01\n        /* \"#utility.yul\":19733:20074   */\n      dup2\n      eq\n      tag_362\n      jumpi\n        /* \"#utility.yul\":19554:20074   */\n      jump(tag_360)\n        /* \"#utility.yul\":19587:19724   */\n    tag_361:\n        /* \"#utility.yul\":19671:19675   */\n      0xff\n        /* \"#utility.yul\":19667:19676   */\n      not\n        /* \"#utility.yul\":19656:19665   */\n      dup4\n        /* \"#utility.yul\":19652:19677   */\n      and\n        /* \"#utility.yul\":19647:19650   */\n      dup7\n        /* \"#utility.yul\":19640:19678   */\n      mstore\n        /* \"#utility.yul\":19707:19713   */\n      dup2\n        /* \"#utility.yul\":19702:19705   */\n      dup7\n        /* \"#utility.yul\":19698:19714   */\n      add\n        /* \"#utility.yul\":19691:19714   */\n      swap4\n      pop\n        /* \"#utility.yul\":19587:19724   */\n      jump(tag_360)\n        /* \"#utility.yul\":19733:20074   */\n    tag_362:\n        /* \"#utility.yul\":19800:19838   */\n      tag_363\n        /* \"#utility.yul\":19832:19837   */\n      dup6\n        /* \"#utility.yul\":19800:19838   */\n      tag_186\n      jump\t// in\n    tag_363:\n        /* \"#utility.yul\":19860:19861   */\n      0x00\n        /* \"#utility.yul\":19874:20028   */\n    tag_364:\n        /* \"#utility.yul\":19888:19894   */\n      dup4\n        /* \"#utility.yul\":19885:19886   */\n      dup2\n        /* \"#utility.yul\":19882:19895   */\n      lt\n        /* \"#utility.yul\":19874:20028   */\n      iszero\n      tag_366\n      jumpi\n        /* \"#utility.yul\":19962:19969   */\n      dup2\n        /* \"#utility.yul\":19956:19970   */\n      sload\n        /* \"#utility.yul\":19952:19953   */\n      dup2\n        /* \"#utility.yul\":19947:19950   */\n      dup10\n        /* \"#utility.yul\":19943:19954   */\n      add\n        /* \"#utility.yul\":19936:19971   */\n      mstore\n        /* \"#utility.yul\":20012:20013   */\n      0x01\n        /* \"#utility.yul\":20003:20010   */\n      dup3\n        /* \"#utility.yul\":19999:20014   */\n      add\n        /* \"#utility.yul\":19988:20014   */\n      swap2\n      pop\n        /* \"#utility.yul\":19910:19914   */\n      0x20\n        /* \"#utility.yul\":19907:19908   */\n      dup2\n        /* \"#utility.yul\":19903:19915   */\n      add\n        /* \"#utility.yul\":19898:19915   */\n      swap1\n      pop\n        /* \"#utility.yul\":19874:20028   */\n      jump(tag_364)\n    tag_366:\n        /* \"#utility.yul\":20057:20063   */\n      dup4\n        /* \"#utility.yul\":20052:20055   */\n      dup9\n        /* \"#utility.yul\":20048:20064   */\n      add\n        /* \"#utility.yul\":20041:20064   */\n      swap6\n      pop\n        /* \"#utility.yul\":19740:20074   */\n      pop\n      pop\n        /* \"#utility.yul\":19554:20074   */\n    tag_360:\n      pop\n        /* \"#utility.yul\":19342:20080   */\n      pop\n      pop\n        /* \"#utility.yul\":19235:20080   */\n      swap3\n      swap2\n      pop\n      pop\n      jump\t// out\n        /* \"#utility.yul\":20086:20355   */\n    tag_117:\n        /* \"#utility.yul\":20215:20218   */\n      0x00\n        /* \"#utility.yul\":20237:20329   */\n      tag_368\n        /* \"#utility.yul\":20325:20328   */\n      dup3\n        /* \"#utility.yul\":20316:20322   */\n      dup5\n        /* \"#utility.yul\":20237:20329   */\n      tag_187\n      jump\t// in\n    tag_368:\n        /* \"#utility.yul\":20230:20329   */\n      swap2\n      pop\n        /* \"#utility.yul\":20346:20349   */\n      dup2\n        /* \"#utility.yul\":20339:20349   */\n      swap1\n      pop\n        /* \"#utility.yul\":20086:20355   */\n      swap3\n      swap2\n      pop\n      pop\n      jump\t// out\n\n    auxdata: 0xa264697066735822122007887829192b3a2de1b0fd9036fa586bbf91a3a60803aed39877c50611b398c464736f6c634300080d0033\n}\n",
				"bytecode": {
					"linkReferences": {},
					"object": "608060405234801561001057600080fd5b5033600360006101000a81548173ffffffffffffffffffffffffffffffffffffffff021916908373ffffffffffffffffffffffffffffffffffffffff160217905550611416806100616000396000f3fe608060405234801561001057600080fd5b50600436106100885760003560e01c806386cdf6041161005b57806386cdf60414610125578063bf80f44a14610143578063c157b6f514610161578063f851a4401461017f57610088565b80631d39e5091461008d578063202e7be4146100bd5780636f732627146100d957806376dc15a714610109575b600080fd5b6100a760048036038101906100a29190610b64565b61019d565b6040516100b49190610c35565b60405180910390f35b6100d760048036038101906100d29190610b64565b610259565b005b6100f360048036038101906100ee9190610c8d565b61037b565b6040516101009190610c35565b60405180910390f35b610123600480360381019061011e9190610cba565b610427565b005b61012d610568565b60405161013a9190610f17565b60405180910390f35b61014b6107bb565b6040516101589190610f48565b60405180910390f35b6101696107c4565b6040516101769190611025565b60405180910390f35b610187610927565b6040516101949190611088565b60405180910390f35b6000818051602081018201805184825260208301602085012081835280955050505050506000915090508060000180546101d6906110d2565b80601f0160208091040260200160405190810160405280929190818152602001828054610202906110d2565b801561024f5780601f106102245761010080835404028352916020019161024f565b820191906000526020600020905b81548152906001019060200180831161023257829003601f168201915b5050505050905081565b600360009054906101000a900473ffffffffffffffffffffffffffffffffffffffff1673ffffffffffffffffffffffffffffffffffffffff163373ffffffffffffffffffffffffffffffffffffffff16146102e9576040517f08c379a00000000000000000000000000000000000000000000000000000000081526004016102e09061114f565b60405180910390fd5b600080826040516102fa91906111ab565b908152602001604051809103902090508181600001908051906020019061032292919061094d565b5060016000815480929190610336906111f1565b919050555060028290806001815401808255809150506001900390600052602060002001600090919091909150908051906020019061037692919061094d565b505050565b6002818154811061038b57600080fd5b9060005260206000200160009150905080546103a6906110d2565b80601f01602080910402602001604051908101604052809291908181526020018280546103d2906110d2565b801561041f5780601f106103f45761010080835404028352916020019161041f565b820191906000526020600020905b81548152906001019060200180831161040257829003601f168201915b505050505081565b600360009054906101000a900473ffffffffffffffffffffffffffffffffffffffff1673ffffffffffffffffffffffffffffffffffffffff163373ffffffffffffffffffffffffffffffffffffffff16146104b7576040517f08c379a00000000000000000000000000000000000000000000000000000000081526004016104ae90611285565b60405180910390fd5b6000836040516104c791906111ab565b9081526020016040518091039020600101604051806060016040528084815260200183815260200160008152509080600181540180825580915050600190039060005260206000209060030201600090919091909150600082015181600001908051906020019061053992919061094d565b50602082015181600101908051906020019061055692919061094d565b50604082015181600201555050505050565b6105706109d3565b600060405161057e906112f1565b90815260200160405180910390206040518060400160405290816000820180546105a7906110d2565b80601f01602080910402602001604051908101604052809291908181526020018280546105d3906110d2565b80156106205780601f106105f557610100808354040283529160200191610620565b820191906000526020600020905b81548152906001019060200180831161060357829003601f168201915b5050505050815260200160018201805480602002602001604051908101604052809291908181526020016000905b828210156107ae5783829060005260206000209060030201604051806060016040529081600082018054610681906110d2565b80601f01602080910402602001604051908101604052809291908181526020018280546106ad906110d2565b80156106fa5780601f106106cf576101008083540402835291602001916106fa565b820191906000526020600020905b8154815290600101906020018083116106dd57829003601f168201915b50505050508152602001600182018054610713906110d2565b80601f016020809104026020016040519081016040528092919081815260200182805461073f906110d2565b801561078c5780601f106107615761010080835404028352916020019161078c565b820191906000526020600020905b81548152906001019060200180831161076f57829003601f168201915b505050505081526020016002820154815250508152602001906001019061064e565b5050505081525050905090565b6000607b905090565b6060600060015467ffffffffffffffff8111156107e4576107e3610a39565b5b60405190808252806020026020018201604052801561081757816020015b60608152602001906001900390816108025790505b50905060005b60015481101561091f5760006002828154811061083d5761083c611306565b5b9060005260206000200160405161085491906113c9565b90815260200160405180910390206000018054610870906110d2565b80601f016020809104026020016040519081016040528092919081815260200182805461089c906110d2565b80156108e95780601f106108be576101008083540402835291602001916108e9565b820191906000526020600020905b8154815290600101906020018083116108cc57829003601f168201915b505050505082828151811061090157610900611306565b5b60200260200101819052508080610917906111f1565b91505061081d565b508091505090565b600360009054906101000a900473ffffffffffffffffffffffffffffffffffffffff1681565b828054610959906110d2565b90600052602060002090601f01602090048101928261097b57600085556109c2565b82601f1061099457805160ff19168380011785556109c2565b828001600101855582156109c2579182015b828111156109c15782518255916020019190600101906109a6565b5b5090506109cf91906109ed565b5090565b604051806040016040528060608152602001606081525090565b5b80821115610a065760008160009055506001016109ee565b5090565b6000604051905090565b600080fd5b600080fd5b600080fd5b600080fd5b6000601f19601f8301169050919050565b7f4e487b7100000000000000000000000000000000000000000000000000000000600052604160045260246000fd5b610a7182610a28565b810181811067ffffffffffffffff82111715610a9057610a8f610a39565b5b80604052505050565b6000610aa3610a0a565b9050610aaf8282610a68565b919050565b600067ffffffffffffffff821115610acf57610ace610a39565b5b610ad882610a28565b9050602081019050919050565b82818337600083830152505050565b6000610b07610b0284610ab4565b610a99565b905082815260208101848484011115610b2357610b22610a23565b5b610b2e848285610ae5565b509392505050565b600082601f830112610b4b57610b4a610a1e565b5b8135610b5b848260208601610af4565b91505092915050565b600060208284031215610b7a57610b79610a14565b5b600082013567ffffffffffffffff811115610b9857610b97610a19565b5b610ba484828501610b36565b91505092915050565b600081519050919050565b600082825260208201905092915050565b60005b83811015610be7578082015181840152602081019050610bcc565b83811115610bf6576000848401525b50505050565b6000610c0782610bad565b610c118185610bb8565b9350610c21818560208601610bc9565b610c2a81610a28565b840191505092915050565b60006020820190508181036000830152610c4f8184610bfc565b905092915050565b6000819050919050565b610c6a81610c57565b8114610c7557600080fd5b50565b600081359050610c8781610c61565b92915050565b600060208284031215610ca357610ca2610a14565b5b6000610cb184828501610c78565b91505092915050565b600080600060608486031215610cd357610cd2610a14565b5b600084013567ffffffffffffffff811115610cf157610cf0610a19565b5b610cfd86828701610b36565b935050602084013567ffffffffffffffff811115610d1e57610d1d610a19565b5b610d2a86828701610b36565b925050604084013567ffffffffffffffff811115610d4b57610d4a610a19565b5b610d5786828701610b36565b9150509250925092565b600082825260208201905092915050565b6000610d7d82610bad565b610d878185610d61565b9350610d97818560208601610bc9565b610da081610a28565b840191505092915050565b600081519050919050565b600082825260208201905092915050565b6000819050602082019050919050565b610de081610c57565b82525050565b60006060830160008301518482036000860152610e038282610d72565b91505060208301518482036020860152610e1d8282610d72565b9150506040830151610e326040860182610dd7565b508091505092915050565b6000610e498383610de6565b905092915050565b6000602082019050919050565b6000610e6982610dab565b610e738185610db6565b935083602082028501610e8585610dc7565b8060005b85811015610ec15784840389528151610ea28582610e3d565b9450610ead83610e51565b925060208a01995050600181019050610e89565b50829750879550505050505092915050565b60006040830160008301518482036000860152610ef08282610d72565b91505060208301518482036020860152610f0a8282610e5e565b9150508091505092915050565b60006020820190508181036000830152610f318184610ed3565b905092915050565b610f4281610c57565b82525050565b6000602082019050610f5d6000830184610f39565b92915050565b600081519050919050565b600082825260208201905092915050565b6000819050602082019050919050565b6000610f9b8383610d72565b905092915050565b6000602082019050919050565b6000610fbb82610f63565b610fc58185610f6e565b935083602082028501610fd785610f7f565b8060005b858110156110135784840389528151610ff48582610f8f565b9450610fff83610fa3565b925060208a01995050600181019050610fdb565b50829750879550505050505092915050565b6000602082019050818103600083015261103f8184610fb0565b905092915050565b600073ffffffffffffffffffffffffffffffffffffffff82169050919050565b600061107282611047565b9050919050565b61108281611067565b82525050565b600060208201905061109d6000830184611079565b92915050565b7f4e487b7100000000000000000000000000000000000000000000000000000000600052602260045260246000fd5b600060028204905060018216806110ea57607f821691505b6020821081036110fd576110fc6110a3565b5b50919050565b7f4f6e6c792061646d696e2063616e20737461727420612063616d706169676e00600082015250565b6000611139601f83610bb8565b915061114482611103565b602082019050919050565b600060208201905081810360008301526111688161112c565b9050919050565b600081905092915050565b600061118582610bad565b61118f818561116f565b935061119f818560208601610bc9565b80840191505092915050565b60006111b7828461117a565b915081905092915050565b7f4e487b7100000000000000000000000000000000000000000000000000000000600052601160045260246000fd5b60006111fc82610c57565b91507fffffffffffffffffffffffffffffffffffffffffffffffffffffffffffffffff820361122e5761122d6111c2565b5b600182019050919050565b7f4f6e6c792061646d696e2063616e2061646420612063616e6469646174650000600082015250565b600061126f601e83610bb8565b915061127a82611239565b602082019050919050565b6000602082019050818103600083015261129e81611262565b9050919050565b7f3131323200000000000000000000000000000000000000000000000000000000600082015250565b60006112db60048361116f565b91506112e6826112a5565b600482019050919050565b60006112fc826112ce565b9150819050919050565b7f4e487b7100000000000000000000000000000000000000000000000000000000600052603260045260246000fd5b60008190508160005260206000209050919050565b60008154611357816110d2565b611361818661116f565b9450600182166000811461137c576001811461138d576113c0565b60ff198316865281860193506113c0565b61139685611335565b60005b838110156113b857815481890152600182019150602081019050611399565b838801955050505b50505092915050565b60006113d5828461134a565b91508190509291505056fea264697066735822122007887829192b3a2de1b0fd9036fa586bbf91a3a60803aed39877c50611b398c464736f6c634300080d0033",
					"opcodes": "PUSH1 0x80 PUSH1 0x40 MSTORE CALLVALUE DUP1 ISZERO PUSH2 0x10 JUMPI PUSH1 0x0 DUP1 REVERT JUMPDEST POP CALLER PUSH1 0x3 PUSH1 0x0 PUSH2 0x100 EXP DUP2 SLOAD DUP2 PUSH20 0xFFFFFFFFFFFFFFFFFFFFFFFFFFFFFFFFFFFFFFFF MUL NOT AND SWAP1 DUP4 PUSH20 0xFFFFFFFFFFFFFFFFFFFFFFFFFFFFFFFFFFFFFFFF AND MUL OR SWAP1 SSTORE POP PUSH2 0x1416 DUP1 PUSH2 0x61 PUSH1 0x0 CODECOPY PUSH1 0x0 RETURN INVALID PUSH1 0x80 PUSH1 0x40 MSTORE CALLVALUE DUP1 ISZERO PUSH2 0x10 JUMPI PUSH1 0x0 DUP1 REVERT JUMPDEST POP PUSH1 0x4 CALLDATASIZE LT PUSH2 0x88 JUMPI PUSH1 0x0 CALLDATALOAD PUSH1 0xE0 SHR DUP1 PUSH4 0x86CDF604 GT PUSH2 0x5B JUMPI DUP1 PUSH4 0x86CDF604 EQ PUSH2 0x125 JUMPI DUP1 PUSH4 0xBF80F44A EQ PUSH2 0x143 JUMPI DUP1 PUSH4 0xC157B6F5 EQ PUSH2 0x161 JUMPI DUP1 PUSH4 0xF851A440 EQ PUSH2 0x17F JUMPI PUSH2 0x88 JUMP JUMPDEST DUP1 PUSH4 0x1D39E509 EQ PUSH2 0x8D JUMPI DUP1 PUSH4 0x202E7BE4 EQ PUSH2 0xBD JUMPI DUP1 PUSH4 0x6F732627 EQ PUSH2 0xD9 JUMPI DUP1 PUSH4 0x76DC15A7 EQ PUSH2 0x109 JUMPI JUMPDEST PUSH1 0x0 DUP1 REVERT JUMPDEST PUSH2 0xA7 PUSH1 0x4 DUP1 CALLDATASIZE SUB DUP2 ADD SWAP1 PUSH2 0xA2 SWAP2 SWAP1 PUSH2 0xB64 JUMP JUMPDEST PUSH2 0x19D JUMP JUMPDEST PUSH1 0x40 MLOAD PUSH2 0xB4 SWAP2 SWAP1 PUSH2 0xC35 JUMP JUMPDEST PUSH1 0x40 MLOAD DUP1 SWAP2 SUB SWAP1 RETURN JUMPDEST PUSH2 0xD7 PUSH1 0x4 DUP1 CALLDATASIZE SUB DUP2 ADD SWAP1 PUSH2 0xD2 SWAP2 SWAP1 PUSH2 0xB64 JUMP JUMPDEST PUSH2 0x259 JUMP JUMPDEST STOP JUMPDEST PUSH2 0xF3 PUSH1 0x4 DUP1 CALLDATASIZE SUB DUP2 ADD SWAP1 PUSH2 0xEE SWAP2 SWAP1 PUSH2 0xC8D JUMP JUMPDEST PUSH2 0x37B JUMP JUMPDEST PUSH1 0x40 MLOAD PUSH2 0x100 SWAP2 SWAP1 PUSH2 0xC35 JUMP JUMPDEST PUSH1 0x40 MLOAD DUP1 SWAP2 SUB SWAP1 RETURN JUMPDEST PUSH2 0x123 PUSH1 0x4 DUP1 CALLDATASIZE SUB DUP2 ADD SWAP1 PUSH2 0x11E SWAP2 SWAP1 PUSH2 0xCBA JUMP JUMPDEST PUSH2 0x427 JUMP JUMPDEST STOP JUMPDEST PUSH2 0x12D PUSH2 0x568 JUMP JUMPDEST PUSH1 0x40 MLOAD PUSH2 0x13A SWAP2 SWAP1 PUSH2 0xF17 JUMP JUMPDEST PUSH1 0x40 MLOAD DUP1 SWAP2 SUB SWAP1 RETURN JUMPDEST PUSH2 0x14B PUSH2 0x7BB JUMP JUMPDEST PUSH1 0x40 MLOAD PUSH2 0x158 SWAP2 SWAP1 PUSH2 0xF48 JUMP JUMPDEST PUSH1 0x40 MLOAD DUP1 SWAP2 SUB SWAP1 RETURN JUMPDEST PUSH2 0x169 PUSH2 0x7C4 JUMP JUMPDEST PUSH1 0x40 MLOAD PUSH2 0x176 SWAP2 SWAP1 PUSH2 0x1025 JUMP JUMPDEST PUSH1 0x40 MLOAD DUP1 SWAP2 SUB SWAP1 RETURN JUMPDEST PUSH2 0x187 PUSH2 0x927 JUMP JUMPDEST PUSH1 0x40 MLOAD PUSH2 0x194 SWAP2 SWAP1 PUSH2 0x1088 JUMP JUMPDEST PUSH1 0x40 MLOAD DUP1 SWAP2 SUB SWAP1 RETURN JUMPDEST PUSH1 0x0 DUP2 DUP1 MLOAD PUSH1 0x20 DUP2 ADD DUP3 ADD DUP1 MLOAD DUP5 DUP3 MSTORE PUSH1 0x20 DUP4 ADD PUSH1 0x20 DUP6 ADD KECCAK256 DUP2 DUP4 MSTORE DUP1 SWAP6 POP POP POP POP POP POP PUSH1 0x0 SWAP2 POP SWAP1 POP DUP1 PUSH1 0x0 ADD DUP1 SLOAD PUSH2 0x1D6 SWAP1 PUSH2 0x10D2 JUMP JUMPDEST DUP1 PUSH1 0x1F ADD PUSH1 0x20 DUP1 SWAP2 DIV MUL PUSH1 0x20 ADD PUSH1 0x40 MLOAD SWAP1 DUP2 ADD PUSH1 0x40 MSTORE DUP1 SWAP3 SWAP2 SWAP1 DUP2 DUP2 MSTORE PUSH1 0x20 ADD DUP3 DUP1 SLOAD PUSH2 0x202 SWAP1 PUSH2 0x10D2 JUMP JUMPDEST DUP1 ISZERO PUSH2 0x24F JUMPI DUP1 PUSH1 0x1F LT PUSH2 0x224 JUMPI PUSH2 0x100 DUP1 DUP4 SLOAD DIV MUL DUP4 MSTORE SWAP2 PUSH1 0x20 ADD SWAP2 PUSH2 0x24F JUMP JUMPDEST DUP3 ADD SWAP2 SWAP1 PUSH1 0x0 MSTORE PUSH1 0x20 PUSH1 0x0 KECCAK256 SWAP1 JUMPDEST DUP2 SLOAD DUP2 MSTORE SWAP1 PUSH1 0x1 ADD SWAP1 PUSH1 0x20 ADD DUP1 DUP4 GT PUSH2 0x232 JUMPI DUP3 SWAP1 SUB PUSH1 0x1F AND DUP3 ADD SWAP2 JUMPDEST POP POP POP POP POP SWAP1 POP DUP2 JUMP JUMPDEST PUSH1 0x3 PUSH1 0x0 SWAP1 SLOAD SWAP1 PUSH2 0x100 EXP SWAP1 DIV PUSH20 0xFFFFFFFFFFFFFFFFFFFFFFFFFFFFFFFFFFFFFFFF AND PUSH20 0xFFFFFFFFFFFFFFFFFFFFFFFFFFFFFFFFFFFFFFFF AND CALLER PUSH20 0xFFFFFFFFFFFFFFFFFFFFFFFFFFFFFFFFFFFFFFFF AND EQ PUSH2 0x2E9 JUMPI PUSH1 0x40 MLOAD PUSH32 0x8C379A000000000000000000000000000000000000000000000000000000000 DUP2 MSTORE PUSH1 0x4 ADD PUSH2 0x2E0 SWAP1 PUSH2 0x114F JUMP JUMPDEST PUSH1 0x40 MLOAD DUP1 SWAP2 SUB SWAP1 REVERT JUMPDEST PUSH1 0x0 DUP1 DUP3 PUSH1 0x40 MLOAD PUSH2 0x2FA SWAP2 SWAP1 PUSH2 0x11AB JUMP JUMPDEST SWAP1 DUP2 MSTORE PUSH1 0x20 ADD PUSH1 0x40 MLOAD DUP1 SWAP2 SUB SWAP1 KECCAK256 SWAP1 POP DUP2 DUP2 PUSH1 0x0 ADD SWAP1 DUP1 MLOAD SWAP1 PUSH1 0x20 ADD SWAP1 PUSH2 0x322 SWAP3 SWAP2 SWAP1 PUSH2 0x94D JUMP JUMPDEST POP PUSH1 0x1 PUSH1 0x0 DUP2 SLOAD DUP1 SWAP3 SWAP2 SWAP1 PUSH2 0x336 SWAP1 PUSH2 0x11F1 JUMP JUMPDEST SWAP2 SWAP1 POP SSTORE POP PUSH1 0x2 DUP3 SWAP1 DUP1 PUSH1 0x1 DUP2 SLOAD ADD DUP1 DUP3 SSTORE DUP1 SWAP2 POP POP PUSH1 0x1 SWAP1 SUB SWAP1 PUSH1 0x0 MSTORE PUSH1 0x20 PUSH1 0x0 KECCAK256 ADD PUSH1 0x0 SWAP1 SWAP2 SWAP1 SWAP2 SWAP1 SWAP2 POP SWAP1 DUP1 MLOAD SWAP1 PUSH1 0x20 ADD SWAP1 PUSH2 0x376 SWAP3 SWAP2 SWAP1 PUSH2 0x94D JUMP JUMPDEST POP POP POP JUMP JUMPDEST PUSH1 0x2 DUP2 DUP2 SLOAD DUP2 LT PUSH2 0x38B JUMPI PUSH1 0x0 DUP1 REVERT JUMPDEST SWAP1 PUSH1 0x0 MSTORE PUSH1 0x20 PUSH1 0x0 KECCAK256 ADD PUSH1 0x0 SWAP2 POP SWAP1 POP DUP1 SLOAD PUSH2 0x3A6 SWAP1 PUSH2 0x10D2 JUMP JUMPDEST DUP1 PUSH1 0x1F ADD PUSH1 0x20 DUP1 SWAP2 DIV MUL PUSH1 0x20 ADD PUSH1 0x40 MLOAD SWAP1 DUP2 ADD PUSH1 0x40 MSTORE DUP1 SWAP3 SWAP2 SWAP1 DUP2 DUP2 MSTORE PUSH1 0x20 ADD DUP3 DUP1 SLOAD PUSH2 0x3D2 SWAP1 PUSH2 0x10D2 JUMP JUMPDEST DUP1 ISZERO PUSH2 0x41F JUMPI DUP1 PUSH1 0x1F LT PUSH2 0x3F4 JUMPI PUSH2 0x100 DUP1 DUP4 SLOAD DIV MUL DUP4 MSTORE SWAP2 PUSH1 0x20 ADD SWAP2 PUSH2 0x41F JUMP JUMPDEST DUP3 ADD SWAP2 SWAP1 PUSH1 0x0 MSTORE PUSH1 0x20 PUSH1 0x0 KECCAK256 SWAP1 JUMPDEST DUP2 SLOAD DUP2 MSTORE SWAP1 PUSH1 0x1 ADD SWAP1 PUSH1 0x20 ADD DUP1 DUP4 GT PUSH2 0x402 JUMPI DUP3 SWAP1 SUB PUSH1 0x1F AND DUP3 ADD SWAP2 JUMPDEST POP POP POP POP POP DUP2 JUMP JUMPDEST PUSH1 0x3 PUSH1 0x0 SWAP1 SLOAD SWAP1 PUSH2 0x100 EXP SWAP1 DIV PUSH20 0xFFFFFFFFFFFFFFFFFFFFFFFFFFFFFFFFFFFFFFFF AND PUSH20 0xFFFFFFFFFFFFFFFFFFFFFFFFFFFFFFFFFFFFFFFF AND CALLER PUSH20 0xFFFFFFFFFFFFFFFFFFFFFFFFFFFFFFFFFFFFFFFF AND EQ PUSH2 0x4B7 JUMPI PUSH1 0x40 MLOAD PUSH32 0x8C379A000000000000000000000000000000000000000000000000000000000 DUP2 MSTORE PUSH1 0x4 ADD PUSH2 0x4AE SWAP1 PUSH2 0x1285 JUMP JUMPDEST PUSH1 0x40 MLOAD DUP1 SWAP2 SUB SWAP1 REVERT JUMPDEST PUSH1 0x0 DUP4 PUSH1 0x40 MLOAD PUSH2 0x4C7 SWAP2 SWAP1 PUSH2 0x11AB JUMP JUMPDEST SWAP1 DUP2 MSTORE PUSH1 0x20 ADD PUSH1 0x40 MLOAD DUP1 SWAP2 SUB SWAP1 KECCAK256 PUSH1 0x1 ADD PUSH1 0x40 MLOAD DUP1 PUSH1 0x60 ADD PUSH1 0x40 MSTORE DUP1 DUP5 DUP2 MSTORE PUSH1 0x20 ADD DUP4 DUP2 MSTORE PUSH1 0x20 ADD PUSH1 0x0 DUP2 MSTORE POP SWAP1 DUP1 PUSH1 0x1 DUP2 SLOAD ADD DUP1 DUP3 SSTORE DUP1 SWAP2 POP POP PUSH1 0x1 SWAP1 SUB SWAP1 PUSH1 0x0 MSTORE PUSH1 0x20 PUSH1 0x0 KECCAK256 SWAP1 PUSH1 0x3 MUL ADD PUSH1 0x0 SWAP1 SWAP2 SWAP1 SWAP2 SWAP1 SWAP2 POP PUSH1 0x0 DUP3 ADD MLOAD DUP2 PUSH1 0x0 ADD SWAP1 DUP1 MLOAD SWAP1 PUSH1 0x20 ADD SWAP1 PUSH2 0x539 SWAP3 SWAP2 SWAP1 PUSH2 0x94D JUMP JUMPDEST POP PUSH1 0x20 DUP3 ADD MLOAD DUP2 PUSH1 0x1 ADD SWAP1 DUP1 MLOAD SWAP1 PUSH1 0x20 ADD SWAP1 PUSH2 0x556 SWAP3 SWAP2 SWAP1 PUSH2 0x94D JUMP JUMPDEST POP PUSH1 0x40 DUP3 ADD MLOAD DUP2 PUSH1 0x2 ADD SSTORE POP POP POP POP POP JUMP JUMPDEST PUSH2 0x570 PUSH2 0x9D3 JUMP JUMPDEST PUSH1 0x0 PUSH1 0x40 MLOAD PUSH2 0x57E SWAP1 PUSH2 0x12F1 JUMP JUMPDEST SWAP1 DUP2 MSTORE PUSH1 0x20 ADD PUSH1 0x40 MLOAD DUP1 SWAP2 SUB SWAP1 KECCAK256 PUSH1 0x40 MLOAD DUP1 PUSH1 0x40 ADD PUSH1 0x40 MSTORE SWAP1 DUP2 PUSH1 0x0 DUP3 ADD DUP1 SLOAD PUSH2 0x5A7 SWAP1 PUSH2 0x10D2 JUMP JUMPDEST DUP1 PUSH1 0x1F ADD PUSH1 0x20 DUP1 SWAP2 DIV MUL PUSH1 0x20 ADD PUSH1 0x40 MLOAD SWAP1 DUP2 ADD PUSH1 0x40 MSTORE DUP1 SWAP3 SWAP2 SWAP1 DUP2 DUP2 MSTORE PUSH1 0x20 ADD DUP3 DUP1 SLOAD PUSH2 0x5D3 SWAP1 PUSH2 0x10D2 JUMP JUMPDEST DUP1 ISZERO PUSH2 0x620 JUMPI DUP1 PUSH1 0x1F LT PUSH2 0x5F5 JUMPI PUSH2 0x100 DUP1 DUP4 SLOAD DIV MUL DUP4 MSTORE SWAP2 PUSH1 0x20 ADD SWAP2 PUSH2 0x620 JUMP JUMPDEST DUP3 ADD SWAP2 SWAP1 PUSH1 0x0 MSTORE PUSH1 0x20 PUSH1 0x0 KECCAK256 SWAP1 JUMPDEST DUP2 SLOAD DUP2 MSTORE SWAP1 PUSH1 0x1 ADD SWAP1 PUSH1 0x20 ADD DUP1 DUP4 GT PUSH2 0x603 JUMPI DUP3 SWAP1 SUB PUSH1 0x1F AND DUP3 ADD SWAP2 JUMPDEST POP POP POP POP POP DUP2 MSTORE PUSH1 0x20 ADD PUSH1 0x1 DUP3 ADD DUP1 SLOAD DUP1 PUSH1 0x20 MUL PUSH1 0x20 ADD PUSH1 0x40 MLOAD SWAP1 DUP2 ADD PUSH1 0x40 MSTORE DUP1 SWAP3 SWAP2 SWAP1 DUP2 DUP2 MSTORE PUSH1 0x20 ADD PUSH1 0x0 SWAP1 JUMPDEST DUP3 DUP3 LT ISZERO PUSH2 0x7AE JUMPI DUP4 DUP3 SWAP1 PUSH1 0x0 MSTORE PUSH1 0x20 PUSH1 0x0 KECCAK256 SWAP1 PUSH1 0x3 MUL ADD PUSH1 0x40 MLOAD DUP1 PUSH1 0x60 ADD PUSH1 0x40 MSTORE SWAP1 DUP2 PUSH1 0x0 DUP3 ADD DUP1 SLOAD PUSH2 0x681 SWAP1 PUSH2 0x10D2 JUMP JUMPDEST DUP1 PUSH1 0x1F ADD PUSH1 0x20 DUP1 SWAP2 DIV MUL PUSH1 0x20 ADD PUSH1 0x40 MLOAD SWAP1 DUP2 ADD PUSH1 0x40 MSTORE DUP1 SWAP3 SWAP2 SWAP1 DUP2 DUP2 MSTORE PUSH1 0x20 ADD DUP3 DUP1 SLOAD PUSH2 0x6AD SWAP1 PUSH2 0x10D2 JUMP JUMPDEST DUP1 ISZERO PUSH2 0x6FA JUMPI DUP1 PUSH1 0x1F LT PUSH2 0x6CF JUMPI PUSH2 0x100 DUP1 DUP4 SLOAD DIV MUL DUP4 MSTORE SWAP2 PUSH1 0x20 ADD SWAP2 PUSH2 0x6FA JUMP JUMPDEST DUP3 ADD SWAP2 SWAP1 PUSH1 0x0 MSTORE PUSH1 0x20 PUSH1 0x0 KECCAK256 SWAP1 JUMPDEST DUP2 SLOAD DUP2 MSTORE SWAP1 PUSH1 0x1 ADD SWAP1 PUSH1 0x20 ADD DUP1 DUP4 GT PUSH2 0x6DD JUMPI DUP3 SWAP1 SUB PUSH1 0x1F AND DUP3 ADD SWAP2 JUMPDEST POP POP POP POP POP DUP2 MSTORE PUSH1 0x20 ADD PUSH1 0x1 DUP3 ADD DUP1 SLOAD PUSH2 0x713 SWAP1 PUSH2 0x10D2 JUMP JUMPDEST DUP1 PUSH1 0x1F ADD PUSH1 0x20 DUP1 SWAP2 DIV MUL PUSH1 0x20 ADD PUSH1 0x40 MLOAD SWAP1 DUP2 ADD PUSH1 0x40 MSTORE DUP1 SWAP3 SWAP2 SWAP1 DUP2 DUP2 MSTORE PUSH1 0x20 ADD DUP3 DUP1 SLOAD PUSH2 0x73F SWAP1 PUSH2 0x10D2 JUMP JUMPDEST DUP1 ISZERO PUSH2 0x78C JUMPI DUP1 PUSH1 0x1F LT PUSH2 0x761 JUMPI PUSH2 0x100 DUP1 DUP4 SLOAD DIV MUL DUP4 MSTORE SWAP2 PUSH1 0x20 ADD SWAP2 PUSH2 0x78C JUMP JUMPDEST DUP3 ADD SWAP2 SWAP1 PUSH1 0x0 MSTORE PUSH1 0x20 PUSH1 0x0 KECCAK256 SWAP1 JUMPDEST DUP2 SLOAD DUP2 MSTORE SWAP1 PUSH1 0x1 ADD SWAP1 PUSH1 0x20 ADD DUP1 DUP4 GT PUSH2 0x76F JUMPI DUP3 SWAP1 SUB PUSH1 0x1F AND DUP3 ADD SWAP2 JUMPDEST POP POP POP POP POP DUP2 MSTORE PUSH1 0x20 ADD PUSH1 0x2 DUP3 ADD SLOAD DUP2 MSTORE POP POP DUP2 MSTORE PUSH1 0x20 ADD SWAP1 PUSH1 0x1 ADD SWAP1 PUSH2 0x64E JUMP JUMPDEST POP POP POP POP DUP2 MSTORE POP POP SWAP1 POP SWAP1 JUMP JUMPDEST PUSH1 0x0 PUSH1 0x7B SWAP1 POP SWAP1 JUMP JUMPDEST PUSH1 0x60 PUSH1 0x0 PUSH1 0x1 SLOAD PUSH8 0xFFFFFFFFFFFFFFFF DUP2 GT ISZERO PUSH2 0x7E4 JUMPI PUSH2 0x7E3 PUSH2 0xA39 JUMP JUMPDEST JUMPDEST PUSH1 0x40 MLOAD SWAP1 DUP1 DUP3 MSTORE DUP1 PUSH1 0x20 MUL PUSH1 0x20 ADD DUP3 ADD PUSH1 0x40 MSTORE DUP1 ISZERO PUSH2 0x817 JUMPI DUP2 PUSH1 0x20 ADD JUMPDEST PUSH1 0x60 DUP2 MSTORE PUSH1 0x20 ADD SWAP1 PUSH1 0x1 SWAP1 SUB SWAP1 DUP2 PUSH2 0x802 JUMPI SWAP1 POP JUMPDEST POP SWAP1 POP PUSH1 0x0 JUMPDEST PUSH1 0x1 SLOAD DUP2 LT ISZERO PUSH2 0x91F JUMPI PUSH1 0x0 PUSH1 0x2 DUP3 DUP2 SLOAD DUP2 LT PUSH2 0x83D JUMPI PUSH2 0x83C PUSH2 0x1306 JUMP JUMPDEST JUMPDEST SWAP1 PUSH1 0x0 MSTORE PUSH1 0x20 PUSH1 0x0 KECCAK256 ADD PUSH1 0x40 MLOAD PUSH2 0x854 SWAP2 SWAP1 PUSH2 0x13C9 JUMP JUMPDEST SWAP1 DUP2 MSTORE PUSH1 0x20 ADD PUSH1 0x40 MLOAD DUP1 SWAP2 SUB SWAP1 KECCAK256 PUSH1 0x0 ADD DUP1 SLOAD PUSH2 0x870 SWAP1 PUSH2 0x10D2 JUMP JUMPDEST DUP1 PUSH1 0x1F ADD PUSH1 0x20 DUP1 SWAP2 DIV MUL PUSH1 0x20 ADD PUSH1 0x40 MLOAD SWAP1 DUP2 ADD PUSH1 0x40 MSTORE DUP1 SWAP3 SWAP2 SWAP1 DUP2 DUP2 MSTORE PUSH1 0x20 ADD DUP3 DUP1 SLOAD PUSH2 0x89C SWAP1 PUSH2 0x10D2 JUMP JUMPDEST DUP1 ISZERO PUSH2 0x8E9 JUMPI DUP1 PUSH1 0x1F LT PUSH2 0x8BE JUMPI PUSH2 0x100 DUP1 DUP4 SLOAD DIV MUL DUP4 MSTORE SWAP2 PUSH1 0x20 ADD SWAP2 PUSH2 0x8E9 JUMP JUMPDEST DUP3 ADD SWAP2 SWAP1 PUSH1 0x0 MSTORE PUSH1 0x20 PUSH1 0x0 KECCAK256 SWAP1 JUMPDEST DUP2 SLOAD DUP2 MSTORE SWAP1 PUSH1 0x1 ADD SWAP1 PUSH1 0x20 ADD DUP1 DUP4 GT PUSH2 0x8CC JUMPI DUP3 SWAP1 SUB PUSH1 0x1F AND DUP3 ADD SWAP2 JUMPDEST POP POP POP POP POP DUP3 DUP3 DUP2 MLOAD DUP2 LT PUSH2 0x901 JUMPI PUSH2 0x900 PUSH2 0x1306 JUMP JUMPDEST JUMPDEST PUSH1 0x20 MUL PUSH1 0x20 ADD ADD DUP2 SWAP1 MSTORE POP DUP1 DUP1 PUSH2 0x917 SWAP1 PUSH2 0x11F1 JUMP JUMPDEST SWAP2 POP POP PUSH2 0x81D JUMP JUMPDEST POP DUP1 SWAP2 POP POP SWAP1 JUMP JUMPDEST PUSH1 0x3 PUSH1 0x0 SWAP1 SLOAD SWAP1 PUSH2 0x100 EXP SWAP1 DIV PUSH20 0xFFFFFFFFFFFFFFFFFFFFFFFFFFFFFFFFFFFFFFFF AND DUP2 JUMP JUMPDEST DUP3 DUP1 SLOAD PUSH2 0x959 SWAP1 PUSH2 0x10D2 JUMP JUMPDEST SWAP1 PUSH1 0x0 MSTORE PUSH1 0x20 PUSH1 0x0 KECCAK256 SWAP1 PUSH1 0x1F ADD PUSH1 0x20 SWAP1 DIV DUP2 ADD SWAP3 DUP3 PUSH2 0x97B JUMPI PUSH1 0x0 DUP6 SSTORE PUSH2 0x9C2 JUMP JUMPDEST DUP3 PUSH1 0x1F LT PUSH2 0x994 JUMPI DUP1 MLOAD PUSH1 0xFF NOT AND DUP4 DUP1 ADD OR DUP6 SSTORE PUSH2 0x9C2 JUMP JUMPDEST DUP3 DUP1 ADD PUSH1 0x1 ADD DUP6 SSTORE DUP3 ISZERO PUSH2 0x9C2 JUMPI SWAP2 DUP3 ADD JUMPDEST DUP3 DUP2 GT ISZERO PUSH2 0x9C1 JUMPI DUP3 MLOAD DUP3 SSTORE SWAP2 PUSH1 0x20 ADD SWAP2 SWAP1 PUSH1 0x1 ADD SWAP1 PUSH2 0x9A6 JUMP JUMPDEST JUMPDEST POP SWAP1 POP PUSH2 0x9CF SWAP2 SWAP1 PUSH2 0x9ED JUMP JUMPDEST POP SWAP1 JUMP JUMPDEST PUSH1 0x40 MLOAD DUP1 PUSH1 0x40 ADD PUSH1 0x40 MSTORE DUP1 PUSH1 0x60 DUP2 MSTORE PUSH1 0x20 ADD PUSH1 0x60 DUP2 MSTORE POP SWAP1 JUMP JUMPDEST JUMPDEST DUP1 DUP3 GT ISZERO PUSH2 0xA06 JUMPI PUSH1 0x0 DUP2 PUSH1 0x0 SWAP1 SSTORE POP PUSH1 0x1 ADD PUSH2 0x9EE JUMP JUMPDEST POP SWAP1 JUMP JUMPDEST PUSH1 0x0 PUSH1 0x40 MLOAD SWAP1 POP SWAP1 JUMP JUMPDEST PUSH1 0x0 DUP1 REVERT JUMPDEST PUSH1 0x0 DUP1 REVERT JUMPDEST PUSH1 0x0 DUP1 REVERT JUMPDEST PUSH1 0x0 DUP1 REVERT JUMPDEST PUSH1 0x0 PUSH1 0x1F NOT PUSH1 0x1F DUP4 ADD AND SWAP1 POP SWAP2 SWAP1 POP JUMP JUMPDEST PUSH32 0x4E487B7100000000000000000000000000000000000000000000000000000000 PUSH1 0x0 MSTORE PUSH1 0x41 PUSH1 0x4 MSTORE PUSH1 0x24 PUSH1 0x0 REVERT JUMPDEST PUSH2 0xA71 DUP3 PUSH2 0xA28 JUMP JUMPDEST DUP2 ADD DUP2 DUP2 LT PUSH8 0xFFFFFFFFFFFFFFFF DUP3 GT OR ISZERO PUSH2 0xA90 JUMPI PUSH2 0xA8F PUSH2 0xA39 JUMP JUMPDEST JUMPDEST DUP1 PUSH1 0x40 MSTORE POP POP POP JUMP JUMPDEST PUSH1 0x0 PUSH2 0xAA3 PUSH2 0xA0A JUMP JUMPDEST SWAP1 POP PUSH2 0xAAF DUP3 DUP3 PUSH2 0xA68 JUMP JUMPDEST SWAP2 SWAP1 POP JUMP JUMPDEST PUSH1 0x0 PUSH8 0xFFFFFFFFFFFFFFFF DUP3 GT ISZERO PUSH2 0xACF JUMPI PUSH2 0xACE PUSH2 0xA39 JUMP JUMPDEST JUMPDEST PUSH2 0xAD8 DUP3 PUSH2 0xA28 JUMP JUMPDEST SWAP1 POP PUSH1 0x20 DUP2 ADD SWAP1 POP SWAP2 SWAP1 POP JUMP JUMPDEST DUP3 DUP2 DUP4 CALLDATACOPY PUSH1 0x0 DUP4 DUP4 ADD MSTORE POP POP POP JUMP JUMPDEST PUSH1 0x0 PUSH2 0xB07 PUSH2 0xB02 DUP5 PUSH2 0xAB4 JUMP JUMPDEST PUSH2 0xA99 JUMP JUMPDEST SWAP1 POP DUP3 DUP2 MSTORE PUSH1 0x20 DUP2 ADD DUP5 DUP5 DUP5 ADD GT ISZERO PUSH2 0xB23 JUMPI PUSH2 0xB22 PUSH2 0xA23 JUMP JUMPDEST JUMPDEST PUSH2 0xB2E DUP5 DUP3 DUP6 PUSH2 0xAE5 JUMP JUMPDEST POP SWAP4 SWAP3 POP POP POP JUMP JUMPDEST PUSH1 0x0 DUP3 PUSH1 0x1F DUP4 ADD SLT PUSH2 0xB4B JUMPI PUSH2 0xB4A PUSH2 0xA1E JUMP JUMPDEST JUMPDEST DUP2 CALLDATALOAD PUSH2 0xB5B DUP5 DUP3 PUSH1 0x20 DUP7 ADD PUSH2 0xAF4 JUMP JUMPDEST SWAP2 POP POP SWAP3 SWAP2 POP POP JUMP JUMPDEST PUSH1 0x0 PUSH1 0x20 DUP3 DUP5 SUB SLT ISZERO PUSH2 0xB7A JUMPI PUSH2 0xB79 PUSH2 0xA14 JUMP JUMPDEST JUMPDEST PUSH1 0x0 DUP3 ADD CALLDATALOAD PUSH8 0xFFFFFFFFFFFFFFFF DUP2 GT ISZERO PUSH2 0xB98 JUMPI PUSH2 0xB97 PUSH2 0xA19 JUMP JUMPDEST JUMPDEST PUSH2 0xBA4 DUP5 DUP3 DUP6 ADD PUSH2 0xB36 JUMP JUMPDEST SWAP2 POP POP SWAP3 SWAP2 POP POP JUMP JUMPDEST PUSH1 0x0 DUP2 MLOAD SWAP1 POP SWAP2 SWAP1 POP JUMP JUMPDEST PUSH1 0x0 DUP3 DUP3 MSTORE PUSH1 0x20 DUP3 ADD SWAP1 POP SWAP3 SWAP2 POP POP JUMP JUMPDEST PUSH1 0x0 JUMPDEST DUP4 DUP2 LT ISZERO PUSH2 0xBE7 JUMPI DUP1 DUP3 ADD MLOAD DUP2 DUP5 ADD MSTORE PUSH1 0x20 DUP2 ADD SWAP1 POP PUSH2 0xBCC JUMP JUMPDEST DUP4 DUP2 GT ISZERO PUSH2 0xBF6 JUMPI PUSH1 0x0 DUP5 DUP5 ADD MSTORE JUMPDEST POP POP POP POP JUMP JUMPDEST PUSH1 0x0 PUSH2 0xC07 DUP3 PUSH2 0xBAD JUMP JUMPDEST PUSH2 0xC11 DUP2 DUP6 PUSH2 0xBB8 JUMP JUMPDEST SWAP4 POP PUSH2 0xC21 DUP2 DUP6 PUSH1 0x20 DUP7 ADD PUSH2 0xBC9 JUMP JUMPDEST PUSH2 0xC2A DUP2 PUSH2 0xA28 JUMP JUMPDEST DUP5 ADD SWAP2 POP POP SWAP3 SWAP2 POP POP JUMP JUMPDEST PUSH1 0x0 PUSH1 0x20 DUP3 ADD SWAP1 POP DUP2 DUP2 SUB PUSH1 0x0 DUP4 ADD MSTORE PUSH2 0xC4F DUP2 DUP5 PUSH2 0xBFC JUMP JUMPDEST SWAP1 POP SWAP3 SWAP2 POP POP JUMP JUMPDEST PUSH1 0x0 DUP2 SWAP1 POP SWAP2 SWAP1 POP JUMP JUMPDEST PUSH2 0xC6A DUP2 PUSH2 0xC57 JUMP JUMPDEST DUP2 EQ PUSH2 0xC75 JUMPI PUSH1 0x0 DUP1 REVERT JUMPDEST POP JUMP JUMPDEST PUSH1 0x0 DUP2 CALLDATALOAD SWAP1 POP PUSH2 0xC87 DUP2 PUSH2 0xC61 JUMP JUMPDEST SWAP3 SWAP2 POP POP JUMP JUMPDEST PUSH1 0x0 PUSH1 0x20 DUP3 DUP5 SUB SLT ISZERO PUSH2 0xCA3 JUMPI PUSH2 0xCA2 PUSH2 0xA14 JUMP JUMPDEST JUMPDEST PUSH1 0x0 PUSH2 0xCB1 DUP5 DUP3 DUP6 ADD PUSH2 0xC78 JUMP JUMPDEST SWAP2 POP POP SWAP3 SWAP2 POP POP JUMP JUMPDEST PUSH1 0x0 DUP1 PUSH1 0x0 PUSH1 0x60 DUP5 DUP7 SUB SLT ISZERO PUSH2 0xCD3 JUMPI PUSH2 0xCD2 PUSH2 0xA14 JUMP JUMPDEST JUMPDEST PUSH1 0x0 DUP5 ADD CALLDATALOAD PUSH8 0xFFFFFFFFFFFFFFFF DUP2 GT ISZERO PUSH2 0xCF1 JUMPI PUSH2 0xCF0 PUSH2 0xA19 JUMP JUMPDEST JUMPDEST PUSH2 0xCFD DUP7 DUP3 DUP8 ADD PUSH2 0xB36 JUMP JUMPDEST SWAP4 POP POP PUSH1 0x20 DUP5 ADD CALLDATALOAD PUSH8 0xFFFFFFFFFFFFFFFF DUP2 GT ISZERO PUSH2 0xD1E JUMPI PUSH2 0xD1D PUSH2 0xA19 JUMP JUMPDEST JUMPDEST PUSH2 0xD2A DUP7 DUP3 DUP8 ADD PUSH2 0xB36 JUMP JUMPDEST SWAP3 POP POP PUSH1 0x40 DUP5 ADD CALLDATALOAD PUSH8 0xFFFFFFFFFFFFFFFF DUP2 GT ISZERO PUSH2 0xD4B JUMPI PUSH2 0xD4A PUSH2 0xA19 JUMP JUMPDEST JUMPDEST PUSH2 0xD57 DUP7 DUP3 DUP8 ADD PUSH2 0xB36 JUMP JUMPDEST SWAP2 POP POP SWAP3 POP SWAP3 POP SWAP3 JUMP JUMPDEST PUSH1 0x0 DUP3 DUP3 MSTORE PUSH1 0x20 DUP3 ADD SWAP1 POP SWAP3 SWAP2 POP POP JUMP JUMPDEST PUSH1 0x0 PUSH2 0xD7D DUP3 PUSH2 0xBAD JUMP JUMPDEST PUSH2 0xD87 DUP2 DUP6 PUSH2 0xD61 JUMP JUMPDEST SWAP4 POP PUSH2 0xD97 DUP2 DUP6 PUSH1 0x20 DUP7 ADD PUSH2 0xBC9 JUMP JUMPDEST PUSH2 0xDA0 DUP2 PUSH2 0xA28 JUMP JUMPDEST DUP5 ADD SWAP2 POP POP SWAP3 SWAP2 POP POP JUMP JUMPDEST PUSH1 0x0 DUP2 MLOAD SWAP1 POP SWAP2 SWAP1 POP JUMP JUMPDEST PUSH1 0x0 DUP3 DUP3 MSTORE PUSH1 0x20 DUP3 ADD SWAP1 POP SWAP3 SWAP2 POP POP JUMP JUMPDEST PUSH1 0x0 DUP2 SWAP1 POP PUSH1 0x20 DUP3 ADD SWAP1 POP SWAP2 SWAP1 POP JUMP JUMPDEST PUSH2 0xDE0 DUP2 PUSH2 0xC57 JUMP JUMPDEST DUP3 MSTORE POP POP JUMP JUMPDEST PUSH1 0x0 PUSH1 0x60 DUP4 ADD PUSH1 0x0 DUP4 ADD MLOAD DUP5 DUP3 SUB PUSH1 0x0 DUP7 ADD MSTORE PUSH2 0xE03 DUP3 DUP3 PUSH2 0xD72 JUMP JUMPDEST SWAP2 POP POP PUSH1 0x20 DUP4 ADD MLOAD DUP5 DUP3 SUB PUSH1 0x20 DUP7 ADD MSTORE PUSH2 0xE1D DUP3 DUP3 PUSH2 0xD72 JUMP JUMPDEST SWAP2 POP POP PUSH1 0x40 DUP4 ADD MLOAD PUSH2 0xE32 PUSH1 0x40 DUP7 ADD DUP3 PUSH2 0xDD7 JUMP JUMPDEST POP DUP1 SWAP2 POP POP SWAP3 SWAP2 POP POP JUMP JUMPDEST PUSH1 0x0 PUSH2 0xE49 DUP4 DUP4 PUSH2 0xDE6 JUMP JUMPDEST SWAP1 POP SWAP3 SWAP2 POP POP JUMP JUMPDEST PUSH1 0x0 PUSH1 0x20 DUP3 ADD SWAP1 POP SWAP2 SWAP1 POP JUMP JUMPDEST PUSH1 0x0 PUSH2 0xE69 DUP3 PUSH2 0xDAB JUMP JUMPDEST PUSH2 0xE73 DUP2 DUP6 PUSH2 0xDB6 JUMP JUMPDEST SWAP4 POP DUP4 PUSH1 0x20 DUP3 MUL DUP6 ADD PUSH2 0xE85 DUP6 PUSH2 0xDC7 JUMP JUMPDEST DUP1 PUSH1 0x0 JUMPDEST DUP6 DUP2 LT ISZERO PUSH2 0xEC1 JUMPI DUP5 DUP5 SUB DUP10 MSTORE DUP2 MLOAD PUSH2 0xEA2 DUP6 DUP3 PUSH2 0xE3D JUMP JUMPDEST SWAP5 POP PUSH2 0xEAD DUP4 PUSH2 0xE51 JUMP JUMPDEST SWAP3 POP PUSH1 0x20 DUP11 ADD SWAP10 POP POP PUSH1 0x1 DUP2 ADD SWAP1 POP PUSH2 0xE89 JUMP JUMPDEST POP DUP3 SWAP8 POP DUP8 SWAP6 POP POP POP POP POP POP SWAP3 SWAP2 POP POP JUMP JUMPDEST PUSH1 0x0 PUSH1 0x40 DUP4 ADD PUSH1 0x0 DUP4 ADD MLOAD DUP5 DUP3 SUB PUSH1 0x0 DUP7 ADD MSTORE PUSH2 0xEF0 DUP3 DUP3 PUSH2 0xD72 JUMP JUMPDEST SWAP2 POP POP PUSH1 0x20 DUP4 ADD MLOAD DUP5 DUP3 SUB PUSH1 0x20 DUP7 ADD MSTORE PUSH2 0xF0A DUP3 DUP3 PUSH2 0xE5E JUMP JUMPDEST SWAP2 POP POP DUP1 SWAP2 POP POP SWAP3 SWAP2 POP POP JUMP JUMPDEST PUSH1 0x0 PUSH1 0x20 DUP3 ADD SWAP1 POP DUP2 DUP2 SUB PUSH1 0x0 DUP4 ADD MSTORE PUSH2 0xF31 DUP2 DUP5 PUSH2 0xED3 JUMP JUMPDEST SWAP1 POP SWAP3 SWAP2 POP POP JUMP JUMPDEST PUSH2 0xF42 DUP2 PUSH2 0xC57 JUMP JUMPDEST DUP3 MSTORE POP POP JUMP JUMPDEST PUSH1 0x0 PUSH1 0x20 DUP3 ADD SWAP1 POP PUSH2 0xF5D PUSH1 0x0 DUP4 ADD DUP5 PUSH2 0xF39 JUMP JUMPDEST SWAP3 SWAP2 POP POP JUMP JUMPDEST PUSH1 0x0 DUP2 MLOAD SWAP1 POP SWAP2 SWAP1 POP JUMP JUMPDEST PUSH1 0x0 DUP3 DUP3 MSTORE PUSH1 0x20 DUP3 ADD SWAP1 POP SWAP3 SWAP2 POP POP JUMP JUMPDEST PUSH1 0x0 DUP2 SWAP1 POP PUSH1 0x20 DUP3 ADD SWAP1 POP SWAP2 SWAP1 POP JUMP JUMPDEST PUSH1 0x0 PUSH2 0xF9B DUP4 DUP4 PUSH2 0xD72 JUMP JUMPDEST SWAP1 POP SWAP3 SWAP2 POP POP JUMP JUMPDEST PUSH1 0x0 PUSH1 0x20 DUP3 ADD SWAP1 POP SWAP2 SWAP1 POP JUMP JUMPDEST PUSH1 0x0 PUSH2 0xFBB DUP3 PUSH2 0xF63 JUMP JUMPDEST PUSH2 0xFC5 DUP2 DUP6 PUSH2 0xF6E JUMP JUMPDEST SWAP4 POP DUP4 PUSH1 0x20 DUP3 MUL DUP6 ADD PUSH2 0xFD7 DUP6 PUSH2 0xF7F JUMP JUMPDEST DUP1 PUSH1 0x0 JUMPDEST DUP6 DUP2 LT ISZERO PUSH2 0x1013 JUMPI DUP5 DUP5 SUB DUP10 MSTORE DUP2 MLOAD PUSH2 0xFF4 DUP6 DUP3 PUSH2 0xF8F JUMP JUMPDEST SWAP5 POP PUSH2 0xFFF DUP4 PUSH2 0xFA3 JUMP JUMPDEST SWAP3 POP PUSH1 0x20 DUP11 ADD SWAP10 POP POP PUSH1 0x1 DUP2 ADD SWAP1 POP PUSH2 0xFDB JUMP JUMPDEST POP DUP3 SWAP8 POP DUP8 SWAP6 POP POP POP POP POP POP SWAP3 SWAP2 POP POP JUMP JUMPDEST PUSH1 0x0 PUSH1 0x20 DUP3 ADD SWAP1 POP DUP2 DUP2 SUB PUSH1 0x0 DUP4 ADD MSTORE PUSH2 0x103F DUP2 DUP5 PUSH2 0xFB0 JUMP JUMPDEST SWAP1 POP SWAP3 SWAP2 POP POP JUMP JUMPDEST PUSH1 0x0 PUSH20 0xFFFFFFFFFFFFFFFFFFFFFFFFFFFFFFFFFFFFFFFF DUP3 AND SWAP1 POP SWAP2 SWAP1 POP JUMP JUMPDEST PUSH1 0x0 PUSH2 0x1072 DUP3 PUSH2 0x1047 JUMP JUMPDEST SWAP1 POP SWAP2 SWAP1 POP JUMP JUMPDEST PUSH2 0x1082 DUP2 PUSH2 0x1067 JUMP JUMPDEST DUP3 MSTORE POP POP JUMP JUMPDEST PUSH1 0x0 PUSH1 0x20 DUP3 ADD SWAP1 POP PUSH2 0x109D PUSH1 0x0 DUP4 ADD DUP5 PUSH2 0x1079 JUMP JUMPDEST SWAP3 SWAP2 POP POP JUMP JUMPDEST PUSH32 0x4E487B7100000000000000000000000000000000000000000000000000000000 PUSH1 0x0 MSTORE PUSH1 0x22 PUSH1 0x4 MSTORE PUSH1 0x24 PUSH1 0x0 REVERT JUMPDEST PUSH1 0x0 PUSH1 0x2 DUP3 DIV SWAP1 POP PUSH1 0x1 DUP3 AND DUP1 PUSH2 0x10EA JUMPI PUSH1 0x7F DUP3 AND SWAP2 POP JUMPDEST PUSH1 0x20 DUP3 LT DUP2 SUB PUSH2 0x10FD JUMPI PUSH2 0x10FC PUSH2 0x10A3 JUMP JUMPDEST JUMPDEST POP SWAP2 SWAP1 POP JUMP JUMPDEST PUSH32 0x4F6E6C792061646D696E2063616E20737461727420612063616D706169676E00 PUSH1 0x0 DUP3 ADD MSTORE POP JUMP JUMPDEST PUSH1 0x0 PUSH2 0x1139 PUSH1 0x1F DUP4 PUSH2 0xBB8 JUMP JUMPDEST SWAP2 POP PUSH2 0x1144 DUP3 PUSH2 0x1103 JUMP JUMPDEST PUSH1 0x20 DUP3 ADD SWAP1 POP SWAP2 SWAP1 POP JUMP JUMPDEST PUSH1 0x0 PUSH1 0x20 DUP3 ADD SWAP1 POP DUP2 DUP2 SUB PUSH1 0x0 DUP4 ADD MSTORE PUSH2 0x1168 DUP2 PUSH2 0x112C JUMP JUMPDEST SWAP1 POP SWAP2 SWAP1 POP JUMP JUMPDEST PUSH1 0x0 DUP2 SWAP1 POP SWAP3 SWAP2 POP POP JUMP JUMPDEST PUSH1 0x0 PUSH2 0x1185 DUP3 PUSH2 0xBAD JUMP JUMPDEST PUSH2 0x118F DUP2 DUP6 PUSH2 0x116F JUMP JUMPDEST SWAP4 POP PUSH2 0x119F DUP2 DUP6 PUSH1 0x20 DUP7 ADD PUSH2 0xBC9 JUMP JUMPDEST DUP1 DUP5 ADD SWAP2 POP POP SWAP3 SWAP2 POP POP JUMP JUMPDEST PUSH1 0x0 PUSH2 0x11B7 DUP3 DUP5 PUSH2 0x117A JUMP JUMPDEST SWAP2 POP DUP2 SWAP1 POP SWAP3 SWAP2 POP POP JUMP JUMPDEST PUSH32 0x4E487B7100000000000000000000000000000000000000000000000000000000 PUSH1 0x0 MSTORE PUSH1 0x11 PUSH1 0x4 MSTORE PUSH1 0x24 PUSH1 0x0 REVERT JUMPDEST PUSH1 0x0 PUSH2 0x11FC DUP3 PUSH2 0xC57 JUMP JUMPDEST SWAP2 POP PUSH32 0xFFFFFFFFFFFFFFFFFFFFFFFFFFFFFFFFFFFFFFFFFFFFFFFFFFFFFFFFFFFFFFFF DUP3 SUB PUSH2 0x122E JUMPI PUSH2 0x122D PUSH2 0x11C2 JUMP JUMPDEST JUMPDEST PUSH1 0x1 DUP3 ADD SWAP1 POP SWAP2 SWAP1 POP JUMP JUMPDEST PUSH32 0x4F6E6C792061646D696E2063616E2061646420612063616E6469646174650000 PUSH1 0x0 DUP3 ADD MSTORE POP JUMP JUMPDEST PUSH1 0x0 PUSH2 0x126F PUSH1 0x1E DUP4 PUSH2 0xBB8 JUMP JUMPDEST SWAP2 POP PUSH2 0x127A DUP3 PUSH2 0x1239 JUMP JUMPDEST PUSH1 0x20 DUP3 ADD SWAP1 POP SWAP2 SWAP1 POP JUMP JUMPDEST PUSH1 0x0 PUSH1 0x20 DUP3 ADD SWAP1 POP DUP2 DUP2 SUB PUSH1 0x0 DUP4 ADD MSTORE PUSH2 0x129E DUP2 PUSH2 0x1262 JUMP JUMPDEST SWAP1 POP SWAP2 SWAP1 POP JUMP JUMPDEST PUSH32 0x3131323200000000000000000000000000000000000000000000000000000000 PUSH1 0x0 DUP3 ADD MSTORE POP JUMP JUMPDEST PUSH1 0x0 PUSH2 0x12DB PUSH1 0x4 DUP4 PUSH2 0x116F JUMP JUMPDEST SWAP2 POP PUSH2 0x12E6 DUP3 PUSH2 0x12A5 JUMP JUMPDEST PUSH1 0x4 DUP3 ADD SWAP1 POP SWAP2 SWAP1 POP JUMP JUMPDEST PUSH1 0x0 PUSH2 0x12FC DUP3 PUSH2 0x12CE JUMP JUMPDEST SWAP2 POP DUP2 SWAP1 POP SWAP2 SWAP1 POP JUMP JUMPDEST PUSH32 0x4E487B7100000000000000000000000000000000000000000000000000000000 PUSH1 0x0 MSTORE PUSH1 0x32 PUSH1 0x4 MSTORE PUSH1 0x24 PUSH1 0x0 REVERT JUMPDEST PUSH1 0x0 DUP2 SWAP1 POP DUP2 PUSH1 0x0 MSTORE PUSH1 0x20 PUSH1 0x0 KECCAK256 SWAP1 POP SWAP2 SWAP1 POP JUMP JUMPDEST PUSH1 0x0 DUP2 SLOAD PUSH2 0x1357 DUP2 PUSH2 0x10D2 JUMP JUMPDEST PUSH2 0x1361 DUP2 DUP7 PUSH2 0x116F JUMP JUMPDEST SWAP5 POP PUSH1 0x1 DUP3 AND PUSH1 0x0 DUP2 EQ PUSH2 0x137C JUMPI PUSH1 0x1 DUP2 EQ PUSH2 0x138D JUMPI PUSH2 0x13C0 JUMP JUMPDEST PUSH1 0xFF NOT DUP4 AND DUP7 MSTORE DUP2 DUP7 ADD SWAP4 POP PUSH2 0x13C0 JUMP JUMPDEST PUSH2 0x1396 DUP6 PUSH2 0x1335 JUMP JUMPDEST PUSH1 0x0 JUMPDEST DUP4 DUP2 LT ISZERO PUSH2 0x13B8 JUMPI DUP2 SLOAD DUP2 DUP10 ADD MSTORE PUSH1 0x1 DUP3 ADD SWAP2 POP PUSH1 0x20 DUP2 ADD SWAP1 POP PUSH2 0x1399 JUMP JUMPDEST DUP4 DUP9 ADD SWAP6 POP POP POP JUMPDEST POP POP POP SWAP3 SWAP2 POP POP JUMP JUMPDEST PUSH1 0x0 PUSH2 0x13D5 DUP3 DUP5 PUSH2 0x134A JUMP JUMPDEST SWAP2 POP DUP2 SWAP1 POP SWAP3 SWAP2 POP POP JUMP INVALID LOG2 PUSH5 0x6970667358 0x22 SLT KECCAK256 SMOD DUP9 PUSH25 0x29192B3A2DE1B0FD9036FA586BBF91A3A60803AED39877C506 GT 0xB3 SWAP9 0xC4 PUSH5 0x736F6C6343 STOP ADDMOD 0xD STOP CALLER "
				},
				"gasEstimates": {
					"creation": {
						"codeDepositCost": "1028400",
						"executionCost": "25333",
						"totalCost": "1053733"
					},
					"external": {
						"addCampaign(string)": "infinite",
						"addCandidates(string,string,string)": "infinite",
						"admin()": "2580",
						"campaigns(string)": "infinite",
						"compaignNames(uint256)": "infinite",
						"getAllCampaigns()": "infinite",
						"getAllCompainNames()": "infinite",
						"getNumResult()": "359"
					}
				},
				"methodIdentifiers": {
					"addCampaign(string)": "202e7be4",
					"addCandidates(string,string,string)": "76dc15a7",
					"admin()": "f851a440",
					"campaigns(string)": "1d39e509",
					"compaignNames(uint256)": "6f732627",
					"getAllCampaigns()": "86cdf604",
					"getAllCompainNames()": "c157b6f5",
					"getNumResult()": "bf80f44a"
				}
			},
			"storageLayout": {
				"storage": [
					{
						"astId": 35,
						"contract": "github/fahadashiq/block-chain/smart-contracts/voting.sol:Voting",
						"label": "campaigns",
						"offset": 0,
						"slot": "0",
						"type": "t_mapping(t_string_memory_ptr,t_struct(Campaign)23_storage)"
					},
					{
						"astId": 37,
						"contract": "github/fahadashiq/block-chain/smart-contracts/voting.sol:Voting",
						"label": "numberOfCampaigns",
						"offset": 0,
						"slot": "1",
						"type": "t_uint256"
					},
					{
						"astId": 40,
						"contract": "github/fahadashiq/block-chain/smart-contracts/voting.sol:Voting",
						"label": "compaignNames",
						"offset": 0,
						"slot": "2",
						"type": "t_array(t_string_storage)dyn_storage"
					},
					{
						"astId": 42,
						"contract": "github/fahadashiq/block-chain/smart-contracts/voting.sol:Voting",
						"label": "admin",
						"offset": 0,
						"slot": "3",
						"type": "t_address"
					}
				],
				"types": {
					"t_address": {
						"encoding": "inplace",
						"label": "address",
						"numberOfBytes": "20"
					},
					"t_array(t_string_storage)dyn_storage": {
						"base": "t_string_storage",
						"encoding": "dynamic_array",
						"label": "string[]",
						"numberOfBytes": "32"
					},
					"t_array(t_struct(Candidate)30_storage)dyn_storage": {
						"base": "t_struct(Candidate)30_storage",
						"encoding": "dynamic_array",
						"label": "struct Voting.Candidate[]",
						"numberOfBytes": "32"
					},
					"t_mapping(t_string_memory_ptr,t_struct(Campaign)23_storage)": {
						"encoding": "mapping",
						"key": "t_string_memory_ptr",
						"label": "mapping(string => struct Voting.Campaign)",
						"numberOfBytes": "32",
						"value": "t_struct(Campaign)23_storage"
					},
					"t_string_memory_ptr": {
						"encoding": "bytes",
						"label": "string",
						"numberOfBytes": "32"
					},
					"t_string_storage": {
						"encoding": "bytes",
						"label": "string",
						"numberOfBytes": "32"
					},
					"t_struct(Campaign)23_storage": {
						"encoding": "inplace",
						"label": "struct Voting.Campaign",
						"members": [
							{
								"astId": 18,
								"contract": "github/fahadashiq/block-chain/smart-contracts/voting.sol:Voting",
								"label": "name",
								"offset": 0,
								"slot": "0",
								"type": "t_string_storage"
							},
							{
								"astId": 22,
								"contract": "github/fahadashiq/block-chain/smart-contracts/voting.sol:Voting",
								"label": "candidates",
								"offset": 0,
								"slot": "1",
								"type": "t_array(t_struct(Candidate)30_storage)dyn_storage"
							}
						],
						"numberOfBytes": "64"
					},
					"t_struct(Candidate)30_storage": {
						"encoding": "inplace",
						"label": "struct Voting.Candidate",
						"members": [
							{
								"astId": 25,
								"contract": "github/fahadashiq/block-chain/smart-contracts/voting.sol:Voting",
								"label": "name",
								"offset": 0,
								"slot": "0",
								"type": "t_string_storage"
							},
							{
								"astId": 27,
								"contract": "github/fahadashiq/block-chain/smart-contracts/voting.sol:Voting",
								"label": "sign",
								"offset": 0,
								"slot": "1",
								"type": "t_string_storage"
							},
							{
								"astId": 29,
								"contract": "github/fahadashiq/block-chain/smart-contracts/voting.sol:Voting",
								"label": "votes",
								"offset": 0,
								"slot": "2",
								"type": "t_uint256"
							}
						],
						"numberOfBytes": "96"
					},
					"t_uint256": {
						"encoding": "inplace",
						"label": "uint256",
						"numberOfBytes": "32"
					}
				}
			},
			"userdoc": {
				"kind": "user",
				"methods": {},
				"version": 1
			}
		}
	}
}