{
	"github/fahadashiq/block-chain/smart-contracts/practice.sol": {
		"Trust": {
			"abi": [
				{
					"inputs": [],
					"stateMutability": "nonpayable",
					"type": "constructor"
				},
				{
					"inputs": [
						{
							"internalType": "address",
							"name": "kid",
							"type": "address"
						},
						{
							"internalType": "uint256",
							"name": "timeToMaturity",
							"type": "uint256"
						}
					],
					"name": "addKid",
					"outputs": [],
					"stateMutability": "payable",
					"type": "function"
				},
				{
					"inputs": [],
					"name": "admin",
					"outputs": [
						{
							"internalType": "address",
							"name": "",
							"type": "address"
						}
					],
					"stateMutability": "view",
					"type": "function"
				},
				{
					"inputs": [
						{
							"internalType": "address",
							"name": "",
							"type": "address"
						}
					],
					"name": "kids",
					"outputs": [
						{
							"internalType": "uint256",
							"name": "amount",
							"type": "uint256"
						},
						{
							"internalType": "uint256",
							"name": "maturity",
							"type": "uint256"
						},
						{
							"internalType": "bool",
							"name": "paid",
							"type": "bool"
						}
					],
					"stateMutability": "view",
					"type": "function"
				},
				{
					"inputs": [],
					"name": "withdraw",
					"outputs": [],
					"stateMutability": "nonpayable",
					"type": "function"
				}
			],
			"devdoc": {
				"kind": "dev",
				"methods": {},
				"version": 1
			},
			"evm": {
				"assembly": "    /* \"github/fahadashiq/block-chain/smart-contracts/practice.sol\":74:1353  contract Trust {\r... */\n  mstore(0x40, 0x80)\n    /* \"github/fahadashiq/block-chain/smart-contracts/practice.sol\":270:321  constructor() {\r... */\n  callvalue\n  dup1\n  iszero\n  tag_1\n  jumpi\n  0x00\n  dup1\n  revert\ntag_1:\n  pop\n    /* \"github/fahadashiq/block-chain/smart-contracts/practice.sol\":303:313  msg.sender */\n  caller\n    /* \"github/fahadashiq/block-chain/smart-contracts/practice.sol\":295:300  admin */\n  0x01\n  0x00\n    /* \"github/fahadashiq/block-chain/smart-contracts/practice.sol\":295:313  admin = msg.sender */\n  0x0100\n  exp\n  dup2\n  sload\n  dup2\n  0xffffffffffffffffffffffffffffffffffffffff\n  mul\n  not\n  and\n  swap1\n  dup4\n  0xffffffffffffffffffffffffffffffffffffffff\n  and\n  mul\n  or\n  swap1\n  sstore\n  pop\n    /* \"github/fahadashiq/block-chain/smart-contracts/practice.sol\":74:1353  contract Trust {\r... */\n  dataSize(sub_0)\n  dup1\n  dataOffset(sub_0)\n  0x00\n  codecopy\n  0x00\n  return\nstop\n\nsub_0: assembly {\n        /* \"github/fahadashiq/block-chain/smart-contracts/practice.sol\":74:1353  contract Trust {\r... */\n      mstore(0x40, 0x80)\n      jumpi(tag_1, lt(calldatasize, 0x04))\n      shr(0xe0, calldataload(0x00))\n      dup1\n      0x2438628c\n      eq\n      tag_2\n      jumpi\n      dup1\n      0x3ccfd60b\n      eq\n      tag_3\n      jumpi\n      dup1\n      0x40990e30\n      eq\n      tag_4\n      jumpi\n      dup1\n      0xf851a440\n      eq\n      tag_5\n      jumpi\n    tag_1:\n      0x00\n      dup1\n      revert\n        /* \"github/fahadashiq/block-chain/smart-contracts/practice.sol\":199:234  mapping(address => Kid) public kids */\n    tag_2:\n      callvalue\n      dup1\n      iszero\n      tag_6\n      jumpi\n      0x00\n      dup1\n      revert\n    tag_6:\n      pop\n      tag_7\n      0x04\n      dup1\n      calldatasize\n      sub\n      dup2\n      add\n      swap1\n      tag_8\n      swap2\n      swap1\n      tag_9\n      jump\t// in\n    tag_8:\n      tag_10\n      jump\t// in\n    tag_7:\n      mload(0x40)\n      tag_11\n      swap4\n      swap3\n      swap2\n      swap1\n      tag_12\n      jump\t// in\n    tag_11:\n      mload(0x40)\n      dup1\n      swap2\n      sub\n      swap1\n      return\n        /* \"github/fahadashiq/block-chain/smart-contracts/practice.sol\":624:911  function withdraw() external {\r... */\n    tag_3:\n      callvalue\n      dup1\n      iszero\n      tag_13\n      jumpi\n      0x00\n      dup1\n      revert\n    tag_13:\n      pop\n      tag_14\n      tag_15\n      jump\t// in\n    tag_14:\n      stop\n        /* \"github/fahadashiq/block-chain/smart-contracts/practice.sol\":329:615  function addKid(address kid, uint timeToMaturity) external payable {\r... */\n    tag_4:\n      tag_16\n      0x04\n      dup1\n      calldatasize\n      sub\n      dup2\n      add\n      swap1\n      tag_17\n      swap2\n      swap1\n      tag_18\n      jump\t// in\n    tag_17:\n      tag_19\n      jump\t// in\n    tag_16:\n      stop\n        /* \"github/fahadashiq/block-chain/smart-contracts/practice.sol\":241:261  address public admin */\n    tag_5:\n      callvalue\n      dup1\n      iszero\n      tag_20\n      jumpi\n      0x00\n      dup1\n      revert\n    tag_20:\n      pop\n      tag_21\n      tag_22\n      jump\t// in\n    tag_21:\n      mload(0x40)\n      tag_23\n      swap2\n      swap1\n      tag_24\n      jump\t// in\n    tag_23:\n      mload(0x40)\n      dup1\n      swap2\n      sub\n      swap1\n      return\n        /* \"github/fahadashiq/block-chain/smart-contracts/practice.sol\":199:234  mapping(address => Kid) public kids */\n    tag_10:\n      mstore(0x20, 0x00)\n      dup1\n      0x00\n      mstore\n      keccak256(0x00, 0x40)\n      0x00\n      swap2\n      pop\n      swap1\n      pop\n      dup1\n      0x00\n      add\n      sload\n      swap1\n      dup1\n      0x01\n      add\n      sload\n      swap1\n      dup1\n      0x02\n      add\n      0x00\n      swap1\n      sload\n      swap1\n      0x0100\n      exp\n      swap1\n      div\n      0xff\n      and\n      swap1\n      pop\n      dup4\n      jump\t// out\n        /* \"github/fahadashiq/block-chain/smart-contracts/practice.sol\":624:911  function withdraw() external {\r... */\n    tag_15:\n        /* \"github/fahadashiq/block-chain/smart-contracts/practice.sol\":664:679  Kid storage kid */\n      0x00\n        /* \"github/fahadashiq/block-chain/smart-contracts/practice.sol\":682:686  kids */\n      dup1\n        /* \"github/fahadashiq/block-chain/smart-contracts/practice.sol\":682:698  kids[msg.sender] */\n      0x00\n        /* \"github/fahadashiq/block-chain/smart-contracts/practice.sol\":687:697  msg.sender */\n      caller\n        /* \"github/fahadashiq/block-chain/smart-contracts/practice.sol\":682:698  kids[msg.sender] */\n      0xffffffffffffffffffffffffffffffffffffffff\n      and\n      0xffffffffffffffffffffffffffffffffffffffff\n      and\n      dup2\n      mstore\n      0x20\n      add\n      swap1\n      dup2\n      mstore\n      0x20\n      add\n      0x00\n      keccak256\n        /* \"github/fahadashiq/block-chain/smart-contracts/practice.sol\":664:698  Kid storage kid = kids[msg.sender] */\n      swap1\n      pop\n        /* \"github/fahadashiq/block-chain/smart-contracts/practice.sol\":736:739  kid */\n      dup1\n        /* \"github/fahadashiq/block-chain/smart-contracts/practice.sol\":736:748  kid.maturity */\n      0x01\n      add\n      sload\n        /* \"github/fahadashiq/block-chain/smart-contracts/practice.sol\":717:732  block.timestamp */\n      timestamp\n        /* \"github/fahadashiq/block-chain/smart-contracts/practice.sol\":717:748  block.timestamp >= kid.maturity */\n      lt\n      iszero\n        /* \"github/fahadashiq/block-chain/smart-contracts/practice.sol\":709:760  require(block.timestamp >= kid.maturity, 'Grow up') */\n      tag_26\n      jumpi\n      mload(0x40)\n      0x08c379a000000000000000000000000000000000000000000000000000000000\n      dup2\n      mstore\n      0x04\n      add\n      tag_27\n      swap1\n      tag_28\n      jump\t// in\n    tag_27:\n      mload(0x40)\n      dup1\n      swap2\n      sub\n      swap1\n      revert\n    tag_26:\n        /* \"github/fahadashiq/block-chain/smart-contracts/practice.sol\":792:793  0 */\n      0x00\n        /* \"github/fahadashiq/block-chain/smart-contracts/practice.sol\":779:782  kid */\n      dup2\n        /* \"github/fahadashiq/block-chain/smart-contracts/practice.sol\":779:789  kid.amount */\n      0x00\n      add\n      sload\n        /* \"github/fahadashiq/block-chain/smart-contracts/practice.sol\":779:793  kid.amount > 0 */\n      gt\n        /* \"github/fahadashiq/block-chain/smart-contracts/practice.sol\":771:798  require(kid.amount > 0, '') */\n      tag_29\n      jumpi\n      mload(0x40)\n      0x08c379a000000000000000000000000000000000000000000000000000000000\n      dup2\n      mstore\n      0x04\n      add\n      tag_30\n      swap1\n      tag_31\n      jump\t// in\n    tag_30:\n      mload(0x40)\n      dup1\n      swap2\n      sub\n      swap1\n      revert\n    tag_29:\n        /* \"github/fahadashiq/block-chain/smart-contracts/practice.sol\":829:834  false */\n      0x00\n        /* \"github/fahadashiq/block-chain/smart-contracts/practice.sol\":817:834  kid.paid == false */\n      iszero\n      iszero\n        /* \"github/fahadashiq/block-chain/smart-contracts/practice.sol\":817:820  kid */\n      dup2\n        /* \"github/fahadashiq/block-chain/smart-contracts/practice.sol\":817:825  kid.paid */\n      0x02\n      add\n      0x00\n      swap1\n      sload\n      swap1\n      0x0100\n      exp\n      swap1\n      div\n      0xff\n      and\n        /* \"github/fahadashiq/block-chain/smart-contracts/practice.sol\":817:834  kid.paid == false */\n      iszero\n      iszero\n      eq\n        /* \"github/fahadashiq/block-chain/smart-contracts/practice.sol\":809:851  require(kid.paid == false, 'Already paid') */\n      tag_32\n      jumpi\n      mload(0x40)\n      0x08c379a000000000000000000000000000000000000000000000000000000000\n      dup2\n      mstore\n      0x04\n      add\n      tag_33\n      swap1\n      tag_34\n      jump\t// in\n    tag_33:\n      mload(0x40)\n      dup1\n      swap2\n      sub\n      swap1\n      revert\n    tag_32:\n        /* \"github/fahadashiq/block-chain/smart-contracts/practice.sol\":870:880  msg.sender */\n      caller\n        /* \"github/fahadashiq/block-chain/smart-contracts/practice.sol\":862:890  payable(msg.sender).transfer */\n      0xffffffffffffffffffffffffffffffffffffffff\n      and\n        /* \"github/fahadashiq/block-chain/smart-contracts/practice.sol\":862:902  payable(msg.sender).transfer(kid.amount) */\n      0x08fc\n        /* \"github/fahadashiq/block-chain/smart-contracts/practice.sol\":891:894  kid */\n      dup3\n        /* \"github/fahadashiq/block-chain/smart-contracts/practice.sol\":891:901  kid.amount */\n      0x00\n      add\n      sload\n        /* \"github/fahadashiq/block-chain/smart-contracts/practice.sol\":862:902  payable(msg.sender).transfer(kid.amount) */\n      swap1\n      dup2\n      iszero\n      mul\n      swap1\n      mload(0x40)\n      0x00\n      mload(0x40)\n      dup1\n      dup4\n      sub\n      dup2\n      dup6\n      dup9\n      dup9\n      call\n      swap4\n      pop\n      pop\n      pop\n      pop\n      iszero\n      dup1\n      iszero\n      tag_36\n      jumpi\n      returndatasize\n      0x00\n      dup1\n      returndatacopy\n      revert(0x00, returndatasize)\n    tag_36:\n      pop\n        /* \"github/fahadashiq/block-chain/smart-contracts/practice.sol\":653:911  {\r... */\n      pop\n        /* \"github/fahadashiq/block-chain/smart-contracts/practice.sol\":624:911  function withdraw() external {\r... */\n      jump\t// out\n        /* \"github/fahadashiq/block-chain/smart-contracts/practice.sol\":329:615  function addKid(address kid, uint timeToMaturity) external payable {\r... */\n    tag_19:\n        /* \"github/fahadashiq/block-chain/smart-contracts/practice.sol\":429:434  admin */\n      0x01\n      0x00\n      swap1\n      sload\n      swap1\n      0x0100\n      exp\n      swap1\n      div\n      0xffffffffffffffffffffffffffffffffffffffff\n      and\n        /* \"github/fahadashiq/block-chain/smart-contracts/practice.sol\":415:434  msg.sender == admin */\n      0xffffffffffffffffffffffffffffffffffffffff\n      and\n        /* \"github/fahadashiq/block-chain/smart-contracts/practice.sol\":415:425  msg.sender */\n      caller\n        /* \"github/fahadashiq/block-chain/smart-contracts/practice.sol\":415:434  msg.sender == admin */\n      0xffffffffffffffffffffffffffffffffffffffff\n      and\n      eq\n        /* \"github/fahadashiq/block-chain/smart-contracts/practice.sol\":407:465  require(msg.sender == admin, 'Only admin can create kids') */\n      tag_38\n      jumpi\n      mload(0x40)\n      0x08c379a000000000000000000000000000000000000000000000000000000000\n      dup2\n      mstore\n      0x04\n      add\n      tag_39\n      swap1\n      tag_40\n      jump\t// in\n    tag_39:\n      mload(0x40)\n      dup1\n      swap2\n      sub\n      swap1\n      revert\n    tag_38:\n        /* \"github/fahadashiq/block-chain/smart-contracts/practice.sol\":504:505  0 */\n      0x00\n        /* \"github/fahadashiq/block-chain/smart-contracts/practice.sol\":484:488  kids */\n      dup1\n        /* \"github/fahadashiq/block-chain/smart-contracts/practice.sol\":484:493  kids[kid] */\n      0x00\n        /* \"github/fahadashiq/block-chain/smart-contracts/practice.sol\":489:492  kid */\n      dup5\n        /* \"github/fahadashiq/block-chain/smart-contracts/practice.sol\":484:493  kids[kid] */\n      0xffffffffffffffffffffffffffffffffffffffff\n      and\n      0xffffffffffffffffffffffffffffffffffffffff\n      and\n      dup2\n      mstore\n      0x20\n      add\n      swap1\n      dup2\n      mstore\n      0x20\n      add\n      0x00\n      keccak256\n        /* \"github/fahadashiq/block-chain/smart-contracts/practice.sol\":484:500  kids[kid].amount */\n      0x00\n      add\n      sload\n        /* \"github/fahadashiq/block-chain/smart-contracts/practice.sol\":484:505  kids[kid].amount == 0 */\n      eq\n        /* \"github/fahadashiq/block-chain/smart-contracts/practice.sol\":476:528  require(kids[kid].amount == 0, 'Kid already exists') */\n      tag_41\n      jumpi\n      mload(0x40)\n      0x08c379a000000000000000000000000000000000000000000000000000000000\n      dup2\n      mstore\n      0x04\n      add\n      tag_42\n      swap1\n      tag_43\n      jump\t// in\n    tag_42:\n      mload(0x40)\n      dup1\n      swap2\n      sub\n      swap1\n      revert\n    tag_41:\n        /* \"github/fahadashiq/block-chain/smart-contracts/practice.sol\":551:607  Kid(msg.value, block.timestamp +  timeToMaturity, false) */\n      mload(0x40)\n      dup1\n      0x60\n      add\n      0x40\n      mstore\n      dup1\n        /* \"github/fahadashiq/block-chain/smart-contracts/practice.sol\":555:564  msg.value */\n      callvalue\n        /* \"github/fahadashiq/block-chain/smart-contracts/practice.sol\":551:607  Kid(msg.value, block.timestamp +  timeToMaturity, false) */\n      dup2\n      mstore\n      0x20\n      add\n        /* \"github/fahadashiq/block-chain/smart-contracts/practice.sol\":585:599  timeToMaturity */\n      dup3\n        /* \"github/fahadashiq/block-chain/smart-contracts/practice.sol\":566:581  block.timestamp */\n      timestamp\n        /* \"github/fahadashiq/block-chain/smart-contracts/practice.sol\":566:599  block.timestamp +  timeToMaturity */\n      tag_44\n      swap2\n      swap1\n      tag_45\n      jump\t// in\n    tag_44:\n        /* \"github/fahadashiq/block-chain/smart-contracts/practice.sol\":551:607  Kid(msg.value, block.timestamp +  timeToMaturity, false) */\n      dup2\n      mstore\n      0x20\n      add\n        /* \"github/fahadashiq/block-chain/smart-contracts/practice.sol\":601:606  false */\n      0x00\n        /* \"github/fahadashiq/block-chain/smart-contracts/practice.sol\":551:607  Kid(msg.value, block.timestamp +  timeToMaturity, false) */\n      iszero\n      iszero\n      dup2\n      mstore\n      pop\n        /* \"github/fahadashiq/block-chain/smart-contracts/practice.sol\":539:543  kids */\n      0x00\n        /* \"github/fahadashiq/block-chain/smart-contracts/practice.sol\":539:548  kids[kid] */\n      dup1\n        /* \"github/fahadashiq/block-chain/smart-contracts/practice.sol\":544:547  kid */\n      dup5\n        /* \"github/fahadashiq/block-chain/smart-contracts/practice.sol\":539:548  kids[kid] */\n      0xffffffffffffffffffffffffffffffffffffffff\n      and\n      0xffffffffffffffffffffffffffffffffffffffff\n      and\n      dup2\n      mstore\n      0x20\n      add\n      swap1\n      dup2\n      mstore\n      0x20\n      add\n      0x00\n      keccak256\n        /* \"github/fahadashiq/block-chain/smart-contracts/practice.sol\":539:607  kids[kid] = Kid(msg.value, block.timestamp +  timeToMaturity, false) */\n      0x00\n      dup3\n      add\n      mload\n      dup2\n      0x00\n      add\n      sstore\n      0x20\n      dup3\n      add\n      mload\n      dup2\n      0x01\n      add\n      sstore\n      0x40\n      dup3\n      add\n      mload\n      dup2\n      0x02\n      add\n      exp(0x0100, 0x00)\n      dup2\n      sload\n      dup2\n      0xff\n      mul\n      not\n      and\n      swap1\n      dup4\n      iszero\n      iszero\n      mul\n      or\n      swap1\n      sstore\n      pop\n      swap1\n      pop\n      pop\n        /* \"github/fahadashiq/block-chain/smart-contracts/practice.sol\":329:615  function addKid(address kid, uint timeToMaturity) external payable {\r... */\n      pop\n      pop\n      jump\t// out\n        /* \"github/fahadashiq/block-chain/smart-contracts/practice.sol\":241:261  address public admin */\n    tag_22:\n      0x01\n      0x00\n      swap1\n      sload\n      swap1\n      0x0100\n      exp\n      swap1\n      div\n      0xffffffffffffffffffffffffffffffffffffffff\n      and\n      dup2\n      jump\t// out\n        /* \"#utility.yul\":7:146   */\n    tag_47:\n        /* \"#utility.yul\":53:58   */\n      0x00\n        /* \"#utility.yul\":91:97   */\n      dup2\n        /* \"#utility.yul\":78:98   */\n      calldataload\n        /* \"#utility.yul\":69:98   */\n      swap1\n      pop\n        /* \"#utility.yul\":107:140   */\n      tag_49\n        /* \"#utility.yul\":134:139   */\n      dup2\n        /* \"#utility.yul\":107:140   */\n      tag_50\n      jump\t// in\n    tag_49:\n        /* \"#utility.yul\":7:146   */\n      swap3\n      swap2\n      pop\n      pop\n      jump\t// out\n        /* \"#utility.yul\":152:291   */\n    tag_51:\n        /* \"#utility.yul\":198:203   */\n      0x00\n        /* \"#utility.yul\":236:242   */\n      dup2\n        /* \"#utility.yul\":223:243   */\n      calldataload\n        /* \"#utility.yul\":214:243   */\n      swap1\n      pop\n        /* \"#utility.yul\":252:285   */\n      tag_53\n        /* \"#utility.yul\":279:284   */\n      dup2\n        /* \"#utility.yul\":252:285   */\n      tag_54\n      jump\t// in\n    tag_53:\n        /* \"#utility.yul\":152:291   */\n      swap3\n      swap2\n      pop\n      pop\n      jump\t// out\n        /* \"#utility.yul\":297:626   */\n    tag_9:\n        /* \"#utility.yul\":356:362   */\n      0x00\n        /* \"#utility.yul\":405:407   */\n      0x20\n        /* \"#utility.yul\":393:402   */\n      dup3\n        /* \"#utility.yul\":384:391   */\n      dup5\n        /* \"#utility.yul\":380:403   */\n      sub\n        /* \"#utility.yul\":376:408   */\n      slt\n        /* \"#utility.yul\":373:492   */\n      iszero\n      tag_56\n      jumpi\n        /* \"#utility.yul\":411:490   */\n      tag_57\n      tag_58\n      jump\t// in\n    tag_57:\n        /* \"#utility.yul\":373:492   */\n    tag_56:\n        /* \"#utility.yul\":531:532   */\n      0x00\n        /* \"#utility.yul\":556:609   */\n      tag_59\n        /* \"#utility.yul\":601:608   */\n      dup5\n        /* \"#utility.yul\":592:598   */\n      dup3\n        /* \"#utility.yul\":581:590   */\n      dup6\n        /* \"#utility.yul\":577:599   */\n      add\n        /* \"#utility.yul\":556:609   */\n      tag_47\n      jump\t// in\n    tag_59:\n        /* \"#utility.yul\":546:609   */\n      swap2\n      pop\n        /* \"#utility.yul\":502:619   */\n      pop\n        /* \"#utility.yul\":297:626   */\n      swap3\n      swap2\n      pop\n      pop\n      jump\t// out\n        /* \"#utility.yul\":632:1106   */\n    tag_18:\n        /* \"#utility.yul\":700:706   */\n      0x00\n        /* \"#utility.yul\":708:714   */\n      dup1\n        /* \"#utility.yul\":757:759   */\n      0x40\n        /* \"#utility.yul\":745:754   */\n      dup4\n        /* \"#utility.yul\":736:743   */\n      dup6\n        /* \"#utility.yul\":732:755   */\n      sub\n        /* \"#utility.yul\":728:760   */\n      slt\n        /* \"#utility.yul\":725:844   */\n      iszero\n      tag_61\n      jumpi\n        /* \"#utility.yul\":763:842   */\n      tag_62\n      tag_58\n      jump\t// in\n    tag_62:\n        /* \"#utility.yul\":725:844   */\n    tag_61:\n        /* \"#utility.yul\":883:884   */\n      0x00\n        /* \"#utility.yul\":908:961   */\n      tag_63\n        /* \"#utility.yul\":953:960   */\n      dup6\n        /* \"#utility.yul\":944:950   */\n      dup3\n        /* \"#utility.yul\":933:942   */\n      dup7\n        /* \"#utility.yul\":929:951   */\n      add\n        /* \"#utility.yul\":908:961   */\n      tag_47\n      jump\t// in\n    tag_63:\n        /* \"#utility.yul\":898:961   */\n      swap3\n      pop\n        /* \"#utility.yul\":854:971   */\n      pop\n        /* \"#utility.yul\":1010:1012   */\n      0x20\n        /* \"#utility.yul\":1036:1089   */\n      tag_64\n        /* \"#utility.yul\":1081:1088   */\n      dup6\n        /* \"#utility.yul\":1072:1078   */\n      dup3\n        /* \"#utility.yul\":1061:1070   */\n      dup7\n        /* \"#utility.yul\":1057:1079   */\n      add\n        /* \"#utility.yul\":1036:1089   */\n      tag_51\n      jump\t// in\n    tag_64:\n        /* \"#utility.yul\":1026:1089   */\n      swap2\n      pop\n        /* \"#utility.yul\":981:1099   */\n      pop\n        /* \"#utility.yul\":632:1106   */\n      swap3\n      pop\n      swap3\n      swap1\n      pop\n      jump\t// out\n        /* \"#utility.yul\":1112:1230   */\n    tag_65:\n        /* \"#utility.yul\":1199:1223   */\n      tag_67\n        /* \"#utility.yul\":1217:1222   */\n      dup2\n        /* \"#utility.yul\":1199:1223   */\n      tag_68\n      jump\t// in\n    tag_67:\n        /* \"#utility.yul\":1194:1197   */\n      dup3\n        /* \"#utility.yul\":1187:1224   */\n      mstore\n        /* \"#utility.yul\":1112:1230   */\n      pop\n      pop\n      jump\t// out\n        /* \"#utility.yul\":1236:1345   */\n    tag_69:\n        /* \"#utility.yul\":1317:1338   */\n      tag_71\n        /* \"#utility.yul\":1332:1337   */\n      dup2\n        /* \"#utility.yul\":1317:1338   */\n      tag_72\n      jump\t// in\n    tag_71:\n        /* \"#utility.yul\":1312:1315   */\n      dup3\n        /* \"#utility.yul\":1305:1339   */\n      mstore\n        /* \"#utility.yul\":1236:1345   */\n      pop\n      pop\n      jump\t// out\n        /* \"#utility.yul\":1351:1717   */\n    tag_73:\n        /* \"#utility.yul\":1493:1496   */\n      0x00\n        /* \"#utility.yul\":1514:1581   */\n      tag_75\n        /* \"#utility.yul\":1578:1580   */\n      0x12\n        /* \"#utility.yul\":1573:1576   */\n      dup4\n        /* \"#utility.yul\":1514:1581   */\n      tag_76\n      jump\t// in\n    tag_75:\n        /* \"#utility.yul\":1507:1581   */\n      swap2\n      pop\n        /* \"#utility.yul\":1590:1683   */\n      tag_77\n        /* \"#utility.yul\":1679:1682   */\n      dup3\n        /* \"#utility.yul\":1590:1683   */\n      tag_78\n      jump\t// in\n    tag_77:\n        /* \"#utility.yul\":1708:1710   */\n      0x20\n        /* \"#utility.yul\":1703:1706   */\n      dup3\n        /* \"#utility.yul\":1699:1711   */\n      add\n        /* \"#utility.yul\":1692:1711   */\n      swap1\n      pop\n        /* \"#utility.yul\":1351:1717   */\n      swap2\n      swap1\n      pop\n      jump\t// out\n        /* \"#utility.yul\":1723:2089   */\n    tag_79:\n        /* \"#utility.yul\":1865:1868   */\n      0x00\n        /* \"#utility.yul\":1886:1953   */\n      tag_81\n        /* \"#utility.yul\":1950:1952   */\n      0x0c\n        /* \"#utility.yul\":1945:1948   */\n      dup4\n        /* \"#utility.yul\":1886:1953   */\n      tag_76\n      jump\t// in\n    tag_81:\n        /* \"#utility.yul\":1879:1953   */\n      swap2\n      pop\n        /* \"#utility.yul\":1962:2055   */\n      tag_82\n        /* \"#utility.yul\":2051:2054   */\n      dup3\n        /* \"#utility.yul\":1962:2055   */\n      tag_83\n      jump\t// in\n    tag_82:\n        /* \"#utility.yul\":2080:2082   */\n      0x20\n        /* \"#utility.yul\":2075:2078   */\n      dup3\n        /* \"#utility.yul\":2071:2083   */\n      add\n        /* \"#utility.yul\":2064:2083   */\n      swap1\n      pop\n        /* \"#utility.yul\":1723:2089   */\n      swap2\n      swap1\n      pop\n      jump\t// out\n        /* \"#utility.yul\":2095:2460   */\n    tag_84:\n        /* \"#utility.yul\":2237:2240   */\n      0x00\n        /* \"#utility.yul\":2258:2324   */\n      tag_86\n        /* \"#utility.yul\":2322:2323   */\n      0x07\n        /* \"#utility.yul\":2317:2320   */\n      dup4\n        /* \"#utility.yul\":2258:2324   */\n      tag_76\n      jump\t// in\n    tag_86:\n        /* \"#utility.yul\":2251:2324   */\n      swap2\n      pop\n        /* \"#utility.yul\":2333:2426   */\n      tag_87\n        /* \"#utility.yul\":2422:2425   */\n      dup3\n        /* \"#utility.yul\":2333:2426   */\n      tag_88\n      jump\t// in\n    tag_87:\n        /* \"#utility.yul\":2451:2453   */\n      0x20\n        /* \"#utility.yul\":2446:2449   */\n      dup3\n        /* \"#utility.yul\":2442:2454   */\n      add\n        /* \"#utility.yul\":2435:2454   */\n      swap1\n      pop\n        /* \"#utility.yul\":2095:2460   */\n      swap2\n      swap1\n      pop\n      jump\t// out\n        /* \"#utility.yul\":2466:2832   */\n    tag_89:\n        /* \"#utility.yul\":2608:2611   */\n      0x00\n        /* \"#utility.yul\":2629:2696   */\n      tag_91\n        /* \"#utility.yul\":2693:2695   */\n      0x1a\n        /* \"#utility.yul\":2688:2691   */\n      dup4\n        /* \"#utility.yul\":2629:2696   */\n      tag_76\n      jump\t// in\n    tag_91:\n        /* \"#utility.yul\":2622:2696   */\n      swap2\n      pop\n        /* \"#utility.yul\":2705:2798   */\n      tag_92\n        /* \"#utility.yul\":2794:2797   */\n      dup3\n        /* \"#utility.yul\":2705:2798   */\n      tag_93\n      jump\t// in\n    tag_92:\n        /* \"#utility.yul\":2823:2825   */\n      0x20\n        /* \"#utility.yul\":2818:2821   */\n      dup3\n        /* \"#utility.yul\":2814:2826   */\n      add\n        /* \"#utility.yul\":2807:2826   */\n      swap1\n      pop\n        /* \"#utility.yul\":2466:2832   */\n      swap2\n      swap1\n      pop\n      jump\t// out\n        /* \"#utility.yul\":2838:3202   */\n    tag_94:\n        /* \"#utility.yul\":2980:2983   */\n      0x00\n        /* \"#utility.yul\":3001:3067   */\n      tag_96\n        /* \"#utility.yul\":3065:3066   */\n      0x00\n        /* \"#utility.yul\":3060:3063   */\n      dup4\n        /* \"#utility.yul\":3001:3067   */\n      tag_76\n      jump\t// in\n    tag_96:\n        /* \"#utility.yul\":2994:3067   */\n      swap2\n      pop\n        /* \"#utility.yul\":3076:3169   */\n      tag_97\n        /* \"#utility.yul\":3165:3168   */\n      dup3\n        /* \"#utility.yul\":3076:3169   */\n      tag_98\n      jump\t// in\n    tag_97:\n        /* \"#utility.yul\":3194:3195   */\n      0x00\n        /* \"#utility.yul\":3189:3192   */\n      dup3\n        /* \"#utility.yul\":3185:3196   */\n      add\n        /* \"#utility.yul\":3178:3196   */\n      swap1\n      pop\n        /* \"#utility.yul\":2838:3202   */\n      swap2\n      swap1\n      pop\n      jump\t// out\n        /* \"#utility.yul\":3208:3326   */\n    tag_99:\n        /* \"#utility.yul\":3295:3319   */\n      tag_101\n        /* \"#utility.yul\":3313:3318   */\n      dup2\n        /* \"#utility.yul\":3295:3319   */\n      tag_102\n      jump\t// in\n    tag_101:\n        /* \"#utility.yul\":3290:3293   */\n      dup3\n        /* \"#utility.yul\":3283:3320   */\n      mstore\n        /* \"#utility.yul\":3208:3326   */\n      pop\n      pop\n      jump\t// out\n        /* \"#utility.yul\":3332:3554   */\n    tag_24:\n        /* \"#utility.yul\":3425:3429   */\n      0x00\n        /* \"#utility.yul\":3463:3465   */\n      0x20\n        /* \"#utility.yul\":3452:3461   */\n      dup3\n        /* \"#utility.yul\":3448:3466   */\n      add\n        /* \"#utility.yul\":3440:3466   */\n      swap1\n      pop\n        /* \"#utility.yul\":3476:3547   */\n      tag_104\n        /* \"#utility.yul\":3544:3545   */\n      0x00\n        /* \"#utility.yul\":3533:3542   */\n      dup4\n        /* \"#utility.yul\":3529:3546   */\n      add\n        /* \"#utility.yul\":3520:3526   */\n      dup5\n        /* \"#utility.yul\":3476:3547   */\n      tag_65\n      jump\t// in\n    tag_104:\n        /* \"#utility.yul\":3332:3554   */\n      swap3\n      swap2\n      pop\n      pop\n      jump\t// out\n        /* \"#utility.yul\":3560:3979   */\n    tag_43:\n        /* \"#utility.yul\":3726:3730   */\n      0x00\n        /* \"#utility.yul\":3764:3766   */\n      0x20\n        /* \"#utility.yul\":3753:3762   */\n      dup3\n        /* \"#utility.yul\":3749:3767   */\n      add\n        /* \"#utility.yul\":3741:3767   */\n      swap1\n      pop\n        /* \"#utility.yul\":3813:3822   */\n      dup2\n        /* \"#utility.yul\":3807:3811   */\n      dup2\n        /* \"#utility.yul\":3803:3823   */\n      sub\n        /* \"#utility.yul\":3799:3800   */\n      0x00\n        /* \"#utility.yul\":3788:3797   */\n      dup4\n        /* \"#utility.yul\":3784:3801   */\n      add\n        /* \"#utility.yul\":3777:3824   */\n      mstore\n        /* \"#utility.yul\":3841:3972   */\n      tag_106\n        /* \"#utility.yul\":3967:3971   */\n      dup2\n        /* \"#utility.yul\":3841:3972   */\n      tag_73\n      jump\t// in\n    tag_106:\n        /* \"#utility.yul\":3833:3972   */\n      swap1\n      pop\n        /* \"#utility.yul\":3560:3979   */\n      swap2\n      swap1\n      pop\n      jump\t// out\n        /* \"#utility.yul\":3985:4404   */\n    tag_34:\n        /* \"#utility.yul\":4151:4155   */\n      0x00\n        /* \"#utility.yul\":4189:4191   */\n      0x20\n        /* \"#utility.yul\":4178:4187   */\n      dup3\n        /* \"#utility.yul\":4174:4192   */\n      add\n        /* \"#utility.yul\":4166:4192   */\n      swap1\n      pop\n        /* \"#utility.yul\":4238:4247   */\n      dup2\n        /* \"#utility.yul\":4232:4236   */\n      dup2\n        /* \"#utility.yul\":4228:4248   */\n      sub\n        /* \"#utility.yul\":4224:4225   */\n      0x00\n        /* \"#utility.yul\":4213:4222   */\n      dup4\n        /* \"#utility.yul\":4209:4226   */\n      add\n        /* \"#utility.yul\":4202:4249   */\n      mstore\n        /* \"#utility.yul\":4266:4397   */\n      tag_108\n        /* \"#utility.yul\":4392:4396   */\n      dup2\n        /* \"#utility.yul\":4266:4397   */\n      tag_79\n      jump\t// in\n    tag_108:\n        /* \"#utility.yul\":4258:4397   */\n      swap1\n      pop\n        /* \"#utility.yul\":3985:4404   */\n      swap2\n      swap1\n      pop\n      jump\t// out\n        /* \"#utility.yul\":4410:4829   */\n    tag_28:\n        /* \"#utility.yul\":4576:4580   */\n      0x00\n        /* \"#utility.yul\":4614:4616   */\n      0x20\n        /* \"#utility.yul\":4603:4612   */\n      dup3\n        /* \"#utility.yul\":4599:4617   */\n      add\n        /* \"#utility.yul\":4591:4617   */\n      swap1\n      pop\n        /* \"#utility.yul\":4663:4672   */\n      dup2\n        /* \"#utility.yul\":4657:4661   */\n      dup2\n        /* \"#utility.yul\":4653:4673   */\n      sub\n        /* \"#utility.yul\":4649:4650   */\n      0x00\n        /* \"#utility.yul\":4638:4647   */\n      dup4\n        /* \"#utility.yul\":4634:4651   */\n      add\n        /* \"#utility.yul\":4627:4674   */\n      mstore\n        /* \"#utility.yul\":4691:4822   */\n      tag_110\n        /* \"#utility.yul\":4817:4821   */\n      dup2\n        /* \"#utility.yul\":4691:4822   */\n      tag_84\n      jump\t// in\n    tag_110:\n        /* \"#utility.yul\":4683:4822   */\n      swap1\n      pop\n        /* \"#utility.yul\":4410:4829   */\n      swap2\n      swap1\n      pop\n      jump\t// out\n        /* \"#utility.yul\":4835:5254   */\n    tag_40:\n        /* \"#utility.yul\":5001:5005   */\n      0x00\n        /* \"#utility.yul\":5039:5041   */\n      0x20\n        /* \"#utility.yul\":5028:5037   */\n      dup3\n        /* \"#utility.yul\":5024:5042   */\n      add\n        /* \"#utility.yul\":5016:5042   */\n      swap1\n      pop\n        /* \"#utility.yul\":5088:5097   */\n      dup2\n        /* \"#utility.yul\":5082:5086   */\n      dup2\n        /* \"#utility.yul\":5078:5098   */\n      sub\n        /* \"#utility.yul\":5074:5075   */\n      0x00\n        /* \"#utility.yul\":5063:5072   */\n      dup4\n        /* \"#utility.yul\":5059:5076   */\n      add\n        /* \"#utility.yul\":5052:5099   */\n      mstore\n        /* \"#utility.yul\":5116:5247   */\n      tag_112\n        /* \"#utility.yul\":5242:5246   */\n      dup2\n        /* \"#utility.yul\":5116:5247   */\n      tag_89\n      jump\t// in\n    tag_112:\n        /* \"#utility.yul\":5108:5247   */\n      swap1\n      pop\n        /* \"#utility.yul\":4835:5254   */\n      swap2\n      swap1\n      pop\n      jump\t// out\n        /* \"#utility.yul\":5260:5679   */\n    tag_31:\n        /* \"#utility.yul\":5426:5430   */\n      0x00\n        /* \"#utility.yul\":5464:5466   */\n      0x20\n        /* \"#utility.yul\":5453:5462   */\n      dup3\n        /* \"#utility.yul\":5449:5467   */\n      add\n        /* \"#utility.yul\":5441:5467   */\n      swap1\n      pop\n        /* \"#utility.yul\":5513:5522   */\n      dup2\n        /* \"#utility.yul\":5507:5511   */\n      dup2\n        /* \"#utility.yul\":5503:5523   */\n      sub\n        /* \"#utility.yul\":5499:5500   */\n      0x00\n        /* \"#utility.yul\":5488:5497   */\n      dup4\n        /* \"#utility.yul\":5484:5501   */\n      add\n        /* \"#utility.yul\":5477:5524   */\n      mstore\n        /* \"#utility.yul\":5541:5672   */\n      tag_114\n        /* \"#utility.yul\":5667:5671   */\n      dup2\n        /* \"#utility.yul\":5541:5672   */\n      tag_94\n      jump\t// in\n    tag_114:\n        /* \"#utility.yul\":5533:5672   */\n      swap1\n      pop\n        /* \"#utility.yul\":5260:5679   */\n      swap2\n      swap1\n      pop\n      jump\t// out\n        /* \"#utility.yul\":5685:6115   */\n    tag_12:\n        /* \"#utility.yul\":5828:5832   */\n      0x00\n        /* \"#utility.yul\":5866:5868   */\n      0x60\n        /* \"#utility.yul\":5855:5864   */\n      dup3\n        /* \"#utility.yul\":5851:5869   */\n      add\n        /* \"#utility.yul\":5843:5869   */\n      swap1\n      pop\n        /* \"#utility.yul\":5879:5950   */\n      tag_116\n        /* \"#utility.yul\":5947:5948   */\n      0x00\n        /* \"#utility.yul\":5936:5945   */\n      dup4\n        /* \"#utility.yul\":5932:5949   */\n      add\n        /* \"#utility.yul\":5923:5929   */\n      dup7\n        /* \"#utility.yul\":5879:5950   */\n      tag_99\n      jump\t// in\n    tag_116:\n        /* \"#utility.yul\":5960:6032   */\n      tag_117\n        /* \"#utility.yul\":6028:6030   */\n      0x20\n        /* \"#utility.yul\":6017:6026   */\n      dup4\n        /* \"#utility.yul\":6013:6031   */\n      add\n        /* \"#utility.yul\":6004:6010   */\n      dup6\n        /* \"#utility.yul\":5960:6032   */\n      tag_99\n      jump\t// in\n    tag_117:\n        /* \"#utility.yul\":6042:6108   */\n      tag_118\n        /* \"#utility.yul\":6104:6106   */\n      0x40\n        /* \"#utility.yul\":6093:6102   */\n      dup4\n        /* \"#utility.yul\":6089:6107   */\n      add\n        /* \"#utility.yul\":6080:6086   */\n      dup5\n        /* \"#utility.yul\":6042:6108   */\n      tag_69\n      jump\t// in\n    tag_118:\n        /* \"#utility.yul\":5685:6115   */\n      swap5\n      swap4\n      pop\n      pop\n      pop\n      pop\n      jump\t// out\n        /* \"#utility.yul\":6202:6371   */\n    tag_76:\n        /* \"#utility.yul\":6286:6297   */\n      0x00\n        /* \"#utility.yul\":6320:6326   */\n      dup3\n        /* \"#utility.yul\":6315:6318   */\n      dup3\n        /* \"#utility.yul\":6308:6327   */\n      mstore\n        /* \"#utility.yul\":6360:6364   */\n      0x20\n        /* \"#utility.yul\":6355:6358   */\n      dup3\n        /* \"#utility.yul\":6351:6365   */\n      add\n        /* \"#utility.yul\":6336:6365   */\n      swap1\n      pop\n        /* \"#utility.yul\":6202:6371   */\n      swap3\n      swap2\n      pop\n      pop\n      jump\t// out\n        /* \"#utility.yul\":6377:6682   */\n    tag_45:\n        /* \"#utility.yul\":6417:6420   */\n      0x00\n        /* \"#utility.yul\":6436:6456   */\n      tag_123\n        /* \"#utility.yul\":6454:6455   */\n      dup3\n        /* \"#utility.yul\":6436:6456   */\n      tag_102\n      jump\t// in\n    tag_123:\n        /* \"#utility.yul\":6431:6456   */\n      swap2\n      pop\n        /* \"#utility.yul\":6470:6490   */\n      tag_124\n        /* \"#utility.yul\":6488:6489   */\n      dup4\n        /* \"#utility.yul\":6470:6490   */\n      tag_102\n      jump\t// in\n    tag_124:\n        /* \"#utility.yul\":6465:6490   */\n      swap3\n      pop\n        /* \"#utility.yul\":6624:6625   */\n      dup3\n        /* \"#utility.yul\":6556:6622   */\n      0xffffffffffffffffffffffffffffffffffffffffffffffffffffffffffffffff\n        /* \"#utility.yul\":6552:6626   */\n      sub\n        /* \"#utility.yul\":6549:6550   */\n      dup3\n        /* \"#utility.yul\":6546:6627   */\n      gt\n        /* \"#utility.yul\":6543:6650   */\n      iszero\n      tag_125\n      jumpi\n        /* \"#utility.yul\":6630:6648   */\n      tag_126\n      tag_127\n      jump\t// in\n    tag_126:\n        /* \"#utility.yul\":6543:6650   */\n    tag_125:\n        /* \"#utility.yul\":6674:6675   */\n      dup3\n        /* \"#utility.yul\":6671:6672   */\n      dup3\n        /* \"#utility.yul\":6667:6676   */\n      add\n        /* \"#utility.yul\":6660:6676   */\n      swap1\n      pop\n        /* \"#utility.yul\":6377:6682   */\n      swap3\n      swap2\n      pop\n      pop\n      jump\t// out\n        /* \"#utility.yul\":6688:6784   */\n    tag_68:\n        /* \"#utility.yul\":6725:6732   */\n      0x00\n        /* \"#utility.yul\":6754:6778   */\n      tag_129\n        /* \"#utility.yul\":6772:6777   */\n      dup3\n        /* \"#utility.yul\":6754:6778   */\n      tag_130\n      jump\t// in\n    tag_129:\n        /* \"#utility.yul\":6743:6778   */\n      swap1\n      pop\n        /* \"#utility.yul\":6688:6784   */\n      swap2\n      swap1\n      pop\n      jump\t// out\n        /* \"#utility.yul\":6790:6880   */\n    tag_72:\n        /* \"#utility.yul\":6824:6831   */\n      0x00\n        /* \"#utility.yul\":6867:6872   */\n      dup2\n        /* \"#utility.yul\":6860:6873   */\n      iszero\n        /* \"#utility.yul\":6853:6874   */\n      iszero\n        /* \"#utility.yul\":6842:6874   */\n      swap1\n      pop\n        /* \"#utility.yul\":6790:6880   */\n      swap2\n      swap1\n      pop\n      jump\t// out\n        /* \"#utility.yul\":6886:7012   */\n    tag_130:\n        /* \"#utility.yul\":6923:6930   */\n      0x00\n        /* \"#utility.yul\":6963:7005   */\n      0xffffffffffffffffffffffffffffffffffffffff\n        /* \"#utility.yul\":6956:6961   */\n      dup3\n        /* \"#utility.yul\":6952:7006   */\n      and\n        /* \"#utility.yul\":6941:7006   */\n      swap1\n      pop\n        /* \"#utility.yul\":6886:7012   */\n      swap2\n      swap1\n      pop\n      jump\t// out\n        /* \"#utility.yul\":7018:7095   */\n    tag_102:\n        /* \"#utility.yul\":7055:7062   */\n      0x00\n        /* \"#utility.yul\":7084:7089   */\n      dup2\n        /* \"#utility.yul\":7073:7089   */\n      swap1\n      pop\n        /* \"#utility.yul\":7018:7095   */\n      swap2\n      swap1\n      pop\n      jump\t// out\n        /* \"#utility.yul\":7101:7281   */\n    tag_127:\n        /* \"#utility.yul\":7149:7226   */\n      0x4e487b7100000000000000000000000000000000000000000000000000000000\n        /* \"#utility.yul\":7146:7147   */\n      0x00\n        /* \"#utility.yul\":7139:7227   */\n      mstore\n        /* \"#utility.yul\":7246:7250   */\n      0x11\n        /* \"#utility.yul\":7243:7244   */\n      0x04\n        /* \"#utility.yul\":7236:7251   */\n      mstore\n        /* \"#utility.yul\":7270:7274   */\n      0x24\n        /* \"#utility.yul\":7267:7268   */\n      0x00\n        /* \"#utility.yul\":7260:7275   */\n      revert\n        /* \"#utility.yul\":7410:7527   */\n    tag_58:\n        /* \"#utility.yul\":7519:7520   */\n      0x00\n        /* \"#utility.yul\":7516:7517   */\n      dup1\n        /* \"#utility.yul\":7509:7521   */\n      revert\n        /* \"#utility.yul\":7533:7701   */\n    tag_78:\n        /* \"#utility.yul\":7673:7693   */\n      0x4b696420616c7265616479206578697374730000000000000000000000000000\n        /* \"#utility.yul\":7669:7670   */\n      0x00\n        /* \"#utility.yul\":7661:7667   */\n      dup3\n        /* \"#utility.yul\":7657:7671   */\n      add\n        /* \"#utility.yul\":7650:7694   */\n      mstore\n        /* \"#utility.yul\":7533:7701   */\n      pop\n      jump\t// out\n        /* \"#utility.yul\":7707:7869   */\n    tag_83:\n        /* \"#utility.yul\":7847:7861   */\n      0x416c726561647920706169640000000000000000000000000000000000000000\n        /* \"#utility.yul\":7843:7844   */\n      0x00\n        /* \"#utility.yul\":7835:7841   */\n      dup3\n        /* \"#utility.yul\":7831:7845   */\n      add\n        /* \"#utility.yul\":7824:7862   */\n      mstore\n        /* \"#utility.yul\":7707:7869   */\n      pop\n      jump\t// out\n        /* \"#utility.yul\":7875:8032   */\n    tag_88:\n        /* \"#utility.yul\":8015:8024   */\n      0x47726f7720757000000000000000000000000000000000000000000000000000\n        /* \"#utility.yul\":8011:8012   */\n      0x00\n        /* \"#utility.yul\":8003:8009   */\n      dup3\n        /* \"#utility.yul\":7999:8013   */\n      add\n        /* \"#utility.yul\":7992:8025   */\n      mstore\n        /* \"#utility.yul\":7875:8032   */\n      pop\n      jump\t// out\n        /* \"#utility.yul\":8038:8214   */\n    tag_93:\n        /* \"#utility.yul\":8178:8206   */\n      0x4f6e6c792061646d696e2063616e20637265617465206b696473000000000000\n        /* \"#utility.yul\":8174:8175   */\n      0x00\n        /* \"#utility.yul\":8166:8172   */\n      dup3\n        /* \"#utility.yul\":8162:8176   */\n      add\n        /* \"#utility.yul\":8155:8207   */\n      mstore\n        /* \"#utility.yul\":8038:8214   */\n      pop\n      jump\t// out\n        /* \"#utility.yul\":8220:8334   */\n    tag_98:\n      pop\n      jump\t// out\n        /* \"#utility.yul\":8340:8462   */\n    tag_50:\n        /* \"#utility.yul\":8413:8437   */\n      tag_144\n        /* \"#utility.yul\":8431:8436   */\n      dup2\n        /* \"#utility.yul\":8413:8437   */\n      tag_68\n      jump\t// in\n    tag_144:\n        /* \"#utility.yul\":8406:8411   */\n      dup2\n        /* \"#utility.yul\":8403:8438   */\n      eq\n        /* \"#utility.yul\":8393:8456   */\n      tag_145\n      jumpi\n        /* \"#utility.yul\":8452:8453   */\n      0x00\n        /* \"#utility.yul\":8449:8450   */\n      dup1\n        /* \"#utility.yul\":8442:8454   */\n      revert\n        /* \"#utility.yul\":8393:8456   */\n    tag_145:\n        /* \"#utility.yul\":8340:8462   */\n      pop\n      jump\t// out\n        /* \"#utility.yul\":8468:8590   */\n    tag_54:\n        /* \"#utility.yul\":8541:8565   */\n      tag_147\n        /* \"#utility.yul\":8559:8564   */\n      dup2\n        /* \"#utility.yul\":8541:8565   */\n      tag_102\n      jump\t// in\n    tag_147:\n        /* \"#utility.yul\":8534:8539   */\n      dup2\n        /* \"#utility.yul\":8531:8566   */\n      eq\n        /* \"#utility.yul\":8521:8584   */\n      tag_148\n      jumpi\n        /* \"#utility.yul\":8580:8581   */\n      0x00\n        /* \"#utility.yul\":8577:8578   */\n      dup1\n        /* \"#utility.yul\":8570:8582   */\n      revert\n        /* \"#utility.yul\":8521:8584   */\n    tag_148:\n        /* \"#utility.yul\":8468:8590   */\n      pop\n      jump\t// out\n\n    auxdata: 0xa26469706673582212207cf34ce74214a525294dfd5c063adc8c7b6620b208e18fd2c8aa317920e1a03f64736f6c63430008070033\n}\n",
				"bytecode": {
					"linkReferences": {},
					"object": "608060405234801561001057600080fd5b5033600160006101000a81548173ffffffffffffffffffffffffffffffffffffffff021916908373ffffffffffffffffffffffffffffffffffffffff1602179055506108bd806100616000396000f3fe60806040526004361061003f5760003560e01c80632438628c146100445780633ccfd60b1461008357806340990e301461009a578063f851a440146100b6575b600080fd5b34801561005057600080fd5b5061006b60048036038101906100669190610494565b6100e1565b60405161007a93929190610698565b60405180910390f35b34801561008f57600080fd5b50610098610118565b005b6100b460048036038101906100af91906104c1565b61028e565b005b3480156100c257600080fd5b506100cb610444565b6040516100d891906105dd565b60405180910390f35b60006020528060005260406000206000915090508060000154908060010154908060020160009054906101000a900460ff16905083565b60008060003373ffffffffffffffffffffffffffffffffffffffff1673ffffffffffffffffffffffffffffffffffffffff168152602001908152602001600020905080600101544210156101a1576040517f08c379a000000000000000000000000000000000000000000000000000000000815260040161019890610638565b60405180910390fd5b60008160000154116101e8576040517f08c379a00000000000000000000000000000000000000000000000000000000081526004016101df90610678565b60405180910390fd5b600015158160020160009054906101000a900460ff16151514610240576040517f08c379a000000000000000000000000000000000000000000000000000000000815260040161023790610618565b60405180910390fd5b3373ffffffffffffffffffffffffffffffffffffffff166108fc82600001549081150290604051600060405180830381858888f1935050505015801561028a573d6000803e3d6000fd5b5050565b600160009054906101000a900473ffffffffffffffffffffffffffffffffffffffff1673ffffffffffffffffffffffffffffffffffffffff163373ffffffffffffffffffffffffffffffffffffffff161461031e576040517f08c379a000000000000000000000000000000000000000000000000000000000815260040161031590610658565b60405180910390fd5b60008060008473ffffffffffffffffffffffffffffffffffffffff1673ffffffffffffffffffffffffffffffffffffffff16815260200190815260200160002060000154146103a2576040517f08c379a0000000000000000000000000000000000000000000000000000000008152600401610399906105f8565b60405180910390fd5b604051806060016040528034815260200182426103bf91906106e0565b8152602001600015158152506000808473ffffffffffffffffffffffffffffffffffffffff1673ffffffffffffffffffffffffffffffffffffffff168152602001908152602001600020600082015181600001556020820151816001015560408201518160020160006101000a81548160ff0219169083151502179055509050505050565b600160009054906101000a900473ffffffffffffffffffffffffffffffffffffffff1681565b60008135905061047981610859565b92915050565b60008135905061048e81610870565b92915050565b6000602082840312156104aa576104a96107ad565b5b60006104b88482850161046a565b91505092915050565b600080604083850312156104d8576104d76107ad565b5b60006104e68582860161046a565b92505060206104f78582860161047f565b9150509250929050565b61050a81610736565b82525050565b61051981610748565b82525050565b600061052c6012836106cf565b9150610537826107b2565b602082019050919050565b600061054f600c836106cf565b915061055a826107db565b602082019050919050565b60006105726007836106cf565b915061057d82610804565b602082019050919050565b6000610595601a836106cf565b91506105a08261082d565b602082019050919050565b60006105b86000836106cf565b91506105c382610856565b600082019050919050565b6105d781610774565b82525050565b60006020820190506105f26000830184610501565b92915050565b600060208201905081810360008301526106118161051f565b9050919050565b6000602082019050818103600083015261063181610542565b9050919050565b6000602082019050818103600083015261065181610565565b9050919050565b6000602082019050818103600083015261067181610588565b9050919050565b60006020820190508181036000830152610691816105ab565b9050919050565b60006060820190506106ad60008301866105ce565b6106ba60208301856105ce565b6106c76040830184610510565b949350505050565b600082825260208201905092915050565b60006106eb82610774565b91506106f683610774565b9250827fffffffffffffffffffffffffffffffffffffffffffffffffffffffffffffffff0382111561072b5761072a61077e565b5b828201905092915050565b600061074182610754565b9050919050565b60008115159050919050565b600073ffffffffffffffffffffffffffffffffffffffff82169050919050565b6000819050919050565b7f4e487b7100000000000000000000000000000000000000000000000000000000600052601160045260246000fd5b600080fd5b7f4b696420616c7265616479206578697374730000000000000000000000000000600082015250565b7f416c726561647920706169640000000000000000000000000000000000000000600082015250565b7f47726f7720757000000000000000000000000000000000000000000000000000600082015250565b7f4f6e6c792061646d696e2063616e20637265617465206b696473000000000000600082015250565b50565b61086281610736565b811461086d57600080fd5b50565b61087981610774565b811461088457600080fd5b5056fea26469706673582212207cf34ce74214a525294dfd5c063adc8c7b6620b208e18fd2c8aa317920e1a03f64736f6c63430008070033",
					"opcodes": "PUSH1 0x80 PUSH1 0x40 MSTORE CALLVALUE DUP1 ISZERO PUSH2 0x10 JUMPI PUSH1 0x0 DUP1 REVERT JUMPDEST POP CALLER PUSH1 0x1 PUSH1 0x0 PUSH2 0x100 EXP DUP2 SLOAD DUP2 PUSH20 0xFFFFFFFFFFFFFFFFFFFFFFFFFFFFFFFFFFFFFFFF MUL NOT AND SWAP1 DUP4 PUSH20 0xFFFFFFFFFFFFFFFFFFFFFFFFFFFFFFFFFFFFFFFF AND MUL OR SWAP1 SSTORE POP PUSH2 0x8BD DUP1 PUSH2 0x61 PUSH1 0x0 CODECOPY PUSH1 0x0 RETURN INVALID PUSH1 0x80 PUSH1 0x40 MSTORE PUSH1 0x4 CALLDATASIZE LT PUSH2 0x3F JUMPI PUSH1 0x0 CALLDATALOAD PUSH1 0xE0 SHR DUP1 PUSH4 0x2438628C EQ PUSH2 0x44 JUMPI DUP1 PUSH4 0x3CCFD60B EQ PUSH2 0x83 JUMPI DUP1 PUSH4 0x40990E30 EQ PUSH2 0x9A JUMPI DUP1 PUSH4 0xF851A440 EQ PUSH2 0xB6 JUMPI JUMPDEST PUSH1 0x0 DUP1 REVERT JUMPDEST CALLVALUE DUP1 ISZERO PUSH2 0x50 JUMPI PUSH1 0x0 DUP1 REVERT JUMPDEST POP PUSH2 0x6B PUSH1 0x4 DUP1 CALLDATASIZE SUB DUP2 ADD SWAP1 PUSH2 0x66 SWAP2 SWAP1 PUSH2 0x494 JUMP JUMPDEST PUSH2 0xE1 JUMP JUMPDEST PUSH1 0x40 MLOAD PUSH2 0x7A SWAP4 SWAP3 SWAP2 SWAP1 PUSH2 0x698 JUMP JUMPDEST PUSH1 0x40 MLOAD DUP1 SWAP2 SUB SWAP1 RETURN JUMPDEST CALLVALUE DUP1 ISZERO PUSH2 0x8F JUMPI PUSH1 0x0 DUP1 REVERT JUMPDEST POP PUSH2 0x98 PUSH2 0x118 JUMP JUMPDEST STOP JUMPDEST PUSH2 0xB4 PUSH1 0x4 DUP1 CALLDATASIZE SUB DUP2 ADD SWAP1 PUSH2 0xAF SWAP2 SWAP1 PUSH2 0x4C1 JUMP JUMPDEST PUSH2 0x28E JUMP JUMPDEST STOP JUMPDEST CALLVALUE DUP1 ISZERO PUSH2 0xC2 JUMPI PUSH1 0x0 DUP1 REVERT JUMPDEST POP PUSH2 0xCB PUSH2 0x444 JUMP JUMPDEST PUSH1 0x40 MLOAD PUSH2 0xD8 SWAP2 SWAP1 PUSH2 0x5DD JUMP JUMPDEST PUSH1 0x40 MLOAD DUP1 SWAP2 SUB SWAP1 RETURN JUMPDEST PUSH1 0x0 PUSH1 0x20 MSTORE DUP1 PUSH1 0x0 MSTORE PUSH1 0x40 PUSH1 0x0 KECCAK256 PUSH1 0x0 SWAP2 POP SWAP1 POP DUP1 PUSH1 0x0 ADD SLOAD SWAP1 DUP1 PUSH1 0x1 ADD SLOAD SWAP1 DUP1 PUSH1 0x2 ADD PUSH1 0x0 SWAP1 SLOAD SWAP1 PUSH2 0x100 EXP SWAP1 DIV PUSH1 0xFF AND SWAP1 POP DUP4 JUMP JUMPDEST PUSH1 0x0 DUP1 PUSH1 0x0 CALLER PUSH20 0xFFFFFFFFFFFFFFFFFFFFFFFFFFFFFFFFFFFFFFFF AND PUSH20 0xFFFFFFFFFFFFFFFFFFFFFFFFFFFFFFFFFFFFFFFF AND DUP2 MSTORE PUSH1 0x20 ADD SWAP1 DUP2 MSTORE PUSH1 0x20 ADD PUSH1 0x0 KECCAK256 SWAP1 POP DUP1 PUSH1 0x1 ADD SLOAD TIMESTAMP LT ISZERO PUSH2 0x1A1 JUMPI PUSH1 0x40 MLOAD PUSH32 0x8C379A000000000000000000000000000000000000000000000000000000000 DUP2 MSTORE PUSH1 0x4 ADD PUSH2 0x198 SWAP1 PUSH2 0x638 JUMP JUMPDEST PUSH1 0x40 MLOAD DUP1 SWAP2 SUB SWAP1 REVERT JUMPDEST PUSH1 0x0 DUP2 PUSH1 0x0 ADD SLOAD GT PUSH2 0x1E8 JUMPI PUSH1 0x40 MLOAD PUSH32 0x8C379A000000000000000000000000000000000000000000000000000000000 DUP2 MSTORE PUSH1 0x4 ADD PUSH2 0x1DF SWAP1 PUSH2 0x678 JUMP JUMPDEST PUSH1 0x40 MLOAD DUP1 SWAP2 SUB SWAP1 REVERT JUMPDEST PUSH1 0x0 ISZERO ISZERO DUP2 PUSH1 0x2 ADD PUSH1 0x0 SWAP1 SLOAD SWAP1 PUSH2 0x100 EXP SWAP1 DIV PUSH1 0xFF AND ISZERO ISZERO EQ PUSH2 0x240 JUMPI PUSH1 0x40 MLOAD PUSH32 0x8C379A000000000000000000000000000000000000000000000000000000000 DUP2 MSTORE PUSH1 0x4 ADD PUSH2 0x237 SWAP1 PUSH2 0x618 JUMP JUMPDEST PUSH1 0x40 MLOAD DUP1 SWAP2 SUB SWAP1 REVERT JUMPDEST CALLER PUSH20 0xFFFFFFFFFFFFFFFFFFFFFFFFFFFFFFFFFFFFFFFF AND PUSH2 0x8FC DUP3 PUSH1 0x0 ADD SLOAD SWAP1 DUP2 ISZERO MUL SWAP1 PUSH1 0x40 MLOAD PUSH1 0x0 PUSH1 0x40 MLOAD DUP1 DUP4 SUB DUP2 DUP6 DUP9 DUP9 CALL SWAP4 POP POP POP POP ISZERO DUP1 ISZERO PUSH2 0x28A JUMPI RETURNDATASIZE PUSH1 0x0 DUP1 RETURNDATACOPY RETURNDATASIZE PUSH1 0x0 REVERT JUMPDEST POP POP JUMP JUMPDEST PUSH1 0x1 PUSH1 0x0 SWAP1 SLOAD SWAP1 PUSH2 0x100 EXP SWAP1 DIV PUSH20 0xFFFFFFFFFFFFFFFFFFFFFFFFFFFFFFFFFFFFFFFF AND PUSH20 0xFFFFFFFFFFFFFFFFFFFFFFFFFFFFFFFFFFFFFFFF AND CALLER PUSH20 0xFFFFFFFFFFFFFFFFFFFFFFFFFFFFFFFFFFFFFFFF AND EQ PUSH2 0x31E JUMPI PUSH1 0x40 MLOAD PUSH32 0x8C379A000000000000000000000000000000000000000000000000000000000 DUP2 MSTORE PUSH1 0x4 ADD PUSH2 0x315 SWAP1 PUSH2 0x658 JUMP JUMPDEST PUSH1 0x40 MLOAD DUP1 SWAP2 SUB SWAP1 REVERT JUMPDEST PUSH1 0x0 DUP1 PUSH1 0x0 DUP5 PUSH20 0xFFFFFFFFFFFFFFFFFFFFFFFFFFFFFFFFFFFFFFFF AND PUSH20 0xFFFFFFFFFFFFFFFFFFFFFFFFFFFFFFFFFFFFFFFF AND DUP2 MSTORE PUSH1 0x20 ADD SWAP1 DUP2 MSTORE PUSH1 0x20 ADD PUSH1 0x0 KECCAK256 PUSH1 0x0 ADD SLOAD EQ PUSH2 0x3A2 JUMPI PUSH1 0x40 MLOAD PUSH32 0x8C379A000000000000000000000000000000000000000000000000000000000 DUP2 MSTORE PUSH1 0x4 ADD PUSH2 0x399 SWAP1 PUSH2 0x5F8 JUMP JUMPDEST PUSH1 0x40 MLOAD DUP1 SWAP2 SUB SWAP1 REVERT JUMPDEST PUSH1 0x40 MLOAD DUP1 PUSH1 0x60 ADD PUSH1 0x40 MSTORE DUP1 CALLVALUE DUP2 MSTORE PUSH1 0x20 ADD DUP3 TIMESTAMP PUSH2 0x3BF SWAP2 SWAP1 PUSH2 0x6E0 JUMP JUMPDEST DUP2 MSTORE PUSH1 0x20 ADD PUSH1 0x0 ISZERO ISZERO DUP2 MSTORE POP PUSH1 0x0 DUP1 DUP5 PUSH20 0xFFFFFFFFFFFFFFFFFFFFFFFFFFFFFFFFFFFFFFFF AND PUSH20 0xFFFFFFFFFFFFFFFFFFFFFFFFFFFFFFFFFFFFFFFF AND DUP2 MSTORE PUSH1 0x20 ADD SWAP1 DUP2 MSTORE PUSH1 0x20 ADD PUSH1 0x0 KECCAK256 PUSH1 0x0 DUP3 ADD MLOAD DUP2 PUSH1 0x0 ADD SSTORE PUSH1 0x20 DUP3 ADD MLOAD DUP2 PUSH1 0x1 ADD SSTORE PUSH1 0x40 DUP3 ADD MLOAD DUP2 PUSH1 0x2 ADD PUSH1 0x0 PUSH2 0x100 EXP DUP2 SLOAD DUP2 PUSH1 0xFF MUL NOT AND SWAP1 DUP4 ISZERO ISZERO MUL OR SWAP1 SSTORE POP SWAP1 POP POP POP POP JUMP JUMPDEST PUSH1 0x1 PUSH1 0x0 SWAP1 SLOAD SWAP1 PUSH2 0x100 EXP SWAP1 DIV PUSH20 0xFFFFFFFFFFFFFFFFFFFFFFFFFFFFFFFFFFFFFFFF AND DUP2 JUMP JUMPDEST PUSH1 0x0 DUP2 CALLDATALOAD SWAP1 POP PUSH2 0x479 DUP2 PUSH2 0x859 JUMP JUMPDEST SWAP3 SWAP2 POP POP JUMP JUMPDEST PUSH1 0x0 DUP2 CALLDATALOAD SWAP1 POP PUSH2 0x48E DUP2 PUSH2 0x870 JUMP JUMPDEST SWAP3 SWAP2 POP POP JUMP JUMPDEST PUSH1 0x0 PUSH1 0x20 DUP3 DUP5 SUB SLT ISZERO PUSH2 0x4AA JUMPI PUSH2 0x4A9 PUSH2 0x7AD JUMP JUMPDEST JUMPDEST PUSH1 0x0 PUSH2 0x4B8 DUP5 DUP3 DUP6 ADD PUSH2 0x46A JUMP JUMPDEST SWAP2 POP POP SWAP3 SWAP2 POP POP JUMP JUMPDEST PUSH1 0x0 DUP1 PUSH1 0x40 DUP4 DUP6 SUB SLT ISZERO PUSH2 0x4D8 JUMPI PUSH2 0x4D7 PUSH2 0x7AD JUMP JUMPDEST JUMPDEST PUSH1 0x0 PUSH2 0x4E6 DUP6 DUP3 DUP7 ADD PUSH2 0x46A JUMP JUMPDEST SWAP3 POP POP PUSH1 0x20 PUSH2 0x4F7 DUP6 DUP3 DUP7 ADD PUSH2 0x47F JUMP JUMPDEST SWAP2 POP POP SWAP3 POP SWAP3 SWAP1 POP JUMP JUMPDEST PUSH2 0x50A DUP2 PUSH2 0x736 JUMP JUMPDEST DUP3 MSTORE POP POP JUMP JUMPDEST PUSH2 0x519 DUP2 PUSH2 0x748 JUMP JUMPDEST DUP3 MSTORE POP POP JUMP JUMPDEST PUSH1 0x0 PUSH2 0x52C PUSH1 0x12 DUP4 PUSH2 0x6CF JUMP JUMPDEST SWAP2 POP PUSH2 0x537 DUP3 PUSH2 0x7B2 JUMP JUMPDEST PUSH1 0x20 DUP3 ADD SWAP1 POP SWAP2 SWAP1 POP JUMP JUMPDEST PUSH1 0x0 PUSH2 0x54F PUSH1 0xC DUP4 PUSH2 0x6CF JUMP JUMPDEST SWAP2 POP PUSH2 0x55A DUP3 PUSH2 0x7DB JUMP JUMPDEST PUSH1 0x20 DUP3 ADD SWAP1 POP SWAP2 SWAP1 POP JUMP JUMPDEST PUSH1 0x0 PUSH2 0x572 PUSH1 0x7 DUP4 PUSH2 0x6CF JUMP JUMPDEST SWAP2 POP PUSH2 0x57D DUP3 PUSH2 0x804 JUMP JUMPDEST PUSH1 0x20 DUP3 ADD SWAP1 POP SWAP2 SWAP1 POP JUMP JUMPDEST PUSH1 0x0 PUSH2 0x595 PUSH1 0x1A DUP4 PUSH2 0x6CF JUMP JUMPDEST SWAP2 POP PUSH2 0x5A0 DUP3 PUSH2 0x82D JUMP JUMPDEST PUSH1 0x20 DUP3 ADD SWAP1 POP SWAP2 SWAP1 POP JUMP JUMPDEST PUSH1 0x0 PUSH2 0x5B8 PUSH1 0x0 DUP4 PUSH2 0x6CF JUMP JUMPDEST SWAP2 POP PUSH2 0x5C3 DUP3 PUSH2 0x856 JUMP JUMPDEST PUSH1 0x0 DUP3 ADD SWAP1 POP SWAP2 SWAP1 POP JUMP JUMPDEST PUSH2 0x5D7 DUP2 PUSH2 0x774 JUMP JUMPDEST DUP3 MSTORE POP POP JUMP JUMPDEST PUSH1 0x0 PUSH1 0x20 DUP3 ADD SWAP1 POP PUSH2 0x5F2 PUSH1 0x0 DUP4 ADD DUP5 PUSH2 0x501 JUMP JUMPDEST SWAP3 SWAP2 POP POP JUMP JUMPDEST PUSH1 0x0 PUSH1 0x20 DUP3 ADD SWAP1 POP DUP2 DUP2 SUB PUSH1 0x0 DUP4 ADD MSTORE PUSH2 0x611 DUP2 PUSH2 0x51F JUMP JUMPDEST SWAP1 POP SWAP2 SWAP1 POP JUMP JUMPDEST PUSH1 0x0 PUSH1 0x20 DUP3 ADD SWAP1 POP DUP2 DUP2 SUB PUSH1 0x0 DUP4 ADD MSTORE PUSH2 0x631 DUP2 PUSH2 0x542 JUMP JUMPDEST SWAP1 POP SWAP2 SWAP1 POP JUMP JUMPDEST PUSH1 0x0 PUSH1 0x20 DUP3 ADD SWAP1 POP DUP2 DUP2 SUB PUSH1 0x0 DUP4 ADD MSTORE PUSH2 0x651 DUP2 PUSH2 0x565 JUMP JUMPDEST SWAP1 POP SWAP2 SWAP1 POP JUMP JUMPDEST PUSH1 0x0 PUSH1 0x20 DUP3 ADD SWAP1 POP DUP2 DUP2 SUB PUSH1 0x0 DUP4 ADD MSTORE PUSH2 0x671 DUP2 PUSH2 0x588 JUMP JUMPDEST SWAP1 POP SWAP2 SWAP1 POP JUMP JUMPDEST PUSH1 0x0 PUSH1 0x20 DUP3 ADD SWAP1 POP DUP2 DUP2 SUB PUSH1 0x0 DUP4 ADD MSTORE PUSH2 0x691 DUP2 PUSH2 0x5AB JUMP JUMPDEST SWAP1 POP SWAP2 SWAP1 POP JUMP JUMPDEST PUSH1 0x0 PUSH1 0x60 DUP3 ADD SWAP1 POP PUSH2 0x6AD PUSH1 0x0 DUP4 ADD DUP7 PUSH2 0x5CE JUMP JUMPDEST PUSH2 0x6BA PUSH1 0x20 DUP4 ADD DUP6 PUSH2 0x5CE JUMP JUMPDEST PUSH2 0x6C7 PUSH1 0x40 DUP4 ADD DUP5 PUSH2 0x510 JUMP JUMPDEST SWAP5 SWAP4 POP POP POP POP JUMP JUMPDEST PUSH1 0x0 DUP3 DUP3 MSTORE PUSH1 0x20 DUP3 ADD SWAP1 POP SWAP3 SWAP2 POP POP JUMP JUMPDEST PUSH1 0x0 PUSH2 0x6EB DUP3 PUSH2 0x774 JUMP JUMPDEST SWAP2 POP PUSH2 0x6F6 DUP4 PUSH2 0x774 JUMP JUMPDEST SWAP3 POP DUP3 PUSH32 0xFFFFFFFFFFFFFFFFFFFFFFFFFFFFFFFFFFFFFFFFFFFFFFFFFFFFFFFFFFFFFFFF SUB DUP3 GT ISZERO PUSH2 0x72B JUMPI PUSH2 0x72A PUSH2 0x77E JUMP JUMPDEST JUMPDEST DUP3 DUP3 ADD SWAP1 POP SWAP3 SWAP2 POP POP JUMP JUMPDEST PUSH1 0x0 PUSH2 0x741 DUP3 PUSH2 0x754 JUMP JUMPDEST SWAP1 POP SWAP2 SWAP1 POP JUMP JUMPDEST PUSH1 0x0 DUP2 ISZERO ISZERO SWAP1 POP SWAP2 SWAP1 POP JUMP JUMPDEST PUSH1 0x0 PUSH20 0xFFFFFFFFFFFFFFFFFFFFFFFFFFFFFFFFFFFFFFFF DUP3 AND SWAP1 POP SWAP2 SWAP1 POP JUMP JUMPDEST PUSH1 0x0 DUP2 SWAP1 POP SWAP2 SWAP1 POP JUMP JUMPDEST PUSH32 0x4E487B7100000000000000000000000000000000000000000000000000000000 PUSH1 0x0 MSTORE PUSH1 0x11 PUSH1 0x4 MSTORE PUSH1 0x24 PUSH1 0x0 REVERT JUMPDEST PUSH1 0x0 DUP1 REVERT JUMPDEST PUSH32 0x4B696420616C7265616479206578697374730000000000000000000000000000 PUSH1 0x0 DUP3 ADD MSTORE POP JUMP JUMPDEST PUSH32 0x416C726561647920706169640000000000000000000000000000000000000000 PUSH1 0x0 DUP3 ADD MSTORE POP JUMP JUMPDEST PUSH32 0x47726F7720757000000000000000000000000000000000000000000000000000 PUSH1 0x0 DUP3 ADD MSTORE POP JUMP JUMPDEST PUSH32 0x4F6E6C792061646D696E2063616E20637265617465206B696473000000000000 PUSH1 0x0 DUP3 ADD MSTORE POP JUMP JUMPDEST POP JUMP JUMPDEST PUSH2 0x862 DUP2 PUSH2 0x736 JUMP JUMPDEST DUP2 EQ PUSH2 0x86D JUMPI PUSH1 0x0 DUP1 REVERT JUMPDEST POP JUMP JUMPDEST PUSH2 0x879 DUP2 PUSH2 0x774 JUMP JUMPDEST DUP2 EQ PUSH2 0x884 JUMPI PUSH1 0x0 DUP1 REVERT JUMPDEST POP JUMP INVALID LOG2 PUSH5 0x6970667358 0x22 SLT KECCAK256 PUSH29 0xF34CE74214A525294DFD5C063ADC8C7B6620B208E18FD2C8AA317920E1 LOG0 EXTCODEHASH PUSH5 0x736F6C6343 STOP ADDMOD SMOD STOP CALLER "
				},
				"gasEstimates": {
					"creation": {
						"codeDepositCost": "447400",
						"executionCost": "24746",
						"totalCost": "472146"
					},
					"external": {
						"addKid(address,uint256)": "infinite",
						"admin()": "2558",
						"kids(address)": "infinite",
						"withdraw()": "infinite"
					}
				},
				"methodIdentifiers": {
					"addKid(address,uint256)": "40990e30",
					"admin()": "f851a440",
					"kids(address)": "2438628c",
					"withdraw()": "3ccfd60b"
				}
			},
			"storageLayout": {
				"storage": [
					{
						"astId": 13,
						"contract": "github/fahadashiq/block-chain/smart-contracts/practice.sol:Trust",
						"label": "kids",
						"offset": 0,
						"slot": "0",
						"type": "t_mapping(t_address,t_struct(Kid)8_storage)"
					},
					{
						"astId": 15,
						"contract": "github/fahadashiq/block-chain/smart-contracts/practice.sol:Trust",
						"label": "admin",
						"offset": 0,
						"slot": "1",
						"type": "t_address"
					}
				],
				"types": {
					"t_address": {
						"encoding": "inplace",
						"label": "address",
						"numberOfBytes": "20"
					},
					"t_bool": {
						"encoding": "inplace",
						"label": "bool",
						"numberOfBytes": "1"
					},
					"t_mapping(t_address,t_struct(Kid)8_storage)": {
						"encoding": "mapping",
						"key": "t_address",
						"label": "mapping(address => struct Trust.Kid)",
						"numberOfBytes": "32",
						"value": "t_struct(Kid)8_storage"
					},
					"t_struct(Kid)8_storage": {
						"encoding": "inplace",
						"label": "struct Trust.Kid",
						"members": [
							{
								"astId": 3,
								"contract": "github/fahadashiq/block-chain/smart-contracts/practice.sol:Trust",
								"label": "amount",
								"offset": 0,
								"slot": "0",
								"type": "t_uint256"
							},
							{
								"astId": 5,
								"contract": "github/fahadashiq/block-chain/smart-contracts/practice.sol:Trust",
								"label": "maturity",
								"offset": 0,
								"slot": "1",
								"type": "t_uint256"
							},
							{
								"astId": 7,
								"contract": "github/fahadashiq/block-chain/smart-contracts/practice.sol:Trust",
								"label": "paid",
								"offset": 0,
								"slot": "2",
								"type": "t_bool"
							}
						],
						"numberOfBytes": "96"
					},
					"t_uint256": {
						"encoding": "inplace",
						"label": "uint256",
						"numberOfBytes": "32"
					}
				}
			},
			"userdoc": {
				"kind": "user",
				"methods": {},
				"version": 1
			}
		}
	}
}