{
	"github/fahadashiq/block-chain/smart-contracts/practice.sol": {
		"Trust": {
			"abi": [
				{
					"inputs": [
						{
							"internalType": "address",
							"name": "_kid",
							"type": "address"
						},
						{
							"internalType": "uint256",
							"name": "timeToMaturity",
							"type": "uint256"
						}
					],
					"stateMutability": "payable",
					"type": "constructor"
				},
				{
					"inputs": [
						{
							"internalType": "address",
							"name": "",
							"type": "address"
						}
					],
					"name": "ammount",
					"outputs": [
						{
							"internalType": "uint256",
							"name": "",
							"type": "uint256"
						}
					],
					"stateMutability": "view",
					"type": "function"
				},
				{
					"inputs": [],
					"name": "kid",
					"outputs": [
						{
							"internalType": "address",
							"name": "",
							"type": "address"
						}
					],
					"stateMutability": "view",
					"type": "function"
				},
				{
					"inputs": [
						{
							"internalType": "address",
							"name": "",
							"type": "address"
						}
					],
					"name": "maturities",
					"outputs": [
						{
							"internalType": "uint256",
							"name": "",
							"type": "uint256"
						}
					],
					"stateMutability": "view",
					"type": "function"
				},
				{
					"inputs": [],
					"name": "maturity",
					"outputs": [
						{
							"internalType": "uint256",
							"name": "",
							"type": "uint256"
						}
					],
					"stateMutability": "view",
					"type": "function"
				},
				{
					"inputs": [],
					"name": "withdraw",
					"outputs": [],
					"stateMutability": "nonpayable",
					"type": "function"
				}
			],
			"devdoc": {
				"kind": "dev",
				"methods": {},
				"version": 1
			},
			"evm": {
				"assembly": "    /* \"github/fahadashiq/block-chain/smart-contracts/practice.sol\":28:571  contract Trust {\r... */\n  mstore(0x40, 0x80)\n    /* \"github/fahadashiq/block-chain/smart-contracts/practice.sol\":201:340  constructor(address _kid, uint timeToMaturity) payable {\r... */\n  mload(0x40)\n  sub(codesize, bytecodeSize)\n  dup1\n  bytecodeSize\n  dup4\n  codecopy\n  dup2\n  dup2\n  add\n  0x40\n  mstore\n  dup2\n  add\n  swap1\n  tag_1\n  swap2\n  swap1\n  tag_2\n  jump\t// in\ntag_1:\n    /* \"github/fahadashiq/block-chain/smart-contracts/practice.sol\":273:277  _kid */\n  dup2\n    /* \"github/fahadashiq/block-chain/smart-contracts/practice.sol\":267:270  kid */\n  0x02\n  0x00\n    /* \"github/fahadashiq/block-chain/smart-contracts/practice.sol\":267:277  kid = _kid */\n  0x0100\n  exp\n  dup2\n  sload\n  dup2\n  0xffffffffffffffffffffffffffffffffffffffff\n  mul\n  not\n  and\n  swap1\n  dup4\n  0xffffffffffffffffffffffffffffffffffffffff\n  and\n  mul\n  or\n  swap1\n  sstore\n  pop\n    /* \"github/fahadashiq/block-chain/smart-contracts/practice.sol\":318:332  timeToMaturity */\n  dup1\n    /* \"github/fahadashiq/block-chain/smart-contracts/practice.sol\":299:314  block.timestamp */\n  timestamp\n    /* \"github/fahadashiq/block-chain/smart-contracts/practice.sol\":299:332  block.timestamp +  timeToMaturity */\n  tag_5\n  swap2\n  swap1\n  tag_6\n  jump\t// in\ntag_5:\n    /* \"github/fahadashiq/block-chain/smart-contracts/practice.sol\":288:296  maturity */\n  0x03\n    /* \"github/fahadashiq/block-chain/smart-contracts/practice.sol\":288:332  maturity = block.timestamp +  timeToMaturity */\n  dup2\n  swap1\n  sstore\n  pop\n    /* \"github/fahadashiq/block-chain/smart-contracts/practice.sol\":201:340  constructor(address _kid, uint timeToMaturity) payable {\r... */\n  pop\n  pop\n    /* \"github/fahadashiq/block-chain/smart-contracts/practice.sol\":28:571  contract Trust {\r... */\n  jump(tag_7)\n    /* \"#utility.yul\":7:150   */\ntag_9:\n    /* \"#utility.yul\":64:69   */\n  0x00\n    /* \"#utility.yul\":95:101   */\n  dup2\n    /* \"#utility.yul\":89:102   */\n  mload\n    /* \"#utility.yul\":80:102   */\n  swap1\n  pop\n    /* \"#utility.yul\":111:144   */\n  tag_11\n    /* \"#utility.yul\":138:143   */\n  dup2\n    /* \"#utility.yul\":111:144   */\n  tag_12\n  jump\t// in\ntag_11:\n    /* \"#utility.yul\":7:150   */\n  swap3\n  swap2\n  pop\n  pop\n  jump\t// out\n    /* \"#utility.yul\":156:299   */\ntag_13:\n    /* \"#utility.yul\":213:218   */\n  0x00\n    /* \"#utility.yul\":244:250   */\n  dup2\n    /* \"#utility.yul\":238:251   */\n  mload\n    /* \"#utility.yul\":229:251   */\n  swap1\n  pop\n    /* \"#utility.yul\":260:293   */\n  tag_15\n    /* \"#utility.yul\":287:292   */\n  dup2\n    /* \"#utility.yul\":260:293   */\n  tag_16\n  jump\t// in\ntag_15:\n    /* \"#utility.yul\":156:299   */\n  swap3\n  swap2\n  pop\n  pop\n  jump\t// out\n    /* \"#utility.yul\":305:812   */\ntag_2:\n    /* \"#utility.yul\":384:390   */\n  0x00\n    /* \"#utility.yul\":392:398   */\n  dup1\n    /* \"#utility.yul\":441:443   */\n  0x40\n    /* \"#utility.yul\":429:438   */\n  dup4\n    /* \"#utility.yul\":420:427   */\n  dup6\n    /* \"#utility.yul\":416:439   */\n  sub\n    /* \"#utility.yul\":412:444   */\n  slt\n    /* \"#utility.yul\":409:528   */\n  iszero\n  tag_18\n  jumpi\n    /* \"#utility.yul\":447:526   */\n  tag_19\n  tag_20\n  jump\t// in\ntag_19:\n    /* \"#utility.yul\":409:528   */\ntag_18:\n    /* \"#utility.yul\":567:568   */\n  0x00\n    /* \"#utility.yul\":592:656   */\n  tag_21\n    /* \"#utility.yul\":648:655   */\n  dup6\n    /* \"#utility.yul\":639:645   */\n  dup3\n    /* \"#utility.yul\":628:637   */\n  dup7\n    /* \"#utility.yul\":624:646   */\n  add\n    /* \"#utility.yul\":592:656   */\n  tag_9\n  jump\t// in\ntag_21:\n    /* \"#utility.yul\":582:656   */\n  swap3\n  pop\n    /* \"#utility.yul\":538:666   */\n  pop\n    /* \"#utility.yul\":705:707   */\n  0x20\n    /* \"#utility.yul\":731:795   */\n  tag_22\n    /* \"#utility.yul\":787:794   */\n  dup6\n    /* \"#utility.yul\":778:784   */\n  dup3\n    /* \"#utility.yul\":767:776   */\n  dup7\n    /* \"#utility.yul\":763:785   */\n  add\n    /* \"#utility.yul\":731:795   */\n  tag_13\n  jump\t// in\ntag_22:\n    /* \"#utility.yul\":721:795   */\n  swap2\n  pop\n    /* \"#utility.yul\":676:805   */\n  pop\n    /* \"#utility.yul\":305:812   */\n  swap3\n  pop\n  swap3\n  swap1\n  pop\n  jump\t// out\n    /* \"#utility.yul\":899:1204   */\ntag_6:\n    /* \"#utility.yul\":939:942   */\n  0x00\n    /* \"#utility.yul\":958:978   */\n  tag_26\n    /* \"#utility.yul\":976:977   */\n  dup3\n    /* \"#utility.yul\":958:978   */\n  tag_27\n  jump\t// in\ntag_26:\n    /* \"#utility.yul\":953:978   */\n  swap2\n  pop\n    /* \"#utility.yul\":992:1012   */\n  tag_28\n    /* \"#utility.yul\":1010:1011   */\n  dup4\n    /* \"#utility.yul\":992:1012   */\n  tag_27\n  jump\t// in\ntag_28:\n    /* \"#utility.yul\":987:1012   */\n  swap3\n  pop\n    /* \"#utility.yul\":1146:1147   */\n  dup3\n    /* \"#utility.yul\":1078:1144   */\n  0xffffffffffffffffffffffffffffffffffffffffffffffffffffffffffffffff\n    /* \"#utility.yul\":1074:1148   */\n  sub\n    /* \"#utility.yul\":1071:1072   */\n  dup3\n    /* \"#utility.yul\":1068:1149   */\n  gt\n    /* \"#utility.yul\":1065:1172   */\n  iszero\n  tag_29\n  jumpi\n    /* \"#utility.yul\":1152:1170   */\n  tag_30\n  tag_31\n  jump\t// in\ntag_30:\n    /* \"#utility.yul\":1065:1172   */\ntag_29:\n    /* \"#utility.yul\":1196:1197   */\n  dup3\n    /* \"#utility.yul\":1193:1194   */\n  dup3\n    /* \"#utility.yul\":1189:1198   */\n  add\n    /* \"#utility.yul\":1182:1198   */\n  swap1\n  pop\n    /* \"#utility.yul\":899:1204   */\n  swap3\n  swap2\n  pop\n  pop\n  jump\t// out\n    /* \"#utility.yul\":1210:1306   */\ntag_32:\n    /* \"#utility.yul\":1247:1254   */\n  0x00\n    /* \"#utility.yul\":1276:1300   */\n  tag_34\n    /* \"#utility.yul\":1294:1299   */\n  dup3\n    /* \"#utility.yul\":1276:1300   */\n  tag_35\n  jump\t// in\ntag_34:\n    /* \"#utility.yul\":1265:1300   */\n  swap1\n  pop\n    /* \"#utility.yul\":1210:1306   */\n  swap2\n  swap1\n  pop\n  jump\t// out\n    /* \"#utility.yul\":1312:1438   */\ntag_35:\n    /* \"#utility.yul\":1349:1356   */\n  0x00\n    /* \"#utility.yul\":1389:1431   */\n  0xffffffffffffffffffffffffffffffffffffffff\n    /* \"#utility.yul\":1382:1387   */\n  dup3\n    /* \"#utility.yul\":1378:1432   */\n  and\n    /* \"#utility.yul\":1367:1432   */\n  swap1\n  pop\n    /* \"#utility.yul\":1312:1438   */\n  swap2\n  swap1\n  pop\n  jump\t// out\n    /* \"#utility.yul\":1444:1521   */\ntag_27:\n    /* \"#utility.yul\":1481:1488   */\n  0x00\n    /* \"#utility.yul\":1510:1515   */\n  dup2\n    /* \"#utility.yul\":1499:1515   */\n  swap1\n  pop\n    /* \"#utility.yul\":1444:1521   */\n  swap2\n  swap1\n  pop\n  jump\t// out\n    /* \"#utility.yul\":1527:1707   */\ntag_31:\n    /* \"#utility.yul\":1575:1652   */\n  0x4e487b7100000000000000000000000000000000000000000000000000000000\n    /* \"#utility.yul\":1572:1573   */\n  0x00\n    /* \"#utility.yul\":1565:1653   */\n  mstore\n    /* \"#utility.yul\":1672:1676   */\n  0x11\n    /* \"#utility.yul\":1669:1670   */\n  0x04\n    /* \"#utility.yul\":1662:1677   */\n  mstore\n    /* \"#utility.yul\":1696:1700   */\n  0x24\n    /* \"#utility.yul\":1693:1694   */\n  0x00\n    /* \"#utility.yul\":1686:1701   */\n  revert\n    /* \"#utility.yul\":1836:1953   */\ntag_20:\n    /* \"#utility.yul\":1945:1946   */\n  0x00\n    /* \"#utility.yul\":1942:1943   */\n  dup1\n    /* \"#utility.yul\":1935:1947   */\n  revert\n    /* \"#utility.yul\":1959:2081   */\ntag_12:\n    /* \"#utility.yul\":2032:2056   */\n  tag_43\n    /* \"#utility.yul\":2050:2055   */\n  dup2\n    /* \"#utility.yul\":2032:2056   */\n  tag_32\n  jump\t// in\ntag_43:\n    /* \"#utility.yul\":2025:2030   */\n  dup2\n    /* \"#utility.yul\":2022:2057   */\n  eq\n    /* \"#utility.yul\":2012:2075   */\n  tag_44\n  jumpi\n    /* \"#utility.yul\":2071:2072   */\n  0x00\n    /* \"#utility.yul\":2068:2069   */\n  dup1\n    /* \"#utility.yul\":2061:2073   */\n  revert\n    /* \"#utility.yul\":2012:2075   */\ntag_44:\n    /* \"#utility.yul\":1959:2081   */\n  pop\n  jump\t// out\n    /* \"#utility.yul\":2087:2209   */\ntag_16:\n    /* \"#utility.yul\":2160:2184   */\n  tag_46\n    /* \"#utility.yul\":2178:2183   */\n  dup2\n    /* \"#utility.yul\":2160:2184   */\n  tag_27\n  jump\t// in\ntag_46:\n    /* \"#utility.yul\":2153:2158   */\n  dup2\n    /* \"#utility.yul\":2150:2185   */\n  eq\n    /* \"#utility.yul\":2140:2203   */\n  tag_47\n  jumpi\n    /* \"#utility.yul\":2199:2200   */\n  0x00\n    /* \"#utility.yul\":2196:2197   */\n  dup1\n    /* \"#utility.yul\":2189:2201   */\n  revert\n    /* \"#utility.yul\":2140:2203   */\ntag_47:\n    /* \"#utility.yul\":2087:2209   */\n  pop\n  jump\t// out\n    /* \"github/fahadashiq/block-chain/smart-contracts/practice.sol\":28:571  contract Trust {\r... */\ntag_7:\n  dataSize(sub_0)\n  dup1\n  dataOffset(sub_0)\n  0x00\n  codecopy\n  0x00\n  return\nstop\n\nsub_0: assembly {\n        /* \"github/fahadashiq/block-chain/smart-contracts/practice.sol\":28:571  contract Trust {\r... */\n      mstore(0x40, 0x80)\n      callvalue\n      dup1\n      iszero\n      tag_1\n      jumpi\n      0x00\n      dup1\n      revert\n    tag_1:\n      pop\n      jumpi(tag_2, lt(calldatasize, 0x04))\n      shr(0xe0, calldataload(0x00))\n      dup1\n      0x204f83f9\n      eq\n      tag_3\n      jumpi\n      dup1\n      0x3b9fc337\n      eq\n      tag_4\n      jumpi\n      dup1\n      0x3ccfd60b\n      eq\n      tag_5\n      jumpi\n      dup1\n      0x6607250b\n      eq\n      tag_6\n      jumpi\n      dup1\n      0xbfa51c49\n      eq\n      tag_7\n      jumpi\n    tag_2:\n      0x00\n      dup1\n      revert\n        /* \"github/fahadashiq/block-chain/smart-contracts/practice.sol\":174:194  uint public maturity */\n    tag_3:\n      tag_8\n      tag_9\n      jump\t// in\n    tag_8:\n      mload(0x40)\n      tag_10\n      swap2\n      swap1\n      tag_11\n      jump\t// in\n    tag_10:\n      mload(0x40)\n      dup1\n      swap2\n      sub\n      swap1\n      return\n        /* \"github/fahadashiq/block-chain/smart-contracts/practice.sol\":50:89  mapping(address => uint) public ammount */\n    tag_4:\n      tag_12\n      0x04\n      dup1\n      calldatasize\n      sub\n      dup2\n      add\n      swap1\n      tag_13\n      swap2\n      swap1\n      tag_14\n      jump\t// in\n    tag_13:\n      tag_15\n      jump\t// in\n    tag_12:\n      mload(0x40)\n      tag_16\n      swap2\n      swap1\n      tag_11\n      jump\t// in\n    tag_16:\n      mload(0x40)\n      dup1\n      swap2\n      sub\n      swap1\n      return\n        /* \"github/fahadashiq/block-chain/smart-contracts/practice.sol\":348:568  function withdraw() external {\r... */\n    tag_5:\n      tag_17\n      tag_18\n      jump\t// in\n    tag_17:\n      stop\n        /* \"github/fahadashiq/block-chain/smart-contracts/practice.sol\":96:138  mapping(address => uint) public maturities */\n    tag_6:\n      tag_19\n      0x04\n      dup1\n      calldatasize\n      sub\n      dup2\n      add\n      swap1\n      tag_20\n      swap2\n      swap1\n      tag_14\n      jump\t// in\n    tag_20:\n      tag_21\n      jump\t// in\n    tag_19:\n      mload(0x40)\n      tag_22\n      swap2\n      swap1\n      tag_11\n      jump\t// in\n    tag_22:\n      mload(0x40)\n      dup1\n      swap2\n      sub\n      swap1\n      return\n        /* \"github/fahadashiq/block-chain/smart-contracts/practice.sol\":149:167  address public kid */\n    tag_7:\n      tag_23\n      tag_24\n      jump\t// in\n    tag_23:\n      mload(0x40)\n      tag_25\n      swap2\n      swap1\n      tag_26\n      jump\t// in\n    tag_25:\n      mload(0x40)\n      dup1\n      swap2\n      sub\n      swap1\n      return\n        /* \"github/fahadashiq/block-chain/smart-contracts/practice.sol\":174:194  uint public maturity */\n    tag_9:\n      sload(0x03)\n      dup2\n      jump\t// out\n        /* \"github/fahadashiq/block-chain/smart-contracts/practice.sol\":50:89  mapping(address => uint) public ammount */\n    tag_15:\n      mstore(0x20, 0x00)\n      dup1\n      0x00\n      mstore\n      keccak256(0x00, 0x40)\n      0x00\n      swap2\n      pop\n      swap1\n      pop\n      sload\n      dup2\n      jump\t// out\n        /* \"github/fahadashiq/block-chain/smart-contracts/practice.sol\":348:568  function withdraw() external {\r... */\n    tag_18:\n        /* \"github/fahadashiq/block-chain/smart-contracts/practice.sol\":415:423  maturity */\n      sload(0x03)\n        /* \"github/fahadashiq/block-chain/smart-contracts/practice.sol\":396:411  block.timestamp */\n      timestamp\n        /* \"github/fahadashiq/block-chain/smart-contracts/practice.sol\":396:423  block.timestamp >= maturity */\n      lt\n      iszero\n        /* \"github/fahadashiq/block-chain/smart-contracts/practice.sol\":388:435  require(block.timestamp >= maturity, 'Grow up') */\n      tag_28\n      jumpi\n      mload(0x40)\n      0x08c379a000000000000000000000000000000000000000000000000000000000\n      dup2\n      mstore\n      0x04\n      add\n      tag_29\n      swap1\n      tag_30\n      jump\t// in\n    tag_29:\n      mload(0x40)\n      dup1\n      swap2\n      sub\n      swap1\n      revert\n    tag_28:\n        /* \"github/fahadashiq/block-chain/smart-contracts/practice.sol\":468:471  kid */\n      0x02\n      0x00\n      swap1\n      sload\n      swap1\n      0x0100\n      exp\n      swap1\n      div\n      0xffffffffffffffffffffffffffffffffffffffff\n      and\n        /* \"github/fahadashiq/block-chain/smart-contracts/practice.sol\":454:471  msg.sender == kid */\n      0xffffffffffffffffffffffffffffffffffffffff\n      and\n        /* \"github/fahadashiq/block-chain/smart-contracts/practice.sol\":454:464  msg.sender */\n      caller\n        /* \"github/fahadashiq/block-chain/smart-contracts/practice.sol\":454:471  msg.sender == kid */\n      0xffffffffffffffffffffffffffffffffffffffff\n      and\n      eq\n        /* \"github/fahadashiq/block-chain/smart-contracts/practice.sol\":446:497  require(msg.sender == kid, 'Only kid can withdraw') */\n      tag_31\n      jumpi\n      mload(0x40)\n      0x08c379a000000000000000000000000000000000000000000000000000000000\n      dup2\n      mstore\n      0x04\n      add\n      tag_32\n      swap1\n      tag_33\n      jump\t// in\n    tag_32:\n      mload(0x40)\n      dup1\n      swap2\n      sub\n      swap1\n      revert\n    tag_31:\n        /* \"github/fahadashiq/block-chain/smart-contracts/practice.sol\":516:526  msg.sender */\n      caller\n        /* \"github/fahadashiq/block-chain/smart-contracts/practice.sol\":508:536  payable(msg.sender).transfer */\n      0xffffffffffffffffffffffffffffffffffffffff\n      and\n        /* \"github/fahadashiq/block-chain/smart-contracts/practice.sol\":508:559  payable(msg.sender).transfer(address(this).balance) */\n      0x08fc\n        /* \"github/fahadashiq/block-chain/smart-contracts/practice.sol\":537:558  address(this).balance */\n      selfbalance\n        /* \"github/fahadashiq/block-chain/smart-contracts/practice.sol\":508:559  payable(msg.sender).transfer(address(this).balance) */\n      swap1\n      dup2\n      iszero\n      mul\n      swap1\n      mload(0x40)\n      0x00\n      mload(0x40)\n      dup1\n      dup4\n      sub\n      dup2\n      dup6\n      dup9\n      dup9\n      call\n      swap4\n      pop\n      pop\n      pop\n      pop\n      iszero\n      dup1\n      iszero\n      tag_35\n      jumpi\n      returndatasize\n      0x00\n      dup1\n      returndatacopy\n      revert(0x00, returndatasize)\n    tag_35:\n      pop\n        /* \"github/fahadashiq/block-chain/smart-contracts/practice.sol\":348:568  function withdraw() external {\r... */\n      jump\t// out\n        /* \"github/fahadashiq/block-chain/smart-contracts/practice.sol\":96:138  mapping(address => uint) public maturities */\n    tag_21:\n      mstore(0x20, 0x01)\n      dup1\n      0x00\n      mstore\n      keccak256(0x00, 0x40)\n      0x00\n      swap2\n      pop\n      swap1\n      pop\n      sload\n      dup2\n      jump\t// out\n        /* \"github/fahadashiq/block-chain/smart-contracts/practice.sol\":149:167  address public kid */\n    tag_24:\n      0x02\n      0x00\n      swap1\n      sload\n      swap1\n      0x0100\n      exp\n      swap1\n      div\n      0xffffffffffffffffffffffffffffffffffffffff\n      and\n      dup2\n      jump\t// out\n        /* \"#utility.yul\":7:146   */\n    tag_37:\n        /* \"#utility.yul\":53:58   */\n      0x00\n        /* \"#utility.yul\":91:97   */\n      dup2\n        /* \"#utility.yul\":78:98   */\n      calldataload\n        /* \"#utility.yul\":69:98   */\n      swap1\n      pop\n        /* \"#utility.yul\":107:140   */\n      tag_39\n        /* \"#utility.yul\":134:139   */\n      dup2\n        /* \"#utility.yul\":107:140   */\n      tag_40\n      jump\t// in\n    tag_39:\n        /* \"#utility.yul\":7:146   */\n      swap3\n      swap2\n      pop\n      pop\n      jump\t// out\n        /* \"#utility.yul\":152:481   */\n    tag_14:\n        /* \"#utility.yul\":211:217   */\n      0x00\n        /* \"#utility.yul\":260:262   */\n      0x20\n        /* \"#utility.yul\":248:257   */\n      dup3\n        /* \"#utility.yul\":239:246   */\n      dup5\n        /* \"#utility.yul\":235:258   */\n      sub\n        /* \"#utility.yul\":231:263   */\n      slt\n        /* \"#utility.yul\":228:347   */\n      iszero\n      tag_42\n      jumpi\n        /* \"#utility.yul\":266:345   */\n      tag_43\n      tag_44\n      jump\t// in\n    tag_43:\n        /* \"#utility.yul\":228:347   */\n    tag_42:\n        /* \"#utility.yul\":386:387   */\n      0x00\n        /* \"#utility.yul\":411:464   */\n      tag_45\n        /* \"#utility.yul\":456:463   */\n      dup5\n        /* \"#utility.yul\":447:453   */\n      dup3\n        /* \"#utility.yul\":436:445   */\n      dup6\n        /* \"#utility.yul\":432:454   */\n      add\n        /* \"#utility.yul\":411:464   */\n      tag_37\n      jump\t// in\n    tag_45:\n        /* \"#utility.yul\":401:464   */\n      swap2\n      pop\n        /* \"#utility.yul\":357:474   */\n      pop\n        /* \"#utility.yul\":152:481   */\n      swap3\n      swap2\n      pop\n      pop\n      jump\t// out\n        /* \"#utility.yul\":487:605   */\n    tag_46:\n        /* \"#utility.yul\":574:598   */\n      tag_48\n        /* \"#utility.yul\":592:597   */\n      dup2\n        /* \"#utility.yul\":574:598   */\n      tag_49\n      jump\t// in\n    tag_48:\n        /* \"#utility.yul\":569:572   */\n      dup3\n        /* \"#utility.yul\":562:599   */\n      mstore\n        /* \"#utility.yul\":487:605   */\n      pop\n      pop\n      jump\t// out\n        /* \"#utility.yul\":611:976   */\n    tag_50:\n        /* \"#utility.yul\":753:756   */\n      0x00\n        /* \"#utility.yul\":774:840   */\n      tag_52\n        /* \"#utility.yul\":838:839   */\n      0x07\n        /* \"#utility.yul\":833:836   */\n      dup4\n        /* \"#utility.yul\":774:840   */\n      tag_53\n      jump\t// in\n    tag_52:\n        /* \"#utility.yul\":767:840   */\n      swap2\n      pop\n        /* \"#utility.yul\":849:942   */\n      tag_54\n        /* \"#utility.yul\":938:941   */\n      dup3\n        /* \"#utility.yul\":849:942   */\n      tag_55\n      jump\t// in\n    tag_54:\n        /* \"#utility.yul\":967:969   */\n      0x20\n        /* \"#utility.yul\":962:965   */\n      dup3\n        /* \"#utility.yul\":958:970   */\n      add\n        /* \"#utility.yul\":951:970   */\n      swap1\n      pop\n        /* \"#utility.yul\":611:976   */\n      swap2\n      swap1\n      pop\n      jump\t// out\n        /* \"#utility.yul\":982:1348   */\n    tag_56:\n        /* \"#utility.yul\":1124:1127   */\n      0x00\n        /* \"#utility.yul\":1145:1212   */\n      tag_58\n        /* \"#utility.yul\":1209:1211   */\n      0x15\n        /* \"#utility.yul\":1204:1207   */\n      dup4\n        /* \"#utility.yul\":1145:1212   */\n      tag_53\n      jump\t// in\n    tag_58:\n        /* \"#utility.yul\":1138:1212   */\n      swap2\n      pop\n        /* \"#utility.yul\":1221:1314   */\n      tag_59\n        /* \"#utility.yul\":1310:1313   */\n      dup3\n        /* \"#utility.yul\":1221:1314   */\n      tag_60\n      jump\t// in\n    tag_59:\n        /* \"#utility.yul\":1339:1341   */\n      0x20\n        /* \"#utility.yul\":1334:1337   */\n      dup3\n        /* \"#utility.yul\":1330:1342   */\n      add\n        /* \"#utility.yul\":1323:1342   */\n      swap1\n      pop\n        /* \"#utility.yul\":982:1348   */\n      swap2\n      swap1\n      pop\n      jump\t// out\n        /* \"#utility.yul\":1354:1472   */\n    tag_61:\n        /* \"#utility.yul\":1441:1465   */\n      tag_63\n        /* \"#utility.yul\":1459:1464   */\n      dup2\n        /* \"#utility.yul\":1441:1465   */\n      tag_64\n      jump\t// in\n    tag_63:\n        /* \"#utility.yul\":1436:1439   */\n      dup3\n        /* \"#utility.yul\":1429:1466   */\n      mstore\n        /* \"#utility.yul\":1354:1472   */\n      pop\n      pop\n      jump\t// out\n        /* \"#utility.yul\":1478:1700   */\n    tag_26:\n        /* \"#utility.yul\":1571:1575   */\n      0x00\n        /* \"#utility.yul\":1609:1611   */\n      0x20\n        /* \"#utility.yul\":1598:1607   */\n      dup3\n        /* \"#utility.yul\":1594:1612   */\n      add\n        /* \"#utility.yul\":1586:1612   */\n      swap1\n      pop\n        /* \"#utility.yul\":1622:1693   */\n      tag_66\n        /* \"#utility.yul\":1690:1691   */\n      0x00\n        /* \"#utility.yul\":1679:1688   */\n      dup4\n        /* \"#utility.yul\":1675:1692   */\n      add\n        /* \"#utility.yul\":1666:1672   */\n      dup5\n        /* \"#utility.yul\":1622:1693   */\n      tag_46\n      jump\t// in\n    tag_66:\n        /* \"#utility.yul\":1478:1700   */\n      swap3\n      swap2\n      pop\n      pop\n      jump\t// out\n        /* \"#utility.yul\":1706:2125   */\n    tag_30:\n        /* \"#utility.yul\":1872:1876   */\n      0x00\n        /* \"#utility.yul\":1910:1912   */\n      0x20\n        /* \"#utility.yul\":1899:1908   */\n      dup3\n        /* \"#utility.yul\":1895:1913   */\n      add\n        /* \"#utility.yul\":1887:1913   */\n      swap1\n      pop\n        /* \"#utility.yul\":1959:1968   */\n      dup2\n        /* \"#utility.yul\":1953:1957   */\n      dup2\n        /* \"#utility.yul\":1949:1969   */\n      sub\n        /* \"#utility.yul\":1945:1946   */\n      0x00\n        /* \"#utility.yul\":1934:1943   */\n      dup4\n        /* \"#utility.yul\":1930:1947   */\n      add\n        /* \"#utility.yul\":1923:1970   */\n      mstore\n        /* \"#utility.yul\":1987:2118   */\n      tag_68\n        /* \"#utility.yul\":2113:2117   */\n      dup2\n        /* \"#utility.yul\":1987:2118   */\n      tag_50\n      jump\t// in\n    tag_68:\n        /* \"#utility.yul\":1979:2118   */\n      swap1\n      pop\n        /* \"#utility.yul\":1706:2125   */\n      swap2\n      swap1\n      pop\n      jump\t// out\n        /* \"#utility.yul\":2131:2550   */\n    tag_33:\n        /* \"#utility.yul\":2297:2301   */\n      0x00\n        /* \"#utility.yul\":2335:2337   */\n      0x20\n        /* \"#utility.yul\":2324:2333   */\n      dup3\n        /* \"#utility.yul\":2320:2338   */\n      add\n        /* \"#utility.yul\":2312:2338   */\n      swap1\n      pop\n        /* \"#utility.yul\":2384:2393   */\n      dup2\n        /* \"#utility.yul\":2378:2382   */\n      dup2\n        /* \"#utility.yul\":2374:2394   */\n      sub\n        /* \"#utility.yul\":2370:2371   */\n      0x00\n        /* \"#utility.yul\":2359:2368   */\n      dup4\n        /* \"#utility.yul\":2355:2372   */\n      add\n        /* \"#utility.yul\":2348:2395   */\n      mstore\n        /* \"#utility.yul\":2412:2543   */\n      tag_70\n        /* \"#utility.yul\":2538:2542   */\n      dup2\n        /* \"#utility.yul\":2412:2543   */\n      tag_56\n      jump\t// in\n    tag_70:\n        /* \"#utility.yul\":2404:2543   */\n      swap1\n      pop\n        /* \"#utility.yul\":2131:2550   */\n      swap2\n      swap1\n      pop\n      jump\t// out\n        /* \"#utility.yul\":2556:2778   */\n    tag_11:\n        /* \"#utility.yul\":2649:2653   */\n      0x00\n        /* \"#utility.yul\":2687:2689   */\n      0x20\n        /* \"#utility.yul\":2676:2685   */\n      dup3\n        /* \"#utility.yul\":2672:2690   */\n      add\n        /* \"#utility.yul\":2664:2690   */\n      swap1\n      pop\n        /* \"#utility.yul\":2700:2771   */\n      tag_72\n        /* \"#utility.yul\":2768:2769   */\n      0x00\n        /* \"#utility.yul\":2757:2766   */\n      dup4\n        /* \"#utility.yul\":2753:2770   */\n      add\n        /* \"#utility.yul\":2744:2750   */\n      dup5\n        /* \"#utility.yul\":2700:2771   */\n      tag_61\n      jump\t// in\n    tag_72:\n        /* \"#utility.yul\":2556:2778   */\n      swap3\n      swap2\n      pop\n      pop\n      jump\t// out\n        /* \"#utility.yul\":2865:3034   */\n    tag_53:\n        /* \"#utility.yul\":2949:2960   */\n      0x00\n        /* \"#utility.yul\":2983:2989   */\n      dup3\n        /* \"#utility.yul\":2978:2981   */\n      dup3\n        /* \"#utility.yul\":2971:2990   */\n      mstore\n        /* \"#utility.yul\":3023:3027   */\n      0x20\n        /* \"#utility.yul\":3018:3021   */\n      dup3\n        /* \"#utility.yul\":3014:3028   */\n      add\n        /* \"#utility.yul\":2999:3028   */\n      swap1\n      pop\n        /* \"#utility.yul\":2865:3034   */\n      swap3\n      swap2\n      pop\n      pop\n      jump\t// out\n        /* \"#utility.yul\":3040:3136   */\n    tag_49:\n        /* \"#utility.yul\":3077:3084   */\n      0x00\n        /* \"#utility.yul\":3106:3130   */\n      tag_77\n        /* \"#utility.yul\":3124:3129   */\n      dup3\n        /* \"#utility.yul\":3106:3130   */\n      tag_78\n      jump\t// in\n    tag_77:\n        /* \"#utility.yul\":3095:3130   */\n      swap1\n      pop\n        /* \"#utility.yul\":3040:3136   */\n      swap2\n      swap1\n      pop\n      jump\t// out\n        /* \"#utility.yul\":3142:3268   */\n    tag_78:\n        /* \"#utility.yul\":3179:3186   */\n      0x00\n        /* \"#utility.yul\":3219:3261   */\n      0xffffffffffffffffffffffffffffffffffffffff\n        /* \"#utility.yul\":3212:3217   */\n      dup3\n        /* \"#utility.yul\":3208:3262   */\n      and\n        /* \"#utility.yul\":3197:3262   */\n      swap1\n      pop\n        /* \"#utility.yul\":3142:3268   */\n      swap2\n      swap1\n      pop\n      jump\t// out\n        /* \"#utility.yul\":3274:3351   */\n    tag_64:\n        /* \"#utility.yul\":3311:3318   */\n      0x00\n        /* \"#utility.yul\":3340:3345   */\n      dup2\n        /* \"#utility.yul\":3329:3345   */\n      swap1\n      pop\n        /* \"#utility.yul\":3274:3351   */\n      swap2\n      swap1\n      pop\n      jump\t// out\n        /* \"#utility.yul\":3480:3597   */\n    tag_44:\n        /* \"#utility.yul\":3589:3590   */\n      0x00\n        /* \"#utility.yul\":3586:3587   */\n      dup1\n        /* \"#utility.yul\":3579:3591   */\n      revert\n        /* \"#utility.yul\":3603:3760   */\n    tag_55:\n        /* \"#utility.yul\":3743:3752   */\n      0x47726f7720757000000000000000000000000000000000000000000000000000\n        /* \"#utility.yul\":3739:3740   */\n      0x00\n        /* \"#utility.yul\":3731:3737   */\n      dup3\n        /* \"#utility.yul\":3727:3741   */\n      add\n        /* \"#utility.yul\":3720:3753   */\n      mstore\n        /* \"#utility.yul\":3603:3760   */\n      pop\n      jump\t// out\n        /* \"#utility.yul\":3766:3937   */\n    tag_60:\n        /* \"#utility.yul\":3906:3929   */\n      0x4f6e6c79206b69642063616e2077697468647261770000000000000000000000\n        /* \"#utility.yul\":3902:3903   */\n      0x00\n        /* \"#utility.yul\":3894:3900   */\n      dup3\n        /* \"#utility.yul\":3890:3904   */\n      add\n        /* \"#utility.yul\":3883:3930   */\n      mstore\n        /* \"#utility.yul\":3766:3937   */\n      pop\n      jump\t// out\n        /* \"#utility.yul\":3943:4065   */\n    tag_40:\n        /* \"#utility.yul\":4016:4040   */\n      tag_87\n        /* \"#utility.yul\":4034:4039   */\n      dup2\n        /* \"#utility.yul\":4016:4040   */\n      tag_49\n      jump\t// in\n    tag_87:\n        /* \"#utility.yul\":4009:4014   */\n      dup2\n        /* \"#utility.yul\":4006:4041   */\n      eq\n        /* \"#utility.yul\":3996:4059   */\n      tag_88\n      jumpi\n        /* \"#utility.yul\":4055:4056   */\n      0x00\n        /* \"#utility.yul\":4052:4053   */\n      dup1\n        /* \"#utility.yul\":4045:4057   */\n      revert\n        /* \"#utility.yul\":3996:4059   */\n    tag_88:\n        /* \"#utility.yul\":3943:4065   */\n      pop\n      jump\t// out\n\n    auxdata: 0xa26469706673582212206350df6a80aa6708134c9f1d776585b3c27ee174b28954f20fe725fe059b2dc864736f6c63430008070033\n}\n",
				"bytecode": {
					"linkReferences": {},
					"object": "6080604052604051610675380380610675833981810160405281019061002591906100a9565b81600260006101000a81548173ffffffffffffffffffffffffffffffffffffffff021916908373ffffffffffffffffffffffffffffffffffffffff160217905550804261007291906100e9565b60038190555050506101dd565b60008151905061008e816101af565b92915050565b6000815190506100a3816101c6565b92915050565b600080604083850312156100c0576100bf6101aa565b5b60006100ce8582860161007f565b92505060206100df85828601610094565b9150509250929050565b60006100f482610171565b91506100ff83610171565b9250827fffffffffffffffffffffffffffffffffffffffffffffffffffffffffffffffff038211156101345761013361017b565b5b828201905092915050565b600061014a82610151565b9050919050565b600073ffffffffffffffffffffffffffffffffffffffff82169050919050565b6000819050919050565b7f4e487b7100000000000000000000000000000000000000000000000000000000600052601160045260246000fd5b600080fd5b6101b88161013f565b81146101c357600080fd5b50565b6101cf81610171565b81146101da57600080fd5b50565b610489806101ec6000396000f3fe608060405234801561001057600080fd5b50600436106100575760003560e01c8063204f83f91461005c5780633b9fc3371461007a5780633ccfd60b146100aa5780636607250b146100b4578063bfa51c49146100e4575b600080fd5b610064610102565b604051610071919061037d565b60405180910390f35b610094600480360381019061008f9190610291565b610108565b6040516100a1919061037d565b60405180910390f35b6100b2610120565b005b6100ce60048036038101906100c99190610291565b61023e565b6040516100db919061037d565b60405180910390f35b6100ec610256565b6040516100f99190610322565b60405180910390f35b60035481565b60006020528060005260406000206000915090505481565b600354421015610165576040517f08c379a000000000000000000000000000000000000000000000000000000000815260040161015c9061033d565b60405180910390fd5b600260009054906101000a900473ffffffffffffffffffffffffffffffffffffffff1673ffffffffffffffffffffffffffffffffffffffff163373ffffffffffffffffffffffffffffffffffffffff16146101f5576040517f08c379a00000000000000000000000000000000000000000000000000000000081526004016101ec9061035d565b60405180910390fd5b3373ffffffffffffffffffffffffffffffffffffffff166108fc479081150290604051600060405180830381858888f1935050505015801561023b573d6000803e3d6000fd5b50565b60016020528060005260406000206000915090505481565b600260009054906101000a900473ffffffffffffffffffffffffffffffffffffffff1681565b60008135905061028b8161043c565b92915050565b6000602082840312156102a7576102a66103e5565b5b60006102b58482850161027c565b91505092915050565b6102c7816103a9565b82525050565b60006102da600783610398565b91506102e5826103ea565b602082019050919050565b60006102fd601583610398565b915061030882610413565b602082019050919050565b61031c816103db565b82525050565b600060208201905061033760008301846102be565b92915050565b60006020820190508181036000830152610356816102cd565b9050919050565b60006020820190508181036000830152610376816102f0565b9050919050565b60006020820190506103926000830184610313565b92915050565b600082825260208201905092915050565b60006103b4826103bb565b9050919050565b600073ffffffffffffffffffffffffffffffffffffffff82169050919050565b6000819050919050565b600080fd5b7f47726f7720757000000000000000000000000000000000000000000000000000600082015250565b7f4f6e6c79206b69642063616e2077697468647261770000000000000000000000600082015250565b610445816103a9565b811461045057600080fd5b5056fea26469706673582212206350df6a80aa6708134c9f1d776585b3c27ee174b28954f20fe725fe059b2dc864736f6c63430008070033",
					"opcodes": "PUSH1 0x80 PUSH1 0x40 MSTORE PUSH1 0x40 MLOAD PUSH2 0x675 CODESIZE SUB DUP1 PUSH2 0x675 DUP4 CODECOPY DUP2 DUP2 ADD PUSH1 0x40 MSTORE DUP2 ADD SWAP1 PUSH2 0x25 SWAP2 SWAP1 PUSH2 0xA9 JUMP JUMPDEST DUP2 PUSH1 0x2 PUSH1 0x0 PUSH2 0x100 EXP DUP2 SLOAD DUP2 PUSH20 0xFFFFFFFFFFFFFFFFFFFFFFFFFFFFFFFFFFFFFFFF MUL NOT AND SWAP1 DUP4 PUSH20 0xFFFFFFFFFFFFFFFFFFFFFFFFFFFFFFFFFFFFFFFF AND MUL OR SWAP1 SSTORE POP DUP1 TIMESTAMP PUSH2 0x72 SWAP2 SWAP1 PUSH2 0xE9 JUMP JUMPDEST PUSH1 0x3 DUP2 SWAP1 SSTORE POP POP POP PUSH2 0x1DD JUMP JUMPDEST PUSH1 0x0 DUP2 MLOAD SWAP1 POP PUSH2 0x8E DUP2 PUSH2 0x1AF JUMP JUMPDEST SWAP3 SWAP2 POP POP JUMP JUMPDEST PUSH1 0x0 DUP2 MLOAD SWAP1 POP PUSH2 0xA3 DUP2 PUSH2 0x1C6 JUMP JUMPDEST SWAP3 SWAP2 POP POP JUMP JUMPDEST PUSH1 0x0 DUP1 PUSH1 0x40 DUP4 DUP6 SUB SLT ISZERO PUSH2 0xC0 JUMPI PUSH2 0xBF PUSH2 0x1AA JUMP JUMPDEST JUMPDEST PUSH1 0x0 PUSH2 0xCE DUP6 DUP3 DUP7 ADD PUSH2 0x7F JUMP JUMPDEST SWAP3 POP POP PUSH1 0x20 PUSH2 0xDF DUP6 DUP3 DUP7 ADD PUSH2 0x94 JUMP JUMPDEST SWAP2 POP POP SWAP3 POP SWAP3 SWAP1 POP JUMP JUMPDEST PUSH1 0x0 PUSH2 0xF4 DUP3 PUSH2 0x171 JUMP JUMPDEST SWAP2 POP PUSH2 0xFF DUP4 PUSH2 0x171 JUMP JUMPDEST SWAP3 POP DUP3 PUSH32 0xFFFFFFFFFFFFFFFFFFFFFFFFFFFFFFFFFFFFFFFFFFFFFFFFFFFFFFFFFFFFFFFF SUB DUP3 GT ISZERO PUSH2 0x134 JUMPI PUSH2 0x133 PUSH2 0x17B JUMP JUMPDEST JUMPDEST DUP3 DUP3 ADD SWAP1 POP SWAP3 SWAP2 POP POP JUMP JUMPDEST PUSH1 0x0 PUSH2 0x14A DUP3 PUSH2 0x151 JUMP JUMPDEST SWAP1 POP SWAP2 SWAP1 POP JUMP JUMPDEST PUSH1 0x0 PUSH20 0xFFFFFFFFFFFFFFFFFFFFFFFFFFFFFFFFFFFFFFFF DUP3 AND SWAP1 POP SWAP2 SWAP1 POP JUMP JUMPDEST PUSH1 0x0 DUP2 SWAP1 POP SWAP2 SWAP1 POP JUMP JUMPDEST PUSH32 0x4E487B7100000000000000000000000000000000000000000000000000000000 PUSH1 0x0 MSTORE PUSH1 0x11 PUSH1 0x4 MSTORE PUSH1 0x24 PUSH1 0x0 REVERT JUMPDEST PUSH1 0x0 DUP1 REVERT JUMPDEST PUSH2 0x1B8 DUP2 PUSH2 0x13F JUMP JUMPDEST DUP2 EQ PUSH2 0x1C3 JUMPI PUSH1 0x0 DUP1 REVERT JUMPDEST POP JUMP JUMPDEST PUSH2 0x1CF DUP2 PUSH2 0x171 JUMP JUMPDEST DUP2 EQ PUSH2 0x1DA JUMPI PUSH1 0x0 DUP1 REVERT JUMPDEST POP JUMP JUMPDEST PUSH2 0x489 DUP1 PUSH2 0x1EC PUSH1 0x0 CODECOPY PUSH1 0x0 RETURN INVALID PUSH1 0x80 PUSH1 0x40 MSTORE CALLVALUE DUP1 ISZERO PUSH2 0x10 JUMPI PUSH1 0x0 DUP1 REVERT JUMPDEST POP PUSH1 0x4 CALLDATASIZE LT PUSH2 0x57 JUMPI PUSH1 0x0 CALLDATALOAD PUSH1 0xE0 SHR DUP1 PUSH4 0x204F83F9 EQ PUSH2 0x5C JUMPI DUP1 PUSH4 0x3B9FC337 EQ PUSH2 0x7A JUMPI DUP1 PUSH4 0x3CCFD60B EQ PUSH2 0xAA JUMPI DUP1 PUSH4 0x6607250B EQ PUSH2 0xB4 JUMPI DUP1 PUSH4 0xBFA51C49 EQ PUSH2 0xE4 JUMPI JUMPDEST PUSH1 0x0 DUP1 REVERT JUMPDEST PUSH2 0x64 PUSH2 0x102 JUMP JUMPDEST PUSH1 0x40 MLOAD PUSH2 0x71 SWAP2 SWAP1 PUSH2 0x37D JUMP JUMPDEST PUSH1 0x40 MLOAD DUP1 SWAP2 SUB SWAP1 RETURN JUMPDEST PUSH2 0x94 PUSH1 0x4 DUP1 CALLDATASIZE SUB DUP2 ADD SWAP1 PUSH2 0x8F SWAP2 SWAP1 PUSH2 0x291 JUMP JUMPDEST PUSH2 0x108 JUMP JUMPDEST PUSH1 0x40 MLOAD PUSH2 0xA1 SWAP2 SWAP1 PUSH2 0x37D JUMP JUMPDEST PUSH1 0x40 MLOAD DUP1 SWAP2 SUB SWAP1 RETURN JUMPDEST PUSH2 0xB2 PUSH2 0x120 JUMP JUMPDEST STOP JUMPDEST PUSH2 0xCE PUSH1 0x4 DUP1 CALLDATASIZE SUB DUP2 ADD SWAP1 PUSH2 0xC9 SWAP2 SWAP1 PUSH2 0x291 JUMP JUMPDEST PUSH2 0x23E JUMP JUMPDEST PUSH1 0x40 MLOAD PUSH2 0xDB SWAP2 SWAP1 PUSH2 0x37D JUMP JUMPDEST PUSH1 0x40 MLOAD DUP1 SWAP2 SUB SWAP1 RETURN JUMPDEST PUSH2 0xEC PUSH2 0x256 JUMP JUMPDEST PUSH1 0x40 MLOAD PUSH2 0xF9 SWAP2 SWAP1 PUSH2 0x322 JUMP JUMPDEST PUSH1 0x40 MLOAD DUP1 SWAP2 SUB SWAP1 RETURN JUMPDEST PUSH1 0x3 SLOAD DUP2 JUMP JUMPDEST PUSH1 0x0 PUSH1 0x20 MSTORE DUP1 PUSH1 0x0 MSTORE PUSH1 0x40 PUSH1 0x0 KECCAK256 PUSH1 0x0 SWAP2 POP SWAP1 POP SLOAD DUP2 JUMP JUMPDEST PUSH1 0x3 SLOAD TIMESTAMP LT ISZERO PUSH2 0x165 JUMPI PUSH1 0x40 MLOAD PUSH32 0x8C379A000000000000000000000000000000000000000000000000000000000 DUP2 MSTORE PUSH1 0x4 ADD PUSH2 0x15C SWAP1 PUSH2 0x33D JUMP JUMPDEST PUSH1 0x40 MLOAD DUP1 SWAP2 SUB SWAP1 REVERT JUMPDEST PUSH1 0x2 PUSH1 0x0 SWAP1 SLOAD SWAP1 PUSH2 0x100 EXP SWAP1 DIV PUSH20 0xFFFFFFFFFFFFFFFFFFFFFFFFFFFFFFFFFFFFFFFF AND PUSH20 0xFFFFFFFFFFFFFFFFFFFFFFFFFFFFFFFFFFFFFFFF AND CALLER PUSH20 0xFFFFFFFFFFFFFFFFFFFFFFFFFFFFFFFFFFFFFFFF AND EQ PUSH2 0x1F5 JUMPI PUSH1 0x40 MLOAD PUSH32 0x8C379A000000000000000000000000000000000000000000000000000000000 DUP2 MSTORE PUSH1 0x4 ADD PUSH2 0x1EC SWAP1 PUSH2 0x35D JUMP JUMPDEST PUSH1 0x40 MLOAD DUP1 SWAP2 SUB SWAP1 REVERT JUMPDEST CALLER PUSH20 0xFFFFFFFFFFFFFFFFFFFFFFFFFFFFFFFFFFFFFFFF AND PUSH2 0x8FC SELFBALANCE SWAP1 DUP2 ISZERO MUL SWAP1 PUSH1 0x40 MLOAD PUSH1 0x0 PUSH1 0x40 MLOAD DUP1 DUP4 SUB DUP2 DUP6 DUP9 DUP9 CALL SWAP4 POP POP POP POP ISZERO DUP1 ISZERO PUSH2 0x23B JUMPI RETURNDATASIZE PUSH1 0x0 DUP1 RETURNDATACOPY RETURNDATASIZE PUSH1 0x0 REVERT JUMPDEST POP JUMP JUMPDEST PUSH1 0x1 PUSH1 0x20 MSTORE DUP1 PUSH1 0x0 MSTORE PUSH1 0x40 PUSH1 0x0 KECCAK256 PUSH1 0x0 SWAP2 POP SWAP1 POP SLOAD DUP2 JUMP JUMPDEST PUSH1 0x2 PUSH1 0x0 SWAP1 SLOAD SWAP1 PUSH2 0x100 EXP SWAP1 DIV PUSH20 0xFFFFFFFFFFFFFFFFFFFFFFFFFFFFFFFFFFFFFFFF AND DUP2 JUMP JUMPDEST PUSH1 0x0 DUP2 CALLDATALOAD SWAP1 POP PUSH2 0x28B DUP2 PUSH2 0x43C JUMP JUMPDEST SWAP3 SWAP2 POP POP JUMP JUMPDEST PUSH1 0x0 PUSH1 0x20 DUP3 DUP5 SUB SLT ISZERO PUSH2 0x2A7 JUMPI PUSH2 0x2A6 PUSH2 0x3E5 JUMP JUMPDEST JUMPDEST PUSH1 0x0 PUSH2 0x2B5 DUP5 DUP3 DUP6 ADD PUSH2 0x27C JUMP JUMPDEST SWAP2 POP POP SWAP3 SWAP2 POP POP JUMP JUMPDEST PUSH2 0x2C7 DUP2 PUSH2 0x3A9 JUMP JUMPDEST DUP3 MSTORE POP POP JUMP JUMPDEST PUSH1 0x0 PUSH2 0x2DA PUSH1 0x7 DUP4 PUSH2 0x398 JUMP JUMPDEST SWAP2 POP PUSH2 0x2E5 DUP3 PUSH2 0x3EA JUMP JUMPDEST PUSH1 0x20 DUP3 ADD SWAP1 POP SWAP2 SWAP1 POP JUMP JUMPDEST PUSH1 0x0 PUSH2 0x2FD PUSH1 0x15 DUP4 PUSH2 0x398 JUMP JUMPDEST SWAP2 POP PUSH2 0x308 DUP3 PUSH2 0x413 JUMP JUMPDEST PUSH1 0x20 DUP3 ADD SWAP1 POP SWAP2 SWAP1 POP JUMP JUMPDEST PUSH2 0x31C DUP2 PUSH2 0x3DB JUMP JUMPDEST DUP3 MSTORE POP POP JUMP JUMPDEST PUSH1 0x0 PUSH1 0x20 DUP3 ADD SWAP1 POP PUSH2 0x337 PUSH1 0x0 DUP4 ADD DUP5 PUSH2 0x2BE JUMP JUMPDEST SWAP3 SWAP2 POP POP JUMP JUMPDEST PUSH1 0x0 PUSH1 0x20 DUP3 ADD SWAP1 POP DUP2 DUP2 SUB PUSH1 0x0 DUP4 ADD MSTORE PUSH2 0x356 DUP2 PUSH2 0x2CD JUMP JUMPDEST SWAP1 POP SWAP2 SWAP1 POP JUMP JUMPDEST PUSH1 0x0 PUSH1 0x20 DUP3 ADD SWAP1 POP DUP2 DUP2 SUB PUSH1 0x0 DUP4 ADD MSTORE PUSH2 0x376 DUP2 PUSH2 0x2F0 JUMP JUMPDEST SWAP1 POP SWAP2 SWAP1 POP JUMP JUMPDEST PUSH1 0x0 PUSH1 0x20 DUP3 ADD SWAP1 POP PUSH2 0x392 PUSH1 0x0 DUP4 ADD DUP5 PUSH2 0x313 JUMP JUMPDEST SWAP3 SWAP2 POP POP JUMP JUMPDEST PUSH1 0x0 DUP3 DUP3 MSTORE PUSH1 0x20 DUP3 ADD SWAP1 POP SWAP3 SWAP2 POP POP JUMP JUMPDEST PUSH1 0x0 PUSH2 0x3B4 DUP3 PUSH2 0x3BB JUMP JUMPDEST SWAP1 POP SWAP2 SWAP1 POP JUMP JUMPDEST PUSH1 0x0 PUSH20 0xFFFFFFFFFFFFFFFFFFFFFFFFFFFFFFFFFFFFFFFF DUP3 AND SWAP1 POP SWAP2 SWAP1 POP JUMP JUMPDEST PUSH1 0x0 DUP2 SWAP1 POP SWAP2 SWAP1 POP JUMP JUMPDEST PUSH1 0x0 DUP1 REVERT JUMPDEST PUSH32 0x47726F7720757000000000000000000000000000000000000000000000000000 PUSH1 0x0 DUP3 ADD MSTORE POP JUMP JUMPDEST PUSH32 0x4F6E6C79206B69642063616E2077697468647261770000000000000000000000 PUSH1 0x0 DUP3 ADD MSTORE POP JUMP JUMPDEST PUSH2 0x445 DUP2 PUSH2 0x3A9 JUMP JUMPDEST DUP2 EQ PUSH2 0x450 JUMPI PUSH1 0x0 DUP1 REVERT JUMPDEST POP JUMP INVALID LOG2 PUSH5 0x6970667358 0x22 SLT KECCAK256 PUSH4 0x50DF6A80 0xAA PUSH8 0x8134C9F1D776585 0xB3 0xC2 PUSH31 0xE174B28954F20FE725FE059B2DC864736F6C63430008070033000000000000 "
				},
				"gasEstimates": {
					"creation": {
						"codeDepositCost": "232200",
						"executionCost": "infinite",
						"totalCost": "infinite"
					},
					"external": {
						"ammount(address)": "2814",
						"kid()": "2580",
						"maturities(address)": "2858",
						"maturity()": "2407",
						"withdraw()": "infinite"
					}
				},
				"methodIdentifiers": {
					"ammount(address)": "3b9fc337",
					"kid()": "bfa51c49",
					"maturities(address)": "6607250b",
					"maturity()": "204f83f9",
					"withdraw()": "3ccfd60b"
				}
			},
			"storageLayout": {
				"storage": [
					{
						"astId": 5,
						"contract": "github/fahadashiq/block-chain/smart-contracts/practice.sol:Trust",
						"label": "ammount",
						"offset": 0,
						"slot": "0",
						"type": "t_mapping(t_address,t_uint256)"
					},
					{
						"astId": 9,
						"contract": "github/fahadashiq/block-chain/smart-contracts/practice.sol:Trust",
						"label": "maturities",
						"offset": 0,
						"slot": "1",
						"type": "t_mapping(t_address,t_uint256)"
					},
					{
						"astId": 11,
						"contract": "github/fahadashiq/block-chain/smart-contracts/practice.sol:Trust",
						"label": "kid",
						"offset": 0,
						"slot": "2",
						"type": "t_address"
					},
					{
						"astId": 13,
						"contract": "github/fahadashiq/block-chain/smart-contracts/practice.sol:Trust",
						"label": "maturity",
						"offset": 0,
						"slot": "3",
						"type": "t_uint256"
					}
				],
				"types": {
					"t_address": {
						"encoding": "inplace",
						"label": "address",
						"numberOfBytes": "20"
					},
					"t_mapping(t_address,t_uint256)": {
						"encoding": "mapping",
						"key": "t_address",
						"label": "mapping(address => uint256)",
						"numberOfBytes": "32",
						"value": "t_uint256"
					},
					"t_uint256": {
						"encoding": "inplace",
						"label": "uint256",
						"numberOfBytes": "32"
					}
				}
			},
			"userdoc": {
				"kind": "user",
				"methods": {},
				"version": 1
			}
		}
	}
}