{
	"github/fahadashiq/block-chain/smart-contracts/practice.sol": {
		"Trust": {
			"abi": [
				{
					"inputs": [
						{
							"internalType": "address",
							"name": "_kid",
							"type": "address"
						},
						{
							"internalType": "uint256",
							"name": "timeToMaturity",
							"type": "uint256"
						}
					],
					"stateMutability": "payable",
					"type": "constructor"
				},
				{
					"inputs": [
						{
							"internalType": "address",
							"name": "kid",
							"type": "address"
						},
						{
							"internalType": "uint256",
							"name": "timeToMaturity",
							"type": "uint256"
						}
					],
					"name": "addKid",
					"outputs": [],
					"stateMutability": "payable",
					"type": "function"
				},
				{
					"inputs": [
						{
							"internalType": "address",
							"name": "",
							"type": "address"
						}
					],
					"name": "amount",
					"outputs": [
						{
							"internalType": "uint256",
							"name": "",
							"type": "uint256"
						}
					],
					"stateMutability": "view",
					"type": "function"
				},
				{
					"inputs": [],
					"name": "kid",
					"outputs": [
						{
							"internalType": "address",
							"name": "",
							"type": "address"
						}
					],
					"stateMutability": "view",
					"type": "function"
				},
				{
					"inputs": [
						{
							"internalType": "address",
							"name": "",
							"type": "address"
						}
					],
					"name": "maturities",
					"outputs": [
						{
							"internalType": "uint256",
							"name": "",
							"type": "uint256"
						}
					],
					"stateMutability": "view",
					"type": "function"
				},
				{
					"inputs": [],
					"name": "maturity",
					"outputs": [
						{
							"internalType": "uint256",
							"name": "",
							"type": "uint256"
						}
					],
					"stateMutability": "view",
					"type": "function"
				},
				{
					"inputs": [],
					"name": "withdraw",
					"outputs": [],
					"stateMutability": "nonpayable",
					"type": "function"
				}
			],
			"devdoc": {
				"kind": "dev",
				"methods": {},
				"version": 1
			},
			"evm": {
				"assembly": "    /* \"github/fahadashiq/block-chain/smart-contracts/practice.sol\":28:747  contract Trust {\r... */\n  mstore(0x40, 0x80)\n    /* \"github/fahadashiq/block-chain/smart-contracts/practice.sol\":377:516  constructor(address _kid, uint timeToMaturity) payable {\r... */\n  mload(0x40)\n  sub(codesize, bytecodeSize)\n  dup1\n  bytecodeSize\n  dup4\n  codecopy\n  dup2\n  dup2\n  add\n  0x40\n  mstore\n  dup2\n  add\n  swap1\n  tag_1\n  swap2\n  swap1\n  tag_2\n  jump\t// in\ntag_1:\n    /* \"github/fahadashiq/block-chain/smart-contracts/practice.sol\":449:453  _kid */\n  dup2\n    /* \"github/fahadashiq/block-chain/smart-contracts/practice.sol\":443:446  kid */\n  0x02\n  0x00\n    /* \"github/fahadashiq/block-chain/smart-contracts/practice.sol\":443:453  kid = _kid */\n  0x0100\n  exp\n  dup2\n  sload\n  dup2\n  0xffffffffffffffffffffffffffffffffffffffff\n  mul\n  not\n  and\n  swap1\n  dup4\n  0xffffffffffffffffffffffffffffffffffffffff\n  and\n  mul\n  or\n  swap1\n  sstore\n  pop\n    /* \"github/fahadashiq/block-chain/smart-contracts/practice.sol\":494:508  timeToMaturity */\n  dup1\n    /* \"github/fahadashiq/block-chain/smart-contracts/practice.sol\":475:490  block.timestamp */\n  timestamp\n    /* \"github/fahadashiq/block-chain/smart-contracts/practice.sol\":475:508  block.timestamp +  timeToMaturity */\n  tag_5\n  swap2\n  swap1\n  tag_6\n  jump\t// in\ntag_5:\n    /* \"github/fahadashiq/block-chain/smart-contracts/practice.sol\":464:472  maturity */\n  0x03\n    /* \"github/fahadashiq/block-chain/smart-contracts/practice.sol\":464:508  maturity = block.timestamp +  timeToMaturity */\n  dup2\n  swap1\n  sstore\n  pop\n    /* \"github/fahadashiq/block-chain/smart-contracts/practice.sol\":377:516  constructor(address _kid, uint timeToMaturity) payable {\r... */\n  pop\n  pop\n    /* \"github/fahadashiq/block-chain/smart-contracts/practice.sol\":28:747  contract Trust {\r... */\n  jump(tag_7)\n    /* \"#utility.yul\":7:150   */\ntag_9:\n    /* \"#utility.yul\":64:69   */\n  0x00\n    /* \"#utility.yul\":95:101   */\n  dup2\n    /* \"#utility.yul\":89:102   */\n  mload\n    /* \"#utility.yul\":80:102   */\n  swap1\n  pop\n    /* \"#utility.yul\":111:144   */\n  tag_11\n    /* \"#utility.yul\":138:143   */\n  dup2\n    /* \"#utility.yul\":111:144   */\n  tag_12\n  jump\t// in\ntag_11:\n    /* \"#utility.yul\":7:150   */\n  swap3\n  swap2\n  pop\n  pop\n  jump\t// out\n    /* \"#utility.yul\":156:299   */\ntag_13:\n    /* \"#utility.yul\":213:218   */\n  0x00\n    /* \"#utility.yul\":244:250   */\n  dup2\n    /* \"#utility.yul\":238:251   */\n  mload\n    /* \"#utility.yul\":229:251   */\n  swap1\n  pop\n    /* \"#utility.yul\":260:293   */\n  tag_15\n    /* \"#utility.yul\":287:292   */\n  dup2\n    /* \"#utility.yul\":260:293   */\n  tag_16\n  jump\t// in\ntag_15:\n    /* \"#utility.yul\":156:299   */\n  swap3\n  swap2\n  pop\n  pop\n  jump\t// out\n    /* \"#utility.yul\":305:812   */\ntag_2:\n    /* \"#utility.yul\":384:390   */\n  0x00\n    /* \"#utility.yul\":392:398   */\n  dup1\n    /* \"#utility.yul\":441:443   */\n  0x40\n    /* \"#utility.yul\":429:438   */\n  dup4\n    /* \"#utility.yul\":420:427   */\n  dup6\n    /* \"#utility.yul\":416:439   */\n  sub\n    /* \"#utility.yul\":412:444   */\n  slt\n    /* \"#utility.yul\":409:528   */\n  iszero\n  tag_18\n  jumpi\n    /* \"#utility.yul\":447:526   */\n  tag_19\n  tag_20\n  jump\t// in\ntag_19:\n    /* \"#utility.yul\":409:528   */\ntag_18:\n    /* \"#utility.yul\":567:568   */\n  0x00\n    /* \"#utility.yul\":592:656   */\n  tag_21\n    /* \"#utility.yul\":648:655   */\n  dup6\n    /* \"#utility.yul\":639:645   */\n  dup3\n    /* \"#utility.yul\":628:637   */\n  dup7\n    /* \"#utility.yul\":624:646   */\n  add\n    /* \"#utility.yul\":592:656   */\n  tag_9\n  jump\t// in\ntag_21:\n    /* \"#utility.yul\":582:656   */\n  swap3\n  pop\n    /* \"#utility.yul\":538:666   */\n  pop\n    /* \"#utility.yul\":705:707   */\n  0x20\n    /* \"#utility.yul\":731:795   */\n  tag_22\n    /* \"#utility.yul\":787:794   */\n  dup6\n    /* \"#utility.yul\":778:784   */\n  dup3\n    /* \"#utility.yul\":767:776   */\n  dup7\n    /* \"#utility.yul\":763:785   */\n  add\n    /* \"#utility.yul\":731:795   */\n  tag_13\n  jump\t// in\ntag_22:\n    /* \"#utility.yul\":721:795   */\n  swap2\n  pop\n    /* \"#utility.yul\":676:805   */\n  pop\n    /* \"#utility.yul\":305:812   */\n  swap3\n  pop\n  swap3\n  swap1\n  pop\n  jump\t// out\n    /* \"#utility.yul\":899:1204   */\ntag_6:\n    /* \"#utility.yul\":939:942   */\n  0x00\n    /* \"#utility.yul\":958:978   */\n  tag_26\n    /* \"#utility.yul\":976:977   */\n  dup3\n    /* \"#utility.yul\":958:978   */\n  tag_27\n  jump\t// in\ntag_26:\n    /* \"#utility.yul\":953:978   */\n  swap2\n  pop\n    /* \"#utility.yul\":992:1012   */\n  tag_28\n    /* \"#utility.yul\":1010:1011   */\n  dup4\n    /* \"#utility.yul\":992:1012   */\n  tag_27\n  jump\t// in\ntag_28:\n    /* \"#utility.yul\":987:1012   */\n  swap3\n  pop\n    /* \"#utility.yul\":1146:1147   */\n  dup3\n    /* \"#utility.yul\":1078:1144   */\n  0xffffffffffffffffffffffffffffffffffffffffffffffffffffffffffffffff\n    /* \"#utility.yul\":1074:1148   */\n  sub\n    /* \"#utility.yul\":1071:1072   */\n  dup3\n    /* \"#utility.yul\":1068:1149   */\n  gt\n    /* \"#utility.yul\":1065:1172   */\n  iszero\n  tag_29\n  jumpi\n    /* \"#utility.yul\":1152:1170   */\n  tag_30\n  tag_31\n  jump\t// in\ntag_30:\n    /* \"#utility.yul\":1065:1172   */\ntag_29:\n    /* \"#utility.yul\":1196:1197   */\n  dup3\n    /* \"#utility.yul\":1193:1194   */\n  dup3\n    /* \"#utility.yul\":1189:1198   */\n  add\n    /* \"#utility.yul\":1182:1198   */\n  swap1\n  pop\n    /* \"#utility.yul\":899:1204   */\n  swap3\n  swap2\n  pop\n  pop\n  jump\t// out\n    /* \"#utility.yul\":1210:1306   */\ntag_32:\n    /* \"#utility.yul\":1247:1254   */\n  0x00\n    /* \"#utility.yul\":1276:1300   */\n  tag_34\n    /* \"#utility.yul\":1294:1299   */\n  dup3\n    /* \"#utility.yul\":1276:1300   */\n  tag_35\n  jump\t// in\ntag_34:\n    /* \"#utility.yul\":1265:1300   */\n  swap1\n  pop\n    /* \"#utility.yul\":1210:1306   */\n  swap2\n  swap1\n  pop\n  jump\t// out\n    /* \"#utility.yul\":1312:1438   */\ntag_35:\n    /* \"#utility.yul\":1349:1356   */\n  0x00\n    /* \"#utility.yul\":1389:1431   */\n  0xffffffffffffffffffffffffffffffffffffffff\n    /* \"#utility.yul\":1382:1387   */\n  dup3\n    /* \"#utility.yul\":1378:1432   */\n  and\n    /* \"#utility.yul\":1367:1432   */\n  swap1\n  pop\n    /* \"#utility.yul\":1312:1438   */\n  swap2\n  swap1\n  pop\n  jump\t// out\n    /* \"#utility.yul\":1444:1521   */\ntag_27:\n    /* \"#utility.yul\":1481:1488   */\n  0x00\n    /* \"#utility.yul\":1510:1515   */\n  dup2\n    /* \"#utility.yul\":1499:1515   */\n  swap1\n  pop\n    /* \"#utility.yul\":1444:1521   */\n  swap2\n  swap1\n  pop\n  jump\t// out\n    /* \"#utility.yul\":1527:1707   */\ntag_31:\n    /* \"#utility.yul\":1575:1652   */\n  0x4e487b7100000000000000000000000000000000000000000000000000000000\n    /* \"#utility.yul\":1572:1573   */\n  0x00\n    /* \"#utility.yul\":1565:1653   */\n  mstore\n    /* \"#utility.yul\":1672:1676   */\n  0x11\n    /* \"#utility.yul\":1669:1670   */\n  0x04\n    /* \"#utility.yul\":1662:1677   */\n  mstore\n    /* \"#utility.yul\":1696:1700   */\n  0x24\n    /* \"#utility.yul\":1693:1694   */\n  0x00\n    /* \"#utility.yul\":1686:1701   */\n  revert\n    /* \"#utility.yul\":1836:1953   */\ntag_20:\n    /* \"#utility.yul\":1945:1946   */\n  0x00\n    /* \"#utility.yul\":1942:1943   */\n  dup1\n    /* \"#utility.yul\":1935:1947   */\n  revert\n    /* \"#utility.yul\":1959:2081   */\ntag_12:\n    /* \"#utility.yul\":2032:2056   */\n  tag_43\n    /* \"#utility.yul\":2050:2055   */\n  dup2\n    /* \"#utility.yul\":2032:2056   */\n  tag_32\n  jump\t// in\ntag_43:\n    /* \"#utility.yul\":2025:2030   */\n  dup2\n    /* \"#utility.yul\":2022:2057   */\n  eq\n    /* \"#utility.yul\":2012:2075   */\n  tag_44\n  jumpi\n    /* \"#utility.yul\":2071:2072   */\n  0x00\n    /* \"#utility.yul\":2068:2069   */\n  dup1\n    /* \"#utility.yul\":2061:2073   */\n  revert\n    /* \"#utility.yul\":2012:2075   */\ntag_44:\n    /* \"#utility.yul\":1959:2081   */\n  pop\n  jump\t// out\n    /* \"#utility.yul\":2087:2209   */\ntag_16:\n    /* \"#utility.yul\":2160:2184   */\n  tag_46\n    /* \"#utility.yul\":2178:2183   */\n  dup2\n    /* \"#utility.yul\":2160:2184   */\n  tag_27\n  jump\t// in\ntag_46:\n    /* \"#utility.yul\":2153:2158   */\n  dup2\n    /* \"#utility.yul\":2150:2185   */\n  eq\n    /* \"#utility.yul\":2140:2203   */\n  tag_47\n  jumpi\n    /* \"#utility.yul\":2199:2200   */\n  0x00\n    /* \"#utility.yul\":2196:2197   */\n  dup1\n    /* \"#utility.yul\":2189:2201   */\n  revert\n    /* \"#utility.yul\":2140:2203   */\ntag_47:\n    /* \"#utility.yul\":2087:2209   */\n  pop\n  jump\t// out\n    /* \"github/fahadashiq/block-chain/smart-contracts/practice.sol\":28:747  contract Trust {\r... */\ntag_7:\n  dataSize(sub_0)\n  dup1\n  dataOffset(sub_0)\n  0x00\n  codecopy\n  0x00\n  return\nstop\n\nsub_0: assembly {\n        /* \"github/fahadashiq/block-chain/smart-contracts/practice.sol\":28:747  contract Trust {\r... */\n      mstore(0x40, 0x80)\n      jumpi(tag_1, lt(calldatasize, 0x04))\n      shr(0xe0, calldataload(0x00))\n      dup1\n      0x204f83f9\n      eq\n      tag_2\n      jumpi\n      dup1\n      0x3ccfd60b\n      eq\n      tag_3\n      jumpi\n      dup1\n      0x40990e30\n      eq\n      tag_4\n      jumpi\n      dup1\n      0x6607250b\n      eq\n      tag_5\n      jumpi\n      dup1\n      0xb9f0bf66\n      eq\n      tag_6\n      jumpi\n      dup1\n      0xbfa51c49\n      eq\n      tag_7\n      jumpi\n    tag_1:\n      0x00\n      dup1\n      revert\n        /* \"github/fahadashiq/block-chain/smart-contracts/practice.sol\":350:370  uint public maturity */\n    tag_2:\n      callvalue\n      dup1\n      iszero\n      tag_8\n      jumpi\n      0x00\n      dup1\n      revert\n    tag_8:\n      pop\n      tag_9\n      tag_10\n      jump\t// in\n    tag_9:\n      mload(0x40)\n      tag_11\n      swap2\n      swap1\n      tag_12\n      jump\t// in\n    tag_11:\n      mload(0x40)\n      dup1\n      swap2\n      sub\n      swap1\n      return\n        /* \"github/fahadashiq/block-chain/smart-contracts/practice.sol\":524:744  function withdraw() external {\r... */\n    tag_3:\n      callvalue\n      dup1\n      iszero\n      tag_13\n      jumpi\n      0x00\n      dup1\n      revert\n    tag_13:\n      pop\n      tag_14\n      tag_15\n      jump\t// in\n    tag_14:\n      stop\n        /* \"github/fahadashiq/block-chain/smart-contracts/practice.sol\":146:317  function addKid(address kid, uint timeToMaturity) external payable {\r... */\n    tag_4:\n      tag_16\n      0x04\n      dup1\n      calldatasize\n      sub\n      dup2\n      add\n      swap1\n      tag_17\n      swap2\n      swap1\n      tag_18\n      jump\t// in\n    tag_17:\n      tag_19\n      jump\t// in\n    tag_16:\n      stop\n        /* \"github/fahadashiq/block-chain/smart-contracts/practice.sol\":95:137  mapping(address => uint) public maturities */\n    tag_5:\n      callvalue\n      dup1\n      iszero\n      tag_20\n      jumpi\n      0x00\n      dup1\n      revert\n    tag_20:\n      pop\n      tag_21\n      0x04\n      dup1\n      calldatasize\n      sub\n      dup2\n      add\n      swap1\n      tag_22\n      swap2\n      swap1\n      tag_23\n      jump\t// in\n    tag_22:\n      tag_24\n      jump\t// in\n    tag_21:\n      mload(0x40)\n      tag_25\n      swap2\n      swap1\n      tag_12\n      jump\t// in\n    tag_25:\n      mload(0x40)\n      dup1\n      swap2\n      sub\n      swap1\n      return\n        /* \"github/fahadashiq/block-chain/smart-contracts/practice.sol\":50:88  mapping(address => uint) public amount */\n    tag_6:\n      callvalue\n      dup1\n      iszero\n      tag_26\n      jumpi\n      0x00\n      dup1\n      revert\n    tag_26:\n      pop\n      tag_27\n      0x04\n      dup1\n      calldatasize\n      sub\n      dup2\n      add\n      swap1\n      tag_28\n      swap2\n      swap1\n      tag_23\n      jump\t// in\n    tag_28:\n      tag_29\n      jump\t// in\n    tag_27:\n      mload(0x40)\n      tag_30\n      swap2\n      swap1\n      tag_12\n      jump\t// in\n    tag_30:\n      mload(0x40)\n      dup1\n      swap2\n      sub\n      swap1\n      return\n        /* \"github/fahadashiq/block-chain/smart-contracts/practice.sol\":325:343  address public kid */\n    tag_7:\n      callvalue\n      dup1\n      iszero\n      tag_31\n      jumpi\n      0x00\n      dup1\n      revert\n    tag_31:\n      pop\n      tag_32\n      tag_33\n      jump\t// in\n    tag_32:\n      mload(0x40)\n      tag_34\n      swap2\n      swap1\n      tag_35\n      jump\t// in\n    tag_34:\n      mload(0x40)\n      dup1\n      swap2\n      sub\n      swap1\n      return\n        /* \"github/fahadashiq/block-chain/smart-contracts/practice.sol\":350:370  uint public maturity */\n    tag_10:\n      sload(0x03)\n      dup2\n      jump\t// out\n        /* \"github/fahadashiq/block-chain/smart-contracts/practice.sol\":524:744  function withdraw() external {\r... */\n    tag_15:\n        /* \"github/fahadashiq/block-chain/smart-contracts/practice.sol\":591:599  maturity */\n      sload(0x03)\n        /* \"github/fahadashiq/block-chain/smart-contracts/practice.sol\":572:587  block.timestamp */\n      timestamp\n        /* \"github/fahadashiq/block-chain/smart-contracts/practice.sol\":572:599  block.timestamp >= maturity */\n      lt\n      iszero\n        /* \"github/fahadashiq/block-chain/smart-contracts/practice.sol\":564:611  require(block.timestamp >= maturity, 'Grow up') */\n      tag_37\n      jumpi\n      mload(0x40)\n      0x08c379a000000000000000000000000000000000000000000000000000000000\n      dup2\n      mstore\n      0x04\n      add\n      tag_38\n      swap1\n      tag_39\n      jump\t// in\n    tag_38:\n      mload(0x40)\n      dup1\n      swap2\n      sub\n      swap1\n      revert\n    tag_37:\n        /* \"github/fahadashiq/block-chain/smart-contracts/practice.sol\":644:647  kid */\n      0x02\n      0x00\n      swap1\n      sload\n      swap1\n      0x0100\n      exp\n      swap1\n      div\n      0xffffffffffffffffffffffffffffffffffffffff\n      and\n        /* \"github/fahadashiq/block-chain/smart-contracts/practice.sol\":630:647  msg.sender == kid */\n      0xffffffffffffffffffffffffffffffffffffffff\n      and\n        /* \"github/fahadashiq/block-chain/smart-contracts/practice.sol\":630:640  msg.sender */\n      caller\n        /* \"github/fahadashiq/block-chain/smart-contracts/practice.sol\":630:647  msg.sender == kid */\n      0xffffffffffffffffffffffffffffffffffffffff\n      and\n      eq\n        /* \"github/fahadashiq/block-chain/smart-contracts/practice.sol\":622:673  require(msg.sender == kid, 'Only kid can withdraw') */\n      tag_40\n      jumpi\n      mload(0x40)\n      0x08c379a000000000000000000000000000000000000000000000000000000000\n      dup2\n      mstore\n      0x04\n      add\n      tag_41\n      swap1\n      tag_42\n      jump\t// in\n    tag_41:\n      mload(0x40)\n      dup1\n      swap2\n      sub\n      swap1\n      revert\n    tag_40:\n        /* \"github/fahadashiq/block-chain/smart-contracts/practice.sol\":692:702  msg.sender */\n      caller\n        /* \"github/fahadashiq/block-chain/smart-contracts/practice.sol\":684:712  payable(msg.sender).transfer */\n      0xffffffffffffffffffffffffffffffffffffffff\n      and\n        /* \"github/fahadashiq/block-chain/smart-contracts/practice.sol\":684:735  payable(msg.sender).transfer(address(this).balance) */\n      0x08fc\n        /* \"github/fahadashiq/block-chain/smart-contracts/practice.sol\":713:734  address(this).balance */\n      selfbalance\n        /* \"github/fahadashiq/block-chain/smart-contracts/practice.sol\":684:735  payable(msg.sender).transfer(address(this).balance) */\n      swap1\n      dup2\n      iszero\n      mul\n      swap1\n      mload(0x40)\n      0x00\n      mload(0x40)\n      dup1\n      dup4\n      sub\n      dup2\n      dup6\n      dup9\n      dup9\n      call\n      swap4\n      pop\n      pop\n      pop\n      pop\n      iszero\n      dup1\n      iszero\n      tag_44\n      jumpi\n      returndatasize\n      0x00\n      dup1\n      returndatacopy\n      revert(0x00, returndatasize)\n    tag_44:\n      pop\n        /* \"github/fahadashiq/block-chain/smart-contracts/practice.sol\":524:744  function withdraw() external {\r... */\n      jump\t// out\n        /* \"github/fahadashiq/block-chain/smart-contracts/practice.sol\":146:317  function addKid(address kid, uint timeToMaturity) external payable {\r... */\n    tag_19:\n        /* \"github/fahadashiq/block-chain/smart-contracts/practice.sol\":238:247  msg.value */\n      callvalue\n        /* \"github/fahadashiq/block-chain/smart-contracts/practice.sol\":224:230  amount */\n      0x00\n        /* \"github/fahadashiq/block-chain/smart-contracts/practice.sol\":224:235  amount[kid] */\n      dup1\n        /* \"github/fahadashiq/block-chain/smart-contracts/practice.sol\":231:234  kid */\n      dup5\n        /* \"github/fahadashiq/block-chain/smart-contracts/practice.sol\":224:235  amount[kid] */\n      0xffffffffffffffffffffffffffffffffffffffff\n      and\n      0xffffffffffffffffffffffffffffffffffffffff\n      and\n      dup2\n      mstore\n      0x20\n      add\n      swap1\n      dup2\n      mstore\n      0x20\n      add\n      0x00\n      keccak256\n        /* \"github/fahadashiq/block-chain/smart-contracts/practice.sol\":224:247  amount[kid] = msg.value */\n      dup2\n      swap1\n      sstore\n      pop\n        /* \"github/fahadashiq/block-chain/smart-contracts/practice.sol\":295:309  timeToMaturity */\n      dup1\n        /* \"github/fahadashiq/block-chain/smart-contracts/practice.sol\":276:291  block.timestamp */\n      timestamp\n        /* \"github/fahadashiq/block-chain/smart-contracts/practice.sol\":276:309  block.timestamp +  timeToMaturity */\n      tag_46\n      swap2\n      swap1\n      tag_47\n      jump\t// in\n    tag_46:\n        /* \"github/fahadashiq/block-chain/smart-contracts/practice.sol\":258:268  maturities */\n      0x01\n        /* \"github/fahadashiq/block-chain/smart-contracts/practice.sol\":258:273  maturities[kid] */\n      0x00\n        /* \"github/fahadashiq/block-chain/smart-contracts/practice.sol\":269:272  kid */\n      dup5\n        /* \"github/fahadashiq/block-chain/smart-contracts/practice.sol\":258:273  maturities[kid] */\n      0xffffffffffffffffffffffffffffffffffffffff\n      and\n      0xffffffffffffffffffffffffffffffffffffffff\n      and\n      dup2\n      mstore\n      0x20\n      add\n      swap1\n      dup2\n      mstore\n      0x20\n      add\n      0x00\n      keccak256\n        /* \"github/fahadashiq/block-chain/smart-contracts/practice.sol\":258:309  maturities[kid] = block.timestamp +  timeToMaturity */\n      dup2\n      swap1\n      sstore\n      pop\n        /* \"github/fahadashiq/block-chain/smart-contracts/practice.sol\":146:317  function addKid(address kid, uint timeToMaturity) external payable {\r... */\n      pop\n      pop\n      jump\t// out\n        /* \"github/fahadashiq/block-chain/smart-contracts/practice.sol\":95:137  mapping(address => uint) public maturities */\n    tag_24:\n      mstore(0x20, 0x01)\n      dup1\n      0x00\n      mstore\n      keccak256(0x00, 0x40)\n      0x00\n      swap2\n      pop\n      swap1\n      pop\n      sload\n      dup2\n      jump\t// out\n        /* \"github/fahadashiq/block-chain/smart-contracts/practice.sol\":50:88  mapping(address => uint) public amount */\n    tag_29:\n      mstore(0x20, 0x00)\n      dup1\n      0x00\n      mstore\n      keccak256(0x00, 0x40)\n      0x00\n      swap2\n      pop\n      swap1\n      pop\n      sload\n      dup2\n      jump\t// out\n        /* \"github/fahadashiq/block-chain/smart-contracts/practice.sol\":325:343  address public kid */\n    tag_33:\n      0x02\n      0x00\n      swap1\n      sload\n      swap1\n      0x0100\n      exp\n      swap1\n      div\n      0xffffffffffffffffffffffffffffffffffffffff\n      and\n      dup2\n      jump\t// out\n        /* \"#utility.yul\":7:146   */\n    tag_49:\n        /* \"#utility.yul\":53:58   */\n      0x00\n        /* \"#utility.yul\":91:97   */\n      dup2\n        /* \"#utility.yul\":78:98   */\n      calldataload\n        /* \"#utility.yul\":69:98   */\n      swap1\n      pop\n        /* \"#utility.yul\":107:140   */\n      tag_51\n        /* \"#utility.yul\":134:139   */\n      dup2\n        /* \"#utility.yul\":107:140   */\n      tag_52\n      jump\t// in\n    tag_51:\n        /* \"#utility.yul\":7:146   */\n      swap3\n      swap2\n      pop\n      pop\n      jump\t// out\n        /* \"#utility.yul\":152:291   */\n    tag_53:\n        /* \"#utility.yul\":198:203   */\n      0x00\n        /* \"#utility.yul\":236:242   */\n      dup2\n        /* \"#utility.yul\":223:243   */\n      calldataload\n        /* \"#utility.yul\":214:243   */\n      swap1\n      pop\n        /* \"#utility.yul\":252:285   */\n      tag_55\n        /* \"#utility.yul\":279:284   */\n      dup2\n        /* \"#utility.yul\":252:285   */\n      tag_56\n      jump\t// in\n    tag_55:\n        /* \"#utility.yul\":152:291   */\n      swap3\n      swap2\n      pop\n      pop\n      jump\t// out\n        /* \"#utility.yul\":297:626   */\n    tag_23:\n        /* \"#utility.yul\":356:362   */\n      0x00\n        /* \"#utility.yul\":405:407   */\n      0x20\n        /* \"#utility.yul\":393:402   */\n      dup3\n        /* \"#utility.yul\":384:391   */\n      dup5\n        /* \"#utility.yul\":380:403   */\n      sub\n        /* \"#utility.yul\":376:408   */\n      slt\n        /* \"#utility.yul\":373:492   */\n      iszero\n      tag_58\n      jumpi\n        /* \"#utility.yul\":411:490   */\n      tag_59\n      tag_60\n      jump\t// in\n    tag_59:\n        /* \"#utility.yul\":373:492   */\n    tag_58:\n        /* \"#utility.yul\":531:532   */\n      0x00\n        /* \"#utility.yul\":556:609   */\n      tag_61\n        /* \"#utility.yul\":601:608   */\n      dup5\n        /* \"#utility.yul\":592:598   */\n      dup3\n        /* \"#utility.yul\":581:590   */\n      dup6\n        /* \"#utility.yul\":577:599   */\n      add\n        /* \"#utility.yul\":556:609   */\n      tag_49\n      jump\t// in\n    tag_61:\n        /* \"#utility.yul\":546:609   */\n      swap2\n      pop\n        /* \"#utility.yul\":502:619   */\n      pop\n        /* \"#utility.yul\":297:626   */\n      swap3\n      swap2\n      pop\n      pop\n      jump\t// out\n        /* \"#utility.yul\":632:1106   */\n    tag_18:\n        /* \"#utility.yul\":700:706   */\n      0x00\n        /* \"#utility.yul\":708:714   */\n      dup1\n        /* \"#utility.yul\":757:759   */\n      0x40\n        /* \"#utility.yul\":745:754   */\n      dup4\n        /* \"#utility.yul\":736:743   */\n      dup6\n        /* \"#utility.yul\":732:755   */\n      sub\n        /* \"#utility.yul\":728:760   */\n      slt\n        /* \"#utility.yul\":725:844   */\n      iszero\n      tag_63\n      jumpi\n        /* \"#utility.yul\":763:842   */\n      tag_64\n      tag_60\n      jump\t// in\n    tag_64:\n        /* \"#utility.yul\":725:844   */\n    tag_63:\n        /* \"#utility.yul\":883:884   */\n      0x00\n        /* \"#utility.yul\":908:961   */\n      tag_65\n        /* \"#utility.yul\":953:960   */\n      dup6\n        /* \"#utility.yul\":944:950   */\n      dup3\n        /* \"#utility.yul\":933:942   */\n      dup7\n        /* \"#utility.yul\":929:951   */\n      add\n        /* \"#utility.yul\":908:961   */\n      tag_49\n      jump\t// in\n    tag_65:\n        /* \"#utility.yul\":898:961   */\n      swap3\n      pop\n        /* \"#utility.yul\":854:971   */\n      pop\n        /* \"#utility.yul\":1010:1012   */\n      0x20\n        /* \"#utility.yul\":1036:1089   */\n      tag_66\n        /* \"#utility.yul\":1081:1088   */\n      dup6\n        /* \"#utility.yul\":1072:1078   */\n      dup3\n        /* \"#utility.yul\":1061:1070   */\n      dup7\n        /* \"#utility.yul\":1057:1079   */\n      add\n        /* \"#utility.yul\":1036:1089   */\n      tag_53\n      jump\t// in\n    tag_66:\n        /* \"#utility.yul\":1026:1089   */\n      swap2\n      pop\n        /* \"#utility.yul\":981:1099   */\n      pop\n        /* \"#utility.yul\":632:1106   */\n      swap3\n      pop\n      swap3\n      swap1\n      pop\n      jump\t// out\n        /* \"#utility.yul\":1112:1230   */\n    tag_67:\n        /* \"#utility.yul\":1199:1223   */\n      tag_69\n        /* \"#utility.yul\":1217:1222   */\n      dup2\n        /* \"#utility.yul\":1199:1223   */\n      tag_70\n      jump\t// in\n    tag_69:\n        /* \"#utility.yul\":1194:1197   */\n      dup3\n        /* \"#utility.yul\":1187:1224   */\n      mstore\n        /* \"#utility.yul\":1112:1230   */\n      pop\n      pop\n      jump\t// out\n        /* \"#utility.yul\":1236:1601   */\n    tag_71:\n        /* \"#utility.yul\":1378:1381   */\n      0x00\n        /* \"#utility.yul\":1399:1465   */\n      tag_73\n        /* \"#utility.yul\":1463:1464   */\n      0x07\n        /* \"#utility.yul\":1458:1461   */\n      dup4\n        /* \"#utility.yul\":1399:1465   */\n      tag_74\n      jump\t// in\n    tag_73:\n        /* \"#utility.yul\":1392:1465   */\n      swap2\n      pop\n        /* \"#utility.yul\":1474:1567   */\n      tag_75\n        /* \"#utility.yul\":1563:1566   */\n      dup3\n        /* \"#utility.yul\":1474:1567   */\n      tag_76\n      jump\t// in\n    tag_75:\n        /* \"#utility.yul\":1592:1594   */\n      0x20\n        /* \"#utility.yul\":1587:1590   */\n      dup3\n        /* \"#utility.yul\":1583:1595   */\n      add\n        /* \"#utility.yul\":1576:1595   */\n      swap1\n      pop\n        /* \"#utility.yul\":1236:1601   */\n      swap2\n      swap1\n      pop\n      jump\t// out\n        /* \"#utility.yul\":1607:1973   */\n    tag_77:\n        /* \"#utility.yul\":1749:1752   */\n      0x00\n        /* \"#utility.yul\":1770:1837   */\n      tag_79\n        /* \"#utility.yul\":1834:1836   */\n      0x15\n        /* \"#utility.yul\":1829:1832   */\n      dup4\n        /* \"#utility.yul\":1770:1837   */\n      tag_74\n      jump\t// in\n    tag_79:\n        /* \"#utility.yul\":1763:1837   */\n      swap2\n      pop\n        /* \"#utility.yul\":1846:1939   */\n      tag_80\n        /* \"#utility.yul\":1935:1938   */\n      dup3\n        /* \"#utility.yul\":1846:1939   */\n      tag_81\n      jump\t// in\n    tag_80:\n        /* \"#utility.yul\":1964:1966   */\n      0x20\n        /* \"#utility.yul\":1959:1962   */\n      dup3\n        /* \"#utility.yul\":1955:1967   */\n      add\n        /* \"#utility.yul\":1948:1967   */\n      swap1\n      pop\n        /* \"#utility.yul\":1607:1973   */\n      swap2\n      swap1\n      pop\n      jump\t// out\n        /* \"#utility.yul\":1979:2097   */\n    tag_82:\n        /* \"#utility.yul\":2066:2090   */\n      tag_84\n        /* \"#utility.yul\":2084:2089   */\n      dup2\n        /* \"#utility.yul\":2066:2090   */\n      tag_85\n      jump\t// in\n    tag_84:\n        /* \"#utility.yul\":2061:2064   */\n      dup3\n        /* \"#utility.yul\":2054:2091   */\n      mstore\n        /* \"#utility.yul\":1979:2097   */\n      pop\n      pop\n      jump\t// out\n        /* \"#utility.yul\":2103:2325   */\n    tag_35:\n        /* \"#utility.yul\":2196:2200   */\n      0x00\n        /* \"#utility.yul\":2234:2236   */\n      0x20\n        /* \"#utility.yul\":2223:2232   */\n      dup3\n        /* \"#utility.yul\":2219:2237   */\n      add\n        /* \"#utility.yul\":2211:2237   */\n      swap1\n      pop\n        /* \"#utility.yul\":2247:2318   */\n      tag_87\n        /* \"#utility.yul\":2315:2316   */\n      0x00\n        /* \"#utility.yul\":2304:2313   */\n      dup4\n        /* \"#utility.yul\":2300:2317   */\n      add\n        /* \"#utility.yul\":2291:2297   */\n      dup5\n        /* \"#utility.yul\":2247:2318   */\n      tag_67\n      jump\t// in\n    tag_87:\n        /* \"#utility.yul\":2103:2325   */\n      swap3\n      swap2\n      pop\n      pop\n      jump\t// out\n        /* \"#utility.yul\":2331:2750   */\n    tag_39:\n        /* \"#utility.yul\":2497:2501   */\n      0x00\n        /* \"#utility.yul\":2535:2537   */\n      0x20\n        /* \"#utility.yul\":2524:2533   */\n      dup3\n        /* \"#utility.yul\":2520:2538   */\n      add\n        /* \"#utility.yul\":2512:2538   */\n      swap1\n      pop\n        /* \"#utility.yul\":2584:2593   */\n      dup2\n        /* \"#utility.yul\":2578:2582   */\n      dup2\n        /* \"#utility.yul\":2574:2594   */\n      sub\n        /* \"#utility.yul\":2570:2571   */\n      0x00\n        /* \"#utility.yul\":2559:2568   */\n      dup4\n        /* \"#utility.yul\":2555:2572   */\n      add\n        /* \"#utility.yul\":2548:2595   */\n      mstore\n        /* \"#utility.yul\":2612:2743   */\n      tag_89\n        /* \"#utility.yul\":2738:2742   */\n      dup2\n        /* \"#utility.yul\":2612:2743   */\n      tag_71\n      jump\t// in\n    tag_89:\n        /* \"#utility.yul\":2604:2743   */\n      swap1\n      pop\n        /* \"#utility.yul\":2331:2750   */\n      swap2\n      swap1\n      pop\n      jump\t// out\n        /* \"#utility.yul\":2756:3175   */\n    tag_42:\n        /* \"#utility.yul\":2922:2926   */\n      0x00\n        /* \"#utility.yul\":2960:2962   */\n      0x20\n        /* \"#utility.yul\":2949:2958   */\n      dup3\n        /* \"#utility.yul\":2945:2963   */\n      add\n        /* \"#utility.yul\":2937:2963   */\n      swap1\n      pop\n        /* \"#utility.yul\":3009:3018   */\n      dup2\n        /* \"#utility.yul\":3003:3007   */\n      dup2\n        /* \"#utility.yul\":2999:3019   */\n      sub\n        /* \"#utility.yul\":2995:2996   */\n      0x00\n        /* \"#utility.yul\":2984:2993   */\n      dup4\n        /* \"#utility.yul\":2980:2997   */\n      add\n        /* \"#utility.yul\":2973:3020   */\n      mstore\n        /* \"#utility.yul\":3037:3168   */\n      tag_91\n        /* \"#utility.yul\":3163:3167   */\n      dup2\n        /* \"#utility.yul\":3037:3168   */\n      tag_77\n      jump\t// in\n    tag_91:\n        /* \"#utility.yul\":3029:3168   */\n      swap1\n      pop\n        /* \"#utility.yul\":2756:3175   */\n      swap2\n      swap1\n      pop\n      jump\t// out\n        /* \"#utility.yul\":3181:3403   */\n    tag_12:\n        /* \"#utility.yul\":3274:3278   */\n      0x00\n        /* \"#utility.yul\":3312:3314   */\n      0x20\n        /* \"#utility.yul\":3301:3310   */\n      dup3\n        /* \"#utility.yul\":3297:3315   */\n      add\n        /* \"#utility.yul\":3289:3315   */\n      swap1\n      pop\n        /* \"#utility.yul\":3325:3396   */\n      tag_93\n        /* \"#utility.yul\":3393:3394   */\n      0x00\n        /* \"#utility.yul\":3382:3391   */\n      dup4\n        /* \"#utility.yul\":3378:3395   */\n      add\n        /* \"#utility.yul\":3369:3375   */\n      dup5\n        /* \"#utility.yul\":3325:3396   */\n      tag_82\n      jump\t// in\n    tag_93:\n        /* \"#utility.yul\":3181:3403   */\n      swap3\n      swap2\n      pop\n      pop\n      jump\t// out\n        /* \"#utility.yul\":3490:3659   */\n    tag_74:\n        /* \"#utility.yul\":3574:3585   */\n      0x00\n        /* \"#utility.yul\":3608:3614   */\n      dup3\n        /* \"#utility.yul\":3603:3606   */\n      dup3\n        /* \"#utility.yul\":3596:3615   */\n      mstore\n        /* \"#utility.yul\":3648:3652   */\n      0x20\n        /* \"#utility.yul\":3643:3646   */\n      dup3\n        /* \"#utility.yul\":3639:3653   */\n      add\n        /* \"#utility.yul\":3624:3653   */\n      swap1\n      pop\n        /* \"#utility.yul\":3490:3659   */\n      swap3\n      swap2\n      pop\n      pop\n      jump\t// out\n        /* \"#utility.yul\":3665:3970   */\n    tag_47:\n        /* \"#utility.yul\":3705:3708   */\n      0x00\n        /* \"#utility.yul\":3724:3744   */\n      tag_98\n        /* \"#utility.yul\":3742:3743   */\n      dup3\n        /* \"#utility.yul\":3724:3744   */\n      tag_85\n      jump\t// in\n    tag_98:\n        /* \"#utility.yul\":3719:3744   */\n      swap2\n      pop\n        /* \"#utility.yul\":3758:3778   */\n      tag_99\n        /* \"#utility.yul\":3776:3777   */\n      dup4\n        /* \"#utility.yul\":3758:3778   */\n      tag_85\n      jump\t// in\n    tag_99:\n        /* \"#utility.yul\":3753:3778   */\n      swap3\n      pop\n        /* \"#utility.yul\":3912:3913   */\n      dup3\n        /* \"#utility.yul\":3844:3910   */\n      0xffffffffffffffffffffffffffffffffffffffffffffffffffffffffffffffff\n        /* \"#utility.yul\":3840:3914   */\n      sub\n        /* \"#utility.yul\":3837:3838   */\n      dup3\n        /* \"#utility.yul\":3834:3915   */\n      gt\n        /* \"#utility.yul\":3831:3938   */\n      iszero\n      tag_100\n      jumpi\n        /* \"#utility.yul\":3918:3936   */\n      tag_101\n      tag_102\n      jump\t// in\n    tag_101:\n        /* \"#utility.yul\":3831:3938   */\n    tag_100:\n        /* \"#utility.yul\":3962:3963   */\n      dup3\n        /* \"#utility.yul\":3959:3960   */\n      dup3\n        /* \"#utility.yul\":3955:3964   */\n      add\n        /* \"#utility.yul\":3948:3964   */\n      swap1\n      pop\n        /* \"#utility.yul\":3665:3970   */\n      swap3\n      swap2\n      pop\n      pop\n      jump\t// out\n        /* \"#utility.yul\":3976:4072   */\n    tag_70:\n        /* \"#utility.yul\":4013:4020   */\n      0x00\n        /* \"#utility.yul\":4042:4066   */\n      tag_104\n        /* \"#utility.yul\":4060:4065   */\n      dup3\n        /* \"#utility.yul\":4042:4066   */\n      tag_105\n      jump\t// in\n    tag_104:\n        /* \"#utility.yul\":4031:4066   */\n      swap1\n      pop\n        /* \"#utility.yul\":3976:4072   */\n      swap2\n      swap1\n      pop\n      jump\t// out\n        /* \"#utility.yul\":4078:4204   */\n    tag_105:\n        /* \"#utility.yul\":4115:4122   */\n      0x00\n        /* \"#utility.yul\":4155:4197   */\n      0xffffffffffffffffffffffffffffffffffffffff\n        /* \"#utility.yul\":4148:4153   */\n      dup3\n        /* \"#utility.yul\":4144:4198   */\n      and\n        /* \"#utility.yul\":4133:4198   */\n      swap1\n      pop\n        /* \"#utility.yul\":4078:4204   */\n      swap2\n      swap1\n      pop\n      jump\t// out\n        /* \"#utility.yul\":4210:4287   */\n    tag_85:\n        /* \"#utility.yul\":4247:4254   */\n      0x00\n        /* \"#utility.yul\":4276:4281   */\n      dup2\n        /* \"#utility.yul\":4265:4281   */\n      swap1\n      pop\n        /* \"#utility.yul\":4210:4287   */\n      swap2\n      swap1\n      pop\n      jump\t// out\n        /* \"#utility.yul\":4293:4473   */\n    tag_102:\n        /* \"#utility.yul\":4341:4418   */\n      0x4e487b7100000000000000000000000000000000000000000000000000000000\n        /* \"#utility.yul\":4338:4339   */\n      0x00\n        /* \"#utility.yul\":4331:4419   */\n      mstore\n        /* \"#utility.yul\":4438:4442   */\n      0x11\n        /* \"#utility.yul\":4435:4436   */\n      0x04\n        /* \"#utility.yul\":4428:4443   */\n      mstore\n        /* \"#utility.yul\":4462:4466   */\n      0x24\n        /* \"#utility.yul\":4459:4460   */\n      0x00\n        /* \"#utility.yul\":4452:4467   */\n      revert\n        /* \"#utility.yul\":4602:4719   */\n    tag_60:\n        /* \"#utility.yul\":4711:4712   */\n      0x00\n        /* \"#utility.yul\":4708:4709   */\n      dup1\n        /* \"#utility.yul\":4701:4713   */\n      revert\n        /* \"#utility.yul\":4725:4882   */\n    tag_76:\n        /* \"#utility.yul\":4865:4874   */\n      0x47726f7720757000000000000000000000000000000000000000000000000000\n        /* \"#utility.yul\":4861:4862   */\n      0x00\n        /* \"#utility.yul\":4853:4859   */\n      dup3\n        /* \"#utility.yul\":4849:4863   */\n      add\n        /* \"#utility.yul\":4842:4875   */\n      mstore\n        /* \"#utility.yul\":4725:4882   */\n      pop\n      jump\t// out\n        /* \"#utility.yul\":4888:5059   */\n    tag_81:\n        /* \"#utility.yul\":5028:5051   */\n      0x4f6e6c79206b69642063616e2077697468647261770000000000000000000000\n        /* \"#utility.yul\":5024:5025   */\n      0x00\n        /* \"#utility.yul\":5016:5022   */\n      dup3\n        /* \"#utility.yul\":5012:5026   */\n      add\n        /* \"#utility.yul\":5005:5052   */\n      mstore\n        /* \"#utility.yul\":4888:5059   */\n      pop\n      jump\t// out\n        /* \"#utility.yul\":5065:5187   */\n    tag_52:\n        /* \"#utility.yul\":5138:5162   */\n      tag_115\n        /* \"#utility.yul\":5156:5161   */\n      dup2\n        /* \"#utility.yul\":5138:5162   */\n      tag_70\n      jump\t// in\n    tag_115:\n        /* \"#utility.yul\":5131:5136   */\n      dup2\n        /* \"#utility.yul\":5128:5163   */\n      eq\n        /* \"#utility.yul\":5118:5181   */\n      tag_116\n      jumpi\n        /* \"#utility.yul\":5177:5178   */\n      0x00\n        /* \"#utility.yul\":5174:5175   */\n      dup1\n        /* \"#utility.yul\":5167:5179   */\n      revert\n        /* \"#utility.yul\":5118:5181   */\n    tag_116:\n        /* \"#utility.yul\":5065:5187   */\n      pop\n      jump\t// out\n        /* \"#utility.yul\":5193:5315   */\n    tag_56:\n        /* \"#utility.yul\":5266:5290   */\n      tag_118\n        /* \"#utility.yul\":5284:5289   */\n      dup2\n        /* \"#utility.yul\":5266:5290   */\n      tag_85\n      jump\t// in\n    tag_118:\n        /* \"#utility.yul\":5259:5264   */\n      dup2\n        /* \"#utility.yul\":5256:5291   */\n      eq\n        /* \"#utility.yul\":5246:5309   */\n      tag_119\n      jumpi\n        /* \"#utility.yul\":5305:5306   */\n      0x00\n        /* \"#utility.yul\":5302:5303   */\n      dup1\n        /* \"#utility.yul\":5295:5307   */\n      revert\n        /* \"#utility.yul\":5246:5309   */\n    tag_119:\n        /* \"#utility.yul\":5193:5315   */\n      pop\n      jump\t// out\n\n    auxdata: 0xa264697066735822122042271597ea3ee7f2ca0a847ce2049c1b6bb9ccb13461ed313b5785a96f8fd0d064736f6c63430008070033\n}\n",
				"bytecode": {
					"linkReferences": {},
					"object": "6080604052604051610857380380610857833981810160405281019061002591906100a9565b81600260006101000a81548173ffffffffffffffffffffffffffffffffffffffff021916908373ffffffffffffffffffffffffffffffffffffffff160217905550804261007291906100e9565b60038190555050506101dd565b60008151905061008e816101af565b92915050565b6000815190506100a3816101c6565b92915050565b600080604083850312156100c0576100bf6101aa565b5b60006100ce8582860161007f565b92505060206100df85828601610094565b9150509250929050565b60006100f482610171565b91506100ff83610171565b9250827fffffffffffffffffffffffffffffffffffffffffffffffffffffffffffffffff038211156101345761013361017b565b5b828201905092915050565b600061014a82610151565b9050919050565b600073ffffffffffffffffffffffffffffffffffffffff82169050919050565b6000819050919050565b7f4e487b7100000000000000000000000000000000000000000000000000000000600052601160045260246000fd5b600080fd5b6101b88161013f565b81146101c357600080fd5b50565b6101cf81610171565b81146101da57600080fd5b50565b61066b806101ec6000396000f3fe6080604052600436106100555760003560e01c8063204f83f91461005a5780633ccfd60b1461008557806340990e301461009c5780636607250b146100b8578063b9f0bf66146100f5578063bfa51c4914610132575b600080fd5b34801561006657600080fd5b5061006f61015d565b60405161007c91906104c3565b60405180910390f35b34801561009157600080fd5b5061009a610163565b005b6100b660048036038101906100b191906103c4565b610281565b005b3480156100c457600080fd5b506100df60048036038101906100da9190610397565b610317565b6040516100ec91906104c3565b60405180910390f35b34801561010157600080fd5b5061011c60048036038101906101179190610397565b61032f565b60405161012991906104c3565b60405180910390f35b34801561013e57600080fd5b50610147610347565b6040516101549190610468565b60405180910390f35b60035481565b6003544210156101a8576040517f08c379a000000000000000000000000000000000000000000000000000000000815260040161019f90610483565b60405180910390fd5b600260009054906101000a900473ffffffffffffffffffffffffffffffffffffffff1673ffffffffffffffffffffffffffffffffffffffff163373ffffffffffffffffffffffffffffffffffffffff1614610238576040517f08c379a000000000000000000000000000000000000000000000000000000000815260040161022f906104a3565b60405180910390fd5b3373ffffffffffffffffffffffffffffffffffffffff166108fc479081150290604051600060405180830381858888f1935050505015801561027e573d6000803e3d6000fd5b50565b346000808473ffffffffffffffffffffffffffffffffffffffff1673ffffffffffffffffffffffffffffffffffffffff1681526020019081526020016000208190555080426102d091906104ef565b600160008473ffffffffffffffffffffffffffffffffffffffff1673ffffffffffffffffffffffffffffffffffffffff168152602001908152602001600020819055505050565b60016020528060005260406000206000915090505481565b60006020528060005260406000206000915090505481565b600260009054906101000a900473ffffffffffffffffffffffffffffffffffffffff1681565b60008135905061037c81610607565b92915050565b6000813590506103918161061e565b92915050565b6000602082840312156103ad576103ac6105b0565b5b60006103bb8482850161036d565b91505092915050565b600080604083850312156103db576103da6105b0565b5b60006103e98582860161036d565b92505060206103fa85828601610382565b9150509250929050565b61040d81610545565b82525050565b60006104206007836104de565b915061042b826105b5565b602082019050919050565b60006104436015836104de565b915061044e826105de565b602082019050919050565b61046281610577565b82525050565b600060208201905061047d6000830184610404565b92915050565b6000602082019050818103600083015261049c81610413565b9050919050565b600060208201905081810360008301526104bc81610436565b9050919050565b60006020820190506104d86000830184610459565b92915050565b600082825260208201905092915050565b60006104fa82610577565b915061050583610577565b9250827fffffffffffffffffffffffffffffffffffffffffffffffffffffffffffffffff0382111561053a57610539610581565b5b828201905092915050565b600061055082610557565b9050919050565b600073ffffffffffffffffffffffffffffffffffffffff82169050919050565b6000819050919050565b7f4e487b7100000000000000000000000000000000000000000000000000000000600052601160045260246000fd5b600080fd5b7f47726f7720757000000000000000000000000000000000000000000000000000600082015250565b7f4f6e6c79206b69642063616e2077697468647261770000000000000000000000600082015250565b61061081610545565b811461061b57600080fd5b50565b61062781610577565b811461063257600080fd5b5056fea264697066735822122042271597ea3ee7f2ca0a847ce2049c1b6bb9ccb13461ed313b5785a96f8fd0d064736f6c63430008070033",
					"opcodes": "PUSH1 0x80 PUSH1 0x40 MSTORE PUSH1 0x40 MLOAD PUSH2 0x857 CODESIZE SUB DUP1 PUSH2 0x857 DUP4 CODECOPY DUP2 DUP2 ADD PUSH1 0x40 MSTORE DUP2 ADD SWAP1 PUSH2 0x25 SWAP2 SWAP1 PUSH2 0xA9 JUMP JUMPDEST DUP2 PUSH1 0x2 PUSH1 0x0 PUSH2 0x100 EXP DUP2 SLOAD DUP2 PUSH20 0xFFFFFFFFFFFFFFFFFFFFFFFFFFFFFFFFFFFFFFFF MUL NOT AND SWAP1 DUP4 PUSH20 0xFFFFFFFFFFFFFFFFFFFFFFFFFFFFFFFFFFFFFFFF AND MUL OR SWAP1 SSTORE POP DUP1 TIMESTAMP PUSH2 0x72 SWAP2 SWAP1 PUSH2 0xE9 JUMP JUMPDEST PUSH1 0x3 DUP2 SWAP1 SSTORE POP POP POP PUSH2 0x1DD JUMP JUMPDEST PUSH1 0x0 DUP2 MLOAD SWAP1 POP PUSH2 0x8E DUP2 PUSH2 0x1AF JUMP JUMPDEST SWAP3 SWAP2 POP POP JUMP JUMPDEST PUSH1 0x0 DUP2 MLOAD SWAP1 POP PUSH2 0xA3 DUP2 PUSH2 0x1C6 JUMP JUMPDEST SWAP3 SWAP2 POP POP JUMP JUMPDEST PUSH1 0x0 DUP1 PUSH1 0x40 DUP4 DUP6 SUB SLT ISZERO PUSH2 0xC0 JUMPI PUSH2 0xBF PUSH2 0x1AA JUMP JUMPDEST JUMPDEST PUSH1 0x0 PUSH2 0xCE DUP6 DUP3 DUP7 ADD PUSH2 0x7F JUMP JUMPDEST SWAP3 POP POP PUSH1 0x20 PUSH2 0xDF DUP6 DUP3 DUP7 ADD PUSH2 0x94 JUMP JUMPDEST SWAP2 POP POP SWAP3 POP SWAP3 SWAP1 POP JUMP JUMPDEST PUSH1 0x0 PUSH2 0xF4 DUP3 PUSH2 0x171 JUMP JUMPDEST SWAP2 POP PUSH2 0xFF DUP4 PUSH2 0x171 JUMP JUMPDEST SWAP3 POP DUP3 PUSH32 0xFFFFFFFFFFFFFFFFFFFFFFFFFFFFFFFFFFFFFFFFFFFFFFFFFFFFFFFFFFFFFFFF SUB DUP3 GT ISZERO PUSH2 0x134 JUMPI PUSH2 0x133 PUSH2 0x17B JUMP JUMPDEST JUMPDEST DUP3 DUP3 ADD SWAP1 POP SWAP3 SWAP2 POP POP JUMP JUMPDEST PUSH1 0x0 PUSH2 0x14A DUP3 PUSH2 0x151 JUMP JUMPDEST SWAP1 POP SWAP2 SWAP1 POP JUMP JUMPDEST PUSH1 0x0 PUSH20 0xFFFFFFFFFFFFFFFFFFFFFFFFFFFFFFFFFFFFFFFF DUP3 AND SWAP1 POP SWAP2 SWAP1 POP JUMP JUMPDEST PUSH1 0x0 DUP2 SWAP1 POP SWAP2 SWAP1 POP JUMP JUMPDEST PUSH32 0x4E487B7100000000000000000000000000000000000000000000000000000000 PUSH1 0x0 MSTORE PUSH1 0x11 PUSH1 0x4 MSTORE PUSH1 0x24 PUSH1 0x0 REVERT JUMPDEST PUSH1 0x0 DUP1 REVERT JUMPDEST PUSH2 0x1B8 DUP2 PUSH2 0x13F JUMP JUMPDEST DUP2 EQ PUSH2 0x1C3 JUMPI PUSH1 0x0 DUP1 REVERT JUMPDEST POP JUMP JUMPDEST PUSH2 0x1CF DUP2 PUSH2 0x171 JUMP JUMPDEST DUP2 EQ PUSH2 0x1DA JUMPI PUSH1 0x0 DUP1 REVERT JUMPDEST POP JUMP JUMPDEST PUSH2 0x66B DUP1 PUSH2 0x1EC PUSH1 0x0 CODECOPY PUSH1 0x0 RETURN INVALID PUSH1 0x80 PUSH1 0x40 MSTORE PUSH1 0x4 CALLDATASIZE LT PUSH2 0x55 JUMPI PUSH1 0x0 CALLDATALOAD PUSH1 0xE0 SHR DUP1 PUSH4 0x204F83F9 EQ PUSH2 0x5A JUMPI DUP1 PUSH4 0x3CCFD60B EQ PUSH2 0x85 JUMPI DUP1 PUSH4 0x40990E30 EQ PUSH2 0x9C JUMPI DUP1 PUSH4 0x6607250B EQ PUSH2 0xB8 JUMPI DUP1 PUSH4 0xB9F0BF66 EQ PUSH2 0xF5 JUMPI DUP1 PUSH4 0xBFA51C49 EQ PUSH2 0x132 JUMPI JUMPDEST PUSH1 0x0 DUP1 REVERT JUMPDEST CALLVALUE DUP1 ISZERO PUSH2 0x66 JUMPI PUSH1 0x0 DUP1 REVERT JUMPDEST POP PUSH2 0x6F PUSH2 0x15D JUMP JUMPDEST PUSH1 0x40 MLOAD PUSH2 0x7C SWAP2 SWAP1 PUSH2 0x4C3 JUMP JUMPDEST PUSH1 0x40 MLOAD DUP1 SWAP2 SUB SWAP1 RETURN JUMPDEST CALLVALUE DUP1 ISZERO PUSH2 0x91 JUMPI PUSH1 0x0 DUP1 REVERT JUMPDEST POP PUSH2 0x9A PUSH2 0x163 JUMP JUMPDEST STOP JUMPDEST PUSH2 0xB6 PUSH1 0x4 DUP1 CALLDATASIZE SUB DUP2 ADD SWAP1 PUSH2 0xB1 SWAP2 SWAP1 PUSH2 0x3C4 JUMP JUMPDEST PUSH2 0x281 JUMP JUMPDEST STOP JUMPDEST CALLVALUE DUP1 ISZERO PUSH2 0xC4 JUMPI PUSH1 0x0 DUP1 REVERT JUMPDEST POP PUSH2 0xDF PUSH1 0x4 DUP1 CALLDATASIZE SUB DUP2 ADD SWAP1 PUSH2 0xDA SWAP2 SWAP1 PUSH2 0x397 JUMP JUMPDEST PUSH2 0x317 JUMP JUMPDEST PUSH1 0x40 MLOAD PUSH2 0xEC SWAP2 SWAP1 PUSH2 0x4C3 JUMP JUMPDEST PUSH1 0x40 MLOAD DUP1 SWAP2 SUB SWAP1 RETURN JUMPDEST CALLVALUE DUP1 ISZERO PUSH2 0x101 JUMPI PUSH1 0x0 DUP1 REVERT JUMPDEST POP PUSH2 0x11C PUSH1 0x4 DUP1 CALLDATASIZE SUB DUP2 ADD SWAP1 PUSH2 0x117 SWAP2 SWAP1 PUSH2 0x397 JUMP JUMPDEST PUSH2 0x32F JUMP JUMPDEST PUSH1 0x40 MLOAD PUSH2 0x129 SWAP2 SWAP1 PUSH2 0x4C3 JUMP JUMPDEST PUSH1 0x40 MLOAD DUP1 SWAP2 SUB SWAP1 RETURN JUMPDEST CALLVALUE DUP1 ISZERO PUSH2 0x13E JUMPI PUSH1 0x0 DUP1 REVERT JUMPDEST POP PUSH2 0x147 PUSH2 0x347 JUMP JUMPDEST PUSH1 0x40 MLOAD PUSH2 0x154 SWAP2 SWAP1 PUSH2 0x468 JUMP JUMPDEST PUSH1 0x40 MLOAD DUP1 SWAP2 SUB SWAP1 RETURN JUMPDEST PUSH1 0x3 SLOAD DUP2 JUMP JUMPDEST PUSH1 0x3 SLOAD TIMESTAMP LT ISZERO PUSH2 0x1A8 JUMPI PUSH1 0x40 MLOAD PUSH32 0x8C379A000000000000000000000000000000000000000000000000000000000 DUP2 MSTORE PUSH1 0x4 ADD PUSH2 0x19F SWAP1 PUSH2 0x483 JUMP JUMPDEST PUSH1 0x40 MLOAD DUP1 SWAP2 SUB SWAP1 REVERT JUMPDEST PUSH1 0x2 PUSH1 0x0 SWAP1 SLOAD SWAP1 PUSH2 0x100 EXP SWAP1 DIV PUSH20 0xFFFFFFFFFFFFFFFFFFFFFFFFFFFFFFFFFFFFFFFF AND PUSH20 0xFFFFFFFFFFFFFFFFFFFFFFFFFFFFFFFFFFFFFFFF AND CALLER PUSH20 0xFFFFFFFFFFFFFFFFFFFFFFFFFFFFFFFFFFFFFFFF AND EQ PUSH2 0x238 JUMPI PUSH1 0x40 MLOAD PUSH32 0x8C379A000000000000000000000000000000000000000000000000000000000 DUP2 MSTORE PUSH1 0x4 ADD PUSH2 0x22F SWAP1 PUSH2 0x4A3 JUMP JUMPDEST PUSH1 0x40 MLOAD DUP1 SWAP2 SUB SWAP1 REVERT JUMPDEST CALLER PUSH20 0xFFFFFFFFFFFFFFFFFFFFFFFFFFFFFFFFFFFFFFFF AND PUSH2 0x8FC SELFBALANCE SWAP1 DUP2 ISZERO MUL SWAP1 PUSH1 0x40 MLOAD PUSH1 0x0 PUSH1 0x40 MLOAD DUP1 DUP4 SUB DUP2 DUP6 DUP9 DUP9 CALL SWAP4 POP POP POP POP ISZERO DUP1 ISZERO PUSH2 0x27E JUMPI RETURNDATASIZE PUSH1 0x0 DUP1 RETURNDATACOPY RETURNDATASIZE PUSH1 0x0 REVERT JUMPDEST POP JUMP JUMPDEST CALLVALUE PUSH1 0x0 DUP1 DUP5 PUSH20 0xFFFFFFFFFFFFFFFFFFFFFFFFFFFFFFFFFFFFFFFF AND PUSH20 0xFFFFFFFFFFFFFFFFFFFFFFFFFFFFFFFFFFFFFFFF AND DUP2 MSTORE PUSH1 0x20 ADD SWAP1 DUP2 MSTORE PUSH1 0x20 ADD PUSH1 0x0 KECCAK256 DUP2 SWAP1 SSTORE POP DUP1 TIMESTAMP PUSH2 0x2D0 SWAP2 SWAP1 PUSH2 0x4EF JUMP JUMPDEST PUSH1 0x1 PUSH1 0x0 DUP5 PUSH20 0xFFFFFFFFFFFFFFFFFFFFFFFFFFFFFFFFFFFFFFFF AND PUSH20 0xFFFFFFFFFFFFFFFFFFFFFFFFFFFFFFFFFFFFFFFF AND DUP2 MSTORE PUSH1 0x20 ADD SWAP1 DUP2 MSTORE PUSH1 0x20 ADD PUSH1 0x0 KECCAK256 DUP2 SWAP1 SSTORE POP POP POP JUMP JUMPDEST PUSH1 0x1 PUSH1 0x20 MSTORE DUP1 PUSH1 0x0 MSTORE PUSH1 0x40 PUSH1 0x0 KECCAK256 PUSH1 0x0 SWAP2 POP SWAP1 POP SLOAD DUP2 JUMP JUMPDEST PUSH1 0x0 PUSH1 0x20 MSTORE DUP1 PUSH1 0x0 MSTORE PUSH1 0x40 PUSH1 0x0 KECCAK256 PUSH1 0x0 SWAP2 POP SWAP1 POP SLOAD DUP2 JUMP JUMPDEST PUSH1 0x2 PUSH1 0x0 SWAP1 SLOAD SWAP1 PUSH2 0x100 EXP SWAP1 DIV PUSH20 0xFFFFFFFFFFFFFFFFFFFFFFFFFFFFFFFFFFFFFFFF AND DUP2 JUMP JUMPDEST PUSH1 0x0 DUP2 CALLDATALOAD SWAP1 POP PUSH2 0x37C DUP2 PUSH2 0x607 JUMP JUMPDEST SWAP3 SWAP2 POP POP JUMP JUMPDEST PUSH1 0x0 DUP2 CALLDATALOAD SWAP1 POP PUSH2 0x391 DUP2 PUSH2 0x61E JUMP JUMPDEST SWAP3 SWAP2 POP POP JUMP JUMPDEST PUSH1 0x0 PUSH1 0x20 DUP3 DUP5 SUB SLT ISZERO PUSH2 0x3AD JUMPI PUSH2 0x3AC PUSH2 0x5B0 JUMP JUMPDEST JUMPDEST PUSH1 0x0 PUSH2 0x3BB DUP5 DUP3 DUP6 ADD PUSH2 0x36D JUMP JUMPDEST SWAP2 POP POP SWAP3 SWAP2 POP POP JUMP JUMPDEST PUSH1 0x0 DUP1 PUSH1 0x40 DUP4 DUP6 SUB SLT ISZERO PUSH2 0x3DB JUMPI PUSH2 0x3DA PUSH2 0x5B0 JUMP JUMPDEST JUMPDEST PUSH1 0x0 PUSH2 0x3E9 DUP6 DUP3 DUP7 ADD PUSH2 0x36D JUMP JUMPDEST SWAP3 POP POP PUSH1 0x20 PUSH2 0x3FA DUP6 DUP3 DUP7 ADD PUSH2 0x382 JUMP JUMPDEST SWAP2 POP POP SWAP3 POP SWAP3 SWAP1 POP JUMP JUMPDEST PUSH2 0x40D DUP2 PUSH2 0x545 JUMP JUMPDEST DUP3 MSTORE POP POP JUMP JUMPDEST PUSH1 0x0 PUSH2 0x420 PUSH1 0x7 DUP4 PUSH2 0x4DE JUMP JUMPDEST SWAP2 POP PUSH2 0x42B DUP3 PUSH2 0x5B5 JUMP JUMPDEST PUSH1 0x20 DUP3 ADD SWAP1 POP SWAP2 SWAP1 POP JUMP JUMPDEST PUSH1 0x0 PUSH2 0x443 PUSH1 0x15 DUP4 PUSH2 0x4DE JUMP JUMPDEST SWAP2 POP PUSH2 0x44E DUP3 PUSH2 0x5DE JUMP JUMPDEST PUSH1 0x20 DUP3 ADD SWAP1 POP SWAP2 SWAP1 POP JUMP JUMPDEST PUSH2 0x462 DUP2 PUSH2 0x577 JUMP JUMPDEST DUP3 MSTORE POP POP JUMP JUMPDEST PUSH1 0x0 PUSH1 0x20 DUP3 ADD SWAP1 POP PUSH2 0x47D PUSH1 0x0 DUP4 ADD DUP5 PUSH2 0x404 JUMP JUMPDEST SWAP3 SWAP2 POP POP JUMP JUMPDEST PUSH1 0x0 PUSH1 0x20 DUP3 ADD SWAP1 POP DUP2 DUP2 SUB PUSH1 0x0 DUP4 ADD MSTORE PUSH2 0x49C DUP2 PUSH2 0x413 JUMP JUMPDEST SWAP1 POP SWAP2 SWAP1 POP JUMP JUMPDEST PUSH1 0x0 PUSH1 0x20 DUP3 ADD SWAP1 POP DUP2 DUP2 SUB PUSH1 0x0 DUP4 ADD MSTORE PUSH2 0x4BC DUP2 PUSH2 0x436 JUMP JUMPDEST SWAP1 POP SWAP2 SWAP1 POP JUMP JUMPDEST PUSH1 0x0 PUSH1 0x20 DUP3 ADD SWAP1 POP PUSH2 0x4D8 PUSH1 0x0 DUP4 ADD DUP5 PUSH2 0x459 JUMP JUMPDEST SWAP3 SWAP2 POP POP JUMP JUMPDEST PUSH1 0x0 DUP3 DUP3 MSTORE PUSH1 0x20 DUP3 ADD SWAP1 POP SWAP3 SWAP2 POP POP JUMP JUMPDEST PUSH1 0x0 PUSH2 0x4FA DUP3 PUSH2 0x577 JUMP JUMPDEST SWAP2 POP PUSH2 0x505 DUP4 PUSH2 0x577 JUMP JUMPDEST SWAP3 POP DUP3 PUSH32 0xFFFFFFFFFFFFFFFFFFFFFFFFFFFFFFFFFFFFFFFFFFFFFFFFFFFFFFFFFFFFFFFF SUB DUP3 GT ISZERO PUSH2 0x53A JUMPI PUSH2 0x539 PUSH2 0x581 JUMP JUMPDEST JUMPDEST DUP3 DUP3 ADD SWAP1 POP SWAP3 SWAP2 POP POP JUMP JUMPDEST PUSH1 0x0 PUSH2 0x550 DUP3 PUSH2 0x557 JUMP JUMPDEST SWAP1 POP SWAP2 SWAP1 POP JUMP JUMPDEST PUSH1 0x0 PUSH20 0xFFFFFFFFFFFFFFFFFFFFFFFFFFFFFFFFFFFFFFFF DUP3 AND SWAP1 POP SWAP2 SWAP1 POP JUMP JUMPDEST PUSH1 0x0 DUP2 SWAP1 POP SWAP2 SWAP1 POP JUMP JUMPDEST PUSH32 0x4E487B7100000000000000000000000000000000000000000000000000000000 PUSH1 0x0 MSTORE PUSH1 0x11 PUSH1 0x4 MSTORE PUSH1 0x24 PUSH1 0x0 REVERT JUMPDEST PUSH1 0x0 DUP1 REVERT JUMPDEST PUSH32 0x47726F7720757000000000000000000000000000000000000000000000000000 PUSH1 0x0 DUP3 ADD MSTORE POP JUMP JUMPDEST PUSH32 0x4F6E6C79206B69642063616E2077697468647261770000000000000000000000 PUSH1 0x0 DUP3 ADD MSTORE POP JUMP JUMPDEST PUSH2 0x610 DUP2 PUSH2 0x545 JUMP JUMPDEST DUP2 EQ PUSH2 0x61B JUMPI PUSH1 0x0 DUP1 REVERT JUMPDEST POP JUMP JUMPDEST PUSH2 0x627 DUP2 PUSH2 0x577 JUMP JUMPDEST DUP2 EQ PUSH2 0x632 JUMPI PUSH1 0x0 DUP1 REVERT JUMPDEST POP JUMP INVALID LOG2 PUSH5 0x6970667358 0x22 SLT KECCAK256 TIMESTAMP 0x27 ISZERO SWAP8 0xEA RETURNDATACOPY 0xE7 CALLCODE 0xCA EXP DUP5 PUSH29 0xE2049C1B6BB9CCB13461ED313B5785A96F8FD0D064736F6C6343000807 STOP CALLER "
				},
				"gasEstimates": {
					"creation": {
						"codeDepositCost": "328600",
						"executionCost": "infinite",
						"totalCost": "infinite"
					},
					"external": {
						"addKid(address,uint256)": "infinite",
						"amount(address)": "2880",
						"kid()": "2602",
						"maturities(address)": "2858",
						"maturity()": "2407",
						"withdraw()": "infinite"
					}
				},
				"methodIdentifiers": {
					"addKid(address,uint256)": "40990e30",
					"amount(address)": "b9f0bf66",
					"kid()": "bfa51c49",
					"maturities(address)": "6607250b",
					"maturity()": "204f83f9",
					"withdraw()": "3ccfd60b"
				}
			},
			"storageLayout": {
				"storage": [
					{
						"astId": 5,
						"contract": "github/fahadashiq/block-chain/smart-contracts/practice.sol:Trust",
						"label": "amount",
						"offset": 0,
						"slot": "0",
						"type": "t_mapping(t_address,t_uint256)"
					},
					{
						"astId": 9,
						"contract": "github/fahadashiq/block-chain/smart-contracts/practice.sol:Trust",
						"label": "maturities",
						"offset": 0,
						"slot": "1",
						"type": "t_mapping(t_address,t_uint256)"
					},
					{
						"astId": 35,
						"contract": "github/fahadashiq/block-chain/smart-contracts/practice.sol:Trust",
						"label": "kid",
						"offset": 0,
						"slot": "2",
						"type": "t_address"
					},
					{
						"astId": 37,
						"contract": "github/fahadashiq/block-chain/smart-contracts/practice.sol:Trust",
						"label": "maturity",
						"offset": 0,
						"slot": "3",
						"type": "t_uint256"
					}
				],
				"types": {
					"t_address": {
						"encoding": "inplace",
						"label": "address",
						"numberOfBytes": "20"
					},
					"t_mapping(t_address,t_uint256)": {
						"encoding": "mapping",
						"key": "t_address",
						"label": "mapping(address => uint256)",
						"numberOfBytes": "32",
						"value": "t_uint256"
					},
					"t_uint256": {
						"encoding": "inplace",
						"label": "uint256",
						"numberOfBytes": "32"
					}
				}
			},
			"userdoc": {
				"kind": "user",
				"methods": {},
				"version": 1
			}
		}
	}
}