{
	"github/fahadashiq/block-chain/smart-contracts/practice.sol": {
		"Trust": {
			"abi": [
				{
					"inputs": [
						{
							"internalType": "address",
							"name": "kid",
							"type": "address"
						},
						{
							"internalType": "uint256",
							"name": "timeToMaturity",
							"type": "uint256"
						}
					],
					"name": "addKid",
					"outputs": [],
					"stateMutability": "payable",
					"type": "function"
				},
				{
					"inputs": [
						{
							"internalType": "address",
							"name": "",
							"type": "address"
						}
					],
					"name": "amount",
					"outputs": [
						{
							"internalType": "uint256",
							"name": "",
							"type": "uint256"
						}
					],
					"stateMutability": "view",
					"type": "function"
				},
				{
					"inputs": [
						{
							"internalType": "address",
							"name": "",
							"type": "address"
						}
					],
					"name": "maturities",
					"outputs": [
						{
							"internalType": "uint256",
							"name": "",
							"type": "uint256"
						}
					],
					"stateMutability": "view",
					"type": "function"
				}
			],
			"devdoc": {
				"kind": "dev",
				"methods": {},
				"version": 1
			},
			"evm": {
				"assembly": "    /* \"github/fahadashiq/block-chain/smart-contracts/practice.sol\":28:763  contract Trust {\r... */\n  mstore(0x40, 0x80)\n  callvalue\n  dup1\n  iszero\n  tag_1\n  jumpi\n  0x00\n  dup1\n  revert\ntag_1:\n  pop\n  dataSize(sub_0)\n  dup1\n  dataOffset(sub_0)\n  0x00\n  codecopy\n  0x00\n  return\nstop\n\nsub_0: assembly {\n        /* \"github/fahadashiq/block-chain/smart-contracts/practice.sol\":28:763  contract Trust {\r... */\n      mstore(0x40, 0x80)\n      jumpi(tag_1, lt(calldatasize, 0x04))\n      shr(0xe0, calldataload(0x00))\n      dup1\n      0x40990e30\n      eq\n      tag_2\n      jumpi\n      dup1\n      0x6607250b\n      eq\n      tag_3\n      jumpi\n      dup1\n      0xb9f0bf66\n      eq\n      tag_4\n      jumpi\n    tag_1:\n      0x00\n      dup1\n      revert\n        /* \"github/fahadashiq/block-chain/smart-contracts/practice.sol\":146:317  function addKid(address kid, uint timeToMaturity) external payable {\r... */\n    tag_2:\n      tag_5\n      0x04\n      dup1\n      calldatasize\n      sub\n      dup2\n      add\n      swap1\n      tag_6\n      swap2\n      swap1\n      tag_7\n      jump\t// in\n    tag_6:\n      tag_8\n      jump\t// in\n    tag_5:\n      stop\n        /* \"github/fahadashiq/block-chain/smart-contracts/practice.sol\":95:137  mapping(address => uint) public maturities */\n    tag_3:\n      callvalue\n      dup1\n      iszero\n      tag_9\n      jumpi\n      0x00\n      dup1\n      revert\n    tag_9:\n      pop\n      tag_10\n      0x04\n      dup1\n      calldatasize\n      sub\n      dup2\n      add\n      swap1\n      tag_11\n      swap2\n      swap1\n      tag_12\n      jump\t// in\n    tag_11:\n      tag_13\n      jump\t// in\n    tag_10:\n      mload(0x40)\n      tag_14\n      swap2\n      swap1\n      tag_15\n      jump\t// in\n    tag_14:\n      mload(0x40)\n      dup1\n      swap2\n      sub\n      swap1\n      return\n        /* \"github/fahadashiq/block-chain/smart-contracts/practice.sol\":50:88  mapping(address => uint) public amount */\n    tag_4:\n      callvalue\n      dup1\n      iszero\n      tag_16\n      jumpi\n      0x00\n      dup1\n      revert\n    tag_16:\n      pop\n      tag_17\n      0x04\n      dup1\n      calldatasize\n      sub\n      dup2\n      add\n      swap1\n      tag_18\n      swap2\n      swap1\n      tag_12\n      jump\t// in\n    tag_18:\n      tag_19\n      jump\t// in\n    tag_17:\n      mload(0x40)\n      tag_20\n      swap2\n      swap1\n      tag_15\n      jump\t// in\n    tag_20:\n      mload(0x40)\n      dup1\n      swap2\n      sub\n      swap1\n      return\n        /* \"github/fahadashiq/block-chain/smart-contracts/practice.sol\":146:317  function addKid(address kid, uint timeToMaturity) external payable {\r... */\n    tag_8:\n        /* \"github/fahadashiq/block-chain/smart-contracts/practice.sol\":238:247  msg.value */\n      callvalue\n        /* \"github/fahadashiq/block-chain/smart-contracts/practice.sol\":224:230  amount */\n      0x00\n        /* \"github/fahadashiq/block-chain/smart-contracts/practice.sol\":224:235  amount[kid] */\n      dup1\n        /* \"github/fahadashiq/block-chain/smart-contracts/practice.sol\":231:234  kid */\n      dup5\n        /* \"github/fahadashiq/block-chain/smart-contracts/practice.sol\":224:235  amount[kid] */\n      0xffffffffffffffffffffffffffffffffffffffff\n      and\n      0xffffffffffffffffffffffffffffffffffffffff\n      and\n      dup2\n      mstore\n      0x20\n      add\n      swap1\n      dup2\n      mstore\n      0x20\n      add\n      0x00\n      keccak256\n        /* \"github/fahadashiq/block-chain/smart-contracts/practice.sol\":224:247  amount[kid] = msg.value */\n      dup2\n      swap1\n      sstore\n      pop\n        /* \"github/fahadashiq/block-chain/smart-contracts/practice.sol\":295:309  timeToMaturity */\n      dup1\n        /* \"github/fahadashiq/block-chain/smart-contracts/practice.sol\":276:291  block.timestamp */\n      timestamp\n        /* \"github/fahadashiq/block-chain/smart-contracts/practice.sol\":276:309  block.timestamp +  timeToMaturity */\n      tag_22\n      swap2\n      swap1\n      tag_23\n      jump\t// in\n    tag_22:\n        /* \"github/fahadashiq/block-chain/smart-contracts/practice.sol\":258:268  maturities */\n      0x01\n        /* \"github/fahadashiq/block-chain/smart-contracts/practice.sol\":258:273  maturities[kid] */\n      0x00\n        /* \"github/fahadashiq/block-chain/smart-contracts/practice.sol\":269:272  kid */\n      dup5\n        /* \"github/fahadashiq/block-chain/smart-contracts/practice.sol\":258:273  maturities[kid] */\n      0xffffffffffffffffffffffffffffffffffffffff\n      and\n      0xffffffffffffffffffffffffffffffffffffffff\n      and\n      dup2\n      mstore\n      0x20\n      add\n      swap1\n      dup2\n      mstore\n      0x20\n      add\n      0x00\n      keccak256\n        /* \"github/fahadashiq/block-chain/smart-contracts/practice.sol\":258:309  maturities[kid] = block.timestamp +  timeToMaturity */\n      dup2\n      swap1\n      sstore\n      pop\n        /* \"github/fahadashiq/block-chain/smart-contracts/practice.sol\":146:317  function addKid(address kid, uint timeToMaturity) external payable {\r... */\n      pop\n      pop\n      jump\t// out\n        /* \"github/fahadashiq/block-chain/smart-contracts/practice.sol\":95:137  mapping(address => uint) public maturities */\n    tag_13:\n      mstore(0x20, 0x01)\n      dup1\n      0x00\n      mstore\n      keccak256(0x00, 0x40)\n      0x00\n      swap2\n      pop\n      swap1\n      pop\n      sload\n      dup2\n      jump\t// out\n        /* \"github/fahadashiq/block-chain/smart-contracts/practice.sol\":50:88  mapping(address => uint) public amount */\n    tag_19:\n      mstore(0x20, 0x00)\n      dup1\n      0x00\n      mstore\n      keccak256(0x00, 0x40)\n      0x00\n      swap2\n      pop\n      swap1\n      pop\n      sload\n      dup2\n      jump\t// out\n        /* \"#utility.yul\":7:146   */\n    tag_25:\n        /* \"#utility.yul\":53:58   */\n      0x00\n        /* \"#utility.yul\":91:97   */\n      dup2\n        /* \"#utility.yul\":78:98   */\n      calldataload\n        /* \"#utility.yul\":69:98   */\n      swap1\n      pop\n        /* \"#utility.yul\":107:140   */\n      tag_27\n        /* \"#utility.yul\":134:139   */\n      dup2\n        /* \"#utility.yul\":107:140   */\n      tag_28\n      jump\t// in\n    tag_27:\n        /* \"#utility.yul\":7:146   */\n      swap3\n      swap2\n      pop\n      pop\n      jump\t// out\n        /* \"#utility.yul\":152:291   */\n    tag_29:\n        /* \"#utility.yul\":198:203   */\n      0x00\n        /* \"#utility.yul\":236:242   */\n      dup2\n        /* \"#utility.yul\":223:243   */\n      calldataload\n        /* \"#utility.yul\":214:243   */\n      swap1\n      pop\n        /* \"#utility.yul\":252:285   */\n      tag_31\n        /* \"#utility.yul\":279:284   */\n      dup2\n        /* \"#utility.yul\":252:285   */\n      tag_32\n      jump\t// in\n    tag_31:\n        /* \"#utility.yul\":152:291   */\n      swap3\n      swap2\n      pop\n      pop\n      jump\t// out\n        /* \"#utility.yul\":297:626   */\n    tag_12:\n        /* \"#utility.yul\":356:362   */\n      0x00\n        /* \"#utility.yul\":405:407   */\n      0x20\n        /* \"#utility.yul\":393:402   */\n      dup3\n        /* \"#utility.yul\":384:391   */\n      dup5\n        /* \"#utility.yul\":380:403   */\n      sub\n        /* \"#utility.yul\":376:408   */\n      slt\n        /* \"#utility.yul\":373:492   */\n      iszero\n      tag_34\n      jumpi\n        /* \"#utility.yul\":411:490   */\n      tag_35\n      tag_36\n      jump\t// in\n    tag_35:\n        /* \"#utility.yul\":373:492   */\n    tag_34:\n        /* \"#utility.yul\":531:532   */\n      0x00\n        /* \"#utility.yul\":556:609   */\n      tag_37\n        /* \"#utility.yul\":601:608   */\n      dup5\n        /* \"#utility.yul\":592:598   */\n      dup3\n        /* \"#utility.yul\":581:590   */\n      dup6\n        /* \"#utility.yul\":577:599   */\n      add\n        /* \"#utility.yul\":556:609   */\n      tag_25\n      jump\t// in\n    tag_37:\n        /* \"#utility.yul\":546:609   */\n      swap2\n      pop\n        /* \"#utility.yul\":502:619   */\n      pop\n        /* \"#utility.yul\":297:626   */\n      swap3\n      swap2\n      pop\n      pop\n      jump\t// out\n        /* \"#utility.yul\":632:1106   */\n    tag_7:\n        /* \"#utility.yul\":700:706   */\n      0x00\n        /* \"#utility.yul\":708:714   */\n      dup1\n        /* \"#utility.yul\":757:759   */\n      0x40\n        /* \"#utility.yul\":745:754   */\n      dup4\n        /* \"#utility.yul\":736:743   */\n      dup6\n        /* \"#utility.yul\":732:755   */\n      sub\n        /* \"#utility.yul\":728:760   */\n      slt\n        /* \"#utility.yul\":725:844   */\n      iszero\n      tag_39\n      jumpi\n        /* \"#utility.yul\":763:842   */\n      tag_40\n      tag_36\n      jump\t// in\n    tag_40:\n        /* \"#utility.yul\":725:844   */\n    tag_39:\n        /* \"#utility.yul\":883:884   */\n      0x00\n        /* \"#utility.yul\":908:961   */\n      tag_41\n        /* \"#utility.yul\":953:960   */\n      dup6\n        /* \"#utility.yul\":944:950   */\n      dup3\n        /* \"#utility.yul\":933:942   */\n      dup7\n        /* \"#utility.yul\":929:951   */\n      add\n        /* \"#utility.yul\":908:961   */\n      tag_25\n      jump\t// in\n    tag_41:\n        /* \"#utility.yul\":898:961   */\n      swap3\n      pop\n        /* \"#utility.yul\":854:971   */\n      pop\n        /* \"#utility.yul\":1010:1012   */\n      0x20\n        /* \"#utility.yul\":1036:1089   */\n      tag_42\n        /* \"#utility.yul\":1081:1088   */\n      dup6\n        /* \"#utility.yul\":1072:1078   */\n      dup3\n        /* \"#utility.yul\":1061:1070   */\n      dup7\n        /* \"#utility.yul\":1057:1079   */\n      add\n        /* \"#utility.yul\":1036:1089   */\n      tag_29\n      jump\t// in\n    tag_42:\n        /* \"#utility.yul\":1026:1089   */\n      swap2\n      pop\n        /* \"#utility.yul\":981:1099   */\n      pop\n        /* \"#utility.yul\":632:1106   */\n      swap3\n      pop\n      swap3\n      swap1\n      pop\n      jump\t// out\n        /* \"#utility.yul\":1112:1230   */\n    tag_43:\n        /* \"#utility.yul\":1199:1223   */\n      tag_45\n        /* \"#utility.yul\":1217:1222   */\n      dup2\n        /* \"#utility.yul\":1199:1223   */\n      tag_46\n      jump\t// in\n    tag_45:\n        /* \"#utility.yul\":1194:1197   */\n      dup3\n        /* \"#utility.yul\":1187:1224   */\n      mstore\n        /* \"#utility.yul\":1112:1230   */\n      pop\n      pop\n      jump\t// out\n        /* \"#utility.yul\":1236:1458   */\n    tag_15:\n        /* \"#utility.yul\":1329:1333   */\n      0x00\n        /* \"#utility.yul\":1367:1369   */\n      0x20\n        /* \"#utility.yul\":1356:1365   */\n      dup3\n        /* \"#utility.yul\":1352:1370   */\n      add\n        /* \"#utility.yul\":1344:1370   */\n      swap1\n      pop\n        /* \"#utility.yul\":1380:1451   */\n      tag_48\n        /* \"#utility.yul\":1448:1449   */\n      0x00\n        /* \"#utility.yul\":1437:1446   */\n      dup4\n        /* \"#utility.yul\":1433:1450   */\n      add\n        /* \"#utility.yul\":1424:1430   */\n      dup5\n        /* \"#utility.yul\":1380:1451   */\n      tag_43\n      jump\t// in\n    tag_48:\n        /* \"#utility.yul\":1236:1458   */\n      swap3\n      swap2\n      pop\n      pop\n      jump\t// out\n        /* \"#utility.yul\":1545:1850   */\n    tag_23:\n        /* \"#utility.yul\":1585:1588   */\n      0x00\n        /* \"#utility.yul\":1604:1624   */\n      tag_52\n        /* \"#utility.yul\":1622:1623   */\n      dup3\n        /* \"#utility.yul\":1604:1624   */\n      tag_46\n      jump\t// in\n    tag_52:\n        /* \"#utility.yul\":1599:1624   */\n      swap2\n      pop\n        /* \"#utility.yul\":1638:1658   */\n      tag_53\n        /* \"#utility.yul\":1656:1657   */\n      dup4\n        /* \"#utility.yul\":1638:1658   */\n      tag_46\n      jump\t// in\n    tag_53:\n        /* \"#utility.yul\":1633:1658   */\n      swap3\n      pop\n        /* \"#utility.yul\":1792:1793   */\n      dup3\n        /* \"#utility.yul\":1724:1790   */\n      0xffffffffffffffffffffffffffffffffffffffffffffffffffffffffffffffff\n        /* \"#utility.yul\":1720:1794   */\n      sub\n        /* \"#utility.yul\":1717:1718   */\n      dup3\n        /* \"#utility.yul\":1714:1795   */\n      gt\n        /* \"#utility.yul\":1711:1818   */\n      iszero\n      tag_54\n      jumpi\n        /* \"#utility.yul\":1798:1816   */\n      tag_55\n      tag_56\n      jump\t// in\n    tag_55:\n        /* \"#utility.yul\":1711:1818   */\n    tag_54:\n        /* \"#utility.yul\":1842:1843   */\n      dup3\n        /* \"#utility.yul\":1839:1840   */\n      dup3\n        /* \"#utility.yul\":1835:1844   */\n      add\n        /* \"#utility.yul\":1828:1844   */\n      swap1\n      pop\n        /* \"#utility.yul\":1545:1850   */\n      swap3\n      swap2\n      pop\n      pop\n      jump\t// out\n        /* \"#utility.yul\":1856:1952   */\n    tag_57:\n        /* \"#utility.yul\":1893:1900   */\n      0x00\n        /* \"#utility.yul\":1922:1946   */\n      tag_59\n        /* \"#utility.yul\":1940:1945   */\n      dup3\n        /* \"#utility.yul\":1922:1946   */\n      tag_60\n      jump\t// in\n    tag_59:\n        /* \"#utility.yul\":1911:1946   */\n      swap1\n      pop\n        /* \"#utility.yul\":1856:1952   */\n      swap2\n      swap1\n      pop\n      jump\t// out\n        /* \"#utility.yul\":1958:2084   */\n    tag_60:\n        /* \"#utility.yul\":1995:2002   */\n      0x00\n        /* \"#utility.yul\":2035:2077   */\n      0xffffffffffffffffffffffffffffffffffffffff\n        /* \"#utility.yul\":2028:2033   */\n      dup3\n        /* \"#utility.yul\":2024:2078   */\n      and\n        /* \"#utility.yul\":2013:2078   */\n      swap1\n      pop\n        /* \"#utility.yul\":1958:2084   */\n      swap2\n      swap1\n      pop\n      jump\t// out\n        /* \"#utility.yul\":2090:2167   */\n    tag_46:\n        /* \"#utility.yul\":2127:2134   */\n      0x00\n        /* \"#utility.yul\":2156:2161   */\n      dup2\n        /* \"#utility.yul\":2145:2161   */\n      swap1\n      pop\n        /* \"#utility.yul\":2090:2167   */\n      swap2\n      swap1\n      pop\n      jump\t// out\n        /* \"#utility.yul\":2173:2353   */\n    tag_56:\n        /* \"#utility.yul\":2221:2298   */\n      0x4e487b7100000000000000000000000000000000000000000000000000000000\n        /* \"#utility.yul\":2218:2219   */\n      0x00\n        /* \"#utility.yul\":2211:2299   */\n      mstore\n        /* \"#utility.yul\":2318:2322   */\n      0x11\n        /* \"#utility.yul\":2315:2316   */\n      0x04\n        /* \"#utility.yul\":2308:2323   */\n      mstore\n        /* \"#utility.yul\":2342:2346   */\n      0x24\n        /* \"#utility.yul\":2339:2340   */\n      0x00\n        /* \"#utility.yul\":2332:2347   */\n      revert\n        /* \"#utility.yul\":2482:2599   */\n    tag_36:\n        /* \"#utility.yul\":2591:2592   */\n      0x00\n        /* \"#utility.yul\":2588:2589   */\n      dup1\n        /* \"#utility.yul\":2581:2593   */\n      revert\n        /* \"#utility.yul\":2605:2727   */\n    tag_28:\n        /* \"#utility.yul\":2678:2702   */\n      tag_68\n        /* \"#utility.yul\":2696:2701   */\n      dup2\n        /* \"#utility.yul\":2678:2702   */\n      tag_57\n      jump\t// in\n    tag_68:\n        /* \"#utility.yul\":2671:2676   */\n      dup2\n        /* \"#utility.yul\":2668:2703   */\n      eq\n        /* \"#utility.yul\":2658:2721   */\n      tag_69\n      jumpi\n        /* \"#utility.yul\":2717:2718   */\n      0x00\n        /* \"#utility.yul\":2714:2715   */\n      dup1\n        /* \"#utility.yul\":2707:2719   */\n      revert\n        /* \"#utility.yul\":2658:2721   */\n    tag_69:\n        /* \"#utility.yul\":2605:2727   */\n      pop\n      jump\t// out\n        /* \"#utility.yul\":2733:2855   */\n    tag_32:\n        /* \"#utility.yul\":2806:2830   */\n      tag_71\n        /* \"#utility.yul\":2824:2829   */\n      dup2\n        /* \"#utility.yul\":2806:2830   */\n      tag_46\n      jump\t// in\n    tag_71:\n        /* \"#utility.yul\":2799:2804   */\n      dup2\n        /* \"#utility.yul\":2796:2831   */\n      eq\n        /* \"#utility.yul\":2786:2849   */\n      tag_72\n      jumpi\n        /* \"#utility.yul\":2845:2846   */\n      0x00\n        /* \"#utility.yul\":2842:2843   */\n      dup1\n        /* \"#utility.yul\":2835:2847   */\n      revert\n        /* \"#utility.yul\":2786:2849   */\n    tag_72:\n        /* \"#utility.yul\":2733:2855   */\n      pop\n      jump\t// out\n\n    auxdata: 0xa2646970667358221220350db36f4275fe09bfefcdd3f2deab7c4cbce2171e8c9b21376dc129927bee6564736f6c63430008070033\n}\n",
				"bytecode": {
					"linkReferences": {},
					"object": "608060405234801561001057600080fd5b50610380806100206000396000f3fe6080604052600436106100345760003560e01c806340990e30146100395780636607250b14610055578063b9f0bf6614610092575b600080fd5b610053600480360381019061004e91906101ec565b6100cf565b005b34801561006157600080fd5b5061007c600480360381019061007791906101bf565b610165565b604051610089919061023b565b60405180910390f35b34801561009e57600080fd5b506100b960048036038101906100b491906101bf565b61017d565b6040516100c6919061023b565b60405180910390f35b346000808473ffffffffffffffffffffffffffffffffffffffff1673ffffffffffffffffffffffffffffffffffffffff16815260200190815260200160002081905550804261011e9190610256565b600160008473ffffffffffffffffffffffffffffffffffffffff1673ffffffffffffffffffffffffffffffffffffffff168152602001908152602001600020819055505050565b60016020528060005260406000206000915090505481565b60006020528060005260406000206000915090505481565b6000813590506101a48161031c565b92915050565b6000813590506101b981610333565b92915050565b6000602082840312156101d5576101d4610317565b5b60006101e384828501610195565b91505092915050565b6000806040838503121561020357610202610317565b5b600061021185828601610195565b9250506020610222858286016101aa565b9150509250929050565b610235816102de565b82525050565b6000602082019050610250600083018461022c565b92915050565b6000610261826102de565b915061026c836102de565b9250827fffffffffffffffffffffffffffffffffffffffffffffffffffffffffffffffff038211156102a1576102a06102e8565b5b828201905092915050565b60006102b7826102be565b9050919050565b600073ffffffffffffffffffffffffffffffffffffffff82169050919050565b6000819050919050565b7f4e487b7100000000000000000000000000000000000000000000000000000000600052601160045260246000fd5b600080fd5b610325816102ac565b811461033057600080fd5b50565b61033c816102de565b811461034757600080fd5b5056fea2646970667358221220350db36f4275fe09bfefcdd3f2deab7c4cbce2171e8c9b21376dc129927bee6564736f6c63430008070033",
					"opcodes": "PUSH1 0x80 PUSH1 0x40 MSTORE CALLVALUE DUP1 ISZERO PUSH2 0x10 JUMPI PUSH1 0x0 DUP1 REVERT JUMPDEST POP PUSH2 0x380 DUP1 PUSH2 0x20 PUSH1 0x0 CODECOPY PUSH1 0x0 RETURN INVALID PUSH1 0x80 PUSH1 0x40 MSTORE PUSH1 0x4 CALLDATASIZE LT PUSH2 0x34 JUMPI PUSH1 0x0 CALLDATALOAD PUSH1 0xE0 SHR DUP1 PUSH4 0x40990E30 EQ PUSH2 0x39 JUMPI DUP1 PUSH4 0x6607250B EQ PUSH2 0x55 JUMPI DUP1 PUSH4 0xB9F0BF66 EQ PUSH2 0x92 JUMPI JUMPDEST PUSH1 0x0 DUP1 REVERT JUMPDEST PUSH2 0x53 PUSH1 0x4 DUP1 CALLDATASIZE SUB DUP2 ADD SWAP1 PUSH2 0x4E SWAP2 SWAP1 PUSH2 0x1EC JUMP JUMPDEST PUSH2 0xCF JUMP JUMPDEST STOP JUMPDEST CALLVALUE DUP1 ISZERO PUSH2 0x61 JUMPI PUSH1 0x0 DUP1 REVERT JUMPDEST POP PUSH2 0x7C PUSH1 0x4 DUP1 CALLDATASIZE SUB DUP2 ADD SWAP1 PUSH2 0x77 SWAP2 SWAP1 PUSH2 0x1BF JUMP JUMPDEST PUSH2 0x165 JUMP JUMPDEST PUSH1 0x40 MLOAD PUSH2 0x89 SWAP2 SWAP1 PUSH2 0x23B JUMP JUMPDEST PUSH1 0x40 MLOAD DUP1 SWAP2 SUB SWAP1 RETURN JUMPDEST CALLVALUE DUP1 ISZERO PUSH2 0x9E JUMPI PUSH1 0x0 DUP1 REVERT JUMPDEST POP PUSH2 0xB9 PUSH1 0x4 DUP1 CALLDATASIZE SUB DUP2 ADD SWAP1 PUSH2 0xB4 SWAP2 SWAP1 PUSH2 0x1BF JUMP JUMPDEST PUSH2 0x17D JUMP JUMPDEST PUSH1 0x40 MLOAD PUSH2 0xC6 SWAP2 SWAP1 PUSH2 0x23B JUMP JUMPDEST PUSH1 0x40 MLOAD DUP1 SWAP2 SUB SWAP1 RETURN JUMPDEST CALLVALUE PUSH1 0x0 DUP1 DUP5 PUSH20 0xFFFFFFFFFFFFFFFFFFFFFFFFFFFFFFFFFFFFFFFF AND PUSH20 0xFFFFFFFFFFFFFFFFFFFFFFFFFFFFFFFFFFFFFFFF AND DUP2 MSTORE PUSH1 0x20 ADD SWAP1 DUP2 MSTORE PUSH1 0x20 ADD PUSH1 0x0 KECCAK256 DUP2 SWAP1 SSTORE POP DUP1 TIMESTAMP PUSH2 0x11E SWAP2 SWAP1 PUSH2 0x256 JUMP JUMPDEST PUSH1 0x1 PUSH1 0x0 DUP5 PUSH20 0xFFFFFFFFFFFFFFFFFFFFFFFFFFFFFFFFFFFFFFFF AND PUSH20 0xFFFFFFFFFFFFFFFFFFFFFFFFFFFFFFFFFFFFFFFF AND DUP2 MSTORE PUSH1 0x20 ADD SWAP1 DUP2 MSTORE PUSH1 0x20 ADD PUSH1 0x0 KECCAK256 DUP2 SWAP1 SSTORE POP POP POP JUMP JUMPDEST PUSH1 0x1 PUSH1 0x20 MSTORE DUP1 PUSH1 0x0 MSTORE PUSH1 0x40 PUSH1 0x0 KECCAK256 PUSH1 0x0 SWAP2 POP SWAP1 POP SLOAD DUP2 JUMP JUMPDEST PUSH1 0x0 PUSH1 0x20 MSTORE DUP1 PUSH1 0x0 MSTORE PUSH1 0x40 PUSH1 0x0 KECCAK256 PUSH1 0x0 SWAP2 POP SWAP1 POP SLOAD DUP2 JUMP JUMPDEST PUSH1 0x0 DUP2 CALLDATALOAD SWAP1 POP PUSH2 0x1A4 DUP2 PUSH2 0x31C JUMP JUMPDEST SWAP3 SWAP2 POP POP JUMP JUMPDEST PUSH1 0x0 DUP2 CALLDATALOAD SWAP1 POP PUSH2 0x1B9 DUP2 PUSH2 0x333 JUMP JUMPDEST SWAP3 SWAP2 POP POP JUMP JUMPDEST PUSH1 0x0 PUSH1 0x20 DUP3 DUP5 SUB SLT ISZERO PUSH2 0x1D5 JUMPI PUSH2 0x1D4 PUSH2 0x317 JUMP JUMPDEST JUMPDEST PUSH1 0x0 PUSH2 0x1E3 DUP5 DUP3 DUP6 ADD PUSH2 0x195 JUMP JUMPDEST SWAP2 POP POP SWAP3 SWAP2 POP POP JUMP JUMPDEST PUSH1 0x0 DUP1 PUSH1 0x40 DUP4 DUP6 SUB SLT ISZERO PUSH2 0x203 JUMPI PUSH2 0x202 PUSH2 0x317 JUMP JUMPDEST JUMPDEST PUSH1 0x0 PUSH2 0x211 DUP6 DUP3 DUP7 ADD PUSH2 0x195 JUMP JUMPDEST SWAP3 POP POP PUSH1 0x20 PUSH2 0x222 DUP6 DUP3 DUP7 ADD PUSH2 0x1AA JUMP JUMPDEST SWAP2 POP POP SWAP3 POP SWAP3 SWAP1 POP JUMP JUMPDEST PUSH2 0x235 DUP2 PUSH2 0x2DE JUMP JUMPDEST DUP3 MSTORE POP POP JUMP JUMPDEST PUSH1 0x0 PUSH1 0x20 DUP3 ADD SWAP1 POP PUSH2 0x250 PUSH1 0x0 DUP4 ADD DUP5 PUSH2 0x22C JUMP JUMPDEST SWAP3 SWAP2 POP POP JUMP JUMPDEST PUSH1 0x0 PUSH2 0x261 DUP3 PUSH2 0x2DE JUMP JUMPDEST SWAP2 POP PUSH2 0x26C DUP4 PUSH2 0x2DE JUMP JUMPDEST SWAP3 POP DUP3 PUSH32 0xFFFFFFFFFFFFFFFFFFFFFFFFFFFFFFFFFFFFFFFFFFFFFFFFFFFFFFFFFFFFFFFF SUB DUP3 GT ISZERO PUSH2 0x2A1 JUMPI PUSH2 0x2A0 PUSH2 0x2E8 JUMP JUMPDEST JUMPDEST DUP3 DUP3 ADD SWAP1 POP SWAP3 SWAP2 POP POP JUMP JUMPDEST PUSH1 0x0 PUSH2 0x2B7 DUP3 PUSH2 0x2BE JUMP JUMPDEST SWAP1 POP SWAP2 SWAP1 POP JUMP JUMPDEST PUSH1 0x0 PUSH20 0xFFFFFFFFFFFFFFFFFFFFFFFFFFFFFFFFFFFFFFFF DUP3 AND SWAP1 POP SWAP2 SWAP1 POP JUMP JUMPDEST PUSH1 0x0 DUP2 SWAP1 POP SWAP2 SWAP1 POP JUMP JUMPDEST PUSH32 0x4E487B7100000000000000000000000000000000000000000000000000000000 PUSH1 0x0 MSTORE PUSH1 0x11 PUSH1 0x4 MSTORE PUSH1 0x24 PUSH1 0x0 REVERT JUMPDEST PUSH1 0x0 DUP1 REVERT JUMPDEST PUSH2 0x325 DUP2 PUSH2 0x2AC JUMP JUMPDEST DUP2 EQ PUSH2 0x330 JUMPI PUSH1 0x0 DUP1 REVERT JUMPDEST POP JUMP JUMPDEST PUSH2 0x33C DUP2 PUSH2 0x2DE JUMP JUMPDEST DUP2 EQ PUSH2 0x347 JUMPI PUSH1 0x0 DUP1 REVERT JUMPDEST POP JUMP INVALID LOG2 PUSH5 0x6970667358 0x22 SLT KECCAK256 CALLDATALOAD 0xD 0xB3 PUSH16 0x4275FE09BFEFCDD3F2DEAB7C4CBCE217 0x1E DUP13 SWAP12 0x21 CALLDATACOPY PUSH14 0xC129927BEE6564736F6C63430008 SMOD STOP CALLER "
				},
				"gasEstimates": {
					"creation": {
						"codeDepositCost": "179200",
						"executionCost": "220",
						"totalCost": "179420"
					},
					"external": {
						"addKid(address,uint256)": "infinite",
						"amount(address)": "2836",
						"maturities(address)": "2814"
					}
				},
				"methodIdentifiers": {
					"addKid(address,uint256)": "40990e30",
					"amount(address)": "b9f0bf66",
					"maturities(address)": "6607250b"
				}
			},
			"storageLayout": {
				"storage": [
					{
						"astId": 5,
						"contract": "github/fahadashiq/block-chain/smart-contracts/practice.sol:Trust",
						"label": "amount",
						"offset": 0,
						"slot": "0",
						"type": "t_mapping(t_address,t_uint256)"
					},
					{
						"astId": 9,
						"contract": "github/fahadashiq/block-chain/smart-contracts/practice.sol:Trust",
						"label": "maturities",
						"offset": 0,
						"slot": "1",
						"type": "t_mapping(t_address,t_uint256)"
					}
				],
				"types": {
					"t_address": {
						"encoding": "inplace",
						"label": "address",
						"numberOfBytes": "20"
					},
					"t_mapping(t_address,t_uint256)": {
						"encoding": "mapping",
						"key": "t_address",
						"label": "mapping(address => uint256)",
						"numberOfBytes": "32",
						"value": "t_uint256"
					},
					"t_uint256": {
						"encoding": "inplace",
						"label": "uint256",
						"numberOfBytes": "32"
					}
				}
			},
			"userdoc": {
				"kind": "user",
				"methods": {},
				"version": 1
			}
		}
	}
}