{
	"github/fahadashiq/block-chain/smart-contracts/voting.sol": {
		"Voting": {
			"abi": [
				{
					"inputs": [],
					"stateMutability": "nonpayable",
					"type": "constructor"
				},
				{
					"inputs": [
						{
							"internalType": "string",
							"name": "campaignName",
							"type": "string"
						}
					],
					"name": "addCampaign",
					"outputs": [],
					"stateMutability": "nonpayable",
					"type": "function"
				},
				{
					"inputs": [],
					"name": "admin",
					"outputs": [
						{
							"internalType": "address",
							"name": "",
							"type": "address"
						}
					],
					"stateMutability": "view",
					"type": "function"
				},
				{
					"inputs": [
						{
							"internalType": "string",
							"name": "",
							"type": "string"
						}
					],
					"name": "campaigns",
					"outputs": [
						{
							"internalType": "string",
							"name": "name",
							"type": "string"
						},
						{
							"components": [
								{
									"internalType": "string",
									"name": "name",
									"type": "string"
								},
								{
									"internalType": "string",
									"name": "sign",
									"type": "string"
								},
								{
									"internalType": "uint256",
									"name": "votes",
									"type": "uint256"
								}
							],
							"internalType": "struct Voting.Candidate",
							"name": "candidates",
							"type": "tuple"
						}
					],
					"stateMutability": "view",
					"type": "function"
				},
				{
					"inputs": [
						{
							"internalType": "uint256",
							"name": "",
							"type": "uint256"
						}
					],
					"name": "candidates",
					"outputs": [
						{
							"internalType": "string",
							"name": "name",
							"type": "string"
						},
						{
							"internalType": "string",
							"name": "sign",
							"type": "string"
						},
						{
							"internalType": "uint256",
							"name": "votes",
							"type": "uint256"
						}
					],
					"stateMutability": "view",
					"type": "function"
				}
			],
			"devdoc": {
				"kind": "dev",
				"methods": {},
				"version": 1
			},
			"evm": {
				"assembly": "    /* \"github/fahadashiq/block-chain/smart-contracts/voting.sol\":111:2107  contract Voting {... */\n  mstore(0x40, 0x80)\n    /* \"github/fahadashiq/block-chain/smart-contracts/voting.sol\":722:773  constructor() {... */\n  callvalue\n  dup1\n  iszero\n  tag_1\n  jumpi\n  0x00\n  dup1\n  revert\ntag_1:\n  pop\n    /* \"github/fahadashiq/block-chain/smart-contracts/voting.sol\":755:765  msg.sender */\n  caller\n    /* \"github/fahadashiq/block-chain/smart-contracts/voting.sol\":747:752  admin */\n  0x02\n  0x00\n    /* \"github/fahadashiq/block-chain/smart-contracts/voting.sol\":747:765  admin = msg.sender */\n  0x0100\n  exp\n  dup2\n  sload\n  dup2\n  0xffffffffffffffffffffffffffffffffffffffff\n  mul\n  not\n  and\n  swap1\n  dup4\n  0xffffffffffffffffffffffffffffffffffffffff\n  and\n  mul\n  or\n  swap1\n  sstore\n  pop\n    /* \"github/fahadashiq/block-chain/smart-contracts/voting.sol\":111:2107  contract Voting {... */\n  dataSize(sub_0)\n  dup1\n  dataOffset(sub_0)\n  0x00\n  codecopy\n  0x00\n  return\nstop\n\nsub_0: assembly {\n        /* \"github/fahadashiq/block-chain/smart-contracts/voting.sol\":111:2107  contract Voting {... */\n      mstore(0x40, 0x80)\n      callvalue\n      dup1\n      iszero\n      tag_1\n      jumpi\n      0x00\n      dup1\n      revert\n    tag_1:\n      pop\n      jumpi(tag_2, lt(calldatasize, 0x04))\n      shr(0xe0, calldataload(0x00))\n      dup1\n      0x1d39e509\n      eq\n      tag_3\n      jumpi\n      dup1\n      0x202e7be4\n      eq\n      tag_4\n      jumpi\n      dup1\n      0x3477ee2e\n      eq\n      tag_5\n      jumpi\n      dup1\n      0xf851a440\n      eq\n      tag_6\n      jumpi\n    tag_2:\n      0x00\n      dup1\n      revert\n        /* \"github/fahadashiq/block-chain/smart-contracts/voting.sol\":602:646  mapping(string => Campaign) public campaigns */\n    tag_3:\n      tag_7\n      0x04\n      dup1\n      calldatasize\n      sub\n      dup2\n      add\n      swap1\n      tag_8\n      swap2\n      swap1\n      tag_9\n      jump\t// in\n    tag_8:\n      tag_10\n      jump\t// in\n    tag_7:\n      mload(0x40)\n      tag_11\n      swap3\n      swap2\n      swap1\n      tag_12\n      jump\t// in\n    tag_11:\n      mload(0x40)\n      dup1\n      swap2\n      sub\n      swap1\n      return\n        /* \"github/fahadashiq/block-chain/smart-contracts/voting.sol\":783:1213  function addCampaign(string memory campaignName) public {... */\n    tag_4:\n      tag_13\n      0x04\n      dup1\n      calldatasize\n      sub\n      dup2\n      add\n      swap1\n      tag_14\n      swap2\n      swap1\n      tag_9\n      jump\t// in\n    tag_14:\n      tag_15\n      jump\t// in\n    tag_13:\n      stop\n        /* \"github/fahadashiq/block-chain/smart-contracts/voting.sol\":653:682  Candidate[] public candidates */\n    tag_5:\n      tag_16\n      0x04\n      dup1\n      calldatasize\n      sub\n      dup2\n      add\n      swap1\n      tag_17\n      swap2\n      swap1\n      tag_18\n      jump\t// in\n    tag_17:\n      tag_19\n      jump\t// in\n    tag_16:\n      mload(0x40)\n      tag_20\n      swap4\n      swap3\n      swap2\n      swap1\n      tag_21\n      jump\t// in\n    tag_20:\n      mload(0x40)\n      dup1\n      swap2\n      sub\n      swap1\n      return\n        /* \"github/fahadashiq/block-chain/smart-contracts/voting.sol\":693:713  address public admin */\n    tag_6:\n      tag_22\n      tag_23\n      jump\t// in\n    tag_22:\n      mload(0x40)\n      tag_24\n      swap2\n      swap1\n      tag_25\n      jump\t// in\n    tag_24:\n      mload(0x40)\n      dup1\n      swap2\n      sub\n      swap1\n      return\n        /* \"github/fahadashiq/block-chain/smart-contracts/voting.sol\":602:646  mapping(string => Campaign) public campaigns */\n    tag_10:\n      0x00\n      dup2\n      dup1\n      mload\n      0x20\n      dup2\n      add\n      dup3\n      add\n      dup1\n      mload\n      dup5\n      dup3\n      mstore\n      0x20\n      dup4\n      add\n      0x20\n      dup6\n      add\n      keccak256\n      dup2\n      dup4\n      mstore\n      dup1\n      swap6\n      pop\n      pop\n      pop\n      pop\n      pop\n      pop\n      0x00\n      swap2\n      pop\n      swap1\n      pop\n      dup1\n      0x00\n      add\n      dup1\n      sload\n      tag_26\n      swap1\n      tag_27\n      jump\t// in\n    tag_26:\n      dup1\n      0x1f\n      add\n      0x20\n      dup1\n      swap2\n      div\n      mul\n      0x20\n      add\n      mload(0x40)\n      swap1\n      dup2\n      add\n      0x40\n      mstore\n      dup1\n      swap3\n      swap2\n      swap1\n      dup2\n      dup2\n      mstore\n      0x20\n      add\n      dup3\n      dup1\n      sload\n      tag_28\n      swap1\n      tag_27\n      jump\t// in\n    tag_28:\n      dup1\n      iszero\n      tag_29\n      jumpi\n      dup1\n      0x1f\n      lt\n      tag_30\n      jumpi\n      0x0100\n      dup1\n      dup4\n      sload\n      div\n      mul\n      dup4\n      mstore\n      swap2\n      0x20\n      add\n      swap2\n      jump(tag_29)\n    tag_30:\n      dup3\n      add\n      swap2\n      swap1\n      0x00\n      mstore\n      keccak256(0x00, 0x20)\n      swap1\n    tag_31:\n      dup2\n      sload\n      dup2\n      mstore\n      swap1\n      0x01\n      add\n      swap1\n      0x20\n      add\n      dup1\n      dup4\n      gt\n      tag_31\n      jumpi\n      dup3\n      swap1\n      sub\n      0x1f\n      and\n      dup3\n      add\n      swap2\n    tag_29:\n      pop\n      pop\n      pop\n      pop\n      pop\n      swap1\n      dup1\n      0x01\n      add\n      mload(0x40)\n      dup1\n      0x60\n      add\n      0x40\n      mstore\n      swap1\n      dup2\n      0x00\n      dup3\n      add\n      dup1\n      sload\n      tag_32\n      swap1\n      tag_27\n      jump\t// in\n    tag_32:\n      dup1\n      0x1f\n      add\n      0x20\n      dup1\n      swap2\n      div\n      mul\n      0x20\n      add\n      mload(0x40)\n      swap1\n      dup2\n      add\n      0x40\n      mstore\n      dup1\n      swap3\n      swap2\n      swap1\n      dup2\n      dup2\n      mstore\n      0x20\n      add\n      dup3\n      dup1\n      sload\n      tag_33\n      swap1\n      tag_27\n      jump\t// in\n    tag_33:\n      dup1\n      iszero\n      tag_34\n      jumpi\n      dup1\n      0x1f\n      lt\n      tag_35\n      jumpi\n      0x0100\n      dup1\n      dup4\n      sload\n      div\n      mul\n      dup4\n      mstore\n      swap2\n      0x20\n      add\n      swap2\n      jump(tag_34)\n    tag_35:\n      dup3\n      add\n      swap2\n      swap1\n      0x00\n      mstore\n      keccak256(0x00, 0x20)\n      swap1\n    tag_36:\n      dup2\n      sload\n      dup2\n      mstore\n      swap1\n      0x01\n      add\n      swap1\n      0x20\n      add\n      dup1\n      dup4\n      gt\n      tag_36\n      jumpi\n      dup3\n      swap1\n      sub\n      0x1f\n      and\n      dup3\n      add\n      swap2\n    tag_34:\n      pop\n      pop\n      pop\n      pop\n      pop\n      dup2\n      mstore\n      0x20\n      add\n      0x01\n      dup3\n      add\n      dup1\n      sload\n      tag_37\n      swap1\n      tag_27\n      jump\t// in\n    tag_37:\n      dup1\n      0x1f\n      add\n      0x20\n      dup1\n      swap2\n      div\n      mul\n      0x20\n      add\n      mload(0x40)\n      swap1\n      dup2\n      add\n      0x40\n      mstore\n      dup1\n      swap3\n      swap2\n      swap1\n      dup2\n      dup2\n      mstore\n      0x20\n      add\n      dup3\n      dup1\n      sload\n      tag_38\n      swap1\n      tag_27\n      jump\t// in\n    tag_38:\n      dup1\n      iszero\n      tag_39\n      jumpi\n      dup1\n      0x1f\n      lt\n      tag_40\n      jumpi\n      0x0100\n      dup1\n      dup4\n      sload\n      div\n      mul\n      dup4\n      mstore\n      swap2\n      0x20\n      add\n      swap2\n      jump(tag_39)\n    tag_40:\n      dup3\n      add\n      swap2\n      swap1\n      0x00\n      mstore\n      keccak256(0x00, 0x20)\n      swap1\n    tag_41:\n      dup2\n      sload\n      dup2\n      mstore\n      swap1\n      0x01\n      add\n      swap1\n      0x20\n      add\n      dup1\n      dup4\n      gt\n      tag_41\n      jumpi\n      dup3\n      swap1\n      sub\n      0x1f\n      and\n      dup3\n      add\n      swap2\n    tag_39:\n      pop\n      pop\n      pop\n      pop\n      pop\n      dup2\n      mstore\n      0x20\n      add\n      0x02\n      dup3\n      add\n      sload\n      dup2\n      mstore\n      pop\n      pop\n      swap1\n      pop\n      dup3\n      jump\t// out\n        /* \"github/fahadashiq/block-chain/smart-contracts/voting.sol\":783:1213  function addCampaign(string memory campaignName) public {... */\n    tag_15:\n        /* \"github/fahadashiq/block-chain/smart-contracts/voting.sol\":872:877  admin */\n      0x02\n      0x00\n      swap1\n      sload\n      swap1\n      0x0100\n      exp\n      swap1\n      div\n      0xffffffffffffffffffffffffffffffffffffffff\n      and\n        /* \"github/fahadashiq/block-chain/smart-contracts/voting.sol\":858:877  msg.sender == admin */\n      0xffffffffffffffffffffffffffffffffffffffff\n      and\n        /* \"github/fahadashiq/block-chain/smart-contracts/voting.sol\":858:868  msg.sender */\n      caller\n        /* \"github/fahadashiq/block-chain/smart-contracts/voting.sol\":858:877  msg.sender == admin */\n      0xffffffffffffffffffffffffffffffffffffffff\n      and\n      eq\n        /* \"github/fahadashiq/block-chain/smart-contracts/voting.sol\":850:913  require(msg.sender == admin, 'Only admin can start a campaign') */\n      tag_43\n      jumpi\n      mload(0x40)\n      0x08c379a000000000000000000000000000000000000000000000000000000000\n      dup2\n      mstore\n      0x04\n      add\n      tag_44\n      swap1\n      tag_45\n      jump\t// in\n    tag_44:\n      mload(0x40)\n      dup1\n      swap2\n      sub\n      swap1\n      revert\n    tag_43:\n        /* \"github/fahadashiq/block-chain/smart-contracts/voting.sol\":783:1213  function addCampaign(string memory campaignName) public {... */\n      pop\n      jump\t// out\n        /* \"github/fahadashiq/block-chain/smart-contracts/voting.sol\":653:682  Candidate[] public candidates */\n    tag_19:\n      0x01\n      dup2\n      dup2\n      sload\n      dup2\n      lt\n      tag_46\n      jumpi\n      0x00\n      dup1\n      revert\n    tag_46:\n      swap1\n      0x00\n      mstore\n      keccak256(0x00, 0x20)\n      swap1\n      0x03\n      mul\n      add\n      0x00\n      swap2\n      pop\n      swap1\n      pop\n      dup1\n      0x00\n      add\n      dup1\n      sload\n      tag_48\n      swap1\n      tag_27\n      jump\t// in\n    tag_48:\n      dup1\n      0x1f\n      add\n      0x20\n      dup1\n      swap2\n      div\n      mul\n      0x20\n      add\n      mload(0x40)\n      swap1\n      dup2\n      add\n      0x40\n      mstore\n      dup1\n      swap3\n      swap2\n      swap1\n      dup2\n      dup2\n      mstore\n      0x20\n      add\n      dup3\n      dup1\n      sload\n      tag_49\n      swap1\n      tag_27\n      jump\t// in\n    tag_49:\n      dup1\n      iszero\n      tag_50\n      jumpi\n      dup1\n      0x1f\n      lt\n      tag_51\n      jumpi\n      0x0100\n      dup1\n      dup4\n      sload\n      div\n      mul\n      dup4\n      mstore\n      swap2\n      0x20\n      add\n      swap2\n      jump(tag_50)\n    tag_51:\n      dup3\n      add\n      swap2\n      swap1\n      0x00\n      mstore\n      keccak256(0x00, 0x20)\n      swap1\n    tag_52:\n      dup2\n      sload\n      dup2\n      mstore\n      swap1\n      0x01\n      add\n      swap1\n      0x20\n      add\n      dup1\n      dup4\n      gt\n      tag_52\n      jumpi\n      dup3\n      swap1\n      sub\n      0x1f\n      and\n      dup3\n      add\n      swap2\n    tag_50:\n      pop\n      pop\n      pop\n      pop\n      pop\n      swap1\n      dup1\n      0x01\n      add\n      dup1\n      sload\n      tag_53\n      swap1\n      tag_27\n      jump\t// in\n    tag_53:\n      dup1\n      0x1f\n      add\n      0x20\n      dup1\n      swap2\n      div\n      mul\n      0x20\n      add\n      mload(0x40)\n      swap1\n      dup2\n      add\n      0x40\n      mstore\n      dup1\n      swap3\n      swap2\n      swap1\n      dup2\n      dup2\n      mstore\n      0x20\n      add\n      dup3\n      dup1\n      sload\n      tag_54\n      swap1\n      tag_27\n      jump\t// in\n    tag_54:\n      dup1\n      iszero\n      tag_55\n      jumpi\n      dup1\n      0x1f\n      lt\n      tag_56\n      jumpi\n      0x0100\n      dup1\n      dup4\n      sload\n      div\n      mul\n      dup4\n      mstore\n      swap2\n      0x20\n      add\n      swap2\n      jump(tag_55)\n    tag_56:\n      dup3\n      add\n      swap2\n      swap1\n      0x00\n      mstore\n      keccak256(0x00, 0x20)\n      swap1\n    tag_57:\n      dup2\n      sload\n      dup2\n      mstore\n      swap1\n      0x01\n      add\n      swap1\n      0x20\n      add\n      dup1\n      dup4\n      gt\n      tag_57\n      jumpi\n      dup3\n      swap1\n      sub\n      0x1f\n      and\n      dup3\n      add\n      swap2\n    tag_55:\n      pop\n      pop\n      pop\n      pop\n      pop\n      swap1\n      dup1\n      0x02\n      add\n      sload\n      swap1\n      pop\n      dup4\n      jump\t// out\n        /* \"github/fahadashiq/block-chain/smart-contracts/voting.sol\":693:713  address public admin */\n    tag_23:\n      0x02\n      0x00\n      swap1\n      sload\n      swap1\n      0x0100\n      exp\n      swap1\n      div\n      0xffffffffffffffffffffffffffffffffffffffff\n      and\n      dup2\n      jump\t// out\n        /* \"#utility.yul\":7:82   */\n    tag_58:\n        /* \"#utility.yul\":40:46   */\n      0x00\n        /* \"#utility.yul\":73:75   */\n      0x40\n        /* \"#utility.yul\":67:76   */\n      mload\n        /* \"#utility.yul\":57:76   */\n      swap1\n      pop\n        /* \"#utility.yul\":7:82   */\n      swap1\n      jump\t// out\n        /* \"#utility.yul\":88:205   */\n    tag_59:\n        /* \"#utility.yul\":197:198   */\n      0x00\n        /* \"#utility.yul\":194:195   */\n      dup1\n        /* \"#utility.yul\":187:199   */\n      revert\n        /* \"#utility.yul\":211:328   */\n    tag_60:\n        /* \"#utility.yul\":320:321   */\n      0x00\n        /* \"#utility.yul\":317:318   */\n      dup1\n        /* \"#utility.yul\":310:322   */\n      revert\n        /* \"#utility.yul\":334:451   */\n    tag_61:\n        /* \"#utility.yul\":443:444   */\n      0x00\n        /* \"#utility.yul\":440:441   */\n      dup1\n        /* \"#utility.yul\":433:445   */\n      revert\n        /* \"#utility.yul\":457:574   */\n    tag_62:\n        /* \"#utility.yul\":566:567   */\n      0x00\n        /* \"#utility.yul\":563:564   */\n      dup1\n        /* \"#utility.yul\":556:568   */\n      revert\n        /* \"#utility.yul\":580:682   */\n    tag_63:\n        /* \"#utility.yul\":621:627   */\n      0x00\n        /* \"#utility.yul\":672:674   */\n      0x1f\n        /* \"#utility.yul\":668:675   */\n      not\n        /* \"#utility.yul\":663:665   */\n      0x1f\n        /* \"#utility.yul\":656:661   */\n      dup4\n        /* \"#utility.yul\":652:666   */\n      add\n        /* \"#utility.yul\":648:676   */\n      and\n        /* \"#utility.yul\":638:676   */\n      swap1\n      pop\n        /* \"#utility.yul\":580:682   */\n      swap2\n      swap1\n      pop\n      jump\t// out\n        /* \"#utility.yul\":688:868   */\n    tag_64:\n        /* \"#utility.yul\":736:813   */\n      0x4e487b7100000000000000000000000000000000000000000000000000000000\n        /* \"#utility.yul\":733:734   */\n      0x00\n        /* \"#utility.yul\":726:814   */\n      mstore\n        /* \"#utility.yul\":833:837   */\n      0x41\n        /* \"#utility.yul\":830:831   */\n      0x04\n        /* \"#utility.yul\":823:838   */\n      mstore\n        /* \"#utility.yul\":857:861   */\n      0x24\n        /* \"#utility.yul\":854:855   */\n      0x00\n        /* \"#utility.yul\":847:862   */\n      revert\n        /* \"#utility.yul\":874:1155   */\n    tag_65:\n        /* \"#utility.yul\":957:984   */\n      tag_98\n        /* \"#utility.yul\":979:983   */\n      dup3\n        /* \"#utility.yul\":957:984   */\n      tag_63\n      jump\t// in\n    tag_98:\n        /* \"#utility.yul\":949:955   */\n      dup2\n        /* \"#utility.yul\":945:985   */\n      add\n        /* \"#utility.yul\":1087:1093   */\n      dup2\n        /* \"#utility.yul\":1075:1085   */\n      dup2\n        /* \"#utility.yul\":1072:1094   */\n      lt\n        /* \"#utility.yul\":1051:1069   */\n      0xffffffffffffffff\n        /* \"#utility.yul\":1039:1049   */\n      dup3\n        /* \"#utility.yul\":1036:1070   */\n      gt\n        /* \"#utility.yul\":1033:1095   */\n      or\n        /* \"#utility.yul\":1030:1118   */\n      iszero\n      tag_99\n      jumpi\n        /* \"#utility.yul\":1098:1116   */\n      tag_100\n      tag_64\n      jump\t// in\n    tag_100:\n        /* \"#utility.yul\":1030:1118   */\n    tag_99:\n        /* \"#utility.yul\":1138:1148   */\n      dup1\n        /* \"#utility.yul\":1134:1136   */\n      0x40\n        /* \"#utility.yul\":1127:1149   */\n      mstore\n        /* \"#utility.yul\":917:1155   */\n      pop\n        /* \"#utility.yul\":874:1155   */\n      pop\n      pop\n      jump\t// out\n        /* \"#utility.yul\":1161:1290   */\n    tag_66:\n        /* \"#utility.yul\":1195:1201   */\n      0x00\n        /* \"#utility.yul\":1222:1242   */\n      tag_102\n      tag_58\n      jump\t// in\n    tag_102:\n        /* \"#utility.yul\":1212:1242   */\n      swap1\n      pop\n        /* \"#utility.yul\":1251:1284   */\n      tag_103\n        /* \"#utility.yul\":1279:1283   */\n      dup3\n        /* \"#utility.yul\":1271:1277   */\n      dup3\n        /* \"#utility.yul\":1251:1284   */\n      tag_65\n      jump\t// in\n    tag_103:\n        /* \"#utility.yul\":1161:1290   */\n      swap2\n      swap1\n      pop\n      jump\t// out\n        /* \"#utility.yul\":1296:1604   */\n    tag_67:\n        /* \"#utility.yul\":1358:1362   */\n      0x00\n        /* \"#utility.yul\":1448:1466   */\n      0xffffffffffffffff\n        /* \"#utility.yul\":1440:1446   */\n      dup3\n        /* \"#utility.yul\":1437:1467   */\n      gt\n        /* \"#utility.yul\":1434:1490   */\n      iszero\n      tag_105\n      jumpi\n        /* \"#utility.yul\":1470:1488   */\n      tag_106\n      tag_64\n      jump\t// in\n    tag_106:\n        /* \"#utility.yul\":1434:1490   */\n    tag_105:\n        /* \"#utility.yul\":1508:1537   */\n      tag_107\n        /* \"#utility.yul\":1530:1536   */\n      dup3\n        /* \"#utility.yul\":1508:1537   */\n      tag_63\n      jump\t// in\n    tag_107:\n        /* \"#utility.yul\":1500:1537   */\n      swap1\n      pop\n        /* \"#utility.yul\":1592:1596   */\n      0x20\n        /* \"#utility.yul\":1586:1590   */\n      dup2\n        /* \"#utility.yul\":1582:1597   */\n      add\n        /* \"#utility.yul\":1574:1597   */\n      swap1\n      pop\n        /* \"#utility.yul\":1296:1604   */\n      swap2\n      swap1\n      pop\n      jump\t// out\n        /* \"#utility.yul\":1610:1764   */\n    tag_68:\n        /* \"#utility.yul\":1694:1700   */\n      dup3\n        /* \"#utility.yul\":1689:1692   */\n      dup2\n        /* \"#utility.yul\":1684:1687   */\n      dup4\n        /* \"#utility.yul\":1671:1701   */\n      calldatacopy\n        /* \"#utility.yul\":1756:1757   */\n      0x00\n        /* \"#utility.yul\":1747:1753   */\n      dup4\n        /* \"#utility.yul\":1742:1745   */\n      dup4\n        /* \"#utility.yul\":1738:1754   */\n      add\n        /* \"#utility.yul\":1731:1758   */\n      mstore\n        /* \"#utility.yul\":1610:1764   */\n      pop\n      pop\n      pop\n      jump\t// out\n        /* \"#utility.yul\":1770:2182   */\n    tag_69:\n        /* \"#utility.yul\":1848:1853   */\n      0x00\n        /* \"#utility.yul\":1873:1939   */\n      tag_110\n        /* \"#utility.yul\":1889:1938   */\n      tag_111\n        /* \"#utility.yul\":1931:1937   */\n      dup5\n        /* \"#utility.yul\":1889:1938   */\n      tag_67\n      jump\t// in\n    tag_111:\n        /* \"#utility.yul\":1873:1939   */\n      tag_66\n      jump\t// in\n    tag_110:\n        /* \"#utility.yul\":1864:1939   */\n      swap1\n      pop\n        /* \"#utility.yul\":1962:1968   */\n      dup3\n        /* \"#utility.yul\":1955:1960   */\n      dup2\n        /* \"#utility.yul\":1948:1969   */\n      mstore\n        /* \"#utility.yul\":2000:2004   */\n      0x20\n        /* \"#utility.yul\":1993:1998   */\n      dup2\n        /* \"#utility.yul\":1989:2005   */\n      add\n        /* \"#utility.yul\":2038:2041   */\n      dup5\n        /* \"#utility.yul\":2029:2035   */\n      dup5\n        /* \"#utility.yul\":2024:2027   */\n      dup5\n        /* \"#utility.yul\":2020:2036   */\n      add\n        /* \"#utility.yul\":2017:2042   */\n      gt\n        /* \"#utility.yul\":2014:2126   */\n      iszero\n      tag_112\n      jumpi\n        /* \"#utility.yul\":2045:2124   */\n      tag_113\n      tag_62\n      jump\t// in\n    tag_113:\n        /* \"#utility.yul\":2014:2126   */\n    tag_112:\n        /* \"#utility.yul\":2135:2176   */\n      tag_114\n        /* \"#utility.yul\":2169:2175   */\n      dup5\n        /* \"#utility.yul\":2164:2167   */\n      dup3\n        /* \"#utility.yul\":2159:2162   */\n      dup6\n        /* \"#utility.yul\":2135:2176   */\n      tag_68\n      jump\t// in\n    tag_114:\n        /* \"#utility.yul\":1854:2182   */\n      pop\n        /* \"#utility.yul\":1770:2182   */\n      swap4\n      swap3\n      pop\n      pop\n      pop\n      jump\t// out\n        /* \"#utility.yul\":2202:2542   */\n    tag_70:\n        /* \"#utility.yul\":2258:2263   */\n      0x00\n        /* \"#utility.yul\":2307:2310   */\n      dup3\n        /* \"#utility.yul\":2300:2304   */\n      0x1f\n        /* \"#utility.yul\":2292:2298   */\n      dup4\n        /* \"#utility.yul\":2288:2305   */\n      add\n        /* \"#utility.yul\":2284:2311   */\n      slt\n        /* \"#utility.yul\":2274:2396   */\n      tag_116\n      jumpi\n        /* \"#utility.yul\":2315:2394   */\n      tag_117\n      tag_61\n      jump\t// in\n    tag_117:\n        /* \"#utility.yul\":2274:2396   */\n    tag_116:\n        /* \"#utility.yul\":2432:2438   */\n      dup2\n        /* \"#utility.yul\":2419:2439   */\n      calldataload\n        /* \"#utility.yul\":2457:2536   */\n      tag_118\n        /* \"#utility.yul\":2532:2535   */\n      dup5\n        /* \"#utility.yul\":2524:2530   */\n      dup3\n        /* \"#utility.yul\":2517:2521   */\n      0x20\n        /* \"#utility.yul\":2509:2515   */\n      dup7\n        /* \"#utility.yul\":2505:2522   */\n      add\n        /* \"#utility.yul\":2457:2536   */\n      tag_69\n      jump\t// in\n    tag_118:\n        /* \"#utility.yul\":2448:2536   */\n      swap2\n      pop\n        /* \"#utility.yul\":2264:2542   */\n      pop\n        /* \"#utility.yul\":2202:2542   */\n      swap3\n      swap2\n      pop\n      pop\n      jump\t// out\n        /* \"#utility.yul\":2548:3057   */\n    tag_9:\n        /* \"#utility.yul\":2617:2623   */\n      0x00\n        /* \"#utility.yul\":2666:2668   */\n      0x20\n        /* \"#utility.yul\":2654:2663   */\n      dup3\n        /* \"#utility.yul\":2645:2652   */\n      dup5\n        /* \"#utility.yul\":2641:2664   */\n      sub\n        /* \"#utility.yul\":2637:2669   */\n      slt\n        /* \"#utility.yul\":2634:2753   */\n      iszero\n      tag_120\n      jumpi\n        /* \"#utility.yul\":2672:2751   */\n      tag_121\n      tag_59\n      jump\t// in\n    tag_121:\n        /* \"#utility.yul\":2634:2753   */\n    tag_120:\n        /* \"#utility.yul\":2820:2821   */\n      0x00\n        /* \"#utility.yul\":2809:2818   */\n      dup3\n        /* \"#utility.yul\":2805:2822   */\n      add\n        /* \"#utility.yul\":2792:2823   */\n      calldataload\n        /* \"#utility.yul\":2850:2868   */\n      0xffffffffffffffff\n        /* \"#utility.yul\":2842:2848   */\n      dup2\n        /* \"#utility.yul\":2839:2869   */\n      gt\n        /* \"#utility.yul\":2836:2953   */\n      iszero\n      tag_122\n      jumpi\n        /* \"#utility.yul\":2872:2951   */\n      tag_123\n      tag_60\n      jump\t// in\n    tag_123:\n        /* \"#utility.yul\":2836:2953   */\n    tag_122:\n        /* \"#utility.yul\":2977:3040   */\n      tag_124\n        /* \"#utility.yul\":3032:3039   */\n      dup5\n        /* \"#utility.yul\":3023:3029   */\n      dup3\n        /* \"#utility.yul\":3012:3021   */\n      dup6\n        /* \"#utility.yul\":3008:3030   */\n      add\n        /* \"#utility.yul\":2977:3040   */\n      tag_70\n      jump\t// in\n    tag_124:\n        /* \"#utility.yul\":2967:3040   */\n      swap2\n      pop\n        /* \"#utility.yul\":2763:3050   */\n      pop\n        /* \"#utility.yul\":2548:3057   */\n      swap3\n      swap2\n      pop\n      pop\n      jump\t// out\n        /* \"#utility.yul\":3063:3162   */\n    tag_71:\n        /* \"#utility.yul\":3115:3121   */\n      0x00\n        /* \"#utility.yul\":3149:3154   */\n      dup2\n        /* \"#utility.yul\":3143:3155   */\n      mload\n        /* \"#utility.yul\":3133:3155   */\n      swap1\n      pop\n        /* \"#utility.yul\":3063:3162   */\n      swap2\n      swap1\n      pop\n      jump\t// out\n        /* \"#utility.yul\":3168:3337   */\n    tag_72:\n        /* \"#utility.yul\":3252:3263   */\n      0x00\n        /* \"#utility.yul\":3286:3292   */\n      dup3\n        /* \"#utility.yul\":3281:3284   */\n      dup3\n        /* \"#utility.yul\":3274:3293   */\n      mstore\n        /* \"#utility.yul\":3326:3330   */\n      0x20\n        /* \"#utility.yul\":3321:3324   */\n      dup3\n        /* \"#utility.yul\":3317:3331   */\n      add\n        /* \"#utility.yul\":3302:3331   */\n      swap1\n      pop\n        /* \"#utility.yul\":3168:3337   */\n      swap3\n      swap2\n      pop\n      pop\n      jump\t// out\n        /* \"#utility.yul\":3343:3650   */\n    tag_73:\n        /* \"#utility.yul\":3411:3412   */\n      0x00\n        /* \"#utility.yul\":3421:3534   */\n    tag_128:\n        /* \"#utility.yul\":3435:3441   */\n      dup4\n        /* \"#utility.yul\":3432:3433   */\n      dup2\n        /* \"#utility.yul\":3429:3442   */\n      lt\n        /* \"#utility.yul\":3421:3534   */\n      iszero\n      tag_130\n      jumpi\n        /* \"#utility.yul\":3520:3521   */\n      dup1\n        /* \"#utility.yul\":3515:3518   */\n      dup3\n        /* \"#utility.yul\":3511:3522   */\n      add\n        /* \"#utility.yul\":3505:3523   */\n      mload\n        /* \"#utility.yul\":3501:3502   */\n      dup2\n        /* \"#utility.yul\":3496:3499   */\n      dup5\n        /* \"#utility.yul\":3492:3503   */\n      add\n        /* \"#utility.yul\":3485:3524   */\n      mstore\n        /* \"#utility.yul\":3457:3459   */\n      0x20\n        /* \"#utility.yul\":3454:3455   */\n      dup2\n        /* \"#utility.yul\":3450:3460   */\n      add\n        /* \"#utility.yul\":3445:3460   */\n      swap1\n      pop\n        /* \"#utility.yul\":3421:3534   */\n      jump(tag_128)\n    tag_130:\n        /* \"#utility.yul\":3552:3558   */\n      dup4\n        /* \"#utility.yul\":3549:3550   */\n      dup2\n        /* \"#utility.yul\":3546:3559   */\n      gt\n        /* \"#utility.yul\":3543:3644   */\n      iszero\n      tag_131\n      jumpi\n        /* \"#utility.yul\":3632:3633   */\n      0x00\n        /* \"#utility.yul\":3623:3629   */\n      dup5\n        /* \"#utility.yul\":3618:3621   */\n      dup5\n        /* \"#utility.yul\":3614:3630   */\n      add\n        /* \"#utility.yul\":3607:3634   */\n      mstore\n        /* \"#utility.yul\":3543:3644   */\n    tag_131:\n        /* \"#utility.yul\":3392:3650   */\n      pop\n        /* \"#utility.yul\":3343:3650   */\n      pop\n      pop\n      pop\n      jump\t// out\n        /* \"#utility.yul\":3656:4020   */\n    tag_74:\n        /* \"#utility.yul\":3744:3747   */\n      0x00\n        /* \"#utility.yul\":3772:3811   */\n      tag_133\n        /* \"#utility.yul\":3805:3810   */\n      dup3\n        /* \"#utility.yul\":3772:3811   */\n      tag_71\n      jump\t// in\n    tag_133:\n        /* \"#utility.yul\":3827:3898   */\n      tag_134\n        /* \"#utility.yul\":3891:3897   */\n      dup2\n        /* \"#utility.yul\":3886:3889   */\n      dup6\n        /* \"#utility.yul\":3827:3898   */\n      tag_72\n      jump\t// in\n    tag_134:\n        /* \"#utility.yul\":3820:3898   */\n      swap4\n      pop\n        /* \"#utility.yul\":3907:3959   */\n      tag_135\n        /* \"#utility.yul\":3952:3958   */\n      dup2\n        /* \"#utility.yul\":3947:3950   */\n      dup6\n        /* \"#utility.yul\":3940:3944   */\n      0x20\n        /* \"#utility.yul\":3933:3938   */\n      dup7\n        /* \"#utility.yul\":3929:3945   */\n      add\n        /* \"#utility.yul\":3907:3959   */\n      tag_73\n      jump\t// in\n    tag_135:\n        /* \"#utility.yul\":3984:4013   */\n      tag_136\n        /* \"#utility.yul\":4006:4012   */\n      dup2\n        /* \"#utility.yul\":3984:4013   */\n      tag_63\n      jump\t// in\n    tag_136:\n        /* \"#utility.yul\":3979:3982   */\n      dup5\n        /* \"#utility.yul\":3975:4014   */\n      add\n        /* \"#utility.yul\":3968:4014   */\n      swap2\n      pop\n        /* \"#utility.yul\":3748:4020   */\n      pop\n        /* \"#utility.yul\":3656:4020   */\n      swap3\n      swap2\n      pop\n      pop\n      jump\t// out\n        /* \"#utility.yul\":4026:4185   */\n    tag_75:\n        /* \"#utility.yul\":4100:4111   */\n      0x00\n        /* \"#utility.yul\":4134:4140   */\n      dup3\n        /* \"#utility.yul\":4129:4132   */\n      dup3\n        /* \"#utility.yul\":4122:4141   */\n      mstore\n        /* \"#utility.yul\":4174:4178   */\n      0x20\n        /* \"#utility.yul\":4169:4172   */\n      dup3\n        /* \"#utility.yul\":4165:4179   */\n      add\n        /* \"#utility.yul\":4150:4179   */\n      swap1\n      pop\n        /* \"#utility.yul\":4026:4185   */\n      swap3\n      swap2\n      pop\n      pop\n      jump\t// out\n        /* \"#utility.yul\":4191:4535   */\n    tag_76:\n        /* \"#utility.yul\":4269:4272   */\n      0x00\n        /* \"#utility.yul\":4297:4336   */\n      tag_139\n        /* \"#utility.yul\":4330:4335   */\n      dup3\n        /* \"#utility.yul\":4297:4336   */\n      tag_71\n      jump\t// in\n    tag_139:\n        /* \"#utility.yul\":4352:4413   */\n      tag_140\n        /* \"#utility.yul\":4406:4412   */\n      dup2\n        /* \"#utility.yul\":4401:4404   */\n      dup6\n        /* \"#utility.yul\":4352:4413   */\n      tag_75\n      jump\t// in\n    tag_140:\n        /* \"#utility.yul\":4345:4413   */\n      swap4\n      pop\n        /* \"#utility.yul\":4422:4474   */\n      tag_141\n        /* \"#utility.yul\":4467:4473   */\n      dup2\n        /* \"#utility.yul\":4462:4465   */\n      dup6\n        /* \"#utility.yul\":4455:4459   */\n      0x20\n        /* \"#utility.yul\":4448:4453   */\n      dup7\n        /* \"#utility.yul\":4444:4460   */\n      add\n        /* \"#utility.yul\":4422:4474   */\n      tag_73\n      jump\t// in\n    tag_141:\n        /* \"#utility.yul\":4499:4528   */\n      tag_142\n        /* \"#utility.yul\":4521:4527   */\n      dup2\n        /* \"#utility.yul\":4499:4528   */\n      tag_63\n      jump\t// in\n    tag_142:\n        /* \"#utility.yul\":4494:4497   */\n      dup5\n        /* \"#utility.yul\":4490:4529   */\n      add\n        /* \"#utility.yul\":4483:4529   */\n      swap2\n      pop\n        /* \"#utility.yul\":4273:4535   */\n      pop\n        /* \"#utility.yul\":4191:4535   */\n      swap3\n      swap2\n      pop\n      pop\n      jump\t// out\n        /* \"#utility.yul\":4541:4618   */\n    tag_77:\n        /* \"#utility.yul\":4578:4585   */\n      0x00\n        /* \"#utility.yul\":4607:4612   */\n      dup2\n        /* \"#utility.yul\":4596:4612   */\n      swap1\n      pop\n        /* \"#utility.yul\":4541:4618   */\n      swap2\n      swap1\n      pop\n      jump\t// out\n        /* \"#utility.yul\":4624:4732   */\n    tag_78:\n        /* \"#utility.yul\":4701:4725   */\n      tag_145\n        /* \"#utility.yul\":4719:4724   */\n      dup2\n        /* \"#utility.yul\":4701:4725   */\n      tag_77\n      jump\t// in\n    tag_145:\n        /* \"#utility.yul\":4696:4699   */\n      dup3\n        /* \"#utility.yul\":4689:4726   */\n      mstore\n        /* \"#utility.yul\":4624:4732   */\n      pop\n      pop\n      jump\t// out\n        /* \"#utility.yul\":4796:5648   */\n    tag_79:\n        /* \"#utility.yul\":4915:4918   */\n      0x00\n        /* \"#utility.yul\":4951:4955   */\n      0x60\n        /* \"#utility.yul\":4946:4949   */\n      dup4\n        /* \"#utility.yul\":4942:4956   */\n      add\n        /* \"#utility.yul\":5038:5042   */\n      0x00\n        /* \"#utility.yul\":5031:5036   */\n      dup4\n        /* \"#utility.yul\":5027:5043   */\n      add\n        /* \"#utility.yul\":5021:5044   */\n      mload\n        /* \"#utility.yul\":5091:5094   */\n      dup5\n        /* \"#utility.yul\":5085:5089   */\n      dup3\n        /* \"#utility.yul\":5081:5095   */\n      sub\n        /* \"#utility.yul\":5074:5078   */\n      0x00\n        /* \"#utility.yul\":5069:5072   */\n      dup7\n        /* \"#utility.yul\":5065:5079   */\n      add\n        /* \"#utility.yul\":5058:5096   */\n      mstore\n        /* \"#utility.yul\":5117:5190   */\n      tag_147\n        /* \"#utility.yul\":5185:5189   */\n      dup3\n        /* \"#utility.yul\":5171:5183   */\n      dup3\n        /* \"#utility.yul\":5117:5190   */\n      tag_76\n      jump\t// in\n    tag_147:\n        /* \"#utility.yul\":5109:5190   */\n      swap2\n      pop\n        /* \"#utility.yul\":4966:5201   */\n      pop\n        /* \"#utility.yul\":5283:5287   */\n      0x20\n        /* \"#utility.yul\":5276:5281   */\n      dup4\n        /* \"#utility.yul\":5272:5288   */\n      add\n        /* \"#utility.yul\":5266:5289   */\n      mload\n        /* \"#utility.yul\":5336:5339   */\n      dup5\n        /* \"#utility.yul\":5330:5334   */\n      dup3\n        /* \"#utility.yul\":5326:5340   */\n      sub\n        /* \"#utility.yul\":5319:5323   */\n      0x20\n        /* \"#utility.yul\":5314:5317   */\n      dup7\n        /* \"#utility.yul\":5310:5324   */\n      add\n        /* \"#utility.yul\":5303:5341   */\n      mstore\n        /* \"#utility.yul\":5362:5435   */\n      tag_148\n        /* \"#utility.yul\":5430:5434   */\n      dup3\n        /* \"#utility.yul\":5416:5428   */\n      dup3\n        /* \"#utility.yul\":5362:5435   */\n      tag_76\n      jump\t// in\n    tag_148:\n        /* \"#utility.yul\":5354:5435   */\n      swap2\n      pop\n        /* \"#utility.yul\":5211:5446   */\n      pop\n        /* \"#utility.yul\":5529:5533   */\n      0x40\n        /* \"#utility.yul\":5522:5527   */\n      dup4\n        /* \"#utility.yul\":5518:5534   */\n      add\n        /* \"#utility.yul\":5512:5535   */\n      mload\n        /* \"#utility.yul\":5548:5611   */\n      tag_149\n        /* \"#utility.yul\":5605:5609   */\n      0x40\n        /* \"#utility.yul\":5600:5603   */\n      dup7\n        /* \"#utility.yul\":5596:5610   */\n      add\n        /* \"#utility.yul\":5582:5594   */\n      dup3\n        /* \"#utility.yul\":5548:5611   */\n      tag_78\n      jump\t// in\n    tag_149:\n        /* \"#utility.yul\":5456:5621   */\n      pop\n        /* \"#utility.yul\":5638:5642   */\n      dup1\n        /* \"#utility.yul\":5631:5642   */\n      swap2\n      pop\n        /* \"#utility.yul\":4920:5648   */\n      pop\n        /* \"#utility.yul\":4796:5648   */\n      swap3\n      swap2\n      pop\n      pop\n      jump\t// out\n        /* \"#utility.yul\":5654:6228   */\n    tag_12:\n        /* \"#utility.yul\":5845:5849   */\n      0x00\n        /* \"#utility.yul\":5883:5885   */\n      0x40\n        /* \"#utility.yul\":5872:5881   */\n      dup3\n        /* \"#utility.yul\":5868:5886   */\n      add\n        /* \"#utility.yul\":5860:5886   */\n      swap1\n      pop\n        /* \"#utility.yul\":5932:5941   */\n      dup2\n        /* \"#utility.yul\":5926:5930   */\n      dup2\n        /* \"#utility.yul\":5922:5942   */\n      sub\n        /* \"#utility.yul\":5918:5919   */\n      0x00\n        /* \"#utility.yul\":5907:5916   */\n      dup4\n        /* \"#utility.yul\":5903:5920   */\n      add\n        /* \"#utility.yul\":5896:5943   */\n      mstore\n        /* \"#utility.yul\":5960:6038   */\n      tag_151\n        /* \"#utility.yul\":6033:6037   */\n      dup2\n        /* \"#utility.yul\":6024:6030   */\n      dup6\n        /* \"#utility.yul\":5960:6038   */\n      tag_74\n      jump\t// in\n    tag_151:\n        /* \"#utility.yul\":5952:6038   */\n      swap1\n      pop\n        /* \"#utility.yul\":6085:6094   */\n      dup2\n        /* \"#utility.yul\":6079:6083   */\n      dup2\n        /* \"#utility.yul\":6075:6095   */\n      sub\n        /* \"#utility.yul\":6070:6072   */\n      0x20\n        /* \"#utility.yul\":6059:6068   */\n      dup4\n        /* \"#utility.yul\":6055:6073   */\n      add\n        /* \"#utility.yul\":6048:6096   */\n      mstore\n        /* \"#utility.yul\":6113:6221   */\n      tag_152\n        /* \"#utility.yul\":6216:6220   */\n      dup2\n        /* \"#utility.yul\":6207:6213   */\n      dup5\n        /* \"#utility.yul\":6113:6221   */\n      tag_79\n      jump\t// in\n    tag_152:\n        /* \"#utility.yul\":6105:6221   */\n      swap1\n      pop\n        /* \"#utility.yul\":5654:6228   */\n      swap4\n      swap3\n      pop\n      pop\n      pop\n      jump\t// out\n        /* \"#utility.yul\":6234:6356   */\n    tag_80:\n        /* \"#utility.yul\":6307:6331   */\n      tag_154\n        /* \"#utility.yul\":6325:6330   */\n      dup2\n        /* \"#utility.yul\":6307:6331   */\n      tag_77\n      jump\t// in\n    tag_154:\n        /* \"#utility.yul\":6300:6305   */\n      dup2\n        /* \"#utility.yul\":6297:6332   */\n      eq\n        /* \"#utility.yul\":6287:6350   */\n      tag_155\n      jumpi\n        /* \"#utility.yul\":6346:6347   */\n      0x00\n        /* \"#utility.yul\":6343:6344   */\n      dup1\n        /* \"#utility.yul\":6336:6348   */\n      revert\n        /* \"#utility.yul\":6287:6350   */\n    tag_155:\n        /* \"#utility.yul\":6234:6356   */\n      pop\n      jump\t// out\n        /* \"#utility.yul\":6362:6501   */\n    tag_81:\n        /* \"#utility.yul\":6408:6413   */\n      0x00\n        /* \"#utility.yul\":6446:6452   */\n      dup2\n        /* \"#utility.yul\":6433:6453   */\n      calldataload\n        /* \"#utility.yul\":6424:6453   */\n      swap1\n      pop\n        /* \"#utility.yul\":6462:6495   */\n      tag_157\n        /* \"#utility.yul\":6489:6494   */\n      dup2\n        /* \"#utility.yul\":6462:6495   */\n      tag_80\n      jump\t// in\n    tag_157:\n        /* \"#utility.yul\":6362:6501   */\n      swap3\n      swap2\n      pop\n      pop\n      jump\t// out\n        /* \"#utility.yul\":6507:6836   */\n    tag_18:\n        /* \"#utility.yul\":6566:6572   */\n      0x00\n        /* \"#utility.yul\":6615:6617   */\n      0x20\n        /* \"#utility.yul\":6603:6612   */\n      dup3\n        /* \"#utility.yul\":6594:6601   */\n      dup5\n        /* \"#utility.yul\":6590:6613   */\n      sub\n        /* \"#utility.yul\":6586:6618   */\n      slt\n        /* \"#utility.yul\":6583:6702   */\n      iszero\n      tag_159\n      jumpi\n        /* \"#utility.yul\":6621:6700   */\n      tag_160\n      tag_59\n      jump\t// in\n    tag_160:\n        /* \"#utility.yul\":6583:6702   */\n    tag_159:\n        /* \"#utility.yul\":6741:6742   */\n      0x00\n        /* \"#utility.yul\":6766:6819   */\n      tag_161\n        /* \"#utility.yul\":6811:6818   */\n      dup5\n        /* \"#utility.yul\":6802:6808   */\n      dup3\n        /* \"#utility.yul\":6791:6800   */\n      dup6\n        /* \"#utility.yul\":6787:6809   */\n      add\n        /* \"#utility.yul\":6766:6819   */\n      tag_81\n      jump\t// in\n    tag_161:\n        /* \"#utility.yul\":6756:6819   */\n      swap2\n      pop\n        /* \"#utility.yul\":6712:6829   */\n      pop\n        /* \"#utility.yul\":6507:6836   */\n      swap3\n      swap2\n      pop\n      pop\n      jump\t// out\n        /* \"#utility.yul\":6842:6960   */\n    tag_82:\n        /* \"#utility.yul\":6929:6953   */\n      tag_163\n        /* \"#utility.yul\":6947:6952   */\n      dup2\n        /* \"#utility.yul\":6929:6953   */\n      tag_77\n      jump\t// in\n    tag_163:\n        /* \"#utility.yul\":6924:6927   */\n      dup3\n        /* \"#utility.yul\":6917:6954   */\n      mstore\n        /* \"#utility.yul\":6842:6960   */\n      pop\n      pop\n      jump\t// out\n        /* \"#utility.yul\":6966:7590   */\n    tag_21:\n        /* \"#utility.yul\":7155:7159   */\n      0x00\n        /* \"#utility.yul\":7193:7195   */\n      0x60\n        /* \"#utility.yul\":7182:7191   */\n      dup3\n        /* \"#utility.yul\":7178:7196   */\n      add\n        /* \"#utility.yul\":7170:7196   */\n      swap1\n      pop\n        /* \"#utility.yul\":7242:7251   */\n      dup2\n        /* \"#utility.yul\":7236:7240   */\n      dup2\n        /* \"#utility.yul\":7232:7252   */\n      sub\n        /* \"#utility.yul\":7228:7229   */\n      0x00\n        /* \"#utility.yul\":7217:7226   */\n      dup4\n        /* \"#utility.yul\":7213:7230   */\n      add\n        /* \"#utility.yul\":7206:7253   */\n      mstore\n        /* \"#utility.yul\":7270:7348   */\n      tag_165\n        /* \"#utility.yul\":7343:7347   */\n      dup2\n        /* \"#utility.yul\":7334:7340   */\n      dup7\n        /* \"#utility.yul\":7270:7348   */\n      tag_74\n      jump\t// in\n    tag_165:\n        /* \"#utility.yul\":7262:7348   */\n      swap1\n      pop\n        /* \"#utility.yul\":7395:7404   */\n      dup2\n        /* \"#utility.yul\":7389:7393   */\n      dup2\n        /* \"#utility.yul\":7385:7405   */\n      sub\n        /* \"#utility.yul\":7380:7382   */\n      0x20\n        /* \"#utility.yul\":7369:7378   */\n      dup4\n        /* \"#utility.yul\":7365:7383   */\n      add\n        /* \"#utility.yul\":7358:7406   */\n      mstore\n        /* \"#utility.yul\":7423:7501   */\n      tag_166\n        /* \"#utility.yul\":7496:7500   */\n      dup2\n        /* \"#utility.yul\":7487:7493   */\n      dup6\n        /* \"#utility.yul\":7423:7501   */\n      tag_74\n      jump\t// in\n    tag_166:\n        /* \"#utility.yul\":7415:7501   */\n      swap1\n      pop\n        /* \"#utility.yul\":7511:7583   */\n      tag_167\n        /* \"#utility.yul\":7579:7581   */\n      0x40\n        /* \"#utility.yul\":7568:7577   */\n      dup4\n        /* \"#utility.yul\":7564:7582   */\n      add\n        /* \"#utility.yul\":7555:7561   */\n      dup5\n        /* \"#utility.yul\":7511:7583   */\n      tag_82\n      jump\t// in\n    tag_167:\n        /* \"#utility.yul\":6966:7590   */\n      swap5\n      swap4\n      pop\n      pop\n      pop\n      pop\n      jump\t// out\n        /* \"#utility.yul\":7596:7722   */\n    tag_83:\n        /* \"#utility.yul\":7633:7640   */\n      0x00\n        /* \"#utility.yul\":7673:7715   */\n      0xffffffffffffffffffffffffffffffffffffffff\n        /* \"#utility.yul\":7666:7671   */\n      dup3\n        /* \"#utility.yul\":7662:7716   */\n      and\n        /* \"#utility.yul\":7651:7716   */\n      swap1\n      pop\n        /* \"#utility.yul\":7596:7722   */\n      swap2\n      swap1\n      pop\n      jump\t// out\n        /* \"#utility.yul\":7728:7824   */\n    tag_84:\n        /* \"#utility.yul\":7765:7772   */\n      0x00\n        /* \"#utility.yul\":7794:7818   */\n      tag_170\n        /* \"#utility.yul\":7812:7817   */\n      dup3\n        /* \"#utility.yul\":7794:7818   */\n      tag_83\n      jump\t// in\n    tag_170:\n        /* \"#utility.yul\":7783:7818   */\n      swap1\n      pop\n        /* \"#utility.yul\":7728:7824   */\n      swap2\n      swap1\n      pop\n      jump\t// out\n        /* \"#utility.yul\":7830:7948   */\n    tag_85:\n        /* \"#utility.yul\":7917:7941   */\n      tag_172\n        /* \"#utility.yul\":7935:7940   */\n      dup2\n        /* \"#utility.yul\":7917:7941   */\n      tag_84\n      jump\t// in\n    tag_172:\n        /* \"#utility.yul\":7912:7915   */\n      dup3\n        /* \"#utility.yul\":7905:7942   */\n      mstore\n        /* \"#utility.yul\":7830:7948   */\n      pop\n      pop\n      jump\t// out\n        /* \"#utility.yul\":7954:8176   */\n    tag_25:\n        /* \"#utility.yul\":8047:8051   */\n      0x00\n        /* \"#utility.yul\":8085:8087   */\n      0x20\n        /* \"#utility.yul\":8074:8083   */\n      dup3\n        /* \"#utility.yul\":8070:8088   */\n      add\n        /* \"#utility.yul\":8062:8088   */\n      swap1\n      pop\n        /* \"#utility.yul\":8098:8169   */\n      tag_174\n        /* \"#utility.yul\":8166:8167   */\n      0x00\n        /* \"#utility.yul\":8155:8164   */\n      dup4\n        /* \"#utility.yul\":8151:8168   */\n      add\n        /* \"#utility.yul\":8142:8148   */\n      dup5\n        /* \"#utility.yul\":8098:8169   */\n      tag_85\n      jump\t// in\n    tag_174:\n        /* \"#utility.yul\":7954:8176   */\n      swap3\n      swap2\n      pop\n      pop\n      jump\t// out\n        /* \"#utility.yul\":8182:8362   */\n    tag_86:\n        /* \"#utility.yul\":8230:8307   */\n      0x4e487b7100000000000000000000000000000000000000000000000000000000\n        /* \"#utility.yul\":8227:8228   */\n      0x00\n        /* \"#utility.yul\":8220:8308   */\n      mstore\n        /* \"#utility.yul\":8327:8331   */\n      0x22\n        /* \"#utility.yul\":8324:8325   */\n      0x04\n        /* \"#utility.yul\":8317:8332   */\n      mstore\n        /* \"#utility.yul\":8351:8355   */\n      0x24\n        /* \"#utility.yul\":8348:8349   */\n      0x00\n        /* \"#utility.yul\":8341:8356   */\n      revert\n        /* \"#utility.yul\":8368:8688   */\n    tag_27:\n        /* \"#utility.yul\":8412:8418   */\n      0x00\n        /* \"#utility.yul\":8449:8450   */\n      0x02\n        /* \"#utility.yul\":8443:8447   */\n      dup3\n        /* \"#utility.yul\":8439:8451   */\n      div\n        /* \"#utility.yul\":8429:8451   */\n      swap1\n      pop\n        /* \"#utility.yul\":8496:8497   */\n      0x01\n        /* \"#utility.yul\":8490:8494   */\n      dup3\n        /* \"#utility.yul\":8486:8498   */\n      and\n        /* \"#utility.yul\":8517:8535   */\n      dup1\n        /* \"#utility.yul\":8507:8588   */\n      tag_177\n      jumpi\n        /* \"#utility.yul\":8573:8577   */\n      0x7f\n        /* \"#utility.yul\":8565:8571   */\n      dup3\n        /* \"#utility.yul\":8561:8578   */\n      and\n        /* \"#utility.yul\":8551:8578   */\n      swap2\n      pop\n        /* \"#utility.yul\":8507:8588   */\n    tag_177:\n        /* \"#utility.yul\":8635:8637   */\n      0x20\n        /* \"#utility.yul\":8627:8633   */\n      dup3\n        /* \"#utility.yul\":8624:8638   */\n      lt\n        /* \"#utility.yul\":8604:8622   */\n      dup2\n        /* \"#utility.yul\":8601:8639   */\n      sub\n        /* \"#utility.yul\":8598:8682   */\n      tag_178\n      jumpi\n        /* \"#utility.yul\":8654:8672   */\n      tag_179\n      tag_86\n      jump\t// in\n    tag_179:\n        /* \"#utility.yul\":8598:8682   */\n    tag_178:\n        /* \"#utility.yul\":8419:8688   */\n      pop\n        /* \"#utility.yul\":8368:8688   */\n      swap2\n      swap1\n      pop\n      jump\t// out\n        /* \"#utility.yul\":8694:8875   */\n    tag_87:\n        /* \"#utility.yul\":8834:8867   */\n      0x4f6e6c792061646d696e2063616e20737461727420612063616d706169676e00\n        /* \"#utility.yul\":8830:8831   */\n      0x00\n        /* \"#utility.yul\":8822:8828   */\n      dup3\n        /* \"#utility.yul\":8818:8832   */\n      add\n        /* \"#utility.yul\":8811:8868   */\n      mstore\n        /* \"#utility.yul\":8694:8875   */\n      pop\n      jump\t// out\n        /* \"#utility.yul\":8881:9247   */\n    tag_88:\n        /* \"#utility.yul\":9023:9026   */\n      0x00\n        /* \"#utility.yul\":9044:9111   */\n      tag_182\n        /* \"#utility.yul\":9108:9110   */\n      0x1f\n        /* \"#utility.yul\":9103:9106   */\n      dup4\n        /* \"#utility.yul\":9044:9111   */\n      tag_72\n      jump\t// in\n    tag_182:\n        /* \"#utility.yul\":9037:9111   */\n      swap2\n      pop\n        /* \"#utility.yul\":9120:9213   */\n      tag_183\n        /* \"#utility.yul\":9209:9212   */\n      dup3\n        /* \"#utility.yul\":9120:9213   */\n      tag_87\n      jump\t// in\n    tag_183:\n        /* \"#utility.yul\":9238:9240   */\n      0x20\n        /* \"#utility.yul\":9233:9236   */\n      dup3\n        /* \"#utility.yul\":9229:9241   */\n      add\n        /* \"#utility.yul\":9222:9241   */\n      swap1\n      pop\n        /* \"#utility.yul\":8881:9247   */\n      swap2\n      swap1\n      pop\n      jump\t// out\n        /* \"#utility.yul\":9253:9672   */\n    tag_45:\n        /* \"#utility.yul\":9419:9423   */\n      0x00\n        /* \"#utility.yul\":9457:9459   */\n      0x20\n        /* \"#utility.yul\":9446:9455   */\n      dup3\n        /* \"#utility.yul\":9442:9460   */\n      add\n        /* \"#utility.yul\":9434:9460   */\n      swap1\n      pop\n        /* \"#utility.yul\":9506:9515   */\n      dup2\n        /* \"#utility.yul\":9500:9504   */\n      dup2\n        /* \"#utility.yul\":9496:9516   */\n      sub\n        /* \"#utility.yul\":9492:9493   */\n      0x00\n        /* \"#utility.yul\":9481:9490   */\n      dup4\n        /* \"#utility.yul\":9477:9494   */\n      add\n        /* \"#utility.yul\":9470:9517   */\n      mstore\n        /* \"#utility.yul\":9534:9665   */\n      tag_185\n        /* \"#utility.yul\":9660:9664   */\n      dup2\n        /* \"#utility.yul\":9534:9665   */\n      tag_88\n      jump\t// in\n    tag_185:\n        /* \"#utility.yul\":9526:9665   */\n      swap1\n      pop\n        /* \"#utility.yul\":9253:9672   */\n      swap2\n      swap1\n      pop\n      jump\t// out\n\n    auxdata: 0xa26469706673582212204f7f69449e3cf5d1d9f0c023595cb36f386d45be45ae09ab65b8efd29922155a64736f6c634300080d0033\n}\n",
				"bytecode": {
					"linkReferences": {},
					"object": "608060405234801561001057600080fd5b5033600260006101000a81548173ffffffffffffffffffffffffffffffffffffffff021916908373ffffffffffffffffffffffffffffffffffffffff160217905550610a12806100616000396000f3fe608060405234801561001057600080fd5b506004361061004c5760003560e01c80631d39e50914610051578063202e7be4146100825780633477ee2e1461009e578063f851a440146100d0575b600080fd5b61006b60048036038101906100669190610645565b6100ee565b6040516100799291906107d0565b60405180910390f35b61009c60048036038101906100979190610645565b6102e8565b005b6100b860048036038101906100b39190610833565b61037b565b6040516100c79392919061086f565b60405180910390f35b6100d86104c5565b6040516100e591906108f5565b60405180910390f35b6000818051602081018201805184825260208301602085012081835280955050505050506000915090508060000180546101279061093f565b80601f01602080910402602001604051908101604052809291908181526020018280546101539061093f565b80156101a05780601f10610175576101008083540402835291602001916101a0565b820191906000526020600020905b81548152906001019060200180831161018357829003601f168201915b505050505090806001016040518060600160405290816000820180546101c59061093f565b80601f01602080910402602001604051908101604052809291908181526020018280546101f19061093f565b801561023e5780601f106102135761010080835404028352916020019161023e565b820191906000526020600020905b81548152906001019060200180831161022157829003601f168201915b505050505081526020016001820180546102579061093f565b80601f01602080910402602001604051908101604052809291908181526020018280546102839061093f565b80156102d05780601f106102a5576101008083540402835291602001916102d0565b820191906000526020600020905b8154815290600101906020018083116102b357829003601f168201915b50505050508152602001600282015481525050905082565b600260009054906101000a900473ffffffffffffffffffffffffffffffffffffffff1673ffffffffffffffffffffffffffffffffffffffff163373ffffffffffffffffffffffffffffffffffffffff1614610378576040517f08c379a000000000000000000000000000000000000000000000000000000000815260040161036f906109bc565b60405180910390fd5b50565b6001818154811061038b57600080fd5b90600052602060002090600302016000915090508060000180546103ae9061093f565b80601f01602080910402602001604051908101604052809291908181526020018280546103da9061093f565b80156104275780601f106103fc57610100808354040283529160200191610427565b820191906000526020600020905b81548152906001019060200180831161040a57829003601f168201915b50505050509080600101805461043c9061093f565b80601f01602080910402602001604051908101604052809291908181526020018280546104689061093f565b80156104b55780601f1061048a576101008083540402835291602001916104b5565b820191906000526020600020905b81548152906001019060200180831161049857829003601f168201915b5050505050908060020154905083565b600260009054906101000a900473ffffffffffffffffffffffffffffffffffffffff1681565b6000604051905090565b600080fd5b600080fd5b600080fd5b600080fd5b6000601f19601f8301169050919050565b7f4e487b7100000000000000000000000000000000000000000000000000000000600052604160045260246000fd5b61055282610509565b810181811067ffffffffffffffff821117156105715761057061051a565b5b80604052505050565b60006105846104eb565b90506105908282610549565b919050565b600067ffffffffffffffff8211156105b0576105af61051a565b5b6105b982610509565b9050602081019050919050565b82818337600083830152505050565b60006105e86105e384610595565b61057a565b90508281526020810184848401111561060457610603610504565b5b61060f8482856105c6565b509392505050565b600082601f83011261062c5761062b6104ff565b5b813561063c8482602086016105d5565b91505092915050565b60006020828403121561065b5761065a6104f5565b5b600082013567ffffffffffffffff811115610679576106786104fa565b5b61068584828501610617565b91505092915050565b600081519050919050565b600082825260208201905092915050565b60005b838110156106c85780820151818401526020810190506106ad565b838111156106d7576000848401525b50505050565b60006106e88261068e565b6106f28185610699565b93506107028185602086016106aa565b61070b81610509565b840191505092915050565b600082825260208201905092915050565b60006107328261068e565b61073c8185610716565b935061074c8185602086016106aa565b61075581610509565b840191505092915050565b6000819050919050565b61077381610760565b82525050565b600060608301600083015184820360008601526107968282610727565b915050602083015184820360208601526107b08282610727565b91505060408301516107c5604086018261076a565b508091505092915050565b600060408201905081810360008301526107ea81856106dd565b905081810360208301526107fe8184610779565b90509392505050565b61081081610760565b811461081b57600080fd5b50565b60008135905061082d81610807565b92915050565b600060208284031215610849576108486104f5565b5b60006108578482850161081e565b91505092915050565b61086981610760565b82525050565b6000606082019050818103600083015261088981866106dd565b9050818103602083015261089d81856106dd565b90506108ac6040830184610860565b949350505050565b600073ffffffffffffffffffffffffffffffffffffffff82169050919050565b60006108df826108b4565b9050919050565b6108ef816108d4565b82525050565b600060208201905061090a60008301846108e6565b92915050565b7f4e487b7100000000000000000000000000000000000000000000000000000000600052602260045260246000fd5b6000600282049050600182168061095757607f821691505b60208210810361096a57610969610910565b5b50919050565b7f4f6e6c792061646d696e2063616e20737461727420612063616d706169676e00600082015250565b60006109a6601f83610699565b91506109b182610970565b602082019050919050565b600060208201905081810360008301526109d581610999565b905091905056fea26469706673582212204f7f69449e3cf5d1d9f0c023595cb36f386d45be45ae09ab65b8efd29922155a64736f6c634300080d0033",
					"opcodes": "PUSH1 0x80 PUSH1 0x40 MSTORE CALLVALUE DUP1 ISZERO PUSH2 0x10 JUMPI PUSH1 0x0 DUP1 REVERT JUMPDEST POP CALLER PUSH1 0x2 PUSH1 0x0 PUSH2 0x100 EXP DUP2 SLOAD DUP2 PUSH20 0xFFFFFFFFFFFFFFFFFFFFFFFFFFFFFFFFFFFFFFFF MUL NOT AND SWAP1 DUP4 PUSH20 0xFFFFFFFFFFFFFFFFFFFFFFFFFFFFFFFFFFFFFFFF AND MUL OR SWAP1 SSTORE POP PUSH2 0xA12 DUP1 PUSH2 0x61 PUSH1 0x0 CODECOPY PUSH1 0x0 RETURN INVALID PUSH1 0x80 PUSH1 0x40 MSTORE CALLVALUE DUP1 ISZERO PUSH2 0x10 JUMPI PUSH1 0x0 DUP1 REVERT JUMPDEST POP PUSH1 0x4 CALLDATASIZE LT PUSH2 0x4C JUMPI PUSH1 0x0 CALLDATALOAD PUSH1 0xE0 SHR DUP1 PUSH4 0x1D39E509 EQ PUSH2 0x51 JUMPI DUP1 PUSH4 0x202E7BE4 EQ PUSH2 0x82 JUMPI DUP1 PUSH4 0x3477EE2E EQ PUSH2 0x9E JUMPI DUP1 PUSH4 0xF851A440 EQ PUSH2 0xD0 JUMPI JUMPDEST PUSH1 0x0 DUP1 REVERT JUMPDEST PUSH2 0x6B PUSH1 0x4 DUP1 CALLDATASIZE SUB DUP2 ADD SWAP1 PUSH2 0x66 SWAP2 SWAP1 PUSH2 0x645 JUMP JUMPDEST PUSH2 0xEE JUMP JUMPDEST PUSH1 0x40 MLOAD PUSH2 0x79 SWAP3 SWAP2 SWAP1 PUSH2 0x7D0 JUMP JUMPDEST PUSH1 0x40 MLOAD DUP1 SWAP2 SUB SWAP1 RETURN JUMPDEST PUSH2 0x9C PUSH1 0x4 DUP1 CALLDATASIZE SUB DUP2 ADD SWAP1 PUSH2 0x97 SWAP2 SWAP1 PUSH2 0x645 JUMP JUMPDEST PUSH2 0x2E8 JUMP JUMPDEST STOP JUMPDEST PUSH2 0xB8 PUSH1 0x4 DUP1 CALLDATASIZE SUB DUP2 ADD SWAP1 PUSH2 0xB3 SWAP2 SWAP1 PUSH2 0x833 JUMP JUMPDEST PUSH2 0x37B JUMP JUMPDEST PUSH1 0x40 MLOAD PUSH2 0xC7 SWAP4 SWAP3 SWAP2 SWAP1 PUSH2 0x86F JUMP JUMPDEST PUSH1 0x40 MLOAD DUP1 SWAP2 SUB SWAP1 RETURN JUMPDEST PUSH2 0xD8 PUSH2 0x4C5 JUMP JUMPDEST PUSH1 0x40 MLOAD PUSH2 0xE5 SWAP2 SWAP1 PUSH2 0x8F5 JUMP JUMPDEST PUSH1 0x40 MLOAD DUP1 SWAP2 SUB SWAP1 RETURN JUMPDEST PUSH1 0x0 DUP2 DUP1 MLOAD PUSH1 0x20 DUP2 ADD DUP3 ADD DUP1 MLOAD DUP5 DUP3 MSTORE PUSH1 0x20 DUP4 ADD PUSH1 0x20 DUP6 ADD KECCAK256 DUP2 DUP4 MSTORE DUP1 SWAP6 POP POP POP POP POP POP PUSH1 0x0 SWAP2 POP SWAP1 POP DUP1 PUSH1 0x0 ADD DUP1 SLOAD PUSH2 0x127 SWAP1 PUSH2 0x93F JUMP JUMPDEST DUP1 PUSH1 0x1F ADD PUSH1 0x20 DUP1 SWAP2 DIV MUL PUSH1 0x20 ADD PUSH1 0x40 MLOAD SWAP1 DUP2 ADD PUSH1 0x40 MSTORE DUP1 SWAP3 SWAP2 SWAP1 DUP2 DUP2 MSTORE PUSH1 0x20 ADD DUP3 DUP1 SLOAD PUSH2 0x153 SWAP1 PUSH2 0x93F JUMP JUMPDEST DUP1 ISZERO PUSH2 0x1A0 JUMPI DUP1 PUSH1 0x1F LT PUSH2 0x175 JUMPI PUSH2 0x100 DUP1 DUP4 SLOAD DIV MUL DUP4 MSTORE SWAP2 PUSH1 0x20 ADD SWAP2 PUSH2 0x1A0 JUMP JUMPDEST DUP3 ADD SWAP2 SWAP1 PUSH1 0x0 MSTORE PUSH1 0x20 PUSH1 0x0 KECCAK256 SWAP1 JUMPDEST DUP2 SLOAD DUP2 MSTORE SWAP1 PUSH1 0x1 ADD SWAP1 PUSH1 0x20 ADD DUP1 DUP4 GT PUSH2 0x183 JUMPI DUP3 SWAP1 SUB PUSH1 0x1F AND DUP3 ADD SWAP2 JUMPDEST POP POP POP POP POP SWAP1 DUP1 PUSH1 0x1 ADD PUSH1 0x40 MLOAD DUP1 PUSH1 0x60 ADD PUSH1 0x40 MSTORE SWAP1 DUP2 PUSH1 0x0 DUP3 ADD DUP1 SLOAD PUSH2 0x1C5 SWAP1 PUSH2 0x93F JUMP JUMPDEST DUP1 PUSH1 0x1F ADD PUSH1 0x20 DUP1 SWAP2 DIV MUL PUSH1 0x20 ADD PUSH1 0x40 MLOAD SWAP1 DUP2 ADD PUSH1 0x40 MSTORE DUP1 SWAP3 SWAP2 SWAP1 DUP2 DUP2 MSTORE PUSH1 0x20 ADD DUP3 DUP1 SLOAD PUSH2 0x1F1 SWAP1 PUSH2 0x93F JUMP JUMPDEST DUP1 ISZERO PUSH2 0x23E JUMPI DUP1 PUSH1 0x1F LT PUSH2 0x213 JUMPI PUSH2 0x100 DUP1 DUP4 SLOAD DIV MUL DUP4 MSTORE SWAP2 PUSH1 0x20 ADD SWAP2 PUSH2 0x23E JUMP JUMPDEST DUP3 ADD SWAP2 SWAP1 PUSH1 0x0 MSTORE PUSH1 0x20 PUSH1 0x0 KECCAK256 SWAP1 JUMPDEST DUP2 SLOAD DUP2 MSTORE SWAP1 PUSH1 0x1 ADD SWAP1 PUSH1 0x20 ADD DUP1 DUP4 GT PUSH2 0x221 JUMPI DUP3 SWAP1 SUB PUSH1 0x1F AND DUP3 ADD SWAP2 JUMPDEST POP POP POP POP POP DUP2 MSTORE PUSH1 0x20 ADD PUSH1 0x1 DUP3 ADD DUP1 SLOAD PUSH2 0x257 SWAP1 PUSH2 0x93F JUMP JUMPDEST DUP1 PUSH1 0x1F ADD PUSH1 0x20 DUP1 SWAP2 DIV MUL PUSH1 0x20 ADD PUSH1 0x40 MLOAD SWAP1 DUP2 ADD PUSH1 0x40 MSTORE DUP1 SWAP3 SWAP2 SWAP1 DUP2 DUP2 MSTORE PUSH1 0x20 ADD DUP3 DUP1 SLOAD PUSH2 0x283 SWAP1 PUSH2 0x93F JUMP JUMPDEST DUP1 ISZERO PUSH2 0x2D0 JUMPI DUP1 PUSH1 0x1F LT PUSH2 0x2A5 JUMPI PUSH2 0x100 DUP1 DUP4 SLOAD DIV MUL DUP4 MSTORE SWAP2 PUSH1 0x20 ADD SWAP2 PUSH2 0x2D0 JUMP JUMPDEST DUP3 ADD SWAP2 SWAP1 PUSH1 0x0 MSTORE PUSH1 0x20 PUSH1 0x0 KECCAK256 SWAP1 JUMPDEST DUP2 SLOAD DUP2 MSTORE SWAP1 PUSH1 0x1 ADD SWAP1 PUSH1 0x20 ADD DUP1 DUP4 GT PUSH2 0x2B3 JUMPI DUP3 SWAP1 SUB PUSH1 0x1F AND DUP3 ADD SWAP2 JUMPDEST POP POP POP POP POP DUP2 MSTORE PUSH1 0x20 ADD PUSH1 0x2 DUP3 ADD SLOAD DUP2 MSTORE POP POP SWAP1 POP DUP3 JUMP JUMPDEST PUSH1 0x2 PUSH1 0x0 SWAP1 SLOAD SWAP1 PUSH2 0x100 EXP SWAP1 DIV PUSH20 0xFFFFFFFFFFFFFFFFFFFFFFFFFFFFFFFFFFFFFFFF AND PUSH20 0xFFFFFFFFFFFFFFFFFFFFFFFFFFFFFFFFFFFFFFFF AND CALLER PUSH20 0xFFFFFFFFFFFFFFFFFFFFFFFFFFFFFFFFFFFFFFFF AND EQ PUSH2 0x378 JUMPI PUSH1 0x40 MLOAD PUSH32 0x8C379A000000000000000000000000000000000000000000000000000000000 DUP2 MSTORE PUSH1 0x4 ADD PUSH2 0x36F SWAP1 PUSH2 0x9BC JUMP JUMPDEST PUSH1 0x40 MLOAD DUP1 SWAP2 SUB SWAP1 REVERT JUMPDEST POP JUMP JUMPDEST PUSH1 0x1 DUP2 DUP2 SLOAD DUP2 LT PUSH2 0x38B JUMPI PUSH1 0x0 DUP1 REVERT JUMPDEST SWAP1 PUSH1 0x0 MSTORE PUSH1 0x20 PUSH1 0x0 KECCAK256 SWAP1 PUSH1 0x3 MUL ADD PUSH1 0x0 SWAP2 POP SWAP1 POP DUP1 PUSH1 0x0 ADD DUP1 SLOAD PUSH2 0x3AE SWAP1 PUSH2 0x93F JUMP JUMPDEST DUP1 PUSH1 0x1F ADD PUSH1 0x20 DUP1 SWAP2 DIV MUL PUSH1 0x20 ADD PUSH1 0x40 MLOAD SWAP1 DUP2 ADD PUSH1 0x40 MSTORE DUP1 SWAP3 SWAP2 SWAP1 DUP2 DUP2 MSTORE PUSH1 0x20 ADD DUP3 DUP1 SLOAD PUSH2 0x3DA SWAP1 PUSH2 0x93F JUMP JUMPDEST DUP1 ISZERO PUSH2 0x427 JUMPI DUP1 PUSH1 0x1F LT PUSH2 0x3FC JUMPI PUSH2 0x100 DUP1 DUP4 SLOAD DIV MUL DUP4 MSTORE SWAP2 PUSH1 0x20 ADD SWAP2 PUSH2 0x427 JUMP JUMPDEST DUP3 ADD SWAP2 SWAP1 PUSH1 0x0 MSTORE PUSH1 0x20 PUSH1 0x0 KECCAK256 SWAP1 JUMPDEST DUP2 SLOAD DUP2 MSTORE SWAP1 PUSH1 0x1 ADD SWAP1 PUSH1 0x20 ADD DUP1 DUP4 GT PUSH2 0x40A JUMPI DUP3 SWAP1 SUB PUSH1 0x1F AND DUP3 ADD SWAP2 JUMPDEST POP POP POP POP POP SWAP1 DUP1 PUSH1 0x1 ADD DUP1 SLOAD PUSH2 0x43C SWAP1 PUSH2 0x93F JUMP JUMPDEST DUP1 PUSH1 0x1F ADD PUSH1 0x20 DUP1 SWAP2 DIV MUL PUSH1 0x20 ADD PUSH1 0x40 MLOAD SWAP1 DUP2 ADD PUSH1 0x40 MSTORE DUP1 SWAP3 SWAP2 SWAP1 DUP2 DUP2 MSTORE PUSH1 0x20 ADD DUP3 DUP1 SLOAD PUSH2 0x468 SWAP1 PUSH2 0x93F JUMP JUMPDEST DUP1 ISZERO PUSH2 0x4B5 JUMPI DUP1 PUSH1 0x1F LT PUSH2 0x48A JUMPI PUSH2 0x100 DUP1 DUP4 SLOAD DIV MUL DUP4 MSTORE SWAP2 PUSH1 0x20 ADD SWAP2 PUSH2 0x4B5 JUMP JUMPDEST DUP3 ADD SWAP2 SWAP1 PUSH1 0x0 MSTORE PUSH1 0x20 PUSH1 0x0 KECCAK256 SWAP1 JUMPDEST DUP2 SLOAD DUP2 MSTORE SWAP1 PUSH1 0x1 ADD SWAP1 PUSH1 0x20 ADD DUP1 DUP4 GT PUSH2 0x498 JUMPI DUP3 SWAP1 SUB PUSH1 0x1F AND DUP3 ADD SWAP2 JUMPDEST POP POP POP POP POP SWAP1 DUP1 PUSH1 0x2 ADD SLOAD SWAP1 POP DUP4 JUMP JUMPDEST PUSH1 0x2 PUSH1 0x0 SWAP1 SLOAD SWAP1 PUSH2 0x100 EXP SWAP1 DIV PUSH20 0xFFFFFFFFFFFFFFFFFFFFFFFFFFFFFFFFFFFFFFFF AND DUP2 JUMP JUMPDEST PUSH1 0x0 PUSH1 0x40 MLOAD SWAP1 POP SWAP1 JUMP JUMPDEST PUSH1 0x0 DUP1 REVERT JUMPDEST PUSH1 0x0 DUP1 REVERT JUMPDEST PUSH1 0x0 DUP1 REVERT JUMPDEST PUSH1 0x0 DUP1 REVERT JUMPDEST PUSH1 0x0 PUSH1 0x1F NOT PUSH1 0x1F DUP4 ADD AND SWAP1 POP SWAP2 SWAP1 POP JUMP JUMPDEST PUSH32 0x4E487B7100000000000000000000000000000000000000000000000000000000 PUSH1 0x0 MSTORE PUSH1 0x41 PUSH1 0x4 MSTORE PUSH1 0x24 PUSH1 0x0 REVERT JUMPDEST PUSH2 0x552 DUP3 PUSH2 0x509 JUMP JUMPDEST DUP2 ADD DUP2 DUP2 LT PUSH8 0xFFFFFFFFFFFFFFFF DUP3 GT OR ISZERO PUSH2 0x571 JUMPI PUSH2 0x570 PUSH2 0x51A JUMP JUMPDEST JUMPDEST DUP1 PUSH1 0x40 MSTORE POP POP POP JUMP JUMPDEST PUSH1 0x0 PUSH2 0x584 PUSH2 0x4EB JUMP JUMPDEST SWAP1 POP PUSH2 0x590 DUP3 DUP3 PUSH2 0x549 JUMP JUMPDEST SWAP2 SWAP1 POP JUMP JUMPDEST PUSH1 0x0 PUSH8 0xFFFFFFFFFFFFFFFF DUP3 GT ISZERO PUSH2 0x5B0 JUMPI PUSH2 0x5AF PUSH2 0x51A JUMP JUMPDEST JUMPDEST PUSH2 0x5B9 DUP3 PUSH2 0x509 JUMP JUMPDEST SWAP1 POP PUSH1 0x20 DUP2 ADD SWAP1 POP SWAP2 SWAP1 POP JUMP JUMPDEST DUP3 DUP2 DUP4 CALLDATACOPY PUSH1 0x0 DUP4 DUP4 ADD MSTORE POP POP POP JUMP JUMPDEST PUSH1 0x0 PUSH2 0x5E8 PUSH2 0x5E3 DUP5 PUSH2 0x595 JUMP JUMPDEST PUSH2 0x57A JUMP JUMPDEST SWAP1 POP DUP3 DUP2 MSTORE PUSH1 0x20 DUP2 ADD DUP5 DUP5 DUP5 ADD GT ISZERO PUSH2 0x604 JUMPI PUSH2 0x603 PUSH2 0x504 JUMP JUMPDEST JUMPDEST PUSH2 0x60F DUP5 DUP3 DUP6 PUSH2 0x5C6 JUMP JUMPDEST POP SWAP4 SWAP3 POP POP POP JUMP JUMPDEST PUSH1 0x0 DUP3 PUSH1 0x1F DUP4 ADD SLT PUSH2 0x62C JUMPI PUSH2 0x62B PUSH2 0x4FF JUMP JUMPDEST JUMPDEST DUP2 CALLDATALOAD PUSH2 0x63C DUP5 DUP3 PUSH1 0x20 DUP7 ADD PUSH2 0x5D5 JUMP JUMPDEST SWAP2 POP POP SWAP3 SWAP2 POP POP JUMP JUMPDEST PUSH1 0x0 PUSH1 0x20 DUP3 DUP5 SUB SLT ISZERO PUSH2 0x65B JUMPI PUSH2 0x65A PUSH2 0x4F5 JUMP JUMPDEST JUMPDEST PUSH1 0x0 DUP3 ADD CALLDATALOAD PUSH8 0xFFFFFFFFFFFFFFFF DUP2 GT ISZERO PUSH2 0x679 JUMPI PUSH2 0x678 PUSH2 0x4FA JUMP JUMPDEST JUMPDEST PUSH2 0x685 DUP5 DUP3 DUP6 ADD PUSH2 0x617 JUMP JUMPDEST SWAP2 POP POP SWAP3 SWAP2 POP POP JUMP JUMPDEST PUSH1 0x0 DUP2 MLOAD SWAP1 POP SWAP2 SWAP1 POP JUMP JUMPDEST PUSH1 0x0 DUP3 DUP3 MSTORE PUSH1 0x20 DUP3 ADD SWAP1 POP SWAP3 SWAP2 POP POP JUMP JUMPDEST PUSH1 0x0 JUMPDEST DUP4 DUP2 LT ISZERO PUSH2 0x6C8 JUMPI DUP1 DUP3 ADD MLOAD DUP2 DUP5 ADD MSTORE PUSH1 0x20 DUP2 ADD SWAP1 POP PUSH2 0x6AD JUMP JUMPDEST DUP4 DUP2 GT ISZERO PUSH2 0x6D7 JUMPI PUSH1 0x0 DUP5 DUP5 ADD MSTORE JUMPDEST POP POP POP POP JUMP JUMPDEST PUSH1 0x0 PUSH2 0x6E8 DUP3 PUSH2 0x68E JUMP JUMPDEST PUSH2 0x6F2 DUP2 DUP6 PUSH2 0x699 JUMP JUMPDEST SWAP4 POP PUSH2 0x702 DUP2 DUP6 PUSH1 0x20 DUP7 ADD PUSH2 0x6AA JUMP JUMPDEST PUSH2 0x70B DUP2 PUSH2 0x509 JUMP JUMPDEST DUP5 ADD SWAP2 POP POP SWAP3 SWAP2 POP POP JUMP JUMPDEST PUSH1 0x0 DUP3 DUP3 MSTORE PUSH1 0x20 DUP3 ADD SWAP1 POP SWAP3 SWAP2 POP POP JUMP JUMPDEST PUSH1 0x0 PUSH2 0x732 DUP3 PUSH2 0x68E JUMP JUMPDEST PUSH2 0x73C DUP2 DUP6 PUSH2 0x716 JUMP JUMPDEST SWAP4 POP PUSH2 0x74C DUP2 DUP6 PUSH1 0x20 DUP7 ADD PUSH2 0x6AA JUMP JUMPDEST PUSH2 0x755 DUP2 PUSH2 0x509 JUMP JUMPDEST DUP5 ADD SWAP2 POP POP SWAP3 SWAP2 POP POP JUMP JUMPDEST PUSH1 0x0 DUP2 SWAP1 POP SWAP2 SWAP1 POP JUMP JUMPDEST PUSH2 0x773 DUP2 PUSH2 0x760 JUMP JUMPDEST DUP3 MSTORE POP POP JUMP JUMPDEST PUSH1 0x0 PUSH1 0x60 DUP4 ADD PUSH1 0x0 DUP4 ADD MLOAD DUP5 DUP3 SUB PUSH1 0x0 DUP7 ADD MSTORE PUSH2 0x796 DUP3 DUP3 PUSH2 0x727 JUMP JUMPDEST SWAP2 POP POP PUSH1 0x20 DUP4 ADD MLOAD DUP5 DUP3 SUB PUSH1 0x20 DUP7 ADD MSTORE PUSH2 0x7B0 DUP3 DUP3 PUSH2 0x727 JUMP JUMPDEST SWAP2 POP POP PUSH1 0x40 DUP4 ADD MLOAD PUSH2 0x7C5 PUSH1 0x40 DUP7 ADD DUP3 PUSH2 0x76A JUMP JUMPDEST POP DUP1 SWAP2 POP POP SWAP3 SWAP2 POP POP JUMP JUMPDEST PUSH1 0x0 PUSH1 0x40 DUP3 ADD SWAP1 POP DUP2 DUP2 SUB PUSH1 0x0 DUP4 ADD MSTORE PUSH2 0x7EA DUP2 DUP6 PUSH2 0x6DD JUMP JUMPDEST SWAP1 POP DUP2 DUP2 SUB PUSH1 0x20 DUP4 ADD MSTORE PUSH2 0x7FE DUP2 DUP5 PUSH2 0x779 JUMP JUMPDEST SWAP1 POP SWAP4 SWAP3 POP POP POP JUMP JUMPDEST PUSH2 0x810 DUP2 PUSH2 0x760 JUMP JUMPDEST DUP2 EQ PUSH2 0x81B JUMPI PUSH1 0x0 DUP1 REVERT JUMPDEST POP JUMP JUMPDEST PUSH1 0x0 DUP2 CALLDATALOAD SWAP1 POP PUSH2 0x82D DUP2 PUSH2 0x807 JUMP JUMPDEST SWAP3 SWAP2 POP POP JUMP JUMPDEST PUSH1 0x0 PUSH1 0x20 DUP3 DUP5 SUB SLT ISZERO PUSH2 0x849 JUMPI PUSH2 0x848 PUSH2 0x4F5 JUMP JUMPDEST JUMPDEST PUSH1 0x0 PUSH2 0x857 DUP5 DUP3 DUP6 ADD PUSH2 0x81E JUMP JUMPDEST SWAP2 POP POP SWAP3 SWAP2 POP POP JUMP JUMPDEST PUSH2 0x869 DUP2 PUSH2 0x760 JUMP JUMPDEST DUP3 MSTORE POP POP JUMP JUMPDEST PUSH1 0x0 PUSH1 0x60 DUP3 ADD SWAP1 POP DUP2 DUP2 SUB PUSH1 0x0 DUP4 ADD MSTORE PUSH2 0x889 DUP2 DUP7 PUSH2 0x6DD JUMP JUMPDEST SWAP1 POP DUP2 DUP2 SUB PUSH1 0x20 DUP4 ADD MSTORE PUSH2 0x89D DUP2 DUP6 PUSH2 0x6DD JUMP JUMPDEST SWAP1 POP PUSH2 0x8AC PUSH1 0x40 DUP4 ADD DUP5 PUSH2 0x860 JUMP JUMPDEST SWAP5 SWAP4 POP POP POP POP JUMP JUMPDEST PUSH1 0x0 PUSH20 0xFFFFFFFFFFFFFFFFFFFFFFFFFFFFFFFFFFFFFFFF DUP3 AND SWAP1 POP SWAP2 SWAP1 POP JUMP JUMPDEST PUSH1 0x0 PUSH2 0x8DF DUP3 PUSH2 0x8B4 JUMP JUMPDEST SWAP1 POP SWAP2 SWAP1 POP JUMP JUMPDEST PUSH2 0x8EF DUP2 PUSH2 0x8D4 JUMP JUMPDEST DUP3 MSTORE POP POP JUMP JUMPDEST PUSH1 0x0 PUSH1 0x20 DUP3 ADD SWAP1 POP PUSH2 0x90A PUSH1 0x0 DUP4 ADD DUP5 PUSH2 0x8E6 JUMP JUMPDEST SWAP3 SWAP2 POP POP JUMP JUMPDEST PUSH32 0x4E487B7100000000000000000000000000000000000000000000000000000000 PUSH1 0x0 MSTORE PUSH1 0x22 PUSH1 0x4 MSTORE PUSH1 0x24 PUSH1 0x0 REVERT JUMPDEST PUSH1 0x0 PUSH1 0x2 DUP3 DIV SWAP1 POP PUSH1 0x1 DUP3 AND DUP1 PUSH2 0x957 JUMPI PUSH1 0x7F DUP3 AND SWAP2 POP JUMPDEST PUSH1 0x20 DUP3 LT DUP2 SUB PUSH2 0x96A JUMPI PUSH2 0x969 PUSH2 0x910 JUMP JUMPDEST JUMPDEST POP SWAP2 SWAP1 POP JUMP JUMPDEST PUSH32 0x4F6E6C792061646D696E2063616E20737461727420612063616D706169676E00 PUSH1 0x0 DUP3 ADD MSTORE POP JUMP JUMPDEST PUSH1 0x0 PUSH2 0x9A6 PUSH1 0x1F DUP4 PUSH2 0x699 JUMP JUMPDEST SWAP2 POP PUSH2 0x9B1 DUP3 PUSH2 0x970 JUMP JUMPDEST PUSH1 0x20 DUP3 ADD SWAP1 POP SWAP2 SWAP1 POP JUMP JUMPDEST PUSH1 0x0 PUSH1 0x20 DUP3 ADD SWAP1 POP DUP2 DUP2 SUB PUSH1 0x0 DUP4 ADD MSTORE PUSH2 0x9D5 DUP2 PUSH2 0x999 JUMP JUMPDEST SWAP1 POP SWAP2 SWAP1 POP JUMP INVALID LOG2 PUSH5 0x6970667358 0x22 SLT KECCAK256 0x4F PUSH32 0x69449E3CF5D1D9F0C023595CB36F386D45BE45AE09AB65B8EFD29922155A6473 PUSH16 0x6C634300080D00330000000000000000 "
				},
				"gasEstimates": {
					"creation": {
						"codeDepositCost": "515600",
						"executionCost": "24815",
						"totalCost": "540415"
					},
					"external": {
						"addCampaign(string)": "infinite",
						"admin()": "2558",
						"campaigns(string)": "infinite",
						"candidates(uint256)": "infinite"
					}
				},
				"methodIdentifiers": {
					"addCampaign(string)": "202e7be4",
					"admin()": "f851a440",
					"campaigns(string)": "1d39e509",
					"candidates(uint256)": "3477ee2e"
				}
			},
			"storageLayout": {
				"storage": [
					{
						"astId": 33,
						"contract": "github/fahadashiq/block-chain/smart-contracts/voting.sol:Voting",
						"label": "campaigns",
						"offset": 0,
						"slot": "0",
						"type": "t_mapping(t_string_memory_ptr,t_struct(Campaign)21_storage)"
					},
					{
						"astId": 37,
						"contract": "github/fahadashiq/block-chain/smart-contracts/voting.sol:Voting",
						"label": "candidates",
						"offset": 0,
						"slot": "1",
						"type": "t_array(t_struct(Candidate)28_storage)dyn_storage"
					},
					{
						"astId": 39,
						"contract": "github/fahadashiq/block-chain/smart-contracts/voting.sol:Voting",
						"label": "admin",
						"offset": 0,
						"slot": "2",
						"type": "t_address"
					}
				],
				"types": {
					"t_address": {
						"encoding": "inplace",
						"label": "address",
						"numberOfBytes": "20"
					},
					"t_array(t_struct(Candidate)28_storage)dyn_storage": {
						"base": "t_struct(Candidate)28_storage",
						"encoding": "dynamic_array",
						"label": "struct Voting.Candidate[]",
						"numberOfBytes": "32"
					},
					"t_mapping(t_string_memory_ptr,t_struct(Campaign)21_storage)": {
						"encoding": "mapping",
						"key": "t_string_memory_ptr",
						"label": "mapping(string => struct Voting.Campaign)",
						"numberOfBytes": "32",
						"value": "t_struct(Campaign)21_storage"
					},
					"t_string_memory_ptr": {
						"encoding": "bytes",
						"label": "string",
						"numberOfBytes": "32"
					},
					"t_string_storage": {
						"encoding": "bytes",
						"label": "string",
						"numberOfBytes": "32"
					},
					"t_struct(Campaign)21_storage": {
						"encoding": "inplace",
						"label": "struct Voting.Campaign",
						"members": [
							{
								"astId": 17,
								"contract": "github/fahadashiq/block-chain/smart-contracts/voting.sol:Voting",
								"label": "name",
								"offset": 0,
								"slot": "0",
								"type": "t_string_storage"
							},
							{
								"astId": 20,
								"contract": "github/fahadashiq/block-chain/smart-contracts/voting.sol:Voting",
								"label": "candidates",
								"offset": 0,
								"slot": "1",
								"type": "t_struct(Candidate)28_storage"
							}
						],
						"numberOfBytes": "128"
					},
					"t_struct(Candidate)28_storage": {
						"encoding": "inplace",
						"label": "struct Voting.Candidate",
						"members": [
							{
								"astId": 23,
								"contract": "github/fahadashiq/block-chain/smart-contracts/voting.sol:Voting",
								"label": "name",
								"offset": 0,
								"slot": "0",
								"type": "t_string_storage"
							},
							{
								"astId": 25,
								"contract": "github/fahadashiq/block-chain/smart-contracts/voting.sol:Voting",
								"label": "sign",
								"offset": 0,
								"slot": "1",
								"type": "t_string_storage"
							},
							{
								"astId": 27,
								"contract": "github/fahadashiq/block-chain/smart-contracts/voting.sol:Voting",
								"label": "votes",
								"offset": 0,
								"slot": "2",
								"type": "t_uint256"
							}
						],
						"numberOfBytes": "96"
					},
					"t_uint256": {
						"encoding": "inplace",
						"label": "uint256",
						"numberOfBytes": "32"
					}
				}
			},
			"userdoc": {
				"kind": "user",
				"methods": {},
				"version": 1
			}
		}
	}
}