{
	"github/fahadashiq/block-chain/smart-contracts/practice.sol": {
		"Trust": {
			"abi": [
				{
					"inputs": [
						{
							"internalType": "address",
							"name": "_kid",
							"type": "address"
						},
						{
							"internalType": "uint256",
							"name": "timeToMaturity",
							"type": "uint256"
						}
					],
					"stateMutability": "payable",
					"type": "constructor"
				},
				{
					"inputs": [],
					"name": "kid",
					"outputs": [
						{
							"internalType": "address",
							"name": "",
							"type": "address"
						}
					],
					"stateMutability": "view",
					"type": "function"
				},
				{
					"inputs": [],
					"name": "maturity",
					"outputs": [
						{
							"internalType": "uint256",
							"name": "",
							"type": "uint256"
						}
					],
					"stateMutability": "view",
					"type": "function"
				}
			],
			"devdoc": {
				"kind": "dev",
				"methods": {},
				"version": 1
			},
			"evm": {
				"assembly": "    /* \"github/fahadashiq/block-chain/smart-contracts/practice.sol\":28:254  contract Trust {\r... */\n  mstore(0x40, 0x80)\n    /* \"github/fahadashiq/block-chain/smart-contracts/practice.sol\":104:243  constructor(address _kid, uint timeToMaturity) payable {\r... */\n  mload(0x40)\n  sub(codesize, bytecodeSize)\n  dup1\n  bytecodeSize\n  dup4\n  codecopy\n  dup2\n  dup2\n  add\n  0x40\n  mstore\n  dup2\n  add\n  swap1\n  tag_1\n  swap2\n  swap1\n  tag_2\n  jump\t// in\ntag_1:\n    /* \"github/fahadashiq/block-chain/smart-contracts/practice.sol\":176:180  _kid */\n  dup2\n    /* \"github/fahadashiq/block-chain/smart-contracts/practice.sol\":170:173  kid */\n  0x00\n  dup1\n    /* \"github/fahadashiq/block-chain/smart-contracts/practice.sol\":170:180  kid = _kid */\n  0x0100\n  exp\n  dup2\n  sload\n  dup2\n  0xffffffffffffffffffffffffffffffffffffffff\n  mul\n  not\n  and\n  swap1\n  dup4\n  0xffffffffffffffffffffffffffffffffffffffff\n  and\n  mul\n  or\n  swap1\n  sstore\n  pop\n    /* \"github/fahadashiq/block-chain/smart-contracts/practice.sol\":221:235  timeToMaturity */\n  dup1\n    /* \"github/fahadashiq/block-chain/smart-contracts/practice.sol\":202:217  block.timestamp */\n  timestamp\n    /* \"github/fahadashiq/block-chain/smart-contracts/practice.sol\":202:235  block.timestamp +  timeToMaturity */\n  tag_5\n  swap2\n  swap1\n  tag_6\n  jump\t// in\ntag_5:\n    /* \"github/fahadashiq/block-chain/smart-contracts/practice.sol\":191:199  maturity */\n  0x01\n    /* \"github/fahadashiq/block-chain/smart-contracts/practice.sol\":191:235  maturity = block.timestamp +  timeToMaturity */\n  dup2\n  swap1\n  sstore\n  pop\n    /* \"github/fahadashiq/block-chain/smart-contracts/practice.sol\":104:243  constructor(address _kid, uint timeToMaturity) payable {\r... */\n  pop\n  pop\n    /* \"github/fahadashiq/block-chain/smart-contracts/practice.sol\":28:254  contract Trust {\r... */\n  jump(tag_7)\n    /* \"#utility.yul\":7:150   */\ntag_9:\n    /* \"#utility.yul\":64:69   */\n  0x00\n    /* \"#utility.yul\":95:101   */\n  dup2\n    /* \"#utility.yul\":89:102   */\n  mload\n    /* \"#utility.yul\":80:102   */\n  swap1\n  pop\n    /* \"#utility.yul\":111:144   */\n  tag_11\n    /* \"#utility.yul\":138:143   */\n  dup2\n    /* \"#utility.yul\":111:144   */\n  tag_12\n  jump\t// in\ntag_11:\n    /* \"#utility.yul\":7:150   */\n  swap3\n  swap2\n  pop\n  pop\n  jump\t// out\n    /* \"#utility.yul\":156:299   */\ntag_13:\n    /* \"#utility.yul\":213:218   */\n  0x00\n    /* \"#utility.yul\":244:250   */\n  dup2\n    /* \"#utility.yul\":238:251   */\n  mload\n    /* \"#utility.yul\":229:251   */\n  swap1\n  pop\n    /* \"#utility.yul\":260:293   */\n  tag_15\n    /* \"#utility.yul\":287:292   */\n  dup2\n    /* \"#utility.yul\":260:293   */\n  tag_16\n  jump\t// in\ntag_15:\n    /* \"#utility.yul\":156:299   */\n  swap3\n  swap2\n  pop\n  pop\n  jump\t// out\n    /* \"#utility.yul\":305:812   */\ntag_2:\n    /* \"#utility.yul\":384:390   */\n  0x00\n    /* \"#utility.yul\":392:398   */\n  dup1\n    /* \"#utility.yul\":441:443   */\n  0x40\n    /* \"#utility.yul\":429:438   */\n  dup4\n    /* \"#utility.yul\":420:427   */\n  dup6\n    /* \"#utility.yul\":416:439   */\n  sub\n    /* \"#utility.yul\":412:444   */\n  slt\n    /* \"#utility.yul\":409:528   */\n  iszero\n  tag_18\n  jumpi\n    /* \"#utility.yul\":447:526   */\n  tag_19\n  tag_20\n  jump\t// in\ntag_19:\n    /* \"#utility.yul\":409:528   */\ntag_18:\n    /* \"#utility.yul\":567:568   */\n  0x00\n    /* \"#utility.yul\":592:656   */\n  tag_21\n    /* \"#utility.yul\":648:655   */\n  dup6\n    /* \"#utility.yul\":639:645   */\n  dup3\n    /* \"#utility.yul\":628:637   */\n  dup7\n    /* \"#utility.yul\":624:646   */\n  add\n    /* \"#utility.yul\":592:656   */\n  tag_9\n  jump\t// in\ntag_21:\n    /* \"#utility.yul\":582:656   */\n  swap3\n  pop\n    /* \"#utility.yul\":538:666   */\n  pop\n    /* \"#utility.yul\":705:707   */\n  0x20\n    /* \"#utility.yul\":731:795   */\n  tag_22\n    /* \"#utility.yul\":787:794   */\n  dup6\n    /* \"#utility.yul\":778:784   */\n  dup3\n    /* \"#utility.yul\":767:776   */\n  dup7\n    /* \"#utility.yul\":763:785   */\n  add\n    /* \"#utility.yul\":731:795   */\n  tag_13\n  jump\t// in\ntag_22:\n    /* \"#utility.yul\":721:795   */\n  swap2\n  pop\n    /* \"#utility.yul\":676:805   */\n  pop\n    /* \"#utility.yul\":305:812   */\n  swap3\n  pop\n  swap3\n  swap1\n  pop\n  jump\t// out\n    /* \"#utility.yul\":899:1204   */\ntag_6:\n    /* \"#utility.yul\":939:942   */\n  0x00\n    /* \"#utility.yul\":958:978   */\n  tag_26\n    /* \"#utility.yul\":976:977   */\n  dup3\n    /* \"#utility.yul\":958:978   */\n  tag_27\n  jump\t// in\ntag_26:\n    /* \"#utility.yul\":953:978   */\n  swap2\n  pop\n    /* \"#utility.yul\":992:1012   */\n  tag_28\n    /* \"#utility.yul\":1010:1011   */\n  dup4\n    /* \"#utility.yul\":992:1012   */\n  tag_27\n  jump\t// in\ntag_28:\n    /* \"#utility.yul\":987:1012   */\n  swap3\n  pop\n    /* \"#utility.yul\":1146:1147   */\n  dup3\n    /* \"#utility.yul\":1078:1144   */\n  0xffffffffffffffffffffffffffffffffffffffffffffffffffffffffffffffff\n    /* \"#utility.yul\":1074:1148   */\n  sub\n    /* \"#utility.yul\":1071:1072   */\n  dup3\n    /* \"#utility.yul\":1068:1149   */\n  gt\n    /* \"#utility.yul\":1065:1172   */\n  iszero\n  tag_29\n  jumpi\n    /* \"#utility.yul\":1152:1170   */\n  tag_30\n  tag_31\n  jump\t// in\ntag_30:\n    /* \"#utility.yul\":1065:1172   */\ntag_29:\n    /* \"#utility.yul\":1196:1197   */\n  dup3\n    /* \"#utility.yul\":1193:1194   */\n  dup3\n    /* \"#utility.yul\":1189:1198   */\n  add\n    /* \"#utility.yul\":1182:1198   */\n  swap1\n  pop\n    /* \"#utility.yul\":899:1204   */\n  swap3\n  swap2\n  pop\n  pop\n  jump\t// out\n    /* \"#utility.yul\":1210:1306   */\ntag_32:\n    /* \"#utility.yul\":1247:1254   */\n  0x00\n    /* \"#utility.yul\":1276:1300   */\n  tag_34\n    /* \"#utility.yul\":1294:1299   */\n  dup3\n    /* \"#utility.yul\":1276:1300   */\n  tag_35\n  jump\t// in\ntag_34:\n    /* \"#utility.yul\":1265:1300   */\n  swap1\n  pop\n    /* \"#utility.yul\":1210:1306   */\n  swap2\n  swap1\n  pop\n  jump\t// out\n    /* \"#utility.yul\":1312:1438   */\ntag_35:\n    /* \"#utility.yul\":1349:1356   */\n  0x00\n    /* \"#utility.yul\":1389:1431   */\n  0xffffffffffffffffffffffffffffffffffffffff\n    /* \"#utility.yul\":1382:1387   */\n  dup3\n    /* \"#utility.yul\":1378:1432   */\n  and\n    /* \"#utility.yul\":1367:1432   */\n  swap1\n  pop\n    /* \"#utility.yul\":1312:1438   */\n  swap2\n  swap1\n  pop\n  jump\t// out\n    /* \"#utility.yul\":1444:1521   */\ntag_27:\n    /* \"#utility.yul\":1481:1488   */\n  0x00\n    /* \"#utility.yul\":1510:1515   */\n  dup2\n    /* \"#utility.yul\":1499:1515   */\n  swap1\n  pop\n    /* \"#utility.yul\":1444:1521   */\n  swap2\n  swap1\n  pop\n  jump\t// out\n    /* \"#utility.yul\":1527:1707   */\ntag_31:\n    /* \"#utility.yul\":1575:1652   */\n  0x4e487b7100000000000000000000000000000000000000000000000000000000\n    /* \"#utility.yul\":1572:1573   */\n  0x00\n    /* \"#utility.yul\":1565:1653   */\n  mstore\n    /* \"#utility.yul\":1672:1676   */\n  0x11\n    /* \"#utility.yul\":1669:1670   */\n  0x04\n    /* \"#utility.yul\":1662:1677   */\n  mstore\n    /* \"#utility.yul\":1696:1700   */\n  0x24\n    /* \"#utility.yul\":1693:1694   */\n  0x00\n    /* \"#utility.yul\":1686:1701   */\n  revert\n    /* \"#utility.yul\":1836:1953   */\ntag_20:\n    /* \"#utility.yul\":1945:1946   */\n  0x00\n    /* \"#utility.yul\":1942:1943   */\n  dup1\n    /* \"#utility.yul\":1935:1947   */\n  revert\n    /* \"#utility.yul\":1959:2081   */\ntag_12:\n    /* \"#utility.yul\":2032:2056   */\n  tag_43\n    /* \"#utility.yul\":2050:2055   */\n  dup2\n    /* \"#utility.yul\":2032:2056   */\n  tag_32\n  jump\t// in\ntag_43:\n    /* \"#utility.yul\":2025:2030   */\n  dup2\n    /* \"#utility.yul\":2022:2057   */\n  eq\n    /* \"#utility.yul\":2012:2075   */\n  tag_44\n  jumpi\n    /* \"#utility.yul\":2071:2072   */\n  0x00\n    /* \"#utility.yul\":2068:2069   */\n  dup1\n    /* \"#utility.yul\":2061:2073   */\n  revert\n    /* \"#utility.yul\":2012:2075   */\ntag_44:\n    /* \"#utility.yul\":1959:2081   */\n  pop\n  jump\t// out\n    /* \"#utility.yul\":2087:2209   */\ntag_16:\n    /* \"#utility.yul\":2160:2184   */\n  tag_46\n    /* \"#utility.yul\":2178:2183   */\n  dup2\n    /* \"#utility.yul\":2160:2184   */\n  tag_27\n  jump\t// in\ntag_46:\n    /* \"#utility.yul\":2153:2158   */\n  dup2\n    /* \"#utility.yul\":2150:2185   */\n  eq\n    /* \"#utility.yul\":2140:2203   */\n  tag_47\n  jumpi\n    /* \"#utility.yul\":2199:2200   */\n  0x00\n    /* \"#utility.yul\":2196:2197   */\n  dup1\n    /* \"#utility.yul\":2189:2201   */\n  revert\n    /* \"#utility.yul\":2140:2203   */\ntag_47:\n    /* \"#utility.yul\":2087:2209   */\n  pop\n  jump\t// out\n    /* \"github/fahadashiq/block-chain/smart-contracts/practice.sol\":28:254  contract Trust {\r... */\ntag_7:\n  dataSize(sub_0)\n  dup1\n  dataOffset(sub_0)\n  0x00\n  codecopy\n  0x00\n  return\nstop\n\nsub_0: assembly {\n        /* \"github/fahadashiq/block-chain/smart-contracts/practice.sol\":28:254  contract Trust {\r... */\n      mstore(0x40, 0x80)\n      callvalue\n      dup1\n      iszero\n      tag_1\n      jumpi\n      0x00\n      dup1\n      revert\n    tag_1:\n      pop\n      jumpi(tag_2, lt(calldatasize, 0x04))\n      shr(0xe0, calldataload(0x00))\n      dup1\n      0x204f83f9\n      eq\n      tag_3\n      jumpi\n      dup1\n      0xbfa51c49\n      eq\n      tag_4\n      jumpi\n    tag_2:\n      0x00\n      dup1\n      revert\n        /* \"github/fahadashiq/block-chain/smart-contracts/practice.sol\":75:95  uint public maturity */\n    tag_3:\n      tag_5\n      tag_6\n      jump\t// in\n    tag_5:\n      mload(0x40)\n      tag_7\n      swap2\n      swap1\n      tag_8\n      jump\t// in\n    tag_7:\n      mload(0x40)\n      dup1\n      swap2\n      sub\n      swap1\n      return\n        /* \"github/fahadashiq/block-chain/smart-contracts/practice.sol\":50:68  address public kid */\n    tag_4:\n      tag_9\n      tag_10\n      jump\t// in\n    tag_9:\n      mload(0x40)\n      tag_11\n      swap2\n      swap1\n      tag_12\n      jump\t// in\n    tag_11:\n      mload(0x40)\n      dup1\n      swap2\n      sub\n      swap1\n      return\n        /* \"github/fahadashiq/block-chain/smart-contracts/practice.sol\":75:95  uint public maturity */\n    tag_6:\n      sload(0x01)\n      dup2\n      jump\t// out\n        /* \"github/fahadashiq/block-chain/smart-contracts/practice.sol\":50:68  address public kid */\n    tag_10:\n      0x00\n      dup1\n      sload\n      swap1\n      0x0100\n      exp\n      swap1\n      div\n      0xffffffffffffffffffffffffffffffffffffffff\n      and\n      dup2\n      jump\t// out\n        /* \"#utility.yul\":7:125   */\n    tag_14:\n        /* \"#utility.yul\":94:118   */\n      tag_16\n        /* \"#utility.yul\":112:117   */\n      dup2\n        /* \"#utility.yul\":94:118   */\n      tag_17\n      jump\t// in\n    tag_16:\n        /* \"#utility.yul\":89:92   */\n      dup3\n        /* \"#utility.yul\":82:119   */\n      mstore\n        /* \"#utility.yul\":7:125   */\n      pop\n      pop\n      jump\t// out\n        /* \"#utility.yul\":131:249   */\n    tag_18:\n        /* \"#utility.yul\":218:242   */\n      tag_20\n        /* \"#utility.yul\":236:241   */\n      dup2\n        /* \"#utility.yul\":218:242   */\n      tag_21\n      jump\t// in\n    tag_20:\n        /* \"#utility.yul\":213:216   */\n      dup3\n        /* \"#utility.yul\":206:243   */\n      mstore\n        /* \"#utility.yul\":131:249   */\n      pop\n      pop\n      jump\t// out\n        /* \"#utility.yul\":255:477   */\n    tag_12:\n        /* \"#utility.yul\":348:352   */\n      0x00\n        /* \"#utility.yul\":386:388   */\n      0x20\n        /* \"#utility.yul\":375:384   */\n      dup3\n        /* \"#utility.yul\":371:389   */\n      add\n        /* \"#utility.yul\":363:389   */\n      swap1\n      pop\n        /* \"#utility.yul\":399:470   */\n      tag_23\n        /* \"#utility.yul\":467:468   */\n      0x00\n        /* \"#utility.yul\":456:465   */\n      dup4\n        /* \"#utility.yul\":452:469   */\n      add\n        /* \"#utility.yul\":443:449   */\n      dup5\n        /* \"#utility.yul\":399:470   */\n      tag_14\n      jump\t// in\n    tag_23:\n        /* \"#utility.yul\":255:477   */\n      swap3\n      swap2\n      pop\n      pop\n      jump\t// out\n        /* \"#utility.yul\":483:705   */\n    tag_8:\n        /* \"#utility.yul\":576:580   */\n      0x00\n        /* \"#utility.yul\":614:616   */\n      0x20\n        /* \"#utility.yul\":603:612   */\n      dup3\n        /* \"#utility.yul\":599:617   */\n      add\n        /* \"#utility.yul\":591:617   */\n      swap1\n      pop\n        /* \"#utility.yul\":627:698   */\n      tag_25\n        /* \"#utility.yul\":695:696   */\n      0x00\n        /* \"#utility.yul\":684:693   */\n      dup4\n        /* \"#utility.yul\":680:697   */\n      add\n        /* \"#utility.yul\":671:677   */\n      dup5\n        /* \"#utility.yul\":627:698   */\n      tag_18\n      jump\t// in\n    tag_25:\n        /* \"#utility.yul\":483:705   */\n      swap3\n      swap2\n      pop\n      pop\n      jump\t// out\n        /* \"#utility.yul\":711:807   */\n    tag_17:\n        /* \"#utility.yul\":748:755   */\n      0x00\n        /* \"#utility.yul\":777:801   */\n      tag_27\n        /* \"#utility.yul\":795:800   */\n      dup3\n        /* \"#utility.yul\":777:801   */\n      tag_28\n      jump\t// in\n    tag_27:\n        /* \"#utility.yul\":766:801   */\n      swap1\n      pop\n        /* \"#utility.yul\":711:807   */\n      swap2\n      swap1\n      pop\n      jump\t// out\n        /* \"#utility.yul\":813:939   */\n    tag_28:\n        /* \"#utility.yul\":850:857   */\n      0x00\n        /* \"#utility.yul\":890:932   */\n      0xffffffffffffffffffffffffffffffffffffffff\n        /* \"#utility.yul\":883:888   */\n      dup3\n        /* \"#utility.yul\":879:933   */\n      and\n        /* \"#utility.yul\":868:933   */\n      swap1\n      pop\n        /* \"#utility.yul\":813:939   */\n      swap2\n      swap1\n      pop\n      jump\t// out\n        /* \"#utility.yul\":945:1022   */\n    tag_21:\n        /* \"#utility.yul\":982:989   */\n      0x00\n        /* \"#utility.yul\":1011:1016   */\n      dup2\n        /* \"#utility.yul\":1000:1016   */\n      swap1\n      pop\n        /* \"#utility.yul\":945:1022   */\n      swap2\n      swap1\n      pop\n      jump\t// out\n\n    auxdata: 0xa26469706673582212203e3f7bef8e102877177d9cdc16a99dac76238b07deb4b06c17a724047a5093ac64736f6c63430008070033\n}\n",
				"bytecode": {
					"linkReferences": {},
					"object": "6080604052604051610352380380610352833981810160405281019061002591906100a8565b816000806101000a81548173ffffffffffffffffffffffffffffffffffffffff021916908373ffffffffffffffffffffffffffffffffffffffff160217905550804261007191906100e8565b60018190555050506101dc565b60008151905061008d816101ae565b92915050565b6000815190506100a2816101c5565b92915050565b600080604083850312156100bf576100be6101a9565b5b60006100cd8582860161007e565b92505060206100de85828601610093565b9150509250929050565b60006100f382610170565b91506100fe83610170565b9250827fffffffffffffffffffffffffffffffffffffffffffffffffffffffffffffffff038211156101335761013261017a565b5b828201905092915050565b600061014982610150565b9050919050565b600073ffffffffffffffffffffffffffffffffffffffff82169050919050565b6000819050919050565b7f4e487b7100000000000000000000000000000000000000000000000000000000600052601160045260246000fd5b600080fd5b6101b78161013e565b81146101c257600080fd5b50565b6101ce81610170565b81146101d957600080fd5b50565b610167806101eb6000396000f3fe608060405234801561001057600080fd5b50600436106100365760003560e01c8063204f83f91461003b578063bfa51c4914610059575b600080fd5b610043610077565b60405161005091906100da565b60405180910390f35b61006161007d565b60405161006e91906100bf565b60405180910390f35b60015481565b60008054906101000a900473ffffffffffffffffffffffffffffffffffffffff1681565b6100aa816100f5565b82525050565b6100b981610127565b82525050565b60006020820190506100d460008301846100a1565b92915050565b60006020820190506100ef60008301846100b0565b92915050565b600061010082610107565b9050919050565b600073ffffffffffffffffffffffffffffffffffffffff82169050919050565b600081905091905056fea26469706673582212203e3f7bef8e102877177d9cdc16a99dac76238b07deb4b06c17a724047a5093ac64736f6c63430008070033",
					"opcodes": "PUSH1 0x80 PUSH1 0x40 MSTORE PUSH1 0x40 MLOAD PUSH2 0x352 CODESIZE SUB DUP1 PUSH2 0x352 DUP4 CODECOPY DUP2 DUP2 ADD PUSH1 0x40 MSTORE DUP2 ADD SWAP1 PUSH2 0x25 SWAP2 SWAP1 PUSH2 0xA8 JUMP JUMPDEST DUP2 PUSH1 0x0 DUP1 PUSH2 0x100 EXP DUP2 SLOAD DUP2 PUSH20 0xFFFFFFFFFFFFFFFFFFFFFFFFFFFFFFFFFFFFFFFF MUL NOT AND SWAP1 DUP4 PUSH20 0xFFFFFFFFFFFFFFFFFFFFFFFFFFFFFFFFFFFFFFFF AND MUL OR SWAP1 SSTORE POP DUP1 TIMESTAMP PUSH2 0x71 SWAP2 SWAP1 PUSH2 0xE8 JUMP JUMPDEST PUSH1 0x1 DUP2 SWAP1 SSTORE POP POP POP PUSH2 0x1DC JUMP JUMPDEST PUSH1 0x0 DUP2 MLOAD SWAP1 POP PUSH2 0x8D DUP2 PUSH2 0x1AE JUMP JUMPDEST SWAP3 SWAP2 POP POP JUMP JUMPDEST PUSH1 0x0 DUP2 MLOAD SWAP1 POP PUSH2 0xA2 DUP2 PUSH2 0x1C5 JUMP JUMPDEST SWAP3 SWAP2 POP POP JUMP JUMPDEST PUSH1 0x0 DUP1 PUSH1 0x40 DUP4 DUP6 SUB SLT ISZERO PUSH2 0xBF JUMPI PUSH2 0xBE PUSH2 0x1A9 JUMP JUMPDEST JUMPDEST PUSH1 0x0 PUSH2 0xCD DUP6 DUP3 DUP7 ADD PUSH2 0x7E JUMP JUMPDEST SWAP3 POP POP PUSH1 0x20 PUSH2 0xDE DUP6 DUP3 DUP7 ADD PUSH2 0x93 JUMP JUMPDEST SWAP2 POP POP SWAP3 POP SWAP3 SWAP1 POP JUMP JUMPDEST PUSH1 0x0 PUSH2 0xF3 DUP3 PUSH2 0x170 JUMP JUMPDEST SWAP2 POP PUSH2 0xFE DUP4 PUSH2 0x170 JUMP JUMPDEST SWAP3 POP DUP3 PUSH32 0xFFFFFFFFFFFFFFFFFFFFFFFFFFFFFFFFFFFFFFFFFFFFFFFFFFFFFFFFFFFFFFFF SUB DUP3 GT ISZERO PUSH2 0x133 JUMPI PUSH2 0x132 PUSH2 0x17A JUMP JUMPDEST JUMPDEST DUP3 DUP3 ADD SWAP1 POP SWAP3 SWAP2 POP POP JUMP JUMPDEST PUSH1 0x0 PUSH2 0x149 DUP3 PUSH2 0x150 JUMP JUMPDEST SWAP1 POP SWAP2 SWAP1 POP JUMP JUMPDEST PUSH1 0x0 PUSH20 0xFFFFFFFFFFFFFFFFFFFFFFFFFFFFFFFFFFFFFFFF DUP3 AND SWAP1 POP SWAP2 SWAP1 POP JUMP JUMPDEST PUSH1 0x0 DUP2 SWAP1 POP SWAP2 SWAP1 POP JUMP JUMPDEST PUSH32 0x4E487B7100000000000000000000000000000000000000000000000000000000 PUSH1 0x0 MSTORE PUSH1 0x11 PUSH1 0x4 MSTORE PUSH1 0x24 PUSH1 0x0 REVERT JUMPDEST PUSH1 0x0 DUP1 REVERT JUMPDEST PUSH2 0x1B7 DUP2 PUSH2 0x13E JUMP JUMPDEST DUP2 EQ PUSH2 0x1C2 JUMPI PUSH1 0x0 DUP1 REVERT JUMPDEST POP JUMP JUMPDEST PUSH2 0x1CE DUP2 PUSH2 0x170 JUMP JUMPDEST DUP2 EQ PUSH2 0x1D9 JUMPI PUSH1 0x0 DUP1 REVERT JUMPDEST POP JUMP JUMPDEST PUSH2 0x167 DUP1 PUSH2 0x1EB PUSH1 0x0 CODECOPY PUSH1 0x0 RETURN INVALID PUSH1 0x80 PUSH1 0x40 MSTORE CALLVALUE DUP1 ISZERO PUSH2 0x10 JUMPI PUSH1 0x0 DUP1 REVERT JUMPDEST POP PUSH1 0x4 CALLDATASIZE LT PUSH2 0x36 JUMPI PUSH1 0x0 CALLDATALOAD PUSH1 0xE0 SHR DUP1 PUSH4 0x204F83F9 EQ PUSH2 0x3B JUMPI DUP1 PUSH4 0xBFA51C49 EQ PUSH2 0x59 JUMPI JUMPDEST PUSH1 0x0 DUP1 REVERT JUMPDEST PUSH2 0x43 PUSH2 0x77 JUMP JUMPDEST PUSH1 0x40 MLOAD PUSH2 0x50 SWAP2 SWAP1 PUSH2 0xDA JUMP JUMPDEST PUSH1 0x40 MLOAD DUP1 SWAP2 SUB SWAP1 RETURN JUMPDEST PUSH2 0x61 PUSH2 0x7D JUMP JUMPDEST PUSH1 0x40 MLOAD PUSH2 0x6E SWAP2 SWAP1 PUSH2 0xBF JUMP JUMPDEST PUSH1 0x40 MLOAD DUP1 SWAP2 SUB SWAP1 RETURN JUMPDEST PUSH1 0x1 SLOAD DUP2 JUMP JUMPDEST PUSH1 0x0 DUP1 SLOAD SWAP1 PUSH2 0x100 EXP SWAP1 DIV PUSH20 0xFFFFFFFFFFFFFFFFFFFFFFFFFFFFFFFFFFFFFFFF AND DUP2 JUMP JUMPDEST PUSH2 0xAA DUP2 PUSH2 0xF5 JUMP JUMPDEST DUP3 MSTORE POP POP JUMP JUMPDEST PUSH2 0xB9 DUP2 PUSH2 0x127 JUMP JUMPDEST DUP3 MSTORE POP POP JUMP JUMPDEST PUSH1 0x0 PUSH1 0x20 DUP3 ADD SWAP1 POP PUSH2 0xD4 PUSH1 0x0 DUP4 ADD DUP5 PUSH2 0xA1 JUMP JUMPDEST SWAP3 SWAP2 POP POP JUMP JUMPDEST PUSH1 0x0 PUSH1 0x20 DUP3 ADD SWAP1 POP PUSH2 0xEF PUSH1 0x0 DUP4 ADD DUP5 PUSH2 0xB0 JUMP JUMPDEST SWAP3 SWAP2 POP POP JUMP JUMPDEST PUSH1 0x0 PUSH2 0x100 DUP3 PUSH2 0x107 JUMP JUMPDEST SWAP1 POP SWAP2 SWAP1 POP JUMP JUMPDEST PUSH1 0x0 PUSH20 0xFFFFFFFFFFFFFFFFFFFFFFFFFFFFFFFFFFFFFFFF DUP3 AND SWAP1 POP SWAP2 SWAP1 POP JUMP JUMPDEST PUSH1 0x0 DUP2 SWAP1 POP SWAP2 SWAP1 POP JUMP INVALID LOG2 PUSH5 0x6970667358 0x22 SLT KECCAK256 RETURNDATACOPY EXTCODEHASH PUSH28 0xEF8E102877177D9CDC16A99DAC76238B07DEB4B06C17A724047A5093 0xAC PUSH5 0x736F6C6343 STOP ADDMOD SMOD STOP CALLER "
				},
				"gasEstimates": {
					"creation": {
						"codeDepositCost": "71800",
						"executionCost": "infinite",
						"totalCost": "infinite"
					},
					"external": {
						"kid()": "2511",
						"maturity()": "2407"
					}
				},
				"methodIdentifiers": {
					"kid()": "bfa51c49",
					"maturity()": "204f83f9"
				}
			},
			"storageLayout": {
				"storage": [
					{
						"astId": 3,
						"contract": "github/fahadashiq/block-chain/smart-contracts/practice.sol:Trust",
						"label": "kid",
						"offset": 0,
						"slot": "0",
						"type": "t_address"
					},
					{
						"astId": 5,
						"contract": "github/fahadashiq/block-chain/smart-contracts/practice.sol:Trust",
						"label": "maturity",
						"offset": 0,
						"slot": "1",
						"type": "t_uint256"
					}
				],
				"types": {
					"t_address": {
						"encoding": "inplace",
						"label": "address",
						"numberOfBytes": "20"
					},
					"t_uint256": {
						"encoding": "inplace",
						"label": "uint256",
						"numberOfBytes": "32"
					}
				}
			},
			"userdoc": {
				"kind": "user",
				"methods": {},
				"version": 1
			}
		}
	}
}