{
	"github/fahadashiq/block-chain/smart-contracts/voting.sol": {
		"Voting": {
			"abi": [
				{
					"inputs": [],
					"stateMutability": "nonpayable",
					"type": "constructor"
				},
				{
					"inputs": [
						{
							"internalType": "string",
							"name": "campaignName",
							"type": "string"
						}
					],
					"name": "addCampaign",
					"outputs": [],
					"stateMutability": "nonpayable",
					"type": "function"
				},
				{
					"inputs": [],
					"name": "admin",
					"outputs": [
						{
							"internalType": "address",
							"name": "",
							"type": "address"
						}
					],
					"stateMutability": "view",
					"type": "function"
				},
				{
					"inputs": [
						{
							"internalType": "string",
							"name": "",
							"type": "string"
						}
					],
					"name": "campaigns",
					"outputs": [
						{
							"internalType": "string",
							"name": "name",
							"type": "string"
						}
					],
					"stateMutability": "view",
					"type": "function"
				},
				{
					"inputs": [
						{
							"internalType": "uint256",
							"name": "",
							"type": "uint256"
						}
					],
					"name": "candidates",
					"outputs": [
						{
							"internalType": "string",
							"name": "name",
							"type": "string"
						},
						{
							"internalType": "string",
							"name": "sign",
							"type": "string"
						},
						{
							"internalType": "uint256",
							"name": "votes",
							"type": "uint256"
						}
					],
					"stateMutability": "view",
					"type": "function"
				},
				{
					"inputs": [],
					"name": "getAllCampaigns",
					"outputs": [
						{
							"components": [
								{
									"internalType": "string",
									"name": "name",
									"type": "string"
								},
								{
									"components": [
										{
											"internalType": "string",
											"name": "name",
											"type": "string"
										},
										{
											"internalType": "string",
											"name": "sign",
											"type": "string"
										},
										{
											"internalType": "uint256",
											"name": "votes",
											"type": "uint256"
										}
									],
									"internalType": "struct Voting.Candidate[]",
									"name": "candidates",
									"type": "tuple[]"
								}
							],
							"internalType": "struct Voting.Campaign",
							"name": "",
							"type": "tuple"
						}
					],
					"stateMutability": "view",
					"type": "function"
				}
			],
			"devdoc": {
				"kind": "dev",
				"methods": {},
				"version": 1
			},
			"evm": {
				"assembly": "    /* \"github/fahadashiq/block-chain/smart-contracts/voting.sol\":109:2776  contract Voting {... */\n  mstore(0x40, 0x80)\n    /* \"github/fahadashiq/block-chain/smart-contracts/voting.sol\":784:835  constructor() {... */\n  callvalue\n  dup1\n  iszero\n  tag_1\n  jumpi\n  0x00\n  dup1\n  revert\ntag_1:\n  pop\n    /* \"github/fahadashiq/block-chain/smart-contracts/voting.sol\":817:827  msg.sender */\n  caller\n    /* \"github/fahadashiq/block-chain/smart-contracts/voting.sol\":809:814  admin */\n  0x02\n  0x00\n    /* \"github/fahadashiq/block-chain/smart-contracts/voting.sol\":809:827  admin = msg.sender */\n  0x0100\n  exp\n  dup2\n  sload\n  dup2\n  0xffffffffffffffffffffffffffffffffffffffff\n  mul\n  not\n  and\n  swap1\n  dup4\n  0xffffffffffffffffffffffffffffffffffffffff\n  and\n  mul\n  or\n  swap1\n  sstore\n  pop\n    /* \"github/fahadashiq/block-chain/smart-contracts/voting.sol\":109:2776  contract Voting {... */\n  dataSize(sub_0)\n  dup1\n  dataOffset(sub_0)\n  0x00\n  codecopy\n  0x00\n  return\nstop\n\nsub_0: assembly {\n        /* \"github/fahadashiq/block-chain/smart-contracts/voting.sol\":109:2776  contract Voting {... */\n      mstore(0x40, 0x80)\n      callvalue\n      dup1\n      iszero\n      tag_1\n      jumpi\n      0x00\n      dup1\n      revert\n    tag_1:\n      pop\n      jumpi(tag_2, lt(calldatasize, 0x04))\n      shr(0xe0, calldataload(0x00))\n      dup1\n      0x1d39e509\n      eq\n      tag_3\n      jumpi\n      dup1\n      0x202e7be4\n      eq\n      tag_4\n      jumpi\n      dup1\n      0x3477ee2e\n      eq\n      tag_5\n      jumpi\n      dup1\n      0x86cdf604\n      eq\n      tag_6\n      jumpi\n      dup1\n      0xf851a440\n      eq\n      tag_7\n      jumpi\n    tag_2:\n      0x00\n      dup1\n      revert\n        /* \"github/fahadashiq/block-chain/smart-contracts/voting.sol\":654:698  mapping(string => Campaign) public campaigns */\n    tag_3:\n      tag_8\n      0x04\n      dup1\n      calldatasize\n      sub\n      dup2\n      add\n      swap1\n      tag_9\n      swap2\n      swap1\n      tag_10\n      jump\t// in\n    tag_9:\n      tag_11\n      jump\t// in\n    tag_8:\n      mload(0x40)\n      tag_12\n      swap2\n      swap1\n      tag_13\n      jump\t// in\n    tag_12:\n      mload(0x40)\n      dup1\n      swap2\n      sub\n      swap1\n      return\n        /* \"github/fahadashiq/block-chain/smart-contracts/voting.sol\":845:1879  function addCampaign(string memory campaignName) public {... */\n    tag_4:\n      tag_14\n      0x04\n      dup1\n      calldatasize\n      sub\n      dup2\n      add\n      swap1\n      tag_15\n      swap2\n      swap1\n      tag_10\n      jump\t// in\n    tag_15:\n      tag_16\n      jump\t// in\n    tag_14:\n      stop\n        /* \"github/fahadashiq/block-chain/smart-contracts/voting.sol\":715:744  Candidate[] public candidates */\n    tag_5:\n      tag_17\n      0x04\n      dup1\n      calldatasize\n      sub\n      dup2\n      add\n      swap1\n      tag_18\n      swap2\n      swap1\n      tag_19\n      jump\t// in\n    tag_18:\n      tag_20\n      jump\t// in\n    tag_17:\n      mload(0x40)\n      tag_21\n      swap4\n      swap3\n      swap2\n      swap1\n      tag_22\n      jump\t// in\n    tag_21:\n      mload(0x40)\n      dup1\n      swap2\n      sub\n      swap1\n      return\n        /* \"github/fahadashiq/block-chain/smart-contracts/voting.sol\":1888:1993  function getAllCampaigns()public view returns(Campaign memory){... */\n    tag_6:\n      tag_23\n      tag_24\n      jump\t// in\n    tag_23:\n      mload(0x40)\n      tag_25\n      swap2\n      swap1\n      tag_26\n      jump\t// in\n    tag_25:\n      mload(0x40)\n      dup1\n      swap2\n      sub\n      swap1\n      return\n        /* \"github/fahadashiq/block-chain/smart-contracts/voting.sol\":755:775  address public admin */\n    tag_7:\n      tag_27\n      tag_28\n      jump\t// in\n    tag_27:\n      mload(0x40)\n      tag_29\n      swap2\n      swap1\n      tag_30\n      jump\t// in\n    tag_29:\n      mload(0x40)\n      dup1\n      swap2\n      sub\n      swap1\n      return\n        /* \"github/fahadashiq/block-chain/smart-contracts/voting.sol\":654:698  mapping(string => Campaign) public campaigns */\n    tag_11:\n      0x00\n      dup2\n      dup1\n      mload\n      0x20\n      dup2\n      add\n      dup3\n      add\n      dup1\n      mload\n      dup5\n      dup3\n      mstore\n      0x20\n      dup4\n      add\n      0x20\n      dup6\n      add\n      keccak256\n      dup2\n      dup4\n      mstore\n      dup1\n      swap6\n      pop\n      pop\n      pop\n      pop\n      pop\n      pop\n      0x00\n      swap2\n      pop\n      swap1\n      pop\n      dup1\n      0x00\n      add\n      dup1\n      sload\n      tag_31\n      swap1\n      tag_32\n      jump\t// in\n    tag_31:\n      dup1\n      0x1f\n      add\n      0x20\n      dup1\n      swap2\n      div\n      mul\n      0x20\n      add\n      mload(0x40)\n      swap1\n      dup2\n      add\n      0x40\n      mstore\n      dup1\n      swap3\n      swap2\n      swap1\n      dup2\n      dup2\n      mstore\n      0x20\n      add\n      dup3\n      dup1\n      sload\n      tag_33\n      swap1\n      tag_32\n      jump\t// in\n    tag_33:\n      dup1\n      iszero\n      tag_34\n      jumpi\n      dup1\n      0x1f\n      lt\n      tag_35\n      jumpi\n      0x0100\n      dup1\n      dup4\n      sload\n      div\n      mul\n      dup4\n      mstore\n      swap2\n      0x20\n      add\n      swap2\n      jump(tag_34)\n    tag_35:\n      dup3\n      add\n      swap2\n      swap1\n      0x00\n      mstore\n      keccak256(0x00, 0x20)\n      swap1\n    tag_36:\n      dup2\n      sload\n      dup2\n      mstore\n      swap1\n      0x01\n      add\n      swap1\n      0x20\n      add\n      dup1\n      dup4\n      gt\n      tag_36\n      jumpi\n      dup3\n      swap1\n      sub\n      0x1f\n      and\n      dup3\n      add\n      swap2\n    tag_34:\n      pop\n      pop\n      pop\n      pop\n      pop\n      swap1\n      pop\n      dup2\n      jump\t// out\n        /* \"github/fahadashiq/block-chain/smart-contracts/voting.sol\":845:1879  function addCampaign(string memory campaignName) public {... */\n    tag_16:\n        /* \"github/fahadashiq/block-chain/smart-contracts/voting.sol\":934:939  admin */\n      0x02\n      0x00\n      swap1\n      sload\n      swap1\n      0x0100\n      exp\n      swap1\n      div\n      0xffffffffffffffffffffffffffffffffffffffff\n      and\n        /* \"github/fahadashiq/block-chain/smart-contracts/voting.sol\":920:939  msg.sender == admin */\n      0xffffffffffffffffffffffffffffffffffffffff\n      and\n        /* \"github/fahadashiq/block-chain/smart-contracts/voting.sol\":920:930  msg.sender */\n      caller\n        /* \"github/fahadashiq/block-chain/smart-contracts/voting.sol\":920:939  msg.sender == admin */\n      0xffffffffffffffffffffffffffffffffffffffff\n      and\n      eq\n        /* \"github/fahadashiq/block-chain/smart-contracts/voting.sol\":912:975  require(msg.sender == admin, 'Only admin can start a campaign') */\n      tag_38\n      jumpi\n      mload(0x40)\n      0x08c379a000000000000000000000000000000000000000000000000000000000\n      dup2\n      mstore\n      0x04\n      add\n      tag_39\n      swap1\n      tag_40\n      jump\t// in\n    tag_39:\n      mload(0x40)\n      dup1\n      swap2\n      sub\n      swap1\n      revert\n    tag_38:\n        /* \"github/fahadashiq/block-chain/smart-contracts/voting.sol\":1379:1400  Campaign storage comp */\n      0x00\n        /* \"github/fahadashiq/block-chain/smart-contracts/voting.sol\":1403:1412  campaigns */\n      dup1\n        /* \"github/fahadashiq/block-chain/smart-contracts/voting.sol\":1413:1425  campaignName */\n      dup3\n        /* \"github/fahadashiq/block-chain/smart-contracts/voting.sol\":1403:1426  campaigns[campaignName] */\n      mload(0x40)\n      tag_41\n      swap2\n      swap1\n      tag_42\n      jump\t// in\n    tag_41:\n      swap1\n      dup2\n      mstore\n      0x20\n      add\n      mload(0x40)\n      dup1\n      swap2\n      sub\n      swap1\n      keccak256\n        /* \"github/fahadashiq/block-chain/smart-contracts/voting.sol\":1379:1426  Campaign storage comp = campaigns[campaignName] */\n      swap1\n      pop\n        /* \"github/fahadashiq/block-chain/smart-contracts/voting.sol\":1449:1461  campaignName */\n      dup2\n        /* \"github/fahadashiq/block-chain/smart-contracts/voting.sol\":1437:1441  comp */\n      dup2\n        /* \"github/fahadashiq/block-chain/smart-contracts/voting.sol\":1437:1446  comp.name */\n      0x00\n      add\n        /* \"github/fahadashiq/block-chain/smart-contracts/voting.sol\":1437:1461  comp.name = campaignName */\n      swap1\n      dup1\n      mload\n      swap1\n      0x20\n      add\n      swap1\n      tag_43\n      swap3\n      swap2\n      swap1\n      tag_44\n      jump\t// in\n    tag_43:\n      pop\n        /* \"github/fahadashiq/block-chain/smart-contracts/voting.sol\":1544:1548  comp */\n      dup1\n        /* \"github/fahadashiq/block-chain/smart-contracts/voting.sol\":1544:1559  comp.candidates */\n      0x01\n      add\n        /* \"github/fahadashiq/block-chain/smart-contracts/voting.sol\":1565:1597  Candidate('name-1', 'sign-1', 0) */\n      mload(0x40)\n      dup1\n      0x60\n      add\n      0x40\n      mstore\n      dup1\n      mload(0x40)\n      dup1\n      0x40\n      add\n      0x40\n      mstore\n      dup1\n      0x06\n      dup2\n      mstore\n      0x20\n      add\n      0x6e616d652d310000000000000000000000000000000000000000000000000000\n      dup2\n      mstore\n      pop\n      dup2\n      mstore\n      0x20\n      add\n      mload(0x40)\n      dup1\n      0x40\n      add\n      0x40\n      mstore\n      dup1\n      0x06\n      dup2\n      mstore\n      0x20\n      add\n      0x7369676e2d310000000000000000000000000000000000000000000000000000\n      dup2\n      mstore\n      pop\n      dup2\n      mstore\n      0x20\n      add\n        /* \"github/fahadashiq/block-chain/smart-contracts/voting.sol\":1595:1596  0 */\n      0x00\n        /* \"github/fahadashiq/block-chain/smart-contracts/voting.sol\":1565:1597  Candidate('name-1', 'sign-1', 0) */\n      dup2\n      mstore\n      pop\n        /* \"github/fahadashiq/block-chain/smart-contracts/voting.sol\":1544:1598  comp.candidates.push(Candidate('name-1', 'sign-1', 0)) */\n      swap1\n      dup1\n      0x01\n      dup2\n      sload\n      add\n      dup1\n      dup3\n      sstore\n      dup1\n      swap2\n      pop\n      pop\n      0x01\n      swap1\n      sub\n      swap1\n      0x00\n      mstore\n      keccak256(0x00, 0x20)\n      swap1\n      0x03\n      mul\n      add\n      0x00\n      swap1\n      swap2\n      swap1\n      swap2\n      swap1\n      swap2\n      pop\n      0x00\n      dup3\n      add\n      mload\n      dup2\n      0x00\n      add\n      swap1\n      dup1\n      mload\n      swap1\n      0x20\n      add\n      swap1\n      tag_46\n      swap3\n      swap2\n      swap1\n      tag_44\n      jump\t// in\n    tag_46:\n      pop\n      0x20\n      dup3\n      add\n      mload\n      dup2\n      0x01\n      add\n      swap1\n      dup1\n      mload\n      swap1\n      0x20\n      add\n      swap1\n      tag_47\n      swap3\n      swap2\n      swap1\n      tag_44\n      jump\t// in\n    tag_47:\n      pop\n      0x40\n      dup3\n      add\n      mload\n      dup2\n      0x02\n      add\n      sstore\n      pop\n      pop\n        /* \"github/fahadashiq/block-chain/smart-contracts/voting.sol\":901:1879  {... */\n      pop\n        /* \"github/fahadashiq/block-chain/smart-contracts/voting.sol\":845:1879  function addCampaign(string memory campaignName) public {... */\n      pop\n      jump\t// out\n        /* \"github/fahadashiq/block-chain/smart-contracts/voting.sol\":715:744  Candidate[] public candidates */\n    tag_20:\n      0x01\n      dup2\n      dup2\n      sload\n      dup2\n      lt\n      tag_48\n      jumpi\n      0x00\n      dup1\n      revert\n    tag_48:\n      swap1\n      0x00\n      mstore\n      keccak256(0x00, 0x20)\n      swap1\n      0x03\n      mul\n      add\n      0x00\n      swap2\n      pop\n      swap1\n      pop\n      dup1\n      0x00\n      add\n      dup1\n      sload\n      tag_50\n      swap1\n      tag_32\n      jump\t// in\n    tag_50:\n      dup1\n      0x1f\n      add\n      0x20\n      dup1\n      swap2\n      div\n      mul\n      0x20\n      add\n      mload(0x40)\n      swap1\n      dup2\n      add\n      0x40\n      mstore\n      dup1\n      swap3\n      swap2\n      swap1\n      dup2\n      dup2\n      mstore\n      0x20\n      add\n      dup3\n      dup1\n      sload\n      tag_51\n      swap1\n      tag_32\n      jump\t// in\n    tag_51:\n      dup1\n      iszero\n      tag_52\n      jumpi\n      dup1\n      0x1f\n      lt\n      tag_53\n      jumpi\n      0x0100\n      dup1\n      dup4\n      sload\n      div\n      mul\n      dup4\n      mstore\n      swap2\n      0x20\n      add\n      swap2\n      jump(tag_52)\n    tag_53:\n      dup3\n      add\n      swap2\n      swap1\n      0x00\n      mstore\n      keccak256(0x00, 0x20)\n      swap1\n    tag_54:\n      dup2\n      sload\n      dup2\n      mstore\n      swap1\n      0x01\n      add\n      swap1\n      0x20\n      add\n      dup1\n      dup4\n      gt\n      tag_54\n      jumpi\n      dup3\n      swap1\n      sub\n      0x1f\n      and\n      dup3\n      add\n      swap2\n    tag_52:\n      pop\n      pop\n      pop\n      pop\n      pop\n      swap1\n      dup1\n      0x01\n      add\n      dup1\n      sload\n      tag_55\n      swap1\n      tag_32\n      jump\t// in\n    tag_55:\n      dup1\n      0x1f\n      add\n      0x20\n      dup1\n      swap2\n      div\n      mul\n      0x20\n      add\n      mload(0x40)\n      swap1\n      dup2\n      add\n      0x40\n      mstore\n      dup1\n      swap3\n      swap2\n      swap1\n      dup2\n      dup2\n      mstore\n      0x20\n      add\n      dup3\n      dup1\n      sload\n      tag_56\n      swap1\n      tag_32\n      jump\t// in\n    tag_56:\n      dup1\n      iszero\n      tag_57\n      jumpi\n      dup1\n      0x1f\n      lt\n      tag_58\n      jumpi\n      0x0100\n      dup1\n      dup4\n      sload\n      div\n      mul\n      dup4\n      mstore\n      swap2\n      0x20\n      add\n      swap2\n      jump(tag_57)\n    tag_58:\n      dup3\n      add\n      swap2\n      swap1\n      0x00\n      mstore\n      keccak256(0x00, 0x20)\n      swap1\n    tag_59:\n      dup2\n      sload\n      dup2\n      mstore\n      swap1\n      0x01\n      add\n      swap1\n      0x20\n      add\n      dup1\n      dup4\n      gt\n      tag_59\n      jumpi\n      dup3\n      swap1\n      sub\n      0x1f\n      and\n      dup3\n      add\n      swap2\n    tag_57:\n      pop\n      pop\n      pop\n      pop\n      pop\n      swap1\n      dup1\n      0x02\n      add\n      sload\n      swap1\n      pop\n      dup4\n      jump\t// out\n        /* \"github/fahadashiq/block-chain/smart-contracts/voting.sol\":1888:1993  function getAllCampaigns()public view returns(Campaign memory){... */\n    tag_24:\n        /* \"github/fahadashiq/block-chain/smart-contracts/voting.sol\":1934:1949  Campaign memory */\n      tag_60\n      tag_61\n      jump\t// in\n    tag_60:\n        /* \"github/fahadashiq/block-chain/smart-contracts/voting.sol\":1968:1977  campaigns */\n      0x00\n        /* \"github/fahadashiq/block-chain/smart-contracts/voting.sol\":1968:1985  campaigns['1122'] */\n      mload(0x40)\n      tag_63\n      swap1\n      tag_64\n      jump\t// in\n    tag_63:\n      swap1\n      dup2\n      mstore\n      0x20\n      add\n      mload(0x40)\n      dup1\n      swap2\n      sub\n      swap1\n      keccak256\n        /* \"github/fahadashiq/block-chain/smart-contracts/voting.sol\":1961:1985  return campaigns['1122'] */\n      mload(0x40)\n      dup1\n      0x40\n      add\n      0x40\n      mstore\n      swap1\n      dup2\n      0x00\n      dup3\n      add\n      dup1\n      sload\n      tag_65\n      swap1\n      tag_32\n      jump\t// in\n    tag_65:\n      dup1\n      0x1f\n      add\n      0x20\n      dup1\n      swap2\n      div\n      mul\n      0x20\n      add\n      mload(0x40)\n      swap1\n      dup2\n      add\n      0x40\n      mstore\n      dup1\n      swap3\n      swap2\n      swap1\n      dup2\n      dup2\n      mstore\n      0x20\n      add\n      dup3\n      dup1\n      sload\n      tag_66\n      swap1\n      tag_32\n      jump\t// in\n    tag_66:\n      dup1\n      iszero\n      tag_67\n      jumpi\n      dup1\n      0x1f\n      lt\n      tag_68\n      jumpi\n      0x0100\n      dup1\n      dup4\n      sload\n      div\n      mul\n      dup4\n      mstore\n      swap2\n      0x20\n      add\n      swap2\n      jump(tag_67)\n    tag_68:\n      dup3\n      add\n      swap2\n      swap1\n      0x00\n      mstore\n      keccak256(0x00, 0x20)\n      swap1\n    tag_69:\n      dup2\n      sload\n      dup2\n      mstore\n      swap1\n      0x01\n      add\n      swap1\n      0x20\n      add\n      dup1\n      dup4\n      gt\n      tag_69\n      jumpi\n      dup3\n      swap1\n      sub\n      0x1f\n      and\n      dup3\n      add\n      swap2\n    tag_67:\n      pop\n      pop\n      pop\n      pop\n      pop\n      dup2\n      mstore\n      0x20\n      add\n      0x01\n      dup3\n      add\n      dup1\n      sload\n      dup1\n      0x20\n      mul\n      0x20\n      add\n      mload(0x40)\n      swap1\n      dup2\n      add\n      0x40\n      mstore\n      dup1\n      swap3\n      swap2\n      swap1\n      dup2\n      dup2\n      mstore\n      0x20\n      add\n      0x00\n      swap1\n    tag_70:\n      dup3\n      dup3\n      lt\n      iszero\n      tag_71\n      jumpi\n      dup4\n      dup3\n      swap1\n      0x00\n      mstore\n      keccak256(0x00, 0x20)\n      swap1\n      0x03\n      mul\n      add\n      mload(0x40)\n      dup1\n      0x60\n      add\n      0x40\n      mstore\n      swap1\n      dup2\n      0x00\n      dup3\n      add\n      dup1\n      sload\n      tag_73\n      swap1\n      tag_32\n      jump\t// in\n    tag_73:\n      dup1\n      0x1f\n      add\n      0x20\n      dup1\n      swap2\n      div\n      mul\n      0x20\n      add\n      mload(0x40)\n      swap1\n      dup2\n      add\n      0x40\n      mstore\n      dup1\n      swap3\n      swap2\n      swap1\n      dup2\n      dup2\n      mstore\n      0x20\n      add\n      dup3\n      dup1\n      sload\n      tag_74\n      swap1\n      tag_32\n      jump\t// in\n    tag_74:\n      dup1\n      iszero\n      tag_75\n      jumpi\n      dup1\n      0x1f\n      lt\n      tag_76\n      jumpi\n      0x0100\n      dup1\n      dup4\n      sload\n      div\n      mul\n      dup4\n      mstore\n      swap2\n      0x20\n      add\n      swap2\n      jump(tag_75)\n    tag_76:\n      dup3\n      add\n      swap2\n      swap1\n      0x00\n      mstore\n      keccak256(0x00, 0x20)\n      swap1\n    tag_77:\n      dup2\n      sload\n      dup2\n      mstore\n      swap1\n      0x01\n      add\n      swap1\n      0x20\n      add\n      dup1\n      dup4\n      gt\n      tag_77\n      jumpi\n      dup3\n      swap1\n      sub\n      0x1f\n      and\n      dup3\n      add\n      swap2\n    tag_75:\n      pop\n      pop\n      pop\n      pop\n      pop\n      dup2\n      mstore\n      0x20\n      add\n      0x01\n      dup3\n      add\n      dup1\n      sload\n      tag_78\n      swap1\n      tag_32\n      jump\t// in\n    tag_78:\n      dup1\n      0x1f\n      add\n      0x20\n      dup1\n      swap2\n      div\n      mul\n      0x20\n      add\n      mload(0x40)\n      swap1\n      dup2\n      add\n      0x40\n      mstore\n      dup1\n      swap3\n      swap2\n      swap1\n      dup2\n      dup2\n      mstore\n      0x20\n      add\n      dup3\n      dup1\n      sload\n      tag_79\n      swap1\n      tag_32\n      jump\t// in\n    tag_79:\n      dup1\n      iszero\n      tag_80\n      jumpi\n      dup1\n      0x1f\n      lt\n      tag_81\n      jumpi\n      0x0100\n      dup1\n      dup4\n      sload\n      div\n      mul\n      dup4\n      mstore\n      swap2\n      0x20\n      add\n      swap2\n      jump(tag_80)\n    tag_81:\n      dup3\n      add\n      swap2\n      swap1\n      0x00\n      mstore\n      keccak256(0x00, 0x20)\n      swap1\n    tag_82:\n      dup2\n      sload\n      dup2\n      mstore\n      swap1\n      0x01\n      add\n      swap1\n      0x20\n      add\n      dup1\n      dup4\n      gt\n      tag_82\n      jumpi\n      dup3\n      swap1\n      sub\n      0x1f\n      and\n      dup3\n      add\n      swap2\n    tag_80:\n      pop\n      pop\n      pop\n      pop\n      pop\n      dup2\n      mstore\n      0x20\n      add\n      0x02\n      dup3\n      add\n      sload\n      dup2\n      mstore\n      pop\n      pop\n      dup2\n      mstore\n      0x20\n      add\n      swap1\n      0x01\n      add\n      swap1\n      jump(tag_70)\n    tag_71:\n      pop\n      pop\n      pop\n      pop\n      dup2\n      mstore\n      pop\n      pop\n      swap1\n      pop\n        /* \"github/fahadashiq/block-chain/smart-contracts/voting.sol\":1888:1993  function getAllCampaigns()public view returns(Campaign memory){... */\n      swap1\n      jump\t// out\n        /* \"github/fahadashiq/block-chain/smart-contracts/voting.sol\":755:775  address public admin */\n    tag_28:\n      0x02\n      0x00\n      swap1\n      sload\n      swap1\n      0x0100\n      exp\n      swap1\n      div\n      0xffffffffffffffffffffffffffffffffffffffff\n      and\n      dup2\n      jump\t// out\n    tag_44:\n      dup3\n      dup1\n      sload\n      tag_83\n      swap1\n      tag_32\n      jump\t// in\n    tag_83:\n      swap1\n      0x00\n      mstore\n      keccak256(0x00, 0x20)\n      swap1\n      0x1f\n      add\n      0x20\n      swap1\n      div\n      dup2\n      add\n      swap3\n      dup3\n      tag_85\n      jumpi\n      0x00\n      dup6\n      sstore\n      jump(tag_84)\n    tag_85:\n      dup3\n      0x1f\n      lt\n      tag_86\n      jumpi\n      dup1\n      mload\n      not(0xff)\n      and\n      dup4\n      dup1\n      add\n      or\n      dup6\n      sstore\n      jump(tag_84)\n    tag_86:\n      dup3\n      dup1\n      add\n      0x01\n      add\n      dup6\n      sstore\n      dup3\n      iszero\n      tag_84\n      jumpi\n      swap2\n      dup3\n      add\n    tag_87:\n      dup3\n      dup2\n      gt\n      iszero\n      tag_88\n      jumpi\n      dup3\n      mload\n      dup3\n      sstore\n      swap2\n      0x20\n      add\n      swap2\n      swap1\n      0x01\n      add\n      swap1\n      jump(tag_87)\n    tag_88:\n    tag_84:\n      pop\n      swap1\n      pop\n      tag_89\n      swap2\n      swap1\n      tag_90\n      jump\t// in\n    tag_89:\n      pop\n      swap1\n      jump\t// out\n    tag_61:\n      mload(0x40)\n      dup1\n      0x40\n      add\n      0x40\n      mstore\n      dup1\n      0x60\n      dup2\n      mstore\n      0x20\n      add\n      0x60\n      dup2\n      mstore\n      pop\n      swap1\n      jump\t// out\n    tag_90:\n    tag_91:\n      dup1\n      dup3\n      gt\n      iszero\n      tag_92\n      jumpi\n      0x00\n      dup2\n      0x00\n      swap1\n      sstore\n      pop\n      0x01\n      add\n      jump(tag_91)\n    tag_92:\n      pop\n      swap1\n      jump\t// out\n        /* \"#utility.yul\":7:82   */\n    tag_93:\n        /* \"#utility.yul\":40:46   */\n      0x00\n        /* \"#utility.yul\":73:75   */\n      0x40\n        /* \"#utility.yul\":67:76   */\n      mload\n        /* \"#utility.yul\":57:76   */\n      swap1\n      pop\n        /* \"#utility.yul\":7:82   */\n      swap1\n      jump\t// out\n        /* \"#utility.yul\":88:205   */\n    tag_94:\n        /* \"#utility.yul\":197:198   */\n      0x00\n        /* \"#utility.yul\":194:195   */\n      dup1\n        /* \"#utility.yul\":187:199   */\n      revert\n        /* \"#utility.yul\":211:328   */\n    tag_95:\n        /* \"#utility.yul\":320:321   */\n      0x00\n        /* \"#utility.yul\":317:318   */\n      dup1\n        /* \"#utility.yul\":310:322   */\n      revert\n        /* \"#utility.yul\":334:451   */\n    tag_96:\n        /* \"#utility.yul\":443:444   */\n      0x00\n        /* \"#utility.yul\":440:441   */\n      dup1\n        /* \"#utility.yul\":433:445   */\n      revert\n        /* \"#utility.yul\":457:574   */\n    tag_97:\n        /* \"#utility.yul\":566:567   */\n      0x00\n        /* \"#utility.yul\":563:564   */\n      dup1\n        /* \"#utility.yul\":556:568   */\n      revert\n        /* \"#utility.yul\":580:682   */\n    tag_98:\n        /* \"#utility.yul\":621:627   */\n      0x00\n        /* \"#utility.yul\":672:674   */\n      0x1f\n        /* \"#utility.yul\":668:675   */\n      not\n        /* \"#utility.yul\":663:665   */\n      0x1f\n        /* \"#utility.yul\":656:661   */\n      dup4\n        /* \"#utility.yul\":652:666   */\n      add\n        /* \"#utility.yul\":648:676   */\n      and\n        /* \"#utility.yul\":638:676   */\n      swap1\n      pop\n        /* \"#utility.yul\":580:682   */\n      swap2\n      swap1\n      pop\n      jump\t// out\n        /* \"#utility.yul\":688:868   */\n    tag_99:\n        /* \"#utility.yul\":736:813   */\n      0x4e487b7100000000000000000000000000000000000000000000000000000000\n        /* \"#utility.yul\":733:734   */\n      0x00\n        /* \"#utility.yul\":726:814   */\n      mstore\n        /* \"#utility.yul\":833:837   */\n      0x41\n        /* \"#utility.yul\":830:831   */\n      0x04\n        /* \"#utility.yul\":823:838   */\n      mstore\n        /* \"#utility.yul\":857:861   */\n      0x24\n        /* \"#utility.yul\":854:855   */\n      0x00\n        /* \"#utility.yul\":847:862   */\n      revert\n        /* \"#utility.yul\":874:1155   */\n    tag_100:\n        /* \"#utility.yul\":957:984   */\n      tag_144\n        /* \"#utility.yul\":979:983   */\n      dup3\n        /* \"#utility.yul\":957:984   */\n      tag_98\n      jump\t// in\n    tag_144:\n        /* \"#utility.yul\":949:955   */\n      dup2\n        /* \"#utility.yul\":945:985   */\n      add\n        /* \"#utility.yul\":1087:1093   */\n      dup2\n        /* \"#utility.yul\":1075:1085   */\n      dup2\n        /* \"#utility.yul\":1072:1094   */\n      lt\n        /* \"#utility.yul\":1051:1069   */\n      0xffffffffffffffff\n        /* \"#utility.yul\":1039:1049   */\n      dup3\n        /* \"#utility.yul\":1036:1070   */\n      gt\n        /* \"#utility.yul\":1033:1095   */\n      or\n        /* \"#utility.yul\":1030:1118   */\n      iszero\n      tag_145\n      jumpi\n        /* \"#utility.yul\":1098:1116   */\n      tag_146\n      tag_99\n      jump\t// in\n    tag_146:\n        /* \"#utility.yul\":1030:1118   */\n    tag_145:\n        /* \"#utility.yul\":1138:1148   */\n      dup1\n        /* \"#utility.yul\":1134:1136   */\n      0x40\n        /* \"#utility.yul\":1127:1149   */\n      mstore\n        /* \"#utility.yul\":917:1155   */\n      pop\n        /* \"#utility.yul\":874:1155   */\n      pop\n      pop\n      jump\t// out\n        /* \"#utility.yul\":1161:1290   */\n    tag_101:\n        /* \"#utility.yul\":1195:1201   */\n      0x00\n        /* \"#utility.yul\":1222:1242   */\n      tag_148\n      tag_93\n      jump\t// in\n    tag_148:\n        /* \"#utility.yul\":1212:1242   */\n      swap1\n      pop\n        /* \"#utility.yul\":1251:1284   */\n      tag_149\n        /* \"#utility.yul\":1279:1283   */\n      dup3\n        /* \"#utility.yul\":1271:1277   */\n      dup3\n        /* \"#utility.yul\":1251:1284   */\n      tag_100\n      jump\t// in\n    tag_149:\n        /* \"#utility.yul\":1161:1290   */\n      swap2\n      swap1\n      pop\n      jump\t// out\n        /* \"#utility.yul\":1296:1604   */\n    tag_102:\n        /* \"#utility.yul\":1358:1362   */\n      0x00\n        /* \"#utility.yul\":1448:1466   */\n      0xffffffffffffffff\n        /* \"#utility.yul\":1440:1446   */\n      dup3\n        /* \"#utility.yul\":1437:1467   */\n      gt\n        /* \"#utility.yul\":1434:1490   */\n      iszero\n      tag_151\n      jumpi\n        /* \"#utility.yul\":1470:1488   */\n      tag_152\n      tag_99\n      jump\t// in\n    tag_152:\n        /* \"#utility.yul\":1434:1490   */\n    tag_151:\n        /* \"#utility.yul\":1508:1537   */\n      tag_153\n        /* \"#utility.yul\":1530:1536   */\n      dup3\n        /* \"#utility.yul\":1508:1537   */\n      tag_98\n      jump\t// in\n    tag_153:\n        /* \"#utility.yul\":1500:1537   */\n      swap1\n      pop\n        /* \"#utility.yul\":1592:1596   */\n      0x20\n        /* \"#utility.yul\":1586:1590   */\n      dup2\n        /* \"#utility.yul\":1582:1597   */\n      add\n        /* \"#utility.yul\":1574:1597   */\n      swap1\n      pop\n        /* \"#utility.yul\":1296:1604   */\n      swap2\n      swap1\n      pop\n      jump\t// out\n        /* \"#utility.yul\":1610:1764   */\n    tag_103:\n        /* \"#utility.yul\":1694:1700   */\n      dup3\n        /* \"#utility.yul\":1689:1692   */\n      dup2\n        /* \"#utility.yul\":1684:1687   */\n      dup4\n        /* \"#utility.yul\":1671:1701   */\n      calldatacopy\n        /* \"#utility.yul\":1756:1757   */\n      0x00\n        /* \"#utility.yul\":1747:1753   */\n      dup4\n        /* \"#utility.yul\":1742:1745   */\n      dup4\n        /* \"#utility.yul\":1738:1754   */\n      add\n        /* \"#utility.yul\":1731:1758   */\n      mstore\n        /* \"#utility.yul\":1610:1764   */\n      pop\n      pop\n      pop\n      jump\t// out\n        /* \"#utility.yul\":1770:2182   */\n    tag_104:\n        /* \"#utility.yul\":1848:1853   */\n      0x00\n        /* \"#utility.yul\":1873:1939   */\n      tag_156\n        /* \"#utility.yul\":1889:1938   */\n      tag_157\n        /* \"#utility.yul\":1931:1937   */\n      dup5\n        /* \"#utility.yul\":1889:1938   */\n      tag_102\n      jump\t// in\n    tag_157:\n        /* \"#utility.yul\":1873:1939   */\n      tag_101\n      jump\t// in\n    tag_156:\n        /* \"#utility.yul\":1864:1939   */\n      swap1\n      pop\n        /* \"#utility.yul\":1962:1968   */\n      dup3\n        /* \"#utility.yul\":1955:1960   */\n      dup2\n        /* \"#utility.yul\":1948:1969   */\n      mstore\n        /* \"#utility.yul\":2000:2004   */\n      0x20\n        /* \"#utility.yul\":1993:1998   */\n      dup2\n        /* \"#utility.yul\":1989:2005   */\n      add\n        /* \"#utility.yul\":2038:2041   */\n      dup5\n        /* \"#utility.yul\":2029:2035   */\n      dup5\n        /* \"#utility.yul\":2024:2027   */\n      dup5\n        /* \"#utility.yul\":2020:2036   */\n      add\n        /* \"#utility.yul\":2017:2042   */\n      gt\n        /* \"#utility.yul\":2014:2126   */\n      iszero\n      tag_158\n      jumpi\n        /* \"#utility.yul\":2045:2124   */\n      tag_159\n      tag_97\n      jump\t// in\n    tag_159:\n        /* \"#utility.yul\":2014:2126   */\n    tag_158:\n        /* \"#utility.yul\":2135:2176   */\n      tag_160\n        /* \"#utility.yul\":2169:2175   */\n      dup5\n        /* \"#utility.yul\":2164:2167   */\n      dup3\n        /* \"#utility.yul\":2159:2162   */\n      dup6\n        /* \"#utility.yul\":2135:2176   */\n      tag_103\n      jump\t// in\n    tag_160:\n        /* \"#utility.yul\":1854:2182   */\n      pop\n        /* \"#utility.yul\":1770:2182   */\n      swap4\n      swap3\n      pop\n      pop\n      pop\n      jump\t// out\n        /* \"#utility.yul\":2202:2542   */\n    tag_105:\n        /* \"#utility.yul\":2258:2263   */\n      0x00\n        /* \"#utility.yul\":2307:2310   */\n      dup3\n        /* \"#utility.yul\":2300:2304   */\n      0x1f\n        /* \"#utility.yul\":2292:2298   */\n      dup4\n        /* \"#utility.yul\":2288:2305   */\n      add\n        /* \"#utility.yul\":2284:2311   */\n      slt\n        /* \"#utility.yul\":2274:2396   */\n      tag_162\n      jumpi\n        /* \"#utility.yul\":2315:2394   */\n      tag_163\n      tag_96\n      jump\t// in\n    tag_163:\n        /* \"#utility.yul\":2274:2396   */\n    tag_162:\n        /* \"#utility.yul\":2432:2438   */\n      dup2\n        /* \"#utility.yul\":2419:2439   */\n      calldataload\n        /* \"#utility.yul\":2457:2536   */\n      tag_164\n        /* \"#utility.yul\":2532:2535   */\n      dup5\n        /* \"#utility.yul\":2524:2530   */\n      dup3\n        /* \"#utility.yul\":2517:2521   */\n      0x20\n        /* \"#utility.yul\":2509:2515   */\n      dup7\n        /* \"#utility.yul\":2505:2522   */\n      add\n        /* \"#utility.yul\":2457:2536   */\n      tag_104\n      jump\t// in\n    tag_164:\n        /* \"#utility.yul\":2448:2536   */\n      swap2\n      pop\n        /* \"#utility.yul\":2264:2542   */\n      pop\n        /* \"#utility.yul\":2202:2542   */\n      swap3\n      swap2\n      pop\n      pop\n      jump\t// out\n        /* \"#utility.yul\":2548:3057   */\n    tag_10:\n        /* \"#utility.yul\":2617:2623   */\n      0x00\n        /* \"#utility.yul\":2666:2668   */\n      0x20\n        /* \"#utility.yul\":2654:2663   */\n      dup3\n        /* \"#utility.yul\":2645:2652   */\n      dup5\n        /* \"#utility.yul\":2641:2664   */\n      sub\n        /* \"#utility.yul\":2637:2669   */\n      slt\n        /* \"#utility.yul\":2634:2753   */\n      iszero\n      tag_166\n      jumpi\n        /* \"#utility.yul\":2672:2751   */\n      tag_167\n      tag_94\n      jump\t// in\n    tag_167:\n        /* \"#utility.yul\":2634:2753   */\n    tag_166:\n        /* \"#utility.yul\":2820:2821   */\n      0x00\n        /* \"#utility.yul\":2809:2818   */\n      dup3\n        /* \"#utility.yul\":2805:2822   */\n      add\n        /* \"#utility.yul\":2792:2823   */\n      calldataload\n        /* \"#utility.yul\":2850:2868   */\n      0xffffffffffffffff\n        /* \"#utility.yul\":2842:2848   */\n      dup2\n        /* \"#utility.yul\":2839:2869   */\n      gt\n        /* \"#utility.yul\":2836:2953   */\n      iszero\n      tag_168\n      jumpi\n        /* \"#utility.yul\":2872:2951   */\n      tag_169\n      tag_95\n      jump\t// in\n    tag_169:\n        /* \"#utility.yul\":2836:2953   */\n    tag_168:\n        /* \"#utility.yul\":2977:3040   */\n      tag_170\n        /* \"#utility.yul\":3032:3039   */\n      dup5\n        /* \"#utility.yul\":3023:3029   */\n      dup3\n        /* \"#utility.yul\":3012:3021   */\n      dup6\n        /* \"#utility.yul\":3008:3030   */\n      add\n        /* \"#utility.yul\":2977:3040   */\n      tag_105\n      jump\t// in\n    tag_170:\n        /* \"#utility.yul\":2967:3040   */\n      swap2\n      pop\n        /* \"#utility.yul\":2763:3050   */\n      pop\n        /* \"#utility.yul\":2548:3057   */\n      swap3\n      swap2\n      pop\n      pop\n      jump\t// out\n        /* \"#utility.yul\":3063:3162   */\n    tag_106:\n        /* \"#utility.yul\":3115:3121   */\n      0x00\n        /* \"#utility.yul\":3149:3154   */\n      dup2\n        /* \"#utility.yul\":3143:3155   */\n      mload\n        /* \"#utility.yul\":3133:3155   */\n      swap1\n      pop\n        /* \"#utility.yul\":3063:3162   */\n      swap2\n      swap1\n      pop\n      jump\t// out\n        /* \"#utility.yul\":3168:3337   */\n    tag_107:\n        /* \"#utility.yul\":3252:3263   */\n      0x00\n        /* \"#utility.yul\":3286:3292   */\n      dup3\n        /* \"#utility.yul\":3281:3284   */\n      dup3\n        /* \"#utility.yul\":3274:3293   */\n      mstore\n        /* \"#utility.yul\":3326:3330   */\n      0x20\n        /* \"#utility.yul\":3321:3324   */\n      dup3\n        /* \"#utility.yul\":3317:3331   */\n      add\n        /* \"#utility.yul\":3302:3331   */\n      swap1\n      pop\n        /* \"#utility.yul\":3168:3337   */\n      swap3\n      swap2\n      pop\n      pop\n      jump\t// out\n        /* \"#utility.yul\":3343:3650   */\n    tag_108:\n        /* \"#utility.yul\":3411:3412   */\n      0x00\n        /* \"#utility.yul\":3421:3534   */\n    tag_174:\n        /* \"#utility.yul\":3435:3441   */\n      dup4\n        /* \"#utility.yul\":3432:3433   */\n      dup2\n        /* \"#utility.yul\":3429:3442   */\n      lt\n        /* \"#utility.yul\":3421:3534   */\n      iszero\n      tag_176\n      jumpi\n        /* \"#utility.yul\":3520:3521   */\n      dup1\n        /* \"#utility.yul\":3515:3518   */\n      dup3\n        /* \"#utility.yul\":3511:3522   */\n      add\n        /* \"#utility.yul\":3505:3523   */\n      mload\n        /* \"#utility.yul\":3501:3502   */\n      dup2\n        /* \"#utility.yul\":3496:3499   */\n      dup5\n        /* \"#utility.yul\":3492:3503   */\n      add\n        /* \"#utility.yul\":3485:3524   */\n      mstore\n        /* \"#utility.yul\":3457:3459   */\n      0x20\n        /* \"#utility.yul\":3454:3455   */\n      dup2\n        /* \"#utility.yul\":3450:3460   */\n      add\n        /* \"#utility.yul\":3445:3460   */\n      swap1\n      pop\n        /* \"#utility.yul\":3421:3534   */\n      jump(tag_174)\n    tag_176:\n        /* \"#utility.yul\":3552:3558   */\n      dup4\n        /* \"#utility.yul\":3549:3550   */\n      dup2\n        /* \"#utility.yul\":3546:3559   */\n      gt\n        /* \"#utility.yul\":3543:3644   */\n      iszero\n      tag_177\n      jumpi\n        /* \"#utility.yul\":3632:3633   */\n      0x00\n        /* \"#utility.yul\":3623:3629   */\n      dup5\n        /* \"#utility.yul\":3618:3621   */\n      dup5\n        /* \"#utility.yul\":3614:3630   */\n      add\n        /* \"#utility.yul\":3607:3634   */\n      mstore\n        /* \"#utility.yul\":3543:3644   */\n    tag_177:\n        /* \"#utility.yul\":3392:3650   */\n      pop\n        /* \"#utility.yul\":3343:3650   */\n      pop\n      pop\n      pop\n      jump\t// out\n        /* \"#utility.yul\":3656:4020   */\n    tag_109:\n        /* \"#utility.yul\":3744:3747   */\n      0x00\n        /* \"#utility.yul\":3772:3811   */\n      tag_179\n        /* \"#utility.yul\":3805:3810   */\n      dup3\n        /* \"#utility.yul\":3772:3811   */\n      tag_106\n      jump\t// in\n    tag_179:\n        /* \"#utility.yul\":3827:3898   */\n      tag_180\n        /* \"#utility.yul\":3891:3897   */\n      dup2\n        /* \"#utility.yul\":3886:3889   */\n      dup6\n        /* \"#utility.yul\":3827:3898   */\n      tag_107\n      jump\t// in\n    tag_180:\n        /* \"#utility.yul\":3820:3898   */\n      swap4\n      pop\n        /* \"#utility.yul\":3907:3959   */\n      tag_181\n        /* \"#utility.yul\":3952:3958   */\n      dup2\n        /* \"#utility.yul\":3947:3950   */\n      dup6\n        /* \"#utility.yul\":3940:3944   */\n      0x20\n        /* \"#utility.yul\":3933:3938   */\n      dup7\n        /* \"#utility.yul\":3929:3945   */\n      add\n        /* \"#utility.yul\":3907:3959   */\n      tag_108\n      jump\t// in\n    tag_181:\n        /* \"#utility.yul\":3984:4013   */\n      tag_182\n        /* \"#utility.yul\":4006:4012   */\n      dup2\n        /* \"#utility.yul\":3984:4013   */\n      tag_98\n      jump\t// in\n    tag_182:\n        /* \"#utility.yul\":3979:3982   */\n      dup5\n        /* \"#utility.yul\":3975:4014   */\n      add\n        /* \"#utility.yul\":3968:4014   */\n      swap2\n      pop\n        /* \"#utility.yul\":3748:4020   */\n      pop\n        /* \"#utility.yul\":3656:4020   */\n      swap3\n      swap2\n      pop\n      pop\n      jump\t// out\n        /* \"#utility.yul\":4026:4339   */\n    tag_13:\n        /* \"#utility.yul\":4139:4143   */\n      0x00\n        /* \"#utility.yul\":4177:4179   */\n      0x20\n        /* \"#utility.yul\":4166:4175   */\n      dup3\n        /* \"#utility.yul\":4162:4180   */\n      add\n        /* \"#utility.yul\":4154:4180   */\n      swap1\n      pop\n        /* \"#utility.yul\":4226:4235   */\n      dup2\n        /* \"#utility.yul\":4220:4224   */\n      dup2\n        /* \"#utility.yul\":4216:4236   */\n      sub\n        /* \"#utility.yul\":4212:4213   */\n      0x00\n        /* \"#utility.yul\":4201:4210   */\n      dup4\n        /* \"#utility.yul\":4197:4214   */\n      add\n        /* \"#utility.yul\":4190:4237   */\n      mstore\n        /* \"#utility.yul\":4254:4332   */\n      tag_184\n        /* \"#utility.yul\":4327:4331   */\n      dup2\n        /* \"#utility.yul\":4318:4324   */\n      dup5\n        /* \"#utility.yul\":4254:4332   */\n      tag_109\n      jump\t// in\n    tag_184:\n        /* \"#utility.yul\":4246:4332   */\n      swap1\n      pop\n        /* \"#utility.yul\":4026:4339   */\n      swap3\n      swap2\n      pop\n      pop\n      jump\t// out\n        /* \"#utility.yul\":4345:4422   */\n    tag_110:\n        /* \"#utility.yul\":4382:4389   */\n      0x00\n        /* \"#utility.yul\":4411:4416   */\n      dup2\n        /* \"#utility.yul\":4400:4416   */\n      swap1\n      pop\n        /* \"#utility.yul\":4345:4422   */\n      swap2\n      swap1\n      pop\n      jump\t// out\n        /* \"#utility.yul\":4428:4550   */\n    tag_111:\n        /* \"#utility.yul\":4501:4525   */\n      tag_187\n        /* \"#utility.yul\":4519:4524   */\n      dup2\n        /* \"#utility.yul\":4501:4525   */\n      tag_110\n      jump\t// in\n    tag_187:\n        /* \"#utility.yul\":4494:4499   */\n      dup2\n        /* \"#utility.yul\":4491:4526   */\n      eq\n        /* \"#utility.yul\":4481:4544   */\n      tag_188\n      jumpi\n        /* \"#utility.yul\":4540:4541   */\n      0x00\n        /* \"#utility.yul\":4537:4538   */\n      dup1\n        /* \"#utility.yul\":4530:4542   */\n      revert\n        /* \"#utility.yul\":4481:4544   */\n    tag_188:\n        /* \"#utility.yul\":4428:4550   */\n      pop\n      jump\t// out\n        /* \"#utility.yul\":4556:4695   */\n    tag_112:\n        /* \"#utility.yul\":4602:4607   */\n      0x00\n        /* \"#utility.yul\":4640:4646   */\n      dup2\n        /* \"#utility.yul\":4627:4647   */\n      calldataload\n        /* \"#utility.yul\":4618:4647   */\n      swap1\n      pop\n        /* \"#utility.yul\":4656:4689   */\n      tag_190\n        /* \"#utility.yul\":4683:4688   */\n      dup2\n        /* \"#utility.yul\":4656:4689   */\n      tag_111\n      jump\t// in\n    tag_190:\n        /* \"#utility.yul\":4556:4695   */\n      swap3\n      swap2\n      pop\n      pop\n      jump\t// out\n        /* \"#utility.yul\":4701:5030   */\n    tag_19:\n        /* \"#utility.yul\":4760:4766   */\n      0x00\n        /* \"#utility.yul\":4809:4811   */\n      0x20\n        /* \"#utility.yul\":4797:4806   */\n      dup3\n        /* \"#utility.yul\":4788:4795   */\n      dup5\n        /* \"#utility.yul\":4784:4807   */\n      sub\n        /* \"#utility.yul\":4780:4812   */\n      slt\n        /* \"#utility.yul\":4777:4896   */\n      iszero\n      tag_192\n      jumpi\n        /* \"#utility.yul\":4815:4894   */\n      tag_193\n      tag_94\n      jump\t// in\n    tag_193:\n        /* \"#utility.yul\":4777:4896   */\n    tag_192:\n        /* \"#utility.yul\":4935:4936   */\n      0x00\n        /* \"#utility.yul\":4960:5013   */\n      tag_194\n        /* \"#utility.yul\":5005:5012   */\n      dup5\n        /* \"#utility.yul\":4996:5002   */\n      dup3\n        /* \"#utility.yul\":4985:4994   */\n      dup6\n        /* \"#utility.yul\":4981:5003   */\n      add\n        /* \"#utility.yul\":4960:5013   */\n      tag_112\n      jump\t// in\n    tag_194:\n        /* \"#utility.yul\":4950:5013   */\n      swap2\n      pop\n        /* \"#utility.yul\":4906:5023   */\n      pop\n        /* \"#utility.yul\":4701:5030   */\n      swap3\n      swap2\n      pop\n      pop\n      jump\t// out\n        /* \"#utility.yul\":5036:5154   */\n    tag_113:\n        /* \"#utility.yul\":5123:5147   */\n      tag_196\n        /* \"#utility.yul\":5141:5146   */\n      dup2\n        /* \"#utility.yul\":5123:5147   */\n      tag_110\n      jump\t// in\n    tag_196:\n        /* \"#utility.yul\":5118:5121   */\n      dup3\n        /* \"#utility.yul\":5111:5148   */\n      mstore\n        /* \"#utility.yul\":5036:5154   */\n      pop\n      pop\n      jump\t// out\n        /* \"#utility.yul\":5160:5784   */\n    tag_22:\n        /* \"#utility.yul\":5349:5353   */\n      0x00\n        /* \"#utility.yul\":5387:5389   */\n      0x60\n        /* \"#utility.yul\":5376:5385   */\n      dup3\n        /* \"#utility.yul\":5372:5390   */\n      add\n        /* \"#utility.yul\":5364:5390   */\n      swap1\n      pop\n        /* \"#utility.yul\":5436:5445   */\n      dup2\n        /* \"#utility.yul\":5430:5434   */\n      dup2\n        /* \"#utility.yul\":5426:5446   */\n      sub\n        /* \"#utility.yul\":5422:5423   */\n      0x00\n        /* \"#utility.yul\":5411:5420   */\n      dup4\n        /* \"#utility.yul\":5407:5424   */\n      add\n        /* \"#utility.yul\":5400:5447   */\n      mstore\n        /* \"#utility.yul\":5464:5542   */\n      tag_198\n        /* \"#utility.yul\":5537:5541   */\n      dup2\n        /* \"#utility.yul\":5528:5534   */\n      dup7\n        /* \"#utility.yul\":5464:5542   */\n      tag_109\n      jump\t// in\n    tag_198:\n        /* \"#utility.yul\":5456:5542   */\n      swap1\n      pop\n        /* \"#utility.yul\":5589:5598   */\n      dup2\n        /* \"#utility.yul\":5583:5587   */\n      dup2\n        /* \"#utility.yul\":5579:5599   */\n      sub\n        /* \"#utility.yul\":5574:5576   */\n      0x20\n        /* \"#utility.yul\":5563:5572   */\n      dup4\n        /* \"#utility.yul\":5559:5577   */\n      add\n        /* \"#utility.yul\":5552:5600   */\n      mstore\n        /* \"#utility.yul\":5617:5695   */\n      tag_199\n        /* \"#utility.yul\":5690:5694   */\n      dup2\n        /* \"#utility.yul\":5681:5687   */\n      dup6\n        /* \"#utility.yul\":5617:5695   */\n      tag_109\n      jump\t// in\n    tag_199:\n        /* \"#utility.yul\":5609:5695   */\n      swap1\n      pop\n        /* \"#utility.yul\":5705:5777   */\n      tag_200\n        /* \"#utility.yul\":5773:5775   */\n      0x40\n        /* \"#utility.yul\":5762:5771   */\n      dup4\n        /* \"#utility.yul\":5758:5776   */\n      add\n        /* \"#utility.yul\":5749:5755   */\n      dup5\n        /* \"#utility.yul\":5705:5777   */\n      tag_113\n      jump\t// in\n    tag_200:\n        /* \"#utility.yul\":5160:5784   */\n      swap5\n      swap4\n      pop\n      pop\n      pop\n      pop\n      jump\t// out\n        /* \"#utility.yul\":5790:5949   */\n    tag_114:\n        /* \"#utility.yul\":5864:5875   */\n      0x00\n        /* \"#utility.yul\":5898:5904   */\n      dup3\n        /* \"#utility.yul\":5893:5896   */\n      dup3\n        /* \"#utility.yul\":5886:5905   */\n      mstore\n        /* \"#utility.yul\":5938:5942   */\n      0x20\n        /* \"#utility.yul\":5933:5936   */\n      dup3\n        /* \"#utility.yul\":5929:5943   */\n      add\n        /* \"#utility.yul\":5914:5943   */\n      swap1\n      pop\n        /* \"#utility.yul\":5790:5949   */\n      swap3\n      swap2\n      pop\n      pop\n      jump\t// out\n        /* \"#utility.yul\":5955:6299   */\n    tag_115:\n        /* \"#utility.yul\":6033:6036   */\n      0x00\n        /* \"#utility.yul\":6061:6100   */\n      tag_203\n        /* \"#utility.yul\":6094:6099   */\n      dup3\n        /* \"#utility.yul\":6061:6100   */\n      tag_106\n      jump\t// in\n    tag_203:\n        /* \"#utility.yul\":6116:6177   */\n      tag_204\n        /* \"#utility.yul\":6170:6176   */\n      dup2\n        /* \"#utility.yul\":6165:6168   */\n      dup6\n        /* \"#utility.yul\":6116:6177   */\n      tag_114\n      jump\t// in\n    tag_204:\n        /* \"#utility.yul\":6109:6177   */\n      swap4\n      pop\n        /* \"#utility.yul\":6186:6238   */\n      tag_205\n        /* \"#utility.yul\":6231:6237   */\n      dup2\n        /* \"#utility.yul\":6226:6229   */\n      dup6\n        /* \"#utility.yul\":6219:6223   */\n      0x20\n        /* \"#utility.yul\":6212:6217   */\n      dup7\n        /* \"#utility.yul\":6208:6224   */\n      add\n        /* \"#utility.yul\":6186:6238   */\n      tag_108\n      jump\t// in\n    tag_205:\n        /* \"#utility.yul\":6263:6292   */\n      tag_206\n        /* \"#utility.yul\":6285:6291   */\n      dup2\n        /* \"#utility.yul\":6263:6292   */\n      tag_98\n      jump\t// in\n    tag_206:\n        /* \"#utility.yul\":6258:6261   */\n      dup5\n        /* \"#utility.yul\":6254:6293   */\n      add\n        /* \"#utility.yul\":6247:6293   */\n      swap2\n      pop\n        /* \"#utility.yul\":6037:6299   */\n      pop\n        /* \"#utility.yul\":5955:6299   */\n      swap3\n      swap2\n      pop\n      pop\n      jump\t// out\n        /* \"#utility.yul\":6305:6444   */\n    tag_116:\n        /* \"#utility.yul\":6397:6403   */\n      0x00\n        /* \"#utility.yul\":6431:6436   */\n      dup2\n        /* \"#utility.yul\":6425:6437   */\n      mload\n        /* \"#utility.yul\":6415:6437   */\n      swap1\n      pop\n        /* \"#utility.yul\":6305:6444   */\n      swap2\n      swap1\n      pop\n      jump\t// out\n        /* \"#utility.yul\":6450:6649   */\n    tag_117:\n        /* \"#utility.yul\":6564:6575   */\n      0x00\n        /* \"#utility.yul\":6598:6604   */\n      dup3\n        /* \"#utility.yul\":6593:6596   */\n      dup3\n        /* \"#utility.yul\":6586:6605   */\n      mstore\n        /* \"#utility.yul\":6638:6642   */\n      0x20\n        /* \"#utility.yul\":6633:6636   */\n      dup3\n        /* \"#utility.yul\":6629:6643   */\n      add\n        /* \"#utility.yul\":6614:6643   */\n      swap1\n      pop\n        /* \"#utility.yul\":6450:6649   */\n      swap3\n      swap2\n      pop\n      pop\n      jump\t// out\n        /* \"#utility.yul\":6655:6812   */\n    tag_118:\n        /* \"#utility.yul\":6747:6751   */\n      0x00\n        /* \"#utility.yul\":6770:6773   */\n      dup2\n        /* \"#utility.yul\":6762:6773   */\n      swap1\n      pop\n        /* \"#utility.yul\":6800:6804   */\n      0x20\n        /* \"#utility.yul\":6795:6798   */\n      dup3\n        /* \"#utility.yul\":6791:6805   */\n      add\n        /* \"#utility.yul\":6783:6805   */\n      swap1\n      pop\n        /* \"#utility.yul\":6655:6812   */\n      swap2\n      swap1\n      pop\n      jump\t// out\n        /* \"#utility.yul\":6818:6926   */\n    tag_119:\n        /* \"#utility.yul\":6895:6919   */\n      tag_211\n        /* \"#utility.yul\":6913:6918   */\n      dup2\n        /* \"#utility.yul\":6895:6919   */\n      tag_110\n      jump\t// in\n    tag_211:\n        /* \"#utility.yul\":6890:6893   */\n      dup3\n        /* \"#utility.yul\":6883:6920   */\n      mstore\n        /* \"#utility.yul\":6818:6926   */\n      pop\n      pop\n      jump\t// out\n        /* \"#utility.yul\":6990:7832   */\n    tag_120:\n        /* \"#utility.yul\":7099:7102   */\n      0x00\n        /* \"#utility.yul\":7135:7139   */\n      0x60\n        /* \"#utility.yul\":7130:7133   */\n      dup4\n        /* \"#utility.yul\":7126:7140   */\n      add\n        /* \"#utility.yul\":7222:7226   */\n      0x00\n        /* \"#utility.yul\":7215:7220   */\n      dup4\n        /* \"#utility.yul\":7211:7227   */\n      add\n        /* \"#utility.yul\":7205:7228   */\n      mload\n        /* \"#utility.yul\":7275:7278   */\n      dup5\n        /* \"#utility.yul\":7269:7273   */\n      dup3\n        /* \"#utility.yul\":7265:7279   */\n      sub\n        /* \"#utility.yul\":7258:7262   */\n      0x00\n        /* \"#utility.yul\":7253:7256   */\n      dup7\n        /* \"#utility.yul\":7249:7263   */\n      add\n        /* \"#utility.yul\":7242:7280   */\n      mstore\n        /* \"#utility.yul\":7301:7374   */\n      tag_213\n        /* \"#utility.yul\":7369:7373   */\n      dup3\n        /* \"#utility.yul\":7355:7367   */\n      dup3\n        /* \"#utility.yul\":7301:7374   */\n      tag_115\n      jump\t// in\n    tag_213:\n        /* \"#utility.yul\":7293:7374   */\n      swap2\n      pop\n        /* \"#utility.yul\":7150:7385   */\n      pop\n        /* \"#utility.yul\":7467:7471   */\n      0x20\n        /* \"#utility.yul\":7460:7465   */\n      dup4\n        /* \"#utility.yul\":7456:7472   */\n      add\n        /* \"#utility.yul\":7450:7473   */\n      mload\n        /* \"#utility.yul\":7520:7523   */\n      dup5\n        /* \"#utility.yul\":7514:7518   */\n      dup3\n        /* \"#utility.yul\":7510:7524   */\n      sub\n        /* \"#utility.yul\":7503:7507   */\n      0x20\n        /* \"#utility.yul\":7498:7501   */\n      dup7\n        /* \"#utility.yul\":7494:7508   */\n      add\n        /* \"#utility.yul\":7487:7525   */\n      mstore\n        /* \"#utility.yul\":7546:7619   */\n      tag_214\n        /* \"#utility.yul\":7614:7618   */\n      dup3\n        /* \"#utility.yul\":7600:7612   */\n      dup3\n        /* \"#utility.yul\":7546:7619   */\n      tag_115\n      jump\t// in\n    tag_214:\n        /* \"#utility.yul\":7538:7619   */\n      swap2\n      pop\n        /* \"#utility.yul\":7395:7630   */\n      pop\n        /* \"#utility.yul\":7713:7717   */\n      0x40\n        /* \"#utility.yul\":7706:7711   */\n      dup4\n        /* \"#utility.yul\":7702:7718   */\n      add\n        /* \"#utility.yul\":7696:7719   */\n      mload\n        /* \"#utility.yul\":7732:7795   */\n      tag_215\n        /* \"#utility.yul\":7789:7793   */\n      0x40\n        /* \"#utility.yul\":7784:7787   */\n      dup7\n        /* \"#utility.yul\":7780:7794   */\n      add\n        /* \"#utility.yul\":7766:7778   */\n      dup3\n        /* \"#utility.yul\":7732:7795   */\n      tag_119\n      jump\t// in\n    tag_215:\n        /* \"#utility.yul\":7640:7805   */\n      pop\n        /* \"#utility.yul\":7822:7826   */\n      dup1\n        /* \"#utility.yul\":7815:7826   */\n      swap2\n      pop\n        /* \"#utility.yul\":7104:7832   */\n      pop\n        /* \"#utility.yul\":6990:7832   */\n      swap3\n      swap2\n      pop\n      pop\n      jump\t// out\n        /* \"#utility.yul\":7838:8094   */\n    tag_121:\n        /* \"#utility.yul\":7957:7967   */\n      0x00\n        /* \"#utility.yul\":7992:8088   */\n      tag_217\n        /* \"#utility.yul\":8084:8087   */\n      dup4\n        /* \"#utility.yul\":8076:8082   */\n      dup4\n        /* \"#utility.yul\":7992:8088   */\n      tag_120\n      jump\t// in\n    tag_217:\n        /* \"#utility.yul\":7978:8088   */\n      swap1\n      pop\n        /* \"#utility.yul\":7838:8094   */\n      swap3\n      swap2\n      pop\n      pop\n      jump\t// out\n        /* \"#utility.yul\":8100:8238   */\n    tag_122:\n        /* \"#utility.yul\":8195:8199   */\n      0x00\n        /* \"#utility.yul\":8227:8231   */\n      0x20\n        /* \"#utility.yul\":8222:8225   */\n      dup3\n        /* \"#utility.yul\":8218:8232   */\n      add\n        /* \"#utility.yul\":8210:8232   */\n      swap1\n      pop\n        /* \"#utility.yul\":8100:8238   */\n      swap2\n      swap1\n      pop\n      jump\t// out\n        /* \"#utility.yul\":8306:9397   */\n    tag_123:\n        /* \"#utility.yul\":8465:8468   */\n      0x00\n        /* \"#utility.yul\":8494:8573   */\n      tag_220\n        /* \"#utility.yul\":8567:8572   */\n      dup3\n        /* \"#utility.yul\":8494:8573   */\n      tag_116\n      jump\t// in\n    tag_220:\n        /* \"#utility.yul\":8589:8690   */\n      tag_221\n        /* \"#utility.yul\":8683:8689   */\n      dup2\n        /* \"#utility.yul\":8678:8681   */\n      dup6\n        /* \"#utility.yul\":8589:8690   */\n      tag_117\n      jump\t// in\n    tag_221:\n        /* \"#utility.yul\":8582:8690   */\n      swap4\n      pop\n        /* \"#utility.yul\":8716:8719   */\n      dup4\n        /* \"#utility.yul\":8761:8765   */\n      0x20\n        /* \"#utility.yul\":8753:8759   */\n      dup3\n        /* \"#utility.yul\":8749:8766   */\n      mul\n        /* \"#utility.yul\":8744:8747   */\n      dup6\n        /* \"#utility.yul\":8740:8767   */\n      add\n        /* \"#utility.yul\":8791:8872   */\n      tag_222\n        /* \"#utility.yul\":8866:8871   */\n      dup6\n        /* \"#utility.yul\":8791:8872   */\n      tag_118\n      jump\t// in\n    tag_222:\n        /* \"#utility.yul\":8895:8902   */\n      dup1\n        /* \"#utility.yul\":8926:8927   */\n      0x00\n        /* \"#utility.yul\":8911:9352   */\n    tag_223:\n        /* \"#utility.yul\":8936:8942   */\n      dup6\n        /* \"#utility.yul\":8933:8934   */\n      dup2\n        /* \"#utility.yul\":8930:8943   */\n      lt\n        /* \"#utility.yul\":8911:9352   */\n      iszero\n      tag_225\n      jumpi\n        /* \"#utility.yul\":9007:9016   */\n      dup5\n        /* \"#utility.yul\":9001:9005   */\n      dup5\n        /* \"#utility.yul\":8997:9017   */\n      sub\n        /* \"#utility.yul\":8992:8995   */\n      dup10\n        /* \"#utility.yul\":8985:9018   */\n      mstore\n        /* \"#utility.yul\":9058:9064   */\n      dup2\n        /* \"#utility.yul\":9052:9065   */\n      mload\n        /* \"#utility.yul\":9086:9200   */\n      tag_226\n        /* \"#utility.yul\":9195:9199   */\n      dup6\n        /* \"#utility.yul\":9180:9193   */\n      dup3\n        /* \"#utility.yul\":9086:9200   */\n      tag_121\n      jump\t// in\n    tag_226:\n        /* \"#utility.yul\":9078:9200   */\n      swap5\n      pop\n        /* \"#utility.yul\":9223:9308   */\n      tag_227\n        /* \"#utility.yul\":9301:9307   */\n      dup4\n        /* \"#utility.yul\":9223:9308   */\n      tag_122\n      jump\t// in\n    tag_227:\n        /* \"#utility.yul\":9213:9308   */\n      swap3\n      pop\n        /* \"#utility.yul\":9337:9341   */\n      0x20\n        /* \"#utility.yul\":9332:9335   */\n      dup11\n        /* \"#utility.yul\":9328:9342   */\n      add\n        /* \"#utility.yul\":9321:9342   */\n      swap10\n      pop\n        /* \"#utility.yul\":8971:9352   */\n      pop\n        /* \"#utility.yul\":8958:8959   */\n      0x01\n        /* \"#utility.yul\":8955:8956   */\n      dup2\n        /* \"#utility.yul\":8951:8960   */\n      add\n        /* \"#utility.yul\":8946:8960   */\n      swap1\n      pop\n        /* \"#utility.yul\":8911:9352   */\n      jump(tag_223)\n    tag_225:\n        /* \"#utility.yul\":8915:8929   */\n      pop\n        /* \"#utility.yul\":9368:9372   */\n      dup3\n        /* \"#utility.yul\":9361:9372   */\n      swap8\n      pop\n        /* \"#utility.yul\":9388:9391   */\n      dup8\n        /* \"#utility.yul\":9381:9391   */\n      swap6\n      pop\n        /* \"#utility.yul\":8470:9397   */\n      pop\n      pop\n      pop\n      pop\n      pop\n        /* \"#utility.yul\":8306:9397   */\n      swap3\n      swap2\n      pop\n      pop\n      jump\t// out\n        /* \"#utility.yul\":9459:10220   */\n    tag_124:\n        /* \"#utility.yul\":9576:9579   */\n      0x00\n        /* \"#utility.yul\":9612:9616   */\n      0x40\n        /* \"#utility.yul\":9607:9610   */\n      dup4\n        /* \"#utility.yul\":9603:9617   */\n      add\n        /* \"#utility.yul\":9699:9703   */\n      0x00\n        /* \"#utility.yul\":9692:9697   */\n      dup4\n        /* \"#utility.yul\":9688:9704   */\n      add\n        /* \"#utility.yul\":9682:9705   */\n      mload\n        /* \"#utility.yul\":9752:9755   */\n      dup5\n        /* \"#utility.yul\":9746:9750   */\n      dup3\n        /* \"#utility.yul\":9742:9756   */\n      sub\n        /* \"#utility.yul\":9735:9739   */\n      0x00\n        /* \"#utility.yul\":9730:9733   */\n      dup7\n        /* \"#utility.yul\":9726:9740   */\n      add\n        /* \"#utility.yul\":9719:9757   */\n      mstore\n        /* \"#utility.yul\":9778:9851   */\n      tag_229\n        /* \"#utility.yul\":9846:9850   */\n      dup3\n        /* \"#utility.yul\":9832:9844   */\n      dup3\n        /* \"#utility.yul\":9778:9851   */\n      tag_115\n      jump\t// in\n    tag_229:\n        /* \"#utility.yul\":9770:9851   */\n      swap2\n      pop\n        /* \"#utility.yul\":9627:9862   */\n      pop\n        /* \"#utility.yul\":9950:9954   */\n      0x20\n        /* \"#utility.yul\":9943:9948   */\n      dup4\n        /* \"#utility.yul\":9939:9955   */\n      add\n        /* \"#utility.yul\":9933:9956   */\n      mload\n        /* \"#utility.yul\":10003:10006   */\n      dup5\n        /* \"#utility.yul\":9997:10001   */\n      dup3\n        /* \"#utility.yul\":9993:10007   */\n      sub\n        /* \"#utility.yul\":9986:9990   */\n      0x20\n        /* \"#utility.yul\":9981:9984   */\n      dup7\n        /* \"#utility.yul\":9977:9991   */\n      add\n        /* \"#utility.yul\":9970:10008   */\n      mstore\n        /* \"#utility.yul\":10029:10182   */\n      tag_230\n        /* \"#utility.yul\":10177:10181   */\n      dup3\n        /* \"#utility.yul\":10163:10175   */\n      dup3\n        /* \"#utility.yul\":10029:10182   */\n      tag_123\n      jump\t// in\n    tag_230:\n        /* \"#utility.yul\":10021:10182   */\n      swap2\n      pop\n        /* \"#utility.yul\":9872:10193   */\n      pop\n        /* \"#utility.yul\":10210:10214   */\n      dup1\n        /* \"#utility.yul\":10203:10214   */\n      swap2\n      pop\n        /* \"#utility.yul\":9581:10220   */\n      pop\n        /* \"#utility.yul\":9459:10220   */\n      swap3\n      swap2\n      pop\n      pop\n      jump\t// out\n        /* \"#utility.yul\":10226:10595   */\n    tag_26:\n        /* \"#utility.yul\":10367:10371   */\n      0x00\n        /* \"#utility.yul\":10405:10407   */\n      0x20\n        /* \"#utility.yul\":10394:10403   */\n      dup3\n        /* \"#utility.yul\":10390:10408   */\n      add\n        /* \"#utility.yul\":10382:10408   */\n      swap1\n      pop\n        /* \"#utility.yul\":10454:10463   */\n      dup2\n        /* \"#utility.yul\":10448:10452   */\n      dup2\n        /* \"#utility.yul\":10444:10464   */\n      sub\n        /* \"#utility.yul\":10440:10441   */\n      0x00\n        /* \"#utility.yul\":10429:10438   */\n      dup4\n        /* \"#utility.yul\":10425:10442   */\n      add\n        /* \"#utility.yul\":10418:10465   */\n      mstore\n        /* \"#utility.yul\":10482:10588   */\n      tag_232\n        /* \"#utility.yul\":10583:10587   */\n      dup2\n        /* \"#utility.yul\":10574:10580   */\n      dup5\n        /* \"#utility.yul\":10482:10588   */\n      tag_124\n      jump\t// in\n    tag_232:\n        /* \"#utility.yul\":10474:10588   */\n      swap1\n      pop\n        /* \"#utility.yul\":10226:10595   */\n      swap3\n      swap2\n      pop\n      pop\n      jump\t// out\n        /* \"#utility.yul\":10601:10727   */\n    tag_125:\n        /* \"#utility.yul\":10638:10645   */\n      0x00\n        /* \"#utility.yul\":10678:10720   */\n      0xffffffffffffffffffffffffffffffffffffffff\n        /* \"#utility.yul\":10671:10676   */\n      dup3\n        /* \"#utility.yul\":10667:10721   */\n      and\n        /* \"#utility.yul\":10656:10721   */\n      swap1\n      pop\n        /* \"#utility.yul\":10601:10727   */\n      swap2\n      swap1\n      pop\n      jump\t// out\n        /* \"#utility.yul\":10733:10829   */\n    tag_126:\n        /* \"#utility.yul\":10770:10777   */\n      0x00\n        /* \"#utility.yul\":10799:10823   */\n      tag_235\n        /* \"#utility.yul\":10817:10822   */\n      dup3\n        /* \"#utility.yul\":10799:10823   */\n      tag_125\n      jump\t// in\n    tag_235:\n        /* \"#utility.yul\":10788:10823   */\n      swap1\n      pop\n        /* \"#utility.yul\":10733:10829   */\n      swap2\n      swap1\n      pop\n      jump\t// out\n        /* \"#utility.yul\":10835:10953   */\n    tag_127:\n        /* \"#utility.yul\":10922:10946   */\n      tag_237\n        /* \"#utility.yul\":10940:10945   */\n      dup2\n        /* \"#utility.yul\":10922:10946   */\n      tag_126\n      jump\t// in\n    tag_237:\n        /* \"#utility.yul\":10917:10920   */\n      dup3\n        /* \"#utility.yul\":10910:10947   */\n      mstore\n        /* \"#utility.yul\":10835:10953   */\n      pop\n      pop\n      jump\t// out\n        /* \"#utility.yul\":10959:11181   */\n    tag_30:\n        /* \"#utility.yul\":11052:11056   */\n      0x00\n        /* \"#utility.yul\":11090:11092   */\n      0x20\n        /* \"#utility.yul\":11079:11088   */\n      dup3\n        /* \"#utility.yul\":11075:11093   */\n      add\n        /* \"#utility.yul\":11067:11093   */\n      swap1\n      pop\n        /* \"#utility.yul\":11103:11174   */\n      tag_239\n        /* \"#utility.yul\":11171:11172   */\n      0x00\n        /* \"#utility.yul\":11160:11169   */\n      dup4\n        /* \"#utility.yul\":11156:11173   */\n      add\n        /* \"#utility.yul\":11147:11153   */\n      dup5\n        /* \"#utility.yul\":11103:11174   */\n      tag_127\n      jump\t// in\n    tag_239:\n        /* \"#utility.yul\":10959:11181   */\n      swap3\n      swap2\n      pop\n      pop\n      jump\t// out\n        /* \"#utility.yul\":11187:11367   */\n    tag_128:\n        /* \"#utility.yul\":11235:11312   */\n      0x4e487b7100000000000000000000000000000000000000000000000000000000\n        /* \"#utility.yul\":11232:11233   */\n      0x00\n        /* \"#utility.yul\":11225:11313   */\n      mstore\n        /* \"#utility.yul\":11332:11336   */\n      0x22\n        /* \"#utility.yul\":11329:11330   */\n      0x04\n        /* \"#utility.yul\":11322:11337   */\n      mstore\n        /* \"#utility.yul\":11356:11360   */\n      0x24\n        /* \"#utility.yul\":11353:11354   */\n      0x00\n        /* \"#utility.yul\":11346:11361   */\n      revert\n        /* \"#utility.yul\":11373:11693   */\n    tag_32:\n        /* \"#utility.yul\":11417:11423   */\n      0x00\n        /* \"#utility.yul\":11454:11455   */\n      0x02\n        /* \"#utility.yul\":11448:11452   */\n      dup3\n        /* \"#utility.yul\":11444:11456   */\n      div\n        /* \"#utility.yul\":11434:11456   */\n      swap1\n      pop\n        /* \"#utility.yul\":11501:11502   */\n      0x01\n        /* \"#utility.yul\":11495:11499   */\n      dup3\n        /* \"#utility.yul\":11491:11503   */\n      and\n        /* \"#utility.yul\":11522:11540   */\n      dup1\n        /* \"#utility.yul\":11512:11593   */\n      tag_242\n      jumpi\n        /* \"#utility.yul\":11578:11582   */\n      0x7f\n        /* \"#utility.yul\":11570:11576   */\n      dup3\n        /* \"#utility.yul\":11566:11583   */\n      and\n        /* \"#utility.yul\":11556:11583   */\n      swap2\n      pop\n        /* \"#utility.yul\":11512:11593   */\n    tag_242:\n        /* \"#utility.yul\":11640:11642   */\n      0x20\n        /* \"#utility.yul\":11632:11638   */\n      dup3\n        /* \"#utility.yul\":11629:11643   */\n      lt\n        /* \"#utility.yul\":11609:11627   */\n      dup2\n        /* \"#utility.yul\":11606:11644   */\n      sub\n        /* \"#utility.yul\":11603:11687   */\n      tag_243\n      jumpi\n        /* \"#utility.yul\":11659:11677   */\n      tag_244\n      tag_128\n      jump\t// in\n    tag_244:\n        /* \"#utility.yul\":11603:11687   */\n    tag_243:\n        /* \"#utility.yul\":11424:11693   */\n      pop\n        /* \"#utility.yul\":11373:11693   */\n      swap2\n      swap1\n      pop\n      jump\t// out\n        /* \"#utility.yul\":11699:11880   */\n    tag_129:\n        /* \"#utility.yul\":11839:11872   */\n      0x4f6e6c792061646d696e2063616e20737461727420612063616d706169676e00\n        /* \"#utility.yul\":11835:11836   */\n      0x00\n        /* \"#utility.yul\":11827:11833   */\n      dup3\n        /* \"#utility.yul\":11823:11837   */\n      add\n        /* \"#utility.yul\":11816:11873   */\n      mstore\n        /* \"#utility.yul\":11699:11880   */\n      pop\n      jump\t// out\n        /* \"#utility.yul\":11886:12252   */\n    tag_130:\n        /* \"#utility.yul\":12028:12031   */\n      0x00\n        /* \"#utility.yul\":12049:12116   */\n      tag_247\n        /* \"#utility.yul\":12113:12115   */\n      0x1f\n        /* \"#utility.yul\":12108:12111   */\n      dup4\n        /* \"#utility.yul\":12049:12116   */\n      tag_107\n      jump\t// in\n    tag_247:\n        /* \"#utility.yul\":12042:12116   */\n      swap2\n      pop\n        /* \"#utility.yul\":12125:12218   */\n      tag_248\n        /* \"#utility.yul\":12214:12217   */\n      dup3\n        /* \"#utility.yul\":12125:12218   */\n      tag_129\n      jump\t// in\n    tag_248:\n        /* \"#utility.yul\":12243:12245   */\n      0x20\n        /* \"#utility.yul\":12238:12241   */\n      dup3\n        /* \"#utility.yul\":12234:12246   */\n      add\n        /* \"#utility.yul\":12227:12246   */\n      swap1\n      pop\n        /* \"#utility.yul\":11886:12252   */\n      swap2\n      swap1\n      pop\n      jump\t// out\n        /* \"#utility.yul\":12258:12677   */\n    tag_40:\n        /* \"#utility.yul\":12424:12428   */\n      0x00\n        /* \"#utility.yul\":12462:12464   */\n      0x20\n        /* \"#utility.yul\":12451:12460   */\n      dup3\n        /* \"#utility.yul\":12447:12465   */\n      add\n        /* \"#utility.yul\":12439:12465   */\n      swap1\n      pop\n        /* \"#utility.yul\":12511:12520   */\n      dup2\n        /* \"#utility.yul\":12505:12509   */\n      dup2\n        /* \"#utility.yul\":12501:12521   */\n      sub\n        /* \"#utility.yul\":12497:12498   */\n      0x00\n        /* \"#utility.yul\":12486:12495   */\n      dup4\n        /* \"#utility.yul\":12482:12499   */\n      add\n        /* \"#utility.yul\":12475:12522   */\n      mstore\n        /* \"#utility.yul\":12539:12670   */\n      tag_250\n        /* \"#utility.yul\":12665:12669   */\n      dup2\n        /* \"#utility.yul\":12539:12670   */\n      tag_130\n      jump\t// in\n    tag_250:\n        /* \"#utility.yul\":12531:12670   */\n      swap1\n      pop\n        /* \"#utility.yul\":12258:12677   */\n      swap2\n      swap1\n      pop\n      jump\t// out\n        /* \"#utility.yul\":12683:12831   */\n    tag_131:\n        /* \"#utility.yul\":12785:12796   */\n      0x00\n        /* \"#utility.yul\":12822:12825   */\n      dup2\n        /* \"#utility.yul\":12807:12825   */\n      swap1\n      pop\n        /* \"#utility.yul\":12683:12831   */\n      swap3\n      swap2\n      pop\n      pop\n      jump\t// out\n        /* \"#utility.yul\":12837:13214   */\n    tag_132:\n        /* \"#utility.yul\":12943:12946   */\n      0x00\n        /* \"#utility.yul\":12971:13010   */\n      tag_253\n        /* \"#utility.yul\":13004:13009   */\n      dup3\n        /* \"#utility.yul\":12971:13010   */\n      tag_106\n      jump\t// in\n    tag_253:\n        /* \"#utility.yul\":13026:13115   */\n      tag_254\n        /* \"#utility.yul\":13108:13114   */\n      dup2\n        /* \"#utility.yul\":13103:13106   */\n      dup6\n        /* \"#utility.yul\":13026:13115   */\n      tag_131\n      jump\t// in\n    tag_254:\n        /* \"#utility.yul\":13019:13115   */\n      swap4\n      pop\n        /* \"#utility.yul\":13124:13176   */\n      tag_255\n        /* \"#utility.yul\":13169:13175   */\n      dup2\n        /* \"#utility.yul\":13164:13167   */\n      dup6\n        /* \"#utility.yul\":13157:13161   */\n      0x20\n        /* \"#utility.yul\":13150:13155   */\n      dup7\n        /* \"#utility.yul\":13146:13162   */\n      add\n        /* \"#utility.yul\":13124:13176   */\n      tag_108\n      jump\t// in\n    tag_255:\n        /* \"#utility.yul\":13201:13207   */\n      dup1\n        /* \"#utility.yul\":13196:13199   */\n      dup5\n        /* \"#utility.yul\":13192:13208   */\n      add\n        /* \"#utility.yul\":13185:13208   */\n      swap2\n      pop\n        /* \"#utility.yul\":12947:13214   */\n      pop\n        /* \"#utility.yul\":12837:13214   */\n      swap3\n      swap2\n      pop\n      pop\n      jump\t// out\n        /* \"#utility.yul\":13220:13495   */\n    tag_42:\n        /* \"#utility.yul\":13352:13355   */\n      0x00\n        /* \"#utility.yul\":13374:13469   */\n      tag_257\n        /* \"#utility.yul\":13465:13468   */\n      dup3\n        /* \"#utility.yul\":13456:13462   */\n      dup5\n        /* \"#utility.yul\":13374:13469   */\n      tag_132\n      jump\t// in\n    tag_257:\n        /* \"#utility.yul\":13367:13469   */\n      swap2\n      pop\n        /* \"#utility.yul\":13486:13489   */\n      dup2\n        /* \"#utility.yul\":13479:13489   */\n      swap1\n      pop\n        /* \"#utility.yul\":13220:13495   */\n      swap3\n      swap2\n      pop\n      pop\n      jump\t// out\n        /* \"#utility.yul\":13501:13655   */\n    tag_133:\n        /* \"#utility.yul\":13641:13647   */\n      0x3131323200000000000000000000000000000000000000000000000000000000\n        /* \"#utility.yul\":13637:13638   */\n      0x00\n        /* \"#utility.yul\":13629:13635   */\n      dup3\n        /* \"#utility.yul\":13625:13639   */\n      add\n        /* \"#utility.yul\":13618:13648   */\n      mstore\n        /* \"#utility.yul\":13501:13655   */\n      pop\n      jump\t// out\n        /* \"#utility.yul\":13661:14061   */\n    tag_134:\n        /* \"#utility.yul\":13821:13824   */\n      0x00\n        /* \"#utility.yul\":13842:13926   */\n      tag_260\n        /* \"#utility.yul\":13924:13925   */\n      0x04\n        /* \"#utility.yul\":13919:13922   */\n      dup4\n        /* \"#utility.yul\":13842:13926   */\n      tag_131\n      jump\t// in\n    tag_260:\n        /* \"#utility.yul\":13835:13926   */\n      swap2\n      pop\n        /* \"#utility.yul\":13935:14028   */\n      tag_261\n        /* \"#utility.yul\":14024:14027   */\n      dup3\n        /* \"#utility.yul\":13935:14028   */\n      tag_133\n      jump\t// in\n    tag_261:\n        /* \"#utility.yul\":14053:14054   */\n      0x04\n        /* \"#utility.yul\":14048:14051   */\n      dup3\n        /* \"#utility.yul\":14044:14055   */\n      add\n        /* \"#utility.yul\":14037:14055   */\n      swap1\n      pop\n        /* \"#utility.yul\":13661:14061   */\n      swap2\n      swap1\n      pop\n      jump\t// out\n        /* \"#utility.yul\":14067:14448   */\n    tag_64:\n        /* \"#utility.yul\":14252:14255   */\n      0x00\n        /* \"#utility.yul\":14274:14422   */\n      tag_263\n        /* \"#utility.yul\":14418:14421   */\n      dup3\n        /* \"#utility.yul\":14274:14422   */\n      tag_134\n      jump\t// in\n    tag_263:\n        /* \"#utility.yul\":14267:14422   */\n      swap2\n      pop\n        /* \"#utility.yul\":14439:14442   */\n      dup2\n        /* \"#utility.yul\":14432:14442   */\n      swap1\n      pop\n        /* \"#utility.yul\":14067:14448   */\n      swap2\n      swap1\n      pop\n      jump\t// out\n\n    auxdata: 0xa264697066735822122092f2760550f3b3b8aaba9ad77e91cc99e0f5fa45e066c8093ec5ad428e0b5c5e64736f6c634300080d0033\n}\n",
				"bytecode": {
					"linkReferences": {},
					"object": "608060405234801561001057600080fd5b5033600260006101000a81548173ffffffffffffffffffffffffffffffffffffffff021916908373ffffffffffffffffffffffffffffffffffffffff160217905550610f07806100616000396000f3fe608060405234801561001057600080fd5b50600436106100575760003560e01c80631d39e5091461005c578063202e7be41461008c5780633477ee2e146100a857806386cdf604146100da578063f851a440146100f8575b600080fd5b61007660048036038101906100719190610973565b610116565b6040516100839190610a44565b60405180910390f35b6100a660048036038101906100a19190610973565b6101d2565b005b6100c260048036038101906100bd9190610a9c565b610399565b6040516100d193929190610ad8565b60405180910390f35b6100e26104e3565b6040516100ef9190610cd3565b60405180910390f35b610100610736565b60405161010d9190610d36565b60405180910390f35b60008180516020810182018051848252602083016020850120818352809550505050505060009150905080600001805461014f90610d80565b80601f016020809104026020016040519081016040528092919081815260200182805461017b90610d80565b80156101c85780601f1061019d576101008083540402835291602001916101c8565b820191906000526020600020905b8154815290600101906020018083116101ab57829003601f168201915b5050505050905081565b600260009054906101000a900473ffffffffffffffffffffffffffffffffffffffff1673ffffffffffffffffffffffffffffffffffffffff163373ffffffffffffffffffffffffffffffffffffffff1614610262576040517f08c379a000000000000000000000000000000000000000000000000000000000815260040161025990610dfd565b60405180910390fd5b600080826040516102739190610e59565b908152602001604051809103902090508181600001908051906020019061029b92919061075c565b508060010160405180606001604052806040518060400160405280600681526020017f6e616d652d31000000000000000000000000000000000000000000000000000081525081526020016040518060400160405280600681526020017f7369676e2d310000000000000000000000000000000000000000000000000000815250815260200160008152509080600181540180825580915050600190039060005260206000209060030201600090919091909150600082015181600001908051906020019061036b92919061075c565b50602082015181600101908051906020019061038892919061075c565b506040820151816002015550505050565b600181815481106103a957600080fd5b90600052602060002090600302016000915090508060000180546103cc90610d80565b80601f01602080910402602001604051908101604052809291908181526020018280546103f890610d80565b80156104455780601f1061041a57610100808354040283529160200191610445565b820191906000526020600020905b81548152906001019060200180831161042857829003601f168201915b50505050509080600101805461045a90610d80565b80601f016020809104026020016040519081016040528092919081815260200182805461048690610d80565b80156104d35780601f106104a8576101008083540402835291602001916104d3565b820191906000526020600020905b8154815290600101906020018083116104b657829003601f168201915b5050505050908060020154905083565b6104eb6107e2565b60006040516104f990610ebc565b908152602001604051809103902060405180604001604052908160008201805461052290610d80565b80601f016020809104026020016040519081016040528092919081815260200182805461054e90610d80565b801561059b5780601f106105705761010080835404028352916020019161059b565b820191906000526020600020905b81548152906001019060200180831161057e57829003601f168201915b5050505050815260200160018201805480602002602001604051908101604052809291908181526020016000905b8282101561072957838290600052602060002090600302016040518060600160405290816000820180546105fc90610d80565b80601f016020809104026020016040519081016040528092919081815260200182805461062890610d80565b80156106755780601f1061064a57610100808354040283529160200191610675565b820191906000526020600020905b81548152906001019060200180831161065857829003601f168201915b5050505050815260200160018201805461068e90610d80565b80601f01602080910402602001604051908101604052809291908181526020018280546106ba90610d80565b80156107075780601f106106dc57610100808354040283529160200191610707565b820191906000526020600020905b8154815290600101906020018083116106ea57829003601f168201915b50505050508152602001600282015481525050815260200190600101906105c9565b5050505081525050905090565b600260009054906101000a900473ffffffffffffffffffffffffffffffffffffffff1681565b82805461076890610d80565b90600052602060002090601f01602090048101928261078a57600085556107d1565b82601f106107a357805160ff19168380011785556107d1565b828001600101855582156107d1579182015b828111156107d05782518255916020019190600101906107b5565b5b5090506107de91906107fc565b5090565b604051806040016040528060608152602001606081525090565b5b808211156108155760008160009055506001016107fd565b5090565b6000604051905090565b600080fd5b600080fd5b600080fd5b600080fd5b6000601f19601f8301169050919050565b7f4e487b7100000000000000000000000000000000000000000000000000000000600052604160045260246000fd5b61088082610837565b810181811067ffffffffffffffff8211171561089f5761089e610848565b5b80604052505050565b60006108b2610819565b90506108be8282610877565b919050565b600067ffffffffffffffff8211156108de576108dd610848565b5b6108e782610837565b9050602081019050919050565b82818337600083830152505050565b6000610916610911846108c3565b6108a8565b90508281526020810184848401111561093257610931610832565b5b61093d8482856108f4565b509392505050565b600082601f83011261095a5761095961082d565b5b813561096a848260208601610903565b91505092915050565b60006020828403121561098957610988610823565b5b600082013567ffffffffffffffff8111156109a7576109a6610828565b5b6109b384828501610945565b91505092915050565b600081519050919050565b600082825260208201905092915050565b60005b838110156109f65780820151818401526020810190506109db565b83811115610a05576000848401525b50505050565b6000610a16826109bc565b610a2081856109c7565b9350610a308185602086016109d8565b610a3981610837565b840191505092915050565b60006020820190508181036000830152610a5e8184610a0b565b905092915050565b6000819050919050565b610a7981610a66565b8114610a8457600080fd5b50565b600081359050610a9681610a70565b92915050565b600060208284031215610ab257610ab1610823565b5b6000610ac084828501610a87565b91505092915050565b610ad281610a66565b82525050565b60006060820190508181036000830152610af28186610a0b565b90508181036020830152610b068185610a0b565b9050610b156040830184610ac9565b949350505050565b600082825260208201905092915050565b6000610b39826109bc565b610b438185610b1d565b9350610b538185602086016109d8565b610b5c81610837565b840191505092915050565b600081519050919050565b600082825260208201905092915050565b6000819050602082019050919050565b610b9c81610a66565b82525050565b60006060830160008301518482036000860152610bbf8282610b2e565b91505060208301518482036020860152610bd98282610b2e565b9150506040830151610bee6040860182610b93565b508091505092915050565b6000610c058383610ba2565b905092915050565b6000602082019050919050565b6000610c2582610b67565b610c2f8185610b72565b935083602082028501610c4185610b83565b8060005b85811015610c7d5784840389528151610c5e8582610bf9565b9450610c6983610c0d565b925060208a01995050600181019050610c45565b50829750879550505050505092915050565b60006040830160008301518482036000860152610cac8282610b2e565b91505060208301518482036020860152610cc68282610c1a565b9150508091505092915050565b60006020820190508181036000830152610ced8184610c8f565b905092915050565b600073ffffffffffffffffffffffffffffffffffffffff82169050919050565b6000610d2082610cf5565b9050919050565b610d3081610d15565b82525050565b6000602082019050610d4b6000830184610d27565b92915050565b7f4e487b7100000000000000000000000000000000000000000000000000000000600052602260045260246000fd5b60006002820490506001821680610d9857607f821691505b602082108103610dab57610daa610d51565b5b50919050565b7f4f6e6c792061646d696e2063616e20737461727420612063616d706169676e00600082015250565b6000610de7601f836109c7565b9150610df282610db1565b602082019050919050565b60006020820190508181036000830152610e1681610dda565b9050919050565b600081905092915050565b6000610e33826109bc565b610e3d8185610e1d565b9350610e4d8185602086016109d8565b80840191505092915050565b6000610e658284610e28565b915081905092915050565b7f3131323200000000000000000000000000000000000000000000000000000000600082015250565b6000610ea6600483610e1d565b9150610eb182610e70565b600482019050919050565b6000610ec782610e99565b915081905091905056fea264697066735822122092f2760550f3b3b8aaba9ad77e91cc99e0f5fa45e066c8093ec5ad428e0b5c5e64736f6c634300080d0033",
					"opcodes": "PUSH1 0x80 PUSH1 0x40 MSTORE CALLVALUE DUP1 ISZERO PUSH2 0x10 JUMPI PUSH1 0x0 DUP1 REVERT JUMPDEST POP CALLER PUSH1 0x2 PUSH1 0x0 PUSH2 0x100 EXP DUP2 SLOAD DUP2 PUSH20 0xFFFFFFFFFFFFFFFFFFFFFFFFFFFFFFFFFFFFFFFF MUL NOT AND SWAP1 DUP4 PUSH20 0xFFFFFFFFFFFFFFFFFFFFFFFFFFFFFFFFFFFFFFFF AND MUL OR SWAP1 SSTORE POP PUSH2 0xF07 DUP1 PUSH2 0x61 PUSH1 0x0 CODECOPY PUSH1 0x0 RETURN INVALID PUSH1 0x80 PUSH1 0x40 MSTORE CALLVALUE DUP1 ISZERO PUSH2 0x10 JUMPI PUSH1 0x0 DUP1 REVERT JUMPDEST POP PUSH1 0x4 CALLDATASIZE LT PUSH2 0x57 JUMPI PUSH1 0x0 CALLDATALOAD PUSH1 0xE0 SHR DUP1 PUSH4 0x1D39E509 EQ PUSH2 0x5C JUMPI DUP1 PUSH4 0x202E7BE4 EQ PUSH2 0x8C JUMPI DUP1 PUSH4 0x3477EE2E EQ PUSH2 0xA8 JUMPI DUP1 PUSH4 0x86CDF604 EQ PUSH2 0xDA JUMPI DUP1 PUSH4 0xF851A440 EQ PUSH2 0xF8 JUMPI JUMPDEST PUSH1 0x0 DUP1 REVERT JUMPDEST PUSH2 0x76 PUSH1 0x4 DUP1 CALLDATASIZE SUB DUP2 ADD SWAP1 PUSH2 0x71 SWAP2 SWAP1 PUSH2 0x973 JUMP JUMPDEST PUSH2 0x116 JUMP JUMPDEST PUSH1 0x40 MLOAD PUSH2 0x83 SWAP2 SWAP1 PUSH2 0xA44 JUMP JUMPDEST PUSH1 0x40 MLOAD DUP1 SWAP2 SUB SWAP1 RETURN JUMPDEST PUSH2 0xA6 PUSH1 0x4 DUP1 CALLDATASIZE SUB DUP2 ADD SWAP1 PUSH2 0xA1 SWAP2 SWAP1 PUSH2 0x973 JUMP JUMPDEST PUSH2 0x1D2 JUMP JUMPDEST STOP JUMPDEST PUSH2 0xC2 PUSH1 0x4 DUP1 CALLDATASIZE SUB DUP2 ADD SWAP1 PUSH2 0xBD SWAP2 SWAP1 PUSH2 0xA9C JUMP JUMPDEST PUSH2 0x399 JUMP JUMPDEST PUSH1 0x40 MLOAD PUSH2 0xD1 SWAP4 SWAP3 SWAP2 SWAP1 PUSH2 0xAD8 JUMP JUMPDEST PUSH1 0x40 MLOAD DUP1 SWAP2 SUB SWAP1 RETURN JUMPDEST PUSH2 0xE2 PUSH2 0x4E3 JUMP JUMPDEST PUSH1 0x40 MLOAD PUSH2 0xEF SWAP2 SWAP1 PUSH2 0xCD3 JUMP JUMPDEST PUSH1 0x40 MLOAD DUP1 SWAP2 SUB SWAP1 RETURN JUMPDEST PUSH2 0x100 PUSH2 0x736 JUMP JUMPDEST PUSH1 0x40 MLOAD PUSH2 0x10D SWAP2 SWAP1 PUSH2 0xD36 JUMP JUMPDEST PUSH1 0x40 MLOAD DUP1 SWAP2 SUB SWAP1 RETURN JUMPDEST PUSH1 0x0 DUP2 DUP1 MLOAD PUSH1 0x20 DUP2 ADD DUP3 ADD DUP1 MLOAD DUP5 DUP3 MSTORE PUSH1 0x20 DUP4 ADD PUSH1 0x20 DUP6 ADD KECCAK256 DUP2 DUP4 MSTORE DUP1 SWAP6 POP POP POP POP POP POP PUSH1 0x0 SWAP2 POP SWAP1 POP DUP1 PUSH1 0x0 ADD DUP1 SLOAD PUSH2 0x14F SWAP1 PUSH2 0xD80 JUMP JUMPDEST DUP1 PUSH1 0x1F ADD PUSH1 0x20 DUP1 SWAP2 DIV MUL PUSH1 0x20 ADD PUSH1 0x40 MLOAD SWAP1 DUP2 ADD PUSH1 0x40 MSTORE DUP1 SWAP3 SWAP2 SWAP1 DUP2 DUP2 MSTORE PUSH1 0x20 ADD DUP3 DUP1 SLOAD PUSH2 0x17B SWAP1 PUSH2 0xD80 JUMP JUMPDEST DUP1 ISZERO PUSH2 0x1C8 JUMPI DUP1 PUSH1 0x1F LT PUSH2 0x19D JUMPI PUSH2 0x100 DUP1 DUP4 SLOAD DIV MUL DUP4 MSTORE SWAP2 PUSH1 0x20 ADD SWAP2 PUSH2 0x1C8 JUMP JUMPDEST DUP3 ADD SWAP2 SWAP1 PUSH1 0x0 MSTORE PUSH1 0x20 PUSH1 0x0 KECCAK256 SWAP1 JUMPDEST DUP2 SLOAD DUP2 MSTORE SWAP1 PUSH1 0x1 ADD SWAP1 PUSH1 0x20 ADD DUP1 DUP4 GT PUSH2 0x1AB JUMPI DUP3 SWAP1 SUB PUSH1 0x1F AND DUP3 ADD SWAP2 JUMPDEST POP POP POP POP POP SWAP1 POP DUP2 JUMP JUMPDEST PUSH1 0x2 PUSH1 0x0 SWAP1 SLOAD SWAP1 PUSH2 0x100 EXP SWAP1 DIV PUSH20 0xFFFFFFFFFFFFFFFFFFFFFFFFFFFFFFFFFFFFFFFF AND PUSH20 0xFFFFFFFFFFFFFFFFFFFFFFFFFFFFFFFFFFFFFFFF AND CALLER PUSH20 0xFFFFFFFFFFFFFFFFFFFFFFFFFFFFFFFFFFFFFFFF AND EQ PUSH2 0x262 JUMPI PUSH1 0x40 MLOAD PUSH32 0x8C379A000000000000000000000000000000000000000000000000000000000 DUP2 MSTORE PUSH1 0x4 ADD PUSH2 0x259 SWAP1 PUSH2 0xDFD JUMP JUMPDEST PUSH1 0x40 MLOAD DUP1 SWAP2 SUB SWAP1 REVERT JUMPDEST PUSH1 0x0 DUP1 DUP3 PUSH1 0x40 MLOAD PUSH2 0x273 SWAP2 SWAP1 PUSH2 0xE59 JUMP JUMPDEST SWAP1 DUP2 MSTORE PUSH1 0x20 ADD PUSH1 0x40 MLOAD DUP1 SWAP2 SUB SWAP1 KECCAK256 SWAP1 POP DUP2 DUP2 PUSH1 0x0 ADD SWAP1 DUP1 MLOAD SWAP1 PUSH1 0x20 ADD SWAP1 PUSH2 0x29B SWAP3 SWAP2 SWAP1 PUSH2 0x75C JUMP JUMPDEST POP DUP1 PUSH1 0x1 ADD PUSH1 0x40 MLOAD DUP1 PUSH1 0x60 ADD PUSH1 0x40 MSTORE DUP1 PUSH1 0x40 MLOAD DUP1 PUSH1 0x40 ADD PUSH1 0x40 MSTORE DUP1 PUSH1 0x6 DUP2 MSTORE PUSH1 0x20 ADD PUSH32 0x6E616D652D310000000000000000000000000000000000000000000000000000 DUP2 MSTORE POP DUP2 MSTORE PUSH1 0x20 ADD PUSH1 0x40 MLOAD DUP1 PUSH1 0x40 ADD PUSH1 0x40 MSTORE DUP1 PUSH1 0x6 DUP2 MSTORE PUSH1 0x20 ADD PUSH32 0x7369676E2D310000000000000000000000000000000000000000000000000000 DUP2 MSTORE POP DUP2 MSTORE PUSH1 0x20 ADD PUSH1 0x0 DUP2 MSTORE POP SWAP1 DUP1 PUSH1 0x1 DUP2 SLOAD ADD DUP1 DUP3 SSTORE DUP1 SWAP2 POP POP PUSH1 0x1 SWAP1 SUB SWAP1 PUSH1 0x0 MSTORE PUSH1 0x20 PUSH1 0x0 KECCAK256 SWAP1 PUSH1 0x3 MUL ADD PUSH1 0x0 SWAP1 SWAP2 SWAP1 SWAP2 SWAP1 SWAP2 POP PUSH1 0x0 DUP3 ADD MLOAD DUP2 PUSH1 0x0 ADD SWAP1 DUP1 MLOAD SWAP1 PUSH1 0x20 ADD SWAP1 PUSH2 0x36B SWAP3 SWAP2 SWAP1 PUSH2 0x75C JUMP JUMPDEST POP PUSH1 0x20 DUP3 ADD MLOAD DUP2 PUSH1 0x1 ADD SWAP1 DUP1 MLOAD SWAP1 PUSH1 0x20 ADD SWAP1 PUSH2 0x388 SWAP3 SWAP2 SWAP1 PUSH2 0x75C JUMP JUMPDEST POP PUSH1 0x40 DUP3 ADD MLOAD DUP2 PUSH1 0x2 ADD SSTORE POP POP POP POP JUMP JUMPDEST PUSH1 0x1 DUP2 DUP2 SLOAD DUP2 LT PUSH2 0x3A9 JUMPI PUSH1 0x0 DUP1 REVERT JUMPDEST SWAP1 PUSH1 0x0 MSTORE PUSH1 0x20 PUSH1 0x0 KECCAK256 SWAP1 PUSH1 0x3 MUL ADD PUSH1 0x0 SWAP2 POP SWAP1 POP DUP1 PUSH1 0x0 ADD DUP1 SLOAD PUSH2 0x3CC SWAP1 PUSH2 0xD80 JUMP JUMPDEST DUP1 PUSH1 0x1F ADD PUSH1 0x20 DUP1 SWAP2 DIV MUL PUSH1 0x20 ADD PUSH1 0x40 MLOAD SWAP1 DUP2 ADD PUSH1 0x40 MSTORE DUP1 SWAP3 SWAP2 SWAP1 DUP2 DUP2 MSTORE PUSH1 0x20 ADD DUP3 DUP1 SLOAD PUSH2 0x3F8 SWAP1 PUSH2 0xD80 JUMP JUMPDEST DUP1 ISZERO PUSH2 0x445 JUMPI DUP1 PUSH1 0x1F LT PUSH2 0x41A JUMPI PUSH2 0x100 DUP1 DUP4 SLOAD DIV MUL DUP4 MSTORE SWAP2 PUSH1 0x20 ADD SWAP2 PUSH2 0x445 JUMP JUMPDEST DUP3 ADD SWAP2 SWAP1 PUSH1 0x0 MSTORE PUSH1 0x20 PUSH1 0x0 KECCAK256 SWAP1 JUMPDEST DUP2 SLOAD DUP2 MSTORE SWAP1 PUSH1 0x1 ADD SWAP1 PUSH1 0x20 ADD DUP1 DUP4 GT PUSH2 0x428 JUMPI DUP3 SWAP1 SUB PUSH1 0x1F AND DUP3 ADD SWAP2 JUMPDEST POP POP POP POP POP SWAP1 DUP1 PUSH1 0x1 ADD DUP1 SLOAD PUSH2 0x45A SWAP1 PUSH2 0xD80 JUMP JUMPDEST DUP1 PUSH1 0x1F ADD PUSH1 0x20 DUP1 SWAP2 DIV MUL PUSH1 0x20 ADD PUSH1 0x40 MLOAD SWAP1 DUP2 ADD PUSH1 0x40 MSTORE DUP1 SWAP3 SWAP2 SWAP1 DUP2 DUP2 MSTORE PUSH1 0x20 ADD DUP3 DUP1 SLOAD PUSH2 0x486 SWAP1 PUSH2 0xD80 JUMP JUMPDEST DUP1 ISZERO PUSH2 0x4D3 JUMPI DUP1 PUSH1 0x1F LT PUSH2 0x4A8 JUMPI PUSH2 0x100 DUP1 DUP4 SLOAD DIV MUL DUP4 MSTORE SWAP2 PUSH1 0x20 ADD SWAP2 PUSH2 0x4D3 JUMP JUMPDEST DUP3 ADD SWAP2 SWAP1 PUSH1 0x0 MSTORE PUSH1 0x20 PUSH1 0x0 KECCAK256 SWAP1 JUMPDEST DUP2 SLOAD DUP2 MSTORE SWAP1 PUSH1 0x1 ADD SWAP1 PUSH1 0x20 ADD DUP1 DUP4 GT PUSH2 0x4B6 JUMPI DUP3 SWAP1 SUB PUSH1 0x1F AND DUP3 ADD SWAP2 JUMPDEST POP POP POP POP POP SWAP1 DUP1 PUSH1 0x2 ADD SLOAD SWAP1 POP DUP4 JUMP JUMPDEST PUSH2 0x4EB PUSH2 0x7E2 JUMP JUMPDEST PUSH1 0x0 PUSH1 0x40 MLOAD PUSH2 0x4F9 SWAP1 PUSH2 0xEBC JUMP JUMPDEST SWAP1 DUP2 MSTORE PUSH1 0x20 ADD PUSH1 0x40 MLOAD DUP1 SWAP2 SUB SWAP1 KECCAK256 PUSH1 0x40 MLOAD DUP1 PUSH1 0x40 ADD PUSH1 0x40 MSTORE SWAP1 DUP2 PUSH1 0x0 DUP3 ADD DUP1 SLOAD PUSH2 0x522 SWAP1 PUSH2 0xD80 JUMP JUMPDEST DUP1 PUSH1 0x1F ADD PUSH1 0x20 DUP1 SWAP2 DIV MUL PUSH1 0x20 ADD PUSH1 0x40 MLOAD SWAP1 DUP2 ADD PUSH1 0x40 MSTORE DUP1 SWAP3 SWAP2 SWAP1 DUP2 DUP2 MSTORE PUSH1 0x20 ADD DUP3 DUP1 SLOAD PUSH2 0x54E SWAP1 PUSH2 0xD80 JUMP JUMPDEST DUP1 ISZERO PUSH2 0x59B JUMPI DUP1 PUSH1 0x1F LT PUSH2 0x570 JUMPI PUSH2 0x100 DUP1 DUP4 SLOAD DIV MUL DUP4 MSTORE SWAP2 PUSH1 0x20 ADD SWAP2 PUSH2 0x59B JUMP JUMPDEST DUP3 ADD SWAP2 SWAP1 PUSH1 0x0 MSTORE PUSH1 0x20 PUSH1 0x0 KECCAK256 SWAP1 JUMPDEST DUP2 SLOAD DUP2 MSTORE SWAP1 PUSH1 0x1 ADD SWAP1 PUSH1 0x20 ADD DUP1 DUP4 GT PUSH2 0x57E JUMPI DUP3 SWAP1 SUB PUSH1 0x1F AND DUP3 ADD SWAP2 JUMPDEST POP POP POP POP POP DUP2 MSTORE PUSH1 0x20 ADD PUSH1 0x1 DUP3 ADD DUP1 SLOAD DUP1 PUSH1 0x20 MUL PUSH1 0x20 ADD PUSH1 0x40 MLOAD SWAP1 DUP2 ADD PUSH1 0x40 MSTORE DUP1 SWAP3 SWAP2 SWAP1 DUP2 DUP2 MSTORE PUSH1 0x20 ADD PUSH1 0x0 SWAP1 JUMPDEST DUP3 DUP3 LT ISZERO PUSH2 0x729 JUMPI DUP4 DUP3 SWAP1 PUSH1 0x0 MSTORE PUSH1 0x20 PUSH1 0x0 KECCAK256 SWAP1 PUSH1 0x3 MUL ADD PUSH1 0x40 MLOAD DUP1 PUSH1 0x60 ADD PUSH1 0x40 MSTORE SWAP1 DUP2 PUSH1 0x0 DUP3 ADD DUP1 SLOAD PUSH2 0x5FC SWAP1 PUSH2 0xD80 JUMP JUMPDEST DUP1 PUSH1 0x1F ADD PUSH1 0x20 DUP1 SWAP2 DIV MUL PUSH1 0x20 ADD PUSH1 0x40 MLOAD SWAP1 DUP2 ADD PUSH1 0x40 MSTORE DUP1 SWAP3 SWAP2 SWAP1 DUP2 DUP2 MSTORE PUSH1 0x20 ADD DUP3 DUP1 SLOAD PUSH2 0x628 SWAP1 PUSH2 0xD80 JUMP JUMPDEST DUP1 ISZERO PUSH2 0x675 JUMPI DUP1 PUSH1 0x1F LT PUSH2 0x64A JUMPI PUSH2 0x100 DUP1 DUP4 SLOAD DIV MUL DUP4 MSTORE SWAP2 PUSH1 0x20 ADD SWAP2 PUSH2 0x675 JUMP JUMPDEST DUP3 ADD SWAP2 SWAP1 PUSH1 0x0 MSTORE PUSH1 0x20 PUSH1 0x0 KECCAK256 SWAP1 JUMPDEST DUP2 SLOAD DUP2 MSTORE SWAP1 PUSH1 0x1 ADD SWAP1 PUSH1 0x20 ADD DUP1 DUP4 GT PUSH2 0x658 JUMPI DUP3 SWAP1 SUB PUSH1 0x1F AND DUP3 ADD SWAP2 JUMPDEST POP POP POP POP POP DUP2 MSTORE PUSH1 0x20 ADD PUSH1 0x1 DUP3 ADD DUP1 SLOAD PUSH2 0x68E SWAP1 PUSH2 0xD80 JUMP JUMPDEST DUP1 PUSH1 0x1F ADD PUSH1 0x20 DUP1 SWAP2 DIV MUL PUSH1 0x20 ADD PUSH1 0x40 MLOAD SWAP1 DUP2 ADD PUSH1 0x40 MSTORE DUP1 SWAP3 SWAP2 SWAP1 DUP2 DUP2 MSTORE PUSH1 0x20 ADD DUP3 DUP1 SLOAD PUSH2 0x6BA SWAP1 PUSH2 0xD80 JUMP JUMPDEST DUP1 ISZERO PUSH2 0x707 JUMPI DUP1 PUSH1 0x1F LT PUSH2 0x6DC JUMPI PUSH2 0x100 DUP1 DUP4 SLOAD DIV MUL DUP4 MSTORE SWAP2 PUSH1 0x20 ADD SWAP2 PUSH2 0x707 JUMP JUMPDEST DUP3 ADD SWAP2 SWAP1 PUSH1 0x0 MSTORE PUSH1 0x20 PUSH1 0x0 KECCAK256 SWAP1 JUMPDEST DUP2 SLOAD DUP2 MSTORE SWAP1 PUSH1 0x1 ADD SWAP1 PUSH1 0x20 ADD DUP1 DUP4 GT PUSH2 0x6EA JUMPI DUP3 SWAP1 SUB PUSH1 0x1F AND DUP3 ADD SWAP2 JUMPDEST POP POP POP POP POP DUP2 MSTORE PUSH1 0x20 ADD PUSH1 0x2 DUP3 ADD SLOAD DUP2 MSTORE POP POP DUP2 MSTORE PUSH1 0x20 ADD SWAP1 PUSH1 0x1 ADD SWAP1 PUSH2 0x5C9 JUMP JUMPDEST POP POP POP POP DUP2 MSTORE POP POP SWAP1 POP SWAP1 JUMP JUMPDEST PUSH1 0x2 PUSH1 0x0 SWAP1 SLOAD SWAP1 PUSH2 0x100 EXP SWAP1 DIV PUSH20 0xFFFFFFFFFFFFFFFFFFFFFFFFFFFFFFFFFFFFFFFF AND DUP2 JUMP JUMPDEST DUP3 DUP1 SLOAD PUSH2 0x768 SWAP1 PUSH2 0xD80 JUMP JUMPDEST SWAP1 PUSH1 0x0 MSTORE PUSH1 0x20 PUSH1 0x0 KECCAK256 SWAP1 PUSH1 0x1F ADD PUSH1 0x20 SWAP1 DIV DUP2 ADD SWAP3 DUP3 PUSH2 0x78A JUMPI PUSH1 0x0 DUP6 SSTORE PUSH2 0x7D1 JUMP JUMPDEST DUP3 PUSH1 0x1F LT PUSH2 0x7A3 JUMPI DUP1 MLOAD PUSH1 0xFF NOT AND DUP4 DUP1 ADD OR DUP6 SSTORE PUSH2 0x7D1 JUMP JUMPDEST DUP3 DUP1 ADD PUSH1 0x1 ADD DUP6 SSTORE DUP3 ISZERO PUSH2 0x7D1 JUMPI SWAP2 DUP3 ADD JUMPDEST DUP3 DUP2 GT ISZERO PUSH2 0x7D0 JUMPI DUP3 MLOAD DUP3 SSTORE SWAP2 PUSH1 0x20 ADD SWAP2 SWAP1 PUSH1 0x1 ADD SWAP1 PUSH2 0x7B5 JUMP JUMPDEST JUMPDEST POP SWAP1 POP PUSH2 0x7DE SWAP2 SWAP1 PUSH2 0x7FC JUMP JUMPDEST POP SWAP1 JUMP JUMPDEST PUSH1 0x40 MLOAD DUP1 PUSH1 0x40 ADD PUSH1 0x40 MSTORE DUP1 PUSH1 0x60 DUP2 MSTORE PUSH1 0x20 ADD PUSH1 0x60 DUP2 MSTORE POP SWAP1 JUMP JUMPDEST JUMPDEST DUP1 DUP3 GT ISZERO PUSH2 0x815 JUMPI PUSH1 0x0 DUP2 PUSH1 0x0 SWAP1 SSTORE POP PUSH1 0x1 ADD PUSH2 0x7FD JUMP JUMPDEST POP SWAP1 JUMP JUMPDEST PUSH1 0x0 PUSH1 0x40 MLOAD SWAP1 POP SWAP1 JUMP JUMPDEST PUSH1 0x0 DUP1 REVERT JUMPDEST PUSH1 0x0 DUP1 REVERT JUMPDEST PUSH1 0x0 DUP1 REVERT JUMPDEST PUSH1 0x0 DUP1 REVERT JUMPDEST PUSH1 0x0 PUSH1 0x1F NOT PUSH1 0x1F DUP4 ADD AND SWAP1 POP SWAP2 SWAP1 POP JUMP JUMPDEST PUSH32 0x4E487B7100000000000000000000000000000000000000000000000000000000 PUSH1 0x0 MSTORE PUSH1 0x41 PUSH1 0x4 MSTORE PUSH1 0x24 PUSH1 0x0 REVERT JUMPDEST PUSH2 0x880 DUP3 PUSH2 0x837 JUMP JUMPDEST DUP2 ADD DUP2 DUP2 LT PUSH8 0xFFFFFFFFFFFFFFFF DUP3 GT OR ISZERO PUSH2 0x89F JUMPI PUSH2 0x89E PUSH2 0x848 JUMP JUMPDEST JUMPDEST DUP1 PUSH1 0x40 MSTORE POP POP POP JUMP JUMPDEST PUSH1 0x0 PUSH2 0x8B2 PUSH2 0x819 JUMP JUMPDEST SWAP1 POP PUSH2 0x8BE DUP3 DUP3 PUSH2 0x877 JUMP JUMPDEST SWAP2 SWAP1 POP JUMP JUMPDEST PUSH1 0x0 PUSH8 0xFFFFFFFFFFFFFFFF DUP3 GT ISZERO PUSH2 0x8DE JUMPI PUSH2 0x8DD PUSH2 0x848 JUMP JUMPDEST JUMPDEST PUSH2 0x8E7 DUP3 PUSH2 0x837 JUMP JUMPDEST SWAP1 POP PUSH1 0x20 DUP2 ADD SWAP1 POP SWAP2 SWAP1 POP JUMP JUMPDEST DUP3 DUP2 DUP4 CALLDATACOPY PUSH1 0x0 DUP4 DUP4 ADD MSTORE POP POP POP JUMP JUMPDEST PUSH1 0x0 PUSH2 0x916 PUSH2 0x911 DUP5 PUSH2 0x8C3 JUMP JUMPDEST PUSH2 0x8A8 JUMP JUMPDEST SWAP1 POP DUP3 DUP2 MSTORE PUSH1 0x20 DUP2 ADD DUP5 DUP5 DUP5 ADD GT ISZERO PUSH2 0x932 JUMPI PUSH2 0x931 PUSH2 0x832 JUMP JUMPDEST JUMPDEST PUSH2 0x93D DUP5 DUP3 DUP6 PUSH2 0x8F4 JUMP JUMPDEST POP SWAP4 SWAP3 POP POP POP JUMP JUMPDEST PUSH1 0x0 DUP3 PUSH1 0x1F DUP4 ADD SLT PUSH2 0x95A JUMPI PUSH2 0x959 PUSH2 0x82D JUMP JUMPDEST JUMPDEST DUP2 CALLDATALOAD PUSH2 0x96A DUP5 DUP3 PUSH1 0x20 DUP7 ADD PUSH2 0x903 JUMP JUMPDEST SWAP2 POP POP SWAP3 SWAP2 POP POP JUMP JUMPDEST PUSH1 0x0 PUSH1 0x20 DUP3 DUP5 SUB SLT ISZERO PUSH2 0x989 JUMPI PUSH2 0x988 PUSH2 0x823 JUMP JUMPDEST JUMPDEST PUSH1 0x0 DUP3 ADD CALLDATALOAD PUSH8 0xFFFFFFFFFFFFFFFF DUP2 GT ISZERO PUSH2 0x9A7 JUMPI PUSH2 0x9A6 PUSH2 0x828 JUMP JUMPDEST JUMPDEST PUSH2 0x9B3 DUP5 DUP3 DUP6 ADD PUSH2 0x945 JUMP JUMPDEST SWAP2 POP POP SWAP3 SWAP2 POP POP JUMP JUMPDEST PUSH1 0x0 DUP2 MLOAD SWAP1 POP SWAP2 SWAP1 POP JUMP JUMPDEST PUSH1 0x0 DUP3 DUP3 MSTORE PUSH1 0x20 DUP3 ADD SWAP1 POP SWAP3 SWAP2 POP POP JUMP JUMPDEST PUSH1 0x0 JUMPDEST DUP4 DUP2 LT ISZERO PUSH2 0x9F6 JUMPI DUP1 DUP3 ADD MLOAD DUP2 DUP5 ADD MSTORE PUSH1 0x20 DUP2 ADD SWAP1 POP PUSH2 0x9DB JUMP JUMPDEST DUP4 DUP2 GT ISZERO PUSH2 0xA05 JUMPI PUSH1 0x0 DUP5 DUP5 ADD MSTORE JUMPDEST POP POP POP POP JUMP JUMPDEST PUSH1 0x0 PUSH2 0xA16 DUP3 PUSH2 0x9BC JUMP JUMPDEST PUSH2 0xA20 DUP2 DUP6 PUSH2 0x9C7 JUMP JUMPDEST SWAP4 POP PUSH2 0xA30 DUP2 DUP6 PUSH1 0x20 DUP7 ADD PUSH2 0x9D8 JUMP JUMPDEST PUSH2 0xA39 DUP2 PUSH2 0x837 JUMP JUMPDEST DUP5 ADD SWAP2 POP POP SWAP3 SWAP2 POP POP JUMP JUMPDEST PUSH1 0x0 PUSH1 0x20 DUP3 ADD SWAP1 POP DUP2 DUP2 SUB PUSH1 0x0 DUP4 ADD MSTORE PUSH2 0xA5E DUP2 DUP5 PUSH2 0xA0B JUMP JUMPDEST SWAP1 POP SWAP3 SWAP2 POP POP JUMP JUMPDEST PUSH1 0x0 DUP2 SWAP1 POP SWAP2 SWAP1 POP JUMP JUMPDEST PUSH2 0xA79 DUP2 PUSH2 0xA66 JUMP JUMPDEST DUP2 EQ PUSH2 0xA84 JUMPI PUSH1 0x0 DUP1 REVERT JUMPDEST POP JUMP JUMPDEST PUSH1 0x0 DUP2 CALLDATALOAD SWAP1 POP PUSH2 0xA96 DUP2 PUSH2 0xA70 JUMP JUMPDEST SWAP3 SWAP2 POP POP JUMP JUMPDEST PUSH1 0x0 PUSH1 0x20 DUP3 DUP5 SUB SLT ISZERO PUSH2 0xAB2 JUMPI PUSH2 0xAB1 PUSH2 0x823 JUMP JUMPDEST JUMPDEST PUSH1 0x0 PUSH2 0xAC0 DUP5 DUP3 DUP6 ADD PUSH2 0xA87 JUMP JUMPDEST SWAP2 POP POP SWAP3 SWAP2 POP POP JUMP JUMPDEST PUSH2 0xAD2 DUP2 PUSH2 0xA66 JUMP JUMPDEST DUP3 MSTORE POP POP JUMP JUMPDEST PUSH1 0x0 PUSH1 0x60 DUP3 ADD SWAP1 POP DUP2 DUP2 SUB PUSH1 0x0 DUP4 ADD MSTORE PUSH2 0xAF2 DUP2 DUP7 PUSH2 0xA0B JUMP JUMPDEST SWAP1 POP DUP2 DUP2 SUB PUSH1 0x20 DUP4 ADD MSTORE PUSH2 0xB06 DUP2 DUP6 PUSH2 0xA0B JUMP JUMPDEST SWAP1 POP PUSH2 0xB15 PUSH1 0x40 DUP4 ADD DUP5 PUSH2 0xAC9 JUMP JUMPDEST SWAP5 SWAP4 POP POP POP POP JUMP JUMPDEST PUSH1 0x0 DUP3 DUP3 MSTORE PUSH1 0x20 DUP3 ADD SWAP1 POP SWAP3 SWAP2 POP POP JUMP JUMPDEST PUSH1 0x0 PUSH2 0xB39 DUP3 PUSH2 0x9BC JUMP JUMPDEST PUSH2 0xB43 DUP2 DUP6 PUSH2 0xB1D JUMP JUMPDEST SWAP4 POP PUSH2 0xB53 DUP2 DUP6 PUSH1 0x20 DUP7 ADD PUSH2 0x9D8 JUMP JUMPDEST PUSH2 0xB5C DUP2 PUSH2 0x837 JUMP JUMPDEST DUP5 ADD SWAP2 POP POP SWAP3 SWAP2 POP POP JUMP JUMPDEST PUSH1 0x0 DUP2 MLOAD SWAP1 POP SWAP2 SWAP1 POP JUMP JUMPDEST PUSH1 0x0 DUP3 DUP3 MSTORE PUSH1 0x20 DUP3 ADD SWAP1 POP SWAP3 SWAP2 POP POP JUMP JUMPDEST PUSH1 0x0 DUP2 SWAP1 POP PUSH1 0x20 DUP3 ADD SWAP1 POP SWAP2 SWAP1 POP JUMP JUMPDEST PUSH2 0xB9C DUP2 PUSH2 0xA66 JUMP JUMPDEST DUP3 MSTORE POP POP JUMP JUMPDEST PUSH1 0x0 PUSH1 0x60 DUP4 ADD PUSH1 0x0 DUP4 ADD MLOAD DUP5 DUP3 SUB PUSH1 0x0 DUP7 ADD MSTORE PUSH2 0xBBF DUP3 DUP3 PUSH2 0xB2E JUMP JUMPDEST SWAP2 POP POP PUSH1 0x20 DUP4 ADD MLOAD DUP5 DUP3 SUB PUSH1 0x20 DUP7 ADD MSTORE PUSH2 0xBD9 DUP3 DUP3 PUSH2 0xB2E JUMP JUMPDEST SWAP2 POP POP PUSH1 0x40 DUP4 ADD MLOAD PUSH2 0xBEE PUSH1 0x40 DUP7 ADD DUP3 PUSH2 0xB93 JUMP JUMPDEST POP DUP1 SWAP2 POP POP SWAP3 SWAP2 POP POP JUMP JUMPDEST PUSH1 0x0 PUSH2 0xC05 DUP4 DUP4 PUSH2 0xBA2 JUMP JUMPDEST SWAP1 POP SWAP3 SWAP2 POP POP JUMP JUMPDEST PUSH1 0x0 PUSH1 0x20 DUP3 ADD SWAP1 POP SWAP2 SWAP1 POP JUMP JUMPDEST PUSH1 0x0 PUSH2 0xC25 DUP3 PUSH2 0xB67 JUMP JUMPDEST PUSH2 0xC2F DUP2 DUP6 PUSH2 0xB72 JUMP JUMPDEST SWAP4 POP DUP4 PUSH1 0x20 DUP3 MUL DUP6 ADD PUSH2 0xC41 DUP6 PUSH2 0xB83 JUMP JUMPDEST DUP1 PUSH1 0x0 JUMPDEST DUP6 DUP2 LT ISZERO PUSH2 0xC7D JUMPI DUP5 DUP5 SUB DUP10 MSTORE DUP2 MLOAD PUSH2 0xC5E DUP6 DUP3 PUSH2 0xBF9 JUMP JUMPDEST SWAP5 POP PUSH2 0xC69 DUP4 PUSH2 0xC0D JUMP JUMPDEST SWAP3 POP PUSH1 0x20 DUP11 ADD SWAP10 POP POP PUSH1 0x1 DUP2 ADD SWAP1 POP PUSH2 0xC45 JUMP JUMPDEST POP DUP3 SWAP8 POP DUP8 SWAP6 POP POP POP POP POP POP SWAP3 SWAP2 POP POP JUMP JUMPDEST PUSH1 0x0 PUSH1 0x40 DUP4 ADD PUSH1 0x0 DUP4 ADD MLOAD DUP5 DUP3 SUB PUSH1 0x0 DUP7 ADD MSTORE PUSH2 0xCAC DUP3 DUP3 PUSH2 0xB2E JUMP JUMPDEST SWAP2 POP POP PUSH1 0x20 DUP4 ADD MLOAD DUP5 DUP3 SUB PUSH1 0x20 DUP7 ADD MSTORE PUSH2 0xCC6 DUP3 DUP3 PUSH2 0xC1A JUMP JUMPDEST SWAP2 POP POP DUP1 SWAP2 POP POP SWAP3 SWAP2 POP POP JUMP JUMPDEST PUSH1 0x0 PUSH1 0x20 DUP3 ADD SWAP1 POP DUP2 DUP2 SUB PUSH1 0x0 DUP4 ADD MSTORE PUSH2 0xCED DUP2 DUP5 PUSH2 0xC8F JUMP JUMPDEST SWAP1 POP SWAP3 SWAP2 POP POP JUMP JUMPDEST PUSH1 0x0 PUSH20 0xFFFFFFFFFFFFFFFFFFFFFFFFFFFFFFFFFFFFFFFF DUP3 AND SWAP1 POP SWAP2 SWAP1 POP JUMP JUMPDEST PUSH1 0x0 PUSH2 0xD20 DUP3 PUSH2 0xCF5 JUMP JUMPDEST SWAP1 POP SWAP2 SWAP1 POP JUMP JUMPDEST PUSH2 0xD30 DUP2 PUSH2 0xD15 JUMP JUMPDEST DUP3 MSTORE POP POP JUMP JUMPDEST PUSH1 0x0 PUSH1 0x20 DUP3 ADD SWAP1 POP PUSH2 0xD4B PUSH1 0x0 DUP4 ADD DUP5 PUSH2 0xD27 JUMP JUMPDEST SWAP3 SWAP2 POP POP JUMP JUMPDEST PUSH32 0x4E487B7100000000000000000000000000000000000000000000000000000000 PUSH1 0x0 MSTORE PUSH1 0x22 PUSH1 0x4 MSTORE PUSH1 0x24 PUSH1 0x0 REVERT JUMPDEST PUSH1 0x0 PUSH1 0x2 DUP3 DIV SWAP1 POP PUSH1 0x1 DUP3 AND DUP1 PUSH2 0xD98 JUMPI PUSH1 0x7F DUP3 AND SWAP2 POP JUMPDEST PUSH1 0x20 DUP3 LT DUP2 SUB PUSH2 0xDAB JUMPI PUSH2 0xDAA PUSH2 0xD51 JUMP JUMPDEST JUMPDEST POP SWAP2 SWAP1 POP JUMP JUMPDEST PUSH32 0x4F6E6C792061646D696E2063616E20737461727420612063616D706169676E00 PUSH1 0x0 DUP3 ADD MSTORE POP JUMP JUMPDEST PUSH1 0x0 PUSH2 0xDE7 PUSH1 0x1F DUP4 PUSH2 0x9C7 JUMP JUMPDEST SWAP2 POP PUSH2 0xDF2 DUP3 PUSH2 0xDB1 JUMP JUMPDEST PUSH1 0x20 DUP3 ADD SWAP1 POP SWAP2 SWAP1 POP JUMP JUMPDEST PUSH1 0x0 PUSH1 0x20 DUP3 ADD SWAP1 POP DUP2 DUP2 SUB PUSH1 0x0 DUP4 ADD MSTORE PUSH2 0xE16 DUP2 PUSH2 0xDDA JUMP JUMPDEST SWAP1 POP SWAP2 SWAP1 POP JUMP JUMPDEST PUSH1 0x0 DUP2 SWAP1 POP SWAP3 SWAP2 POP POP JUMP JUMPDEST PUSH1 0x0 PUSH2 0xE33 DUP3 PUSH2 0x9BC JUMP JUMPDEST PUSH2 0xE3D DUP2 DUP6 PUSH2 0xE1D JUMP JUMPDEST SWAP4 POP PUSH2 0xE4D DUP2 DUP6 PUSH1 0x20 DUP7 ADD PUSH2 0x9D8 JUMP JUMPDEST DUP1 DUP5 ADD SWAP2 POP POP SWAP3 SWAP2 POP POP JUMP JUMPDEST PUSH1 0x0 PUSH2 0xE65 DUP3 DUP5 PUSH2 0xE28 JUMP JUMPDEST SWAP2 POP DUP2 SWAP1 POP SWAP3 SWAP2 POP POP JUMP JUMPDEST PUSH32 0x3131323200000000000000000000000000000000000000000000000000000000 PUSH1 0x0 DUP3 ADD MSTORE POP JUMP JUMPDEST PUSH1 0x0 PUSH2 0xEA6 PUSH1 0x4 DUP4 PUSH2 0xE1D JUMP JUMPDEST SWAP2 POP PUSH2 0xEB1 DUP3 PUSH2 0xE70 JUMP JUMPDEST PUSH1 0x4 DUP3 ADD SWAP1 POP SWAP2 SWAP1 POP JUMP JUMPDEST PUSH1 0x0 PUSH2 0xEC7 DUP3 PUSH2 0xE99 JUMP JUMPDEST SWAP2 POP DUP2 SWAP1 POP SWAP2 SWAP1 POP JUMP INVALID LOG2 PUSH5 0x6970667358 0x22 SLT KECCAK256 SWAP3 CALLCODE PUSH23 0x550F3B3B8AABA9AD77E91CC99E0F5FA45E066C8093EC5 0xAD TIMESTAMP DUP15 SIGNEXTEND 0x5C 0x5E PUSH5 0x736F6C6343 STOP ADDMOD 0xD STOP CALLER "
				},
				"gasEstimates": {
					"creation": {
						"codeDepositCost": "769400",
						"executionCost": "25071",
						"totalCost": "794471"
					},
					"external": {
						"addCampaign(string)": "infinite",
						"admin()": "2580",
						"campaigns(string)": "infinite",
						"candidates(uint256)": "infinite",
						"getAllCampaigns()": "infinite"
					}
				},
				"methodIdentifiers": {
					"addCampaign(string)": "202e7be4",
					"admin()": "f851a440",
					"campaigns(string)": "1d39e509",
					"candidates(uint256)": "3477ee2e",
					"getAllCampaigns()": "86cdf604"
				}
			},
			"storageLayout": {
				"storage": [
					{
						"astId": 35,
						"contract": "github/fahadashiq/block-chain/smart-contracts/voting.sol:Voting",
						"label": "campaigns",
						"offset": 0,
						"slot": "0",
						"type": "t_mapping(t_string_memory_ptr,t_struct(Campaign)23_storage)"
					},
					{
						"astId": 39,
						"contract": "github/fahadashiq/block-chain/smart-contracts/voting.sol:Voting",
						"label": "candidates",
						"offset": 0,
						"slot": "1",
						"type": "t_array(t_struct(Candidate)30_storage)dyn_storage"
					},
					{
						"astId": 41,
						"contract": "github/fahadashiq/block-chain/smart-contracts/voting.sol:Voting",
						"label": "admin",
						"offset": 0,
						"slot": "2",
						"type": "t_address"
					}
				],
				"types": {
					"t_address": {
						"encoding": "inplace",
						"label": "address",
						"numberOfBytes": "20"
					},
					"t_array(t_struct(Candidate)30_storage)dyn_storage": {
						"base": "t_struct(Candidate)30_storage",
						"encoding": "dynamic_array",
						"label": "struct Voting.Candidate[]",
						"numberOfBytes": "32"
					},
					"t_mapping(t_string_memory_ptr,t_struct(Campaign)23_storage)": {
						"encoding": "mapping",
						"key": "t_string_memory_ptr",
						"label": "mapping(string => struct Voting.Campaign)",
						"numberOfBytes": "32",
						"value": "t_struct(Campaign)23_storage"
					},
					"t_string_memory_ptr": {
						"encoding": "bytes",
						"label": "string",
						"numberOfBytes": "32"
					},
					"t_string_storage": {
						"encoding": "bytes",
						"label": "string",
						"numberOfBytes": "32"
					},
					"t_struct(Campaign)23_storage": {
						"encoding": "inplace",
						"label": "struct Voting.Campaign",
						"members": [
							{
								"astId": 18,
								"contract": "github/fahadashiq/block-chain/smart-contracts/voting.sol:Voting",
								"label": "name",
								"offset": 0,
								"slot": "0",
								"type": "t_string_storage"
							},
							{
								"astId": 22,
								"contract": "github/fahadashiq/block-chain/smart-contracts/voting.sol:Voting",
								"label": "candidates",
								"offset": 0,
								"slot": "1",
								"type": "t_array(t_struct(Candidate)30_storage)dyn_storage"
							}
						],
						"numberOfBytes": "64"
					},
					"t_struct(Candidate)30_storage": {
						"encoding": "inplace",
						"label": "struct Voting.Candidate",
						"members": [
							{
								"astId": 25,
								"contract": "github/fahadashiq/block-chain/smart-contracts/voting.sol:Voting",
								"label": "name",
								"offset": 0,
								"slot": "0",
								"type": "t_string_storage"
							},
							{
								"astId": 27,
								"contract": "github/fahadashiq/block-chain/smart-contracts/voting.sol:Voting",
								"label": "sign",
								"offset": 0,
								"slot": "1",
								"type": "t_string_storage"
							},
							{
								"astId": 29,
								"contract": "github/fahadashiq/block-chain/smart-contracts/voting.sol:Voting",
								"label": "votes",
								"offset": 0,
								"slot": "2",
								"type": "t_uint256"
							}
						],
						"numberOfBytes": "96"
					},
					"t_uint256": {
						"encoding": "inplace",
						"label": "uint256",
						"numberOfBytes": "32"
					}
				}
			},
			"userdoc": {
				"kind": "user",
				"methods": {},
				"version": 1
			}
		}
	}
}