{
	"github/fahadashiq/block-chain/smart-contracts/practice.sol": {
		"Trust": {
			"abi": [
				{
					"inputs": [
						{
							"internalType": "address",
							"name": "kid",
							"type": "address"
						},
						{
							"internalType": "uint256",
							"name": "timeToMaturity",
							"type": "uint256"
						}
					],
					"name": "addKid",
					"outputs": [],
					"stateMutability": "payable",
					"type": "function"
				},
				{
					"inputs": [
						{
							"internalType": "address",
							"name": "",
							"type": "address"
						}
					],
					"name": "amount",
					"outputs": [
						{
							"internalType": "uint256",
							"name": "",
							"type": "uint256"
						}
					],
					"stateMutability": "view",
					"type": "function"
				},
				{
					"inputs": [
						{
							"internalType": "address",
							"name": "",
							"type": "address"
						}
					],
					"name": "maturities",
					"outputs": [
						{
							"internalType": "uint256",
							"name": "",
							"type": "uint256"
						}
					],
					"stateMutability": "view",
					"type": "function"
				},
				{
					"inputs": [
						{
							"internalType": "address",
							"name": "kid",
							"type": "address"
						}
					],
					"name": "withdraw",
					"outputs": [],
					"stateMutability": "nonpayable",
					"type": "function"
				}
			],
			"devdoc": {
				"kind": "dev",
				"methods": {},
				"version": 1
			},
			"evm": {
				"assembly": "    /* \"github/fahadashiq/block-chain/smart-contracts/practice.sol\":28:1071  contract Trust {\r... */\n  mstore(0x40, 0x80)\n  callvalue\n  dup1\n  iszero\n  tag_1\n  jumpi\n  0x00\n  dup1\n  revert\ntag_1:\n  pop\n  dataSize(sub_0)\n  dup1\n  dataOffset(sub_0)\n  0x00\n  codecopy\n  0x00\n  return\nstop\n\nsub_0: assembly {\n        /* \"github/fahadashiq/block-chain/smart-contracts/practice.sol\":28:1071  contract Trust {\r... */\n      mstore(0x40, 0x80)\n      jumpi(tag_1, lt(calldatasize, 0x04))\n      shr(0xe0, calldataload(0x00))\n      dup1\n      0x40990e30\n      eq\n      tag_2\n      jumpi\n      dup1\n      0x51cff8d9\n      eq\n      tag_3\n      jumpi\n      dup1\n      0x6607250b\n      eq\n      tag_4\n      jumpi\n      dup1\n      0xb9f0bf66\n      eq\n      tag_5\n      jumpi\n    tag_1:\n      0x00\n      dup1\n      revert\n        /* \"github/fahadashiq/block-chain/smart-contracts/practice.sol\":146:317  function addKid(address kid, uint timeToMaturity) external payable {\r... */\n    tag_2:\n      tag_6\n      0x04\n      dup1\n      calldatasize\n      sub\n      dup2\n      add\n      swap1\n      tag_7\n      swap2\n      swap1\n      tag_8\n      jump\t// in\n    tag_7:\n      tag_9\n      jump\t// in\n    tag_6:\n      stop\n        /* \"github/fahadashiq/block-chain/smart-contracts/practice.sol\":326:629  function withdraw(address kid) external {\r... */\n    tag_3:\n      callvalue\n      dup1\n      iszero\n      tag_10\n      jumpi\n      0x00\n      dup1\n      revert\n    tag_10:\n      pop\n      tag_11\n      0x04\n      dup1\n      calldatasize\n      sub\n      dup2\n      add\n      swap1\n      tag_12\n      swap2\n      swap1\n      tag_13\n      jump\t// in\n    tag_12:\n      tag_14\n      jump\t// in\n    tag_11:\n      stop\n        /* \"github/fahadashiq/block-chain/smart-contracts/practice.sol\":95:137  mapping(address => uint) public maturities */\n    tag_4:\n      callvalue\n      dup1\n      iszero\n      tag_15\n      jumpi\n      0x00\n      dup1\n      revert\n    tag_15:\n      pop\n      tag_16\n      0x04\n      dup1\n      calldatasize\n      sub\n      dup2\n      add\n      swap1\n      tag_17\n      swap2\n      swap1\n      tag_13\n      jump\t// in\n    tag_17:\n      tag_18\n      jump\t// in\n    tag_16:\n      mload(0x40)\n      tag_19\n      swap2\n      swap1\n      tag_20\n      jump\t// in\n    tag_19:\n      mload(0x40)\n      dup1\n      swap2\n      sub\n      swap1\n      return\n        /* \"github/fahadashiq/block-chain/smart-contracts/practice.sol\":50:88  mapping(address => uint) public amount */\n    tag_5:\n      callvalue\n      dup1\n      iszero\n      tag_21\n      jumpi\n      0x00\n      dup1\n      revert\n    tag_21:\n      pop\n      tag_22\n      0x04\n      dup1\n      calldatasize\n      sub\n      dup2\n      add\n      swap1\n      tag_23\n      swap2\n      swap1\n      tag_13\n      jump\t// in\n    tag_23:\n      tag_24\n      jump\t// in\n    tag_22:\n      mload(0x40)\n      tag_25\n      swap2\n      swap1\n      tag_20\n      jump\t// in\n    tag_25:\n      mload(0x40)\n      dup1\n      swap2\n      sub\n      swap1\n      return\n        /* \"github/fahadashiq/block-chain/smart-contracts/practice.sol\":146:317  function addKid(address kid, uint timeToMaturity) external payable {\r... */\n    tag_9:\n        /* \"github/fahadashiq/block-chain/smart-contracts/practice.sol\":238:247  msg.value */\n      callvalue\n        /* \"github/fahadashiq/block-chain/smart-contracts/practice.sol\":224:230  amount */\n      0x00\n        /* \"github/fahadashiq/block-chain/smart-contracts/practice.sol\":224:235  amount[kid] */\n      dup1\n        /* \"github/fahadashiq/block-chain/smart-contracts/practice.sol\":231:234  kid */\n      dup5\n        /* \"github/fahadashiq/block-chain/smart-contracts/practice.sol\":224:235  amount[kid] */\n      0xffffffffffffffffffffffffffffffffffffffff\n      and\n      0xffffffffffffffffffffffffffffffffffffffff\n      and\n      dup2\n      mstore\n      0x20\n      add\n      swap1\n      dup2\n      mstore\n      0x20\n      add\n      0x00\n      keccak256\n        /* \"github/fahadashiq/block-chain/smart-contracts/practice.sol\":224:247  amount[kid] = msg.value */\n      dup2\n      swap1\n      sstore\n      pop\n        /* \"github/fahadashiq/block-chain/smart-contracts/practice.sol\":295:309  timeToMaturity */\n      dup1\n        /* \"github/fahadashiq/block-chain/smart-contracts/practice.sol\":276:291  block.timestamp */\n      timestamp\n        /* \"github/fahadashiq/block-chain/smart-contracts/practice.sol\":276:309  block.timestamp +  timeToMaturity */\n      tag_27\n      swap2\n      swap1\n      tag_28\n      jump\t// in\n    tag_27:\n        /* \"github/fahadashiq/block-chain/smart-contracts/practice.sol\":258:268  maturities */\n      0x01\n        /* \"github/fahadashiq/block-chain/smart-contracts/practice.sol\":258:273  maturities[kid] */\n      0x00\n        /* \"github/fahadashiq/block-chain/smart-contracts/practice.sol\":269:272  kid */\n      dup5\n        /* \"github/fahadashiq/block-chain/smart-contracts/practice.sol\":258:273  maturities[kid] */\n      0xffffffffffffffffffffffffffffffffffffffff\n      and\n      0xffffffffffffffffffffffffffffffffffffffff\n      and\n      dup2\n      mstore\n      0x20\n      add\n      swap1\n      dup2\n      mstore\n      0x20\n      add\n      0x00\n      keccak256\n        /* \"github/fahadashiq/block-chain/smart-contracts/practice.sol\":258:309  maturities[kid] = block.timestamp +  timeToMaturity */\n      dup2\n      swap1\n      sstore\n      pop\n        /* \"github/fahadashiq/block-chain/smart-contracts/practice.sol\":146:317  function addKid(address kid, uint timeToMaturity) external payable {\r... */\n      pop\n      pop\n      jump\t// out\n        /* \"github/fahadashiq/block-chain/smart-contracts/practice.sol\":326:629  function withdraw(address kid) external {\r... */\n    tag_14:\n        /* \"github/fahadashiq/block-chain/smart-contracts/practice.sol\":404:414  maturities */\n      0x01\n        /* \"github/fahadashiq/block-chain/smart-contracts/practice.sol\":404:419  maturities[kid] */\n      0x00\n        /* \"github/fahadashiq/block-chain/smart-contracts/practice.sol\":415:418  kid */\n      dup3\n        /* \"github/fahadashiq/block-chain/smart-contracts/practice.sol\":404:419  maturities[kid] */\n      0xffffffffffffffffffffffffffffffffffffffff\n      and\n      0xffffffffffffffffffffffffffffffffffffffff\n      and\n      dup2\n      mstore\n      0x20\n      add\n      swap1\n      dup2\n      mstore\n      0x20\n      add\n      0x00\n      keccak256\n      sload\n        /* \"github/fahadashiq/block-chain/smart-contracts/practice.sol\":385:400  block.timestamp */\n      timestamp\n        /* \"github/fahadashiq/block-chain/smart-contracts/practice.sol\":385:419  block.timestamp >= maturities[kid] */\n      lt\n      iszero\n        /* \"github/fahadashiq/block-chain/smart-contracts/practice.sol\":377:431  require(block.timestamp >= maturities[kid], 'Grow up') */\n      tag_30\n      jumpi\n      mload(0x40)\n      0x08c379a000000000000000000000000000000000000000000000000000000000\n      dup2\n      mstore\n      0x04\n      add\n      tag_31\n      swap1\n      tag_32\n      jump\t// in\n    tag_31:\n      mload(0x40)\n      dup1\n      swap2\n      sub\n      swap1\n      revert\n    tag_30:\n        /* \"github/fahadashiq/block-chain/smart-contracts/practice.sol\":469:479  maturities */\n      0x01\n        /* \"github/fahadashiq/block-chain/smart-contracts/practice.sol\":469:484  maturities[kid] */\n      0x00\n        /* \"github/fahadashiq/block-chain/smart-contracts/practice.sol\":480:483  kid */\n      dup3\n        /* \"github/fahadashiq/block-chain/smart-contracts/practice.sol\":469:484  maturities[kid] */\n      0xffffffffffffffffffffffffffffffffffffffff\n      and\n      0xffffffffffffffffffffffffffffffffffffffff\n      and\n      dup2\n      mstore\n      0x20\n      add\n      swap1\n      dup2\n      mstore\n      0x20\n      add\n      0x00\n      keccak256\n      sload\n        /* \"github/fahadashiq/block-chain/smart-contracts/practice.sol\":450:465  block.timestamp */\n      timestamp\n        /* \"github/fahadashiq/block-chain/smart-contracts/practice.sol\":450:484  block.timestamp >= maturities[kid] */\n      lt\n      iszero\n        /* \"github/fahadashiq/block-chain/smart-contracts/practice.sol\":442:496  require(block.timestamp >= maturities[kid], 'Grow up') */\n      tag_33\n      jumpi\n      mload(0x40)\n      0x08c379a000000000000000000000000000000000000000000000000000000000\n      dup2\n      mstore\n      0x04\n      add\n      tag_34\n      swap1\n      tag_32\n      jump\t// in\n    tag_34:\n      mload(0x40)\n      dup1\n      swap2\n      sub\n      swap1\n      revert\n    tag_33:\n        /* \"github/fahadashiq/block-chain/smart-contracts/practice.sol\":529:532  kid */\n      dup1\n        /* \"github/fahadashiq/block-chain/smart-contracts/practice.sol\":515:532  msg.sender == kid */\n      0xffffffffffffffffffffffffffffffffffffffff\n      and\n        /* \"github/fahadashiq/block-chain/smart-contracts/practice.sol\":515:525  msg.sender */\n      caller\n        /* \"github/fahadashiq/block-chain/smart-contracts/practice.sol\":515:532  msg.sender == kid */\n      0xffffffffffffffffffffffffffffffffffffffff\n      and\n      eq\n        /* \"github/fahadashiq/block-chain/smart-contracts/practice.sol\":507:558  require(msg.sender == kid, 'Only kid can withdraw') */\n      tag_35\n      jumpi\n      mload(0x40)\n      0x08c379a000000000000000000000000000000000000000000000000000000000\n      dup2\n      mstore\n      0x04\n      add\n      tag_36\n      swap1\n      tag_37\n      jump\t// in\n    tag_36:\n      mload(0x40)\n      dup1\n      swap2\n      sub\n      swap1\n      revert\n    tag_35:\n        /* \"github/fahadashiq/block-chain/smart-contracts/practice.sol\":577:587  msg.sender */\n      caller\n        /* \"github/fahadashiq/block-chain/smart-contracts/practice.sol\":569:597  payable(msg.sender).transfer */\n      0xffffffffffffffffffffffffffffffffffffffff\n      and\n        /* \"github/fahadashiq/block-chain/smart-contracts/practice.sol\":569:620  payable(msg.sender).transfer(address(this).balance) */\n      0x08fc\n        /* \"github/fahadashiq/block-chain/smart-contracts/practice.sol\":598:619  address(this).balance */\n      selfbalance\n        /* \"github/fahadashiq/block-chain/smart-contracts/practice.sol\":569:620  payable(msg.sender).transfer(address(this).balance) */\n      swap1\n      dup2\n      iszero\n      mul\n      swap1\n      mload(0x40)\n      0x00\n      mload(0x40)\n      dup1\n      dup4\n      sub\n      dup2\n      dup6\n      dup9\n      dup9\n      call\n      swap4\n      pop\n      pop\n      pop\n      pop\n      iszero\n      dup1\n      iszero\n      tag_39\n      jumpi\n      returndatasize\n      0x00\n      dup1\n      returndatacopy\n      revert(0x00, returndatasize)\n    tag_39:\n      pop\n        /* \"github/fahadashiq/block-chain/smart-contracts/practice.sol\":326:629  function withdraw(address kid) external {\r... */\n      pop\n      jump\t// out\n        /* \"github/fahadashiq/block-chain/smart-contracts/practice.sol\":95:137  mapping(address => uint) public maturities */\n    tag_18:\n      mstore(0x20, 0x01)\n      dup1\n      0x00\n      mstore\n      keccak256(0x00, 0x40)\n      0x00\n      swap2\n      pop\n      swap1\n      pop\n      sload\n      dup2\n      jump\t// out\n        /* \"github/fahadashiq/block-chain/smart-contracts/practice.sol\":50:88  mapping(address => uint) public amount */\n    tag_24:\n      mstore(0x20, 0x00)\n      dup1\n      0x00\n      mstore\n      keccak256(0x00, 0x40)\n      0x00\n      swap2\n      pop\n      swap1\n      pop\n      sload\n      dup2\n      jump\t// out\n        /* \"#utility.yul\":7:146   */\n    tag_41:\n        /* \"#utility.yul\":53:58   */\n      0x00\n        /* \"#utility.yul\":91:97   */\n      dup2\n        /* \"#utility.yul\":78:98   */\n      calldataload\n        /* \"#utility.yul\":69:98   */\n      swap1\n      pop\n        /* \"#utility.yul\":107:140   */\n      tag_43\n        /* \"#utility.yul\":134:139   */\n      dup2\n        /* \"#utility.yul\":107:140   */\n      tag_44\n      jump\t// in\n    tag_43:\n        /* \"#utility.yul\":7:146   */\n      swap3\n      swap2\n      pop\n      pop\n      jump\t// out\n        /* \"#utility.yul\":152:291   */\n    tag_45:\n        /* \"#utility.yul\":198:203   */\n      0x00\n        /* \"#utility.yul\":236:242   */\n      dup2\n        /* \"#utility.yul\":223:243   */\n      calldataload\n        /* \"#utility.yul\":214:243   */\n      swap1\n      pop\n        /* \"#utility.yul\":252:285   */\n      tag_47\n        /* \"#utility.yul\":279:284   */\n      dup2\n        /* \"#utility.yul\":252:285   */\n      tag_48\n      jump\t// in\n    tag_47:\n        /* \"#utility.yul\":152:291   */\n      swap3\n      swap2\n      pop\n      pop\n      jump\t// out\n        /* \"#utility.yul\":297:626   */\n    tag_13:\n        /* \"#utility.yul\":356:362   */\n      0x00\n        /* \"#utility.yul\":405:407   */\n      0x20\n        /* \"#utility.yul\":393:402   */\n      dup3\n        /* \"#utility.yul\":384:391   */\n      dup5\n        /* \"#utility.yul\":380:403   */\n      sub\n        /* \"#utility.yul\":376:408   */\n      slt\n        /* \"#utility.yul\":373:492   */\n      iszero\n      tag_50\n      jumpi\n        /* \"#utility.yul\":411:490   */\n      tag_51\n      tag_52\n      jump\t// in\n    tag_51:\n        /* \"#utility.yul\":373:492   */\n    tag_50:\n        /* \"#utility.yul\":531:532   */\n      0x00\n        /* \"#utility.yul\":556:609   */\n      tag_53\n        /* \"#utility.yul\":601:608   */\n      dup5\n        /* \"#utility.yul\":592:598   */\n      dup3\n        /* \"#utility.yul\":581:590   */\n      dup6\n        /* \"#utility.yul\":577:599   */\n      add\n        /* \"#utility.yul\":556:609   */\n      tag_41\n      jump\t// in\n    tag_53:\n        /* \"#utility.yul\":546:609   */\n      swap2\n      pop\n        /* \"#utility.yul\":502:619   */\n      pop\n        /* \"#utility.yul\":297:626   */\n      swap3\n      swap2\n      pop\n      pop\n      jump\t// out\n        /* \"#utility.yul\":632:1106   */\n    tag_8:\n        /* \"#utility.yul\":700:706   */\n      0x00\n        /* \"#utility.yul\":708:714   */\n      dup1\n        /* \"#utility.yul\":757:759   */\n      0x40\n        /* \"#utility.yul\":745:754   */\n      dup4\n        /* \"#utility.yul\":736:743   */\n      dup6\n        /* \"#utility.yul\":732:755   */\n      sub\n        /* \"#utility.yul\":728:760   */\n      slt\n        /* \"#utility.yul\":725:844   */\n      iszero\n      tag_55\n      jumpi\n        /* \"#utility.yul\":763:842   */\n      tag_56\n      tag_52\n      jump\t// in\n    tag_56:\n        /* \"#utility.yul\":725:844   */\n    tag_55:\n        /* \"#utility.yul\":883:884   */\n      0x00\n        /* \"#utility.yul\":908:961   */\n      tag_57\n        /* \"#utility.yul\":953:960   */\n      dup6\n        /* \"#utility.yul\":944:950   */\n      dup3\n        /* \"#utility.yul\":933:942   */\n      dup7\n        /* \"#utility.yul\":929:951   */\n      add\n        /* \"#utility.yul\":908:961   */\n      tag_41\n      jump\t// in\n    tag_57:\n        /* \"#utility.yul\":898:961   */\n      swap3\n      pop\n        /* \"#utility.yul\":854:971   */\n      pop\n        /* \"#utility.yul\":1010:1012   */\n      0x20\n        /* \"#utility.yul\":1036:1089   */\n      tag_58\n        /* \"#utility.yul\":1081:1088   */\n      dup6\n        /* \"#utility.yul\":1072:1078   */\n      dup3\n        /* \"#utility.yul\":1061:1070   */\n      dup7\n        /* \"#utility.yul\":1057:1079   */\n      add\n        /* \"#utility.yul\":1036:1089   */\n      tag_45\n      jump\t// in\n    tag_58:\n        /* \"#utility.yul\":1026:1089   */\n      swap2\n      pop\n        /* \"#utility.yul\":981:1099   */\n      pop\n        /* \"#utility.yul\":632:1106   */\n      swap3\n      pop\n      swap3\n      swap1\n      pop\n      jump\t// out\n        /* \"#utility.yul\":1112:1477   */\n    tag_59:\n        /* \"#utility.yul\":1254:1257   */\n      0x00\n        /* \"#utility.yul\":1275:1341   */\n      tag_61\n        /* \"#utility.yul\":1339:1340   */\n      0x07\n        /* \"#utility.yul\":1334:1337   */\n      dup4\n        /* \"#utility.yul\":1275:1341   */\n      tag_62\n      jump\t// in\n    tag_61:\n        /* \"#utility.yul\":1268:1341   */\n      swap2\n      pop\n        /* \"#utility.yul\":1350:1443   */\n      tag_63\n        /* \"#utility.yul\":1439:1442   */\n      dup3\n        /* \"#utility.yul\":1350:1443   */\n      tag_64\n      jump\t// in\n    tag_63:\n        /* \"#utility.yul\":1468:1470   */\n      0x20\n        /* \"#utility.yul\":1463:1466   */\n      dup3\n        /* \"#utility.yul\":1459:1471   */\n      add\n        /* \"#utility.yul\":1452:1471   */\n      swap1\n      pop\n        /* \"#utility.yul\":1112:1477   */\n      swap2\n      swap1\n      pop\n      jump\t// out\n        /* \"#utility.yul\":1483:1849   */\n    tag_65:\n        /* \"#utility.yul\":1625:1628   */\n      0x00\n        /* \"#utility.yul\":1646:1713   */\n      tag_67\n        /* \"#utility.yul\":1710:1712   */\n      0x15\n        /* \"#utility.yul\":1705:1708   */\n      dup4\n        /* \"#utility.yul\":1646:1713   */\n      tag_62\n      jump\t// in\n    tag_67:\n        /* \"#utility.yul\":1639:1713   */\n      swap2\n      pop\n        /* \"#utility.yul\":1722:1815   */\n      tag_68\n        /* \"#utility.yul\":1811:1814   */\n      dup3\n        /* \"#utility.yul\":1722:1815   */\n      tag_69\n      jump\t// in\n    tag_68:\n        /* \"#utility.yul\":1840:1842   */\n      0x20\n        /* \"#utility.yul\":1835:1838   */\n      dup3\n        /* \"#utility.yul\":1831:1843   */\n      add\n        /* \"#utility.yul\":1824:1843   */\n      swap1\n      pop\n        /* \"#utility.yul\":1483:1849   */\n      swap2\n      swap1\n      pop\n      jump\t// out\n        /* \"#utility.yul\":1855:1973   */\n    tag_70:\n        /* \"#utility.yul\":1942:1966   */\n      tag_72\n        /* \"#utility.yul\":1960:1965   */\n      dup2\n        /* \"#utility.yul\":1942:1966   */\n      tag_73\n      jump\t// in\n    tag_72:\n        /* \"#utility.yul\":1937:1940   */\n      dup3\n        /* \"#utility.yul\":1930:1967   */\n      mstore\n        /* \"#utility.yul\":1855:1973   */\n      pop\n      pop\n      jump\t// out\n        /* \"#utility.yul\":1979:2398   */\n    tag_32:\n        /* \"#utility.yul\":2145:2149   */\n      0x00\n        /* \"#utility.yul\":2183:2185   */\n      0x20\n        /* \"#utility.yul\":2172:2181   */\n      dup3\n        /* \"#utility.yul\":2168:2186   */\n      add\n        /* \"#utility.yul\":2160:2186   */\n      swap1\n      pop\n        /* \"#utility.yul\":2232:2241   */\n      dup2\n        /* \"#utility.yul\":2226:2230   */\n      dup2\n        /* \"#utility.yul\":2222:2242   */\n      sub\n        /* \"#utility.yul\":2218:2219   */\n      0x00\n        /* \"#utility.yul\":2207:2216   */\n      dup4\n        /* \"#utility.yul\":2203:2220   */\n      add\n        /* \"#utility.yul\":2196:2243   */\n      mstore\n        /* \"#utility.yul\":2260:2391   */\n      tag_75\n        /* \"#utility.yul\":2386:2390   */\n      dup2\n        /* \"#utility.yul\":2260:2391   */\n      tag_59\n      jump\t// in\n    tag_75:\n        /* \"#utility.yul\":2252:2391   */\n      swap1\n      pop\n        /* \"#utility.yul\":1979:2398   */\n      swap2\n      swap1\n      pop\n      jump\t// out\n        /* \"#utility.yul\":2404:2823   */\n    tag_37:\n        /* \"#utility.yul\":2570:2574   */\n      0x00\n        /* \"#utility.yul\":2608:2610   */\n      0x20\n        /* \"#utility.yul\":2597:2606   */\n      dup3\n        /* \"#utility.yul\":2593:2611   */\n      add\n        /* \"#utility.yul\":2585:2611   */\n      swap1\n      pop\n        /* \"#utility.yul\":2657:2666   */\n      dup2\n        /* \"#utility.yul\":2651:2655   */\n      dup2\n        /* \"#utility.yul\":2647:2667   */\n      sub\n        /* \"#utility.yul\":2643:2644   */\n      0x00\n        /* \"#utility.yul\":2632:2641   */\n      dup4\n        /* \"#utility.yul\":2628:2645   */\n      add\n        /* \"#utility.yul\":2621:2668   */\n      mstore\n        /* \"#utility.yul\":2685:2816   */\n      tag_77\n        /* \"#utility.yul\":2811:2815   */\n      dup2\n        /* \"#utility.yul\":2685:2816   */\n      tag_65\n      jump\t// in\n    tag_77:\n        /* \"#utility.yul\":2677:2816   */\n      swap1\n      pop\n        /* \"#utility.yul\":2404:2823   */\n      swap2\n      swap1\n      pop\n      jump\t// out\n        /* \"#utility.yul\":2829:3051   */\n    tag_20:\n        /* \"#utility.yul\":2922:2926   */\n      0x00\n        /* \"#utility.yul\":2960:2962   */\n      0x20\n        /* \"#utility.yul\":2949:2958   */\n      dup3\n        /* \"#utility.yul\":2945:2963   */\n      add\n        /* \"#utility.yul\":2937:2963   */\n      swap1\n      pop\n        /* \"#utility.yul\":2973:3044   */\n      tag_79\n        /* \"#utility.yul\":3041:3042   */\n      0x00\n        /* \"#utility.yul\":3030:3039   */\n      dup4\n        /* \"#utility.yul\":3026:3043   */\n      add\n        /* \"#utility.yul\":3017:3023   */\n      dup5\n        /* \"#utility.yul\":2973:3044   */\n      tag_70\n      jump\t// in\n    tag_79:\n        /* \"#utility.yul\":2829:3051   */\n      swap3\n      swap2\n      pop\n      pop\n      jump\t// out\n        /* \"#utility.yul\":3138:3307   */\n    tag_62:\n        /* \"#utility.yul\":3222:3233   */\n      0x00\n        /* \"#utility.yul\":3256:3262   */\n      dup3\n        /* \"#utility.yul\":3251:3254   */\n      dup3\n        /* \"#utility.yul\":3244:3263   */\n      mstore\n        /* \"#utility.yul\":3296:3300   */\n      0x20\n        /* \"#utility.yul\":3291:3294   */\n      dup3\n        /* \"#utility.yul\":3287:3301   */\n      add\n        /* \"#utility.yul\":3272:3301   */\n      swap1\n      pop\n        /* \"#utility.yul\":3138:3307   */\n      swap3\n      swap2\n      pop\n      pop\n      jump\t// out\n        /* \"#utility.yul\":3313:3618   */\n    tag_28:\n        /* \"#utility.yul\":3353:3356   */\n      0x00\n        /* \"#utility.yul\":3372:3392   */\n      tag_84\n        /* \"#utility.yul\":3390:3391   */\n      dup3\n        /* \"#utility.yul\":3372:3392   */\n      tag_73\n      jump\t// in\n    tag_84:\n        /* \"#utility.yul\":3367:3392   */\n      swap2\n      pop\n        /* \"#utility.yul\":3406:3426   */\n      tag_85\n        /* \"#utility.yul\":3424:3425   */\n      dup4\n        /* \"#utility.yul\":3406:3426   */\n      tag_73\n      jump\t// in\n    tag_85:\n        /* \"#utility.yul\":3401:3426   */\n      swap3\n      pop\n        /* \"#utility.yul\":3560:3561   */\n      dup3\n        /* \"#utility.yul\":3492:3558   */\n      0xffffffffffffffffffffffffffffffffffffffffffffffffffffffffffffffff\n        /* \"#utility.yul\":3488:3562   */\n      sub\n        /* \"#utility.yul\":3485:3486   */\n      dup3\n        /* \"#utility.yul\":3482:3563   */\n      gt\n        /* \"#utility.yul\":3479:3586   */\n      iszero\n      tag_86\n      jumpi\n        /* \"#utility.yul\":3566:3584   */\n      tag_87\n      tag_88\n      jump\t// in\n    tag_87:\n        /* \"#utility.yul\":3479:3586   */\n    tag_86:\n        /* \"#utility.yul\":3610:3611   */\n      dup3\n        /* \"#utility.yul\":3607:3608   */\n      dup3\n        /* \"#utility.yul\":3603:3612   */\n      add\n        /* \"#utility.yul\":3596:3612   */\n      swap1\n      pop\n        /* \"#utility.yul\":3313:3618   */\n      swap3\n      swap2\n      pop\n      pop\n      jump\t// out\n        /* \"#utility.yul\":3624:3720   */\n    tag_89:\n        /* \"#utility.yul\":3661:3668   */\n      0x00\n        /* \"#utility.yul\":3690:3714   */\n      tag_91\n        /* \"#utility.yul\":3708:3713   */\n      dup3\n        /* \"#utility.yul\":3690:3714   */\n      tag_92\n      jump\t// in\n    tag_91:\n        /* \"#utility.yul\":3679:3714   */\n      swap1\n      pop\n        /* \"#utility.yul\":3624:3720   */\n      swap2\n      swap1\n      pop\n      jump\t// out\n        /* \"#utility.yul\":3726:3852   */\n    tag_92:\n        /* \"#utility.yul\":3763:3770   */\n      0x00\n        /* \"#utility.yul\":3803:3845   */\n      0xffffffffffffffffffffffffffffffffffffffff\n        /* \"#utility.yul\":3796:3801   */\n      dup3\n        /* \"#utility.yul\":3792:3846   */\n      and\n        /* \"#utility.yul\":3781:3846   */\n      swap1\n      pop\n        /* \"#utility.yul\":3726:3852   */\n      swap2\n      swap1\n      pop\n      jump\t// out\n        /* \"#utility.yul\":3858:3935   */\n    tag_73:\n        /* \"#utility.yul\":3895:3902   */\n      0x00\n        /* \"#utility.yul\":3924:3929   */\n      dup2\n        /* \"#utility.yul\":3913:3929   */\n      swap1\n      pop\n        /* \"#utility.yul\":3858:3935   */\n      swap2\n      swap1\n      pop\n      jump\t// out\n        /* \"#utility.yul\":3941:4121   */\n    tag_88:\n        /* \"#utility.yul\":3989:4066   */\n      0x4e487b7100000000000000000000000000000000000000000000000000000000\n        /* \"#utility.yul\":3986:3987   */\n      0x00\n        /* \"#utility.yul\":3979:4067   */\n      mstore\n        /* \"#utility.yul\":4086:4090   */\n      0x11\n        /* \"#utility.yul\":4083:4084   */\n      0x04\n        /* \"#utility.yul\":4076:4091   */\n      mstore\n        /* \"#utility.yul\":4110:4114   */\n      0x24\n        /* \"#utility.yul\":4107:4108   */\n      0x00\n        /* \"#utility.yul\":4100:4115   */\n      revert\n        /* \"#utility.yul\":4250:4367   */\n    tag_52:\n        /* \"#utility.yul\":4359:4360   */\n      0x00\n        /* \"#utility.yul\":4356:4357   */\n      dup1\n        /* \"#utility.yul\":4349:4361   */\n      revert\n        /* \"#utility.yul\":4373:4530   */\n    tag_64:\n        /* \"#utility.yul\":4513:4522   */\n      0x47726f7720757000000000000000000000000000000000000000000000000000\n        /* \"#utility.yul\":4509:4510   */\n      0x00\n        /* \"#utility.yul\":4501:4507   */\n      dup3\n        /* \"#utility.yul\":4497:4511   */\n      add\n        /* \"#utility.yul\":4490:4523   */\n      mstore\n        /* \"#utility.yul\":4373:4530   */\n      pop\n      jump\t// out\n        /* \"#utility.yul\":4536:4707   */\n    tag_69:\n        /* \"#utility.yul\":4676:4699   */\n      0x4f6e6c79206b69642063616e2077697468647261770000000000000000000000\n        /* \"#utility.yul\":4672:4673   */\n      0x00\n        /* \"#utility.yul\":4664:4670   */\n      dup3\n        /* \"#utility.yul\":4660:4674   */\n      add\n        /* \"#utility.yul\":4653:4700   */\n      mstore\n        /* \"#utility.yul\":4536:4707   */\n      pop\n      jump\t// out\n        /* \"#utility.yul\":4713:4835   */\n    tag_44:\n        /* \"#utility.yul\":4786:4810   */\n      tag_102\n        /* \"#utility.yul\":4804:4809   */\n      dup2\n        /* \"#utility.yul\":4786:4810   */\n      tag_89\n      jump\t// in\n    tag_102:\n        /* \"#utility.yul\":4779:4784   */\n      dup2\n        /* \"#utility.yul\":4776:4811   */\n      eq\n        /* \"#utility.yul\":4766:4829   */\n      tag_103\n      jumpi\n        /* \"#utility.yul\":4825:4826   */\n      0x00\n        /* \"#utility.yul\":4822:4823   */\n      dup1\n        /* \"#utility.yul\":4815:4827   */\n      revert\n        /* \"#utility.yul\":4766:4829   */\n    tag_103:\n        /* \"#utility.yul\":4713:4835   */\n      pop\n      jump\t// out\n        /* \"#utility.yul\":4841:4963   */\n    tag_48:\n        /* \"#utility.yul\":4914:4938   */\n      tag_105\n        /* \"#utility.yul\":4932:4937   */\n      dup2\n        /* \"#utility.yul\":4914:4938   */\n      tag_73\n      jump\t// in\n    tag_105:\n        /* \"#utility.yul\":4907:4912   */\n      dup2\n        /* \"#utility.yul\":4904:4939   */\n      eq\n        /* \"#utility.yul\":4894:4957   */\n      tag_106\n      jumpi\n        /* \"#utility.yul\":4953:4954   */\n      0x00\n        /* \"#utility.yul\":4950:4951   */\n      dup1\n        /* \"#utility.yul\":4943:4955   */\n      revert\n        /* \"#utility.yul\":4894:4957   */\n    tag_106:\n        /* \"#utility.yul\":4841:4963   */\n      pop\n      jump\t// out\n\n    auxdata: 0xa2646970667358221220d44182a4f4cd26933bb6021b8bccf018117e273e697c95b7b83fa366b1487ab564736f6c63430008070033\n}\n",
				"bytecode": {
					"linkReferences": {},
					"object": "608060405234801561001057600080fd5b50610659806100206000396000f3fe60806040526004361061003f5760003560e01c806340990e301461004457806351cff8d9146100605780636607250b14610089578063b9f0bf66146100c6575b600080fd5b61005e600480360381019061005991906103dc565b610103565b005b34801561006c57600080fd5b50610087600480360381019061008291906103af565b610199565b005b34801561009557600080fd5b506100b060048036038101906100ab91906103af565b610355565b6040516100bd91906104b1565b60405180910390f35b3480156100d257600080fd5b506100ed60048036038101906100e891906103af565b61036d565b6040516100fa91906104b1565b60405180910390f35b346000808473ffffffffffffffffffffffffffffffffffffffff1673ffffffffffffffffffffffffffffffffffffffff16815260200190815260200160002081905550804261015291906104dd565b600160008473ffffffffffffffffffffffffffffffffffffffff1673ffffffffffffffffffffffffffffffffffffffff168152602001908152602001600020819055505050565b600160008273ffffffffffffffffffffffffffffffffffffffff1673ffffffffffffffffffffffffffffffffffffffff1681526020019081526020016000205442101561021b576040517f08c379a000000000000000000000000000000000000000000000000000000000815260040161021290610471565b60405180910390fd5b600160008273ffffffffffffffffffffffffffffffffffffffff1673ffffffffffffffffffffffffffffffffffffffff1681526020019081526020016000205442101561029d576040517f08c379a000000000000000000000000000000000000000000000000000000000815260040161029490610471565b60405180910390fd5b8073ffffffffffffffffffffffffffffffffffffffff163373ffffffffffffffffffffffffffffffffffffffff161461030b576040517f08c379a000000000000000000000000000000000000000000000000000000000815260040161030290610491565b60405180910390fd5b3373ffffffffffffffffffffffffffffffffffffffff166108fc479081150290604051600060405180830381858888f19350505050158015610351573d6000803e3d6000fd5b5050565b60016020528060005260406000206000915090505481565b60006020528060005260406000206000915090505481565b600081359050610394816105f5565b92915050565b6000813590506103a98161060c565b92915050565b6000602082840312156103c5576103c461059e565b5b60006103d384828501610385565b91505092915050565b600080604083850312156103f3576103f261059e565b5b600061040185828601610385565b92505060206104128582860161039a565b9150509250929050565b60006104296007836104cc565b9150610434826105a3565b602082019050919050565b600061044c6015836104cc565b9150610457826105cc565b602082019050919050565b61046b81610565565b82525050565b6000602082019050818103600083015261048a8161041c565b9050919050565b600060208201905081810360008301526104aa8161043f565b9050919050565b60006020820190506104c66000830184610462565b92915050565b600082825260208201905092915050565b60006104e882610565565b91506104f383610565565b9250827fffffffffffffffffffffffffffffffffffffffffffffffffffffffffffffffff038211156105285761052761056f565b5b828201905092915050565b600061053e82610545565b9050919050565b600073ffffffffffffffffffffffffffffffffffffffff82169050919050565b6000819050919050565b7f4e487b7100000000000000000000000000000000000000000000000000000000600052601160045260246000fd5b600080fd5b7f47726f7720757000000000000000000000000000000000000000000000000000600082015250565b7f4f6e6c79206b69642063616e2077697468647261770000000000000000000000600082015250565b6105fe81610533565b811461060957600080fd5b50565b61061581610565565b811461062057600080fd5b5056fea2646970667358221220d44182a4f4cd26933bb6021b8bccf018117e273e697c95b7b83fa366b1487ab564736f6c63430008070033",
					"opcodes": "PUSH1 0x80 PUSH1 0x40 MSTORE CALLVALUE DUP1 ISZERO PUSH2 0x10 JUMPI PUSH1 0x0 DUP1 REVERT JUMPDEST POP PUSH2 0x659 DUP1 PUSH2 0x20 PUSH1 0x0 CODECOPY PUSH1 0x0 RETURN INVALID PUSH1 0x80 PUSH1 0x40 MSTORE PUSH1 0x4 CALLDATASIZE LT PUSH2 0x3F JUMPI PUSH1 0x0 CALLDATALOAD PUSH1 0xE0 SHR DUP1 PUSH4 0x40990E30 EQ PUSH2 0x44 JUMPI DUP1 PUSH4 0x51CFF8D9 EQ PUSH2 0x60 JUMPI DUP1 PUSH4 0x6607250B EQ PUSH2 0x89 JUMPI DUP1 PUSH4 0xB9F0BF66 EQ PUSH2 0xC6 JUMPI JUMPDEST PUSH1 0x0 DUP1 REVERT JUMPDEST PUSH2 0x5E PUSH1 0x4 DUP1 CALLDATASIZE SUB DUP2 ADD SWAP1 PUSH2 0x59 SWAP2 SWAP1 PUSH2 0x3DC JUMP JUMPDEST PUSH2 0x103 JUMP JUMPDEST STOP JUMPDEST CALLVALUE DUP1 ISZERO PUSH2 0x6C JUMPI PUSH1 0x0 DUP1 REVERT JUMPDEST POP PUSH2 0x87 PUSH1 0x4 DUP1 CALLDATASIZE SUB DUP2 ADD SWAP1 PUSH2 0x82 SWAP2 SWAP1 PUSH2 0x3AF JUMP JUMPDEST PUSH2 0x199 JUMP JUMPDEST STOP JUMPDEST CALLVALUE DUP1 ISZERO PUSH2 0x95 JUMPI PUSH1 0x0 DUP1 REVERT JUMPDEST POP PUSH2 0xB0 PUSH1 0x4 DUP1 CALLDATASIZE SUB DUP2 ADD SWAP1 PUSH2 0xAB SWAP2 SWAP1 PUSH2 0x3AF JUMP JUMPDEST PUSH2 0x355 JUMP JUMPDEST PUSH1 0x40 MLOAD PUSH2 0xBD SWAP2 SWAP1 PUSH2 0x4B1 JUMP JUMPDEST PUSH1 0x40 MLOAD DUP1 SWAP2 SUB SWAP1 RETURN JUMPDEST CALLVALUE DUP1 ISZERO PUSH2 0xD2 JUMPI PUSH1 0x0 DUP1 REVERT JUMPDEST POP PUSH2 0xED PUSH1 0x4 DUP1 CALLDATASIZE SUB DUP2 ADD SWAP1 PUSH2 0xE8 SWAP2 SWAP1 PUSH2 0x3AF JUMP JUMPDEST PUSH2 0x36D JUMP JUMPDEST PUSH1 0x40 MLOAD PUSH2 0xFA SWAP2 SWAP1 PUSH2 0x4B1 JUMP JUMPDEST PUSH1 0x40 MLOAD DUP1 SWAP2 SUB SWAP1 RETURN JUMPDEST CALLVALUE PUSH1 0x0 DUP1 DUP5 PUSH20 0xFFFFFFFFFFFFFFFFFFFFFFFFFFFFFFFFFFFFFFFF AND PUSH20 0xFFFFFFFFFFFFFFFFFFFFFFFFFFFFFFFFFFFFFFFF AND DUP2 MSTORE PUSH1 0x20 ADD SWAP1 DUP2 MSTORE PUSH1 0x20 ADD PUSH1 0x0 KECCAK256 DUP2 SWAP1 SSTORE POP DUP1 TIMESTAMP PUSH2 0x152 SWAP2 SWAP1 PUSH2 0x4DD JUMP JUMPDEST PUSH1 0x1 PUSH1 0x0 DUP5 PUSH20 0xFFFFFFFFFFFFFFFFFFFFFFFFFFFFFFFFFFFFFFFF AND PUSH20 0xFFFFFFFFFFFFFFFFFFFFFFFFFFFFFFFFFFFFFFFF AND DUP2 MSTORE PUSH1 0x20 ADD SWAP1 DUP2 MSTORE PUSH1 0x20 ADD PUSH1 0x0 KECCAK256 DUP2 SWAP1 SSTORE POP POP POP JUMP JUMPDEST PUSH1 0x1 PUSH1 0x0 DUP3 PUSH20 0xFFFFFFFFFFFFFFFFFFFFFFFFFFFFFFFFFFFFFFFF AND PUSH20 0xFFFFFFFFFFFFFFFFFFFFFFFFFFFFFFFFFFFFFFFF AND DUP2 MSTORE PUSH1 0x20 ADD SWAP1 DUP2 MSTORE PUSH1 0x20 ADD PUSH1 0x0 KECCAK256 SLOAD TIMESTAMP LT ISZERO PUSH2 0x21B JUMPI PUSH1 0x40 MLOAD PUSH32 0x8C379A000000000000000000000000000000000000000000000000000000000 DUP2 MSTORE PUSH1 0x4 ADD PUSH2 0x212 SWAP1 PUSH2 0x471 JUMP JUMPDEST PUSH1 0x40 MLOAD DUP1 SWAP2 SUB SWAP1 REVERT JUMPDEST PUSH1 0x1 PUSH1 0x0 DUP3 PUSH20 0xFFFFFFFFFFFFFFFFFFFFFFFFFFFFFFFFFFFFFFFF AND PUSH20 0xFFFFFFFFFFFFFFFFFFFFFFFFFFFFFFFFFFFFFFFF AND DUP2 MSTORE PUSH1 0x20 ADD SWAP1 DUP2 MSTORE PUSH1 0x20 ADD PUSH1 0x0 KECCAK256 SLOAD TIMESTAMP LT ISZERO PUSH2 0x29D JUMPI PUSH1 0x40 MLOAD PUSH32 0x8C379A000000000000000000000000000000000000000000000000000000000 DUP2 MSTORE PUSH1 0x4 ADD PUSH2 0x294 SWAP1 PUSH2 0x471 JUMP JUMPDEST PUSH1 0x40 MLOAD DUP1 SWAP2 SUB SWAP1 REVERT JUMPDEST DUP1 PUSH20 0xFFFFFFFFFFFFFFFFFFFFFFFFFFFFFFFFFFFFFFFF AND CALLER PUSH20 0xFFFFFFFFFFFFFFFFFFFFFFFFFFFFFFFFFFFFFFFF AND EQ PUSH2 0x30B JUMPI PUSH1 0x40 MLOAD PUSH32 0x8C379A000000000000000000000000000000000000000000000000000000000 DUP2 MSTORE PUSH1 0x4 ADD PUSH2 0x302 SWAP1 PUSH2 0x491 JUMP JUMPDEST PUSH1 0x40 MLOAD DUP1 SWAP2 SUB SWAP1 REVERT JUMPDEST CALLER PUSH20 0xFFFFFFFFFFFFFFFFFFFFFFFFFFFFFFFFFFFFFFFF AND PUSH2 0x8FC SELFBALANCE SWAP1 DUP2 ISZERO MUL SWAP1 PUSH1 0x40 MLOAD PUSH1 0x0 PUSH1 0x40 MLOAD DUP1 DUP4 SUB DUP2 DUP6 DUP9 DUP9 CALL SWAP4 POP POP POP POP ISZERO DUP1 ISZERO PUSH2 0x351 JUMPI RETURNDATASIZE PUSH1 0x0 DUP1 RETURNDATACOPY RETURNDATASIZE PUSH1 0x0 REVERT JUMPDEST POP POP JUMP JUMPDEST PUSH1 0x1 PUSH1 0x20 MSTORE DUP1 PUSH1 0x0 MSTORE PUSH1 0x40 PUSH1 0x0 KECCAK256 PUSH1 0x0 SWAP2 POP SWAP1 POP SLOAD DUP2 JUMP JUMPDEST PUSH1 0x0 PUSH1 0x20 MSTORE DUP1 PUSH1 0x0 MSTORE PUSH1 0x40 PUSH1 0x0 KECCAK256 PUSH1 0x0 SWAP2 POP SWAP1 POP SLOAD DUP2 JUMP JUMPDEST PUSH1 0x0 DUP2 CALLDATALOAD SWAP1 POP PUSH2 0x394 DUP2 PUSH2 0x5F5 JUMP JUMPDEST SWAP3 SWAP2 POP POP JUMP JUMPDEST PUSH1 0x0 DUP2 CALLDATALOAD SWAP1 POP PUSH2 0x3A9 DUP2 PUSH2 0x60C JUMP JUMPDEST SWAP3 SWAP2 POP POP JUMP JUMPDEST PUSH1 0x0 PUSH1 0x20 DUP3 DUP5 SUB SLT ISZERO PUSH2 0x3C5 JUMPI PUSH2 0x3C4 PUSH2 0x59E JUMP JUMPDEST JUMPDEST PUSH1 0x0 PUSH2 0x3D3 DUP5 DUP3 DUP6 ADD PUSH2 0x385 JUMP JUMPDEST SWAP2 POP POP SWAP3 SWAP2 POP POP JUMP JUMPDEST PUSH1 0x0 DUP1 PUSH1 0x40 DUP4 DUP6 SUB SLT ISZERO PUSH2 0x3F3 JUMPI PUSH2 0x3F2 PUSH2 0x59E JUMP JUMPDEST JUMPDEST PUSH1 0x0 PUSH2 0x401 DUP6 DUP3 DUP7 ADD PUSH2 0x385 JUMP JUMPDEST SWAP3 POP POP PUSH1 0x20 PUSH2 0x412 DUP6 DUP3 DUP7 ADD PUSH2 0x39A JUMP JUMPDEST SWAP2 POP POP SWAP3 POP SWAP3 SWAP1 POP JUMP JUMPDEST PUSH1 0x0 PUSH2 0x429 PUSH1 0x7 DUP4 PUSH2 0x4CC JUMP JUMPDEST SWAP2 POP PUSH2 0x434 DUP3 PUSH2 0x5A3 JUMP JUMPDEST PUSH1 0x20 DUP3 ADD SWAP1 POP SWAP2 SWAP1 POP JUMP JUMPDEST PUSH1 0x0 PUSH2 0x44C PUSH1 0x15 DUP4 PUSH2 0x4CC JUMP JUMPDEST SWAP2 POP PUSH2 0x457 DUP3 PUSH2 0x5CC JUMP JUMPDEST PUSH1 0x20 DUP3 ADD SWAP1 POP SWAP2 SWAP1 POP JUMP JUMPDEST PUSH2 0x46B DUP2 PUSH2 0x565 JUMP JUMPDEST DUP3 MSTORE POP POP JUMP JUMPDEST PUSH1 0x0 PUSH1 0x20 DUP3 ADD SWAP1 POP DUP2 DUP2 SUB PUSH1 0x0 DUP4 ADD MSTORE PUSH2 0x48A DUP2 PUSH2 0x41C JUMP JUMPDEST SWAP1 POP SWAP2 SWAP1 POP JUMP JUMPDEST PUSH1 0x0 PUSH1 0x20 DUP3 ADD SWAP1 POP DUP2 DUP2 SUB PUSH1 0x0 DUP4 ADD MSTORE PUSH2 0x4AA DUP2 PUSH2 0x43F JUMP JUMPDEST SWAP1 POP SWAP2 SWAP1 POP JUMP JUMPDEST PUSH1 0x0 PUSH1 0x20 DUP3 ADD SWAP1 POP PUSH2 0x4C6 PUSH1 0x0 DUP4 ADD DUP5 PUSH2 0x462 JUMP JUMPDEST SWAP3 SWAP2 POP POP JUMP JUMPDEST PUSH1 0x0 DUP3 DUP3 MSTORE PUSH1 0x20 DUP3 ADD SWAP1 POP SWAP3 SWAP2 POP POP JUMP JUMPDEST PUSH1 0x0 PUSH2 0x4E8 DUP3 PUSH2 0x565 JUMP JUMPDEST SWAP2 POP PUSH2 0x4F3 DUP4 PUSH2 0x565 JUMP JUMPDEST SWAP3 POP DUP3 PUSH32 0xFFFFFFFFFFFFFFFFFFFFFFFFFFFFFFFFFFFFFFFFFFFFFFFFFFFFFFFFFFFFFFFF SUB DUP3 GT ISZERO PUSH2 0x528 JUMPI PUSH2 0x527 PUSH2 0x56F JUMP JUMPDEST JUMPDEST DUP3 DUP3 ADD SWAP1 POP SWAP3 SWAP2 POP POP JUMP JUMPDEST PUSH1 0x0 PUSH2 0x53E DUP3 PUSH2 0x545 JUMP JUMPDEST SWAP1 POP SWAP2 SWAP1 POP JUMP JUMPDEST PUSH1 0x0 PUSH20 0xFFFFFFFFFFFFFFFFFFFFFFFFFFFFFFFFFFFFFFFF DUP3 AND SWAP1 POP SWAP2 SWAP1 POP JUMP JUMPDEST PUSH1 0x0 DUP2 SWAP1 POP SWAP2 SWAP1 POP JUMP JUMPDEST PUSH32 0x4E487B7100000000000000000000000000000000000000000000000000000000 PUSH1 0x0 MSTORE PUSH1 0x11 PUSH1 0x4 MSTORE PUSH1 0x24 PUSH1 0x0 REVERT JUMPDEST PUSH1 0x0 DUP1 REVERT JUMPDEST PUSH32 0x47726F7720757000000000000000000000000000000000000000000000000000 PUSH1 0x0 DUP3 ADD MSTORE POP JUMP JUMPDEST PUSH32 0x4F6E6C79206B69642063616E2077697468647261770000000000000000000000 PUSH1 0x0 DUP3 ADD MSTORE POP JUMP JUMPDEST PUSH2 0x5FE DUP2 PUSH2 0x533 JUMP JUMPDEST DUP2 EQ PUSH2 0x609 JUMPI PUSH1 0x0 DUP1 REVERT JUMPDEST POP JUMP JUMPDEST PUSH2 0x615 DUP2 PUSH2 0x565 JUMP JUMPDEST DUP2 EQ PUSH2 0x620 JUMPI PUSH1 0x0 DUP1 REVERT JUMPDEST POP JUMP INVALID LOG2 PUSH5 0x6970667358 0x22 SLT KECCAK256 0xD4 COINBASE DUP3 LOG4 DELEGATECALL 0xCD 0x26 SWAP4 EXTCODESIZE 0xB6 MUL SHL DUP12 0xCC CREATE XOR GT PUSH31 0x273E697C95B7B83FA366B1487AB564736F6C63430008070033000000000000 "
				},
				"gasEstimates": {
					"creation": {
						"codeDepositCost": "325000",
						"executionCost": "362",
						"totalCost": "325362"
					},
					"external": {
						"addKid(address,uint256)": "infinite",
						"amount(address)": "2858",
						"maturities(address)": "2836",
						"withdraw(address)": "infinite"
					}
				},
				"methodIdentifiers": {
					"addKid(address,uint256)": "40990e30",
					"amount(address)": "b9f0bf66",
					"maturities(address)": "6607250b",
					"withdraw(address)": "51cff8d9"
				}
			},
			"storageLayout": {
				"storage": [
					{
						"astId": 5,
						"contract": "github/fahadashiq/block-chain/smart-contracts/practice.sol:Trust",
						"label": "amount",
						"offset": 0,
						"slot": "0",
						"type": "t_mapping(t_address,t_uint256)"
					},
					{
						"astId": 9,
						"contract": "github/fahadashiq/block-chain/smart-contracts/practice.sol:Trust",
						"label": "maturities",
						"offset": 0,
						"slot": "1",
						"type": "t_mapping(t_address,t_uint256)"
					}
				],
				"types": {
					"t_address": {
						"encoding": "inplace",
						"label": "address",
						"numberOfBytes": "20"
					},
					"t_mapping(t_address,t_uint256)": {
						"encoding": "mapping",
						"key": "t_address",
						"label": "mapping(address => uint256)",
						"numberOfBytes": "32",
						"value": "t_uint256"
					},
					"t_uint256": {
						"encoding": "inplace",
						"label": "uint256",
						"numberOfBytes": "32"
					}
				}
			},
			"userdoc": {
				"kind": "user",
				"methods": {},
				"version": 1
			}
		}
	}
}