{
	"github/fahadashiq/block-chain/smart-contracts/practice.sol": {
		"Trust": {
			"abi": [
				{
					"inputs": [
						{
							"internalType": "address",
							"name": "_kid",
							"type": "address"
						},
						{
							"internalType": "uint256",
							"name": "timeToMaturity",
							"type": "uint256"
						}
					],
					"stateMutability": "payable",
					"type": "constructor"
				},
				{
					"inputs": [
						{
							"internalType": "address",
							"name": "kid",
							"type": "address"
						},
						{
							"internalType": "uint256",
							"name": "",
							"type": "uint256"
						}
					],
					"name": "addKid",
					"outputs": [],
					"stateMutability": "payable",
					"type": "function"
				},
				{
					"inputs": [
						{
							"internalType": "address",
							"name": "",
							"type": "address"
						}
					],
					"name": "amount",
					"outputs": [
						{
							"internalType": "uint256",
							"name": "",
							"type": "uint256"
						}
					],
					"stateMutability": "view",
					"type": "function"
				},
				{
					"inputs": [],
					"name": "kid",
					"outputs": [
						{
							"internalType": "address",
							"name": "",
							"type": "address"
						}
					],
					"stateMutability": "view",
					"type": "function"
				},
				{
					"inputs": [
						{
							"internalType": "address",
							"name": "",
							"type": "address"
						}
					],
					"name": "maturities",
					"outputs": [
						{
							"internalType": "uint256",
							"name": "",
							"type": "uint256"
						}
					],
					"stateMutability": "view",
					"type": "function"
				},
				{
					"inputs": [],
					"name": "maturity",
					"outputs": [
						{
							"internalType": "uint256",
							"name": "",
							"type": "uint256"
						}
					],
					"stateMutability": "view",
					"type": "function"
				},
				{
					"inputs": [],
					"name": "withdraw",
					"outputs": [],
					"stateMutability": "nonpayable",
					"type": "function"
				}
			],
			"devdoc": {
				"kind": "dev",
				"methods": {},
				"version": 1
			},
			"evm": {
				"assembly": "    /* \"github/fahadashiq/block-chain/smart-contracts/practice.sol\":28:639  contract Trust {\r... */\n  mstore(0x40, 0x80)\n    /* \"github/fahadashiq/block-chain/smart-contracts/practice.sol\":269:408  constructor(address _kid, uint timeToMaturity) payable {\r... */\n  mload(0x40)\n  sub(codesize, bytecodeSize)\n  dup1\n  bytecodeSize\n  dup4\n  codecopy\n  dup2\n  dup2\n  add\n  0x40\n  mstore\n  dup2\n  add\n  swap1\n  tag_1\n  swap2\n  swap1\n  tag_2\n  jump\t// in\ntag_1:\n    /* \"github/fahadashiq/block-chain/smart-contracts/practice.sol\":341:345  _kid */\n  dup2\n    /* \"github/fahadashiq/block-chain/smart-contracts/practice.sol\":335:338  kid */\n  0x02\n  0x00\n    /* \"github/fahadashiq/block-chain/smart-contracts/practice.sol\":335:345  kid = _kid */\n  0x0100\n  exp\n  dup2\n  sload\n  dup2\n  0xffffffffffffffffffffffffffffffffffffffff\n  mul\n  not\n  and\n  swap1\n  dup4\n  0xffffffffffffffffffffffffffffffffffffffff\n  and\n  mul\n  or\n  swap1\n  sstore\n  pop\n    /* \"github/fahadashiq/block-chain/smart-contracts/practice.sol\":386:400  timeToMaturity */\n  dup1\n    /* \"github/fahadashiq/block-chain/smart-contracts/practice.sol\":367:382  block.timestamp */\n  timestamp\n    /* \"github/fahadashiq/block-chain/smart-contracts/practice.sol\":367:400  block.timestamp +  timeToMaturity */\n  tag_5\n  swap2\n  swap1\n  tag_6\n  jump\t// in\ntag_5:\n    /* \"github/fahadashiq/block-chain/smart-contracts/practice.sol\":356:364  maturity */\n  0x03\n    /* \"github/fahadashiq/block-chain/smart-contracts/practice.sol\":356:400  maturity = block.timestamp +  timeToMaturity */\n  dup2\n  swap1\n  sstore\n  pop\n    /* \"github/fahadashiq/block-chain/smart-contracts/practice.sol\":269:408  constructor(address _kid, uint timeToMaturity) payable {\r... */\n  pop\n  pop\n    /* \"github/fahadashiq/block-chain/smart-contracts/practice.sol\":28:639  contract Trust {\r... */\n  jump(tag_7)\n    /* \"#utility.yul\":7:150   */\ntag_9:\n    /* \"#utility.yul\":64:69   */\n  0x00\n    /* \"#utility.yul\":95:101   */\n  dup2\n    /* \"#utility.yul\":89:102   */\n  mload\n    /* \"#utility.yul\":80:102   */\n  swap1\n  pop\n    /* \"#utility.yul\":111:144   */\n  tag_11\n    /* \"#utility.yul\":138:143   */\n  dup2\n    /* \"#utility.yul\":111:144   */\n  tag_12\n  jump\t// in\ntag_11:\n    /* \"#utility.yul\":7:150   */\n  swap3\n  swap2\n  pop\n  pop\n  jump\t// out\n    /* \"#utility.yul\":156:299   */\ntag_13:\n    /* \"#utility.yul\":213:218   */\n  0x00\n    /* \"#utility.yul\":244:250   */\n  dup2\n    /* \"#utility.yul\":238:251   */\n  mload\n    /* \"#utility.yul\":229:251   */\n  swap1\n  pop\n    /* \"#utility.yul\":260:293   */\n  tag_15\n    /* \"#utility.yul\":287:292   */\n  dup2\n    /* \"#utility.yul\":260:293   */\n  tag_16\n  jump\t// in\ntag_15:\n    /* \"#utility.yul\":156:299   */\n  swap3\n  swap2\n  pop\n  pop\n  jump\t// out\n    /* \"#utility.yul\":305:812   */\ntag_2:\n    /* \"#utility.yul\":384:390   */\n  0x00\n    /* \"#utility.yul\":392:398   */\n  dup1\n    /* \"#utility.yul\":441:443   */\n  0x40\n    /* \"#utility.yul\":429:438   */\n  dup4\n    /* \"#utility.yul\":420:427   */\n  dup6\n    /* \"#utility.yul\":416:439   */\n  sub\n    /* \"#utility.yul\":412:444   */\n  slt\n    /* \"#utility.yul\":409:528   */\n  iszero\n  tag_18\n  jumpi\n    /* \"#utility.yul\":447:526   */\n  tag_19\n  tag_20\n  jump\t// in\ntag_19:\n    /* \"#utility.yul\":409:528   */\ntag_18:\n    /* \"#utility.yul\":567:568   */\n  0x00\n    /* \"#utility.yul\":592:656   */\n  tag_21\n    /* \"#utility.yul\":648:655   */\n  dup6\n    /* \"#utility.yul\":639:645   */\n  dup3\n    /* \"#utility.yul\":628:637   */\n  dup7\n    /* \"#utility.yul\":624:646   */\n  add\n    /* \"#utility.yul\":592:656   */\n  tag_9\n  jump\t// in\ntag_21:\n    /* \"#utility.yul\":582:656   */\n  swap3\n  pop\n    /* \"#utility.yul\":538:666   */\n  pop\n    /* \"#utility.yul\":705:707   */\n  0x20\n    /* \"#utility.yul\":731:795   */\n  tag_22\n    /* \"#utility.yul\":787:794   */\n  dup6\n    /* \"#utility.yul\":778:784   */\n  dup3\n    /* \"#utility.yul\":767:776   */\n  dup7\n    /* \"#utility.yul\":763:785   */\n  add\n    /* \"#utility.yul\":731:795   */\n  tag_13\n  jump\t// in\ntag_22:\n    /* \"#utility.yul\":721:795   */\n  swap2\n  pop\n    /* \"#utility.yul\":676:805   */\n  pop\n    /* \"#utility.yul\":305:812   */\n  swap3\n  pop\n  swap3\n  swap1\n  pop\n  jump\t// out\n    /* \"#utility.yul\":899:1204   */\ntag_6:\n    /* \"#utility.yul\":939:942   */\n  0x00\n    /* \"#utility.yul\":958:978   */\n  tag_26\n    /* \"#utility.yul\":976:977   */\n  dup3\n    /* \"#utility.yul\":958:978   */\n  tag_27\n  jump\t// in\ntag_26:\n    /* \"#utility.yul\":953:978   */\n  swap2\n  pop\n    /* \"#utility.yul\":992:1012   */\n  tag_28\n    /* \"#utility.yul\":1010:1011   */\n  dup4\n    /* \"#utility.yul\":992:1012   */\n  tag_27\n  jump\t// in\ntag_28:\n    /* \"#utility.yul\":987:1012   */\n  swap3\n  pop\n    /* \"#utility.yul\":1146:1147   */\n  dup3\n    /* \"#utility.yul\":1078:1144   */\n  0xffffffffffffffffffffffffffffffffffffffffffffffffffffffffffffffff\n    /* \"#utility.yul\":1074:1148   */\n  sub\n    /* \"#utility.yul\":1071:1072   */\n  dup3\n    /* \"#utility.yul\":1068:1149   */\n  gt\n    /* \"#utility.yul\":1065:1172   */\n  iszero\n  tag_29\n  jumpi\n    /* \"#utility.yul\":1152:1170   */\n  tag_30\n  tag_31\n  jump\t// in\ntag_30:\n    /* \"#utility.yul\":1065:1172   */\ntag_29:\n    /* \"#utility.yul\":1196:1197   */\n  dup3\n    /* \"#utility.yul\":1193:1194   */\n  dup3\n    /* \"#utility.yul\":1189:1198   */\n  add\n    /* \"#utility.yul\":1182:1198   */\n  swap1\n  pop\n    /* \"#utility.yul\":899:1204   */\n  swap3\n  swap2\n  pop\n  pop\n  jump\t// out\n    /* \"#utility.yul\":1210:1306   */\ntag_32:\n    /* \"#utility.yul\":1247:1254   */\n  0x00\n    /* \"#utility.yul\":1276:1300   */\n  tag_34\n    /* \"#utility.yul\":1294:1299   */\n  dup3\n    /* \"#utility.yul\":1276:1300   */\n  tag_35\n  jump\t// in\ntag_34:\n    /* \"#utility.yul\":1265:1300   */\n  swap1\n  pop\n    /* \"#utility.yul\":1210:1306   */\n  swap2\n  swap1\n  pop\n  jump\t// out\n    /* \"#utility.yul\":1312:1438   */\ntag_35:\n    /* \"#utility.yul\":1349:1356   */\n  0x00\n    /* \"#utility.yul\":1389:1431   */\n  0xffffffffffffffffffffffffffffffffffffffff\n    /* \"#utility.yul\":1382:1387   */\n  dup3\n    /* \"#utility.yul\":1378:1432   */\n  and\n    /* \"#utility.yul\":1367:1432   */\n  swap1\n  pop\n    /* \"#utility.yul\":1312:1438   */\n  swap2\n  swap1\n  pop\n  jump\t// out\n    /* \"#utility.yul\":1444:1521   */\ntag_27:\n    /* \"#utility.yul\":1481:1488   */\n  0x00\n    /* \"#utility.yul\":1510:1515   */\n  dup2\n    /* \"#utility.yul\":1499:1515   */\n  swap1\n  pop\n    /* \"#utility.yul\":1444:1521   */\n  swap2\n  swap1\n  pop\n  jump\t// out\n    /* \"#utility.yul\":1527:1707   */\ntag_31:\n    /* \"#utility.yul\":1575:1652   */\n  0x4e487b7100000000000000000000000000000000000000000000000000000000\n    /* \"#utility.yul\":1572:1573   */\n  0x00\n    /* \"#utility.yul\":1565:1653   */\n  mstore\n    /* \"#utility.yul\":1672:1676   */\n  0x11\n    /* \"#utility.yul\":1669:1670   */\n  0x04\n    /* \"#utility.yul\":1662:1677   */\n  mstore\n    /* \"#utility.yul\":1696:1700   */\n  0x24\n    /* \"#utility.yul\":1693:1694   */\n  0x00\n    /* \"#utility.yul\":1686:1701   */\n  revert\n    /* \"#utility.yul\":1836:1953   */\ntag_20:\n    /* \"#utility.yul\":1945:1946   */\n  0x00\n    /* \"#utility.yul\":1942:1943   */\n  dup1\n    /* \"#utility.yul\":1935:1947   */\n  revert\n    /* \"#utility.yul\":1959:2081   */\ntag_12:\n    /* \"#utility.yul\":2032:2056   */\n  tag_43\n    /* \"#utility.yul\":2050:2055   */\n  dup2\n    /* \"#utility.yul\":2032:2056   */\n  tag_32\n  jump\t// in\ntag_43:\n    /* \"#utility.yul\":2025:2030   */\n  dup2\n    /* \"#utility.yul\":2022:2057   */\n  eq\n    /* \"#utility.yul\":2012:2075   */\n  tag_44\n  jumpi\n    /* \"#utility.yul\":2071:2072   */\n  0x00\n    /* \"#utility.yul\":2068:2069   */\n  dup1\n    /* \"#utility.yul\":2061:2073   */\n  revert\n    /* \"#utility.yul\":2012:2075   */\ntag_44:\n    /* \"#utility.yul\":1959:2081   */\n  pop\n  jump\t// out\n    /* \"#utility.yul\":2087:2209   */\ntag_16:\n    /* \"#utility.yul\":2160:2184   */\n  tag_46\n    /* \"#utility.yul\":2178:2183   */\n  dup2\n    /* \"#utility.yul\":2160:2184   */\n  tag_27\n  jump\t// in\ntag_46:\n    /* \"#utility.yul\":2153:2158   */\n  dup2\n    /* \"#utility.yul\":2150:2185   */\n  eq\n    /* \"#utility.yul\":2140:2203   */\n  tag_47\n  jumpi\n    /* \"#utility.yul\":2199:2200   */\n  0x00\n    /* \"#utility.yul\":2196:2197   */\n  dup1\n    /* \"#utility.yul\":2189:2201   */\n  revert\n    /* \"#utility.yul\":2140:2203   */\ntag_47:\n    /* \"#utility.yul\":2087:2209   */\n  pop\n  jump\t// out\n    /* \"github/fahadashiq/block-chain/smart-contracts/practice.sol\":28:639  contract Trust {\r... */\ntag_7:\n  dataSize(sub_0)\n  dup1\n  dataOffset(sub_0)\n  0x00\n  codecopy\n  0x00\n  return\nstop\n\nsub_0: assembly {\n        /* \"github/fahadashiq/block-chain/smart-contracts/practice.sol\":28:639  contract Trust {\r... */\n      mstore(0x40, 0x80)\n      jumpi(tag_1, lt(calldatasize, 0x04))\n      shr(0xe0, calldataload(0x00))\n      dup1\n      0x204f83f9\n      eq\n      tag_2\n      jumpi\n      dup1\n      0x3ccfd60b\n      eq\n      tag_3\n      jumpi\n      dup1\n      0x40990e30\n      eq\n      tag_4\n      jumpi\n      dup1\n      0x6607250b\n      eq\n      tag_5\n      jumpi\n      dup1\n      0xb9f0bf66\n      eq\n      tag_6\n      jumpi\n      dup1\n      0xbfa51c49\n      eq\n      tag_7\n      jumpi\n    tag_1:\n      0x00\n      dup1\n      revert\n        /* \"github/fahadashiq/block-chain/smart-contracts/practice.sol\":242:262  uint public maturity */\n    tag_2:\n      callvalue\n      dup1\n      iszero\n      tag_8\n      jumpi\n      0x00\n      dup1\n      revert\n    tag_8:\n      pop\n      tag_9\n      tag_10\n      jump\t// in\n    tag_9:\n      mload(0x40)\n      tag_11\n      swap2\n      swap1\n      tag_12\n      jump\t// in\n    tag_11:\n      mload(0x40)\n      dup1\n      swap2\n      sub\n      swap1\n      return\n        /* \"github/fahadashiq/block-chain/smart-contracts/practice.sol\":416:636  function withdraw() external {\r... */\n    tag_3:\n      callvalue\n      dup1\n      iszero\n      tag_13\n      jumpi\n      0x00\n      dup1\n      revert\n    tag_13:\n      pop\n      tag_14\n      tag_15\n      jump\t// in\n    tag_14:\n      stop\n        /* \"github/fahadashiq/block-chain/smart-contracts/practice.sol\":146:209  function addKid(address kid, uint ) external payable {\r... */\n    tag_4:\n      tag_16\n      0x04\n      dup1\n      calldatasize\n      sub\n      dup2\n      add\n      swap1\n      tag_17\n      swap2\n      swap1\n      tag_18\n      jump\t// in\n    tag_17:\n      tag_19\n      jump\t// in\n    tag_16:\n      stop\n        /* \"github/fahadashiq/block-chain/smart-contracts/practice.sol\":95:137  mapping(address => uint) public maturities */\n    tag_5:\n      callvalue\n      dup1\n      iszero\n      tag_20\n      jumpi\n      0x00\n      dup1\n      revert\n    tag_20:\n      pop\n      tag_21\n      0x04\n      dup1\n      calldatasize\n      sub\n      dup2\n      add\n      swap1\n      tag_22\n      swap2\n      swap1\n      tag_23\n      jump\t// in\n    tag_22:\n      tag_24\n      jump\t// in\n    tag_21:\n      mload(0x40)\n      tag_25\n      swap2\n      swap1\n      tag_12\n      jump\t// in\n    tag_25:\n      mload(0x40)\n      dup1\n      swap2\n      sub\n      swap1\n      return\n        /* \"github/fahadashiq/block-chain/smart-contracts/practice.sol\":50:88  mapping(address => uint) public amount */\n    tag_6:\n      callvalue\n      dup1\n      iszero\n      tag_26\n      jumpi\n      0x00\n      dup1\n      revert\n    tag_26:\n      pop\n      tag_27\n      0x04\n      dup1\n      calldatasize\n      sub\n      dup2\n      add\n      swap1\n      tag_28\n      swap2\n      swap1\n      tag_23\n      jump\t// in\n    tag_28:\n      tag_29\n      jump\t// in\n    tag_27:\n      mload(0x40)\n      tag_30\n      swap2\n      swap1\n      tag_12\n      jump\t// in\n    tag_30:\n      mload(0x40)\n      dup1\n      swap2\n      sub\n      swap1\n      return\n        /* \"github/fahadashiq/block-chain/smart-contracts/practice.sol\":217:235  address public kid */\n    tag_7:\n      callvalue\n      dup1\n      iszero\n      tag_31\n      jumpi\n      0x00\n      dup1\n      revert\n    tag_31:\n      pop\n      tag_32\n      tag_33\n      jump\t// in\n    tag_32:\n      mload(0x40)\n      tag_34\n      swap2\n      swap1\n      tag_35\n      jump\t// in\n    tag_34:\n      mload(0x40)\n      dup1\n      swap2\n      sub\n      swap1\n      return\n        /* \"github/fahadashiq/block-chain/smart-contracts/practice.sol\":242:262  uint public maturity */\n    tag_10:\n      sload(0x03)\n      dup2\n      jump\t// out\n        /* \"github/fahadashiq/block-chain/smart-contracts/practice.sol\":416:636  function withdraw() external {\r... */\n    tag_15:\n        /* \"github/fahadashiq/block-chain/smart-contracts/practice.sol\":483:491  maturity */\n      sload(0x03)\n        /* \"github/fahadashiq/block-chain/smart-contracts/practice.sol\":464:479  block.timestamp */\n      timestamp\n        /* \"github/fahadashiq/block-chain/smart-contracts/practice.sol\":464:491  block.timestamp >= maturity */\n      lt\n      iszero\n        /* \"github/fahadashiq/block-chain/smart-contracts/practice.sol\":456:503  require(block.timestamp >= maturity, 'Grow up') */\n      tag_37\n      jumpi\n      mload(0x40)\n      0x08c379a000000000000000000000000000000000000000000000000000000000\n      dup2\n      mstore\n      0x04\n      add\n      tag_38\n      swap1\n      tag_39\n      jump\t// in\n    tag_38:\n      mload(0x40)\n      dup1\n      swap2\n      sub\n      swap1\n      revert\n    tag_37:\n        /* \"github/fahadashiq/block-chain/smart-contracts/practice.sol\":536:539  kid */\n      0x02\n      0x00\n      swap1\n      sload\n      swap1\n      0x0100\n      exp\n      swap1\n      div\n      0xffffffffffffffffffffffffffffffffffffffff\n      and\n        /* \"github/fahadashiq/block-chain/smart-contracts/practice.sol\":522:539  msg.sender == kid */\n      0xffffffffffffffffffffffffffffffffffffffff\n      and\n        /* \"github/fahadashiq/block-chain/smart-contracts/practice.sol\":522:532  msg.sender */\n      caller\n        /* \"github/fahadashiq/block-chain/smart-contracts/practice.sol\":522:539  msg.sender == kid */\n      0xffffffffffffffffffffffffffffffffffffffff\n      and\n      eq\n        /* \"github/fahadashiq/block-chain/smart-contracts/practice.sol\":514:565  require(msg.sender == kid, 'Only kid can withdraw') */\n      tag_40\n      jumpi\n      mload(0x40)\n      0x08c379a000000000000000000000000000000000000000000000000000000000\n      dup2\n      mstore\n      0x04\n      add\n      tag_41\n      swap1\n      tag_42\n      jump\t// in\n    tag_41:\n      mload(0x40)\n      dup1\n      swap2\n      sub\n      swap1\n      revert\n    tag_40:\n        /* \"github/fahadashiq/block-chain/smart-contracts/practice.sol\":584:594  msg.sender */\n      caller\n        /* \"github/fahadashiq/block-chain/smart-contracts/practice.sol\":576:604  payable(msg.sender).transfer */\n      0xffffffffffffffffffffffffffffffffffffffff\n      and\n        /* \"github/fahadashiq/block-chain/smart-contracts/practice.sol\":576:627  payable(msg.sender).transfer(address(this).balance) */\n      0x08fc\n        /* \"github/fahadashiq/block-chain/smart-contracts/practice.sol\":605:626  address(this).balance */\n      selfbalance\n        /* \"github/fahadashiq/block-chain/smart-contracts/practice.sol\":576:627  payable(msg.sender).transfer(address(this).balance) */\n      swap1\n      dup2\n      iszero\n      mul\n      swap1\n      mload(0x40)\n      0x00\n      mload(0x40)\n      dup1\n      dup4\n      sub\n      dup2\n      dup6\n      dup9\n      dup9\n      call\n      swap4\n      pop\n      pop\n      pop\n      pop\n      iszero\n      dup1\n      iszero\n      tag_44\n      jumpi\n      returndatasize\n      0x00\n      dup1\n      returndatacopy\n      revert(0x00, returndatasize)\n    tag_44:\n      pop\n        /* \"github/fahadashiq/block-chain/smart-contracts/practice.sol\":416:636  function withdraw() external {\r... */\n      jump\t// out\n        /* \"github/fahadashiq/block-chain/smart-contracts/practice.sol\":146:209  function addKid(address kid, uint ) external payable {\r... */\n    tag_19:\n      pop\n      pop\n      jump\t// out\n        /* \"github/fahadashiq/block-chain/smart-contracts/practice.sol\":95:137  mapping(address => uint) public maturities */\n    tag_24:\n      mstore(0x20, 0x01)\n      dup1\n      0x00\n      mstore\n      keccak256(0x00, 0x40)\n      0x00\n      swap2\n      pop\n      swap1\n      pop\n      sload\n      dup2\n      jump\t// out\n        /* \"github/fahadashiq/block-chain/smart-contracts/practice.sol\":50:88  mapping(address => uint) public amount */\n    tag_29:\n      mstore(0x20, 0x00)\n      dup1\n      0x00\n      mstore\n      keccak256(0x00, 0x40)\n      0x00\n      swap2\n      pop\n      swap1\n      pop\n      sload\n      dup2\n      jump\t// out\n        /* \"github/fahadashiq/block-chain/smart-contracts/practice.sol\":217:235  address public kid */\n    tag_33:\n      0x02\n      0x00\n      swap1\n      sload\n      swap1\n      0x0100\n      exp\n      swap1\n      div\n      0xffffffffffffffffffffffffffffffffffffffff\n      and\n      dup2\n      jump\t// out\n        /* \"#utility.yul\":7:146   */\n    tag_47:\n        /* \"#utility.yul\":53:58   */\n      0x00\n        /* \"#utility.yul\":91:97   */\n      dup2\n        /* \"#utility.yul\":78:98   */\n      calldataload\n        /* \"#utility.yul\":69:98   */\n      swap1\n      pop\n        /* \"#utility.yul\":107:140   */\n      tag_49\n        /* \"#utility.yul\":134:139   */\n      dup2\n        /* \"#utility.yul\":107:140   */\n      tag_50\n      jump\t// in\n    tag_49:\n        /* \"#utility.yul\":7:146   */\n      swap3\n      swap2\n      pop\n      pop\n      jump\t// out\n        /* \"#utility.yul\":152:291   */\n    tag_51:\n        /* \"#utility.yul\":198:203   */\n      0x00\n        /* \"#utility.yul\":236:242   */\n      dup2\n        /* \"#utility.yul\":223:243   */\n      calldataload\n        /* \"#utility.yul\":214:243   */\n      swap1\n      pop\n        /* \"#utility.yul\":252:285   */\n      tag_53\n        /* \"#utility.yul\":279:284   */\n      dup2\n        /* \"#utility.yul\":252:285   */\n      tag_54\n      jump\t// in\n    tag_53:\n        /* \"#utility.yul\":152:291   */\n      swap3\n      swap2\n      pop\n      pop\n      jump\t// out\n        /* \"#utility.yul\":297:626   */\n    tag_23:\n        /* \"#utility.yul\":356:362   */\n      0x00\n        /* \"#utility.yul\":405:407   */\n      0x20\n        /* \"#utility.yul\":393:402   */\n      dup3\n        /* \"#utility.yul\":384:391   */\n      dup5\n        /* \"#utility.yul\":380:403   */\n      sub\n        /* \"#utility.yul\":376:408   */\n      slt\n        /* \"#utility.yul\":373:492   */\n      iszero\n      tag_56\n      jumpi\n        /* \"#utility.yul\":411:490   */\n      tag_57\n      tag_58\n      jump\t// in\n    tag_57:\n        /* \"#utility.yul\":373:492   */\n    tag_56:\n        /* \"#utility.yul\":531:532   */\n      0x00\n        /* \"#utility.yul\":556:609   */\n      tag_59\n        /* \"#utility.yul\":601:608   */\n      dup5\n        /* \"#utility.yul\":592:598   */\n      dup3\n        /* \"#utility.yul\":581:590   */\n      dup6\n        /* \"#utility.yul\":577:599   */\n      add\n        /* \"#utility.yul\":556:609   */\n      tag_47\n      jump\t// in\n    tag_59:\n        /* \"#utility.yul\":546:609   */\n      swap2\n      pop\n        /* \"#utility.yul\":502:619   */\n      pop\n        /* \"#utility.yul\":297:626   */\n      swap3\n      swap2\n      pop\n      pop\n      jump\t// out\n        /* \"#utility.yul\":632:1106   */\n    tag_18:\n        /* \"#utility.yul\":700:706   */\n      0x00\n        /* \"#utility.yul\":708:714   */\n      dup1\n        /* \"#utility.yul\":757:759   */\n      0x40\n        /* \"#utility.yul\":745:754   */\n      dup4\n        /* \"#utility.yul\":736:743   */\n      dup6\n        /* \"#utility.yul\":732:755   */\n      sub\n        /* \"#utility.yul\":728:760   */\n      slt\n        /* \"#utility.yul\":725:844   */\n      iszero\n      tag_61\n      jumpi\n        /* \"#utility.yul\":763:842   */\n      tag_62\n      tag_58\n      jump\t// in\n    tag_62:\n        /* \"#utility.yul\":725:844   */\n    tag_61:\n        /* \"#utility.yul\":883:884   */\n      0x00\n        /* \"#utility.yul\":908:961   */\n      tag_63\n        /* \"#utility.yul\":953:960   */\n      dup6\n        /* \"#utility.yul\":944:950   */\n      dup3\n        /* \"#utility.yul\":933:942   */\n      dup7\n        /* \"#utility.yul\":929:951   */\n      add\n        /* \"#utility.yul\":908:961   */\n      tag_47\n      jump\t// in\n    tag_63:\n        /* \"#utility.yul\":898:961   */\n      swap3\n      pop\n        /* \"#utility.yul\":854:971   */\n      pop\n        /* \"#utility.yul\":1010:1012   */\n      0x20\n        /* \"#utility.yul\":1036:1089   */\n      tag_64\n        /* \"#utility.yul\":1081:1088   */\n      dup6\n        /* \"#utility.yul\":1072:1078   */\n      dup3\n        /* \"#utility.yul\":1061:1070   */\n      dup7\n        /* \"#utility.yul\":1057:1079   */\n      add\n        /* \"#utility.yul\":1036:1089   */\n      tag_51\n      jump\t// in\n    tag_64:\n        /* \"#utility.yul\":1026:1089   */\n      swap2\n      pop\n        /* \"#utility.yul\":981:1099   */\n      pop\n        /* \"#utility.yul\":632:1106   */\n      swap3\n      pop\n      swap3\n      swap1\n      pop\n      jump\t// out\n        /* \"#utility.yul\":1112:1230   */\n    tag_65:\n        /* \"#utility.yul\":1199:1223   */\n      tag_67\n        /* \"#utility.yul\":1217:1222   */\n      dup2\n        /* \"#utility.yul\":1199:1223   */\n      tag_68\n      jump\t// in\n    tag_67:\n        /* \"#utility.yul\":1194:1197   */\n      dup3\n        /* \"#utility.yul\":1187:1224   */\n      mstore\n        /* \"#utility.yul\":1112:1230   */\n      pop\n      pop\n      jump\t// out\n        /* \"#utility.yul\":1236:1601   */\n    tag_69:\n        /* \"#utility.yul\":1378:1381   */\n      0x00\n        /* \"#utility.yul\":1399:1465   */\n      tag_71\n        /* \"#utility.yul\":1463:1464   */\n      0x07\n        /* \"#utility.yul\":1458:1461   */\n      dup4\n        /* \"#utility.yul\":1399:1465   */\n      tag_72\n      jump\t// in\n    tag_71:\n        /* \"#utility.yul\":1392:1465   */\n      swap2\n      pop\n        /* \"#utility.yul\":1474:1567   */\n      tag_73\n        /* \"#utility.yul\":1563:1566   */\n      dup3\n        /* \"#utility.yul\":1474:1567   */\n      tag_74\n      jump\t// in\n    tag_73:\n        /* \"#utility.yul\":1592:1594   */\n      0x20\n        /* \"#utility.yul\":1587:1590   */\n      dup3\n        /* \"#utility.yul\":1583:1595   */\n      add\n        /* \"#utility.yul\":1576:1595   */\n      swap1\n      pop\n        /* \"#utility.yul\":1236:1601   */\n      swap2\n      swap1\n      pop\n      jump\t// out\n        /* \"#utility.yul\":1607:1973   */\n    tag_75:\n        /* \"#utility.yul\":1749:1752   */\n      0x00\n        /* \"#utility.yul\":1770:1837   */\n      tag_77\n        /* \"#utility.yul\":1834:1836   */\n      0x15\n        /* \"#utility.yul\":1829:1832   */\n      dup4\n        /* \"#utility.yul\":1770:1837   */\n      tag_72\n      jump\t// in\n    tag_77:\n        /* \"#utility.yul\":1763:1837   */\n      swap2\n      pop\n        /* \"#utility.yul\":1846:1939   */\n      tag_78\n        /* \"#utility.yul\":1935:1938   */\n      dup3\n        /* \"#utility.yul\":1846:1939   */\n      tag_79\n      jump\t// in\n    tag_78:\n        /* \"#utility.yul\":1964:1966   */\n      0x20\n        /* \"#utility.yul\":1959:1962   */\n      dup3\n        /* \"#utility.yul\":1955:1967   */\n      add\n        /* \"#utility.yul\":1948:1967   */\n      swap1\n      pop\n        /* \"#utility.yul\":1607:1973   */\n      swap2\n      swap1\n      pop\n      jump\t// out\n        /* \"#utility.yul\":1979:2097   */\n    tag_80:\n        /* \"#utility.yul\":2066:2090   */\n      tag_82\n        /* \"#utility.yul\":2084:2089   */\n      dup2\n        /* \"#utility.yul\":2066:2090   */\n      tag_83\n      jump\t// in\n    tag_82:\n        /* \"#utility.yul\":2061:2064   */\n      dup3\n        /* \"#utility.yul\":2054:2091   */\n      mstore\n        /* \"#utility.yul\":1979:2097   */\n      pop\n      pop\n      jump\t// out\n        /* \"#utility.yul\":2103:2325   */\n    tag_35:\n        /* \"#utility.yul\":2196:2200   */\n      0x00\n        /* \"#utility.yul\":2234:2236   */\n      0x20\n        /* \"#utility.yul\":2223:2232   */\n      dup3\n        /* \"#utility.yul\":2219:2237   */\n      add\n        /* \"#utility.yul\":2211:2237   */\n      swap1\n      pop\n        /* \"#utility.yul\":2247:2318   */\n      tag_85\n        /* \"#utility.yul\":2315:2316   */\n      0x00\n        /* \"#utility.yul\":2304:2313   */\n      dup4\n        /* \"#utility.yul\":2300:2317   */\n      add\n        /* \"#utility.yul\":2291:2297   */\n      dup5\n        /* \"#utility.yul\":2247:2318   */\n      tag_65\n      jump\t// in\n    tag_85:\n        /* \"#utility.yul\":2103:2325   */\n      swap3\n      swap2\n      pop\n      pop\n      jump\t// out\n        /* \"#utility.yul\":2331:2750   */\n    tag_39:\n        /* \"#utility.yul\":2497:2501   */\n      0x00\n        /* \"#utility.yul\":2535:2537   */\n      0x20\n        /* \"#utility.yul\":2524:2533   */\n      dup3\n        /* \"#utility.yul\":2520:2538   */\n      add\n        /* \"#utility.yul\":2512:2538   */\n      swap1\n      pop\n        /* \"#utility.yul\":2584:2593   */\n      dup2\n        /* \"#utility.yul\":2578:2582   */\n      dup2\n        /* \"#utility.yul\":2574:2594   */\n      sub\n        /* \"#utility.yul\":2570:2571   */\n      0x00\n        /* \"#utility.yul\":2559:2568   */\n      dup4\n        /* \"#utility.yul\":2555:2572   */\n      add\n        /* \"#utility.yul\":2548:2595   */\n      mstore\n        /* \"#utility.yul\":2612:2743   */\n      tag_87\n        /* \"#utility.yul\":2738:2742   */\n      dup2\n        /* \"#utility.yul\":2612:2743   */\n      tag_69\n      jump\t// in\n    tag_87:\n        /* \"#utility.yul\":2604:2743   */\n      swap1\n      pop\n        /* \"#utility.yul\":2331:2750   */\n      swap2\n      swap1\n      pop\n      jump\t// out\n        /* \"#utility.yul\":2756:3175   */\n    tag_42:\n        /* \"#utility.yul\":2922:2926   */\n      0x00\n        /* \"#utility.yul\":2960:2962   */\n      0x20\n        /* \"#utility.yul\":2949:2958   */\n      dup3\n        /* \"#utility.yul\":2945:2963   */\n      add\n        /* \"#utility.yul\":2937:2963   */\n      swap1\n      pop\n        /* \"#utility.yul\":3009:3018   */\n      dup2\n        /* \"#utility.yul\":3003:3007   */\n      dup2\n        /* \"#utility.yul\":2999:3019   */\n      sub\n        /* \"#utility.yul\":2995:2996   */\n      0x00\n        /* \"#utility.yul\":2984:2993   */\n      dup4\n        /* \"#utility.yul\":2980:2997   */\n      add\n        /* \"#utility.yul\":2973:3020   */\n      mstore\n        /* \"#utility.yul\":3037:3168   */\n      tag_89\n        /* \"#utility.yul\":3163:3167   */\n      dup2\n        /* \"#utility.yul\":3037:3168   */\n      tag_75\n      jump\t// in\n    tag_89:\n        /* \"#utility.yul\":3029:3168   */\n      swap1\n      pop\n        /* \"#utility.yul\":2756:3175   */\n      swap2\n      swap1\n      pop\n      jump\t// out\n        /* \"#utility.yul\":3181:3403   */\n    tag_12:\n        /* \"#utility.yul\":3274:3278   */\n      0x00\n        /* \"#utility.yul\":3312:3314   */\n      0x20\n        /* \"#utility.yul\":3301:3310   */\n      dup3\n        /* \"#utility.yul\":3297:3315   */\n      add\n        /* \"#utility.yul\":3289:3315   */\n      swap1\n      pop\n        /* \"#utility.yul\":3325:3396   */\n      tag_91\n        /* \"#utility.yul\":3393:3394   */\n      0x00\n        /* \"#utility.yul\":3382:3391   */\n      dup4\n        /* \"#utility.yul\":3378:3395   */\n      add\n        /* \"#utility.yul\":3369:3375   */\n      dup5\n        /* \"#utility.yul\":3325:3396   */\n      tag_80\n      jump\t// in\n    tag_91:\n        /* \"#utility.yul\":3181:3403   */\n      swap3\n      swap2\n      pop\n      pop\n      jump\t// out\n        /* \"#utility.yul\":3490:3659   */\n    tag_72:\n        /* \"#utility.yul\":3574:3585   */\n      0x00\n        /* \"#utility.yul\":3608:3614   */\n      dup3\n        /* \"#utility.yul\":3603:3606   */\n      dup3\n        /* \"#utility.yul\":3596:3615   */\n      mstore\n        /* \"#utility.yul\":3648:3652   */\n      0x20\n        /* \"#utility.yul\":3643:3646   */\n      dup3\n        /* \"#utility.yul\":3639:3653   */\n      add\n        /* \"#utility.yul\":3624:3653   */\n      swap1\n      pop\n        /* \"#utility.yul\":3490:3659   */\n      swap3\n      swap2\n      pop\n      pop\n      jump\t// out\n        /* \"#utility.yul\":3665:3761   */\n    tag_68:\n        /* \"#utility.yul\":3702:3709   */\n      0x00\n        /* \"#utility.yul\":3731:3755   */\n      tag_96\n        /* \"#utility.yul\":3749:3754   */\n      dup3\n        /* \"#utility.yul\":3731:3755   */\n      tag_97\n      jump\t// in\n    tag_96:\n        /* \"#utility.yul\":3720:3755   */\n      swap1\n      pop\n        /* \"#utility.yul\":3665:3761   */\n      swap2\n      swap1\n      pop\n      jump\t// out\n        /* \"#utility.yul\":3767:3893   */\n    tag_97:\n        /* \"#utility.yul\":3804:3811   */\n      0x00\n        /* \"#utility.yul\":3844:3886   */\n      0xffffffffffffffffffffffffffffffffffffffff\n        /* \"#utility.yul\":3837:3842   */\n      dup3\n        /* \"#utility.yul\":3833:3887   */\n      and\n        /* \"#utility.yul\":3822:3887   */\n      swap1\n      pop\n        /* \"#utility.yul\":3767:3893   */\n      swap2\n      swap1\n      pop\n      jump\t// out\n        /* \"#utility.yul\":3899:3976   */\n    tag_83:\n        /* \"#utility.yul\":3936:3943   */\n      0x00\n        /* \"#utility.yul\":3965:3970   */\n      dup2\n        /* \"#utility.yul\":3954:3970   */\n      swap1\n      pop\n        /* \"#utility.yul\":3899:3976   */\n      swap2\n      swap1\n      pop\n      jump\t// out\n        /* \"#utility.yul\":4105:4222   */\n    tag_58:\n        /* \"#utility.yul\":4214:4215   */\n      0x00\n        /* \"#utility.yul\":4211:4212   */\n      dup1\n        /* \"#utility.yul\":4204:4216   */\n      revert\n        /* \"#utility.yul\":4228:4385   */\n    tag_74:\n        /* \"#utility.yul\":4368:4377   */\n      0x47726f7720757000000000000000000000000000000000000000000000000000\n        /* \"#utility.yul\":4364:4365   */\n      0x00\n        /* \"#utility.yul\":4356:4362   */\n      dup3\n        /* \"#utility.yul\":4352:4366   */\n      add\n        /* \"#utility.yul\":4345:4378   */\n      mstore\n        /* \"#utility.yul\":4228:4385   */\n      pop\n      jump\t// out\n        /* \"#utility.yul\":4391:4562   */\n    tag_79:\n        /* \"#utility.yul\":4531:4554   */\n      0x4f6e6c79206b69642063616e2077697468647261770000000000000000000000\n        /* \"#utility.yul\":4527:4528   */\n      0x00\n        /* \"#utility.yul\":4519:4525   */\n      dup3\n        /* \"#utility.yul\":4515:4529   */\n      add\n        /* \"#utility.yul\":4508:4555   */\n      mstore\n        /* \"#utility.yul\":4391:4562   */\n      pop\n      jump\t// out\n        /* \"#utility.yul\":4568:4690   */\n    tag_50:\n        /* \"#utility.yul\":4641:4665   */\n      tag_106\n        /* \"#utility.yul\":4659:4664   */\n      dup2\n        /* \"#utility.yul\":4641:4665   */\n      tag_68\n      jump\t// in\n    tag_106:\n        /* \"#utility.yul\":4634:4639   */\n      dup2\n        /* \"#utility.yul\":4631:4666   */\n      eq\n        /* \"#utility.yul\":4621:4684   */\n      tag_107\n      jumpi\n        /* \"#utility.yul\":4680:4681   */\n      0x00\n        /* \"#utility.yul\":4677:4678   */\n      dup1\n        /* \"#utility.yul\":4670:4682   */\n      revert\n        /* \"#utility.yul\":4621:4684   */\n    tag_107:\n        /* \"#utility.yul\":4568:4690   */\n      pop\n      jump\t// out\n        /* \"#utility.yul\":4696:4818   */\n    tag_54:\n        /* \"#utility.yul\":4769:4793   */\n      tag_109\n        /* \"#utility.yul\":4787:4792   */\n      dup2\n        /* \"#utility.yul\":4769:4793   */\n      tag_83\n      jump\t// in\n    tag_109:\n        /* \"#utility.yul\":4762:4767   */\n      dup2\n        /* \"#utility.yul\":4759:4794   */\n      eq\n        /* \"#utility.yul\":4749:4812   */\n      tag_110\n      jumpi\n        /* \"#utility.yul\":4808:4809   */\n      0x00\n        /* \"#utility.yul\":4805:4806   */\n      dup1\n        /* \"#utility.yul\":4798:4810   */\n      revert\n        /* \"#utility.yul\":4749:4812   */\n    tag_110:\n        /* \"#utility.yul\":4696:4818   */\n      pop\n      jump\t// out\n\n    auxdata: 0xa2646970667358221220b52c26bca5c0b61bd14a035d8b8ab90ca822ab1b3d835e07355ad8f20cf3e78664736f6c63430008070033\n}\n",
				"bytecode": {
					"linkReferences": {},
					"object": "6080604052604051610740380380610740833981810160405281019061002591906100a9565b81600260006101000a81548173ffffffffffffffffffffffffffffffffffffffff021916908373ffffffffffffffffffffffffffffffffffffffff160217905550804261007291906100e9565b60038190555050506101dd565b60008151905061008e816101af565b92915050565b6000815190506100a3816101c6565b92915050565b600080604083850312156100c0576100bf6101aa565b5b60006100ce8582860161007f565b92505060206100df85828601610094565b9150509250929050565b60006100f482610171565b91506100ff83610171565b9250827fffffffffffffffffffffffffffffffffffffffffffffffffffffffffffffffff038211156101345761013361017b565b5b828201905092915050565b600061014a82610151565b9050919050565b600073ffffffffffffffffffffffffffffffffffffffff82169050919050565b6000819050919050565b7f4e487b7100000000000000000000000000000000000000000000000000000000600052601160045260246000fd5b600080fd5b6101b88161013f565b81146101c357600080fd5b50565b6101cf81610171565b81146101da57600080fd5b50565b610554806101ec6000396000f3fe6080604052600436106100555760003560e01c8063204f83f91461005a5780633ccfd60b1461008557806340990e301461009c5780636607250b146100b8578063b9f0bf66146100f5578063bfa51c4914610132575b600080fd5b34801561006657600080fd5b5061006f61015d565b60405161007c9190610431565b60405180910390f35b34801561009157600080fd5b5061009a610163565b005b6100b660048036038101906100b19190610332565b610281565b005b3480156100c457600080fd5b506100df60048036038101906100da9190610305565b610285565b6040516100ec9190610431565b60405180910390f35b34801561010157600080fd5b5061011c60048036038101906101179190610305565b61029d565b6040516101299190610431565b60405180910390f35b34801561013e57600080fd5b506101476102b5565b60405161015491906103d6565b60405180910390f35b60035481565b6003544210156101a8576040517f08c379a000000000000000000000000000000000000000000000000000000000815260040161019f906103f1565b60405180910390fd5b600260009054906101000a900473ffffffffffffffffffffffffffffffffffffffff1673ffffffffffffffffffffffffffffffffffffffff163373ffffffffffffffffffffffffffffffffffffffff1614610238576040517f08c379a000000000000000000000000000000000000000000000000000000000815260040161022f90610411565b60405180910390fd5b3373ffffffffffffffffffffffffffffffffffffffff166108fc479081150290604051600060405180830381858888f1935050505015801561027e573d6000803e3d6000fd5b50565b5050565b60016020528060005260406000206000915090505481565b60006020528060005260406000206000915090505481565b600260009054906101000a900473ffffffffffffffffffffffffffffffffffffffff1681565b6000813590506102ea816104f0565b92915050565b6000813590506102ff81610507565b92915050565b60006020828403121561031b5761031a610499565b5b6000610329848285016102db565b91505092915050565b6000806040838503121561034957610348610499565b5b6000610357858286016102db565b9250506020610368858286016102f0565b9150509250929050565b61037b8161045d565b82525050565b600061038e60078361044c565b91506103998261049e565b602082019050919050565b60006103b160158361044c565b91506103bc826104c7565b602082019050919050565b6103d08161048f565b82525050565b60006020820190506103eb6000830184610372565b92915050565b6000602082019050818103600083015261040a81610381565b9050919050565b6000602082019050818103600083015261042a816103a4565b9050919050565b600060208201905061044660008301846103c7565b92915050565b600082825260208201905092915050565b60006104688261046f565b9050919050565b600073ffffffffffffffffffffffffffffffffffffffff82169050919050565b6000819050919050565b600080fd5b7f47726f7720757000000000000000000000000000000000000000000000000000600082015250565b7f4f6e6c79206b69642063616e2077697468647261770000000000000000000000600082015250565b6104f98161045d565b811461050457600080fd5b50565b6105108161048f565b811461051b57600080fd5b5056fea2646970667358221220b52c26bca5c0b61bd14a035d8b8ab90ca822ab1b3d835e07355ad8f20cf3e78664736f6c63430008070033",
					"opcodes": "PUSH1 0x80 PUSH1 0x40 MSTORE PUSH1 0x40 MLOAD PUSH2 0x740 CODESIZE SUB DUP1 PUSH2 0x740 DUP4 CODECOPY DUP2 DUP2 ADD PUSH1 0x40 MSTORE DUP2 ADD SWAP1 PUSH2 0x25 SWAP2 SWAP1 PUSH2 0xA9 JUMP JUMPDEST DUP2 PUSH1 0x2 PUSH1 0x0 PUSH2 0x100 EXP DUP2 SLOAD DUP2 PUSH20 0xFFFFFFFFFFFFFFFFFFFFFFFFFFFFFFFFFFFFFFFF MUL NOT AND SWAP1 DUP4 PUSH20 0xFFFFFFFFFFFFFFFFFFFFFFFFFFFFFFFFFFFFFFFF AND MUL OR SWAP1 SSTORE POP DUP1 TIMESTAMP PUSH2 0x72 SWAP2 SWAP1 PUSH2 0xE9 JUMP JUMPDEST PUSH1 0x3 DUP2 SWAP1 SSTORE POP POP POP PUSH2 0x1DD JUMP JUMPDEST PUSH1 0x0 DUP2 MLOAD SWAP1 POP PUSH2 0x8E DUP2 PUSH2 0x1AF JUMP JUMPDEST SWAP3 SWAP2 POP POP JUMP JUMPDEST PUSH1 0x0 DUP2 MLOAD SWAP1 POP PUSH2 0xA3 DUP2 PUSH2 0x1C6 JUMP JUMPDEST SWAP3 SWAP2 POP POP JUMP JUMPDEST PUSH1 0x0 DUP1 PUSH1 0x40 DUP4 DUP6 SUB SLT ISZERO PUSH2 0xC0 JUMPI PUSH2 0xBF PUSH2 0x1AA JUMP JUMPDEST JUMPDEST PUSH1 0x0 PUSH2 0xCE DUP6 DUP3 DUP7 ADD PUSH2 0x7F JUMP JUMPDEST SWAP3 POP POP PUSH1 0x20 PUSH2 0xDF DUP6 DUP3 DUP7 ADD PUSH2 0x94 JUMP JUMPDEST SWAP2 POP POP SWAP3 POP SWAP3 SWAP1 POP JUMP JUMPDEST PUSH1 0x0 PUSH2 0xF4 DUP3 PUSH2 0x171 JUMP JUMPDEST SWAP2 POP PUSH2 0xFF DUP4 PUSH2 0x171 JUMP JUMPDEST SWAP3 POP DUP3 PUSH32 0xFFFFFFFFFFFFFFFFFFFFFFFFFFFFFFFFFFFFFFFFFFFFFFFFFFFFFFFFFFFFFFFF SUB DUP3 GT ISZERO PUSH2 0x134 JUMPI PUSH2 0x133 PUSH2 0x17B JUMP JUMPDEST JUMPDEST DUP3 DUP3 ADD SWAP1 POP SWAP3 SWAP2 POP POP JUMP JUMPDEST PUSH1 0x0 PUSH2 0x14A DUP3 PUSH2 0x151 JUMP JUMPDEST SWAP1 POP SWAP2 SWAP1 POP JUMP JUMPDEST PUSH1 0x0 PUSH20 0xFFFFFFFFFFFFFFFFFFFFFFFFFFFFFFFFFFFFFFFF DUP3 AND SWAP1 POP SWAP2 SWAP1 POP JUMP JUMPDEST PUSH1 0x0 DUP2 SWAP1 POP SWAP2 SWAP1 POP JUMP JUMPDEST PUSH32 0x4E487B7100000000000000000000000000000000000000000000000000000000 PUSH1 0x0 MSTORE PUSH1 0x11 PUSH1 0x4 MSTORE PUSH1 0x24 PUSH1 0x0 REVERT JUMPDEST PUSH1 0x0 DUP1 REVERT JUMPDEST PUSH2 0x1B8 DUP2 PUSH2 0x13F JUMP JUMPDEST DUP2 EQ PUSH2 0x1C3 JUMPI PUSH1 0x0 DUP1 REVERT JUMPDEST POP JUMP JUMPDEST PUSH2 0x1CF DUP2 PUSH2 0x171 JUMP JUMPDEST DUP2 EQ PUSH2 0x1DA JUMPI PUSH1 0x0 DUP1 REVERT JUMPDEST POP JUMP JUMPDEST PUSH2 0x554 DUP1 PUSH2 0x1EC PUSH1 0x0 CODECOPY PUSH1 0x0 RETURN INVALID PUSH1 0x80 PUSH1 0x40 MSTORE PUSH1 0x4 CALLDATASIZE LT PUSH2 0x55 JUMPI PUSH1 0x0 CALLDATALOAD PUSH1 0xE0 SHR DUP1 PUSH4 0x204F83F9 EQ PUSH2 0x5A JUMPI DUP1 PUSH4 0x3CCFD60B EQ PUSH2 0x85 JUMPI DUP1 PUSH4 0x40990E30 EQ PUSH2 0x9C JUMPI DUP1 PUSH4 0x6607250B EQ PUSH2 0xB8 JUMPI DUP1 PUSH4 0xB9F0BF66 EQ PUSH2 0xF5 JUMPI DUP1 PUSH4 0xBFA51C49 EQ PUSH2 0x132 JUMPI JUMPDEST PUSH1 0x0 DUP1 REVERT JUMPDEST CALLVALUE DUP1 ISZERO PUSH2 0x66 JUMPI PUSH1 0x0 DUP1 REVERT JUMPDEST POP PUSH2 0x6F PUSH2 0x15D JUMP JUMPDEST PUSH1 0x40 MLOAD PUSH2 0x7C SWAP2 SWAP1 PUSH2 0x431 JUMP JUMPDEST PUSH1 0x40 MLOAD DUP1 SWAP2 SUB SWAP1 RETURN JUMPDEST CALLVALUE DUP1 ISZERO PUSH2 0x91 JUMPI PUSH1 0x0 DUP1 REVERT JUMPDEST POP PUSH2 0x9A PUSH2 0x163 JUMP JUMPDEST STOP JUMPDEST PUSH2 0xB6 PUSH1 0x4 DUP1 CALLDATASIZE SUB DUP2 ADD SWAP1 PUSH2 0xB1 SWAP2 SWAP1 PUSH2 0x332 JUMP JUMPDEST PUSH2 0x281 JUMP JUMPDEST STOP JUMPDEST CALLVALUE DUP1 ISZERO PUSH2 0xC4 JUMPI PUSH1 0x0 DUP1 REVERT JUMPDEST POP PUSH2 0xDF PUSH1 0x4 DUP1 CALLDATASIZE SUB DUP2 ADD SWAP1 PUSH2 0xDA SWAP2 SWAP1 PUSH2 0x305 JUMP JUMPDEST PUSH2 0x285 JUMP JUMPDEST PUSH1 0x40 MLOAD PUSH2 0xEC SWAP2 SWAP1 PUSH2 0x431 JUMP JUMPDEST PUSH1 0x40 MLOAD DUP1 SWAP2 SUB SWAP1 RETURN JUMPDEST CALLVALUE DUP1 ISZERO PUSH2 0x101 JUMPI PUSH1 0x0 DUP1 REVERT JUMPDEST POP PUSH2 0x11C PUSH1 0x4 DUP1 CALLDATASIZE SUB DUP2 ADD SWAP1 PUSH2 0x117 SWAP2 SWAP1 PUSH2 0x305 JUMP JUMPDEST PUSH2 0x29D JUMP JUMPDEST PUSH1 0x40 MLOAD PUSH2 0x129 SWAP2 SWAP1 PUSH2 0x431 JUMP JUMPDEST PUSH1 0x40 MLOAD DUP1 SWAP2 SUB SWAP1 RETURN JUMPDEST CALLVALUE DUP1 ISZERO PUSH2 0x13E JUMPI PUSH1 0x0 DUP1 REVERT JUMPDEST POP PUSH2 0x147 PUSH2 0x2B5 JUMP JUMPDEST PUSH1 0x40 MLOAD PUSH2 0x154 SWAP2 SWAP1 PUSH2 0x3D6 JUMP JUMPDEST PUSH1 0x40 MLOAD DUP1 SWAP2 SUB SWAP1 RETURN JUMPDEST PUSH1 0x3 SLOAD DUP2 JUMP JUMPDEST PUSH1 0x3 SLOAD TIMESTAMP LT ISZERO PUSH2 0x1A8 JUMPI PUSH1 0x40 MLOAD PUSH32 0x8C379A000000000000000000000000000000000000000000000000000000000 DUP2 MSTORE PUSH1 0x4 ADD PUSH2 0x19F SWAP1 PUSH2 0x3F1 JUMP JUMPDEST PUSH1 0x40 MLOAD DUP1 SWAP2 SUB SWAP1 REVERT JUMPDEST PUSH1 0x2 PUSH1 0x0 SWAP1 SLOAD SWAP1 PUSH2 0x100 EXP SWAP1 DIV PUSH20 0xFFFFFFFFFFFFFFFFFFFFFFFFFFFFFFFFFFFFFFFF AND PUSH20 0xFFFFFFFFFFFFFFFFFFFFFFFFFFFFFFFFFFFFFFFF AND CALLER PUSH20 0xFFFFFFFFFFFFFFFFFFFFFFFFFFFFFFFFFFFFFFFF AND EQ PUSH2 0x238 JUMPI PUSH1 0x40 MLOAD PUSH32 0x8C379A000000000000000000000000000000000000000000000000000000000 DUP2 MSTORE PUSH1 0x4 ADD PUSH2 0x22F SWAP1 PUSH2 0x411 JUMP JUMPDEST PUSH1 0x40 MLOAD DUP1 SWAP2 SUB SWAP1 REVERT JUMPDEST CALLER PUSH20 0xFFFFFFFFFFFFFFFFFFFFFFFFFFFFFFFFFFFFFFFF AND PUSH2 0x8FC SELFBALANCE SWAP1 DUP2 ISZERO MUL SWAP1 PUSH1 0x40 MLOAD PUSH1 0x0 PUSH1 0x40 MLOAD DUP1 DUP4 SUB DUP2 DUP6 DUP9 DUP9 CALL SWAP4 POP POP POP POP ISZERO DUP1 ISZERO PUSH2 0x27E JUMPI RETURNDATASIZE PUSH1 0x0 DUP1 RETURNDATACOPY RETURNDATASIZE PUSH1 0x0 REVERT JUMPDEST POP JUMP JUMPDEST POP POP JUMP JUMPDEST PUSH1 0x1 PUSH1 0x20 MSTORE DUP1 PUSH1 0x0 MSTORE PUSH1 0x40 PUSH1 0x0 KECCAK256 PUSH1 0x0 SWAP2 POP SWAP1 POP SLOAD DUP2 JUMP JUMPDEST PUSH1 0x0 PUSH1 0x20 MSTORE DUP1 PUSH1 0x0 MSTORE PUSH1 0x40 PUSH1 0x0 KECCAK256 PUSH1 0x0 SWAP2 POP SWAP1 POP SLOAD DUP2 JUMP JUMPDEST PUSH1 0x2 PUSH1 0x0 SWAP1 SLOAD SWAP1 PUSH2 0x100 EXP SWAP1 DIV PUSH20 0xFFFFFFFFFFFFFFFFFFFFFFFFFFFFFFFFFFFFFFFF AND DUP2 JUMP JUMPDEST PUSH1 0x0 DUP2 CALLDATALOAD SWAP1 POP PUSH2 0x2EA DUP2 PUSH2 0x4F0 JUMP JUMPDEST SWAP3 SWAP2 POP POP JUMP JUMPDEST PUSH1 0x0 DUP2 CALLDATALOAD SWAP1 POP PUSH2 0x2FF DUP2 PUSH2 0x507 JUMP JUMPDEST SWAP3 SWAP2 POP POP JUMP JUMPDEST PUSH1 0x0 PUSH1 0x20 DUP3 DUP5 SUB SLT ISZERO PUSH2 0x31B JUMPI PUSH2 0x31A PUSH2 0x499 JUMP JUMPDEST JUMPDEST PUSH1 0x0 PUSH2 0x329 DUP5 DUP3 DUP6 ADD PUSH2 0x2DB JUMP JUMPDEST SWAP2 POP POP SWAP3 SWAP2 POP POP JUMP JUMPDEST PUSH1 0x0 DUP1 PUSH1 0x40 DUP4 DUP6 SUB SLT ISZERO PUSH2 0x349 JUMPI PUSH2 0x348 PUSH2 0x499 JUMP JUMPDEST JUMPDEST PUSH1 0x0 PUSH2 0x357 DUP6 DUP3 DUP7 ADD PUSH2 0x2DB JUMP JUMPDEST SWAP3 POP POP PUSH1 0x20 PUSH2 0x368 DUP6 DUP3 DUP7 ADD PUSH2 0x2F0 JUMP JUMPDEST SWAP2 POP POP SWAP3 POP SWAP3 SWAP1 POP JUMP JUMPDEST PUSH2 0x37B DUP2 PUSH2 0x45D JUMP JUMPDEST DUP3 MSTORE POP POP JUMP JUMPDEST PUSH1 0x0 PUSH2 0x38E PUSH1 0x7 DUP4 PUSH2 0x44C JUMP JUMPDEST SWAP2 POP PUSH2 0x399 DUP3 PUSH2 0x49E JUMP JUMPDEST PUSH1 0x20 DUP3 ADD SWAP1 POP SWAP2 SWAP1 POP JUMP JUMPDEST PUSH1 0x0 PUSH2 0x3B1 PUSH1 0x15 DUP4 PUSH2 0x44C JUMP JUMPDEST SWAP2 POP PUSH2 0x3BC DUP3 PUSH2 0x4C7 JUMP JUMPDEST PUSH1 0x20 DUP3 ADD SWAP1 POP SWAP2 SWAP1 POP JUMP JUMPDEST PUSH2 0x3D0 DUP2 PUSH2 0x48F JUMP JUMPDEST DUP3 MSTORE POP POP JUMP JUMPDEST PUSH1 0x0 PUSH1 0x20 DUP3 ADD SWAP1 POP PUSH2 0x3EB PUSH1 0x0 DUP4 ADD DUP5 PUSH2 0x372 JUMP JUMPDEST SWAP3 SWAP2 POP POP JUMP JUMPDEST PUSH1 0x0 PUSH1 0x20 DUP3 ADD SWAP1 POP DUP2 DUP2 SUB PUSH1 0x0 DUP4 ADD MSTORE PUSH2 0x40A DUP2 PUSH2 0x381 JUMP JUMPDEST SWAP1 POP SWAP2 SWAP1 POP JUMP JUMPDEST PUSH1 0x0 PUSH1 0x20 DUP3 ADD SWAP1 POP DUP2 DUP2 SUB PUSH1 0x0 DUP4 ADD MSTORE PUSH2 0x42A DUP2 PUSH2 0x3A4 JUMP JUMPDEST SWAP1 POP SWAP2 SWAP1 POP JUMP JUMPDEST PUSH1 0x0 PUSH1 0x20 DUP3 ADD SWAP1 POP PUSH2 0x446 PUSH1 0x0 DUP4 ADD DUP5 PUSH2 0x3C7 JUMP JUMPDEST SWAP3 SWAP2 POP POP JUMP JUMPDEST PUSH1 0x0 DUP3 DUP3 MSTORE PUSH1 0x20 DUP3 ADD SWAP1 POP SWAP3 SWAP2 POP POP JUMP JUMPDEST PUSH1 0x0 PUSH2 0x468 DUP3 PUSH2 0x46F JUMP JUMPDEST SWAP1 POP SWAP2 SWAP1 POP JUMP JUMPDEST PUSH1 0x0 PUSH20 0xFFFFFFFFFFFFFFFFFFFFFFFFFFFFFFFFFFFFFFFF DUP3 AND SWAP1 POP SWAP2 SWAP1 POP JUMP JUMPDEST PUSH1 0x0 DUP2 SWAP1 POP SWAP2 SWAP1 POP JUMP JUMPDEST PUSH1 0x0 DUP1 REVERT JUMPDEST PUSH32 0x47726F7720757000000000000000000000000000000000000000000000000000 PUSH1 0x0 DUP3 ADD MSTORE POP JUMP JUMPDEST PUSH32 0x4F6E6C79206B69642063616E2077697468647261770000000000000000000000 PUSH1 0x0 DUP3 ADD MSTORE POP JUMP JUMPDEST PUSH2 0x4F9 DUP2 PUSH2 0x45D JUMP JUMPDEST DUP2 EQ PUSH2 0x504 JUMPI PUSH1 0x0 DUP1 REVERT JUMPDEST POP JUMP JUMPDEST PUSH2 0x510 DUP2 PUSH2 0x48F JUMP JUMPDEST DUP2 EQ PUSH2 0x51B JUMPI PUSH1 0x0 DUP1 REVERT JUMPDEST POP JUMP INVALID LOG2 PUSH5 0x6970667358 0x22 SLT KECCAK256 0xB5 0x2C 0x26 0xBC 0xA5 0xC0 0xB6 SHL 0xD1 0x4A SUB 0x5D DUP12 DUP11 0xB9 0xC 0xA8 0x22 0xAB SHL RETURNDATASIZE DUP4 0x5E SMOD CALLDATALOAD GAS 0xD8 CALLCODE 0xC RETURN 0xE7 DUP7 PUSH5 0x736F6C6343 STOP ADDMOD SMOD STOP CALLER "
				},
				"gasEstimates": {
					"creation": {
						"codeDepositCost": "272800",
						"executionCost": "infinite",
						"totalCost": "infinite"
					},
					"external": {
						"addKid(address,uint256)": "626",
						"amount(address)": "2880",
						"kid()": "2602",
						"maturities(address)": "2858",
						"maturity()": "2407",
						"withdraw()": "infinite"
					}
				},
				"methodIdentifiers": {
					"addKid(address,uint256)": "40990e30",
					"amount(address)": "b9f0bf66",
					"kid()": "bfa51c49",
					"maturities(address)": "6607250b",
					"maturity()": "204f83f9",
					"withdraw()": "3ccfd60b"
				}
			},
			"storageLayout": {
				"storage": [
					{
						"astId": 5,
						"contract": "github/fahadashiq/block-chain/smart-contracts/practice.sol:Trust",
						"label": "amount",
						"offset": 0,
						"slot": "0",
						"type": "t_mapping(t_address,t_uint256)"
					},
					{
						"astId": 9,
						"contract": "github/fahadashiq/block-chain/smart-contracts/practice.sol:Trust",
						"label": "maturities",
						"offset": 0,
						"slot": "1",
						"type": "t_mapping(t_address,t_uint256)"
					},
					{
						"astId": 19,
						"contract": "github/fahadashiq/block-chain/smart-contracts/practice.sol:Trust",
						"label": "kid",
						"offset": 0,
						"slot": "2",
						"type": "t_address"
					},
					{
						"astId": 21,
						"contract": "github/fahadashiq/block-chain/smart-contracts/practice.sol:Trust",
						"label": "maturity",
						"offset": 0,
						"slot": "3",
						"type": "t_uint256"
					}
				],
				"types": {
					"t_address": {
						"encoding": "inplace",
						"label": "address",
						"numberOfBytes": "20"
					},
					"t_mapping(t_address,t_uint256)": {
						"encoding": "mapping",
						"key": "t_address",
						"label": "mapping(address => uint256)",
						"numberOfBytes": "32",
						"value": "t_uint256"
					},
					"t_uint256": {
						"encoding": "inplace",
						"label": "uint256",
						"numberOfBytes": "32"
					}
				}
			},
			"userdoc": {
				"kind": "user",
				"methods": {},
				"version": 1
			}
		}
	}
}