{
	"github/fahadashiq/block-chain/smart-contracts/voting.sol": {
		"Voting": {
			"abi": [
				{
					"inputs": [],
					"stateMutability": "nonpayable",
					"type": "constructor"
				},
				{
					"inputs": [
						{
							"internalType": "string",
							"name": "campaignName",
							"type": "string"
						}
					],
					"name": "addCampaign",
					"outputs": [],
					"stateMutability": "nonpayable",
					"type": "function"
				},
				{
					"inputs": [],
					"name": "admin",
					"outputs": [
						{
							"internalType": "address",
							"name": "",
							"type": "address"
						}
					],
					"stateMutability": "view",
					"type": "function"
				},
				{
					"inputs": [
						{
							"internalType": "string",
							"name": "",
							"type": "string"
						}
					],
					"name": "campaigns",
					"outputs": [
						{
							"internalType": "string",
							"name": "name",
							"type": "string"
						}
					],
					"stateMutability": "view",
					"type": "function"
				},
				{
					"inputs": [
						{
							"internalType": "uint256",
							"name": "",
							"type": "uint256"
						}
					],
					"name": "compaignNames",
					"outputs": [
						{
							"internalType": "string",
							"name": "",
							"type": "string"
						}
					],
					"stateMutability": "view",
					"type": "function"
				},
				{
					"inputs": [],
					"name": "getAllCampaigns",
					"outputs": [
						{
							"components": [
								{
									"internalType": "string",
									"name": "name",
									"type": "string"
								},
								{
									"components": [
										{
											"internalType": "string",
											"name": "name",
											"type": "string"
										},
										{
											"internalType": "string",
											"name": "sign",
											"type": "string"
										},
										{
											"internalType": "uint256",
											"name": "votes",
											"type": "uint256"
										}
									],
									"internalType": "struct Voting.Candidate[]",
									"name": "candidates",
									"type": "tuple[]"
								}
							],
							"internalType": "struct Voting.Campaign",
							"name": "campaign",
							"type": "tuple"
						}
					],
					"stateMutability": "view",
					"type": "function"
				},
				{
					"inputs": [],
					"name": "getAllCompainNames",
					"outputs": [
						{
							"internalType": "string[]",
							"name": "",
							"type": "string[]"
						}
					],
					"stateMutability": "view",
					"type": "function"
				},
				{
					"inputs": [],
					"name": "getNumResult",
					"outputs": [
						{
							"internalType": "uint256",
							"name": "res",
							"type": "uint256"
						}
					],
					"stateMutability": "view",
					"type": "function"
				}
			],
			"devdoc": {
				"kind": "dev",
				"methods": {},
				"version": 1
			},
			"evm": {
				"assembly": "    /* \"github/fahadashiq/block-chain/smart-contracts/voting.sol\":109:3333  contract Voting {... */\n  mstore(0x40, 0x80)\n    /* \"github/fahadashiq/block-chain/smart-contracts/voting.sol\":853:904  constructor() {... */\n  callvalue\n  dup1\n  iszero\n  tag_1\n  jumpi\n  0x00\n  dup1\n  revert\ntag_1:\n  pop\n    /* \"github/fahadashiq/block-chain/smart-contracts/voting.sol\":886:896  msg.sender */\n  caller\n    /* \"github/fahadashiq/block-chain/smart-contracts/voting.sol\":878:883  admin */\n  0x03\n  0x00\n    /* \"github/fahadashiq/block-chain/smart-contracts/voting.sol\":878:896  admin = msg.sender */\n  0x0100\n  exp\n  dup2\n  sload\n  dup2\n  0xffffffffffffffffffffffffffffffffffffffff\n  mul\n  not\n  and\n  swap1\n  dup4\n  0xffffffffffffffffffffffffffffffffffffffff\n  and\n  mul\n  or\n  swap1\n  sstore\n  pop\n    /* \"github/fahadashiq/block-chain/smart-contracts/voting.sol\":109:3333  contract Voting {... */\n  dataSize(sub_0)\n  dup1\n  dataOffset(sub_0)\n  0x00\n  codecopy\n  0x00\n  return\nstop\n\nsub_0: assembly {\n        /* \"github/fahadashiq/block-chain/smart-contracts/voting.sol\":109:3333  contract Voting {... */\n      mstore(0x40, 0x80)\n      callvalue\n      dup1\n      iszero\n      tag_1\n      jumpi\n      0x00\n      dup1\n      revert\n    tag_1:\n      pop\n      jumpi(tag_2, lt(calldatasize, 0x04))\n      shr(0xe0, calldataload(0x00))\n      dup1\n      0x86cdf604\n      gt\n      tag_10\n      jumpi\n      dup1\n      0x86cdf604\n      eq\n      tag_6\n      jumpi\n      dup1\n      0xbf80f44a\n      eq\n      tag_7\n      jumpi\n      dup1\n      0xc157b6f5\n      eq\n      tag_8\n      jumpi\n      dup1\n      0xf851a440\n      eq\n      tag_9\n      jumpi\n      jump(tag_2)\n    tag_10:\n      dup1\n      0x1d39e509\n      eq\n      tag_3\n      jumpi\n      dup1\n      0x202e7be4\n      eq\n      tag_4\n      jumpi\n      dup1\n      0x6f732627\n      eq\n      tag_5\n      jumpi\n    tag_2:\n      0x00\n      dup1\n      revert\n        /* \"github/fahadashiq/block-chain/smart-contracts/voting.sol\":654:698  mapping(string => Campaign) public campaigns */\n    tag_3:\n      tag_11\n      0x04\n      dup1\n      calldatasize\n      sub\n      dup2\n      add\n      swap1\n      tag_12\n      swap2\n      swap1\n      tag_13\n      jump\t// in\n    tag_12:\n      tag_14\n      jump\t// in\n    tag_11:\n      mload(0x40)\n      tag_15\n      swap2\n      swap1\n      tag_16\n      jump\t// in\n    tag_15:\n      mload(0x40)\n      dup1\n      swap2\n      sub\n      swap1\n      return\n        /* \"github/fahadashiq/block-chain/smart-contracts/voting.sol\":914:2017  function addCampaign(string memory campaignName) public {... */\n    tag_4:\n      tag_17\n      0x04\n      dup1\n      calldatasize\n      sub\n      dup2\n      add\n      swap1\n      tag_18\n      swap2\n      swap1\n      tag_13\n      jump\t// in\n    tag_18:\n      tag_19\n      jump\t// in\n    tag_17:\n      stop\n        /* \"github/fahadashiq/block-chain/smart-contracts/voting.sol\":786:815  string[] public compaignNames */\n    tag_5:\n      tag_20\n      0x04\n      dup1\n      calldatasize\n      sub\n      dup2\n      add\n      swap1\n      tag_21\n      swap2\n      swap1\n      tag_22\n      jump\t// in\n    tag_21:\n      tag_23\n      jump\t// in\n    tag_20:\n      mload(0x40)\n      tag_24\n      swap2\n      swap1\n      tag_16\n      jump\t// in\n    tag_24:\n      mload(0x40)\n      dup1\n      swap2\n      sub\n      swap1\n      return\n        /* \"github/fahadashiq/block-chain/smart-contracts/voting.sol\":2026:2140  function getAllCampaigns()public view returns(Campaign memory campaign){... */\n    tag_6:\n      tag_25\n      tag_26\n      jump\t// in\n    tag_25:\n      mload(0x40)\n      tag_27\n      swap2\n      swap1\n      tag_28\n      jump\t// in\n    tag_27:\n      mload(0x40)\n      dup1\n      swap2\n      sub\n      swap1\n      return\n        /* \"github/fahadashiq/block-chain/smart-contracts/voting.sol\":2466:2552  function getNumResult() public view returns (uint res) {... */\n    tag_7:\n      tag_29\n      tag_30\n      jump\t// in\n    tag_29:\n      mload(0x40)\n      tag_31\n      swap2\n      swap1\n      tag_32\n      jump\t// in\n    tag_31:\n      mload(0x40)\n      dup1\n      swap2\n      sub\n      swap1\n      return\n        /* \"github/fahadashiq/block-chain/smart-contracts/voting.sol\":2148:2455  function getAllCompainNames() public view returns (string[] memory) {... */\n    tag_8:\n      tag_33\n      tag_34\n      jump\t// in\n    tag_33:\n      mload(0x40)\n      tag_35\n      swap2\n      swap1\n      tag_36\n      jump\t// in\n    tag_35:\n      mload(0x40)\n      dup1\n      swap2\n      sub\n      swap1\n      return\n        /* \"github/fahadashiq/block-chain/smart-contracts/voting.sol\":824:844  address public admin */\n    tag_9:\n      tag_37\n      tag_38\n      jump\t// in\n    tag_37:\n      mload(0x40)\n      tag_39\n      swap2\n      swap1\n      tag_40\n      jump\t// in\n    tag_39:\n      mload(0x40)\n      dup1\n      swap2\n      sub\n      swap1\n      return\n        /* \"github/fahadashiq/block-chain/smart-contracts/voting.sol\":654:698  mapping(string => Campaign) public campaigns */\n    tag_14:\n      0x00\n      dup2\n      dup1\n      mload\n      0x20\n      dup2\n      add\n      dup3\n      add\n      dup1\n      mload\n      dup5\n      dup3\n      mstore\n      0x20\n      dup4\n      add\n      0x20\n      dup6\n      add\n      keccak256\n      dup2\n      dup4\n      mstore\n      dup1\n      swap6\n      pop\n      pop\n      pop\n      pop\n      pop\n      pop\n      0x00\n      swap2\n      pop\n      swap1\n      pop\n      dup1\n      0x00\n      add\n      dup1\n      sload\n      tag_41\n      swap1\n      tag_42\n      jump\t// in\n    tag_41:\n      dup1\n      0x1f\n      add\n      0x20\n      dup1\n      swap2\n      div\n      mul\n      0x20\n      add\n      mload(0x40)\n      swap1\n      dup2\n      add\n      0x40\n      mstore\n      dup1\n      swap3\n      swap2\n      swap1\n      dup2\n      dup2\n      mstore\n      0x20\n      add\n      dup3\n      dup1\n      sload\n      tag_43\n      swap1\n      tag_42\n      jump\t// in\n    tag_43:\n      dup1\n      iszero\n      tag_44\n      jumpi\n      dup1\n      0x1f\n      lt\n      tag_45\n      jumpi\n      0x0100\n      dup1\n      dup4\n      sload\n      div\n      mul\n      dup4\n      mstore\n      swap2\n      0x20\n      add\n      swap2\n      jump(tag_44)\n    tag_45:\n      dup3\n      add\n      swap2\n      swap1\n      0x00\n      mstore\n      keccak256(0x00, 0x20)\n      swap1\n    tag_46:\n      dup2\n      sload\n      dup2\n      mstore\n      swap1\n      0x01\n      add\n      swap1\n      0x20\n      add\n      dup1\n      dup4\n      gt\n      tag_46\n      jumpi\n      dup3\n      swap1\n      sub\n      0x1f\n      and\n      dup3\n      add\n      swap2\n    tag_44:\n      pop\n      pop\n      pop\n      pop\n      pop\n      swap1\n      pop\n      dup2\n      jump\t// out\n        /* \"github/fahadashiq/block-chain/smart-contracts/voting.sol\":914:2017  function addCampaign(string memory campaignName) public {... */\n    tag_19:\n        /* \"github/fahadashiq/block-chain/smart-contracts/voting.sol\":1003:1008  admin */\n      0x03\n      0x00\n      swap1\n      sload\n      swap1\n      0x0100\n      exp\n      swap1\n      div\n      0xffffffffffffffffffffffffffffffffffffffff\n      and\n        /* \"github/fahadashiq/block-chain/smart-contracts/voting.sol\":989:1008  msg.sender == admin */\n      0xffffffffffffffffffffffffffffffffffffffff\n      and\n        /* \"github/fahadashiq/block-chain/smart-contracts/voting.sol\":989:999  msg.sender */\n      caller\n        /* \"github/fahadashiq/block-chain/smart-contracts/voting.sol\":989:1008  msg.sender == admin */\n      0xffffffffffffffffffffffffffffffffffffffff\n      and\n      eq\n        /* \"github/fahadashiq/block-chain/smart-contracts/voting.sol\":981:1044  require(msg.sender == admin, 'Only admin can start a campaign') */\n      tag_48\n      jumpi\n      mload(0x40)\n      0x08c379a000000000000000000000000000000000000000000000000000000000\n      dup2\n      mstore\n      0x04\n      add\n      tag_49\n      swap1\n      tag_50\n      jump\t// in\n    tag_49:\n      mload(0x40)\n      dup1\n      swap2\n      sub\n      swap1\n      revert\n    tag_48:\n        /* \"github/fahadashiq/block-chain/smart-contracts/voting.sol\":1448:1469  Campaign storage comp */\n      0x00\n        /* \"github/fahadashiq/block-chain/smart-contracts/voting.sol\":1472:1481  campaigns */\n      dup1\n        /* \"github/fahadashiq/block-chain/smart-contracts/voting.sol\":1482:1494  campaignName */\n      dup3\n        /* \"github/fahadashiq/block-chain/smart-contracts/voting.sol\":1472:1495  campaigns[campaignName] */\n      mload(0x40)\n      tag_51\n      swap2\n      swap1\n      tag_52\n      jump\t// in\n    tag_51:\n      swap1\n      dup2\n      mstore\n      0x20\n      add\n      mload(0x40)\n      dup1\n      swap2\n      sub\n      swap1\n      keccak256\n        /* \"github/fahadashiq/block-chain/smart-contracts/voting.sol\":1448:1495  Campaign storage comp = campaigns[campaignName] */\n      swap1\n      pop\n        /* \"github/fahadashiq/block-chain/smart-contracts/voting.sol\":1518:1530  campaignName */\n      dup2\n        /* \"github/fahadashiq/block-chain/smart-contracts/voting.sol\":1506:1510  comp */\n      dup2\n        /* \"github/fahadashiq/block-chain/smart-contracts/voting.sol\":1506:1515  comp.name */\n      0x00\n      add\n        /* \"github/fahadashiq/block-chain/smart-contracts/voting.sol\":1506:1530  comp.name = campaignName */\n      swap1\n      dup1\n      mload\n      swap1\n      0x20\n      add\n      swap1\n      tag_53\n      swap3\n      swap2\n      swap1\n      tag_54\n      jump\t// in\n    tag_53:\n      pop\n        /* \"github/fahadashiq/block-chain/smart-contracts/voting.sol\":1613:1617  comp */\n      dup1\n        /* \"github/fahadashiq/block-chain/smart-contracts/voting.sol\":1613:1628  comp.candidates */\n      0x01\n      add\n        /* \"github/fahadashiq/block-chain/smart-contracts/voting.sol\":1634:1666  Candidate('name-1', 'sign-1', 0) */\n      mload(0x40)\n      dup1\n      0x60\n      add\n      0x40\n      mstore\n      dup1\n      mload(0x40)\n      dup1\n      0x40\n      add\n      0x40\n      mstore\n      dup1\n      0x06\n      dup2\n      mstore\n      0x20\n      add\n      0x6e616d652d310000000000000000000000000000000000000000000000000000\n      dup2\n      mstore\n      pop\n      dup2\n      mstore\n      0x20\n      add\n      mload(0x40)\n      dup1\n      0x40\n      add\n      0x40\n      mstore\n      dup1\n      0x06\n      dup2\n      mstore\n      0x20\n      add\n      0x7369676e2d310000000000000000000000000000000000000000000000000000\n      dup2\n      mstore\n      pop\n      dup2\n      mstore\n      0x20\n      add\n        /* \"github/fahadashiq/block-chain/smart-contracts/voting.sol\":1664:1665  0 */\n      0x00\n        /* \"github/fahadashiq/block-chain/smart-contracts/voting.sol\":1634:1666  Candidate('name-1', 'sign-1', 0) */\n      dup2\n      mstore\n      pop\n        /* \"github/fahadashiq/block-chain/smart-contracts/voting.sol\":1613:1667  comp.candidates.push(Candidate('name-1', 'sign-1', 0)) */\n      swap1\n      dup1\n      0x01\n      dup2\n      sload\n      add\n      dup1\n      dup3\n      sstore\n      dup1\n      swap2\n      pop\n      pop\n      0x01\n      swap1\n      sub\n      swap1\n      0x00\n      mstore\n      keccak256(0x00, 0x20)\n      swap1\n      0x03\n      mul\n      add\n      0x00\n      swap1\n      swap2\n      swap1\n      swap2\n      swap1\n      swap2\n      pop\n      0x00\n      dup3\n      add\n      mload\n      dup2\n      0x00\n      add\n      swap1\n      dup1\n      mload\n      swap1\n      0x20\n      add\n      swap1\n      tag_56\n      swap3\n      swap2\n      swap1\n      tag_54\n      jump\t// in\n    tag_56:\n      pop\n      0x20\n      dup3\n      add\n      mload\n      dup2\n      0x01\n      add\n      swap1\n      dup1\n      mload\n      swap1\n      0x20\n      add\n      swap1\n      tag_57\n      swap3\n      swap2\n      swap1\n      tag_54\n      jump\t// in\n    tag_57:\n      pop\n      0x40\n      dup3\n      add\n      mload\n      dup2\n      0x02\n      add\n      sstore\n      pop\n      pop\n        /* \"github/fahadashiq/block-chain/smart-contracts/voting.sol\":1678:1695  numberOfCampaigns */\n      0x01\n      0x00\n        /* \"github/fahadashiq/block-chain/smart-contracts/voting.sol\":1678:1697  numberOfCampaigns++ */\n      dup2\n      sload\n      dup1\n      swap3\n      swap2\n      swap1\n      tag_58\n      swap1\n      tag_59\n      jump\t// in\n    tag_58:\n      swap2\n      swap1\n      pop\n      sstore\n      pop\n        /* \"github/fahadashiq/block-chain/smart-contracts/voting.sol\":1708:1721  compaignNames */\n      0x02\n        /* \"github/fahadashiq/block-chain/smart-contracts/voting.sol\":1727:1739  campaignName */\n      dup3\n        /* \"github/fahadashiq/block-chain/smart-contracts/voting.sol\":1708:1740  compaignNames.push(campaignName) */\n      swap1\n      dup1\n      0x01\n      dup2\n      sload\n      add\n      dup1\n      dup3\n      sstore\n      dup1\n      swap2\n      pop\n      pop\n      0x01\n      swap1\n      sub\n      swap1\n      0x00\n      mstore\n      keccak256(0x00, 0x20)\n      add\n      0x00\n      swap1\n      swap2\n      swap1\n      swap2\n      swap1\n      swap2\n      pop\n      swap1\n      dup1\n      mload\n      swap1\n      0x20\n      add\n      swap1\n      tag_61\n      swap3\n      swap2\n      swap1\n      tag_54\n      jump\t// in\n    tag_61:\n      pop\n        /* \"github/fahadashiq/block-chain/smart-contracts/voting.sol\":970:2017  {... */\n      pop\n        /* \"github/fahadashiq/block-chain/smart-contracts/voting.sol\":914:2017  function addCampaign(string memory campaignName) public {... */\n      pop\n      jump\t// out\n        /* \"github/fahadashiq/block-chain/smart-contracts/voting.sol\":786:815  string[] public compaignNames */\n    tag_23:\n      0x02\n      dup2\n      dup2\n      sload\n      dup2\n      lt\n      tag_62\n      jumpi\n      0x00\n      dup1\n      revert\n    tag_62:\n      swap1\n      0x00\n      mstore\n      keccak256(0x00, 0x20)\n      add\n      0x00\n      swap2\n      pop\n      swap1\n      pop\n      dup1\n      sload\n      tag_64\n      swap1\n      tag_42\n      jump\t// in\n    tag_64:\n      dup1\n      0x1f\n      add\n      0x20\n      dup1\n      swap2\n      div\n      mul\n      0x20\n      add\n      mload(0x40)\n      swap1\n      dup2\n      add\n      0x40\n      mstore\n      dup1\n      swap3\n      swap2\n      swap1\n      dup2\n      dup2\n      mstore\n      0x20\n      add\n      dup3\n      dup1\n      sload\n      tag_65\n      swap1\n      tag_42\n      jump\t// in\n    tag_65:\n      dup1\n      iszero\n      tag_66\n      jumpi\n      dup1\n      0x1f\n      lt\n      tag_67\n      jumpi\n      0x0100\n      dup1\n      dup4\n      sload\n      div\n      mul\n      dup4\n      mstore\n      swap2\n      0x20\n      add\n      swap2\n      jump(tag_66)\n    tag_67:\n      dup3\n      add\n      swap2\n      swap1\n      0x00\n      mstore\n      keccak256(0x00, 0x20)\n      swap1\n    tag_68:\n      dup2\n      sload\n      dup2\n      mstore\n      swap1\n      0x01\n      add\n      swap1\n      0x20\n      add\n      dup1\n      dup4\n      gt\n      tag_68\n      jumpi\n      dup3\n      swap1\n      sub\n      0x1f\n      and\n      dup3\n      add\n      swap2\n    tag_66:\n      pop\n      pop\n      pop\n      pop\n      pop\n      dup2\n      jump\t// out\n        /* \"github/fahadashiq/block-chain/smart-contracts/voting.sol\":2026:2140  function getAllCampaigns()public view returns(Campaign memory campaign){... */\n    tag_26:\n        /* \"github/fahadashiq/block-chain/smart-contracts/voting.sol\":2072:2096  Campaign memory campaign */\n      tag_69\n      tag_70\n      jump\t// in\n    tag_69:\n        /* \"github/fahadashiq/block-chain/smart-contracts/voting.sol\":2115:2124  campaigns */\n      0x00\n        /* \"github/fahadashiq/block-chain/smart-contracts/voting.sol\":2115:2132  campaigns['1122'] */\n      mload(0x40)\n      tag_72\n      swap1\n      tag_73\n      jump\t// in\n    tag_72:\n      swap1\n      dup2\n      mstore\n      0x20\n      add\n      mload(0x40)\n      dup1\n      swap2\n      sub\n      swap1\n      keccak256\n        /* \"github/fahadashiq/block-chain/smart-contracts/voting.sol\":2108:2132  return campaigns['1122'] */\n      mload(0x40)\n      dup1\n      0x40\n      add\n      0x40\n      mstore\n      swap1\n      dup2\n      0x00\n      dup3\n      add\n      dup1\n      sload\n      tag_74\n      swap1\n      tag_42\n      jump\t// in\n    tag_74:\n      dup1\n      0x1f\n      add\n      0x20\n      dup1\n      swap2\n      div\n      mul\n      0x20\n      add\n      mload(0x40)\n      swap1\n      dup2\n      add\n      0x40\n      mstore\n      dup1\n      swap3\n      swap2\n      swap1\n      dup2\n      dup2\n      mstore\n      0x20\n      add\n      dup3\n      dup1\n      sload\n      tag_75\n      swap1\n      tag_42\n      jump\t// in\n    tag_75:\n      dup1\n      iszero\n      tag_76\n      jumpi\n      dup1\n      0x1f\n      lt\n      tag_77\n      jumpi\n      0x0100\n      dup1\n      dup4\n      sload\n      div\n      mul\n      dup4\n      mstore\n      swap2\n      0x20\n      add\n      swap2\n      jump(tag_76)\n    tag_77:\n      dup3\n      add\n      swap2\n      swap1\n      0x00\n      mstore\n      keccak256(0x00, 0x20)\n      swap1\n    tag_78:\n      dup2\n      sload\n      dup2\n      mstore\n      swap1\n      0x01\n      add\n      swap1\n      0x20\n      add\n      dup1\n      dup4\n      gt\n      tag_78\n      jumpi\n      dup3\n      swap1\n      sub\n      0x1f\n      and\n      dup3\n      add\n      swap2\n    tag_76:\n      pop\n      pop\n      pop\n      pop\n      pop\n      dup2\n      mstore\n      0x20\n      add\n      0x01\n      dup3\n      add\n      dup1\n      sload\n      dup1\n      0x20\n      mul\n      0x20\n      add\n      mload(0x40)\n      swap1\n      dup2\n      add\n      0x40\n      mstore\n      dup1\n      swap3\n      swap2\n      swap1\n      dup2\n      dup2\n      mstore\n      0x20\n      add\n      0x00\n      swap1\n    tag_79:\n      dup3\n      dup3\n      lt\n      iszero\n      tag_80\n      jumpi\n      dup4\n      dup3\n      swap1\n      0x00\n      mstore\n      keccak256(0x00, 0x20)\n      swap1\n      0x03\n      mul\n      add\n      mload(0x40)\n      dup1\n      0x60\n      add\n      0x40\n      mstore\n      swap1\n      dup2\n      0x00\n      dup3\n      add\n      dup1\n      sload\n      tag_82\n      swap1\n      tag_42\n      jump\t// in\n    tag_82:\n      dup1\n      0x1f\n      add\n      0x20\n      dup1\n      swap2\n      div\n      mul\n      0x20\n      add\n      mload(0x40)\n      swap1\n      dup2\n      add\n      0x40\n      mstore\n      dup1\n      swap3\n      swap2\n      swap1\n      dup2\n      dup2\n      mstore\n      0x20\n      add\n      dup3\n      dup1\n      sload\n      tag_83\n      swap1\n      tag_42\n      jump\t// in\n    tag_83:\n      dup1\n      iszero\n      tag_84\n      jumpi\n      dup1\n      0x1f\n      lt\n      tag_85\n      jumpi\n      0x0100\n      dup1\n      dup4\n      sload\n      div\n      mul\n      dup4\n      mstore\n      swap2\n      0x20\n      add\n      swap2\n      jump(tag_84)\n    tag_85:\n      dup3\n      add\n      swap2\n      swap1\n      0x00\n      mstore\n      keccak256(0x00, 0x20)\n      swap1\n    tag_86:\n      dup2\n      sload\n      dup2\n      mstore\n      swap1\n      0x01\n      add\n      swap1\n      0x20\n      add\n      dup1\n      dup4\n      gt\n      tag_86\n      jumpi\n      dup3\n      swap1\n      sub\n      0x1f\n      and\n      dup3\n      add\n      swap2\n    tag_84:\n      pop\n      pop\n      pop\n      pop\n      pop\n      dup2\n      mstore\n      0x20\n      add\n      0x01\n      dup3\n      add\n      dup1\n      sload\n      tag_87\n      swap1\n      tag_42\n      jump\t// in\n    tag_87:\n      dup1\n      0x1f\n      add\n      0x20\n      dup1\n      swap2\n      div\n      mul\n      0x20\n      add\n      mload(0x40)\n      swap1\n      dup2\n      add\n      0x40\n      mstore\n      dup1\n      swap3\n      swap2\n      swap1\n      dup2\n      dup2\n      mstore\n      0x20\n      add\n      dup3\n      dup1\n      sload\n      tag_88\n      swap1\n      tag_42\n      jump\t// in\n    tag_88:\n      dup1\n      iszero\n      tag_89\n      jumpi\n      dup1\n      0x1f\n      lt\n      tag_90\n      jumpi\n      0x0100\n      dup1\n      dup4\n      sload\n      div\n      mul\n      dup4\n      mstore\n      swap2\n      0x20\n      add\n      swap2\n      jump(tag_89)\n    tag_90:\n      dup3\n      add\n      swap2\n      swap1\n      0x00\n      mstore\n      keccak256(0x00, 0x20)\n      swap1\n    tag_91:\n      dup2\n      sload\n      dup2\n      mstore\n      swap1\n      0x01\n      add\n      swap1\n      0x20\n      add\n      dup1\n      dup4\n      gt\n      tag_91\n      jumpi\n      dup3\n      swap1\n      sub\n      0x1f\n      and\n      dup3\n      add\n      swap2\n    tag_89:\n      pop\n      pop\n      pop\n      pop\n      pop\n      dup2\n      mstore\n      0x20\n      add\n      0x02\n      dup3\n      add\n      sload\n      dup2\n      mstore\n      pop\n      pop\n      dup2\n      mstore\n      0x20\n      add\n      swap1\n      0x01\n      add\n      swap1\n      jump(tag_79)\n    tag_80:\n      pop\n      pop\n      pop\n      pop\n      dup2\n      mstore\n      pop\n      pop\n      swap1\n      pop\n        /* \"github/fahadashiq/block-chain/smart-contracts/voting.sol\":2026:2140  function getAllCampaigns()public view returns(Campaign memory campaign){... */\n      swap1\n      jump\t// out\n        /* \"github/fahadashiq/block-chain/smart-contracts/voting.sol\":2466:2552  function getNumResult() public view returns (uint res) {... */\n    tag_30:\n        /* \"github/fahadashiq/block-chain/smart-contracts/voting.sol\":2511:2519  uint res */\n      0x00\n        /* \"github/fahadashiq/block-chain/smart-contracts/voting.sol\":2540:2543  123 */\n      0x7b\n        /* \"github/fahadashiq/block-chain/smart-contracts/voting.sol\":2533:2543  return 123 */\n      swap1\n      pop\n        /* \"github/fahadashiq/block-chain/smart-contracts/voting.sol\":2466:2552  function getNumResult() public view returns (uint res) {... */\n      swap1\n      jump\t// out\n        /* \"github/fahadashiq/block-chain/smart-contracts/voting.sol\":2148:2455  function getAllCompainNames() public view returns (string[] memory) {... */\n    tag_34:\n        /* \"github/fahadashiq/block-chain/smart-contracts/voting.sol\":2199:2214  string[] memory */\n      0x60\n        /* \"github/fahadashiq/block-chain/smart-contracts/voting.sol\":2227:2254  string[] memory memoryArray */\n      0x00\n        /* \"github/fahadashiq/block-chain/smart-contracts/voting.sol\":2270:2287  numberOfCampaigns */\n      sload(0x01)\n        /* \"github/fahadashiq/block-chain/smart-contracts/voting.sol\":2257:2288  new string[](numberOfCampaigns) */\n      0xffffffffffffffff\n      dup2\n      gt\n      iszero\n      tag_94\n      jumpi\n      tag_95\n      tag_96\n      jump\t// in\n    tag_95:\n    tag_94:\n      mload(0x40)\n      swap1\n      dup1\n      dup3\n      mstore\n      dup1\n      0x20\n      mul\n      0x20\n      add\n      dup3\n      add\n      0x40\n      mstore\n      dup1\n      iszero\n      tag_97\n      jumpi\n      dup2\n      0x20\n      add\n    tag_98:\n      0x60\n      dup2\n      mstore\n      0x20\n      add\n      swap1\n      0x01\n      swap1\n      sub\n      swap1\n      dup2\n      tag_98\n      jumpi\n      swap1\n      pop\n    tag_97:\n      pop\n        /* \"github/fahadashiq/block-chain/smart-contracts/voting.sol\":2227:2288  string[] memory memoryArray = new string[](numberOfCampaigns) */\n      swap1\n      pop\n        /* \"github/fahadashiq/block-chain/smart-contracts/voting.sol\":2303:2309  uint i */\n      0x00\n        /* \"github/fahadashiq/block-chain/smart-contracts/voting.sol\":2299:2419  for(uint i = 0; i < numberOfCampaigns; i++) {... */\n    tag_99:\n        /* \"github/fahadashiq/block-chain/smart-contracts/voting.sol\":2319:2336  numberOfCampaigns */\n      sload(0x01)\n        /* \"github/fahadashiq/block-chain/smart-contracts/voting.sol\":2315:2316  i */\n      dup2\n        /* \"github/fahadashiq/block-chain/smart-contracts/voting.sol\":2315:2336  i < numberOfCampaigns */\n      lt\n        /* \"github/fahadashiq/block-chain/smart-contracts/voting.sol\":2299:2419  for(uint i = 0; i < numberOfCampaigns; i++) {... */\n      iszero\n      tag_100\n      jumpi\n        /* \"github/fahadashiq/block-chain/smart-contracts/voting.sol\":2375:2384  campaigns */\n      0x00\n        /* \"github/fahadashiq/block-chain/smart-contracts/voting.sol\":2385:2398  compaignNames */\n      0x02\n        /* \"github/fahadashiq/block-chain/smart-contracts/voting.sol\":2399:2400  i */\n      dup3\n        /* \"github/fahadashiq/block-chain/smart-contracts/voting.sol\":2385:2401  compaignNames[i] */\n      dup2\n      sload\n      dup2\n      lt\n      tag_102\n      jumpi\n      tag_103\n      tag_104\n      jump\t// in\n    tag_103:\n    tag_102:\n      swap1\n      0x00\n      mstore\n      keccak256(0x00, 0x20)\n      add\n        /* \"github/fahadashiq/block-chain/smart-contracts/voting.sol\":2375:2402  campaigns[compaignNames[i]] */\n      mload(0x40)\n      tag_106\n      swap2\n      swap1\n      tag_107\n      jump\t// in\n    tag_106:\n      swap1\n      dup2\n      mstore\n      0x20\n      add\n      mload(0x40)\n      dup1\n      swap2\n      sub\n      swap1\n      keccak256\n        /* \"github/fahadashiq/block-chain/smart-contracts/voting.sol\":2375:2407  campaigns[compaignNames[i]].name */\n      0x00\n      add\n        /* \"github/fahadashiq/block-chain/smart-contracts/voting.sol\":2358:2407  memoryArray[i] = campaigns[compaignNames[i]].name */\n      dup1\n      sload\n      tag_108\n      swap1\n      tag_42\n      jump\t// in\n    tag_108:\n      dup1\n      0x1f\n      add\n      0x20\n      dup1\n      swap2\n      div\n      mul\n      0x20\n      add\n      mload(0x40)\n      swap1\n      dup2\n      add\n      0x40\n      mstore\n      dup1\n      swap3\n      swap2\n      swap1\n      dup2\n      dup2\n      mstore\n      0x20\n      add\n      dup3\n      dup1\n      sload\n      tag_109\n      swap1\n      tag_42\n      jump\t// in\n    tag_109:\n      dup1\n      iszero\n      tag_110\n      jumpi\n      dup1\n      0x1f\n      lt\n      tag_111\n      jumpi\n      0x0100\n      dup1\n      dup4\n      sload\n      div\n      mul\n      dup4\n      mstore\n      swap2\n      0x20\n      add\n      swap2\n      jump(tag_110)\n    tag_111:\n      dup3\n      add\n      swap2\n      swap1\n      0x00\n      mstore\n      keccak256(0x00, 0x20)\n      swap1\n    tag_112:\n      dup2\n      sload\n      dup2\n      mstore\n      swap1\n      0x01\n      add\n      swap1\n      0x20\n      add\n      dup1\n      dup4\n      gt\n      tag_112\n      jumpi\n      dup3\n      swap1\n      sub\n      0x1f\n      and\n      dup3\n      add\n      swap2\n    tag_110:\n      pop\n      pop\n      pop\n      pop\n      pop\n        /* \"github/fahadashiq/block-chain/smart-contracts/voting.sol\":2358:2369  memoryArray */\n      dup3\n        /* \"github/fahadashiq/block-chain/smart-contracts/voting.sol\":2370:2371  i */\n      dup3\n        /* \"github/fahadashiq/block-chain/smart-contracts/voting.sol\":2358:2372  memoryArray[i] */\n      dup2\n      mload\n      dup2\n      lt\n      tag_113\n      jumpi\n      tag_114\n      tag_104\n      jump\t// in\n    tag_114:\n    tag_113:\n      0x20\n      mul\n      0x20\n      add\n      add\n        /* \"github/fahadashiq/block-chain/smart-contracts/voting.sol\":2358:2407  memoryArray[i] = campaigns[compaignNames[i]].name */\n      dup2\n      swap1\n      mstore\n      pop\n        /* \"github/fahadashiq/block-chain/smart-contracts/voting.sol\":2338:2341  i++ */\n      dup1\n      dup1\n      tag_115\n      swap1\n      tag_59\n      jump\t// in\n    tag_115:\n      swap2\n      pop\n      pop\n        /* \"github/fahadashiq/block-chain/smart-contracts/voting.sol\":2299:2419  for(uint i = 0; i < numberOfCampaigns; i++) {... */\n      jump(tag_99)\n    tag_100:\n      pop\n        /* \"github/fahadashiq/block-chain/smart-contracts/voting.sol\":2436:2447  memoryArray */\n      dup1\n        /* \"github/fahadashiq/block-chain/smart-contracts/voting.sol\":2429:2447  return memoryArray */\n      swap2\n      pop\n      pop\n        /* \"github/fahadashiq/block-chain/smart-contracts/voting.sol\":2148:2455  function getAllCompainNames() public view returns (string[] memory) {... */\n      swap1\n      jump\t// out\n        /* \"github/fahadashiq/block-chain/smart-contracts/voting.sol\":824:844  address public admin */\n    tag_38:\n      0x03\n      0x00\n      swap1\n      sload\n      swap1\n      0x0100\n      exp\n      swap1\n      div\n      0xffffffffffffffffffffffffffffffffffffffff\n      and\n      dup2\n      jump\t// out\n    tag_54:\n      dup3\n      dup1\n      sload\n      tag_116\n      swap1\n      tag_42\n      jump\t// in\n    tag_116:\n      swap1\n      0x00\n      mstore\n      keccak256(0x00, 0x20)\n      swap1\n      0x1f\n      add\n      0x20\n      swap1\n      div\n      dup2\n      add\n      swap3\n      dup3\n      tag_118\n      jumpi\n      0x00\n      dup6\n      sstore\n      jump(tag_117)\n    tag_118:\n      dup3\n      0x1f\n      lt\n      tag_119\n      jumpi\n      dup1\n      mload\n      not(0xff)\n      and\n      dup4\n      dup1\n      add\n      or\n      dup6\n      sstore\n      jump(tag_117)\n    tag_119:\n      dup3\n      dup1\n      add\n      0x01\n      add\n      dup6\n      sstore\n      dup3\n      iszero\n      tag_117\n      jumpi\n      swap2\n      dup3\n      add\n    tag_120:\n      dup3\n      dup2\n      gt\n      iszero\n      tag_121\n      jumpi\n      dup3\n      mload\n      dup3\n      sstore\n      swap2\n      0x20\n      add\n      swap2\n      swap1\n      0x01\n      add\n      swap1\n      jump(tag_120)\n    tag_121:\n    tag_117:\n      pop\n      swap1\n      pop\n      tag_122\n      swap2\n      swap1\n      tag_123\n      jump\t// in\n    tag_122:\n      pop\n      swap1\n      jump\t// out\n    tag_70:\n      mload(0x40)\n      dup1\n      0x40\n      add\n      0x40\n      mstore\n      dup1\n      0x60\n      dup2\n      mstore\n      0x20\n      add\n      0x60\n      dup2\n      mstore\n      pop\n      swap1\n      jump\t// out\n    tag_123:\n    tag_124:\n      dup1\n      dup3\n      gt\n      iszero\n      tag_125\n      jumpi\n      0x00\n      dup2\n      0x00\n      swap1\n      sstore\n      pop\n      0x01\n      add\n      jump(tag_124)\n    tag_125:\n      pop\n      swap1\n      jump\t// out\n        /* \"#utility.yul\":7:82   */\n    tag_126:\n        /* \"#utility.yul\":40:46   */\n      0x00\n        /* \"#utility.yul\":73:75   */\n      0x40\n        /* \"#utility.yul\":67:76   */\n      mload\n        /* \"#utility.yul\":57:76   */\n      swap1\n      pop\n        /* \"#utility.yul\":7:82   */\n      swap1\n      jump\t// out\n        /* \"#utility.yul\":88:205   */\n    tag_127:\n        /* \"#utility.yul\":197:198   */\n      0x00\n        /* \"#utility.yul\":194:195   */\n      dup1\n        /* \"#utility.yul\":187:199   */\n      revert\n        /* \"#utility.yul\":211:328   */\n    tag_128:\n        /* \"#utility.yul\":320:321   */\n      0x00\n        /* \"#utility.yul\":317:318   */\n      dup1\n        /* \"#utility.yul\":310:322   */\n      revert\n        /* \"#utility.yul\":334:451   */\n    tag_129:\n        /* \"#utility.yul\":443:444   */\n      0x00\n        /* \"#utility.yul\":440:441   */\n      dup1\n        /* \"#utility.yul\":433:445   */\n      revert\n        /* \"#utility.yul\":457:574   */\n    tag_130:\n        /* \"#utility.yul\":566:567   */\n      0x00\n        /* \"#utility.yul\":563:564   */\n      dup1\n        /* \"#utility.yul\":556:568   */\n      revert\n        /* \"#utility.yul\":580:682   */\n    tag_131:\n        /* \"#utility.yul\":621:627   */\n      0x00\n        /* \"#utility.yul\":672:674   */\n      0x1f\n        /* \"#utility.yul\":668:675   */\n      not\n        /* \"#utility.yul\":663:665   */\n      0x1f\n        /* \"#utility.yul\":656:661   */\n      dup4\n        /* \"#utility.yul\":652:666   */\n      add\n        /* \"#utility.yul\":648:676   */\n      and\n        /* \"#utility.yul\":638:676   */\n      swap1\n      pop\n        /* \"#utility.yul\":580:682   */\n      swap2\n      swap1\n      pop\n      jump\t// out\n        /* \"#utility.yul\":688:868   */\n    tag_96:\n        /* \"#utility.yul\":736:813   */\n      0x4e487b7100000000000000000000000000000000000000000000000000000000\n        /* \"#utility.yul\":733:734   */\n      0x00\n        /* \"#utility.yul\":726:814   */\n      mstore\n        /* \"#utility.yul\":833:837   */\n      0x41\n        /* \"#utility.yul\":830:831   */\n      0x04\n        /* \"#utility.yul\":823:838   */\n      mstore\n        /* \"#utility.yul\":857:861   */\n      0x24\n        /* \"#utility.yul\":854:855   */\n      0x00\n        /* \"#utility.yul\":847:862   */\n      revert\n        /* \"#utility.yul\":874:1155   */\n    tag_132:\n        /* \"#utility.yul\":957:984   */\n      tag_185\n        /* \"#utility.yul\":979:983   */\n      dup3\n        /* \"#utility.yul\":957:984   */\n      tag_131\n      jump\t// in\n    tag_185:\n        /* \"#utility.yul\":949:955   */\n      dup2\n        /* \"#utility.yul\":945:985   */\n      add\n        /* \"#utility.yul\":1087:1093   */\n      dup2\n        /* \"#utility.yul\":1075:1085   */\n      dup2\n        /* \"#utility.yul\":1072:1094   */\n      lt\n        /* \"#utility.yul\":1051:1069   */\n      0xffffffffffffffff\n        /* \"#utility.yul\":1039:1049   */\n      dup3\n        /* \"#utility.yul\":1036:1070   */\n      gt\n        /* \"#utility.yul\":1033:1095   */\n      or\n        /* \"#utility.yul\":1030:1118   */\n      iszero\n      tag_186\n      jumpi\n        /* \"#utility.yul\":1098:1116   */\n      tag_187\n      tag_96\n      jump\t// in\n    tag_187:\n        /* \"#utility.yul\":1030:1118   */\n    tag_186:\n        /* \"#utility.yul\":1138:1148   */\n      dup1\n        /* \"#utility.yul\":1134:1136   */\n      0x40\n        /* \"#utility.yul\":1127:1149   */\n      mstore\n        /* \"#utility.yul\":917:1155   */\n      pop\n        /* \"#utility.yul\":874:1155   */\n      pop\n      pop\n      jump\t// out\n        /* \"#utility.yul\":1161:1290   */\n    tag_133:\n        /* \"#utility.yul\":1195:1201   */\n      0x00\n        /* \"#utility.yul\":1222:1242   */\n      tag_189\n      tag_126\n      jump\t// in\n    tag_189:\n        /* \"#utility.yul\":1212:1242   */\n      swap1\n      pop\n        /* \"#utility.yul\":1251:1284   */\n      tag_190\n        /* \"#utility.yul\":1279:1283   */\n      dup3\n        /* \"#utility.yul\":1271:1277   */\n      dup3\n        /* \"#utility.yul\":1251:1284   */\n      tag_132\n      jump\t// in\n    tag_190:\n        /* \"#utility.yul\":1161:1290   */\n      swap2\n      swap1\n      pop\n      jump\t// out\n        /* \"#utility.yul\":1296:1604   */\n    tag_134:\n        /* \"#utility.yul\":1358:1362   */\n      0x00\n        /* \"#utility.yul\":1448:1466   */\n      0xffffffffffffffff\n        /* \"#utility.yul\":1440:1446   */\n      dup3\n        /* \"#utility.yul\":1437:1467   */\n      gt\n        /* \"#utility.yul\":1434:1490   */\n      iszero\n      tag_192\n      jumpi\n        /* \"#utility.yul\":1470:1488   */\n      tag_193\n      tag_96\n      jump\t// in\n    tag_193:\n        /* \"#utility.yul\":1434:1490   */\n    tag_192:\n        /* \"#utility.yul\":1508:1537   */\n      tag_194\n        /* \"#utility.yul\":1530:1536   */\n      dup3\n        /* \"#utility.yul\":1508:1537   */\n      tag_131\n      jump\t// in\n    tag_194:\n        /* \"#utility.yul\":1500:1537   */\n      swap1\n      pop\n        /* \"#utility.yul\":1592:1596   */\n      0x20\n        /* \"#utility.yul\":1586:1590   */\n      dup2\n        /* \"#utility.yul\":1582:1597   */\n      add\n        /* \"#utility.yul\":1574:1597   */\n      swap1\n      pop\n        /* \"#utility.yul\":1296:1604   */\n      swap2\n      swap1\n      pop\n      jump\t// out\n        /* \"#utility.yul\":1610:1764   */\n    tag_135:\n        /* \"#utility.yul\":1694:1700   */\n      dup3\n        /* \"#utility.yul\":1689:1692   */\n      dup2\n        /* \"#utility.yul\":1684:1687   */\n      dup4\n        /* \"#utility.yul\":1671:1701   */\n      calldatacopy\n        /* \"#utility.yul\":1756:1757   */\n      0x00\n        /* \"#utility.yul\":1747:1753   */\n      dup4\n        /* \"#utility.yul\":1742:1745   */\n      dup4\n        /* \"#utility.yul\":1738:1754   */\n      add\n        /* \"#utility.yul\":1731:1758   */\n      mstore\n        /* \"#utility.yul\":1610:1764   */\n      pop\n      pop\n      pop\n      jump\t// out\n        /* \"#utility.yul\":1770:2182   */\n    tag_136:\n        /* \"#utility.yul\":1848:1853   */\n      0x00\n        /* \"#utility.yul\":1873:1939   */\n      tag_197\n        /* \"#utility.yul\":1889:1938   */\n      tag_198\n        /* \"#utility.yul\":1931:1937   */\n      dup5\n        /* \"#utility.yul\":1889:1938   */\n      tag_134\n      jump\t// in\n    tag_198:\n        /* \"#utility.yul\":1873:1939   */\n      tag_133\n      jump\t// in\n    tag_197:\n        /* \"#utility.yul\":1864:1939   */\n      swap1\n      pop\n        /* \"#utility.yul\":1962:1968   */\n      dup3\n        /* \"#utility.yul\":1955:1960   */\n      dup2\n        /* \"#utility.yul\":1948:1969   */\n      mstore\n        /* \"#utility.yul\":2000:2004   */\n      0x20\n        /* \"#utility.yul\":1993:1998   */\n      dup2\n        /* \"#utility.yul\":1989:2005   */\n      add\n        /* \"#utility.yul\":2038:2041   */\n      dup5\n        /* \"#utility.yul\":2029:2035   */\n      dup5\n        /* \"#utility.yul\":2024:2027   */\n      dup5\n        /* \"#utility.yul\":2020:2036   */\n      add\n        /* \"#utility.yul\":2017:2042   */\n      gt\n        /* \"#utility.yul\":2014:2126   */\n      iszero\n      tag_199\n      jumpi\n        /* \"#utility.yul\":2045:2124   */\n      tag_200\n      tag_130\n      jump\t// in\n    tag_200:\n        /* \"#utility.yul\":2014:2126   */\n    tag_199:\n        /* \"#utility.yul\":2135:2176   */\n      tag_201\n        /* \"#utility.yul\":2169:2175   */\n      dup5\n        /* \"#utility.yul\":2164:2167   */\n      dup3\n        /* \"#utility.yul\":2159:2162   */\n      dup6\n        /* \"#utility.yul\":2135:2176   */\n      tag_135\n      jump\t// in\n    tag_201:\n        /* \"#utility.yul\":1854:2182   */\n      pop\n        /* \"#utility.yul\":1770:2182   */\n      swap4\n      swap3\n      pop\n      pop\n      pop\n      jump\t// out\n        /* \"#utility.yul\":2202:2542   */\n    tag_137:\n        /* \"#utility.yul\":2258:2263   */\n      0x00\n        /* \"#utility.yul\":2307:2310   */\n      dup3\n        /* \"#utility.yul\":2300:2304   */\n      0x1f\n        /* \"#utility.yul\":2292:2298   */\n      dup4\n        /* \"#utility.yul\":2288:2305   */\n      add\n        /* \"#utility.yul\":2284:2311   */\n      slt\n        /* \"#utility.yul\":2274:2396   */\n      tag_203\n      jumpi\n        /* \"#utility.yul\":2315:2394   */\n      tag_204\n      tag_129\n      jump\t// in\n    tag_204:\n        /* \"#utility.yul\":2274:2396   */\n    tag_203:\n        /* \"#utility.yul\":2432:2438   */\n      dup2\n        /* \"#utility.yul\":2419:2439   */\n      calldataload\n        /* \"#utility.yul\":2457:2536   */\n      tag_205\n        /* \"#utility.yul\":2532:2535   */\n      dup5\n        /* \"#utility.yul\":2524:2530   */\n      dup3\n        /* \"#utility.yul\":2517:2521   */\n      0x20\n        /* \"#utility.yul\":2509:2515   */\n      dup7\n        /* \"#utility.yul\":2505:2522   */\n      add\n        /* \"#utility.yul\":2457:2536   */\n      tag_136\n      jump\t// in\n    tag_205:\n        /* \"#utility.yul\":2448:2536   */\n      swap2\n      pop\n        /* \"#utility.yul\":2264:2542   */\n      pop\n        /* \"#utility.yul\":2202:2542   */\n      swap3\n      swap2\n      pop\n      pop\n      jump\t// out\n        /* \"#utility.yul\":2548:3057   */\n    tag_13:\n        /* \"#utility.yul\":2617:2623   */\n      0x00\n        /* \"#utility.yul\":2666:2668   */\n      0x20\n        /* \"#utility.yul\":2654:2663   */\n      dup3\n        /* \"#utility.yul\":2645:2652   */\n      dup5\n        /* \"#utility.yul\":2641:2664   */\n      sub\n        /* \"#utility.yul\":2637:2669   */\n      slt\n        /* \"#utility.yul\":2634:2753   */\n      iszero\n      tag_207\n      jumpi\n        /* \"#utility.yul\":2672:2751   */\n      tag_208\n      tag_127\n      jump\t// in\n    tag_208:\n        /* \"#utility.yul\":2634:2753   */\n    tag_207:\n        /* \"#utility.yul\":2820:2821   */\n      0x00\n        /* \"#utility.yul\":2809:2818   */\n      dup3\n        /* \"#utility.yul\":2805:2822   */\n      add\n        /* \"#utility.yul\":2792:2823   */\n      calldataload\n        /* \"#utility.yul\":2850:2868   */\n      0xffffffffffffffff\n        /* \"#utility.yul\":2842:2848   */\n      dup2\n        /* \"#utility.yul\":2839:2869   */\n      gt\n        /* \"#utility.yul\":2836:2953   */\n      iszero\n      tag_209\n      jumpi\n        /* \"#utility.yul\":2872:2951   */\n      tag_210\n      tag_128\n      jump\t// in\n    tag_210:\n        /* \"#utility.yul\":2836:2953   */\n    tag_209:\n        /* \"#utility.yul\":2977:3040   */\n      tag_211\n        /* \"#utility.yul\":3032:3039   */\n      dup5\n        /* \"#utility.yul\":3023:3029   */\n      dup3\n        /* \"#utility.yul\":3012:3021   */\n      dup6\n        /* \"#utility.yul\":3008:3030   */\n      add\n        /* \"#utility.yul\":2977:3040   */\n      tag_137\n      jump\t// in\n    tag_211:\n        /* \"#utility.yul\":2967:3040   */\n      swap2\n      pop\n        /* \"#utility.yul\":2763:3050   */\n      pop\n        /* \"#utility.yul\":2548:3057   */\n      swap3\n      swap2\n      pop\n      pop\n      jump\t// out\n        /* \"#utility.yul\":3063:3162   */\n    tag_138:\n        /* \"#utility.yul\":3115:3121   */\n      0x00\n        /* \"#utility.yul\":3149:3154   */\n      dup2\n        /* \"#utility.yul\":3143:3155   */\n      mload\n        /* \"#utility.yul\":3133:3155   */\n      swap1\n      pop\n        /* \"#utility.yul\":3063:3162   */\n      swap2\n      swap1\n      pop\n      jump\t// out\n        /* \"#utility.yul\":3168:3337   */\n    tag_139:\n        /* \"#utility.yul\":3252:3263   */\n      0x00\n        /* \"#utility.yul\":3286:3292   */\n      dup3\n        /* \"#utility.yul\":3281:3284   */\n      dup3\n        /* \"#utility.yul\":3274:3293   */\n      mstore\n        /* \"#utility.yul\":3326:3330   */\n      0x20\n        /* \"#utility.yul\":3321:3324   */\n      dup3\n        /* \"#utility.yul\":3317:3331   */\n      add\n        /* \"#utility.yul\":3302:3331   */\n      swap1\n      pop\n        /* \"#utility.yul\":3168:3337   */\n      swap3\n      swap2\n      pop\n      pop\n      jump\t// out\n        /* \"#utility.yul\":3343:3650   */\n    tag_140:\n        /* \"#utility.yul\":3411:3412   */\n      0x00\n        /* \"#utility.yul\":3421:3534   */\n    tag_215:\n        /* \"#utility.yul\":3435:3441   */\n      dup4\n        /* \"#utility.yul\":3432:3433   */\n      dup2\n        /* \"#utility.yul\":3429:3442   */\n      lt\n        /* \"#utility.yul\":3421:3534   */\n      iszero\n      tag_217\n      jumpi\n        /* \"#utility.yul\":3520:3521   */\n      dup1\n        /* \"#utility.yul\":3515:3518   */\n      dup3\n        /* \"#utility.yul\":3511:3522   */\n      add\n        /* \"#utility.yul\":3505:3523   */\n      mload\n        /* \"#utility.yul\":3501:3502   */\n      dup2\n        /* \"#utility.yul\":3496:3499   */\n      dup5\n        /* \"#utility.yul\":3492:3503   */\n      add\n        /* \"#utility.yul\":3485:3524   */\n      mstore\n        /* \"#utility.yul\":3457:3459   */\n      0x20\n        /* \"#utility.yul\":3454:3455   */\n      dup2\n        /* \"#utility.yul\":3450:3460   */\n      add\n        /* \"#utility.yul\":3445:3460   */\n      swap1\n      pop\n        /* \"#utility.yul\":3421:3534   */\n      jump(tag_215)\n    tag_217:\n        /* \"#utility.yul\":3552:3558   */\n      dup4\n        /* \"#utility.yul\":3549:3550   */\n      dup2\n        /* \"#utility.yul\":3546:3559   */\n      gt\n        /* \"#utility.yul\":3543:3644   */\n      iszero\n      tag_218\n      jumpi\n        /* \"#utility.yul\":3632:3633   */\n      0x00\n        /* \"#utility.yul\":3623:3629   */\n      dup5\n        /* \"#utility.yul\":3618:3621   */\n      dup5\n        /* \"#utility.yul\":3614:3630   */\n      add\n        /* \"#utility.yul\":3607:3634   */\n      mstore\n        /* \"#utility.yul\":3543:3644   */\n    tag_218:\n        /* \"#utility.yul\":3392:3650   */\n      pop\n        /* \"#utility.yul\":3343:3650   */\n      pop\n      pop\n      pop\n      jump\t// out\n        /* \"#utility.yul\":3656:4020   */\n    tag_141:\n        /* \"#utility.yul\":3744:3747   */\n      0x00\n        /* \"#utility.yul\":3772:3811   */\n      tag_220\n        /* \"#utility.yul\":3805:3810   */\n      dup3\n        /* \"#utility.yul\":3772:3811   */\n      tag_138\n      jump\t// in\n    tag_220:\n        /* \"#utility.yul\":3827:3898   */\n      tag_221\n        /* \"#utility.yul\":3891:3897   */\n      dup2\n        /* \"#utility.yul\":3886:3889   */\n      dup6\n        /* \"#utility.yul\":3827:3898   */\n      tag_139\n      jump\t// in\n    tag_221:\n        /* \"#utility.yul\":3820:3898   */\n      swap4\n      pop\n        /* \"#utility.yul\":3907:3959   */\n      tag_222\n        /* \"#utility.yul\":3952:3958   */\n      dup2\n        /* \"#utility.yul\":3947:3950   */\n      dup6\n        /* \"#utility.yul\":3940:3944   */\n      0x20\n        /* \"#utility.yul\":3933:3938   */\n      dup7\n        /* \"#utility.yul\":3929:3945   */\n      add\n        /* \"#utility.yul\":3907:3959   */\n      tag_140\n      jump\t// in\n    tag_222:\n        /* \"#utility.yul\":3984:4013   */\n      tag_223\n        /* \"#utility.yul\":4006:4012   */\n      dup2\n        /* \"#utility.yul\":3984:4013   */\n      tag_131\n      jump\t// in\n    tag_223:\n        /* \"#utility.yul\":3979:3982   */\n      dup5\n        /* \"#utility.yul\":3975:4014   */\n      add\n        /* \"#utility.yul\":3968:4014   */\n      swap2\n      pop\n        /* \"#utility.yul\":3748:4020   */\n      pop\n        /* \"#utility.yul\":3656:4020   */\n      swap3\n      swap2\n      pop\n      pop\n      jump\t// out\n        /* \"#utility.yul\":4026:4339   */\n    tag_16:\n        /* \"#utility.yul\":4139:4143   */\n      0x00\n        /* \"#utility.yul\":4177:4179   */\n      0x20\n        /* \"#utility.yul\":4166:4175   */\n      dup3\n        /* \"#utility.yul\":4162:4180   */\n      add\n        /* \"#utility.yul\":4154:4180   */\n      swap1\n      pop\n        /* \"#utility.yul\":4226:4235   */\n      dup2\n        /* \"#utility.yul\":4220:4224   */\n      dup2\n        /* \"#utility.yul\":4216:4236   */\n      sub\n        /* \"#utility.yul\":4212:4213   */\n      0x00\n        /* \"#utility.yul\":4201:4210   */\n      dup4\n        /* \"#utility.yul\":4197:4214   */\n      add\n        /* \"#utility.yul\":4190:4237   */\n      mstore\n        /* \"#utility.yul\":4254:4332   */\n      tag_225\n        /* \"#utility.yul\":4327:4331   */\n      dup2\n        /* \"#utility.yul\":4318:4324   */\n      dup5\n        /* \"#utility.yul\":4254:4332   */\n      tag_141\n      jump\t// in\n    tag_225:\n        /* \"#utility.yul\":4246:4332   */\n      swap1\n      pop\n        /* \"#utility.yul\":4026:4339   */\n      swap3\n      swap2\n      pop\n      pop\n      jump\t// out\n        /* \"#utility.yul\":4345:4422   */\n    tag_142:\n        /* \"#utility.yul\":4382:4389   */\n      0x00\n        /* \"#utility.yul\":4411:4416   */\n      dup2\n        /* \"#utility.yul\":4400:4416   */\n      swap1\n      pop\n        /* \"#utility.yul\":4345:4422   */\n      swap2\n      swap1\n      pop\n      jump\t// out\n        /* \"#utility.yul\":4428:4550   */\n    tag_143:\n        /* \"#utility.yul\":4501:4525   */\n      tag_228\n        /* \"#utility.yul\":4519:4524   */\n      dup2\n        /* \"#utility.yul\":4501:4525   */\n      tag_142\n      jump\t// in\n    tag_228:\n        /* \"#utility.yul\":4494:4499   */\n      dup2\n        /* \"#utility.yul\":4491:4526   */\n      eq\n        /* \"#utility.yul\":4481:4544   */\n      tag_229\n      jumpi\n        /* \"#utility.yul\":4540:4541   */\n      0x00\n        /* \"#utility.yul\":4537:4538   */\n      dup1\n        /* \"#utility.yul\":4530:4542   */\n      revert\n        /* \"#utility.yul\":4481:4544   */\n    tag_229:\n        /* \"#utility.yul\":4428:4550   */\n      pop\n      jump\t// out\n        /* \"#utility.yul\":4556:4695   */\n    tag_144:\n        /* \"#utility.yul\":4602:4607   */\n      0x00\n        /* \"#utility.yul\":4640:4646   */\n      dup2\n        /* \"#utility.yul\":4627:4647   */\n      calldataload\n        /* \"#utility.yul\":4618:4647   */\n      swap1\n      pop\n        /* \"#utility.yul\":4656:4689   */\n      tag_231\n        /* \"#utility.yul\":4683:4688   */\n      dup2\n        /* \"#utility.yul\":4656:4689   */\n      tag_143\n      jump\t// in\n    tag_231:\n        /* \"#utility.yul\":4556:4695   */\n      swap3\n      swap2\n      pop\n      pop\n      jump\t// out\n        /* \"#utility.yul\":4701:5030   */\n    tag_22:\n        /* \"#utility.yul\":4760:4766   */\n      0x00\n        /* \"#utility.yul\":4809:4811   */\n      0x20\n        /* \"#utility.yul\":4797:4806   */\n      dup3\n        /* \"#utility.yul\":4788:4795   */\n      dup5\n        /* \"#utility.yul\":4784:4807   */\n      sub\n        /* \"#utility.yul\":4780:4812   */\n      slt\n        /* \"#utility.yul\":4777:4896   */\n      iszero\n      tag_233\n      jumpi\n        /* \"#utility.yul\":4815:4894   */\n      tag_234\n      tag_127\n      jump\t// in\n    tag_234:\n        /* \"#utility.yul\":4777:4896   */\n    tag_233:\n        /* \"#utility.yul\":4935:4936   */\n      0x00\n        /* \"#utility.yul\":4960:5013   */\n      tag_235\n        /* \"#utility.yul\":5005:5012   */\n      dup5\n        /* \"#utility.yul\":4996:5002   */\n      dup3\n        /* \"#utility.yul\":4985:4994   */\n      dup6\n        /* \"#utility.yul\":4981:5003   */\n      add\n        /* \"#utility.yul\":4960:5013   */\n      tag_144\n      jump\t// in\n    tag_235:\n        /* \"#utility.yul\":4950:5013   */\n      swap2\n      pop\n        /* \"#utility.yul\":4906:5023   */\n      pop\n        /* \"#utility.yul\":4701:5030   */\n      swap3\n      swap2\n      pop\n      pop\n      jump\t// out\n        /* \"#utility.yul\":5036:5195   */\n    tag_145:\n        /* \"#utility.yul\":5110:5121   */\n      0x00\n        /* \"#utility.yul\":5144:5150   */\n      dup3\n        /* \"#utility.yul\":5139:5142   */\n      dup3\n        /* \"#utility.yul\":5132:5151   */\n      mstore\n        /* \"#utility.yul\":5184:5188   */\n      0x20\n        /* \"#utility.yul\":5179:5182   */\n      dup3\n        /* \"#utility.yul\":5175:5189   */\n      add\n        /* \"#utility.yul\":5160:5189   */\n      swap1\n      pop\n        /* \"#utility.yul\":5036:5195   */\n      swap3\n      swap2\n      pop\n      pop\n      jump\t// out\n        /* \"#utility.yul\":5201:5545   */\n    tag_146:\n        /* \"#utility.yul\":5279:5282   */\n      0x00\n        /* \"#utility.yul\":5307:5346   */\n      tag_238\n        /* \"#utility.yul\":5340:5345   */\n      dup3\n        /* \"#utility.yul\":5307:5346   */\n      tag_138\n      jump\t// in\n    tag_238:\n        /* \"#utility.yul\":5362:5423   */\n      tag_239\n        /* \"#utility.yul\":5416:5422   */\n      dup2\n        /* \"#utility.yul\":5411:5414   */\n      dup6\n        /* \"#utility.yul\":5362:5423   */\n      tag_145\n      jump\t// in\n    tag_239:\n        /* \"#utility.yul\":5355:5423   */\n      swap4\n      pop\n        /* \"#utility.yul\":5432:5484   */\n      tag_240\n        /* \"#utility.yul\":5477:5483   */\n      dup2\n        /* \"#utility.yul\":5472:5475   */\n      dup6\n        /* \"#utility.yul\":5465:5469   */\n      0x20\n        /* \"#utility.yul\":5458:5463   */\n      dup7\n        /* \"#utility.yul\":5454:5470   */\n      add\n        /* \"#utility.yul\":5432:5484   */\n      tag_140\n      jump\t// in\n    tag_240:\n        /* \"#utility.yul\":5509:5538   */\n      tag_241\n        /* \"#utility.yul\":5531:5537   */\n      dup2\n        /* \"#utility.yul\":5509:5538   */\n      tag_131\n      jump\t// in\n    tag_241:\n        /* \"#utility.yul\":5504:5507   */\n      dup5\n        /* \"#utility.yul\":5500:5539   */\n      add\n        /* \"#utility.yul\":5493:5539   */\n      swap2\n      pop\n        /* \"#utility.yul\":5283:5545   */\n      pop\n        /* \"#utility.yul\":5201:5545   */\n      swap3\n      swap2\n      pop\n      pop\n      jump\t// out\n        /* \"#utility.yul\":5551:5690   */\n    tag_147:\n        /* \"#utility.yul\":5643:5649   */\n      0x00\n        /* \"#utility.yul\":5677:5682   */\n      dup2\n        /* \"#utility.yul\":5671:5683   */\n      mload\n        /* \"#utility.yul\":5661:5683   */\n      swap1\n      pop\n        /* \"#utility.yul\":5551:5690   */\n      swap2\n      swap1\n      pop\n      jump\t// out\n        /* \"#utility.yul\":5696:5895   */\n    tag_148:\n        /* \"#utility.yul\":5810:5821   */\n      0x00\n        /* \"#utility.yul\":5844:5850   */\n      dup3\n        /* \"#utility.yul\":5839:5842   */\n      dup3\n        /* \"#utility.yul\":5832:5851   */\n      mstore\n        /* \"#utility.yul\":5884:5888   */\n      0x20\n        /* \"#utility.yul\":5879:5882   */\n      dup3\n        /* \"#utility.yul\":5875:5889   */\n      add\n        /* \"#utility.yul\":5860:5889   */\n      swap1\n      pop\n        /* \"#utility.yul\":5696:5895   */\n      swap3\n      swap2\n      pop\n      pop\n      jump\t// out\n        /* \"#utility.yul\":5901:6058   */\n    tag_149:\n        /* \"#utility.yul\":5993:5997   */\n      0x00\n        /* \"#utility.yul\":6016:6019   */\n      dup2\n        /* \"#utility.yul\":6008:6019   */\n      swap1\n      pop\n        /* \"#utility.yul\":6046:6050   */\n      0x20\n        /* \"#utility.yul\":6041:6044   */\n      dup3\n        /* \"#utility.yul\":6037:6051   */\n      add\n        /* \"#utility.yul\":6029:6051   */\n      swap1\n      pop\n        /* \"#utility.yul\":5901:6058   */\n      swap2\n      swap1\n      pop\n      jump\t// out\n        /* \"#utility.yul\":6064:6172   */\n    tag_150:\n        /* \"#utility.yul\":6141:6165   */\n      tag_246\n        /* \"#utility.yul\":6159:6164   */\n      dup2\n        /* \"#utility.yul\":6141:6165   */\n      tag_142\n      jump\t// in\n    tag_246:\n        /* \"#utility.yul\":6136:6139   */\n      dup3\n        /* \"#utility.yul\":6129:6166   */\n      mstore\n        /* \"#utility.yul\":6064:6172   */\n      pop\n      pop\n      jump\t// out\n        /* \"#utility.yul\":6236:7078   */\n    tag_151:\n        /* \"#utility.yul\":6345:6348   */\n      0x00\n        /* \"#utility.yul\":6381:6385   */\n      0x60\n        /* \"#utility.yul\":6376:6379   */\n      dup4\n        /* \"#utility.yul\":6372:6386   */\n      add\n        /* \"#utility.yul\":6468:6472   */\n      0x00\n        /* \"#utility.yul\":6461:6466   */\n      dup4\n        /* \"#utility.yul\":6457:6473   */\n      add\n        /* \"#utility.yul\":6451:6474   */\n      mload\n        /* \"#utility.yul\":6521:6524   */\n      dup5\n        /* \"#utility.yul\":6515:6519   */\n      dup3\n        /* \"#utility.yul\":6511:6525   */\n      sub\n        /* \"#utility.yul\":6504:6508   */\n      0x00\n        /* \"#utility.yul\":6499:6502   */\n      dup7\n        /* \"#utility.yul\":6495:6509   */\n      add\n        /* \"#utility.yul\":6488:6526   */\n      mstore\n        /* \"#utility.yul\":6547:6620   */\n      tag_248\n        /* \"#utility.yul\":6615:6619   */\n      dup3\n        /* \"#utility.yul\":6601:6613   */\n      dup3\n        /* \"#utility.yul\":6547:6620   */\n      tag_146\n      jump\t// in\n    tag_248:\n        /* \"#utility.yul\":6539:6620   */\n      swap2\n      pop\n        /* \"#utility.yul\":6396:6631   */\n      pop\n        /* \"#utility.yul\":6713:6717   */\n      0x20\n        /* \"#utility.yul\":6706:6711   */\n      dup4\n        /* \"#utility.yul\":6702:6718   */\n      add\n        /* \"#utility.yul\":6696:6719   */\n      mload\n        /* \"#utility.yul\":6766:6769   */\n      dup5\n        /* \"#utility.yul\":6760:6764   */\n      dup3\n        /* \"#utility.yul\":6756:6770   */\n      sub\n        /* \"#utility.yul\":6749:6753   */\n      0x20\n        /* \"#utility.yul\":6744:6747   */\n      dup7\n        /* \"#utility.yul\":6740:6754   */\n      add\n        /* \"#utility.yul\":6733:6771   */\n      mstore\n        /* \"#utility.yul\":6792:6865   */\n      tag_249\n        /* \"#utility.yul\":6860:6864   */\n      dup3\n        /* \"#utility.yul\":6846:6858   */\n      dup3\n        /* \"#utility.yul\":6792:6865   */\n      tag_146\n      jump\t// in\n    tag_249:\n        /* \"#utility.yul\":6784:6865   */\n      swap2\n      pop\n        /* \"#utility.yul\":6641:6876   */\n      pop\n        /* \"#utility.yul\":6959:6963   */\n      0x40\n        /* \"#utility.yul\":6952:6957   */\n      dup4\n        /* \"#utility.yul\":6948:6964   */\n      add\n        /* \"#utility.yul\":6942:6965   */\n      mload\n        /* \"#utility.yul\":6978:7041   */\n      tag_250\n        /* \"#utility.yul\":7035:7039   */\n      0x40\n        /* \"#utility.yul\":7030:7033   */\n      dup7\n        /* \"#utility.yul\":7026:7040   */\n      add\n        /* \"#utility.yul\":7012:7024   */\n      dup3\n        /* \"#utility.yul\":6978:7041   */\n      tag_150\n      jump\t// in\n    tag_250:\n        /* \"#utility.yul\":6886:7051   */\n      pop\n        /* \"#utility.yul\":7068:7072   */\n      dup1\n        /* \"#utility.yul\":7061:7072   */\n      swap2\n      pop\n        /* \"#utility.yul\":6350:7078   */\n      pop\n        /* \"#utility.yul\":6236:7078   */\n      swap3\n      swap2\n      pop\n      pop\n      jump\t// out\n        /* \"#utility.yul\":7084:7340   */\n    tag_152:\n        /* \"#utility.yul\":7203:7213   */\n      0x00\n        /* \"#utility.yul\":7238:7334   */\n      tag_252\n        /* \"#utility.yul\":7330:7333   */\n      dup4\n        /* \"#utility.yul\":7322:7328   */\n      dup4\n        /* \"#utility.yul\":7238:7334   */\n      tag_151\n      jump\t// in\n    tag_252:\n        /* \"#utility.yul\":7224:7334   */\n      swap1\n      pop\n        /* \"#utility.yul\":7084:7340   */\n      swap3\n      swap2\n      pop\n      pop\n      jump\t// out\n        /* \"#utility.yul\":7346:7484   */\n    tag_153:\n        /* \"#utility.yul\":7441:7445   */\n      0x00\n        /* \"#utility.yul\":7473:7477   */\n      0x20\n        /* \"#utility.yul\":7468:7471   */\n      dup3\n        /* \"#utility.yul\":7464:7478   */\n      add\n        /* \"#utility.yul\":7456:7478   */\n      swap1\n      pop\n        /* \"#utility.yul\":7346:7484   */\n      swap2\n      swap1\n      pop\n      jump\t// out\n        /* \"#utility.yul\":7552:8643   */\n    tag_154:\n        /* \"#utility.yul\":7711:7714   */\n      0x00\n        /* \"#utility.yul\":7740:7819   */\n      tag_255\n        /* \"#utility.yul\":7813:7818   */\n      dup3\n        /* \"#utility.yul\":7740:7819   */\n      tag_147\n      jump\t// in\n    tag_255:\n        /* \"#utility.yul\":7835:7936   */\n      tag_256\n        /* \"#utility.yul\":7929:7935   */\n      dup2\n        /* \"#utility.yul\":7924:7927   */\n      dup6\n        /* \"#utility.yul\":7835:7936   */\n      tag_148\n      jump\t// in\n    tag_256:\n        /* \"#utility.yul\":7828:7936   */\n      swap4\n      pop\n        /* \"#utility.yul\":7962:7965   */\n      dup4\n        /* \"#utility.yul\":8007:8011   */\n      0x20\n        /* \"#utility.yul\":7999:8005   */\n      dup3\n        /* \"#utility.yul\":7995:8012   */\n      mul\n        /* \"#utility.yul\":7990:7993   */\n      dup6\n        /* \"#utility.yul\":7986:8013   */\n      add\n        /* \"#utility.yul\":8037:8118   */\n      tag_257\n        /* \"#utility.yul\":8112:8117   */\n      dup6\n        /* \"#utility.yul\":8037:8118   */\n      tag_149\n      jump\t// in\n    tag_257:\n        /* \"#utility.yul\":8141:8148   */\n      dup1\n        /* \"#utility.yul\":8172:8173   */\n      0x00\n        /* \"#utility.yul\":8157:8598   */\n    tag_258:\n        /* \"#utility.yul\":8182:8188   */\n      dup6\n        /* \"#utility.yul\":8179:8180   */\n      dup2\n        /* \"#utility.yul\":8176:8189   */\n      lt\n        /* \"#utility.yul\":8157:8598   */\n      iszero\n      tag_260\n      jumpi\n        /* \"#utility.yul\":8253:8262   */\n      dup5\n        /* \"#utility.yul\":8247:8251   */\n      dup5\n        /* \"#utility.yul\":8243:8263   */\n      sub\n        /* \"#utility.yul\":8238:8241   */\n      dup10\n        /* \"#utility.yul\":8231:8264   */\n      mstore\n        /* \"#utility.yul\":8304:8310   */\n      dup2\n        /* \"#utility.yul\":8298:8311   */\n      mload\n        /* \"#utility.yul\":8332:8446   */\n      tag_261\n        /* \"#utility.yul\":8441:8445   */\n      dup6\n        /* \"#utility.yul\":8426:8439   */\n      dup3\n        /* \"#utility.yul\":8332:8446   */\n      tag_152\n      jump\t// in\n    tag_261:\n        /* \"#utility.yul\":8324:8446   */\n      swap5\n      pop\n        /* \"#utility.yul\":8469:8554   */\n      tag_262\n        /* \"#utility.yul\":8547:8553   */\n      dup4\n        /* \"#utility.yul\":8469:8554   */\n      tag_153\n      jump\t// in\n    tag_262:\n        /* \"#utility.yul\":8459:8554   */\n      swap3\n      pop\n        /* \"#utility.yul\":8583:8587   */\n      0x20\n        /* \"#utility.yul\":8578:8581   */\n      dup11\n        /* \"#utility.yul\":8574:8588   */\n      add\n        /* \"#utility.yul\":8567:8588   */\n      swap10\n      pop\n        /* \"#utility.yul\":8217:8598   */\n      pop\n        /* \"#utility.yul\":8204:8205   */\n      0x01\n        /* \"#utility.yul\":8201:8202   */\n      dup2\n        /* \"#utility.yul\":8197:8206   */\n      add\n        /* \"#utility.yul\":8192:8206   */\n      swap1\n      pop\n        /* \"#utility.yul\":8157:8598   */\n      jump(tag_258)\n    tag_260:\n        /* \"#utility.yul\":8161:8175   */\n      pop\n        /* \"#utility.yul\":8614:8618   */\n      dup3\n        /* \"#utility.yul\":8607:8618   */\n      swap8\n      pop\n        /* \"#utility.yul\":8634:8637   */\n      dup8\n        /* \"#utility.yul\":8627:8637   */\n      swap6\n      pop\n        /* \"#utility.yul\":7716:8643   */\n      pop\n      pop\n      pop\n      pop\n      pop\n        /* \"#utility.yul\":7552:8643   */\n      swap3\n      swap2\n      pop\n      pop\n      jump\t// out\n        /* \"#utility.yul\":8705:9466   */\n    tag_155:\n        /* \"#utility.yul\":8822:8825   */\n      0x00\n        /* \"#utility.yul\":8858:8862   */\n      0x40\n        /* \"#utility.yul\":8853:8856   */\n      dup4\n        /* \"#utility.yul\":8849:8863   */\n      add\n        /* \"#utility.yul\":8945:8949   */\n      0x00\n        /* \"#utility.yul\":8938:8943   */\n      dup4\n        /* \"#utility.yul\":8934:8950   */\n      add\n        /* \"#utility.yul\":8928:8951   */\n      mload\n        /* \"#utility.yul\":8998:9001   */\n      dup5\n        /* \"#utility.yul\":8992:8996   */\n      dup3\n        /* \"#utility.yul\":8988:9002   */\n      sub\n        /* \"#utility.yul\":8981:8985   */\n      0x00\n        /* \"#utility.yul\":8976:8979   */\n      dup7\n        /* \"#utility.yul\":8972:8986   */\n      add\n        /* \"#utility.yul\":8965:9003   */\n      mstore\n        /* \"#utility.yul\":9024:9097   */\n      tag_264\n        /* \"#utility.yul\":9092:9096   */\n      dup3\n        /* \"#utility.yul\":9078:9090   */\n      dup3\n        /* \"#utility.yul\":9024:9097   */\n      tag_146\n      jump\t// in\n    tag_264:\n        /* \"#utility.yul\":9016:9097   */\n      swap2\n      pop\n        /* \"#utility.yul\":8873:9108   */\n      pop\n        /* \"#utility.yul\":9196:9200   */\n      0x20\n        /* \"#utility.yul\":9189:9194   */\n      dup4\n        /* \"#utility.yul\":9185:9201   */\n      add\n        /* \"#utility.yul\":9179:9202   */\n      mload\n        /* \"#utility.yul\":9249:9252   */\n      dup5\n        /* \"#utility.yul\":9243:9247   */\n      dup3\n        /* \"#utility.yul\":9239:9253   */\n      sub\n        /* \"#utility.yul\":9232:9236   */\n      0x20\n        /* \"#utility.yul\":9227:9230   */\n      dup7\n        /* \"#utility.yul\":9223:9237   */\n      add\n        /* \"#utility.yul\":9216:9254   */\n      mstore\n        /* \"#utility.yul\":9275:9428   */\n      tag_265\n        /* \"#utility.yul\":9423:9427   */\n      dup3\n        /* \"#utility.yul\":9409:9421   */\n      dup3\n        /* \"#utility.yul\":9275:9428   */\n      tag_154\n      jump\t// in\n    tag_265:\n        /* \"#utility.yul\":9267:9428   */\n      swap2\n      pop\n        /* \"#utility.yul\":9118:9439   */\n      pop\n        /* \"#utility.yul\":9456:9460   */\n      dup1\n        /* \"#utility.yul\":9449:9460   */\n      swap2\n      pop\n        /* \"#utility.yul\":8827:9466   */\n      pop\n        /* \"#utility.yul\":8705:9466   */\n      swap3\n      swap2\n      pop\n      pop\n      jump\t// out\n        /* \"#utility.yul\":9472:9841   */\n    tag_28:\n        /* \"#utility.yul\":9613:9617   */\n      0x00\n        /* \"#utility.yul\":9651:9653   */\n      0x20\n        /* \"#utility.yul\":9640:9649   */\n      dup3\n        /* \"#utility.yul\":9636:9654   */\n      add\n        /* \"#utility.yul\":9628:9654   */\n      swap1\n      pop\n        /* \"#utility.yul\":9700:9709   */\n      dup2\n        /* \"#utility.yul\":9694:9698   */\n      dup2\n        /* \"#utility.yul\":9690:9710   */\n      sub\n        /* \"#utility.yul\":9686:9687   */\n      0x00\n        /* \"#utility.yul\":9675:9684   */\n      dup4\n        /* \"#utility.yul\":9671:9688   */\n      add\n        /* \"#utility.yul\":9664:9711   */\n      mstore\n        /* \"#utility.yul\":9728:9834   */\n      tag_267\n        /* \"#utility.yul\":9829:9833   */\n      dup2\n        /* \"#utility.yul\":9820:9826   */\n      dup5\n        /* \"#utility.yul\":9728:9834   */\n      tag_155\n      jump\t// in\n    tag_267:\n        /* \"#utility.yul\":9720:9834   */\n      swap1\n      pop\n        /* \"#utility.yul\":9472:9841   */\n      swap3\n      swap2\n      pop\n      pop\n      jump\t// out\n        /* \"#utility.yul\":9847:9965   */\n    tag_156:\n        /* \"#utility.yul\":9934:9958   */\n      tag_269\n        /* \"#utility.yul\":9952:9957   */\n      dup2\n        /* \"#utility.yul\":9934:9958   */\n      tag_142\n      jump\t// in\n    tag_269:\n        /* \"#utility.yul\":9929:9932   */\n      dup3\n        /* \"#utility.yul\":9922:9959   */\n      mstore\n        /* \"#utility.yul\":9847:9965   */\n      pop\n      pop\n      jump\t// out\n        /* \"#utility.yul\":9971:10193   */\n    tag_32:\n        /* \"#utility.yul\":10064:10068   */\n      0x00\n        /* \"#utility.yul\":10102:10104   */\n      0x20\n        /* \"#utility.yul\":10091:10100   */\n      dup3\n        /* \"#utility.yul\":10087:10105   */\n      add\n        /* \"#utility.yul\":10079:10105   */\n      swap1\n      pop\n        /* \"#utility.yul\":10115:10186   */\n      tag_271\n        /* \"#utility.yul\":10183:10184   */\n      0x00\n        /* \"#utility.yul\":10172:10181   */\n      dup4\n        /* \"#utility.yul\":10168:10185   */\n      add\n        /* \"#utility.yul\":10159:10165   */\n      dup5\n        /* \"#utility.yul\":10115:10186   */\n      tag_156\n      jump\t// in\n    tag_271:\n        /* \"#utility.yul\":9971:10193   */\n      swap3\n      swap2\n      pop\n      pop\n      jump\t// out\n        /* \"#utility.yul\":10199:10323   */\n    tag_157:\n        /* \"#utility.yul\":10276:10282   */\n      0x00\n        /* \"#utility.yul\":10310:10315   */\n      dup2\n        /* \"#utility.yul\":10304:10316   */\n      mload\n        /* \"#utility.yul\":10294:10316   */\n      swap1\n      pop\n        /* \"#utility.yul\":10199:10323   */\n      swap2\n      swap1\n      pop\n      jump\t// out\n        /* \"#utility.yul\":10329:10523   */\n    tag_158:\n        /* \"#utility.yul\":10438:10449   */\n      0x00\n        /* \"#utility.yul\":10472:10478   */\n      dup3\n        /* \"#utility.yul\":10467:10470   */\n      dup3\n        /* \"#utility.yul\":10460:10479   */\n      mstore\n        /* \"#utility.yul\":10512:10516   */\n      0x20\n        /* \"#utility.yul\":10507:10510   */\n      dup3\n        /* \"#utility.yul\":10503:10517   */\n      add\n        /* \"#utility.yul\":10488:10517   */\n      swap1\n      pop\n        /* \"#utility.yul\":10329:10523   */\n      swap3\n      swap2\n      pop\n      pop\n      jump\t// out\n        /* \"#utility.yul\":10529:10671   */\n    tag_159:\n        /* \"#utility.yul\":10606:10610   */\n      0x00\n        /* \"#utility.yul\":10629:10632   */\n      dup2\n        /* \"#utility.yul\":10621:10632   */\n      swap1\n      pop\n        /* \"#utility.yul\":10659:10663   */\n      0x20\n        /* \"#utility.yul\":10654:10657   */\n      dup3\n        /* \"#utility.yul\":10650:10664   */\n      add\n        /* \"#utility.yul\":10642:10664   */\n      swap1\n      pop\n        /* \"#utility.yul\":10529:10671   */\n      swap2\n      swap1\n      pop\n      jump\t// out\n        /* \"#utility.yul\":10677:10873   */\n    tag_160:\n        /* \"#utility.yul\":10766:10776   */\n      0x00\n        /* \"#utility.yul\":10801:10867   */\n      tag_276\n        /* \"#utility.yul\":10863:10866   */\n      dup4\n        /* \"#utility.yul\":10855:10861   */\n      dup4\n        /* \"#utility.yul\":10801:10867   */\n      tag_146\n      jump\t// in\n    tag_276:\n        /* \"#utility.yul\":10787:10867   */\n      swap1\n      pop\n        /* \"#utility.yul\":10677:10873   */\n      swap3\n      swap2\n      pop\n      pop\n      jump\t// out\n        /* \"#utility.yul\":10879:11002   */\n    tag_161:\n        /* \"#utility.yul\":10959:10963   */\n      0x00\n        /* \"#utility.yul\":10991:10995   */\n      0x20\n        /* \"#utility.yul\":10986:10989   */\n      dup3\n        /* \"#utility.yul\":10982:10996   */\n      add\n        /* \"#utility.yul\":10974:10996   */\n      swap1\n      pop\n        /* \"#utility.yul\":10879:11002   */\n      swap2\n      swap1\n      pop\n      jump\t// out\n        /* \"#utility.yul\":11036:12027   */\n    tag_162:\n        /* \"#utility.yul\":11175:11178   */\n      0x00\n        /* \"#utility.yul\":11204:11268   */\n      tag_279\n        /* \"#utility.yul\":11262:11267   */\n      dup3\n        /* \"#utility.yul\":11204:11268   */\n      tag_157\n      jump\t// in\n    tag_279:\n        /* \"#utility.yul\":11284:11380   */\n      tag_280\n        /* \"#utility.yul\":11373:11379   */\n      dup2\n        /* \"#utility.yul\":11368:11371   */\n      dup6\n        /* \"#utility.yul\":11284:11380   */\n      tag_158\n      jump\t// in\n    tag_280:\n        /* \"#utility.yul\":11277:11380   */\n      swap4\n      pop\n        /* \"#utility.yul\":11406:11409   */\n      dup4\n        /* \"#utility.yul\":11451:11455   */\n      0x20\n        /* \"#utility.yul\":11443:11449   */\n      dup3\n        /* \"#utility.yul\":11439:11456   */\n      mul\n        /* \"#utility.yul\":11434:11437   */\n      dup6\n        /* \"#utility.yul\":11430:11457   */\n      add\n        /* \"#utility.yul\":11481:11547   */\n      tag_281\n        /* \"#utility.yul\":11541:11546   */\n      dup6\n        /* \"#utility.yul\":11481:11547   */\n      tag_159\n      jump\t// in\n    tag_281:\n        /* \"#utility.yul\":11570:11577   */\n      dup1\n        /* \"#utility.yul\":11601:11602   */\n      0x00\n        /* \"#utility.yul\":11586:11982   */\n    tag_282:\n        /* \"#utility.yul\":11611:11617   */\n      dup6\n        /* \"#utility.yul\":11608:11609   */\n      dup2\n        /* \"#utility.yul\":11605:11618   */\n      lt\n        /* \"#utility.yul\":11586:11982   */\n      iszero\n      tag_284\n      jumpi\n        /* \"#utility.yul\":11682:11691   */\n      dup5\n        /* \"#utility.yul\":11676:11680   */\n      dup5\n        /* \"#utility.yul\":11672:11692   */\n      sub\n        /* \"#utility.yul\":11667:11670   */\n      dup10\n        /* \"#utility.yul\":11660:11693   */\n      mstore\n        /* \"#utility.yul\":11733:11739   */\n      dup2\n        /* \"#utility.yul\":11727:11740   */\n      mload\n        /* \"#utility.yul\":11761:11845   */\n      tag_285\n        /* \"#utility.yul\":11840:11844   */\n      dup6\n        /* \"#utility.yul\":11825:11838   */\n      dup3\n        /* \"#utility.yul\":11761:11845   */\n      tag_160\n      jump\t// in\n    tag_285:\n        /* \"#utility.yul\":11753:11845   */\n      swap5\n      pop\n        /* \"#utility.yul\":11868:11938   */\n      tag_286\n        /* \"#utility.yul\":11931:11937   */\n      dup4\n        /* \"#utility.yul\":11868:11938   */\n      tag_161\n      jump\t// in\n    tag_286:\n        /* \"#utility.yul\":11858:11938   */\n      swap3\n      pop\n        /* \"#utility.yul\":11967:11971   */\n      0x20\n        /* \"#utility.yul\":11962:11965   */\n      dup11\n        /* \"#utility.yul\":11958:11972   */\n      add\n        /* \"#utility.yul\":11951:11972   */\n      swap10\n      pop\n        /* \"#utility.yul\":11646:11982   */\n      pop\n        /* \"#utility.yul\":11633:11634   */\n      0x01\n        /* \"#utility.yul\":11630:11631   */\n      dup2\n        /* \"#utility.yul\":11626:11635   */\n      add\n        /* \"#utility.yul\":11621:11635   */\n      swap1\n      pop\n        /* \"#utility.yul\":11586:11982   */\n      jump(tag_282)\n    tag_284:\n        /* \"#utility.yul\":11590:11604   */\n      pop\n        /* \"#utility.yul\":11998:12002   */\n      dup3\n        /* \"#utility.yul\":11991:12002   */\n      swap8\n      pop\n        /* \"#utility.yul\":12018:12021   */\n      dup8\n        /* \"#utility.yul\":12011:12021   */\n      swap6\n      pop\n        /* \"#utility.yul\":11180:12027   */\n      pop\n      pop\n      pop\n      pop\n      pop\n        /* \"#utility.yul\":11036:12027   */\n      swap3\n      swap2\n      pop\n      pop\n      jump\t// out\n        /* \"#utility.yul\":12033:12446   */\n    tag_36:\n        /* \"#utility.yul\":12196:12200   */\n      0x00\n        /* \"#utility.yul\":12234:12236   */\n      0x20\n        /* \"#utility.yul\":12223:12232   */\n      dup3\n        /* \"#utility.yul\":12219:12237   */\n      add\n        /* \"#utility.yul\":12211:12237   */\n      swap1\n      pop\n        /* \"#utility.yul\":12283:12292   */\n      dup2\n        /* \"#utility.yul\":12277:12281   */\n      dup2\n        /* \"#utility.yul\":12273:12293   */\n      sub\n        /* \"#utility.yul\":12269:12270   */\n      0x00\n        /* \"#utility.yul\":12258:12267   */\n      dup4\n        /* \"#utility.yul\":12254:12271   */\n      add\n        /* \"#utility.yul\":12247:12294   */\n      mstore\n        /* \"#utility.yul\":12311:12439   */\n      tag_288\n        /* \"#utility.yul\":12434:12438   */\n      dup2\n        /* \"#utility.yul\":12425:12431   */\n      dup5\n        /* \"#utility.yul\":12311:12439   */\n      tag_162\n      jump\t// in\n    tag_288:\n        /* \"#utility.yul\":12303:12439   */\n      swap1\n      pop\n        /* \"#utility.yul\":12033:12446   */\n      swap3\n      swap2\n      pop\n      pop\n      jump\t// out\n        /* \"#utility.yul\":12452:12578   */\n    tag_163:\n        /* \"#utility.yul\":12489:12496   */\n      0x00\n        /* \"#utility.yul\":12529:12571   */\n      0xffffffffffffffffffffffffffffffffffffffff\n        /* \"#utility.yul\":12522:12527   */\n      dup3\n        /* \"#utility.yul\":12518:12572   */\n      and\n        /* \"#utility.yul\":12507:12572   */\n      swap1\n      pop\n        /* \"#utility.yul\":12452:12578   */\n      swap2\n      swap1\n      pop\n      jump\t// out\n        /* \"#utility.yul\":12584:12680   */\n    tag_164:\n        /* \"#utility.yul\":12621:12628   */\n      0x00\n        /* \"#utility.yul\":12650:12674   */\n      tag_291\n        /* \"#utility.yul\":12668:12673   */\n      dup3\n        /* \"#utility.yul\":12650:12674   */\n      tag_163\n      jump\t// in\n    tag_291:\n        /* \"#utility.yul\":12639:12674   */\n      swap1\n      pop\n        /* \"#utility.yul\":12584:12680   */\n      swap2\n      swap1\n      pop\n      jump\t// out\n        /* \"#utility.yul\":12686:12804   */\n    tag_165:\n        /* \"#utility.yul\":12773:12797   */\n      tag_293\n        /* \"#utility.yul\":12791:12796   */\n      dup2\n        /* \"#utility.yul\":12773:12797   */\n      tag_164\n      jump\t// in\n    tag_293:\n        /* \"#utility.yul\":12768:12771   */\n      dup3\n        /* \"#utility.yul\":12761:12798   */\n      mstore\n        /* \"#utility.yul\":12686:12804   */\n      pop\n      pop\n      jump\t// out\n        /* \"#utility.yul\":12810:13032   */\n    tag_40:\n        /* \"#utility.yul\":12903:12907   */\n      0x00\n        /* \"#utility.yul\":12941:12943   */\n      0x20\n        /* \"#utility.yul\":12930:12939   */\n      dup3\n        /* \"#utility.yul\":12926:12944   */\n      add\n        /* \"#utility.yul\":12918:12944   */\n      swap1\n      pop\n        /* \"#utility.yul\":12954:13025   */\n      tag_295\n        /* \"#utility.yul\":13022:13023   */\n      0x00\n        /* \"#utility.yul\":13011:13020   */\n      dup4\n        /* \"#utility.yul\":13007:13024   */\n      add\n        /* \"#utility.yul\":12998:13004   */\n      dup5\n        /* \"#utility.yul\":12954:13025   */\n      tag_165\n      jump\t// in\n    tag_295:\n        /* \"#utility.yul\":12810:13032   */\n      swap3\n      swap2\n      pop\n      pop\n      jump\t// out\n        /* \"#utility.yul\":13038:13218   */\n    tag_166:\n        /* \"#utility.yul\":13086:13163   */\n      0x4e487b7100000000000000000000000000000000000000000000000000000000\n        /* \"#utility.yul\":13083:13084   */\n      0x00\n        /* \"#utility.yul\":13076:13164   */\n      mstore\n        /* \"#utility.yul\":13183:13187   */\n      0x22\n        /* \"#utility.yul\":13180:13181   */\n      0x04\n        /* \"#utility.yul\":13173:13188   */\n      mstore\n        /* \"#utility.yul\":13207:13211   */\n      0x24\n        /* \"#utility.yul\":13204:13205   */\n      0x00\n        /* \"#utility.yul\":13197:13212   */\n      revert\n        /* \"#utility.yul\":13224:13544   */\n    tag_42:\n        /* \"#utility.yul\":13268:13274   */\n      0x00\n        /* \"#utility.yul\":13305:13306   */\n      0x02\n        /* \"#utility.yul\":13299:13303   */\n      dup3\n        /* \"#utility.yul\":13295:13307   */\n      div\n        /* \"#utility.yul\":13285:13307   */\n      swap1\n      pop\n        /* \"#utility.yul\":13352:13353   */\n      0x01\n        /* \"#utility.yul\":13346:13350   */\n      dup3\n        /* \"#utility.yul\":13342:13354   */\n      and\n        /* \"#utility.yul\":13373:13391   */\n      dup1\n        /* \"#utility.yul\":13363:13444   */\n      tag_298\n      jumpi\n        /* \"#utility.yul\":13429:13433   */\n      0x7f\n        /* \"#utility.yul\":13421:13427   */\n      dup3\n        /* \"#utility.yul\":13417:13434   */\n      and\n        /* \"#utility.yul\":13407:13434   */\n      swap2\n      pop\n        /* \"#utility.yul\":13363:13444   */\n    tag_298:\n        /* \"#utility.yul\":13491:13493   */\n      0x20\n        /* \"#utility.yul\":13483:13489   */\n      dup3\n        /* \"#utility.yul\":13480:13494   */\n      lt\n        /* \"#utility.yul\":13460:13478   */\n      dup2\n        /* \"#utility.yul\":13457:13495   */\n      sub\n        /* \"#utility.yul\":13454:13538   */\n      tag_299\n      jumpi\n        /* \"#utility.yul\":13510:13528   */\n      tag_300\n      tag_166\n      jump\t// in\n    tag_300:\n        /* \"#utility.yul\":13454:13538   */\n    tag_299:\n        /* \"#utility.yul\":13275:13544   */\n      pop\n        /* \"#utility.yul\":13224:13544   */\n      swap2\n      swap1\n      pop\n      jump\t// out\n        /* \"#utility.yul\":13550:13731   */\n    tag_167:\n        /* \"#utility.yul\":13690:13723   */\n      0x4f6e6c792061646d696e2063616e20737461727420612063616d706169676e00\n        /* \"#utility.yul\":13686:13687   */\n      0x00\n        /* \"#utility.yul\":13678:13684   */\n      dup3\n        /* \"#utility.yul\":13674:13688   */\n      add\n        /* \"#utility.yul\":13667:13724   */\n      mstore\n        /* \"#utility.yul\":13550:13731   */\n      pop\n      jump\t// out\n        /* \"#utility.yul\":13737:14103   */\n    tag_168:\n        /* \"#utility.yul\":13879:13882   */\n      0x00\n        /* \"#utility.yul\":13900:13967   */\n      tag_303\n        /* \"#utility.yul\":13964:13966   */\n      0x1f\n        /* \"#utility.yul\":13959:13962   */\n      dup4\n        /* \"#utility.yul\":13900:13967   */\n      tag_139\n      jump\t// in\n    tag_303:\n        /* \"#utility.yul\":13893:13967   */\n      swap2\n      pop\n        /* \"#utility.yul\":13976:14069   */\n      tag_304\n        /* \"#utility.yul\":14065:14068   */\n      dup3\n        /* \"#utility.yul\":13976:14069   */\n      tag_167\n      jump\t// in\n    tag_304:\n        /* \"#utility.yul\":14094:14096   */\n      0x20\n        /* \"#utility.yul\":14089:14092   */\n      dup3\n        /* \"#utility.yul\":14085:14097   */\n      add\n        /* \"#utility.yul\":14078:14097   */\n      swap1\n      pop\n        /* \"#utility.yul\":13737:14103   */\n      swap2\n      swap1\n      pop\n      jump\t// out\n        /* \"#utility.yul\":14109:14528   */\n    tag_50:\n        /* \"#utility.yul\":14275:14279   */\n      0x00\n        /* \"#utility.yul\":14313:14315   */\n      0x20\n        /* \"#utility.yul\":14302:14311   */\n      dup3\n        /* \"#utility.yul\":14298:14316   */\n      add\n        /* \"#utility.yul\":14290:14316   */\n      swap1\n      pop\n        /* \"#utility.yul\":14362:14371   */\n      dup2\n        /* \"#utility.yul\":14356:14360   */\n      dup2\n        /* \"#utility.yul\":14352:14372   */\n      sub\n        /* \"#utility.yul\":14348:14349   */\n      0x00\n        /* \"#utility.yul\":14337:14346   */\n      dup4\n        /* \"#utility.yul\":14333:14350   */\n      add\n        /* \"#utility.yul\":14326:14373   */\n      mstore\n        /* \"#utility.yul\":14390:14521   */\n      tag_306\n        /* \"#utility.yul\":14516:14520   */\n      dup2\n        /* \"#utility.yul\":14390:14521   */\n      tag_168\n      jump\t// in\n    tag_306:\n        /* \"#utility.yul\":14382:14521   */\n      swap1\n      pop\n        /* \"#utility.yul\":14109:14528   */\n      swap2\n      swap1\n      pop\n      jump\t// out\n        /* \"#utility.yul\":14534:14682   */\n    tag_169:\n        /* \"#utility.yul\":14636:14647   */\n      0x00\n        /* \"#utility.yul\":14673:14676   */\n      dup2\n        /* \"#utility.yul\":14658:14676   */\n      swap1\n      pop\n        /* \"#utility.yul\":14534:14682   */\n      swap3\n      swap2\n      pop\n      pop\n      jump\t// out\n        /* \"#utility.yul\":14688:15065   */\n    tag_170:\n        /* \"#utility.yul\":14794:14797   */\n      0x00\n        /* \"#utility.yul\":14822:14861   */\n      tag_309\n        /* \"#utility.yul\":14855:14860   */\n      dup3\n        /* \"#utility.yul\":14822:14861   */\n      tag_138\n      jump\t// in\n    tag_309:\n        /* \"#utility.yul\":14877:14966   */\n      tag_310\n        /* \"#utility.yul\":14959:14965   */\n      dup2\n        /* \"#utility.yul\":14954:14957   */\n      dup6\n        /* \"#utility.yul\":14877:14966   */\n      tag_169\n      jump\t// in\n    tag_310:\n        /* \"#utility.yul\":14870:14966   */\n      swap4\n      pop\n        /* \"#utility.yul\":14975:15027   */\n      tag_311\n        /* \"#utility.yul\":15020:15026   */\n      dup2\n        /* \"#utility.yul\":15015:15018   */\n      dup6\n        /* \"#utility.yul\":15008:15012   */\n      0x20\n        /* \"#utility.yul\":15001:15006   */\n      dup7\n        /* \"#utility.yul\":14997:15013   */\n      add\n        /* \"#utility.yul\":14975:15027   */\n      tag_140\n      jump\t// in\n    tag_311:\n        /* \"#utility.yul\":15052:15058   */\n      dup1\n        /* \"#utility.yul\":15047:15050   */\n      dup5\n        /* \"#utility.yul\":15043:15059   */\n      add\n        /* \"#utility.yul\":15036:15059   */\n      swap2\n      pop\n        /* \"#utility.yul\":14798:15065   */\n      pop\n        /* \"#utility.yul\":14688:15065   */\n      swap3\n      swap2\n      pop\n      pop\n      jump\t// out\n        /* \"#utility.yul\":15071:15346   */\n    tag_52:\n        /* \"#utility.yul\":15203:15206   */\n      0x00\n        /* \"#utility.yul\":15225:15320   */\n      tag_313\n        /* \"#utility.yul\":15316:15319   */\n      dup3\n        /* \"#utility.yul\":15307:15313   */\n      dup5\n        /* \"#utility.yul\":15225:15320   */\n      tag_170\n      jump\t// in\n    tag_313:\n        /* \"#utility.yul\":15218:15320   */\n      swap2\n      pop\n        /* \"#utility.yul\":15337:15340   */\n      dup2\n        /* \"#utility.yul\":15330:15340   */\n      swap1\n      pop\n        /* \"#utility.yul\":15071:15346   */\n      swap3\n      swap2\n      pop\n      pop\n      jump\t// out\n        /* \"#utility.yul\":15352:15532   */\n    tag_171:\n        /* \"#utility.yul\":15400:15477   */\n      0x4e487b7100000000000000000000000000000000000000000000000000000000\n        /* \"#utility.yul\":15397:15398   */\n      0x00\n        /* \"#utility.yul\":15390:15478   */\n      mstore\n        /* \"#utility.yul\":15497:15501   */\n      0x11\n        /* \"#utility.yul\":15494:15495   */\n      0x04\n        /* \"#utility.yul\":15487:15502   */\n      mstore\n        /* \"#utility.yul\":15521:15525   */\n      0x24\n        /* \"#utility.yul\":15518:15519   */\n      0x00\n        /* \"#utility.yul\":15511:15526   */\n      revert\n        /* \"#utility.yul\":15538:15771   */\n    tag_59:\n        /* \"#utility.yul\":15577:15580   */\n      0x00\n        /* \"#utility.yul\":15600:15624   */\n      tag_316\n        /* \"#utility.yul\":15618:15623   */\n      dup3\n        /* \"#utility.yul\":15600:15624   */\n      tag_142\n      jump\t// in\n    tag_316:\n        /* \"#utility.yul\":15591:15624   */\n      swap2\n      pop\n        /* \"#utility.yul\":15646:15712   */\n      0xffffffffffffffffffffffffffffffffffffffffffffffffffffffffffffffff\n        /* \"#utility.yul\":15639:15644   */\n      dup3\n        /* \"#utility.yul\":15636:15713   */\n      sub\n        /* \"#utility.yul\":15633:15736   */\n      tag_317\n      jumpi\n        /* \"#utility.yul\":15716:15734   */\n      tag_318\n      tag_171\n      jump\t// in\n    tag_318:\n        /* \"#utility.yul\":15633:15736   */\n    tag_317:\n        /* \"#utility.yul\":15763:15764   */\n      0x01\n        /* \"#utility.yul\":15756:15761   */\n      dup3\n        /* \"#utility.yul\":15752:15765   */\n      add\n        /* \"#utility.yul\":15745:15765   */\n      swap1\n      pop\n        /* \"#utility.yul\":15538:15771   */\n      swap2\n      swap1\n      pop\n      jump\t// out\n        /* \"#utility.yul\":15777:15931   */\n    tag_172:\n        /* \"#utility.yul\":15917:15923   */\n      0x3131323200000000000000000000000000000000000000000000000000000000\n        /* \"#utility.yul\":15913:15914   */\n      0x00\n        /* \"#utility.yul\":15905:15911   */\n      dup3\n        /* \"#utility.yul\":15901:15915   */\n      add\n        /* \"#utility.yul\":15894:15924   */\n      mstore\n        /* \"#utility.yul\":15777:15931   */\n      pop\n      jump\t// out\n        /* \"#utility.yul\":15937:16337   */\n    tag_173:\n        /* \"#utility.yul\":16097:16100   */\n      0x00\n        /* \"#utility.yul\":16118:16202   */\n      tag_321\n        /* \"#utility.yul\":16200:16201   */\n      0x04\n        /* \"#utility.yul\":16195:16198   */\n      dup4\n        /* \"#utility.yul\":16118:16202   */\n      tag_169\n      jump\t// in\n    tag_321:\n        /* \"#utility.yul\":16111:16202   */\n      swap2\n      pop\n        /* \"#utility.yul\":16211:16304   */\n      tag_322\n        /* \"#utility.yul\":16300:16303   */\n      dup3\n        /* \"#utility.yul\":16211:16304   */\n      tag_172\n      jump\t// in\n    tag_322:\n        /* \"#utility.yul\":16329:16330   */\n      0x04\n        /* \"#utility.yul\":16324:16327   */\n      dup3\n        /* \"#utility.yul\":16320:16331   */\n      add\n        /* \"#utility.yul\":16313:16331   */\n      swap1\n      pop\n        /* \"#utility.yul\":15937:16337   */\n      swap2\n      swap1\n      pop\n      jump\t// out\n        /* \"#utility.yul\":16343:16724   */\n    tag_73:\n        /* \"#utility.yul\":16528:16531   */\n      0x00\n        /* \"#utility.yul\":16550:16698   */\n      tag_324\n        /* \"#utility.yul\":16694:16697   */\n      dup3\n        /* \"#utility.yul\":16550:16698   */\n      tag_173\n      jump\t// in\n    tag_324:\n        /* \"#utility.yul\":16543:16698   */\n      swap2\n      pop\n        /* \"#utility.yul\":16715:16718   */\n      dup2\n        /* \"#utility.yul\":16708:16718   */\n      swap1\n      pop\n        /* \"#utility.yul\":16343:16724   */\n      swap2\n      swap1\n      pop\n      jump\t// out\n        /* \"#utility.yul\":16730:16910   */\n    tag_104:\n        /* \"#utility.yul\":16778:16855   */\n      0x4e487b7100000000000000000000000000000000000000000000000000000000\n        /* \"#utility.yul\":16775:16776   */\n      0x00\n        /* \"#utility.yul\":16768:16856   */\n      mstore\n        /* \"#utility.yul\":16875:16879   */\n      0x32\n        /* \"#utility.yul\":16872:16873   */\n      0x04\n        /* \"#utility.yul\":16865:16880   */\n      mstore\n        /* \"#utility.yul\":16899:16903   */\n      0x24\n        /* \"#utility.yul\":16896:16897   */\n      0x00\n        /* \"#utility.yul\":16889:16904   */\n      revert\n        /* \"#utility.yul\":16916:17057   */\n    tag_174:\n        /* \"#utility.yul\":16965:16969   */\n      0x00\n        /* \"#utility.yul\":16988:16991   */\n      dup2\n        /* \"#utility.yul\":16980:16991   */\n      swap1\n      pop\n        /* \"#utility.yul\":17011:17014   */\n      dup2\n        /* \"#utility.yul\":17008:17009   */\n      0x00\n        /* \"#utility.yul\":17001:17015   */\n      mstore\n        /* \"#utility.yul\":17045:17049   */\n      0x20\n        /* \"#utility.yul\":17042:17043   */\n      0x00\n        /* \"#utility.yul\":17032:17050   */\n      keccak256\n        /* \"#utility.yul\":17024:17050   */\n      swap1\n      pop\n        /* \"#utility.yul\":16916:17057   */\n      swap2\n      swap1\n      pop\n      jump\t// out\n        /* \"#utility.yul\":17087:17932   */\n    tag_175:\n        /* \"#utility.yul\":17190:17193   */\n      0x00\n        /* \"#utility.yul\":17227:17232   */\n      dup2\n        /* \"#utility.yul\":17221:17233   */\n      sload\n        /* \"#utility.yul\":17256:17292   */\n      tag_328\n        /* \"#utility.yul\":17282:17291   */\n      dup2\n        /* \"#utility.yul\":17256:17292   */\n      tag_42\n      jump\t// in\n    tag_328:\n        /* \"#utility.yul\":17308:17397   */\n      tag_329\n        /* \"#utility.yul\":17390:17396   */\n      dup2\n        /* \"#utility.yul\":17385:17388   */\n      dup7\n        /* \"#utility.yul\":17308:17397   */\n      tag_169\n      jump\t// in\n    tag_329:\n        /* \"#utility.yul\":17301:17397   */\n      swap5\n      pop\n        /* \"#utility.yul\":17428:17429   */\n      0x01\n        /* \"#utility.yul\":17417:17426   */\n      dup3\n        /* \"#utility.yul\":17413:17430   */\n      and\n        /* \"#utility.yul\":17444:17445   */\n      0x00\n        /* \"#utility.yul\":17439:17576   */\n      dup2\n      eq\n      tag_331\n      jumpi\n        /* \"#utility.yul\":17590:17591   */\n      0x01\n        /* \"#utility.yul\":17585:17926   */\n      dup2\n      eq\n      tag_332\n      jumpi\n        /* \"#utility.yul\":17406:17926   */\n      jump(tag_330)\n        /* \"#utility.yul\":17439:17576   */\n    tag_331:\n        /* \"#utility.yul\":17523:17527   */\n      0xff\n        /* \"#utility.yul\":17519:17528   */\n      not\n        /* \"#utility.yul\":17508:17517   */\n      dup4\n        /* \"#utility.yul\":17504:17529   */\n      and\n        /* \"#utility.yul\":17499:17502   */\n      dup7\n        /* \"#utility.yul\":17492:17530   */\n      mstore\n        /* \"#utility.yul\":17559:17565   */\n      dup2\n        /* \"#utility.yul\":17554:17557   */\n      dup7\n        /* \"#utility.yul\":17550:17566   */\n      add\n        /* \"#utility.yul\":17543:17566   */\n      swap4\n      pop\n        /* \"#utility.yul\":17439:17576   */\n      jump(tag_330)\n        /* \"#utility.yul\":17585:17926   */\n    tag_332:\n        /* \"#utility.yul\":17652:17690   */\n      tag_333\n        /* \"#utility.yul\":17684:17689   */\n      dup6\n        /* \"#utility.yul\":17652:17690   */\n      tag_174\n      jump\t// in\n    tag_333:\n        /* \"#utility.yul\":17712:17713   */\n      0x00\n        /* \"#utility.yul\":17726:17880   */\n    tag_334:\n        /* \"#utility.yul\":17740:17746   */\n      dup4\n        /* \"#utility.yul\":17737:17738   */\n      dup2\n        /* \"#utility.yul\":17734:17747   */\n      lt\n        /* \"#utility.yul\":17726:17880   */\n      iszero\n      tag_336\n      jumpi\n        /* \"#utility.yul\":17814:17821   */\n      dup2\n        /* \"#utility.yul\":17808:17822   */\n      sload\n        /* \"#utility.yul\":17804:17805   */\n      dup2\n        /* \"#utility.yul\":17799:17802   */\n      dup10\n        /* \"#utility.yul\":17795:17806   */\n      add\n        /* \"#utility.yul\":17788:17823   */\n      mstore\n        /* \"#utility.yul\":17864:17865   */\n      0x01\n        /* \"#utility.yul\":17855:17862   */\n      dup3\n        /* \"#utility.yul\":17851:17866   */\n      add\n        /* \"#utility.yul\":17840:17866   */\n      swap2\n      pop\n        /* \"#utility.yul\":17762:17766   */\n      0x20\n        /* \"#utility.yul\":17759:17760   */\n      dup2\n        /* \"#utility.yul\":17755:17767   */\n      add\n        /* \"#utility.yul\":17750:17767   */\n      swap1\n      pop\n        /* \"#utility.yul\":17726:17880   */\n      jump(tag_334)\n    tag_336:\n        /* \"#utility.yul\":17909:17915   */\n      dup4\n        /* \"#utility.yul\":17904:17907   */\n      dup9\n        /* \"#utility.yul\":17900:17916   */\n      add\n        /* \"#utility.yul\":17893:17916   */\n      swap6\n      pop\n        /* \"#utility.yul\":17592:17926   */\n      pop\n      pop\n        /* \"#utility.yul\":17406:17926   */\n    tag_330:\n      pop\n        /* \"#utility.yul\":17194:17932   */\n      pop\n      pop\n        /* \"#utility.yul\":17087:17932   */\n      swap3\n      swap2\n      pop\n      pop\n      jump\t// out\n        /* \"#utility.yul\":17938:18207   */\n    tag_107:\n        /* \"#utility.yul\":18067:18070   */\n      0x00\n        /* \"#utility.yul\":18089:18181   */\n      tag_338\n        /* \"#utility.yul\":18177:18180   */\n      dup3\n        /* \"#utility.yul\":18168:18174   */\n      dup5\n        /* \"#utility.yul\":18089:18181   */\n      tag_175\n      jump\t// in\n    tag_338:\n        /* \"#utility.yul\":18082:18181   */\n      swap2\n      pop\n        /* \"#utility.yul\":18198:18201   */\n      dup2\n        /* \"#utility.yul\":18191:18201   */\n      swap1\n      pop\n        /* \"#utility.yul\":17938:18207   */\n      swap3\n      swap2\n      pop\n      pop\n      jump\t// out\n\n    auxdata: 0xa26469706673582212204ca115f42a4455e0719eb35632a7d7630de2e6f0577ef9c64bfa9cf03583aed864736f6c634300080d0033\n}\n",
				"bytecode": {
					"linkReferences": {},
					"object": "608060405234801561001057600080fd5b5033600360006101000a81548173ffffffffffffffffffffffffffffffffffffffff021916908373ffffffffffffffffffffffffffffffffffffffff160217905550611294806100616000396000f3fe608060405234801561001057600080fd5b506004361061007d5760003560e01c806386cdf6041161005b57806386cdf604146100fe578063bf80f44a1461011c578063c157b6f51461013a578063f851a440146101585761007d565b80631d39e50914610082578063202e7be4146100b25780636f732627146100ce575b600080fd5b61009c60048036038101906100979190610af5565b610176565b6040516100a99190610bc6565b60405180910390f35b6100cc60048036038101906100c79190610af5565b610232565b005b6100e860048036038101906100e39190610c1e565b61044d565b6040516100f59190610bc6565b60405180910390f35b6101066104f9565b6040516101139190610e01565b60405180910390f35b61012461074c565b6040516101319190610e32565b60405180910390f35b610142610755565b60405161014f9190610f0f565b60405180910390f35b6101606108b8565b60405161016d9190610f72565b60405180910390f35b6000818051602081018201805184825260208301602085012081835280955050505050506000915090508060000180546101af90610fbc565b80601f01602080910402602001604051908101604052809291908181526020018280546101db90610fbc565b80156102285780601f106101fd57610100808354040283529160200191610228565b820191906000526020600020905b81548152906001019060200180831161020b57829003601f168201915b5050505050905081565b600360009054906101000a900473ffffffffffffffffffffffffffffffffffffffff1673ffffffffffffffffffffffffffffffffffffffff163373ffffffffffffffffffffffffffffffffffffffff16146102c2576040517f08c379a00000000000000000000000000000000000000000000000000000000081526004016102b990611039565b60405180910390fd5b600080826040516102d39190611095565b90815260200160405180910390209050818160000190805190602001906102fb9291906108de565b508060010160405180606001604052806040518060400160405280600681526020017f6e616d652d31000000000000000000000000000000000000000000000000000081525081526020016040518060400160405280600681526020017f7369676e2d31000000000000000000000000000000000000000000000000000081525081526020016000815250908060018154018082558091505060019003906000526020600020906003020160009091909190915060008201518160000190805190602001906103cb9291906108de565b5060208201518160010190805190602001906103e89291906108de565b5060408201518160020155505060016000815480929190610408906110db565b91905055506002829080600181540180825580915050600190039060005260206000200160009091909190915090805190602001906104489291906108de565b505050565b6002818154811061045d57600080fd5b90600052602060002001600091509050805461047890610fbc565b80601f01602080910402602001604051908101604052809291908181526020018280546104a490610fbc565b80156104f15780601f106104c6576101008083540402835291602001916104f1565b820191906000526020600020905b8154815290600101906020018083116104d457829003601f168201915b505050505081565b610501610964565b600060405161050f9061116f565b908152602001604051809103902060405180604001604052908160008201805461053890610fbc565b80601f016020809104026020016040519081016040528092919081815260200182805461056490610fbc565b80156105b15780601f10610586576101008083540402835291602001916105b1565b820191906000526020600020905b81548152906001019060200180831161059457829003601f168201915b5050505050815260200160018201805480602002602001604051908101604052809291908181526020016000905b8282101561073f578382906000526020600020906003020160405180606001604052908160008201805461061290610fbc565b80601f016020809104026020016040519081016040528092919081815260200182805461063e90610fbc565b801561068b5780601f106106605761010080835404028352916020019161068b565b820191906000526020600020905b81548152906001019060200180831161066e57829003601f168201915b505050505081526020016001820180546106a490610fbc565b80601f01602080910402602001604051908101604052809291908181526020018280546106d090610fbc565b801561071d5780601f106106f25761010080835404028352916020019161071d565b820191906000526020600020905b81548152906001019060200180831161070057829003601f168201915b50505050508152602001600282015481525050815260200190600101906105df565b5050505081525050905090565b6000607b905090565b6060600060015467ffffffffffffffff811115610775576107746109ca565b5b6040519080825280602002602001820160405280156107a857816020015b60608152602001906001900390816107935790505b50905060005b6001548110156108b0576000600282815481106107ce576107cd611184565b5b906000526020600020016040516107e59190611247565b9081526020016040518091039020600001805461080190610fbc565b80601f016020809104026020016040519081016040528092919081815260200182805461082d90610fbc565b801561087a5780601f1061084f5761010080835404028352916020019161087a565b820191906000526020600020905b81548152906001019060200180831161085d57829003601f168201915b505050505082828151811061089257610891611184565b5b602002602001018190525080806108a8906110db565b9150506107ae565b508091505090565b600360009054906101000a900473ffffffffffffffffffffffffffffffffffffffff1681565b8280546108ea90610fbc565b90600052602060002090601f01602090048101928261090c5760008555610953565b82601f1061092557805160ff1916838001178555610953565b82800160010185558215610953579182015b82811115610952578251825591602001919060010190610937565b5b509050610960919061097e565b5090565b604051806040016040528060608152602001606081525090565b5b8082111561099757600081600090555060010161097f565b5090565b6000604051905090565b600080fd5b600080fd5b600080fd5b600080fd5b6000601f19601f8301169050919050565b7f4e487b7100000000000000000000000000000000000000000000000000000000600052604160045260246000fd5b610a02826109b9565b810181811067ffffffffffffffff82111715610a2157610a206109ca565b5b80604052505050565b6000610a3461099b565b9050610a4082826109f9565b919050565b600067ffffffffffffffff821115610a6057610a5f6109ca565b5b610a69826109b9565b9050602081019050919050565b82818337600083830152505050565b6000610a98610a9384610a45565b610a2a565b905082815260208101848484011115610ab457610ab36109b4565b5b610abf848285610a76565b509392505050565b600082601f830112610adc57610adb6109af565b5b8135610aec848260208601610a85565b91505092915050565b600060208284031215610b0b57610b0a6109a5565b5b600082013567ffffffffffffffff811115610b2957610b286109aa565b5b610b3584828501610ac7565b91505092915050565b600081519050919050565b600082825260208201905092915050565b60005b83811015610b78578082015181840152602081019050610b5d565b83811115610b87576000848401525b50505050565b6000610b9882610b3e565b610ba28185610b49565b9350610bb2818560208601610b5a565b610bbb816109b9565b840191505092915050565b60006020820190508181036000830152610be08184610b8d565b905092915050565b6000819050919050565b610bfb81610be8565b8114610c0657600080fd5b50565b600081359050610c1881610bf2565b92915050565b600060208284031215610c3457610c336109a5565b5b6000610c4284828501610c09565b91505092915050565b600082825260208201905092915050565b6000610c6782610b3e565b610c718185610c4b565b9350610c81818560208601610b5a565b610c8a816109b9565b840191505092915050565b600081519050919050565b600082825260208201905092915050565b6000819050602082019050919050565b610cca81610be8565b82525050565b60006060830160008301518482036000860152610ced8282610c5c565b91505060208301518482036020860152610d078282610c5c565b9150506040830151610d1c6040860182610cc1565b508091505092915050565b6000610d338383610cd0565b905092915050565b6000602082019050919050565b6000610d5382610c95565b610d5d8185610ca0565b935083602082028501610d6f85610cb1565b8060005b85811015610dab5784840389528151610d8c8582610d27565b9450610d9783610d3b565b925060208a01995050600181019050610d73565b50829750879550505050505092915050565b60006040830160008301518482036000860152610dda8282610c5c565b91505060208301518482036020860152610df48282610d48565b9150508091505092915050565b60006020820190508181036000830152610e1b8184610dbd565b905092915050565b610e2c81610be8565b82525050565b6000602082019050610e476000830184610e23565b92915050565b600081519050919050565b600082825260208201905092915050565b6000819050602082019050919050565b6000610e858383610c5c565b905092915050565b6000602082019050919050565b6000610ea582610e4d565b610eaf8185610e58565b935083602082028501610ec185610e69565b8060005b85811015610efd5784840389528151610ede8582610e79565b9450610ee983610e8d565b925060208a01995050600181019050610ec5565b50829750879550505050505092915050565b60006020820190508181036000830152610f298184610e9a565b905092915050565b600073ffffffffffffffffffffffffffffffffffffffff82169050919050565b6000610f5c82610f31565b9050919050565b610f6c81610f51565b82525050565b6000602082019050610f876000830184610f63565b92915050565b7f4e487b7100000000000000000000000000000000000000000000000000000000600052602260045260246000fd5b60006002820490506001821680610fd457607f821691505b602082108103610fe757610fe6610f8d565b5b50919050565b7f4f6e6c792061646d696e2063616e20737461727420612063616d706169676e00600082015250565b6000611023601f83610b49565b915061102e82610fed565b602082019050919050565b6000602082019050818103600083015261105281611016565b9050919050565b600081905092915050565b600061106f82610b3e565b6110798185611059565b9350611089818560208601610b5a565b80840191505092915050565b60006110a18284611064565b915081905092915050565b7f4e487b7100000000000000000000000000000000000000000000000000000000600052601160045260246000fd5b60006110e682610be8565b91507fffffffffffffffffffffffffffffffffffffffffffffffffffffffffffffffff8203611118576111176110ac565b5b600182019050919050565b7f3131323200000000000000000000000000000000000000000000000000000000600082015250565b6000611159600483611059565b915061116482611123565b600482019050919050565b600061117a8261114c565b9150819050919050565b7f4e487b7100000000000000000000000000000000000000000000000000000000600052603260045260246000fd5b60008190508160005260206000209050919050565b600081546111d581610fbc565b6111df8186611059565b945060018216600081146111fa576001811461120b5761123e565b60ff1983168652818601935061123e565b611214856111b3565b60005b8381101561123657815481890152600182019150602081019050611217565b838801955050505b50505092915050565b600061125382846111c8565b91508190509291505056fea26469706673582212204ca115f42a4455e0719eb35632a7d7630de2e6f0577ef9c64bfa9cf03583aed864736f6c634300080d0033",
					"opcodes": "PUSH1 0x80 PUSH1 0x40 MSTORE CALLVALUE DUP1 ISZERO PUSH2 0x10 JUMPI PUSH1 0x0 DUP1 REVERT JUMPDEST POP CALLER PUSH1 0x3 PUSH1 0x0 PUSH2 0x100 EXP DUP2 SLOAD DUP2 PUSH20 0xFFFFFFFFFFFFFFFFFFFFFFFFFFFFFFFFFFFFFFFF MUL NOT AND SWAP1 DUP4 PUSH20 0xFFFFFFFFFFFFFFFFFFFFFFFFFFFFFFFFFFFFFFFF AND MUL OR SWAP1 SSTORE POP PUSH2 0x1294 DUP1 PUSH2 0x61 PUSH1 0x0 CODECOPY PUSH1 0x0 RETURN INVALID PUSH1 0x80 PUSH1 0x40 MSTORE CALLVALUE DUP1 ISZERO PUSH2 0x10 JUMPI PUSH1 0x0 DUP1 REVERT JUMPDEST POP PUSH1 0x4 CALLDATASIZE LT PUSH2 0x7D JUMPI PUSH1 0x0 CALLDATALOAD PUSH1 0xE0 SHR DUP1 PUSH4 0x86CDF604 GT PUSH2 0x5B JUMPI DUP1 PUSH4 0x86CDF604 EQ PUSH2 0xFE JUMPI DUP1 PUSH4 0xBF80F44A EQ PUSH2 0x11C JUMPI DUP1 PUSH4 0xC157B6F5 EQ PUSH2 0x13A JUMPI DUP1 PUSH4 0xF851A440 EQ PUSH2 0x158 JUMPI PUSH2 0x7D JUMP JUMPDEST DUP1 PUSH4 0x1D39E509 EQ PUSH2 0x82 JUMPI DUP1 PUSH4 0x202E7BE4 EQ PUSH2 0xB2 JUMPI DUP1 PUSH4 0x6F732627 EQ PUSH2 0xCE JUMPI JUMPDEST PUSH1 0x0 DUP1 REVERT JUMPDEST PUSH2 0x9C PUSH1 0x4 DUP1 CALLDATASIZE SUB DUP2 ADD SWAP1 PUSH2 0x97 SWAP2 SWAP1 PUSH2 0xAF5 JUMP JUMPDEST PUSH2 0x176 JUMP JUMPDEST PUSH1 0x40 MLOAD PUSH2 0xA9 SWAP2 SWAP1 PUSH2 0xBC6 JUMP JUMPDEST PUSH1 0x40 MLOAD DUP1 SWAP2 SUB SWAP1 RETURN JUMPDEST PUSH2 0xCC PUSH1 0x4 DUP1 CALLDATASIZE SUB DUP2 ADD SWAP1 PUSH2 0xC7 SWAP2 SWAP1 PUSH2 0xAF5 JUMP JUMPDEST PUSH2 0x232 JUMP JUMPDEST STOP JUMPDEST PUSH2 0xE8 PUSH1 0x4 DUP1 CALLDATASIZE SUB DUP2 ADD SWAP1 PUSH2 0xE3 SWAP2 SWAP1 PUSH2 0xC1E JUMP JUMPDEST PUSH2 0x44D JUMP JUMPDEST PUSH1 0x40 MLOAD PUSH2 0xF5 SWAP2 SWAP1 PUSH2 0xBC6 JUMP JUMPDEST PUSH1 0x40 MLOAD DUP1 SWAP2 SUB SWAP1 RETURN JUMPDEST PUSH2 0x106 PUSH2 0x4F9 JUMP JUMPDEST PUSH1 0x40 MLOAD PUSH2 0x113 SWAP2 SWAP1 PUSH2 0xE01 JUMP JUMPDEST PUSH1 0x40 MLOAD DUP1 SWAP2 SUB SWAP1 RETURN JUMPDEST PUSH2 0x124 PUSH2 0x74C JUMP JUMPDEST PUSH1 0x40 MLOAD PUSH2 0x131 SWAP2 SWAP1 PUSH2 0xE32 JUMP JUMPDEST PUSH1 0x40 MLOAD DUP1 SWAP2 SUB SWAP1 RETURN JUMPDEST PUSH2 0x142 PUSH2 0x755 JUMP JUMPDEST PUSH1 0x40 MLOAD PUSH2 0x14F SWAP2 SWAP1 PUSH2 0xF0F JUMP JUMPDEST PUSH1 0x40 MLOAD DUP1 SWAP2 SUB SWAP1 RETURN JUMPDEST PUSH2 0x160 PUSH2 0x8B8 JUMP JUMPDEST PUSH1 0x40 MLOAD PUSH2 0x16D SWAP2 SWAP1 PUSH2 0xF72 JUMP JUMPDEST PUSH1 0x40 MLOAD DUP1 SWAP2 SUB SWAP1 RETURN JUMPDEST PUSH1 0x0 DUP2 DUP1 MLOAD PUSH1 0x20 DUP2 ADD DUP3 ADD DUP1 MLOAD DUP5 DUP3 MSTORE PUSH1 0x20 DUP4 ADD PUSH1 0x20 DUP6 ADD KECCAK256 DUP2 DUP4 MSTORE DUP1 SWAP6 POP POP POP POP POP POP PUSH1 0x0 SWAP2 POP SWAP1 POP DUP1 PUSH1 0x0 ADD DUP1 SLOAD PUSH2 0x1AF SWAP1 PUSH2 0xFBC JUMP JUMPDEST DUP1 PUSH1 0x1F ADD PUSH1 0x20 DUP1 SWAP2 DIV MUL PUSH1 0x20 ADD PUSH1 0x40 MLOAD SWAP1 DUP2 ADD PUSH1 0x40 MSTORE DUP1 SWAP3 SWAP2 SWAP1 DUP2 DUP2 MSTORE PUSH1 0x20 ADD DUP3 DUP1 SLOAD PUSH2 0x1DB SWAP1 PUSH2 0xFBC JUMP JUMPDEST DUP1 ISZERO PUSH2 0x228 JUMPI DUP1 PUSH1 0x1F LT PUSH2 0x1FD JUMPI PUSH2 0x100 DUP1 DUP4 SLOAD DIV MUL DUP4 MSTORE SWAP2 PUSH1 0x20 ADD SWAP2 PUSH2 0x228 JUMP JUMPDEST DUP3 ADD SWAP2 SWAP1 PUSH1 0x0 MSTORE PUSH1 0x20 PUSH1 0x0 KECCAK256 SWAP1 JUMPDEST DUP2 SLOAD DUP2 MSTORE SWAP1 PUSH1 0x1 ADD SWAP1 PUSH1 0x20 ADD DUP1 DUP4 GT PUSH2 0x20B JUMPI DUP3 SWAP1 SUB PUSH1 0x1F AND DUP3 ADD SWAP2 JUMPDEST POP POP POP POP POP SWAP1 POP DUP2 JUMP JUMPDEST PUSH1 0x3 PUSH1 0x0 SWAP1 SLOAD SWAP1 PUSH2 0x100 EXP SWAP1 DIV PUSH20 0xFFFFFFFFFFFFFFFFFFFFFFFFFFFFFFFFFFFFFFFF AND PUSH20 0xFFFFFFFFFFFFFFFFFFFFFFFFFFFFFFFFFFFFFFFF AND CALLER PUSH20 0xFFFFFFFFFFFFFFFFFFFFFFFFFFFFFFFFFFFFFFFF AND EQ PUSH2 0x2C2 JUMPI PUSH1 0x40 MLOAD PUSH32 0x8C379A000000000000000000000000000000000000000000000000000000000 DUP2 MSTORE PUSH1 0x4 ADD PUSH2 0x2B9 SWAP1 PUSH2 0x1039 JUMP JUMPDEST PUSH1 0x40 MLOAD DUP1 SWAP2 SUB SWAP1 REVERT JUMPDEST PUSH1 0x0 DUP1 DUP3 PUSH1 0x40 MLOAD PUSH2 0x2D3 SWAP2 SWAP1 PUSH2 0x1095 JUMP JUMPDEST SWAP1 DUP2 MSTORE PUSH1 0x20 ADD PUSH1 0x40 MLOAD DUP1 SWAP2 SUB SWAP1 KECCAK256 SWAP1 POP DUP2 DUP2 PUSH1 0x0 ADD SWAP1 DUP1 MLOAD SWAP1 PUSH1 0x20 ADD SWAP1 PUSH2 0x2FB SWAP3 SWAP2 SWAP1 PUSH2 0x8DE JUMP JUMPDEST POP DUP1 PUSH1 0x1 ADD PUSH1 0x40 MLOAD DUP1 PUSH1 0x60 ADD PUSH1 0x40 MSTORE DUP1 PUSH1 0x40 MLOAD DUP1 PUSH1 0x40 ADD PUSH1 0x40 MSTORE DUP1 PUSH1 0x6 DUP2 MSTORE PUSH1 0x20 ADD PUSH32 0x6E616D652D310000000000000000000000000000000000000000000000000000 DUP2 MSTORE POP DUP2 MSTORE PUSH1 0x20 ADD PUSH1 0x40 MLOAD DUP1 PUSH1 0x40 ADD PUSH1 0x40 MSTORE DUP1 PUSH1 0x6 DUP2 MSTORE PUSH1 0x20 ADD PUSH32 0x7369676E2D310000000000000000000000000000000000000000000000000000 DUP2 MSTORE POP DUP2 MSTORE PUSH1 0x20 ADD PUSH1 0x0 DUP2 MSTORE POP SWAP1 DUP1 PUSH1 0x1 DUP2 SLOAD ADD DUP1 DUP3 SSTORE DUP1 SWAP2 POP POP PUSH1 0x1 SWAP1 SUB SWAP1 PUSH1 0x0 MSTORE PUSH1 0x20 PUSH1 0x0 KECCAK256 SWAP1 PUSH1 0x3 MUL ADD PUSH1 0x0 SWAP1 SWAP2 SWAP1 SWAP2 SWAP1 SWAP2 POP PUSH1 0x0 DUP3 ADD MLOAD DUP2 PUSH1 0x0 ADD SWAP1 DUP1 MLOAD SWAP1 PUSH1 0x20 ADD SWAP1 PUSH2 0x3CB SWAP3 SWAP2 SWAP1 PUSH2 0x8DE JUMP JUMPDEST POP PUSH1 0x20 DUP3 ADD MLOAD DUP2 PUSH1 0x1 ADD SWAP1 DUP1 MLOAD SWAP1 PUSH1 0x20 ADD SWAP1 PUSH2 0x3E8 SWAP3 SWAP2 SWAP1 PUSH2 0x8DE JUMP JUMPDEST POP PUSH1 0x40 DUP3 ADD MLOAD DUP2 PUSH1 0x2 ADD SSTORE POP POP PUSH1 0x1 PUSH1 0x0 DUP2 SLOAD DUP1 SWAP3 SWAP2 SWAP1 PUSH2 0x408 SWAP1 PUSH2 0x10DB JUMP JUMPDEST SWAP2 SWAP1 POP SSTORE POP PUSH1 0x2 DUP3 SWAP1 DUP1 PUSH1 0x1 DUP2 SLOAD ADD DUP1 DUP3 SSTORE DUP1 SWAP2 POP POP PUSH1 0x1 SWAP1 SUB SWAP1 PUSH1 0x0 MSTORE PUSH1 0x20 PUSH1 0x0 KECCAK256 ADD PUSH1 0x0 SWAP1 SWAP2 SWAP1 SWAP2 SWAP1 SWAP2 POP SWAP1 DUP1 MLOAD SWAP1 PUSH1 0x20 ADD SWAP1 PUSH2 0x448 SWAP3 SWAP2 SWAP1 PUSH2 0x8DE JUMP JUMPDEST POP POP POP JUMP JUMPDEST PUSH1 0x2 DUP2 DUP2 SLOAD DUP2 LT PUSH2 0x45D JUMPI PUSH1 0x0 DUP1 REVERT JUMPDEST SWAP1 PUSH1 0x0 MSTORE PUSH1 0x20 PUSH1 0x0 KECCAK256 ADD PUSH1 0x0 SWAP2 POP SWAP1 POP DUP1 SLOAD PUSH2 0x478 SWAP1 PUSH2 0xFBC JUMP JUMPDEST DUP1 PUSH1 0x1F ADD PUSH1 0x20 DUP1 SWAP2 DIV MUL PUSH1 0x20 ADD PUSH1 0x40 MLOAD SWAP1 DUP2 ADD PUSH1 0x40 MSTORE DUP1 SWAP3 SWAP2 SWAP1 DUP2 DUP2 MSTORE PUSH1 0x20 ADD DUP3 DUP1 SLOAD PUSH2 0x4A4 SWAP1 PUSH2 0xFBC JUMP JUMPDEST DUP1 ISZERO PUSH2 0x4F1 JUMPI DUP1 PUSH1 0x1F LT PUSH2 0x4C6 JUMPI PUSH2 0x100 DUP1 DUP4 SLOAD DIV MUL DUP4 MSTORE SWAP2 PUSH1 0x20 ADD SWAP2 PUSH2 0x4F1 JUMP JUMPDEST DUP3 ADD SWAP2 SWAP1 PUSH1 0x0 MSTORE PUSH1 0x20 PUSH1 0x0 KECCAK256 SWAP1 JUMPDEST DUP2 SLOAD DUP2 MSTORE SWAP1 PUSH1 0x1 ADD SWAP1 PUSH1 0x20 ADD DUP1 DUP4 GT PUSH2 0x4D4 JUMPI DUP3 SWAP1 SUB PUSH1 0x1F AND DUP3 ADD SWAP2 JUMPDEST POP POP POP POP POP DUP2 JUMP JUMPDEST PUSH2 0x501 PUSH2 0x964 JUMP JUMPDEST PUSH1 0x0 PUSH1 0x40 MLOAD PUSH2 0x50F SWAP1 PUSH2 0x116F JUMP JUMPDEST SWAP1 DUP2 MSTORE PUSH1 0x20 ADD PUSH1 0x40 MLOAD DUP1 SWAP2 SUB SWAP1 KECCAK256 PUSH1 0x40 MLOAD DUP1 PUSH1 0x40 ADD PUSH1 0x40 MSTORE SWAP1 DUP2 PUSH1 0x0 DUP3 ADD DUP1 SLOAD PUSH2 0x538 SWAP1 PUSH2 0xFBC JUMP JUMPDEST DUP1 PUSH1 0x1F ADD PUSH1 0x20 DUP1 SWAP2 DIV MUL PUSH1 0x20 ADD PUSH1 0x40 MLOAD SWAP1 DUP2 ADD PUSH1 0x40 MSTORE DUP1 SWAP3 SWAP2 SWAP1 DUP2 DUP2 MSTORE PUSH1 0x20 ADD DUP3 DUP1 SLOAD PUSH2 0x564 SWAP1 PUSH2 0xFBC JUMP JUMPDEST DUP1 ISZERO PUSH2 0x5B1 JUMPI DUP1 PUSH1 0x1F LT PUSH2 0x586 JUMPI PUSH2 0x100 DUP1 DUP4 SLOAD DIV MUL DUP4 MSTORE SWAP2 PUSH1 0x20 ADD SWAP2 PUSH2 0x5B1 JUMP JUMPDEST DUP3 ADD SWAP2 SWAP1 PUSH1 0x0 MSTORE PUSH1 0x20 PUSH1 0x0 KECCAK256 SWAP1 JUMPDEST DUP2 SLOAD DUP2 MSTORE SWAP1 PUSH1 0x1 ADD SWAP1 PUSH1 0x20 ADD DUP1 DUP4 GT PUSH2 0x594 JUMPI DUP3 SWAP1 SUB PUSH1 0x1F AND DUP3 ADD SWAP2 JUMPDEST POP POP POP POP POP DUP2 MSTORE PUSH1 0x20 ADD PUSH1 0x1 DUP3 ADD DUP1 SLOAD DUP1 PUSH1 0x20 MUL PUSH1 0x20 ADD PUSH1 0x40 MLOAD SWAP1 DUP2 ADD PUSH1 0x40 MSTORE DUP1 SWAP3 SWAP2 SWAP1 DUP2 DUP2 MSTORE PUSH1 0x20 ADD PUSH1 0x0 SWAP1 JUMPDEST DUP3 DUP3 LT ISZERO PUSH2 0x73F JUMPI DUP4 DUP3 SWAP1 PUSH1 0x0 MSTORE PUSH1 0x20 PUSH1 0x0 KECCAK256 SWAP1 PUSH1 0x3 MUL ADD PUSH1 0x40 MLOAD DUP1 PUSH1 0x60 ADD PUSH1 0x40 MSTORE SWAP1 DUP2 PUSH1 0x0 DUP3 ADD DUP1 SLOAD PUSH2 0x612 SWAP1 PUSH2 0xFBC JUMP JUMPDEST DUP1 PUSH1 0x1F ADD PUSH1 0x20 DUP1 SWAP2 DIV MUL PUSH1 0x20 ADD PUSH1 0x40 MLOAD SWAP1 DUP2 ADD PUSH1 0x40 MSTORE DUP1 SWAP3 SWAP2 SWAP1 DUP2 DUP2 MSTORE PUSH1 0x20 ADD DUP3 DUP1 SLOAD PUSH2 0x63E SWAP1 PUSH2 0xFBC JUMP JUMPDEST DUP1 ISZERO PUSH2 0x68B JUMPI DUP1 PUSH1 0x1F LT PUSH2 0x660 JUMPI PUSH2 0x100 DUP1 DUP4 SLOAD DIV MUL DUP4 MSTORE SWAP2 PUSH1 0x20 ADD SWAP2 PUSH2 0x68B JUMP JUMPDEST DUP3 ADD SWAP2 SWAP1 PUSH1 0x0 MSTORE PUSH1 0x20 PUSH1 0x0 KECCAK256 SWAP1 JUMPDEST DUP2 SLOAD DUP2 MSTORE SWAP1 PUSH1 0x1 ADD SWAP1 PUSH1 0x20 ADD DUP1 DUP4 GT PUSH2 0x66E JUMPI DUP3 SWAP1 SUB PUSH1 0x1F AND DUP3 ADD SWAP2 JUMPDEST POP POP POP POP POP DUP2 MSTORE PUSH1 0x20 ADD PUSH1 0x1 DUP3 ADD DUP1 SLOAD PUSH2 0x6A4 SWAP1 PUSH2 0xFBC JUMP JUMPDEST DUP1 PUSH1 0x1F ADD PUSH1 0x20 DUP1 SWAP2 DIV MUL PUSH1 0x20 ADD PUSH1 0x40 MLOAD SWAP1 DUP2 ADD PUSH1 0x40 MSTORE DUP1 SWAP3 SWAP2 SWAP1 DUP2 DUP2 MSTORE PUSH1 0x20 ADD DUP3 DUP1 SLOAD PUSH2 0x6D0 SWAP1 PUSH2 0xFBC JUMP JUMPDEST DUP1 ISZERO PUSH2 0x71D JUMPI DUP1 PUSH1 0x1F LT PUSH2 0x6F2 JUMPI PUSH2 0x100 DUP1 DUP4 SLOAD DIV MUL DUP4 MSTORE SWAP2 PUSH1 0x20 ADD SWAP2 PUSH2 0x71D JUMP JUMPDEST DUP3 ADD SWAP2 SWAP1 PUSH1 0x0 MSTORE PUSH1 0x20 PUSH1 0x0 KECCAK256 SWAP1 JUMPDEST DUP2 SLOAD DUP2 MSTORE SWAP1 PUSH1 0x1 ADD SWAP1 PUSH1 0x20 ADD DUP1 DUP4 GT PUSH2 0x700 JUMPI DUP3 SWAP1 SUB PUSH1 0x1F AND DUP3 ADD SWAP2 JUMPDEST POP POP POP POP POP DUP2 MSTORE PUSH1 0x20 ADD PUSH1 0x2 DUP3 ADD SLOAD DUP2 MSTORE POP POP DUP2 MSTORE PUSH1 0x20 ADD SWAP1 PUSH1 0x1 ADD SWAP1 PUSH2 0x5DF JUMP JUMPDEST POP POP POP POP DUP2 MSTORE POP POP SWAP1 POP SWAP1 JUMP JUMPDEST PUSH1 0x0 PUSH1 0x7B SWAP1 POP SWAP1 JUMP JUMPDEST PUSH1 0x60 PUSH1 0x0 PUSH1 0x1 SLOAD PUSH8 0xFFFFFFFFFFFFFFFF DUP2 GT ISZERO PUSH2 0x775 JUMPI PUSH2 0x774 PUSH2 0x9CA JUMP JUMPDEST JUMPDEST PUSH1 0x40 MLOAD SWAP1 DUP1 DUP3 MSTORE DUP1 PUSH1 0x20 MUL PUSH1 0x20 ADD DUP3 ADD PUSH1 0x40 MSTORE DUP1 ISZERO PUSH2 0x7A8 JUMPI DUP2 PUSH1 0x20 ADD JUMPDEST PUSH1 0x60 DUP2 MSTORE PUSH1 0x20 ADD SWAP1 PUSH1 0x1 SWAP1 SUB SWAP1 DUP2 PUSH2 0x793 JUMPI SWAP1 POP JUMPDEST POP SWAP1 POP PUSH1 0x0 JUMPDEST PUSH1 0x1 SLOAD DUP2 LT ISZERO PUSH2 0x8B0 JUMPI PUSH1 0x0 PUSH1 0x2 DUP3 DUP2 SLOAD DUP2 LT PUSH2 0x7CE JUMPI PUSH2 0x7CD PUSH2 0x1184 JUMP JUMPDEST JUMPDEST SWAP1 PUSH1 0x0 MSTORE PUSH1 0x20 PUSH1 0x0 KECCAK256 ADD PUSH1 0x40 MLOAD PUSH2 0x7E5 SWAP2 SWAP1 PUSH2 0x1247 JUMP JUMPDEST SWAP1 DUP2 MSTORE PUSH1 0x20 ADD PUSH1 0x40 MLOAD DUP1 SWAP2 SUB SWAP1 KECCAK256 PUSH1 0x0 ADD DUP1 SLOAD PUSH2 0x801 SWAP1 PUSH2 0xFBC JUMP JUMPDEST DUP1 PUSH1 0x1F ADD PUSH1 0x20 DUP1 SWAP2 DIV MUL PUSH1 0x20 ADD PUSH1 0x40 MLOAD SWAP1 DUP2 ADD PUSH1 0x40 MSTORE DUP1 SWAP3 SWAP2 SWAP1 DUP2 DUP2 MSTORE PUSH1 0x20 ADD DUP3 DUP1 SLOAD PUSH2 0x82D SWAP1 PUSH2 0xFBC JUMP JUMPDEST DUP1 ISZERO PUSH2 0x87A JUMPI DUP1 PUSH1 0x1F LT PUSH2 0x84F JUMPI PUSH2 0x100 DUP1 DUP4 SLOAD DIV MUL DUP4 MSTORE SWAP2 PUSH1 0x20 ADD SWAP2 PUSH2 0x87A JUMP JUMPDEST DUP3 ADD SWAP2 SWAP1 PUSH1 0x0 MSTORE PUSH1 0x20 PUSH1 0x0 KECCAK256 SWAP1 JUMPDEST DUP2 SLOAD DUP2 MSTORE SWAP1 PUSH1 0x1 ADD SWAP1 PUSH1 0x20 ADD DUP1 DUP4 GT PUSH2 0x85D JUMPI DUP3 SWAP1 SUB PUSH1 0x1F AND DUP3 ADD SWAP2 JUMPDEST POP POP POP POP POP DUP3 DUP3 DUP2 MLOAD DUP2 LT PUSH2 0x892 JUMPI PUSH2 0x891 PUSH2 0x1184 JUMP JUMPDEST JUMPDEST PUSH1 0x20 MUL PUSH1 0x20 ADD ADD DUP2 SWAP1 MSTORE POP DUP1 DUP1 PUSH2 0x8A8 SWAP1 PUSH2 0x10DB JUMP JUMPDEST SWAP2 POP POP PUSH2 0x7AE JUMP JUMPDEST POP DUP1 SWAP2 POP POP SWAP1 JUMP JUMPDEST PUSH1 0x3 PUSH1 0x0 SWAP1 SLOAD SWAP1 PUSH2 0x100 EXP SWAP1 DIV PUSH20 0xFFFFFFFFFFFFFFFFFFFFFFFFFFFFFFFFFFFFFFFF AND DUP2 JUMP JUMPDEST DUP3 DUP1 SLOAD PUSH2 0x8EA SWAP1 PUSH2 0xFBC JUMP JUMPDEST SWAP1 PUSH1 0x0 MSTORE PUSH1 0x20 PUSH1 0x0 KECCAK256 SWAP1 PUSH1 0x1F ADD PUSH1 0x20 SWAP1 DIV DUP2 ADD SWAP3 DUP3 PUSH2 0x90C JUMPI PUSH1 0x0 DUP6 SSTORE PUSH2 0x953 JUMP JUMPDEST DUP3 PUSH1 0x1F LT PUSH2 0x925 JUMPI DUP1 MLOAD PUSH1 0xFF NOT AND DUP4 DUP1 ADD OR DUP6 SSTORE PUSH2 0x953 JUMP JUMPDEST DUP3 DUP1 ADD PUSH1 0x1 ADD DUP6 SSTORE DUP3 ISZERO PUSH2 0x953 JUMPI SWAP2 DUP3 ADD JUMPDEST DUP3 DUP2 GT ISZERO PUSH2 0x952 JUMPI DUP3 MLOAD DUP3 SSTORE SWAP2 PUSH1 0x20 ADD SWAP2 SWAP1 PUSH1 0x1 ADD SWAP1 PUSH2 0x937 JUMP JUMPDEST JUMPDEST POP SWAP1 POP PUSH2 0x960 SWAP2 SWAP1 PUSH2 0x97E JUMP JUMPDEST POP SWAP1 JUMP JUMPDEST PUSH1 0x40 MLOAD DUP1 PUSH1 0x40 ADD PUSH1 0x40 MSTORE DUP1 PUSH1 0x60 DUP2 MSTORE PUSH1 0x20 ADD PUSH1 0x60 DUP2 MSTORE POP SWAP1 JUMP JUMPDEST JUMPDEST DUP1 DUP3 GT ISZERO PUSH2 0x997 JUMPI PUSH1 0x0 DUP2 PUSH1 0x0 SWAP1 SSTORE POP PUSH1 0x1 ADD PUSH2 0x97F JUMP JUMPDEST POP SWAP1 JUMP JUMPDEST PUSH1 0x0 PUSH1 0x40 MLOAD SWAP1 POP SWAP1 JUMP JUMPDEST PUSH1 0x0 DUP1 REVERT JUMPDEST PUSH1 0x0 DUP1 REVERT JUMPDEST PUSH1 0x0 DUP1 REVERT JUMPDEST PUSH1 0x0 DUP1 REVERT JUMPDEST PUSH1 0x0 PUSH1 0x1F NOT PUSH1 0x1F DUP4 ADD AND SWAP1 POP SWAP2 SWAP1 POP JUMP JUMPDEST PUSH32 0x4E487B7100000000000000000000000000000000000000000000000000000000 PUSH1 0x0 MSTORE PUSH1 0x41 PUSH1 0x4 MSTORE PUSH1 0x24 PUSH1 0x0 REVERT JUMPDEST PUSH2 0xA02 DUP3 PUSH2 0x9B9 JUMP JUMPDEST DUP2 ADD DUP2 DUP2 LT PUSH8 0xFFFFFFFFFFFFFFFF DUP3 GT OR ISZERO PUSH2 0xA21 JUMPI PUSH2 0xA20 PUSH2 0x9CA JUMP JUMPDEST JUMPDEST DUP1 PUSH1 0x40 MSTORE POP POP POP JUMP JUMPDEST PUSH1 0x0 PUSH2 0xA34 PUSH2 0x99B JUMP JUMPDEST SWAP1 POP PUSH2 0xA40 DUP3 DUP3 PUSH2 0x9F9 JUMP JUMPDEST SWAP2 SWAP1 POP JUMP JUMPDEST PUSH1 0x0 PUSH8 0xFFFFFFFFFFFFFFFF DUP3 GT ISZERO PUSH2 0xA60 JUMPI PUSH2 0xA5F PUSH2 0x9CA JUMP JUMPDEST JUMPDEST PUSH2 0xA69 DUP3 PUSH2 0x9B9 JUMP JUMPDEST SWAP1 POP PUSH1 0x20 DUP2 ADD SWAP1 POP SWAP2 SWAP1 POP JUMP JUMPDEST DUP3 DUP2 DUP4 CALLDATACOPY PUSH1 0x0 DUP4 DUP4 ADD MSTORE POP POP POP JUMP JUMPDEST PUSH1 0x0 PUSH2 0xA98 PUSH2 0xA93 DUP5 PUSH2 0xA45 JUMP JUMPDEST PUSH2 0xA2A JUMP JUMPDEST SWAP1 POP DUP3 DUP2 MSTORE PUSH1 0x20 DUP2 ADD DUP5 DUP5 DUP5 ADD GT ISZERO PUSH2 0xAB4 JUMPI PUSH2 0xAB3 PUSH2 0x9B4 JUMP JUMPDEST JUMPDEST PUSH2 0xABF DUP5 DUP3 DUP6 PUSH2 0xA76 JUMP JUMPDEST POP SWAP4 SWAP3 POP POP POP JUMP JUMPDEST PUSH1 0x0 DUP3 PUSH1 0x1F DUP4 ADD SLT PUSH2 0xADC JUMPI PUSH2 0xADB PUSH2 0x9AF JUMP JUMPDEST JUMPDEST DUP2 CALLDATALOAD PUSH2 0xAEC DUP5 DUP3 PUSH1 0x20 DUP7 ADD PUSH2 0xA85 JUMP JUMPDEST SWAP2 POP POP SWAP3 SWAP2 POP POP JUMP JUMPDEST PUSH1 0x0 PUSH1 0x20 DUP3 DUP5 SUB SLT ISZERO PUSH2 0xB0B JUMPI PUSH2 0xB0A PUSH2 0x9A5 JUMP JUMPDEST JUMPDEST PUSH1 0x0 DUP3 ADD CALLDATALOAD PUSH8 0xFFFFFFFFFFFFFFFF DUP2 GT ISZERO PUSH2 0xB29 JUMPI PUSH2 0xB28 PUSH2 0x9AA JUMP JUMPDEST JUMPDEST PUSH2 0xB35 DUP5 DUP3 DUP6 ADD PUSH2 0xAC7 JUMP JUMPDEST SWAP2 POP POP SWAP3 SWAP2 POP POP JUMP JUMPDEST PUSH1 0x0 DUP2 MLOAD SWAP1 POP SWAP2 SWAP1 POP JUMP JUMPDEST PUSH1 0x0 DUP3 DUP3 MSTORE PUSH1 0x20 DUP3 ADD SWAP1 POP SWAP3 SWAP2 POP POP JUMP JUMPDEST PUSH1 0x0 JUMPDEST DUP4 DUP2 LT ISZERO PUSH2 0xB78 JUMPI DUP1 DUP3 ADD MLOAD DUP2 DUP5 ADD MSTORE PUSH1 0x20 DUP2 ADD SWAP1 POP PUSH2 0xB5D JUMP JUMPDEST DUP4 DUP2 GT ISZERO PUSH2 0xB87 JUMPI PUSH1 0x0 DUP5 DUP5 ADD MSTORE JUMPDEST POP POP POP POP JUMP JUMPDEST PUSH1 0x0 PUSH2 0xB98 DUP3 PUSH2 0xB3E JUMP JUMPDEST PUSH2 0xBA2 DUP2 DUP6 PUSH2 0xB49 JUMP JUMPDEST SWAP4 POP PUSH2 0xBB2 DUP2 DUP6 PUSH1 0x20 DUP7 ADD PUSH2 0xB5A JUMP JUMPDEST PUSH2 0xBBB DUP2 PUSH2 0x9B9 JUMP JUMPDEST DUP5 ADD SWAP2 POP POP SWAP3 SWAP2 POP POP JUMP JUMPDEST PUSH1 0x0 PUSH1 0x20 DUP3 ADD SWAP1 POP DUP2 DUP2 SUB PUSH1 0x0 DUP4 ADD MSTORE PUSH2 0xBE0 DUP2 DUP5 PUSH2 0xB8D JUMP JUMPDEST SWAP1 POP SWAP3 SWAP2 POP POP JUMP JUMPDEST PUSH1 0x0 DUP2 SWAP1 POP SWAP2 SWAP1 POP JUMP JUMPDEST PUSH2 0xBFB DUP2 PUSH2 0xBE8 JUMP JUMPDEST DUP2 EQ PUSH2 0xC06 JUMPI PUSH1 0x0 DUP1 REVERT JUMPDEST POP JUMP JUMPDEST PUSH1 0x0 DUP2 CALLDATALOAD SWAP1 POP PUSH2 0xC18 DUP2 PUSH2 0xBF2 JUMP JUMPDEST SWAP3 SWAP2 POP POP JUMP JUMPDEST PUSH1 0x0 PUSH1 0x20 DUP3 DUP5 SUB SLT ISZERO PUSH2 0xC34 JUMPI PUSH2 0xC33 PUSH2 0x9A5 JUMP JUMPDEST JUMPDEST PUSH1 0x0 PUSH2 0xC42 DUP5 DUP3 DUP6 ADD PUSH2 0xC09 JUMP JUMPDEST SWAP2 POP POP SWAP3 SWAP2 POP POP JUMP JUMPDEST PUSH1 0x0 DUP3 DUP3 MSTORE PUSH1 0x20 DUP3 ADD SWAP1 POP SWAP3 SWAP2 POP POP JUMP JUMPDEST PUSH1 0x0 PUSH2 0xC67 DUP3 PUSH2 0xB3E JUMP JUMPDEST PUSH2 0xC71 DUP2 DUP6 PUSH2 0xC4B JUMP JUMPDEST SWAP4 POP PUSH2 0xC81 DUP2 DUP6 PUSH1 0x20 DUP7 ADD PUSH2 0xB5A JUMP JUMPDEST PUSH2 0xC8A DUP2 PUSH2 0x9B9 JUMP JUMPDEST DUP5 ADD SWAP2 POP POP SWAP3 SWAP2 POP POP JUMP JUMPDEST PUSH1 0x0 DUP2 MLOAD SWAP1 POP SWAP2 SWAP1 POP JUMP JUMPDEST PUSH1 0x0 DUP3 DUP3 MSTORE PUSH1 0x20 DUP3 ADD SWAP1 POP SWAP3 SWAP2 POP POP JUMP JUMPDEST PUSH1 0x0 DUP2 SWAP1 POP PUSH1 0x20 DUP3 ADD SWAP1 POP SWAP2 SWAP1 POP JUMP JUMPDEST PUSH2 0xCCA DUP2 PUSH2 0xBE8 JUMP JUMPDEST DUP3 MSTORE POP POP JUMP JUMPDEST PUSH1 0x0 PUSH1 0x60 DUP4 ADD PUSH1 0x0 DUP4 ADD MLOAD DUP5 DUP3 SUB PUSH1 0x0 DUP7 ADD MSTORE PUSH2 0xCED DUP3 DUP3 PUSH2 0xC5C JUMP JUMPDEST SWAP2 POP POP PUSH1 0x20 DUP4 ADD MLOAD DUP5 DUP3 SUB PUSH1 0x20 DUP7 ADD MSTORE PUSH2 0xD07 DUP3 DUP3 PUSH2 0xC5C JUMP JUMPDEST SWAP2 POP POP PUSH1 0x40 DUP4 ADD MLOAD PUSH2 0xD1C PUSH1 0x40 DUP7 ADD DUP3 PUSH2 0xCC1 JUMP JUMPDEST POP DUP1 SWAP2 POP POP SWAP3 SWAP2 POP POP JUMP JUMPDEST PUSH1 0x0 PUSH2 0xD33 DUP4 DUP4 PUSH2 0xCD0 JUMP JUMPDEST SWAP1 POP SWAP3 SWAP2 POP POP JUMP JUMPDEST PUSH1 0x0 PUSH1 0x20 DUP3 ADD SWAP1 POP SWAP2 SWAP1 POP JUMP JUMPDEST PUSH1 0x0 PUSH2 0xD53 DUP3 PUSH2 0xC95 JUMP JUMPDEST PUSH2 0xD5D DUP2 DUP6 PUSH2 0xCA0 JUMP JUMPDEST SWAP4 POP DUP4 PUSH1 0x20 DUP3 MUL DUP6 ADD PUSH2 0xD6F DUP6 PUSH2 0xCB1 JUMP JUMPDEST DUP1 PUSH1 0x0 JUMPDEST DUP6 DUP2 LT ISZERO PUSH2 0xDAB JUMPI DUP5 DUP5 SUB DUP10 MSTORE DUP2 MLOAD PUSH2 0xD8C DUP6 DUP3 PUSH2 0xD27 JUMP JUMPDEST SWAP5 POP PUSH2 0xD97 DUP4 PUSH2 0xD3B JUMP JUMPDEST SWAP3 POP PUSH1 0x20 DUP11 ADD SWAP10 POP POP PUSH1 0x1 DUP2 ADD SWAP1 POP PUSH2 0xD73 JUMP JUMPDEST POP DUP3 SWAP8 POP DUP8 SWAP6 POP POP POP POP POP POP SWAP3 SWAP2 POP POP JUMP JUMPDEST PUSH1 0x0 PUSH1 0x40 DUP4 ADD PUSH1 0x0 DUP4 ADD MLOAD DUP5 DUP3 SUB PUSH1 0x0 DUP7 ADD MSTORE PUSH2 0xDDA DUP3 DUP3 PUSH2 0xC5C JUMP JUMPDEST SWAP2 POP POP PUSH1 0x20 DUP4 ADD MLOAD DUP5 DUP3 SUB PUSH1 0x20 DUP7 ADD MSTORE PUSH2 0xDF4 DUP3 DUP3 PUSH2 0xD48 JUMP JUMPDEST SWAP2 POP POP DUP1 SWAP2 POP POP SWAP3 SWAP2 POP POP JUMP JUMPDEST PUSH1 0x0 PUSH1 0x20 DUP3 ADD SWAP1 POP DUP2 DUP2 SUB PUSH1 0x0 DUP4 ADD MSTORE PUSH2 0xE1B DUP2 DUP5 PUSH2 0xDBD JUMP JUMPDEST SWAP1 POP SWAP3 SWAP2 POP POP JUMP JUMPDEST PUSH2 0xE2C DUP2 PUSH2 0xBE8 JUMP JUMPDEST DUP3 MSTORE POP POP JUMP JUMPDEST PUSH1 0x0 PUSH1 0x20 DUP3 ADD SWAP1 POP PUSH2 0xE47 PUSH1 0x0 DUP4 ADD DUP5 PUSH2 0xE23 JUMP JUMPDEST SWAP3 SWAP2 POP POP JUMP JUMPDEST PUSH1 0x0 DUP2 MLOAD SWAP1 POP SWAP2 SWAP1 POP JUMP JUMPDEST PUSH1 0x0 DUP3 DUP3 MSTORE PUSH1 0x20 DUP3 ADD SWAP1 POP SWAP3 SWAP2 POP POP JUMP JUMPDEST PUSH1 0x0 DUP2 SWAP1 POP PUSH1 0x20 DUP3 ADD SWAP1 POP SWAP2 SWAP1 POP JUMP JUMPDEST PUSH1 0x0 PUSH2 0xE85 DUP4 DUP4 PUSH2 0xC5C JUMP JUMPDEST SWAP1 POP SWAP3 SWAP2 POP POP JUMP JUMPDEST PUSH1 0x0 PUSH1 0x20 DUP3 ADD SWAP1 POP SWAP2 SWAP1 POP JUMP JUMPDEST PUSH1 0x0 PUSH2 0xEA5 DUP3 PUSH2 0xE4D JUMP JUMPDEST PUSH2 0xEAF DUP2 DUP6 PUSH2 0xE58 JUMP JUMPDEST SWAP4 POP DUP4 PUSH1 0x20 DUP3 MUL DUP6 ADD PUSH2 0xEC1 DUP6 PUSH2 0xE69 JUMP JUMPDEST DUP1 PUSH1 0x0 JUMPDEST DUP6 DUP2 LT ISZERO PUSH2 0xEFD JUMPI DUP5 DUP5 SUB DUP10 MSTORE DUP2 MLOAD PUSH2 0xEDE DUP6 DUP3 PUSH2 0xE79 JUMP JUMPDEST SWAP5 POP PUSH2 0xEE9 DUP4 PUSH2 0xE8D JUMP JUMPDEST SWAP3 POP PUSH1 0x20 DUP11 ADD SWAP10 POP POP PUSH1 0x1 DUP2 ADD SWAP1 POP PUSH2 0xEC5 JUMP JUMPDEST POP DUP3 SWAP8 POP DUP8 SWAP6 POP POP POP POP POP POP SWAP3 SWAP2 POP POP JUMP JUMPDEST PUSH1 0x0 PUSH1 0x20 DUP3 ADD SWAP1 POP DUP2 DUP2 SUB PUSH1 0x0 DUP4 ADD MSTORE PUSH2 0xF29 DUP2 DUP5 PUSH2 0xE9A JUMP JUMPDEST SWAP1 POP SWAP3 SWAP2 POP POP JUMP JUMPDEST PUSH1 0x0 PUSH20 0xFFFFFFFFFFFFFFFFFFFFFFFFFFFFFFFFFFFFFFFF DUP3 AND SWAP1 POP SWAP2 SWAP1 POP JUMP JUMPDEST PUSH1 0x0 PUSH2 0xF5C DUP3 PUSH2 0xF31 JUMP JUMPDEST SWAP1 POP SWAP2 SWAP1 POP JUMP JUMPDEST PUSH2 0xF6C DUP2 PUSH2 0xF51 JUMP JUMPDEST DUP3 MSTORE POP POP JUMP JUMPDEST PUSH1 0x0 PUSH1 0x20 DUP3 ADD SWAP1 POP PUSH2 0xF87 PUSH1 0x0 DUP4 ADD DUP5 PUSH2 0xF63 JUMP JUMPDEST SWAP3 SWAP2 POP POP JUMP JUMPDEST PUSH32 0x4E487B7100000000000000000000000000000000000000000000000000000000 PUSH1 0x0 MSTORE PUSH1 0x22 PUSH1 0x4 MSTORE PUSH1 0x24 PUSH1 0x0 REVERT JUMPDEST PUSH1 0x0 PUSH1 0x2 DUP3 DIV SWAP1 POP PUSH1 0x1 DUP3 AND DUP1 PUSH2 0xFD4 JUMPI PUSH1 0x7F DUP3 AND SWAP2 POP JUMPDEST PUSH1 0x20 DUP3 LT DUP2 SUB PUSH2 0xFE7 JUMPI PUSH2 0xFE6 PUSH2 0xF8D JUMP JUMPDEST JUMPDEST POP SWAP2 SWAP1 POP JUMP JUMPDEST PUSH32 0x4F6E6C792061646D696E2063616E20737461727420612063616D706169676E00 PUSH1 0x0 DUP3 ADD MSTORE POP JUMP JUMPDEST PUSH1 0x0 PUSH2 0x1023 PUSH1 0x1F DUP4 PUSH2 0xB49 JUMP JUMPDEST SWAP2 POP PUSH2 0x102E DUP3 PUSH2 0xFED JUMP JUMPDEST PUSH1 0x20 DUP3 ADD SWAP1 POP SWAP2 SWAP1 POP JUMP JUMPDEST PUSH1 0x0 PUSH1 0x20 DUP3 ADD SWAP1 POP DUP2 DUP2 SUB PUSH1 0x0 DUP4 ADD MSTORE PUSH2 0x1052 DUP2 PUSH2 0x1016 JUMP JUMPDEST SWAP1 POP SWAP2 SWAP1 POP JUMP JUMPDEST PUSH1 0x0 DUP2 SWAP1 POP SWAP3 SWAP2 POP POP JUMP JUMPDEST PUSH1 0x0 PUSH2 0x106F DUP3 PUSH2 0xB3E JUMP JUMPDEST PUSH2 0x1079 DUP2 DUP6 PUSH2 0x1059 JUMP JUMPDEST SWAP4 POP PUSH2 0x1089 DUP2 DUP6 PUSH1 0x20 DUP7 ADD PUSH2 0xB5A JUMP JUMPDEST DUP1 DUP5 ADD SWAP2 POP POP SWAP3 SWAP2 POP POP JUMP JUMPDEST PUSH1 0x0 PUSH2 0x10A1 DUP3 DUP5 PUSH2 0x1064 JUMP JUMPDEST SWAP2 POP DUP2 SWAP1 POP SWAP3 SWAP2 POP POP JUMP JUMPDEST PUSH32 0x4E487B7100000000000000000000000000000000000000000000000000000000 PUSH1 0x0 MSTORE PUSH1 0x11 PUSH1 0x4 MSTORE PUSH1 0x24 PUSH1 0x0 REVERT JUMPDEST PUSH1 0x0 PUSH2 0x10E6 DUP3 PUSH2 0xBE8 JUMP JUMPDEST SWAP2 POP PUSH32 0xFFFFFFFFFFFFFFFFFFFFFFFFFFFFFFFFFFFFFFFFFFFFFFFFFFFFFFFFFFFFFFFF DUP3 SUB PUSH2 0x1118 JUMPI PUSH2 0x1117 PUSH2 0x10AC JUMP JUMPDEST JUMPDEST PUSH1 0x1 DUP3 ADD SWAP1 POP SWAP2 SWAP1 POP JUMP JUMPDEST PUSH32 0x3131323200000000000000000000000000000000000000000000000000000000 PUSH1 0x0 DUP3 ADD MSTORE POP JUMP JUMPDEST PUSH1 0x0 PUSH2 0x1159 PUSH1 0x4 DUP4 PUSH2 0x1059 JUMP JUMPDEST SWAP2 POP PUSH2 0x1164 DUP3 PUSH2 0x1123 JUMP JUMPDEST PUSH1 0x4 DUP3 ADD SWAP1 POP SWAP2 SWAP1 POP JUMP JUMPDEST PUSH1 0x0 PUSH2 0x117A DUP3 PUSH2 0x114C JUMP JUMPDEST SWAP2 POP DUP2 SWAP1 POP SWAP2 SWAP1 POP JUMP JUMPDEST PUSH32 0x4E487B7100000000000000000000000000000000000000000000000000000000 PUSH1 0x0 MSTORE PUSH1 0x32 PUSH1 0x4 MSTORE PUSH1 0x24 PUSH1 0x0 REVERT JUMPDEST PUSH1 0x0 DUP2 SWAP1 POP DUP2 PUSH1 0x0 MSTORE PUSH1 0x20 PUSH1 0x0 KECCAK256 SWAP1 POP SWAP2 SWAP1 POP JUMP JUMPDEST PUSH1 0x0 DUP2 SLOAD PUSH2 0x11D5 DUP2 PUSH2 0xFBC JUMP JUMPDEST PUSH2 0x11DF DUP2 DUP7 PUSH2 0x1059 JUMP JUMPDEST SWAP5 POP PUSH1 0x1 DUP3 AND PUSH1 0x0 DUP2 EQ PUSH2 0x11FA JUMPI PUSH1 0x1 DUP2 EQ PUSH2 0x120B JUMPI PUSH2 0x123E JUMP JUMPDEST PUSH1 0xFF NOT DUP4 AND DUP7 MSTORE DUP2 DUP7 ADD SWAP4 POP PUSH2 0x123E JUMP JUMPDEST PUSH2 0x1214 DUP6 PUSH2 0x11B3 JUMP JUMPDEST PUSH1 0x0 JUMPDEST DUP4 DUP2 LT ISZERO PUSH2 0x1236 JUMPI DUP2 SLOAD DUP2 DUP10 ADD MSTORE PUSH1 0x1 DUP3 ADD SWAP2 POP PUSH1 0x20 DUP2 ADD SWAP1 POP PUSH2 0x1217 JUMP JUMPDEST DUP4 DUP9 ADD SWAP6 POP POP POP JUMPDEST POP POP POP SWAP3 SWAP2 POP POP JUMP JUMPDEST PUSH1 0x0 PUSH2 0x1253 DUP3 DUP5 PUSH2 0x11C8 JUMP JUMPDEST SWAP2 POP DUP2 SWAP1 POP SWAP3 SWAP2 POP POP JUMP INVALID LOG2 PUSH5 0x6970667358 0x22 SLT KECCAK256 0x4C LOG1 ISZERO DELEGATECALL 0x2A DIFFICULTY SSTORE 0xE0 PUSH18 0x9EB35632A7D7630DE2E6F0577EF9C64BFA9C CREATE CALLDATALOAD DUP4 0xAE 0xD8 PUSH5 0x736F6C6343 STOP ADDMOD 0xD STOP CALLER "
				},
				"gasEstimates": {
					"creation": {
						"codeDepositCost": "951200",
						"executionCost": "25254",
						"totalCost": "976454"
					},
					"external": {
						"addCampaign(string)": "infinite",
						"admin()": "2580",
						"campaigns(string)": "infinite",
						"compaignNames(uint256)": "infinite",
						"getAllCampaigns()": "infinite",
						"getAllCompainNames()": "infinite",
						"getNumResult()": "359"
					}
				},
				"methodIdentifiers": {
					"addCampaign(string)": "202e7be4",
					"admin()": "f851a440",
					"campaigns(string)": "1d39e509",
					"compaignNames(uint256)": "6f732627",
					"getAllCampaigns()": "86cdf604",
					"getAllCompainNames()": "c157b6f5",
					"getNumResult()": "bf80f44a"
				}
			},
			"storageLayout": {
				"storage": [
					{
						"astId": 35,
						"contract": "github/fahadashiq/block-chain/smart-contracts/voting.sol:Voting",
						"label": "campaigns",
						"offset": 0,
						"slot": "0",
						"type": "t_mapping(t_string_memory_ptr,t_struct(Campaign)23_storage)"
					},
					{
						"astId": 37,
						"contract": "github/fahadashiq/block-chain/smart-contracts/voting.sol:Voting",
						"label": "numberOfCampaigns",
						"offset": 0,
						"slot": "1",
						"type": "t_uint256"
					},
					{
						"astId": 40,
						"contract": "github/fahadashiq/block-chain/smart-contracts/voting.sol:Voting",
						"label": "compaignNames",
						"offset": 0,
						"slot": "2",
						"type": "t_array(t_string_storage)dyn_storage"
					},
					{
						"astId": 42,
						"contract": "github/fahadashiq/block-chain/smart-contracts/voting.sol:Voting",
						"label": "admin",
						"offset": 0,
						"slot": "3",
						"type": "t_address"
					}
				],
				"types": {
					"t_address": {
						"encoding": "inplace",
						"label": "address",
						"numberOfBytes": "20"
					},
					"t_array(t_string_storage)dyn_storage": {
						"base": "t_string_storage",
						"encoding": "dynamic_array",
						"label": "string[]",
						"numberOfBytes": "32"
					},
					"t_array(t_struct(Candidate)30_storage)dyn_storage": {
						"base": "t_struct(Candidate)30_storage",
						"encoding": "dynamic_array",
						"label": "struct Voting.Candidate[]",
						"numberOfBytes": "32"
					},
					"t_mapping(t_string_memory_ptr,t_struct(Campaign)23_storage)": {
						"encoding": "mapping",
						"key": "t_string_memory_ptr",
						"label": "mapping(string => struct Voting.Campaign)",
						"numberOfBytes": "32",
						"value": "t_struct(Campaign)23_storage"
					},
					"t_string_memory_ptr": {
						"encoding": "bytes",
						"label": "string",
						"numberOfBytes": "32"
					},
					"t_string_storage": {
						"encoding": "bytes",
						"label": "string",
						"numberOfBytes": "32"
					},
					"t_struct(Campaign)23_storage": {
						"encoding": "inplace",
						"label": "struct Voting.Campaign",
						"members": [
							{
								"astId": 18,
								"contract": "github/fahadashiq/block-chain/smart-contracts/voting.sol:Voting",
								"label": "name",
								"offset": 0,
								"slot": "0",
								"type": "t_string_storage"
							},
							{
								"astId": 22,
								"contract": "github/fahadashiq/block-chain/smart-contracts/voting.sol:Voting",
								"label": "candidates",
								"offset": 0,
								"slot": "1",
								"type": "t_array(t_struct(Candidate)30_storage)dyn_storage"
							}
						],
						"numberOfBytes": "64"
					},
					"t_struct(Candidate)30_storage": {
						"encoding": "inplace",
						"label": "struct Voting.Candidate",
						"members": [
							{
								"astId": 25,
								"contract": "github/fahadashiq/block-chain/smart-contracts/voting.sol:Voting",
								"label": "name",
								"offset": 0,
								"slot": "0",
								"type": "t_string_storage"
							},
							{
								"astId": 27,
								"contract": "github/fahadashiq/block-chain/smart-contracts/voting.sol:Voting",
								"label": "sign",
								"offset": 0,
								"slot": "1",
								"type": "t_string_storage"
							},
							{
								"astId": 29,
								"contract": "github/fahadashiq/block-chain/smart-contracts/voting.sol:Voting",
								"label": "votes",
								"offset": 0,
								"slot": "2",
								"type": "t_uint256"
							}
						],
						"numberOfBytes": "96"
					},
					"t_uint256": {
						"encoding": "inplace",
						"label": "uint256",
						"numberOfBytes": "32"
					}
				}
			},
			"userdoc": {
				"kind": "user",
				"methods": {},
				"version": 1
			}
		}
	}
}