{
	"github/fahadashiq/block-chain/smart-contracts/practice.sol": {
		"Trust": {
			"abi": [
				{
					"inputs": [],
					"stateMutability": "nonpayable",
					"type": "constructor"
				},
				{
					"inputs": [
						{
							"internalType": "address",
							"name": "kid",
							"type": "address"
						},
						{
							"internalType": "uint256",
							"name": "timeToMaturity",
							"type": "uint256"
						}
					],
					"name": "addKid",
					"outputs": [],
					"stateMutability": "payable",
					"type": "function"
				},
				{
					"inputs": [],
					"name": "admin",
					"outputs": [
						{
							"internalType": "address",
							"name": "",
							"type": "address"
						}
					],
					"stateMutability": "view",
					"type": "function"
				},
				{
					"inputs": [
						{
							"internalType": "address",
							"name": "",
							"type": "address"
						}
					],
					"name": "amount",
					"outputs": [
						{
							"internalType": "uint256",
							"name": "",
							"type": "uint256"
						}
					],
					"stateMutability": "view",
					"type": "function"
				},
				{
					"inputs": [
						{
							"internalType": "address",
							"name": "",
							"type": "address"
						}
					],
					"name": "maturities",
					"outputs": [
						{
							"internalType": "uint256",
							"name": "",
							"type": "uint256"
						}
					],
					"stateMutability": "view",
					"type": "function"
				},
				{
					"inputs": [
						{
							"internalType": "address",
							"name": "",
							"type": "address"
						}
					],
					"name": "paid",
					"outputs": [
						{
							"internalType": "bool",
							"name": "",
							"type": "bool"
						}
					],
					"stateMutability": "view",
					"type": "function"
				},
				{
					"inputs": [],
					"name": "withdraw",
					"outputs": [],
					"stateMutability": "nonpayable",
					"type": "function"
				}
			],
			"devdoc": {
				"kind": "dev",
				"methods": {},
				"version": 1
			},
			"evm": {
				"assembly": "    /* \"github/fahadashiq/block-chain/smart-contracts/practice.sol\":28:1411  contract Trust {\r... */\n  mstore(0x40, 0x80)\n    /* \"github/fahadashiq/block-chain/smart-contracts/practice.sol\":319:370  constructor() {\r... */\n  callvalue\n  dup1\n  iszero\n  tag_1\n  jumpi\n  0x00\n  dup1\n  revert\ntag_1:\n  pop\n    /* \"github/fahadashiq/block-chain/smart-contracts/practice.sol\":352:362  msg.sender */\n  caller\n    /* \"github/fahadashiq/block-chain/smart-contracts/practice.sol\":344:349  admin */\n  0x03\n  0x00\n    /* \"github/fahadashiq/block-chain/smart-contracts/practice.sol\":344:362  admin = msg.sender */\n  0x0100\n  exp\n  dup2\n  sload\n  dup2\n  0xffffffffffffffffffffffffffffffffffffffff\n  mul\n  not\n  and\n  swap1\n  dup4\n  0xffffffffffffffffffffffffffffffffffffffff\n  and\n  mul\n  or\n  swap1\n  sstore\n  pop\n    /* \"github/fahadashiq/block-chain/smart-contracts/practice.sol\":28:1411  contract Trust {\r... */\n  dataSize(sub_0)\n  dup1\n  dataOffset(sub_0)\n  0x00\n  codecopy\n  0x00\n  return\nstop\n\nsub_0: assembly {\n        /* \"github/fahadashiq/block-chain/smart-contracts/practice.sol\":28:1411  contract Trust {\r... */\n      mstore(0x40, 0x80)\n      jumpi(tag_1, lt(calldatasize, 0x04))\n      shr(0xe0, calldataload(0x00))\n      dup1\n      0x3ccfd60b\n      eq\n      tag_2\n      jumpi\n      dup1\n      0x40990e30\n      eq\n      tag_3\n      jumpi\n      dup1\n      0x6607250b\n      eq\n      tag_4\n      jumpi\n      dup1\n      0xa340cf79\n      eq\n      tag_5\n      jumpi\n      dup1\n      0xb9f0bf66\n      eq\n      tag_6\n      jumpi\n      dup1\n      0xf851a440\n      eq\n      tag_7\n      jumpi\n    tag_1:\n      0x00\n      dup1\n      revert\n        /* \"github/fahadashiq/block-chain/smart-contracts/practice.sol\":687:969  function withdraw() external {\r... */\n    tag_2:\n      callvalue\n      dup1\n      iszero\n      tag_8\n      jumpi\n      0x00\n      dup1\n      revert\n    tag_8:\n      pop\n      tag_9\n      tag_10\n      jump\t// in\n    tag_9:\n      stop\n        /* \"github/fahadashiq/block-chain/smart-contracts/practice.sol\":378:678  function addKid(address kid, uint timeToMaturity) external payable {\r... */\n    tag_3:\n      tag_11\n      0x04\n      dup1\n      calldatasize\n      sub\n      dup2\n      add\n      swap1\n      tag_12\n      swap2\n      swap1\n      tag_13\n      jump\t// in\n    tag_12:\n      tag_14\n      jump\t// in\n    tag_11:\n      stop\n        /* \"github/fahadashiq/block-chain/smart-contracts/practice.sol\":198:240  mapping(address => uint) public maturities */\n    tag_4:\n      callvalue\n      dup1\n      iszero\n      tag_15\n      jumpi\n      0x00\n      dup1\n      revert\n    tag_15:\n      pop\n      tag_16\n      0x04\n      dup1\n      calldatasize\n      sub\n      dup2\n      add\n      swap1\n      tag_17\n      swap2\n      swap1\n      tag_18\n      jump\t// in\n    tag_17:\n      tag_19\n      jump\t// in\n    tag_16:\n      mload(0x40)\n      tag_20\n      swap2\n      swap1\n      tag_21\n      jump\t// in\n    tag_20:\n      mload(0x40)\n      dup1\n      swap2\n      sub\n      swap1\n      return\n        /* \"github/fahadashiq/block-chain/smart-contracts/practice.sol\":247:283  mapping(address => bool) public paid */\n    tag_5:\n      callvalue\n      dup1\n      iszero\n      tag_22\n      jumpi\n      0x00\n      dup1\n      revert\n    tag_22:\n      pop\n      tag_23\n      0x04\n      dup1\n      calldatasize\n      sub\n      dup2\n      add\n      swap1\n      tag_24\n      swap2\n      swap1\n      tag_18\n      jump\t// in\n    tag_24:\n      tag_25\n      jump\t// in\n    tag_23:\n      mload(0x40)\n      tag_26\n      swap2\n      swap1\n      tag_27\n      jump\t// in\n    tag_26:\n      mload(0x40)\n      dup1\n      swap2\n      sub\n      swap1\n      return\n        /* \"github/fahadashiq/block-chain/smart-contracts/practice.sol\":153:191  mapping(address => uint) public amount */\n    tag_6:\n      callvalue\n      dup1\n      iszero\n      tag_28\n      jumpi\n      0x00\n      dup1\n      revert\n    tag_28:\n      pop\n      tag_29\n      0x04\n      dup1\n      calldatasize\n      sub\n      dup2\n      add\n      swap1\n      tag_30\n      swap2\n      swap1\n      tag_18\n      jump\t// in\n    tag_30:\n      tag_31\n      jump\t// in\n    tag_29:\n      mload(0x40)\n      tag_32\n      swap2\n      swap1\n      tag_21\n      jump\t// in\n    tag_32:\n      mload(0x40)\n      dup1\n      swap2\n      sub\n      swap1\n      return\n        /* \"github/fahadashiq/block-chain/smart-contracts/practice.sol\":290:310  address public admin */\n    tag_7:\n      callvalue\n      dup1\n      iszero\n      tag_33\n      jumpi\n      0x00\n      dup1\n      revert\n    tag_33:\n      pop\n      tag_34\n      tag_35\n      jump\t// in\n    tag_34:\n      mload(0x40)\n      tag_36\n      swap2\n      swap1\n      tag_37\n      jump\t// in\n    tag_36:\n      mload(0x40)\n      dup1\n      swap2\n      sub\n      swap1\n      return\n        /* \"github/fahadashiq/block-chain/smart-contracts/practice.sol\":687:969  function withdraw() external {\r... */\n    tag_10:\n        /* \"github/fahadashiq/block-chain/smart-contracts/practice.sol\":754:764  maturities */\n      0x01\n        /* \"github/fahadashiq/block-chain/smart-contracts/practice.sol\":754:776  maturities[msg.sender] */\n      0x00\n        /* \"github/fahadashiq/block-chain/smart-contracts/practice.sol\":765:775  msg.sender */\n      caller\n        /* \"github/fahadashiq/block-chain/smart-contracts/practice.sol\":754:776  maturities[msg.sender] */\n      0xffffffffffffffffffffffffffffffffffffffff\n      and\n      0xffffffffffffffffffffffffffffffffffffffff\n      and\n      dup2\n      mstore\n      0x20\n      add\n      swap1\n      dup2\n      mstore\n      0x20\n      add\n      0x00\n      keccak256\n      sload\n        /* \"github/fahadashiq/block-chain/smart-contracts/practice.sol\":735:750  block.timestamp */\n      timestamp\n        /* \"github/fahadashiq/block-chain/smart-contracts/practice.sol\":735:776  block.timestamp >= maturities[msg.sender] */\n      lt\n      iszero\n        /* \"github/fahadashiq/block-chain/smart-contracts/practice.sol\":727:788  require(block.timestamp >= maturities[msg.sender], 'Grow up') */\n      tag_39\n      jumpi\n      mload(0x40)\n      0x08c379a000000000000000000000000000000000000000000000000000000000\n      dup2\n      mstore\n      0x04\n      add\n      tag_40\n      swap1\n      tag_41\n      jump\t// in\n    tag_40:\n      mload(0x40)\n      dup1\n      swap2\n      sub\n      swap1\n      revert\n    tag_39:\n        /* \"github/fahadashiq/block-chain/smart-contracts/practice.sol\":828:829  0 */\n      0x00\n        /* \"github/fahadashiq/block-chain/smart-contracts/practice.sol\":807:813  amount */\n      dup1\n        /* \"github/fahadashiq/block-chain/smart-contracts/practice.sol\":807:825  amount[msg.sender] */\n      0x00\n        /* \"github/fahadashiq/block-chain/smart-contracts/practice.sol\":814:824  msg.sender */\n      caller\n        /* \"github/fahadashiq/block-chain/smart-contracts/practice.sol\":807:825  amount[msg.sender] */\n      0xffffffffffffffffffffffffffffffffffffffff\n      and\n      0xffffffffffffffffffffffffffffffffffffffff\n      and\n      dup2\n      mstore\n      0x20\n      add\n      swap1\n      dup2\n      mstore\n      0x20\n      add\n      0x00\n      keccak256\n      sload\n        /* \"github/fahadashiq/block-chain/smart-contracts/practice.sol\":807:829  amount[msg.sender] > 0 */\n      gt\n        /* \"github/fahadashiq/block-chain/smart-contracts/practice.sol\":799:841  require(amount[msg.sender] > 0, 'Grow up') */\n      tag_42\n      jumpi\n      mload(0x40)\n      0x08c379a000000000000000000000000000000000000000000000000000000000\n      dup2\n      mstore\n      0x04\n      add\n      tag_43\n      swap1\n      tag_41\n      jump\t// in\n    tag_43:\n      mload(0x40)\n      dup1\n      swap2\n      sub\n      swap1\n      revert\n    tag_42:\n        /* \"github/fahadashiq/block-chain/smart-contracts/practice.sol\":879:884  false */\n      0x00\n        /* \"github/fahadashiq/block-chain/smart-contracts/practice.sol\":860:884  paid[msg.sender]== false */\n      iszero\n      iszero\n        /* \"github/fahadashiq/block-chain/smart-contracts/practice.sol\":860:864  paid */\n      0x02\n        /* \"github/fahadashiq/block-chain/smart-contracts/practice.sol\":860:876  paid[msg.sender] */\n      0x00\n        /* \"github/fahadashiq/block-chain/smart-contracts/practice.sol\":865:875  msg.sender */\n      caller\n        /* \"github/fahadashiq/block-chain/smart-contracts/practice.sol\":860:876  paid[msg.sender] */\n      0xffffffffffffffffffffffffffffffffffffffff\n      and\n      0xffffffffffffffffffffffffffffffffffffffff\n      and\n      dup2\n      mstore\n      0x20\n      add\n      swap1\n      dup2\n      mstore\n      0x20\n      add\n      0x00\n      keccak256\n      0x00\n      swap1\n      sload\n      swap1\n      0x0100\n      exp\n      swap1\n      div\n      0xff\n      and\n        /* \"github/fahadashiq/block-chain/smart-contracts/practice.sol\":860:884  paid[msg.sender]== false */\n      iszero\n      iszero\n      eq\n        /* \"github/fahadashiq/block-chain/smart-contracts/practice.sol\":852:901  require(paid[msg.sender]== false, 'Already paid') */\n      tag_44\n      jumpi\n      mload(0x40)\n      0x08c379a000000000000000000000000000000000000000000000000000000000\n      dup2\n      mstore\n      0x04\n      add\n      tag_45\n      swap1\n      tag_46\n      jump\t// in\n    tag_45:\n      mload(0x40)\n      dup1\n      swap2\n      sub\n      swap1\n      revert\n    tag_44:\n        /* \"github/fahadashiq/block-chain/smart-contracts/practice.sol\":920:930  msg.sender */\n      caller\n        /* \"github/fahadashiq/block-chain/smart-contracts/practice.sol\":912:940  payable(msg.sender).transfer */\n      0xffffffffffffffffffffffffffffffffffffffff\n      and\n        /* \"github/fahadashiq/block-chain/smart-contracts/practice.sol\":912:960  payable(msg.sender).transfer(amount[msg.sender]) */\n      0x08fc\n        /* \"github/fahadashiq/block-chain/smart-contracts/practice.sol\":941:947  amount */\n      0x00\n        /* \"github/fahadashiq/block-chain/smart-contracts/practice.sol\":941:959  amount[msg.sender] */\n      dup1\n        /* \"github/fahadashiq/block-chain/smart-contracts/practice.sol\":948:958  msg.sender */\n      caller\n        /* \"github/fahadashiq/block-chain/smart-contracts/practice.sol\":941:959  amount[msg.sender] */\n      0xffffffffffffffffffffffffffffffffffffffff\n      and\n      0xffffffffffffffffffffffffffffffffffffffff\n      and\n      dup2\n      mstore\n      0x20\n      add\n      swap1\n      dup2\n      mstore\n      0x20\n      add\n      0x00\n      keccak256\n      sload\n        /* \"github/fahadashiq/block-chain/smart-contracts/practice.sol\":912:960  payable(msg.sender).transfer(amount[msg.sender]) */\n      swap1\n      dup2\n      iszero\n      mul\n      swap1\n      mload(0x40)\n      0x00\n      mload(0x40)\n      dup1\n      dup4\n      sub\n      dup2\n      dup6\n      dup9\n      dup9\n      call\n      swap4\n      pop\n      pop\n      pop\n      pop\n      iszero\n      dup1\n      iszero\n      tag_48\n      jumpi\n      returndatasize\n      0x00\n      dup1\n      returndatacopy\n      revert(0x00, returndatasize)\n    tag_48:\n      pop\n        /* \"github/fahadashiq/block-chain/smart-contracts/practice.sol\":687:969  function withdraw() external {\r... */\n      jump\t// out\n        /* \"github/fahadashiq/block-chain/smart-contracts/practice.sol\":378:678  function addKid(address kid, uint timeToMaturity) external payable {\r... */\n    tag_14:\n        /* \"github/fahadashiq/block-chain/smart-contracts/practice.sol\":478:483  admin */\n      0x03\n      0x00\n      swap1\n      sload\n      swap1\n      0x0100\n      exp\n      swap1\n      div\n      0xffffffffffffffffffffffffffffffffffffffff\n      and\n        /* \"github/fahadashiq/block-chain/smart-contracts/practice.sol\":464:483  msg.sender == admin */\n      0xffffffffffffffffffffffffffffffffffffffff\n      and\n        /* \"github/fahadashiq/block-chain/smart-contracts/practice.sol\":464:474  msg.sender */\n      caller\n        /* \"github/fahadashiq/block-chain/smart-contracts/practice.sol\":464:483  msg.sender == admin */\n      0xffffffffffffffffffffffffffffffffffffffff\n      and\n      eq\n        /* \"github/fahadashiq/block-chain/smart-contracts/practice.sol\":456:514  require(msg.sender == admin, 'Only admin can create kids') */\n      tag_50\n      jumpi\n      mload(0x40)\n      0x08c379a000000000000000000000000000000000000000000000000000000000\n      dup2\n      mstore\n      0x04\n      add\n      tag_51\n      swap1\n      tag_52\n      jump\t// in\n    tag_51:\n      mload(0x40)\n      dup1\n      swap2\n      sub\n      swap1\n      revert\n    tag_50:\n        /* \"github/fahadashiq/block-chain/smart-contracts/practice.sol\":548:549  0 */\n      0x00\n        /* \"github/fahadashiq/block-chain/smart-contracts/practice.sol\":533:539  amount */\n      dup1\n        /* \"github/fahadashiq/block-chain/smart-contracts/practice.sol\":533:544  amount[kid] */\n      0x00\n        /* \"github/fahadashiq/block-chain/smart-contracts/practice.sol\":540:543  kid */\n      dup5\n        /* \"github/fahadashiq/block-chain/smart-contracts/practice.sol\":533:544  amount[kid] */\n      0xffffffffffffffffffffffffffffffffffffffff\n      and\n      0xffffffffffffffffffffffffffffffffffffffff\n      and\n      dup2\n      mstore\n      0x20\n      add\n      swap1\n      dup2\n      mstore\n      0x20\n      add\n      0x00\n      keccak256\n      sload\n        /* \"github/fahadashiq/block-chain/smart-contracts/practice.sol\":533:549  amount[kid] == 0 */\n      eq\n        /* \"github/fahadashiq/block-chain/smart-contracts/practice.sol\":525:572  require(amount[kid] == 0, 'Kid already exists') */\n      tag_53\n      jumpi\n      mload(0x40)\n      0x08c379a000000000000000000000000000000000000000000000000000000000\n      dup2\n      mstore\n      0x04\n      add\n      tag_54\n      swap1\n      tag_55\n      jump\t// in\n    tag_54:\n      mload(0x40)\n      dup1\n      swap2\n      sub\n      swap1\n      revert\n    tag_53:\n        /* \"github/fahadashiq/block-chain/smart-contracts/practice.sol\":597:606  msg.value */\n      callvalue\n        /* \"github/fahadashiq/block-chain/smart-contracts/practice.sol\":583:589  amount */\n      0x00\n        /* \"github/fahadashiq/block-chain/smart-contracts/practice.sol\":583:594  amount[kid] */\n      dup1\n        /* \"github/fahadashiq/block-chain/smart-contracts/practice.sol\":590:593  kid */\n      dup5\n        /* \"github/fahadashiq/block-chain/smart-contracts/practice.sol\":583:594  amount[kid] */\n      0xffffffffffffffffffffffffffffffffffffffff\n      and\n      0xffffffffffffffffffffffffffffffffffffffff\n      and\n      dup2\n      mstore\n      0x20\n      add\n      swap1\n      dup2\n      mstore\n      0x20\n      add\n      0x00\n      keccak256\n        /* \"github/fahadashiq/block-chain/smart-contracts/practice.sol\":583:606  amount[kid] = msg.value */\n      dup2\n      swap1\n      sstore\n      pop\n        /* \"github/fahadashiq/block-chain/smart-contracts/practice.sol\":654:668  timeToMaturity */\n      dup1\n        /* \"github/fahadashiq/block-chain/smart-contracts/practice.sol\":635:650  block.timestamp */\n      timestamp\n        /* \"github/fahadashiq/block-chain/smart-contracts/practice.sol\":635:668  block.timestamp +  timeToMaturity */\n      tag_56\n      swap2\n      swap1\n      tag_57\n      jump\t// in\n    tag_56:\n        /* \"github/fahadashiq/block-chain/smart-contracts/practice.sol\":617:627  maturities */\n      0x01\n        /* \"github/fahadashiq/block-chain/smart-contracts/practice.sol\":617:632  maturities[kid] */\n      0x00\n        /* \"github/fahadashiq/block-chain/smart-contracts/practice.sol\":628:631  kid */\n      dup5\n        /* \"github/fahadashiq/block-chain/smart-contracts/practice.sol\":617:632  maturities[kid] */\n      0xffffffffffffffffffffffffffffffffffffffff\n      and\n      0xffffffffffffffffffffffffffffffffffffffff\n      and\n      dup2\n      mstore\n      0x20\n      add\n      swap1\n      dup2\n      mstore\n      0x20\n      add\n      0x00\n      keccak256\n        /* \"github/fahadashiq/block-chain/smart-contracts/practice.sol\":617:668  maturities[kid] = block.timestamp +  timeToMaturity */\n      dup2\n      swap1\n      sstore\n      pop\n        /* \"github/fahadashiq/block-chain/smart-contracts/practice.sol\":378:678  function addKid(address kid, uint timeToMaturity) external payable {\r... */\n      pop\n      pop\n      jump\t// out\n        /* \"github/fahadashiq/block-chain/smart-contracts/practice.sol\":198:240  mapping(address => uint) public maturities */\n    tag_19:\n      mstore(0x20, 0x01)\n      dup1\n      0x00\n      mstore\n      keccak256(0x00, 0x40)\n      0x00\n      swap2\n      pop\n      swap1\n      pop\n      sload\n      dup2\n      jump\t// out\n        /* \"github/fahadashiq/block-chain/smart-contracts/practice.sol\":247:283  mapping(address => bool) public paid */\n    tag_25:\n      mstore(0x20, 0x02)\n      dup1\n      0x00\n      mstore\n      keccak256(0x00, 0x40)\n      0x00\n      swap2\n      pop\n      sload\n      swap1\n      0x0100\n      exp\n      swap1\n      div\n      0xff\n      and\n      dup2\n      jump\t// out\n        /* \"github/fahadashiq/block-chain/smart-contracts/practice.sol\":153:191  mapping(address => uint) public amount */\n    tag_31:\n      mstore(0x20, 0x00)\n      dup1\n      0x00\n      mstore\n      keccak256(0x00, 0x40)\n      0x00\n      swap2\n      pop\n      swap1\n      pop\n      sload\n      dup2\n      jump\t// out\n        /* \"github/fahadashiq/block-chain/smart-contracts/practice.sol\":290:310  address public admin */\n    tag_35:\n      0x03\n      0x00\n      swap1\n      sload\n      swap1\n      0x0100\n      exp\n      swap1\n      div\n      0xffffffffffffffffffffffffffffffffffffffff\n      and\n      dup2\n      jump\t// out\n        /* \"#utility.yul\":7:146   */\n    tag_59:\n        /* \"#utility.yul\":53:58   */\n      0x00\n        /* \"#utility.yul\":91:97   */\n      dup2\n        /* \"#utility.yul\":78:98   */\n      calldataload\n        /* \"#utility.yul\":69:98   */\n      swap1\n      pop\n        /* \"#utility.yul\":107:140   */\n      tag_61\n        /* \"#utility.yul\":134:139   */\n      dup2\n        /* \"#utility.yul\":107:140   */\n      tag_62\n      jump\t// in\n    tag_61:\n        /* \"#utility.yul\":7:146   */\n      swap3\n      swap2\n      pop\n      pop\n      jump\t// out\n        /* \"#utility.yul\":152:291   */\n    tag_63:\n        /* \"#utility.yul\":198:203   */\n      0x00\n        /* \"#utility.yul\":236:242   */\n      dup2\n        /* \"#utility.yul\":223:243   */\n      calldataload\n        /* \"#utility.yul\":214:243   */\n      swap1\n      pop\n        /* \"#utility.yul\":252:285   */\n      tag_65\n        /* \"#utility.yul\":279:284   */\n      dup2\n        /* \"#utility.yul\":252:285   */\n      tag_66\n      jump\t// in\n    tag_65:\n        /* \"#utility.yul\":152:291   */\n      swap3\n      swap2\n      pop\n      pop\n      jump\t// out\n        /* \"#utility.yul\":297:626   */\n    tag_18:\n        /* \"#utility.yul\":356:362   */\n      0x00\n        /* \"#utility.yul\":405:407   */\n      0x20\n        /* \"#utility.yul\":393:402   */\n      dup3\n        /* \"#utility.yul\":384:391   */\n      dup5\n        /* \"#utility.yul\":380:403   */\n      sub\n        /* \"#utility.yul\":376:408   */\n      slt\n        /* \"#utility.yul\":373:492   */\n      iszero\n      tag_68\n      jumpi\n        /* \"#utility.yul\":411:490   */\n      tag_69\n      tag_70\n      jump\t// in\n    tag_69:\n        /* \"#utility.yul\":373:492   */\n    tag_68:\n        /* \"#utility.yul\":531:532   */\n      0x00\n        /* \"#utility.yul\":556:609   */\n      tag_71\n        /* \"#utility.yul\":601:608   */\n      dup5\n        /* \"#utility.yul\":592:598   */\n      dup3\n        /* \"#utility.yul\":581:590   */\n      dup6\n        /* \"#utility.yul\":577:599   */\n      add\n        /* \"#utility.yul\":556:609   */\n      tag_59\n      jump\t// in\n    tag_71:\n        /* \"#utility.yul\":546:609   */\n      swap2\n      pop\n        /* \"#utility.yul\":502:619   */\n      pop\n        /* \"#utility.yul\":297:626   */\n      swap3\n      swap2\n      pop\n      pop\n      jump\t// out\n        /* \"#utility.yul\":632:1106   */\n    tag_13:\n        /* \"#utility.yul\":700:706   */\n      0x00\n        /* \"#utility.yul\":708:714   */\n      dup1\n        /* \"#utility.yul\":757:759   */\n      0x40\n        /* \"#utility.yul\":745:754   */\n      dup4\n        /* \"#utility.yul\":736:743   */\n      dup6\n        /* \"#utility.yul\":732:755   */\n      sub\n        /* \"#utility.yul\":728:760   */\n      slt\n        /* \"#utility.yul\":725:844   */\n      iszero\n      tag_73\n      jumpi\n        /* \"#utility.yul\":763:842   */\n      tag_74\n      tag_70\n      jump\t// in\n    tag_74:\n        /* \"#utility.yul\":725:844   */\n    tag_73:\n        /* \"#utility.yul\":883:884   */\n      0x00\n        /* \"#utility.yul\":908:961   */\n      tag_75\n        /* \"#utility.yul\":953:960   */\n      dup6\n        /* \"#utility.yul\":944:950   */\n      dup3\n        /* \"#utility.yul\":933:942   */\n      dup7\n        /* \"#utility.yul\":929:951   */\n      add\n        /* \"#utility.yul\":908:961   */\n      tag_59\n      jump\t// in\n    tag_75:\n        /* \"#utility.yul\":898:961   */\n      swap3\n      pop\n        /* \"#utility.yul\":854:971   */\n      pop\n        /* \"#utility.yul\":1010:1012   */\n      0x20\n        /* \"#utility.yul\":1036:1089   */\n      tag_76\n        /* \"#utility.yul\":1081:1088   */\n      dup6\n        /* \"#utility.yul\":1072:1078   */\n      dup3\n        /* \"#utility.yul\":1061:1070   */\n      dup7\n        /* \"#utility.yul\":1057:1079   */\n      add\n        /* \"#utility.yul\":1036:1089   */\n      tag_63\n      jump\t// in\n    tag_76:\n        /* \"#utility.yul\":1026:1089   */\n      swap2\n      pop\n        /* \"#utility.yul\":981:1099   */\n      pop\n        /* \"#utility.yul\":632:1106   */\n      swap3\n      pop\n      swap3\n      swap1\n      pop\n      jump\t// out\n        /* \"#utility.yul\":1112:1230   */\n    tag_77:\n        /* \"#utility.yul\":1199:1223   */\n      tag_79\n        /* \"#utility.yul\":1217:1222   */\n      dup2\n        /* \"#utility.yul\":1199:1223   */\n      tag_80\n      jump\t// in\n    tag_79:\n        /* \"#utility.yul\":1194:1197   */\n      dup3\n        /* \"#utility.yul\":1187:1224   */\n      mstore\n        /* \"#utility.yul\":1112:1230   */\n      pop\n      pop\n      jump\t// out\n        /* \"#utility.yul\":1236:1345   */\n    tag_81:\n        /* \"#utility.yul\":1317:1338   */\n      tag_83\n        /* \"#utility.yul\":1332:1337   */\n      dup2\n        /* \"#utility.yul\":1317:1338   */\n      tag_84\n      jump\t// in\n    tag_83:\n        /* \"#utility.yul\":1312:1315   */\n      dup3\n        /* \"#utility.yul\":1305:1339   */\n      mstore\n        /* \"#utility.yul\":1236:1345   */\n      pop\n      pop\n      jump\t// out\n        /* \"#utility.yul\":1351:1717   */\n    tag_85:\n        /* \"#utility.yul\":1493:1496   */\n      0x00\n        /* \"#utility.yul\":1514:1581   */\n      tag_87\n        /* \"#utility.yul\":1578:1580   */\n      0x12\n        /* \"#utility.yul\":1573:1576   */\n      dup4\n        /* \"#utility.yul\":1514:1581   */\n      tag_88\n      jump\t// in\n    tag_87:\n        /* \"#utility.yul\":1507:1581   */\n      swap2\n      pop\n        /* \"#utility.yul\":1590:1683   */\n      tag_89\n        /* \"#utility.yul\":1679:1682   */\n      dup3\n        /* \"#utility.yul\":1590:1683   */\n      tag_90\n      jump\t// in\n    tag_89:\n        /* \"#utility.yul\":1708:1710   */\n      0x20\n        /* \"#utility.yul\":1703:1706   */\n      dup3\n        /* \"#utility.yul\":1699:1711   */\n      add\n        /* \"#utility.yul\":1692:1711   */\n      swap1\n      pop\n        /* \"#utility.yul\":1351:1717   */\n      swap2\n      swap1\n      pop\n      jump\t// out\n        /* \"#utility.yul\":1723:2089   */\n    tag_91:\n        /* \"#utility.yul\":1865:1868   */\n      0x00\n        /* \"#utility.yul\":1886:1953   */\n      tag_93\n        /* \"#utility.yul\":1950:1952   */\n      0x0c\n        /* \"#utility.yul\":1945:1948   */\n      dup4\n        /* \"#utility.yul\":1886:1953   */\n      tag_88\n      jump\t// in\n    tag_93:\n        /* \"#utility.yul\":1879:1953   */\n      swap2\n      pop\n        /* \"#utility.yul\":1962:2055   */\n      tag_94\n        /* \"#utility.yul\":2051:2054   */\n      dup3\n        /* \"#utility.yul\":1962:2055   */\n      tag_95\n      jump\t// in\n    tag_94:\n        /* \"#utility.yul\":2080:2082   */\n      0x20\n        /* \"#utility.yul\":2075:2078   */\n      dup3\n        /* \"#utility.yul\":2071:2083   */\n      add\n        /* \"#utility.yul\":2064:2083   */\n      swap1\n      pop\n        /* \"#utility.yul\":1723:2089   */\n      swap2\n      swap1\n      pop\n      jump\t// out\n        /* \"#utility.yul\":2095:2460   */\n    tag_96:\n        /* \"#utility.yul\":2237:2240   */\n      0x00\n        /* \"#utility.yul\":2258:2324   */\n      tag_98\n        /* \"#utility.yul\":2322:2323   */\n      0x07\n        /* \"#utility.yul\":2317:2320   */\n      dup4\n        /* \"#utility.yul\":2258:2324   */\n      tag_88\n      jump\t// in\n    tag_98:\n        /* \"#utility.yul\":2251:2324   */\n      swap2\n      pop\n        /* \"#utility.yul\":2333:2426   */\n      tag_99\n        /* \"#utility.yul\":2422:2425   */\n      dup3\n        /* \"#utility.yul\":2333:2426   */\n      tag_100\n      jump\t// in\n    tag_99:\n        /* \"#utility.yul\":2451:2453   */\n      0x20\n        /* \"#utility.yul\":2446:2449   */\n      dup3\n        /* \"#utility.yul\":2442:2454   */\n      add\n        /* \"#utility.yul\":2435:2454   */\n      swap1\n      pop\n        /* \"#utility.yul\":2095:2460   */\n      swap2\n      swap1\n      pop\n      jump\t// out\n        /* \"#utility.yul\":2466:2832   */\n    tag_101:\n        /* \"#utility.yul\":2608:2611   */\n      0x00\n        /* \"#utility.yul\":2629:2696   */\n      tag_103\n        /* \"#utility.yul\":2693:2695   */\n      0x1a\n        /* \"#utility.yul\":2688:2691   */\n      dup4\n        /* \"#utility.yul\":2629:2696   */\n      tag_88\n      jump\t// in\n    tag_103:\n        /* \"#utility.yul\":2622:2696   */\n      swap2\n      pop\n        /* \"#utility.yul\":2705:2798   */\n      tag_104\n        /* \"#utility.yul\":2794:2797   */\n      dup3\n        /* \"#utility.yul\":2705:2798   */\n      tag_105\n      jump\t// in\n    tag_104:\n        /* \"#utility.yul\":2823:2825   */\n      0x20\n        /* \"#utility.yul\":2818:2821   */\n      dup3\n        /* \"#utility.yul\":2814:2826   */\n      add\n        /* \"#utility.yul\":2807:2826   */\n      swap1\n      pop\n        /* \"#utility.yul\":2466:2832   */\n      swap2\n      swap1\n      pop\n      jump\t// out\n        /* \"#utility.yul\":2838:2956   */\n    tag_106:\n        /* \"#utility.yul\":2925:2949   */\n      tag_108\n        /* \"#utility.yul\":2943:2948   */\n      dup2\n        /* \"#utility.yul\":2925:2949   */\n      tag_109\n      jump\t// in\n    tag_108:\n        /* \"#utility.yul\":2920:2923   */\n      dup3\n        /* \"#utility.yul\":2913:2950   */\n      mstore\n        /* \"#utility.yul\":2838:2956   */\n      pop\n      pop\n      jump\t// out\n        /* \"#utility.yul\":2962:3184   */\n    tag_37:\n        /* \"#utility.yul\":3055:3059   */\n      0x00\n        /* \"#utility.yul\":3093:3095   */\n      0x20\n        /* \"#utility.yul\":3082:3091   */\n      dup3\n        /* \"#utility.yul\":3078:3096   */\n      add\n        /* \"#utility.yul\":3070:3096   */\n      swap1\n      pop\n        /* \"#utility.yul\":3106:3177   */\n      tag_111\n        /* \"#utility.yul\":3174:3175   */\n      0x00\n        /* \"#utility.yul\":3163:3172   */\n      dup4\n        /* \"#utility.yul\":3159:3176   */\n      add\n        /* \"#utility.yul\":3150:3156   */\n      dup5\n        /* \"#utility.yul\":3106:3177   */\n      tag_77\n      jump\t// in\n    tag_111:\n        /* \"#utility.yul\":2962:3184   */\n      swap3\n      swap2\n      pop\n      pop\n      jump\t// out\n        /* \"#utility.yul\":3190:3400   */\n    tag_27:\n        /* \"#utility.yul\":3277:3281   */\n      0x00\n        /* \"#utility.yul\":3315:3317   */\n      0x20\n        /* \"#utility.yul\":3304:3313   */\n      dup3\n        /* \"#utility.yul\":3300:3318   */\n      add\n        /* \"#utility.yul\":3292:3318   */\n      swap1\n      pop\n        /* \"#utility.yul\":3328:3393   */\n      tag_113\n        /* \"#utility.yul\":3390:3391   */\n      0x00\n        /* \"#utility.yul\":3379:3388   */\n      dup4\n        /* \"#utility.yul\":3375:3392   */\n      add\n        /* \"#utility.yul\":3366:3372   */\n      dup5\n        /* \"#utility.yul\":3328:3393   */\n      tag_81\n      jump\t// in\n    tag_113:\n        /* \"#utility.yul\":3190:3400   */\n      swap3\n      swap2\n      pop\n      pop\n      jump\t// out\n        /* \"#utility.yul\":3406:3825   */\n    tag_55:\n        /* \"#utility.yul\":3572:3576   */\n      0x00\n        /* \"#utility.yul\":3610:3612   */\n      0x20\n        /* \"#utility.yul\":3599:3608   */\n      dup3\n        /* \"#utility.yul\":3595:3613   */\n      add\n        /* \"#utility.yul\":3587:3613   */\n      swap1\n      pop\n        /* \"#utility.yul\":3659:3668   */\n      dup2\n        /* \"#utility.yul\":3653:3657   */\n      dup2\n        /* \"#utility.yul\":3649:3669   */\n      sub\n        /* \"#utility.yul\":3645:3646   */\n      0x00\n        /* \"#utility.yul\":3634:3643   */\n      dup4\n        /* \"#utility.yul\":3630:3647   */\n      add\n        /* \"#utility.yul\":3623:3670   */\n      mstore\n        /* \"#utility.yul\":3687:3818   */\n      tag_115\n        /* \"#utility.yul\":3813:3817   */\n      dup2\n        /* \"#utility.yul\":3687:3818   */\n      tag_85\n      jump\t// in\n    tag_115:\n        /* \"#utility.yul\":3679:3818   */\n      swap1\n      pop\n        /* \"#utility.yul\":3406:3825   */\n      swap2\n      swap1\n      pop\n      jump\t// out\n        /* \"#utility.yul\":3831:4250   */\n    tag_46:\n        /* \"#utility.yul\":3997:4001   */\n      0x00\n        /* \"#utility.yul\":4035:4037   */\n      0x20\n        /* \"#utility.yul\":4024:4033   */\n      dup3\n        /* \"#utility.yul\":4020:4038   */\n      add\n        /* \"#utility.yul\":4012:4038   */\n      swap1\n      pop\n        /* \"#utility.yul\":4084:4093   */\n      dup2\n        /* \"#utility.yul\":4078:4082   */\n      dup2\n        /* \"#utility.yul\":4074:4094   */\n      sub\n        /* \"#utility.yul\":4070:4071   */\n      0x00\n        /* \"#utility.yul\":4059:4068   */\n      dup4\n        /* \"#utility.yul\":4055:4072   */\n      add\n        /* \"#utility.yul\":4048:4095   */\n      mstore\n        /* \"#utility.yul\":4112:4243   */\n      tag_117\n        /* \"#utility.yul\":4238:4242   */\n      dup2\n        /* \"#utility.yul\":4112:4243   */\n      tag_91\n      jump\t// in\n    tag_117:\n        /* \"#utility.yul\":4104:4243   */\n      swap1\n      pop\n        /* \"#utility.yul\":3831:4250   */\n      swap2\n      swap1\n      pop\n      jump\t// out\n        /* \"#utility.yul\":4256:4675   */\n    tag_41:\n        /* \"#utility.yul\":4422:4426   */\n      0x00\n        /* \"#utility.yul\":4460:4462   */\n      0x20\n        /* \"#utility.yul\":4449:4458   */\n      dup3\n        /* \"#utility.yul\":4445:4463   */\n      add\n        /* \"#utility.yul\":4437:4463   */\n      swap1\n      pop\n        /* \"#utility.yul\":4509:4518   */\n      dup2\n        /* \"#utility.yul\":4503:4507   */\n      dup2\n        /* \"#utility.yul\":4499:4519   */\n      sub\n        /* \"#utility.yul\":4495:4496   */\n      0x00\n        /* \"#utility.yul\":4484:4493   */\n      dup4\n        /* \"#utility.yul\":4480:4497   */\n      add\n        /* \"#utility.yul\":4473:4520   */\n      mstore\n        /* \"#utility.yul\":4537:4668   */\n      tag_119\n        /* \"#utility.yul\":4663:4667   */\n      dup2\n        /* \"#utility.yul\":4537:4668   */\n      tag_96\n      jump\t// in\n    tag_119:\n        /* \"#utility.yul\":4529:4668   */\n      swap1\n      pop\n        /* \"#utility.yul\":4256:4675   */\n      swap2\n      swap1\n      pop\n      jump\t// out\n        /* \"#utility.yul\":4681:5100   */\n    tag_52:\n        /* \"#utility.yul\":4847:4851   */\n      0x00\n        /* \"#utility.yul\":4885:4887   */\n      0x20\n        /* \"#utility.yul\":4874:4883   */\n      dup3\n        /* \"#utility.yul\":4870:4888   */\n      add\n        /* \"#utility.yul\":4862:4888   */\n      swap1\n      pop\n        /* \"#utility.yul\":4934:4943   */\n      dup2\n        /* \"#utility.yul\":4928:4932   */\n      dup2\n        /* \"#utility.yul\":4924:4944   */\n      sub\n        /* \"#utility.yul\":4920:4921   */\n      0x00\n        /* \"#utility.yul\":4909:4918   */\n      dup4\n        /* \"#utility.yul\":4905:4922   */\n      add\n        /* \"#utility.yul\":4898:4945   */\n      mstore\n        /* \"#utility.yul\":4962:5093   */\n      tag_121\n        /* \"#utility.yul\":5088:5092   */\n      dup2\n        /* \"#utility.yul\":4962:5093   */\n      tag_101\n      jump\t// in\n    tag_121:\n        /* \"#utility.yul\":4954:5093   */\n      swap1\n      pop\n        /* \"#utility.yul\":4681:5100   */\n      swap2\n      swap1\n      pop\n      jump\t// out\n        /* \"#utility.yul\":5106:5328   */\n    tag_21:\n        /* \"#utility.yul\":5199:5203   */\n      0x00\n        /* \"#utility.yul\":5237:5239   */\n      0x20\n        /* \"#utility.yul\":5226:5235   */\n      dup3\n        /* \"#utility.yul\":5222:5240   */\n      add\n        /* \"#utility.yul\":5214:5240   */\n      swap1\n      pop\n        /* \"#utility.yul\":5250:5321   */\n      tag_123\n        /* \"#utility.yul\":5318:5319   */\n      0x00\n        /* \"#utility.yul\":5307:5316   */\n      dup4\n        /* \"#utility.yul\":5303:5320   */\n      add\n        /* \"#utility.yul\":5294:5300   */\n      dup5\n        /* \"#utility.yul\":5250:5321   */\n      tag_106\n      jump\t// in\n    tag_123:\n        /* \"#utility.yul\":5106:5328   */\n      swap3\n      swap2\n      pop\n      pop\n      jump\t// out\n        /* \"#utility.yul\":5415:5584   */\n    tag_88:\n        /* \"#utility.yul\":5499:5510   */\n      0x00\n        /* \"#utility.yul\":5533:5539   */\n      dup3\n        /* \"#utility.yul\":5528:5531   */\n      dup3\n        /* \"#utility.yul\":5521:5540   */\n      mstore\n        /* \"#utility.yul\":5573:5577   */\n      0x20\n        /* \"#utility.yul\":5568:5571   */\n      dup3\n        /* \"#utility.yul\":5564:5578   */\n      add\n        /* \"#utility.yul\":5549:5578   */\n      swap1\n      pop\n        /* \"#utility.yul\":5415:5584   */\n      swap3\n      swap2\n      pop\n      pop\n      jump\t// out\n        /* \"#utility.yul\":5590:5895   */\n    tag_57:\n        /* \"#utility.yul\":5630:5633   */\n      0x00\n        /* \"#utility.yul\":5649:5669   */\n      tag_128\n        /* \"#utility.yul\":5667:5668   */\n      dup3\n        /* \"#utility.yul\":5649:5669   */\n      tag_109\n      jump\t// in\n    tag_128:\n        /* \"#utility.yul\":5644:5669   */\n      swap2\n      pop\n        /* \"#utility.yul\":5683:5703   */\n      tag_129\n        /* \"#utility.yul\":5701:5702   */\n      dup4\n        /* \"#utility.yul\":5683:5703   */\n      tag_109\n      jump\t// in\n    tag_129:\n        /* \"#utility.yul\":5678:5703   */\n      swap3\n      pop\n        /* \"#utility.yul\":5837:5838   */\n      dup3\n        /* \"#utility.yul\":5769:5835   */\n      0xffffffffffffffffffffffffffffffffffffffffffffffffffffffffffffffff\n        /* \"#utility.yul\":5765:5839   */\n      sub\n        /* \"#utility.yul\":5762:5763   */\n      dup3\n        /* \"#utility.yul\":5759:5840   */\n      gt\n        /* \"#utility.yul\":5756:5863   */\n      iszero\n      tag_130\n      jumpi\n        /* \"#utility.yul\":5843:5861   */\n      tag_131\n      tag_132\n      jump\t// in\n    tag_131:\n        /* \"#utility.yul\":5756:5863   */\n    tag_130:\n        /* \"#utility.yul\":5887:5888   */\n      dup3\n        /* \"#utility.yul\":5884:5885   */\n      dup3\n        /* \"#utility.yul\":5880:5889   */\n      add\n        /* \"#utility.yul\":5873:5889   */\n      swap1\n      pop\n        /* \"#utility.yul\":5590:5895   */\n      swap3\n      swap2\n      pop\n      pop\n      jump\t// out\n        /* \"#utility.yul\":5901:5997   */\n    tag_80:\n        /* \"#utility.yul\":5938:5945   */\n      0x00\n        /* \"#utility.yul\":5967:5991   */\n      tag_134\n        /* \"#utility.yul\":5985:5990   */\n      dup3\n        /* \"#utility.yul\":5967:5991   */\n      tag_135\n      jump\t// in\n    tag_134:\n        /* \"#utility.yul\":5956:5991   */\n      swap1\n      pop\n        /* \"#utility.yul\":5901:5997   */\n      swap2\n      swap1\n      pop\n      jump\t// out\n        /* \"#utility.yul\":6003:6093   */\n    tag_84:\n        /* \"#utility.yul\":6037:6044   */\n      0x00\n        /* \"#utility.yul\":6080:6085   */\n      dup2\n        /* \"#utility.yul\":6073:6086   */\n      iszero\n        /* \"#utility.yul\":6066:6087   */\n      iszero\n        /* \"#utility.yul\":6055:6087   */\n      swap1\n      pop\n        /* \"#utility.yul\":6003:6093   */\n      swap2\n      swap1\n      pop\n      jump\t// out\n        /* \"#utility.yul\":6099:6225   */\n    tag_135:\n        /* \"#utility.yul\":6136:6143   */\n      0x00\n        /* \"#utility.yul\":6176:6218   */\n      0xffffffffffffffffffffffffffffffffffffffff\n        /* \"#utility.yul\":6169:6174   */\n      dup3\n        /* \"#utility.yul\":6165:6219   */\n      and\n        /* \"#utility.yul\":6154:6219   */\n      swap1\n      pop\n        /* \"#utility.yul\":6099:6225   */\n      swap2\n      swap1\n      pop\n      jump\t// out\n        /* \"#utility.yul\":6231:6308   */\n    tag_109:\n        /* \"#utility.yul\":6268:6275   */\n      0x00\n        /* \"#utility.yul\":6297:6302   */\n      dup2\n        /* \"#utility.yul\":6286:6302   */\n      swap1\n      pop\n        /* \"#utility.yul\":6231:6308   */\n      swap2\n      swap1\n      pop\n      jump\t// out\n        /* \"#utility.yul\":6314:6494   */\n    tag_132:\n        /* \"#utility.yul\":6362:6439   */\n      0x4e487b7100000000000000000000000000000000000000000000000000000000\n        /* \"#utility.yul\":6359:6360   */\n      0x00\n        /* \"#utility.yul\":6352:6440   */\n      mstore\n        /* \"#utility.yul\":6459:6463   */\n      0x11\n        /* \"#utility.yul\":6456:6457   */\n      0x04\n        /* \"#utility.yul\":6449:6464   */\n      mstore\n        /* \"#utility.yul\":6483:6487   */\n      0x24\n        /* \"#utility.yul\":6480:6481   */\n      0x00\n        /* \"#utility.yul\":6473:6488   */\n      revert\n        /* \"#utility.yul\":6623:6740   */\n    tag_70:\n        /* \"#utility.yul\":6732:6733   */\n      0x00\n        /* \"#utility.yul\":6729:6730   */\n      dup1\n        /* \"#utility.yul\":6722:6734   */\n      revert\n        /* \"#utility.yul\":6746:6914   */\n    tag_90:\n        /* \"#utility.yul\":6886:6906   */\n      0x4b696420616c7265616479206578697374730000000000000000000000000000\n        /* \"#utility.yul\":6882:6883   */\n      0x00\n        /* \"#utility.yul\":6874:6880   */\n      dup3\n        /* \"#utility.yul\":6870:6884   */\n      add\n        /* \"#utility.yul\":6863:6907   */\n      mstore\n        /* \"#utility.yul\":6746:6914   */\n      pop\n      jump\t// out\n        /* \"#utility.yul\":6920:7082   */\n    tag_95:\n        /* \"#utility.yul\":7060:7074   */\n      0x416c726561647920706169640000000000000000000000000000000000000000\n        /* \"#utility.yul\":7056:7057   */\n      0x00\n        /* \"#utility.yul\":7048:7054   */\n      dup3\n        /* \"#utility.yul\":7044:7058   */\n      add\n        /* \"#utility.yul\":7037:7075   */\n      mstore\n        /* \"#utility.yul\":6920:7082   */\n      pop\n      jump\t// out\n        /* \"#utility.yul\":7088:7245   */\n    tag_100:\n        /* \"#utility.yul\":7228:7237   */\n      0x47726f7720757000000000000000000000000000000000000000000000000000\n        /* \"#utility.yul\":7224:7225   */\n      0x00\n        /* \"#utility.yul\":7216:7222   */\n      dup3\n        /* \"#utility.yul\":7212:7226   */\n      add\n        /* \"#utility.yul\":7205:7238   */\n      mstore\n        /* \"#utility.yul\":7088:7245   */\n      pop\n      jump\t// out\n        /* \"#utility.yul\":7251:7427   */\n    tag_105:\n        /* \"#utility.yul\":7391:7419   */\n      0x4f6e6c792061646d696e2063616e20637265617465206b696473000000000000\n        /* \"#utility.yul\":7387:7388   */\n      0x00\n        /* \"#utility.yul\":7379:7385   */\n      dup3\n        /* \"#utility.yul\":7375:7389   */\n      add\n        /* \"#utility.yul\":7368:7420   */\n      mstore\n        /* \"#utility.yul\":7251:7427   */\n      pop\n      jump\t// out\n        /* \"#utility.yul\":7433:7555   */\n    tag_62:\n        /* \"#utility.yul\":7506:7530   */\n      tag_148\n        /* \"#utility.yul\":7524:7529   */\n      dup2\n        /* \"#utility.yul\":7506:7530   */\n      tag_80\n      jump\t// in\n    tag_148:\n        /* \"#utility.yul\":7499:7504   */\n      dup2\n        /* \"#utility.yul\":7496:7531   */\n      eq\n        /* \"#utility.yul\":7486:7549   */\n      tag_149\n      jumpi\n        /* \"#utility.yul\":7545:7546   */\n      0x00\n        /* \"#utility.yul\":7542:7543   */\n      dup1\n        /* \"#utility.yul\":7535:7547   */\n      revert\n        /* \"#utility.yul\":7486:7549   */\n    tag_149:\n        /* \"#utility.yul\":7433:7555   */\n      pop\n      jump\t// out\n        /* \"#utility.yul\":7561:7683   */\n    tag_66:\n        /* \"#utility.yul\":7634:7658   */\n      tag_151\n        /* \"#utility.yul\":7652:7657   */\n      dup2\n        /* \"#utility.yul\":7634:7658   */\n      tag_109\n      jump\t// in\n    tag_151:\n        /* \"#utility.yul\":7627:7632   */\n      dup2\n        /* \"#utility.yul\":7624:7659   */\n      eq\n        /* \"#utility.yul\":7614:7677   */\n      tag_152\n      jumpi\n        /* \"#utility.yul\":7673:7674   */\n      0x00\n        /* \"#utility.yul\":7670:7671   */\n      dup1\n        /* \"#utility.yul\":7663:7675   */\n      revert\n        /* \"#utility.yul\":7614:7677   */\n    tag_152:\n        /* \"#utility.yul\":7561:7683   */\n      pop\n      jump\t// out\n\n    auxdata: 0xa26469706673582212208b4d7ac0f56cb899415e7937bc471363f1b92df7e774d6f716256056b09dce4064736f6c63430008070033\n}\n",
				"bytecode": {
					"linkReferences": {},
					"object": "608060405234801561001057600080fd5b5033600360006101000a81548173ffffffffffffffffffffffffffffffffffffffff021916908373ffffffffffffffffffffffffffffffffffffffff1602179055506109b5806100616000396000f3fe6080604052600436106100555760003560e01c80633ccfd60b1461005a57806340990e30146100715780636607250b1461008d578063a340cf79146100ca578063b9f0bf6614610107578063f851a44014610144575b600080fd5b34801561006657600080fd5b5061006f61016f565b005b61008b60048036038101906100869190610600565b61038c565b005b34801561009957600080fd5b506100b460048036038101906100af91906105d3565b610533565b6040516100c191906107af565b60405180910390f35b3480156100d657600080fd5b506100f160048036038101906100ec91906105d3565b61054b565b6040516100fe9190610714565b60405180910390f35b34801561011357600080fd5b5061012e600480360381019061012991906105d3565b61056b565b60405161013b91906107af565b60405180910390f35b34801561015057600080fd5b50610159610583565b60405161016691906106f9565b60405180910390f35b600160003373ffffffffffffffffffffffffffffffffffffffff1673ffffffffffffffffffffffffffffffffffffffff168152602001908152602001600020544210156101f1576040517f08c379a00000000000000000000000000000000000000000000000000000000081526004016101e89061076f565b60405180910390fd5b60008060003373ffffffffffffffffffffffffffffffffffffffff1673ffffffffffffffffffffffffffffffffffffffff1681526020019081526020016000205411610272576040517f08c379a00000000000000000000000000000000000000000000000000000000081526004016102699061076f565b60405180910390fd5b60001515600260003373ffffffffffffffffffffffffffffffffffffffff1673ffffffffffffffffffffffffffffffffffffffff16815260200190815260200160002060009054906101000a900460ff16151514610305576040517f08c379a00000000000000000000000000000000000000000000000000000000081526004016102fc9061074f565b60405180910390fd5b3373ffffffffffffffffffffffffffffffffffffffff166108fc6000803373ffffffffffffffffffffffffffffffffffffffff1673ffffffffffffffffffffffffffffffffffffffff168152602001908152602001600020549081150290604051600060405180830381858888f19350505050158015610389573d6000803e3d6000fd5b50565b600360009054906101000a900473ffffffffffffffffffffffffffffffffffffffff1673ffffffffffffffffffffffffffffffffffffffff163373ffffffffffffffffffffffffffffffffffffffff161461041c576040517f08c379a00000000000000000000000000000000000000000000000000000000081526004016104139061078f565b60405180910390fd5b60008060008473ffffffffffffffffffffffffffffffffffffffff1673ffffffffffffffffffffffffffffffffffffffff168152602001908152602001600020541461049d576040517f08c379a00000000000000000000000000000000000000000000000000000000081526004016104949061072f565b60405180910390fd5b346000808473ffffffffffffffffffffffffffffffffffffffff1673ffffffffffffffffffffffffffffffffffffffff1681526020019081526020016000208190555080426104ec91906107db565b600160008473ffffffffffffffffffffffffffffffffffffffff1673ffffffffffffffffffffffffffffffffffffffff168152602001908152602001600020819055505050565b60016020528060005260406000206000915090505481565b60026020528060005260406000206000915054906101000a900460ff1681565b60006020528060005260406000206000915090505481565b600360009054906101000a900473ffffffffffffffffffffffffffffffffffffffff1681565b6000813590506105b881610951565b92915050565b6000813590506105cd81610968565b92915050565b6000602082840312156105e9576105e86108a8565b5b60006105f7848285016105a9565b91505092915050565b60008060408385031215610617576106166108a8565b5b6000610625858286016105a9565b9250506020610636858286016105be565b9150509250929050565b61064981610831565b82525050565b61065881610843565b82525050565b600061066b6012836107ca565b9150610676826108ad565b602082019050919050565b600061068e600c836107ca565b9150610699826108d6565b602082019050919050565b60006106b16007836107ca565b91506106bc826108ff565b602082019050919050565b60006106d4601a836107ca565b91506106df82610928565b602082019050919050565b6106f38161086f565b82525050565b600060208201905061070e6000830184610640565b92915050565b6000602082019050610729600083018461064f565b92915050565b600060208201905081810360008301526107488161065e565b9050919050565b6000602082019050818103600083015261076881610681565b9050919050565b60006020820190508181036000830152610788816106a4565b9050919050565b600060208201905081810360008301526107a8816106c7565b9050919050565b60006020820190506107c460008301846106ea565b92915050565b600082825260208201905092915050565b60006107e68261086f565b91506107f18361086f565b9250827fffffffffffffffffffffffffffffffffffffffffffffffffffffffffffffffff0382111561082657610825610879565b5b828201905092915050565b600061083c8261084f565b9050919050565b60008115159050919050565b600073ffffffffffffffffffffffffffffffffffffffff82169050919050565b6000819050919050565b7f4e487b7100000000000000000000000000000000000000000000000000000000600052601160045260246000fd5b600080fd5b7f4b696420616c7265616479206578697374730000000000000000000000000000600082015250565b7f416c726561647920706169640000000000000000000000000000000000000000600082015250565b7f47726f7720757000000000000000000000000000000000000000000000000000600082015250565b7f4f6e6c792061646d696e2063616e20637265617465206b696473000000000000600082015250565b61095a81610831565b811461096557600080fd5b50565b6109718161086f565b811461097c57600080fd5b5056fea26469706673582212208b4d7ac0f56cb899415e7937bc471363f1b92df7e774d6f716256056b09dce4064736f6c63430008070033",
					"opcodes": "PUSH1 0x80 PUSH1 0x40 MSTORE CALLVALUE DUP1 ISZERO PUSH2 0x10 JUMPI PUSH1 0x0 DUP1 REVERT JUMPDEST POP CALLER PUSH1 0x3 PUSH1 0x0 PUSH2 0x100 EXP DUP2 SLOAD DUP2 PUSH20 0xFFFFFFFFFFFFFFFFFFFFFFFFFFFFFFFFFFFFFFFF MUL NOT AND SWAP1 DUP4 PUSH20 0xFFFFFFFFFFFFFFFFFFFFFFFFFFFFFFFFFFFFFFFF AND MUL OR SWAP1 SSTORE POP PUSH2 0x9B5 DUP1 PUSH2 0x61 PUSH1 0x0 CODECOPY PUSH1 0x0 RETURN INVALID PUSH1 0x80 PUSH1 0x40 MSTORE PUSH1 0x4 CALLDATASIZE LT PUSH2 0x55 JUMPI PUSH1 0x0 CALLDATALOAD PUSH1 0xE0 SHR DUP1 PUSH4 0x3CCFD60B EQ PUSH2 0x5A JUMPI DUP1 PUSH4 0x40990E30 EQ PUSH2 0x71 JUMPI DUP1 PUSH4 0x6607250B EQ PUSH2 0x8D JUMPI DUP1 PUSH4 0xA340CF79 EQ PUSH2 0xCA JUMPI DUP1 PUSH4 0xB9F0BF66 EQ PUSH2 0x107 JUMPI DUP1 PUSH4 0xF851A440 EQ PUSH2 0x144 JUMPI JUMPDEST PUSH1 0x0 DUP1 REVERT JUMPDEST CALLVALUE DUP1 ISZERO PUSH2 0x66 JUMPI PUSH1 0x0 DUP1 REVERT JUMPDEST POP PUSH2 0x6F PUSH2 0x16F JUMP JUMPDEST STOP JUMPDEST PUSH2 0x8B PUSH1 0x4 DUP1 CALLDATASIZE SUB DUP2 ADD SWAP1 PUSH2 0x86 SWAP2 SWAP1 PUSH2 0x600 JUMP JUMPDEST PUSH2 0x38C JUMP JUMPDEST STOP JUMPDEST CALLVALUE DUP1 ISZERO PUSH2 0x99 JUMPI PUSH1 0x0 DUP1 REVERT JUMPDEST POP PUSH2 0xB4 PUSH1 0x4 DUP1 CALLDATASIZE SUB DUP2 ADD SWAP1 PUSH2 0xAF SWAP2 SWAP1 PUSH2 0x5D3 JUMP JUMPDEST PUSH2 0x533 JUMP JUMPDEST PUSH1 0x40 MLOAD PUSH2 0xC1 SWAP2 SWAP1 PUSH2 0x7AF JUMP JUMPDEST PUSH1 0x40 MLOAD DUP1 SWAP2 SUB SWAP1 RETURN JUMPDEST CALLVALUE DUP1 ISZERO PUSH2 0xD6 JUMPI PUSH1 0x0 DUP1 REVERT JUMPDEST POP PUSH2 0xF1 PUSH1 0x4 DUP1 CALLDATASIZE SUB DUP2 ADD SWAP1 PUSH2 0xEC SWAP2 SWAP1 PUSH2 0x5D3 JUMP JUMPDEST PUSH2 0x54B JUMP JUMPDEST PUSH1 0x40 MLOAD PUSH2 0xFE SWAP2 SWAP1 PUSH2 0x714 JUMP JUMPDEST PUSH1 0x40 MLOAD DUP1 SWAP2 SUB SWAP1 RETURN JUMPDEST CALLVALUE DUP1 ISZERO PUSH2 0x113 JUMPI PUSH1 0x0 DUP1 REVERT JUMPDEST POP PUSH2 0x12E PUSH1 0x4 DUP1 CALLDATASIZE SUB DUP2 ADD SWAP1 PUSH2 0x129 SWAP2 SWAP1 PUSH2 0x5D3 JUMP JUMPDEST PUSH2 0x56B JUMP JUMPDEST PUSH1 0x40 MLOAD PUSH2 0x13B SWAP2 SWAP1 PUSH2 0x7AF JUMP JUMPDEST PUSH1 0x40 MLOAD DUP1 SWAP2 SUB SWAP1 RETURN JUMPDEST CALLVALUE DUP1 ISZERO PUSH2 0x150 JUMPI PUSH1 0x0 DUP1 REVERT JUMPDEST POP PUSH2 0x159 PUSH2 0x583 JUMP JUMPDEST PUSH1 0x40 MLOAD PUSH2 0x166 SWAP2 SWAP1 PUSH2 0x6F9 JUMP JUMPDEST PUSH1 0x40 MLOAD DUP1 SWAP2 SUB SWAP1 RETURN JUMPDEST PUSH1 0x1 PUSH1 0x0 CALLER PUSH20 0xFFFFFFFFFFFFFFFFFFFFFFFFFFFFFFFFFFFFFFFF AND PUSH20 0xFFFFFFFFFFFFFFFFFFFFFFFFFFFFFFFFFFFFFFFF AND DUP2 MSTORE PUSH1 0x20 ADD SWAP1 DUP2 MSTORE PUSH1 0x20 ADD PUSH1 0x0 KECCAK256 SLOAD TIMESTAMP LT ISZERO PUSH2 0x1F1 JUMPI PUSH1 0x40 MLOAD PUSH32 0x8C379A000000000000000000000000000000000000000000000000000000000 DUP2 MSTORE PUSH1 0x4 ADD PUSH2 0x1E8 SWAP1 PUSH2 0x76F JUMP JUMPDEST PUSH1 0x40 MLOAD DUP1 SWAP2 SUB SWAP1 REVERT JUMPDEST PUSH1 0x0 DUP1 PUSH1 0x0 CALLER PUSH20 0xFFFFFFFFFFFFFFFFFFFFFFFFFFFFFFFFFFFFFFFF AND PUSH20 0xFFFFFFFFFFFFFFFFFFFFFFFFFFFFFFFFFFFFFFFF AND DUP2 MSTORE PUSH1 0x20 ADD SWAP1 DUP2 MSTORE PUSH1 0x20 ADD PUSH1 0x0 KECCAK256 SLOAD GT PUSH2 0x272 JUMPI PUSH1 0x40 MLOAD PUSH32 0x8C379A000000000000000000000000000000000000000000000000000000000 DUP2 MSTORE PUSH1 0x4 ADD PUSH2 0x269 SWAP1 PUSH2 0x76F JUMP JUMPDEST PUSH1 0x40 MLOAD DUP1 SWAP2 SUB SWAP1 REVERT JUMPDEST PUSH1 0x0 ISZERO ISZERO PUSH1 0x2 PUSH1 0x0 CALLER PUSH20 0xFFFFFFFFFFFFFFFFFFFFFFFFFFFFFFFFFFFFFFFF AND PUSH20 0xFFFFFFFFFFFFFFFFFFFFFFFFFFFFFFFFFFFFFFFF AND DUP2 MSTORE PUSH1 0x20 ADD SWAP1 DUP2 MSTORE PUSH1 0x20 ADD PUSH1 0x0 KECCAK256 PUSH1 0x0 SWAP1 SLOAD SWAP1 PUSH2 0x100 EXP SWAP1 DIV PUSH1 0xFF AND ISZERO ISZERO EQ PUSH2 0x305 JUMPI PUSH1 0x40 MLOAD PUSH32 0x8C379A000000000000000000000000000000000000000000000000000000000 DUP2 MSTORE PUSH1 0x4 ADD PUSH2 0x2FC SWAP1 PUSH2 0x74F JUMP JUMPDEST PUSH1 0x40 MLOAD DUP1 SWAP2 SUB SWAP1 REVERT JUMPDEST CALLER PUSH20 0xFFFFFFFFFFFFFFFFFFFFFFFFFFFFFFFFFFFFFFFF AND PUSH2 0x8FC PUSH1 0x0 DUP1 CALLER PUSH20 0xFFFFFFFFFFFFFFFFFFFFFFFFFFFFFFFFFFFFFFFF AND PUSH20 0xFFFFFFFFFFFFFFFFFFFFFFFFFFFFFFFFFFFFFFFF AND DUP2 MSTORE PUSH1 0x20 ADD SWAP1 DUP2 MSTORE PUSH1 0x20 ADD PUSH1 0x0 KECCAK256 SLOAD SWAP1 DUP2 ISZERO MUL SWAP1 PUSH1 0x40 MLOAD PUSH1 0x0 PUSH1 0x40 MLOAD DUP1 DUP4 SUB DUP2 DUP6 DUP9 DUP9 CALL SWAP4 POP POP POP POP ISZERO DUP1 ISZERO PUSH2 0x389 JUMPI RETURNDATASIZE PUSH1 0x0 DUP1 RETURNDATACOPY RETURNDATASIZE PUSH1 0x0 REVERT JUMPDEST POP JUMP JUMPDEST PUSH1 0x3 PUSH1 0x0 SWAP1 SLOAD SWAP1 PUSH2 0x100 EXP SWAP1 DIV PUSH20 0xFFFFFFFFFFFFFFFFFFFFFFFFFFFFFFFFFFFFFFFF AND PUSH20 0xFFFFFFFFFFFFFFFFFFFFFFFFFFFFFFFFFFFFFFFF AND CALLER PUSH20 0xFFFFFFFFFFFFFFFFFFFFFFFFFFFFFFFFFFFFFFFF AND EQ PUSH2 0x41C JUMPI PUSH1 0x40 MLOAD PUSH32 0x8C379A000000000000000000000000000000000000000000000000000000000 DUP2 MSTORE PUSH1 0x4 ADD PUSH2 0x413 SWAP1 PUSH2 0x78F JUMP JUMPDEST PUSH1 0x40 MLOAD DUP1 SWAP2 SUB SWAP1 REVERT JUMPDEST PUSH1 0x0 DUP1 PUSH1 0x0 DUP5 PUSH20 0xFFFFFFFFFFFFFFFFFFFFFFFFFFFFFFFFFFFFFFFF AND PUSH20 0xFFFFFFFFFFFFFFFFFFFFFFFFFFFFFFFFFFFFFFFF AND DUP2 MSTORE PUSH1 0x20 ADD SWAP1 DUP2 MSTORE PUSH1 0x20 ADD PUSH1 0x0 KECCAK256 SLOAD EQ PUSH2 0x49D JUMPI PUSH1 0x40 MLOAD PUSH32 0x8C379A000000000000000000000000000000000000000000000000000000000 DUP2 MSTORE PUSH1 0x4 ADD PUSH2 0x494 SWAP1 PUSH2 0x72F JUMP JUMPDEST PUSH1 0x40 MLOAD DUP1 SWAP2 SUB SWAP1 REVERT JUMPDEST CALLVALUE PUSH1 0x0 DUP1 DUP5 PUSH20 0xFFFFFFFFFFFFFFFFFFFFFFFFFFFFFFFFFFFFFFFF AND PUSH20 0xFFFFFFFFFFFFFFFFFFFFFFFFFFFFFFFFFFFFFFFF AND DUP2 MSTORE PUSH1 0x20 ADD SWAP1 DUP2 MSTORE PUSH1 0x20 ADD PUSH1 0x0 KECCAK256 DUP2 SWAP1 SSTORE POP DUP1 TIMESTAMP PUSH2 0x4EC SWAP2 SWAP1 PUSH2 0x7DB JUMP JUMPDEST PUSH1 0x1 PUSH1 0x0 DUP5 PUSH20 0xFFFFFFFFFFFFFFFFFFFFFFFFFFFFFFFFFFFFFFFF AND PUSH20 0xFFFFFFFFFFFFFFFFFFFFFFFFFFFFFFFFFFFFFFFF AND DUP2 MSTORE PUSH1 0x20 ADD SWAP1 DUP2 MSTORE PUSH1 0x20 ADD PUSH1 0x0 KECCAK256 DUP2 SWAP1 SSTORE POP POP POP JUMP JUMPDEST PUSH1 0x1 PUSH1 0x20 MSTORE DUP1 PUSH1 0x0 MSTORE PUSH1 0x40 PUSH1 0x0 KECCAK256 PUSH1 0x0 SWAP2 POP SWAP1 POP SLOAD DUP2 JUMP JUMPDEST PUSH1 0x2 PUSH1 0x20 MSTORE DUP1 PUSH1 0x0 MSTORE PUSH1 0x40 PUSH1 0x0 KECCAK256 PUSH1 0x0 SWAP2 POP SLOAD SWAP1 PUSH2 0x100 EXP SWAP1 DIV PUSH1 0xFF AND DUP2 JUMP JUMPDEST PUSH1 0x0 PUSH1 0x20 MSTORE DUP1 PUSH1 0x0 MSTORE PUSH1 0x40 PUSH1 0x0 KECCAK256 PUSH1 0x0 SWAP2 POP SWAP1 POP SLOAD DUP2 JUMP JUMPDEST PUSH1 0x3 PUSH1 0x0 SWAP1 SLOAD SWAP1 PUSH2 0x100 EXP SWAP1 DIV PUSH20 0xFFFFFFFFFFFFFFFFFFFFFFFFFFFFFFFFFFFFFFFF AND DUP2 JUMP JUMPDEST PUSH1 0x0 DUP2 CALLDATALOAD SWAP1 POP PUSH2 0x5B8 DUP2 PUSH2 0x951 JUMP JUMPDEST SWAP3 SWAP2 POP POP JUMP JUMPDEST PUSH1 0x0 DUP2 CALLDATALOAD SWAP1 POP PUSH2 0x5CD DUP2 PUSH2 0x968 JUMP JUMPDEST SWAP3 SWAP2 POP POP JUMP JUMPDEST PUSH1 0x0 PUSH1 0x20 DUP3 DUP5 SUB SLT ISZERO PUSH2 0x5E9 JUMPI PUSH2 0x5E8 PUSH2 0x8A8 JUMP JUMPDEST JUMPDEST PUSH1 0x0 PUSH2 0x5F7 DUP5 DUP3 DUP6 ADD PUSH2 0x5A9 JUMP JUMPDEST SWAP2 POP POP SWAP3 SWAP2 POP POP JUMP JUMPDEST PUSH1 0x0 DUP1 PUSH1 0x40 DUP4 DUP6 SUB SLT ISZERO PUSH2 0x617 JUMPI PUSH2 0x616 PUSH2 0x8A8 JUMP JUMPDEST JUMPDEST PUSH1 0x0 PUSH2 0x625 DUP6 DUP3 DUP7 ADD PUSH2 0x5A9 JUMP JUMPDEST SWAP3 POP POP PUSH1 0x20 PUSH2 0x636 DUP6 DUP3 DUP7 ADD PUSH2 0x5BE JUMP JUMPDEST SWAP2 POP POP SWAP3 POP SWAP3 SWAP1 POP JUMP JUMPDEST PUSH2 0x649 DUP2 PUSH2 0x831 JUMP JUMPDEST DUP3 MSTORE POP POP JUMP JUMPDEST PUSH2 0x658 DUP2 PUSH2 0x843 JUMP JUMPDEST DUP3 MSTORE POP POP JUMP JUMPDEST PUSH1 0x0 PUSH2 0x66B PUSH1 0x12 DUP4 PUSH2 0x7CA JUMP JUMPDEST SWAP2 POP PUSH2 0x676 DUP3 PUSH2 0x8AD JUMP JUMPDEST PUSH1 0x20 DUP3 ADD SWAP1 POP SWAP2 SWAP1 POP JUMP JUMPDEST PUSH1 0x0 PUSH2 0x68E PUSH1 0xC DUP4 PUSH2 0x7CA JUMP JUMPDEST SWAP2 POP PUSH2 0x699 DUP3 PUSH2 0x8D6 JUMP JUMPDEST PUSH1 0x20 DUP3 ADD SWAP1 POP SWAP2 SWAP1 POP JUMP JUMPDEST PUSH1 0x0 PUSH2 0x6B1 PUSH1 0x7 DUP4 PUSH2 0x7CA JUMP JUMPDEST SWAP2 POP PUSH2 0x6BC DUP3 PUSH2 0x8FF JUMP JUMPDEST PUSH1 0x20 DUP3 ADD SWAP1 POP SWAP2 SWAP1 POP JUMP JUMPDEST PUSH1 0x0 PUSH2 0x6D4 PUSH1 0x1A DUP4 PUSH2 0x7CA JUMP JUMPDEST SWAP2 POP PUSH2 0x6DF DUP3 PUSH2 0x928 JUMP JUMPDEST PUSH1 0x20 DUP3 ADD SWAP1 POP SWAP2 SWAP1 POP JUMP JUMPDEST PUSH2 0x6F3 DUP2 PUSH2 0x86F JUMP JUMPDEST DUP3 MSTORE POP POP JUMP JUMPDEST PUSH1 0x0 PUSH1 0x20 DUP3 ADD SWAP1 POP PUSH2 0x70E PUSH1 0x0 DUP4 ADD DUP5 PUSH2 0x640 JUMP JUMPDEST SWAP3 SWAP2 POP POP JUMP JUMPDEST PUSH1 0x0 PUSH1 0x20 DUP3 ADD SWAP1 POP PUSH2 0x729 PUSH1 0x0 DUP4 ADD DUP5 PUSH2 0x64F JUMP JUMPDEST SWAP3 SWAP2 POP POP JUMP JUMPDEST PUSH1 0x0 PUSH1 0x20 DUP3 ADD SWAP1 POP DUP2 DUP2 SUB PUSH1 0x0 DUP4 ADD MSTORE PUSH2 0x748 DUP2 PUSH2 0x65E JUMP JUMPDEST SWAP1 POP SWAP2 SWAP1 POP JUMP JUMPDEST PUSH1 0x0 PUSH1 0x20 DUP3 ADD SWAP1 POP DUP2 DUP2 SUB PUSH1 0x0 DUP4 ADD MSTORE PUSH2 0x768 DUP2 PUSH2 0x681 JUMP JUMPDEST SWAP1 POP SWAP2 SWAP1 POP JUMP JUMPDEST PUSH1 0x0 PUSH1 0x20 DUP3 ADD SWAP1 POP DUP2 DUP2 SUB PUSH1 0x0 DUP4 ADD MSTORE PUSH2 0x788 DUP2 PUSH2 0x6A4 JUMP JUMPDEST SWAP1 POP SWAP2 SWAP1 POP JUMP JUMPDEST PUSH1 0x0 PUSH1 0x20 DUP3 ADD SWAP1 POP DUP2 DUP2 SUB PUSH1 0x0 DUP4 ADD MSTORE PUSH2 0x7A8 DUP2 PUSH2 0x6C7 JUMP JUMPDEST SWAP1 POP SWAP2 SWAP1 POP JUMP JUMPDEST PUSH1 0x0 PUSH1 0x20 DUP3 ADD SWAP1 POP PUSH2 0x7C4 PUSH1 0x0 DUP4 ADD DUP5 PUSH2 0x6EA JUMP JUMPDEST SWAP3 SWAP2 POP POP JUMP JUMPDEST PUSH1 0x0 DUP3 DUP3 MSTORE PUSH1 0x20 DUP3 ADD SWAP1 POP SWAP3 SWAP2 POP POP JUMP JUMPDEST PUSH1 0x0 PUSH2 0x7E6 DUP3 PUSH2 0x86F JUMP JUMPDEST SWAP2 POP PUSH2 0x7F1 DUP4 PUSH2 0x86F JUMP JUMPDEST SWAP3 POP DUP3 PUSH32 0xFFFFFFFFFFFFFFFFFFFFFFFFFFFFFFFFFFFFFFFFFFFFFFFFFFFFFFFFFFFFFFFF SUB DUP3 GT ISZERO PUSH2 0x826 JUMPI PUSH2 0x825 PUSH2 0x879 JUMP JUMPDEST JUMPDEST DUP3 DUP3 ADD SWAP1 POP SWAP3 SWAP2 POP POP JUMP JUMPDEST PUSH1 0x0 PUSH2 0x83C DUP3 PUSH2 0x84F JUMP JUMPDEST SWAP1 POP SWAP2 SWAP1 POP JUMP JUMPDEST PUSH1 0x0 DUP2 ISZERO ISZERO SWAP1 POP SWAP2 SWAP1 POP JUMP JUMPDEST PUSH1 0x0 PUSH20 0xFFFFFFFFFFFFFFFFFFFFFFFFFFFFFFFFFFFFFFFF DUP3 AND SWAP1 POP SWAP2 SWAP1 POP JUMP JUMPDEST PUSH1 0x0 DUP2 SWAP1 POP SWAP2 SWAP1 POP JUMP JUMPDEST PUSH32 0x4E487B7100000000000000000000000000000000000000000000000000000000 PUSH1 0x0 MSTORE PUSH1 0x11 PUSH1 0x4 MSTORE PUSH1 0x24 PUSH1 0x0 REVERT JUMPDEST PUSH1 0x0 DUP1 REVERT JUMPDEST PUSH32 0x4B696420616C7265616479206578697374730000000000000000000000000000 PUSH1 0x0 DUP3 ADD MSTORE POP JUMP JUMPDEST PUSH32 0x416C726561647920706169640000000000000000000000000000000000000000 PUSH1 0x0 DUP3 ADD MSTORE POP JUMP JUMPDEST PUSH32 0x47726F7720757000000000000000000000000000000000000000000000000000 PUSH1 0x0 DUP3 ADD MSTORE POP JUMP JUMPDEST PUSH32 0x4F6E6C792061646D696E2063616E20637265617465206B696473000000000000 PUSH1 0x0 DUP3 ADD MSTORE POP JUMP JUMPDEST PUSH2 0x95A DUP2 PUSH2 0x831 JUMP JUMPDEST DUP2 EQ PUSH2 0x965 JUMPI PUSH1 0x0 DUP1 REVERT JUMPDEST POP JUMP JUMPDEST PUSH2 0x971 DUP2 PUSH2 0x86F JUMP JUMPDEST DUP2 EQ PUSH2 0x97C JUMPI PUSH1 0x0 DUP1 REVERT JUMPDEST POP JUMP INVALID LOG2 PUSH5 0x6970667358 0x22 SLT KECCAK256 DUP12 0x4D PUSH27 0xC0F56CB899415E7937BC471363F1B92DF7E774D6F716256056B09D 0xCE BLOCKHASH PUSH5 0x736F6C6343 STOP ADDMOD SMOD STOP CALLER "
				},
				"gasEstimates": {
					"creation": {
						"codeDepositCost": "497000",
						"executionCost": "24796",
						"totalCost": "521796"
					},
					"external": {
						"addKid(address,uint256)": "infinite",
						"admin()": "2602",
						"amount(address)": "2880",
						"maturities(address)": "2836",
						"paid(address)": "2889",
						"withdraw()": "infinite"
					}
				},
				"methodIdentifiers": {
					"addKid(address,uint256)": "40990e30",
					"admin()": "f851a440",
					"amount(address)": "b9f0bf66",
					"maturities(address)": "6607250b",
					"paid(address)": "a340cf79",
					"withdraw()": "3ccfd60b"
				}
			},
			"storageLayout": {
				"storage": [
					{
						"astId": 12,
						"contract": "github/fahadashiq/block-chain/smart-contracts/practice.sol:Trust",
						"label": "amount",
						"offset": 0,
						"slot": "0",
						"type": "t_mapping(t_address,t_uint256)"
					},
					{
						"astId": 16,
						"contract": "github/fahadashiq/block-chain/smart-contracts/practice.sol:Trust",
						"label": "maturities",
						"offset": 0,
						"slot": "1",
						"type": "t_mapping(t_address,t_uint256)"
					},
					{
						"astId": 20,
						"contract": "github/fahadashiq/block-chain/smart-contracts/practice.sol:Trust",
						"label": "paid",
						"offset": 0,
						"slot": "2",
						"type": "t_mapping(t_address,t_bool)"
					},
					{
						"astId": 22,
						"contract": "github/fahadashiq/block-chain/smart-contracts/practice.sol:Trust",
						"label": "admin",
						"offset": 0,
						"slot": "3",
						"type": "t_address"
					}
				],
				"types": {
					"t_address": {
						"encoding": "inplace",
						"label": "address",
						"numberOfBytes": "20"
					},
					"t_bool": {
						"encoding": "inplace",
						"label": "bool",
						"numberOfBytes": "1"
					},
					"t_mapping(t_address,t_bool)": {
						"encoding": "mapping",
						"key": "t_address",
						"label": "mapping(address => bool)",
						"numberOfBytes": "32",
						"value": "t_bool"
					},
					"t_mapping(t_address,t_uint256)": {
						"encoding": "mapping",
						"key": "t_address",
						"label": "mapping(address => uint256)",
						"numberOfBytes": "32",
						"value": "t_uint256"
					},
					"t_uint256": {
						"encoding": "inplace",
						"label": "uint256",
						"numberOfBytes": "32"
					}
				}
			},
			"userdoc": {
				"kind": "user",
				"methods": {},
				"version": 1
			}
		}
	}
}