{
	"github/fahadashiq/block-chain/smart-contracts/voting.sol": {
		"Voting": {
			"abi": [
				{
					"inputs": [],
					"stateMutability": "nonpayable",
					"type": "constructor"
				},
				{
					"inputs": [
						{
							"internalType": "string",
							"name": "campaignName",
							"type": "string"
						}
					],
					"name": "addCampaign",
					"outputs": [],
					"stateMutability": "nonpayable",
					"type": "function"
				},
				{
					"inputs": [],
					"name": "admin",
					"outputs": [
						{
							"internalType": "address",
							"name": "",
							"type": "address"
						}
					],
					"stateMutability": "view",
					"type": "function"
				},
				{
					"inputs": [
						{
							"internalType": "string",
							"name": "",
							"type": "string"
						}
					],
					"name": "campaigns",
					"outputs": [
						{
							"internalType": "string",
							"name": "name",
							"type": "string"
						}
					],
					"stateMutability": "view",
					"type": "function"
				},
				{
					"inputs": [
						{
							"internalType": "uint256",
							"name": "",
							"type": "uint256"
						}
					],
					"name": "candidates",
					"outputs": [
						{
							"internalType": "string",
							"name": "name",
							"type": "string"
						},
						{
							"internalType": "string",
							"name": "sign",
							"type": "string"
						},
						{
							"internalType": "uint256",
							"name": "votes",
							"type": "uint256"
						}
					],
					"stateMutability": "view",
					"type": "function"
				},
				{
					"inputs": [],
					"name": "getAllCampaigns",
					"outputs": [
						{
							"components": [
								{
									"internalType": "string",
									"name": "name",
									"type": "string"
								},
								{
									"components": [
										{
											"internalType": "string",
											"name": "name",
											"type": "string"
										},
										{
											"internalType": "string",
											"name": "sign",
											"type": "string"
										},
										{
											"internalType": "uint256",
											"name": "votes",
											"type": "uint256"
										}
									],
									"internalType": "struct Voting.Candidate[]",
									"name": "candidates",
									"type": "tuple[]"
								}
							],
							"internalType": "struct Voting.Campaign",
							"name": "",
							"type": "tuple"
						}
					],
					"stateMutability": "view",
					"type": "function"
				},
				{
					"inputs": [],
					"name": "getNumResult",
					"outputs": [
						{
							"internalType": "uint256",
							"name": "res",
							"type": "uint256"
						}
					],
					"stateMutability": "view",
					"type": "function"
				}
			],
			"devdoc": {
				"kind": "dev",
				"methods": {},
				"version": 1
			},
			"evm": {
				"assembly": "    /* \"github/fahadashiq/block-chain/smart-contracts/voting.sol\":109:2869  contract Voting {... */\n  mstore(0x40, 0x80)\n    /* \"github/fahadashiq/block-chain/smart-contracts/voting.sol\":784:835  constructor() {... */\n  callvalue\n  dup1\n  iszero\n  tag_1\n  jumpi\n  0x00\n  dup1\n  revert\ntag_1:\n  pop\n    /* \"github/fahadashiq/block-chain/smart-contracts/voting.sol\":817:827  msg.sender */\n  caller\n    /* \"github/fahadashiq/block-chain/smart-contracts/voting.sol\":809:814  admin */\n  0x02\n  0x00\n    /* \"github/fahadashiq/block-chain/smart-contracts/voting.sol\":809:827  admin = msg.sender */\n  0x0100\n  exp\n  dup2\n  sload\n  dup2\n  0xffffffffffffffffffffffffffffffffffffffff\n  mul\n  not\n  and\n  swap1\n  dup4\n  0xffffffffffffffffffffffffffffffffffffffff\n  and\n  mul\n  or\n  swap1\n  sstore\n  pop\n    /* \"github/fahadashiq/block-chain/smart-contracts/voting.sol\":109:2869  contract Voting {... */\n  dataSize(sub_0)\n  dup1\n  dataOffset(sub_0)\n  0x00\n  codecopy\n  0x00\n  return\nstop\n\nsub_0: assembly {\n        /* \"github/fahadashiq/block-chain/smart-contracts/voting.sol\":109:2869  contract Voting {... */\n      mstore(0x40, 0x80)\n      callvalue\n      dup1\n      iszero\n      tag_1\n      jumpi\n      0x00\n      dup1\n      revert\n    tag_1:\n      pop\n      jumpi(tag_2, lt(calldatasize, 0x04))\n      shr(0xe0, calldataload(0x00))\n      dup1\n      0x1d39e509\n      eq\n      tag_3\n      jumpi\n      dup1\n      0x202e7be4\n      eq\n      tag_4\n      jumpi\n      dup1\n      0x3477ee2e\n      eq\n      tag_5\n      jumpi\n      dup1\n      0x86cdf604\n      eq\n      tag_6\n      jumpi\n      dup1\n      0xbf80f44a\n      eq\n      tag_7\n      jumpi\n      dup1\n      0xf851a440\n      eq\n      tag_8\n      jumpi\n    tag_2:\n      0x00\n      dup1\n      revert\n        /* \"github/fahadashiq/block-chain/smart-contracts/voting.sol\":654:698  mapping(string => Campaign) public campaigns */\n    tag_3:\n      tag_9\n      0x04\n      dup1\n      calldatasize\n      sub\n      dup2\n      add\n      swap1\n      tag_10\n      swap2\n      swap1\n      tag_11\n      jump\t// in\n    tag_10:\n      tag_12\n      jump\t// in\n    tag_9:\n      mload(0x40)\n      tag_13\n      swap2\n      swap1\n      tag_14\n      jump\t// in\n    tag_13:\n      mload(0x40)\n      dup1\n      swap2\n      sub\n      swap1\n      return\n        /* \"github/fahadashiq/block-chain/smart-contracts/voting.sol\":845:1879  function addCampaign(string memory campaignName) public {... */\n    tag_4:\n      tag_15\n      0x04\n      dup1\n      calldatasize\n      sub\n      dup2\n      add\n      swap1\n      tag_16\n      swap2\n      swap1\n      tag_11\n      jump\t// in\n    tag_16:\n      tag_17\n      jump\t// in\n    tag_15:\n      stop\n        /* \"github/fahadashiq/block-chain/smart-contracts/voting.sol\":715:744  Candidate[] public candidates */\n    tag_5:\n      tag_18\n      0x04\n      dup1\n      calldatasize\n      sub\n      dup2\n      add\n      swap1\n      tag_19\n      swap2\n      swap1\n      tag_20\n      jump\t// in\n    tag_19:\n      tag_21\n      jump\t// in\n    tag_18:\n      mload(0x40)\n      tag_22\n      swap4\n      swap3\n      swap2\n      swap1\n      tag_23\n      jump\t// in\n    tag_22:\n      mload(0x40)\n      dup1\n      swap2\n      sub\n      swap1\n      return\n        /* \"github/fahadashiq/block-chain/smart-contracts/voting.sol\":1888:1993  function getAllCampaigns()public view returns(Campaign memory){... */\n    tag_6:\n      tag_24\n      tag_25\n      jump\t// in\n    tag_24:\n      mload(0x40)\n      tag_26\n      swap2\n      swap1\n      tag_27\n      jump\t// in\n    tag_26:\n      mload(0x40)\n      dup1\n      swap2\n      sub\n      swap1\n      return\n        /* \"github/fahadashiq/block-chain/smart-contracts/voting.sol\":2002:2088  function getNumResult() public view returns (uint res) {... */\n    tag_7:\n      tag_28\n      tag_29\n      jump\t// in\n    tag_28:\n      mload(0x40)\n      tag_30\n      swap2\n      swap1\n      tag_31\n      jump\t// in\n    tag_30:\n      mload(0x40)\n      dup1\n      swap2\n      sub\n      swap1\n      return\n        /* \"github/fahadashiq/block-chain/smart-contracts/voting.sol\":755:775  address public admin */\n    tag_8:\n      tag_32\n      tag_33\n      jump\t// in\n    tag_32:\n      mload(0x40)\n      tag_34\n      swap2\n      swap1\n      tag_35\n      jump\t// in\n    tag_34:\n      mload(0x40)\n      dup1\n      swap2\n      sub\n      swap1\n      return\n        /* \"github/fahadashiq/block-chain/smart-contracts/voting.sol\":654:698  mapping(string => Campaign) public campaigns */\n    tag_12:\n      0x00\n      dup2\n      dup1\n      mload\n      0x20\n      dup2\n      add\n      dup3\n      add\n      dup1\n      mload\n      dup5\n      dup3\n      mstore\n      0x20\n      dup4\n      add\n      0x20\n      dup6\n      add\n      keccak256\n      dup2\n      dup4\n      mstore\n      dup1\n      swap6\n      pop\n      pop\n      pop\n      pop\n      pop\n      pop\n      0x00\n      swap2\n      pop\n      swap1\n      pop\n      dup1\n      0x00\n      add\n      dup1\n      sload\n      tag_36\n      swap1\n      tag_37\n      jump\t// in\n    tag_36:\n      dup1\n      0x1f\n      add\n      0x20\n      dup1\n      swap2\n      div\n      mul\n      0x20\n      add\n      mload(0x40)\n      swap1\n      dup2\n      add\n      0x40\n      mstore\n      dup1\n      swap3\n      swap2\n      swap1\n      dup2\n      dup2\n      mstore\n      0x20\n      add\n      dup3\n      dup1\n      sload\n      tag_38\n      swap1\n      tag_37\n      jump\t// in\n    tag_38:\n      dup1\n      iszero\n      tag_39\n      jumpi\n      dup1\n      0x1f\n      lt\n      tag_40\n      jumpi\n      0x0100\n      dup1\n      dup4\n      sload\n      div\n      mul\n      dup4\n      mstore\n      swap2\n      0x20\n      add\n      swap2\n      jump(tag_39)\n    tag_40:\n      dup3\n      add\n      swap2\n      swap1\n      0x00\n      mstore\n      keccak256(0x00, 0x20)\n      swap1\n    tag_41:\n      dup2\n      sload\n      dup2\n      mstore\n      swap1\n      0x01\n      add\n      swap1\n      0x20\n      add\n      dup1\n      dup4\n      gt\n      tag_41\n      jumpi\n      dup3\n      swap1\n      sub\n      0x1f\n      and\n      dup3\n      add\n      swap2\n    tag_39:\n      pop\n      pop\n      pop\n      pop\n      pop\n      swap1\n      pop\n      dup2\n      jump\t// out\n        /* \"github/fahadashiq/block-chain/smart-contracts/voting.sol\":845:1879  function addCampaign(string memory campaignName) public {... */\n    tag_17:\n        /* \"github/fahadashiq/block-chain/smart-contracts/voting.sol\":934:939  admin */\n      0x02\n      0x00\n      swap1\n      sload\n      swap1\n      0x0100\n      exp\n      swap1\n      div\n      0xffffffffffffffffffffffffffffffffffffffff\n      and\n        /* \"github/fahadashiq/block-chain/smart-contracts/voting.sol\":920:939  msg.sender == admin */\n      0xffffffffffffffffffffffffffffffffffffffff\n      and\n        /* \"github/fahadashiq/block-chain/smart-contracts/voting.sol\":920:930  msg.sender */\n      caller\n        /* \"github/fahadashiq/block-chain/smart-contracts/voting.sol\":920:939  msg.sender == admin */\n      0xffffffffffffffffffffffffffffffffffffffff\n      and\n      eq\n        /* \"github/fahadashiq/block-chain/smart-contracts/voting.sol\":912:975  require(msg.sender == admin, 'Only admin can start a campaign') */\n      tag_43\n      jumpi\n      mload(0x40)\n      0x08c379a000000000000000000000000000000000000000000000000000000000\n      dup2\n      mstore\n      0x04\n      add\n      tag_44\n      swap1\n      tag_45\n      jump\t// in\n    tag_44:\n      mload(0x40)\n      dup1\n      swap2\n      sub\n      swap1\n      revert\n    tag_43:\n        /* \"github/fahadashiq/block-chain/smart-contracts/voting.sol\":1379:1400  Campaign storage comp */\n      0x00\n        /* \"github/fahadashiq/block-chain/smart-contracts/voting.sol\":1403:1412  campaigns */\n      dup1\n        /* \"github/fahadashiq/block-chain/smart-contracts/voting.sol\":1413:1425  campaignName */\n      dup3\n        /* \"github/fahadashiq/block-chain/smart-contracts/voting.sol\":1403:1426  campaigns[campaignName] */\n      mload(0x40)\n      tag_46\n      swap2\n      swap1\n      tag_47\n      jump\t// in\n    tag_46:\n      swap1\n      dup2\n      mstore\n      0x20\n      add\n      mload(0x40)\n      dup1\n      swap2\n      sub\n      swap1\n      keccak256\n        /* \"github/fahadashiq/block-chain/smart-contracts/voting.sol\":1379:1426  Campaign storage comp = campaigns[campaignName] */\n      swap1\n      pop\n        /* \"github/fahadashiq/block-chain/smart-contracts/voting.sol\":1449:1461  campaignName */\n      dup2\n        /* \"github/fahadashiq/block-chain/smart-contracts/voting.sol\":1437:1441  comp */\n      dup2\n        /* \"github/fahadashiq/block-chain/smart-contracts/voting.sol\":1437:1446  comp.name */\n      0x00\n      add\n        /* \"github/fahadashiq/block-chain/smart-contracts/voting.sol\":1437:1461  comp.name = campaignName */\n      swap1\n      dup1\n      mload\n      swap1\n      0x20\n      add\n      swap1\n      tag_48\n      swap3\n      swap2\n      swap1\n      tag_49\n      jump\t// in\n    tag_48:\n      pop\n        /* \"github/fahadashiq/block-chain/smart-contracts/voting.sol\":1544:1548  comp */\n      dup1\n        /* \"github/fahadashiq/block-chain/smart-contracts/voting.sol\":1544:1559  comp.candidates */\n      0x01\n      add\n        /* \"github/fahadashiq/block-chain/smart-contracts/voting.sol\":1565:1597  Candidate('name-1', 'sign-1', 0) */\n      mload(0x40)\n      dup1\n      0x60\n      add\n      0x40\n      mstore\n      dup1\n      mload(0x40)\n      dup1\n      0x40\n      add\n      0x40\n      mstore\n      dup1\n      0x06\n      dup2\n      mstore\n      0x20\n      add\n      0x6e616d652d310000000000000000000000000000000000000000000000000000\n      dup2\n      mstore\n      pop\n      dup2\n      mstore\n      0x20\n      add\n      mload(0x40)\n      dup1\n      0x40\n      add\n      0x40\n      mstore\n      dup1\n      0x06\n      dup2\n      mstore\n      0x20\n      add\n      0x7369676e2d310000000000000000000000000000000000000000000000000000\n      dup2\n      mstore\n      pop\n      dup2\n      mstore\n      0x20\n      add\n        /* \"github/fahadashiq/block-chain/smart-contracts/voting.sol\":1595:1596  0 */\n      0x00\n        /* \"github/fahadashiq/block-chain/smart-contracts/voting.sol\":1565:1597  Candidate('name-1', 'sign-1', 0) */\n      dup2\n      mstore\n      pop\n        /* \"github/fahadashiq/block-chain/smart-contracts/voting.sol\":1544:1598  comp.candidates.push(Candidate('name-1', 'sign-1', 0)) */\n      swap1\n      dup1\n      0x01\n      dup2\n      sload\n      add\n      dup1\n      dup3\n      sstore\n      dup1\n      swap2\n      pop\n      pop\n      0x01\n      swap1\n      sub\n      swap1\n      0x00\n      mstore\n      keccak256(0x00, 0x20)\n      swap1\n      0x03\n      mul\n      add\n      0x00\n      swap1\n      swap2\n      swap1\n      swap2\n      swap1\n      swap2\n      pop\n      0x00\n      dup3\n      add\n      mload\n      dup2\n      0x00\n      add\n      swap1\n      dup1\n      mload\n      swap1\n      0x20\n      add\n      swap1\n      tag_51\n      swap3\n      swap2\n      swap1\n      tag_49\n      jump\t// in\n    tag_51:\n      pop\n      0x20\n      dup3\n      add\n      mload\n      dup2\n      0x01\n      add\n      swap1\n      dup1\n      mload\n      swap1\n      0x20\n      add\n      swap1\n      tag_52\n      swap3\n      swap2\n      swap1\n      tag_49\n      jump\t// in\n    tag_52:\n      pop\n      0x40\n      dup3\n      add\n      mload\n      dup2\n      0x02\n      add\n      sstore\n      pop\n      pop\n        /* \"github/fahadashiq/block-chain/smart-contracts/voting.sol\":901:1879  {... */\n      pop\n        /* \"github/fahadashiq/block-chain/smart-contracts/voting.sol\":845:1879  function addCampaign(string memory campaignName) public {... */\n      pop\n      jump\t// out\n        /* \"github/fahadashiq/block-chain/smart-contracts/voting.sol\":715:744  Candidate[] public candidates */\n    tag_21:\n      0x01\n      dup2\n      dup2\n      sload\n      dup2\n      lt\n      tag_53\n      jumpi\n      0x00\n      dup1\n      revert\n    tag_53:\n      swap1\n      0x00\n      mstore\n      keccak256(0x00, 0x20)\n      swap1\n      0x03\n      mul\n      add\n      0x00\n      swap2\n      pop\n      swap1\n      pop\n      dup1\n      0x00\n      add\n      dup1\n      sload\n      tag_55\n      swap1\n      tag_37\n      jump\t// in\n    tag_55:\n      dup1\n      0x1f\n      add\n      0x20\n      dup1\n      swap2\n      div\n      mul\n      0x20\n      add\n      mload(0x40)\n      swap1\n      dup2\n      add\n      0x40\n      mstore\n      dup1\n      swap3\n      swap2\n      swap1\n      dup2\n      dup2\n      mstore\n      0x20\n      add\n      dup3\n      dup1\n      sload\n      tag_56\n      swap1\n      tag_37\n      jump\t// in\n    tag_56:\n      dup1\n      iszero\n      tag_57\n      jumpi\n      dup1\n      0x1f\n      lt\n      tag_58\n      jumpi\n      0x0100\n      dup1\n      dup4\n      sload\n      div\n      mul\n      dup4\n      mstore\n      swap2\n      0x20\n      add\n      swap2\n      jump(tag_57)\n    tag_58:\n      dup3\n      add\n      swap2\n      swap1\n      0x00\n      mstore\n      keccak256(0x00, 0x20)\n      swap1\n    tag_59:\n      dup2\n      sload\n      dup2\n      mstore\n      swap1\n      0x01\n      add\n      swap1\n      0x20\n      add\n      dup1\n      dup4\n      gt\n      tag_59\n      jumpi\n      dup3\n      swap1\n      sub\n      0x1f\n      and\n      dup3\n      add\n      swap2\n    tag_57:\n      pop\n      pop\n      pop\n      pop\n      pop\n      swap1\n      dup1\n      0x01\n      add\n      dup1\n      sload\n      tag_60\n      swap1\n      tag_37\n      jump\t// in\n    tag_60:\n      dup1\n      0x1f\n      add\n      0x20\n      dup1\n      swap2\n      div\n      mul\n      0x20\n      add\n      mload(0x40)\n      swap1\n      dup2\n      add\n      0x40\n      mstore\n      dup1\n      swap3\n      swap2\n      swap1\n      dup2\n      dup2\n      mstore\n      0x20\n      add\n      dup3\n      dup1\n      sload\n      tag_61\n      swap1\n      tag_37\n      jump\t// in\n    tag_61:\n      dup1\n      iszero\n      tag_62\n      jumpi\n      dup1\n      0x1f\n      lt\n      tag_63\n      jumpi\n      0x0100\n      dup1\n      dup4\n      sload\n      div\n      mul\n      dup4\n      mstore\n      swap2\n      0x20\n      add\n      swap2\n      jump(tag_62)\n    tag_63:\n      dup3\n      add\n      swap2\n      swap1\n      0x00\n      mstore\n      keccak256(0x00, 0x20)\n      swap1\n    tag_64:\n      dup2\n      sload\n      dup2\n      mstore\n      swap1\n      0x01\n      add\n      swap1\n      0x20\n      add\n      dup1\n      dup4\n      gt\n      tag_64\n      jumpi\n      dup3\n      swap1\n      sub\n      0x1f\n      and\n      dup3\n      add\n      swap2\n    tag_62:\n      pop\n      pop\n      pop\n      pop\n      pop\n      swap1\n      dup1\n      0x02\n      add\n      sload\n      swap1\n      pop\n      dup4\n      jump\t// out\n        /* \"github/fahadashiq/block-chain/smart-contracts/voting.sol\":1888:1993  function getAllCampaigns()public view returns(Campaign memory){... */\n    tag_25:\n        /* \"github/fahadashiq/block-chain/smart-contracts/voting.sol\":1934:1949  Campaign memory */\n      tag_65\n      tag_66\n      jump\t// in\n    tag_65:\n        /* \"github/fahadashiq/block-chain/smart-contracts/voting.sol\":1968:1977  campaigns */\n      0x00\n        /* \"github/fahadashiq/block-chain/smart-contracts/voting.sol\":1968:1985  campaigns['1122'] */\n      mload(0x40)\n      tag_68\n      swap1\n      tag_69\n      jump\t// in\n    tag_68:\n      swap1\n      dup2\n      mstore\n      0x20\n      add\n      mload(0x40)\n      dup1\n      swap2\n      sub\n      swap1\n      keccak256\n        /* \"github/fahadashiq/block-chain/smart-contracts/voting.sol\":1961:1985  return campaigns['1122'] */\n      mload(0x40)\n      dup1\n      0x40\n      add\n      0x40\n      mstore\n      swap1\n      dup2\n      0x00\n      dup3\n      add\n      dup1\n      sload\n      tag_70\n      swap1\n      tag_37\n      jump\t// in\n    tag_70:\n      dup1\n      0x1f\n      add\n      0x20\n      dup1\n      swap2\n      div\n      mul\n      0x20\n      add\n      mload(0x40)\n      swap1\n      dup2\n      add\n      0x40\n      mstore\n      dup1\n      swap3\n      swap2\n      swap1\n      dup2\n      dup2\n      mstore\n      0x20\n      add\n      dup3\n      dup1\n      sload\n      tag_71\n      swap1\n      tag_37\n      jump\t// in\n    tag_71:\n      dup1\n      iszero\n      tag_72\n      jumpi\n      dup1\n      0x1f\n      lt\n      tag_73\n      jumpi\n      0x0100\n      dup1\n      dup4\n      sload\n      div\n      mul\n      dup4\n      mstore\n      swap2\n      0x20\n      add\n      swap2\n      jump(tag_72)\n    tag_73:\n      dup3\n      add\n      swap2\n      swap1\n      0x00\n      mstore\n      keccak256(0x00, 0x20)\n      swap1\n    tag_74:\n      dup2\n      sload\n      dup2\n      mstore\n      swap1\n      0x01\n      add\n      swap1\n      0x20\n      add\n      dup1\n      dup4\n      gt\n      tag_74\n      jumpi\n      dup3\n      swap1\n      sub\n      0x1f\n      and\n      dup3\n      add\n      swap2\n    tag_72:\n      pop\n      pop\n      pop\n      pop\n      pop\n      dup2\n      mstore\n      0x20\n      add\n      0x01\n      dup3\n      add\n      dup1\n      sload\n      dup1\n      0x20\n      mul\n      0x20\n      add\n      mload(0x40)\n      swap1\n      dup2\n      add\n      0x40\n      mstore\n      dup1\n      swap3\n      swap2\n      swap1\n      dup2\n      dup2\n      mstore\n      0x20\n      add\n      0x00\n      swap1\n    tag_75:\n      dup3\n      dup3\n      lt\n      iszero\n      tag_76\n      jumpi\n      dup4\n      dup3\n      swap1\n      0x00\n      mstore\n      keccak256(0x00, 0x20)\n      swap1\n      0x03\n      mul\n      add\n      mload(0x40)\n      dup1\n      0x60\n      add\n      0x40\n      mstore\n      swap1\n      dup2\n      0x00\n      dup3\n      add\n      dup1\n      sload\n      tag_78\n      swap1\n      tag_37\n      jump\t// in\n    tag_78:\n      dup1\n      0x1f\n      add\n      0x20\n      dup1\n      swap2\n      div\n      mul\n      0x20\n      add\n      mload(0x40)\n      swap1\n      dup2\n      add\n      0x40\n      mstore\n      dup1\n      swap3\n      swap2\n      swap1\n      dup2\n      dup2\n      mstore\n      0x20\n      add\n      dup3\n      dup1\n      sload\n      tag_79\n      swap1\n      tag_37\n      jump\t// in\n    tag_79:\n      dup1\n      iszero\n      tag_80\n      jumpi\n      dup1\n      0x1f\n      lt\n      tag_81\n      jumpi\n      0x0100\n      dup1\n      dup4\n      sload\n      div\n      mul\n      dup4\n      mstore\n      swap2\n      0x20\n      add\n      swap2\n      jump(tag_80)\n    tag_81:\n      dup3\n      add\n      swap2\n      swap1\n      0x00\n      mstore\n      keccak256(0x00, 0x20)\n      swap1\n    tag_82:\n      dup2\n      sload\n      dup2\n      mstore\n      swap1\n      0x01\n      add\n      swap1\n      0x20\n      add\n      dup1\n      dup4\n      gt\n      tag_82\n      jumpi\n      dup3\n      swap1\n      sub\n      0x1f\n      and\n      dup3\n      add\n      swap2\n    tag_80:\n      pop\n      pop\n      pop\n      pop\n      pop\n      dup2\n      mstore\n      0x20\n      add\n      0x01\n      dup3\n      add\n      dup1\n      sload\n      tag_83\n      swap1\n      tag_37\n      jump\t// in\n    tag_83:\n      dup1\n      0x1f\n      add\n      0x20\n      dup1\n      swap2\n      div\n      mul\n      0x20\n      add\n      mload(0x40)\n      swap1\n      dup2\n      add\n      0x40\n      mstore\n      dup1\n      swap3\n      swap2\n      swap1\n      dup2\n      dup2\n      mstore\n      0x20\n      add\n      dup3\n      dup1\n      sload\n      tag_84\n      swap1\n      tag_37\n      jump\t// in\n    tag_84:\n      dup1\n      iszero\n      tag_85\n      jumpi\n      dup1\n      0x1f\n      lt\n      tag_86\n      jumpi\n      0x0100\n      dup1\n      dup4\n      sload\n      div\n      mul\n      dup4\n      mstore\n      swap2\n      0x20\n      add\n      swap2\n      jump(tag_85)\n    tag_86:\n      dup3\n      add\n      swap2\n      swap1\n      0x00\n      mstore\n      keccak256(0x00, 0x20)\n      swap1\n    tag_87:\n      dup2\n      sload\n      dup2\n      mstore\n      swap1\n      0x01\n      add\n      swap1\n      0x20\n      add\n      dup1\n      dup4\n      gt\n      tag_87\n      jumpi\n      dup3\n      swap1\n      sub\n      0x1f\n      and\n      dup3\n      add\n      swap2\n    tag_85:\n      pop\n      pop\n      pop\n      pop\n      pop\n      dup2\n      mstore\n      0x20\n      add\n      0x02\n      dup3\n      add\n      sload\n      dup2\n      mstore\n      pop\n      pop\n      dup2\n      mstore\n      0x20\n      add\n      swap1\n      0x01\n      add\n      swap1\n      jump(tag_75)\n    tag_76:\n      pop\n      pop\n      pop\n      pop\n      dup2\n      mstore\n      pop\n      pop\n      swap1\n      pop\n        /* \"github/fahadashiq/block-chain/smart-contracts/voting.sol\":1888:1993  function getAllCampaigns()public view returns(Campaign memory){... */\n      swap1\n      jump\t// out\n        /* \"github/fahadashiq/block-chain/smart-contracts/voting.sol\":2002:2088  function getNumResult() public view returns (uint res) {... */\n    tag_29:\n        /* \"github/fahadashiq/block-chain/smart-contracts/voting.sol\":2047:2055  uint res */\n      0x00\n        /* \"github/fahadashiq/block-chain/smart-contracts/voting.sol\":2076:2079  123 */\n      0x7b\n        /* \"github/fahadashiq/block-chain/smart-contracts/voting.sol\":2069:2079  return 123 */\n      swap1\n      pop\n        /* \"github/fahadashiq/block-chain/smart-contracts/voting.sol\":2002:2088  function getNumResult() public view returns (uint res) {... */\n      swap1\n      jump\t// out\n        /* \"github/fahadashiq/block-chain/smart-contracts/voting.sol\":755:775  address public admin */\n    tag_33:\n      0x02\n      0x00\n      swap1\n      sload\n      swap1\n      0x0100\n      exp\n      swap1\n      div\n      0xffffffffffffffffffffffffffffffffffffffff\n      and\n      dup2\n      jump\t// out\n    tag_49:\n      dup3\n      dup1\n      sload\n      tag_89\n      swap1\n      tag_37\n      jump\t// in\n    tag_89:\n      swap1\n      0x00\n      mstore\n      keccak256(0x00, 0x20)\n      swap1\n      0x1f\n      add\n      0x20\n      swap1\n      div\n      dup2\n      add\n      swap3\n      dup3\n      tag_91\n      jumpi\n      0x00\n      dup6\n      sstore\n      jump(tag_90)\n    tag_91:\n      dup3\n      0x1f\n      lt\n      tag_92\n      jumpi\n      dup1\n      mload\n      not(0xff)\n      and\n      dup4\n      dup1\n      add\n      or\n      dup6\n      sstore\n      jump(tag_90)\n    tag_92:\n      dup3\n      dup1\n      add\n      0x01\n      add\n      dup6\n      sstore\n      dup3\n      iszero\n      tag_90\n      jumpi\n      swap2\n      dup3\n      add\n    tag_93:\n      dup3\n      dup2\n      gt\n      iszero\n      tag_94\n      jumpi\n      dup3\n      mload\n      dup3\n      sstore\n      swap2\n      0x20\n      add\n      swap2\n      swap1\n      0x01\n      add\n      swap1\n      jump(tag_93)\n    tag_94:\n    tag_90:\n      pop\n      swap1\n      pop\n      tag_95\n      swap2\n      swap1\n      tag_96\n      jump\t// in\n    tag_95:\n      pop\n      swap1\n      jump\t// out\n    tag_66:\n      mload(0x40)\n      dup1\n      0x40\n      add\n      0x40\n      mstore\n      dup1\n      0x60\n      dup2\n      mstore\n      0x20\n      add\n      0x60\n      dup2\n      mstore\n      pop\n      swap1\n      jump\t// out\n    tag_96:\n    tag_97:\n      dup1\n      dup3\n      gt\n      iszero\n      tag_98\n      jumpi\n      0x00\n      dup2\n      0x00\n      swap1\n      sstore\n      pop\n      0x01\n      add\n      jump(tag_97)\n    tag_98:\n      pop\n      swap1\n      jump\t// out\n        /* \"#utility.yul\":7:82   */\n    tag_99:\n        /* \"#utility.yul\":40:46   */\n      0x00\n        /* \"#utility.yul\":73:75   */\n      0x40\n        /* \"#utility.yul\":67:76   */\n      mload\n        /* \"#utility.yul\":57:76   */\n      swap1\n      pop\n        /* \"#utility.yul\":7:82   */\n      swap1\n      jump\t// out\n        /* \"#utility.yul\":88:205   */\n    tag_100:\n        /* \"#utility.yul\":197:198   */\n      0x00\n        /* \"#utility.yul\":194:195   */\n      dup1\n        /* \"#utility.yul\":187:199   */\n      revert\n        /* \"#utility.yul\":211:328   */\n    tag_101:\n        /* \"#utility.yul\":320:321   */\n      0x00\n        /* \"#utility.yul\":317:318   */\n      dup1\n        /* \"#utility.yul\":310:322   */\n      revert\n        /* \"#utility.yul\":334:451   */\n    tag_102:\n        /* \"#utility.yul\":443:444   */\n      0x00\n        /* \"#utility.yul\":440:441   */\n      dup1\n        /* \"#utility.yul\":433:445   */\n      revert\n        /* \"#utility.yul\":457:574   */\n    tag_103:\n        /* \"#utility.yul\":566:567   */\n      0x00\n        /* \"#utility.yul\":563:564   */\n      dup1\n        /* \"#utility.yul\":556:568   */\n      revert\n        /* \"#utility.yul\":580:682   */\n    tag_104:\n        /* \"#utility.yul\":621:627   */\n      0x00\n        /* \"#utility.yul\":672:674   */\n      0x1f\n        /* \"#utility.yul\":668:675   */\n      not\n        /* \"#utility.yul\":663:665   */\n      0x1f\n        /* \"#utility.yul\":656:661   */\n      dup4\n        /* \"#utility.yul\":652:666   */\n      add\n        /* \"#utility.yul\":648:676   */\n      and\n        /* \"#utility.yul\":638:676   */\n      swap1\n      pop\n        /* \"#utility.yul\":580:682   */\n      swap2\n      swap1\n      pop\n      jump\t// out\n        /* \"#utility.yul\":688:868   */\n    tag_105:\n        /* \"#utility.yul\":736:813   */\n      0x4e487b7100000000000000000000000000000000000000000000000000000000\n        /* \"#utility.yul\":733:734   */\n      0x00\n        /* \"#utility.yul\":726:814   */\n      mstore\n        /* \"#utility.yul\":833:837   */\n      0x41\n        /* \"#utility.yul\":830:831   */\n      0x04\n        /* \"#utility.yul\":823:838   */\n      mstore\n        /* \"#utility.yul\":857:861   */\n      0x24\n        /* \"#utility.yul\":854:855   */\n      0x00\n        /* \"#utility.yul\":847:862   */\n      revert\n        /* \"#utility.yul\":874:1155   */\n    tag_106:\n        /* \"#utility.yul\":957:984   */\n      tag_150\n        /* \"#utility.yul\":979:983   */\n      dup3\n        /* \"#utility.yul\":957:984   */\n      tag_104\n      jump\t// in\n    tag_150:\n        /* \"#utility.yul\":949:955   */\n      dup2\n        /* \"#utility.yul\":945:985   */\n      add\n        /* \"#utility.yul\":1087:1093   */\n      dup2\n        /* \"#utility.yul\":1075:1085   */\n      dup2\n        /* \"#utility.yul\":1072:1094   */\n      lt\n        /* \"#utility.yul\":1051:1069   */\n      0xffffffffffffffff\n        /* \"#utility.yul\":1039:1049   */\n      dup3\n        /* \"#utility.yul\":1036:1070   */\n      gt\n        /* \"#utility.yul\":1033:1095   */\n      or\n        /* \"#utility.yul\":1030:1118   */\n      iszero\n      tag_151\n      jumpi\n        /* \"#utility.yul\":1098:1116   */\n      tag_152\n      tag_105\n      jump\t// in\n    tag_152:\n        /* \"#utility.yul\":1030:1118   */\n    tag_151:\n        /* \"#utility.yul\":1138:1148   */\n      dup1\n        /* \"#utility.yul\":1134:1136   */\n      0x40\n        /* \"#utility.yul\":1127:1149   */\n      mstore\n        /* \"#utility.yul\":917:1155   */\n      pop\n        /* \"#utility.yul\":874:1155   */\n      pop\n      pop\n      jump\t// out\n        /* \"#utility.yul\":1161:1290   */\n    tag_107:\n        /* \"#utility.yul\":1195:1201   */\n      0x00\n        /* \"#utility.yul\":1222:1242   */\n      tag_154\n      tag_99\n      jump\t// in\n    tag_154:\n        /* \"#utility.yul\":1212:1242   */\n      swap1\n      pop\n        /* \"#utility.yul\":1251:1284   */\n      tag_155\n        /* \"#utility.yul\":1279:1283   */\n      dup3\n        /* \"#utility.yul\":1271:1277   */\n      dup3\n        /* \"#utility.yul\":1251:1284   */\n      tag_106\n      jump\t// in\n    tag_155:\n        /* \"#utility.yul\":1161:1290   */\n      swap2\n      swap1\n      pop\n      jump\t// out\n        /* \"#utility.yul\":1296:1604   */\n    tag_108:\n        /* \"#utility.yul\":1358:1362   */\n      0x00\n        /* \"#utility.yul\":1448:1466   */\n      0xffffffffffffffff\n        /* \"#utility.yul\":1440:1446   */\n      dup3\n        /* \"#utility.yul\":1437:1467   */\n      gt\n        /* \"#utility.yul\":1434:1490   */\n      iszero\n      tag_157\n      jumpi\n        /* \"#utility.yul\":1470:1488   */\n      tag_158\n      tag_105\n      jump\t// in\n    tag_158:\n        /* \"#utility.yul\":1434:1490   */\n    tag_157:\n        /* \"#utility.yul\":1508:1537   */\n      tag_159\n        /* \"#utility.yul\":1530:1536   */\n      dup3\n        /* \"#utility.yul\":1508:1537   */\n      tag_104\n      jump\t// in\n    tag_159:\n        /* \"#utility.yul\":1500:1537   */\n      swap1\n      pop\n        /* \"#utility.yul\":1592:1596   */\n      0x20\n        /* \"#utility.yul\":1586:1590   */\n      dup2\n        /* \"#utility.yul\":1582:1597   */\n      add\n        /* \"#utility.yul\":1574:1597   */\n      swap1\n      pop\n        /* \"#utility.yul\":1296:1604   */\n      swap2\n      swap1\n      pop\n      jump\t// out\n        /* \"#utility.yul\":1610:1764   */\n    tag_109:\n        /* \"#utility.yul\":1694:1700   */\n      dup3\n        /* \"#utility.yul\":1689:1692   */\n      dup2\n        /* \"#utility.yul\":1684:1687   */\n      dup4\n        /* \"#utility.yul\":1671:1701   */\n      calldatacopy\n        /* \"#utility.yul\":1756:1757   */\n      0x00\n        /* \"#utility.yul\":1747:1753   */\n      dup4\n        /* \"#utility.yul\":1742:1745   */\n      dup4\n        /* \"#utility.yul\":1738:1754   */\n      add\n        /* \"#utility.yul\":1731:1758   */\n      mstore\n        /* \"#utility.yul\":1610:1764   */\n      pop\n      pop\n      pop\n      jump\t// out\n        /* \"#utility.yul\":1770:2182   */\n    tag_110:\n        /* \"#utility.yul\":1848:1853   */\n      0x00\n        /* \"#utility.yul\":1873:1939   */\n      tag_162\n        /* \"#utility.yul\":1889:1938   */\n      tag_163\n        /* \"#utility.yul\":1931:1937   */\n      dup5\n        /* \"#utility.yul\":1889:1938   */\n      tag_108\n      jump\t// in\n    tag_163:\n        /* \"#utility.yul\":1873:1939   */\n      tag_107\n      jump\t// in\n    tag_162:\n        /* \"#utility.yul\":1864:1939   */\n      swap1\n      pop\n        /* \"#utility.yul\":1962:1968   */\n      dup3\n        /* \"#utility.yul\":1955:1960   */\n      dup2\n        /* \"#utility.yul\":1948:1969   */\n      mstore\n        /* \"#utility.yul\":2000:2004   */\n      0x20\n        /* \"#utility.yul\":1993:1998   */\n      dup2\n        /* \"#utility.yul\":1989:2005   */\n      add\n        /* \"#utility.yul\":2038:2041   */\n      dup5\n        /* \"#utility.yul\":2029:2035   */\n      dup5\n        /* \"#utility.yul\":2024:2027   */\n      dup5\n        /* \"#utility.yul\":2020:2036   */\n      add\n        /* \"#utility.yul\":2017:2042   */\n      gt\n        /* \"#utility.yul\":2014:2126   */\n      iszero\n      tag_164\n      jumpi\n        /* \"#utility.yul\":2045:2124   */\n      tag_165\n      tag_103\n      jump\t// in\n    tag_165:\n        /* \"#utility.yul\":2014:2126   */\n    tag_164:\n        /* \"#utility.yul\":2135:2176   */\n      tag_166\n        /* \"#utility.yul\":2169:2175   */\n      dup5\n        /* \"#utility.yul\":2164:2167   */\n      dup3\n        /* \"#utility.yul\":2159:2162   */\n      dup6\n        /* \"#utility.yul\":2135:2176   */\n      tag_109\n      jump\t// in\n    tag_166:\n        /* \"#utility.yul\":1854:2182   */\n      pop\n        /* \"#utility.yul\":1770:2182   */\n      swap4\n      swap3\n      pop\n      pop\n      pop\n      jump\t// out\n        /* \"#utility.yul\":2202:2542   */\n    tag_111:\n        /* \"#utility.yul\":2258:2263   */\n      0x00\n        /* \"#utility.yul\":2307:2310   */\n      dup3\n        /* \"#utility.yul\":2300:2304   */\n      0x1f\n        /* \"#utility.yul\":2292:2298   */\n      dup4\n        /* \"#utility.yul\":2288:2305   */\n      add\n        /* \"#utility.yul\":2284:2311   */\n      slt\n        /* \"#utility.yul\":2274:2396   */\n      tag_168\n      jumpi\n        /* \"#utility.yul\":2315:2394   */\n      tag_169\n      tag_102\n      jump\t// in\n    tag_169:\n        /* \"#utility.yul\":2274:2396   */\n    tag_168:\n        /* \"#utility.yul\":2432:2438   */\n      dup2\n        /* \"#utility.yul\":2419:2439   */\n      calldataload\n        /* \"#utility.yul\":2457:2536   */\n      tag_170\n        /* \"#utility.yul\":2532:2535   */\n      dup5\n        /* \"#utility.yul\":2524:2530   */\n      dup3\n        /* \"#utility.yul\":2517:2521   */\n      0x20\n        /* \"#utility.yul\":2509:2515   */\n      dup7\n        /* \"#utility.yul\":2505:2522   */\n      add\n        /* \"#utility.yul\":2457:2536   */\n      tag_110\n      jump\t// in\n    tag_170:\n        /* \"#utility.yul\":2448:2536   */\n      swap2\n      pop\n        /* \"#utility.yul\":2264:2542   */\n      pop\n        /* \"#utility.yul\":2202:2542   */\n      swap3\n      swap2\n      pop\n      pop\n      jump\t// out\n        /* \"#utility.yul\":2548:3057   */\n    tag_11:\n        /* \"#utility.yul\":2617:2623   */\n      0x00\n        /* \"#utility.yul\":2666:2668   */\n      0x20\n        /* \"#utility.yul\":2654:2663   */\n      dup3\n        /* \"#utility.yul\":2645:2652   */\n      dup5\n        /* \"#utility.yul\":2641:2664   */\n      sub\n        /* \"#utility.yul\":2637:2669   */\n      slt\n        /* \"#utility.yul\":2634:2753   */\n      iszero\n      tag_172\n      jumpi\n        /* \"#utility.yul\":2672:2751   */\n      tag_173\n      tag_100\n      jump\t// in\n    tag_173:\n        /* \"#utility.yul\":2634:2753   */\n    tag_172:\n        /* \"#utility.yul\":2820:2821   */\n      0x00\n        /* \"#utility.yul\":2809:2818   */\n      dup3\n        /* \"#utility.yul\":2805:2822   */\n      add\n        /* \"#utility.yul\":2792:2823   */\n      calldataload\n        /* \"#utility.yul\":2850:2868   */\n      0xffffffffffffffff\n        /* \"#utility.yul\":2842:2848   */\n      dup2\n        /* \"#utility.yul\":2839:2869   */\n      gt\n        /* \"#utility.yul\":2836:2953   */\n      iszero\n      tag_174\n      jumpi\n        /* \"#utility.yul\":2872:2951   */\n      tag_175\n      tag_101\n      jump\t// in\n    tag_175:\n        /* \"#utility.yul\":2836:2953   */\n    tag_174:\n        /* \"#utility.yul\":2977:3040   */\n      tag_176\n        /* \"#utility.yul\":3032:3039   */\n      dup5\n        /* \"#utility.yul\":3023:3029   */\n      dup3\n        /* \"#utility.yul\":3012:3021   */\n      dup6\n        /* \"#utility.yul\":3008:3030   */\n      add\n        /* \"#utility.yul\":2977:3040   */\n      tag_111\n      jump\t// in\n    tag_176:\n        /* \"#utility.yul\":2967:3040   */\n      swap2\n      pop\n        /* \"#utility.yul\":2763:3050   */\n      pop\n        /* \"#utility.yul\":2548:3057   */\n      swap3\n      swap2\n      pop\n      pop\n      jump\t// out\n        /* \"#utility.yul\":3063:3162   */\n    tag_112:\n        /* \"#utility.yul\":3115:3121   */\n      0x00\n        /* \"#utility.yul\":3149:3154   */\n      dup2\n        /* \"#utility.yul\":3143:3155   */\n      mload\n        /* \"#utility.yul\":3133:3155   */\n      swap1\n      pop\n        /* \"#utility.yul\":3063:3162   */\n      swap2\n      swap1\n      pop\n      jump\t// out\n        /* \"#utility.yul\":3168:3337   */\n    tag_113:\n        /* \"#utility.yul\":3252:3263   */\n      0x00\n        /* \"#utility.yul\":3286:3292   */\n      dup3\n        /* \"#utility.yul\":3281:3284   */\n      dup3\n        /* \"#utility.yul\":3274:3293   */\n      mstore\n        /* \"#utility.yul\":3326:3330   */\n      0x20\n        /* \"#utility.yul\":3321:3324   */\n      dup3\n        /* \"#utility.yul\":3317:3331   */\n      add\n        /* \"#utility.yul\":3302:3331   */\n      swap1\n      pop\n        /* \"#utility.yul\":3168:3337   */\n      swap3\n      swap2\n      pop\n      pop\n      jump\t// out\n        /* \"#utility.yul\":3343:3650   */\n    tag_114:\n        /* \"#utility.yul\":3411:3412   */\n      0x00\n        /* \"#utility.yul\":3421:3534   */\n    tag_180:\n        /* \"#utility.yul\":3435:3441   */\n      dup4\n        /* \"#utility.yul\":3432:3433   */\n      dup2\n        /* \"#utility.yul\":3429:3442   */\n      lt\n        /* \"#utility.yul\":3421:3534   */\n      iszero\n      tag_182\n      jumpi\n        /* \"#utility.yul\":3520:3521   */\n      dup1\n        /* \"#utility.yul\":3515:3518   */\n      dup3\n        /* \"#utility.yul\":3511:3522   */\n      add\n        /* \"#utility.yul\":3505:3523   */\n      mload\n        /* \"#utility.yul\":3501:3502   */\n      dup2\n        /* \"#utility.yul\":3496:3499   */\n      dup5\n        /* \"#utility.yul\":3492:3503   */\n      add\n        /* \"#utility.yul\":3485:3524   */\n      mstore\n        /* \"#utility.yul\":3457:3459   */\n      0x20\n        /* \"#utility.yul\":3454:3455   */\n      dup2\n        /* \"#utility.yul\":3450:3460   */\n      add\n        /* \"#utility.yul\":3445:3460   */\n      swap1\n      pop\n        /* \"#utility.yul\":3421:3534   */\n      jump(tag_180)\n    tag_182:\n        /* \"#utility.yul\":3552:3558   */\n      dup4\n        /* \"#utility.yul\":3549:3550   */\n      dup2\n        /* \"#utility.yul\":3546:3559   */\n      gt\n        /* \"#utility.yul\":3543:3644   */\n      iszero\n      tag_183\n      jumpi\n        /* \"#utility.yul\":3632:3633   */\n      0x00\n        /* \"#utility.yul\":3623:3629   */\n      dup5\n        /* \"#utility.yul\":3618:3621   */\n      dup5\n        /* \"#utility.yul\":3614:3630   */\n      add\n        /* \"#utility.yul\":3607:3634   */\n      mstore\n        /* \"#utility.yul\":3543:3644   */\n    tag_183:\n        /* \"#utility.yul\":3392:3650   */\n      pop\n        /* \"#utility.yul\":3343:3650   */\n      pop\n      pop\n      pop\n      jump\t// out\n        /* \"#utility.yul\":3656:4020   */\n    tag_115:\n        /* \"#utility.yul\":3744:3747   */\n      0x00\n        /* \"#utility.yul\":3772:3811   */\n      tag_185\n        /* \"#utility.yul\":3805:3810   */\n      dup3\n        /* \"#utility.yul\":3772:3811   */\n      tag_112\n      jump\t// in\n    tag_185:\n        /* \"#utility.yul\":3827:3898   */\n      tag_186\n        /* \"#utility.yul\":3891:3897   */\n      dup2\n        /* \"#utility.yul\":3886:3889   */\n      dup6\n        /* \"#utility.yul\":3827:3898   */\n      tag_113\n      jump\t// in\n    tag_186:\n        /* \"#utility.yul\":3820:3898   */\n      swap4\n      pop\n        /* \"#utility.yul\":3907:3959   */\n      tag_187\n        /* \"#utility.yul\":3952:3958   */\n      dup2\n        /* \"#utility.yul\":3947:3950   */\n      dup6\n        /* \"#utility.yul\":3940:3944   */\n      0x20\n        /* \"#utility.yul\":3933:3938   */\n      dup7\n        /* \"#utility.yul\":3929:3945   */\n      add\n        /* \"#utility.yul\":3907:3959   */\n      tag_114\n      jump\t// in\n    tag_187:\n        /* \"#utility.yul\":3984:4013   */\n      tag_188\n        /* \"#utility.yul\":4006:4012   */\n      dup2\n        /* \"#utility.yul\":3984:4013   */\n      tag_104\n      jump\t// in\n    tag_188:\n        /* \"#utility.yul\":3979:3982   */\n      dup5\n        /* \"#utility.yul\":3975:4014   */\n      add\n        /* \"#utility.yul\":3968:4014   */\n      swap2\n      pop\n        /* \"#utility.yul\":3748:4020   */\n      pop\n        /* \"#utility.yul\":3656:4020   */\n      swap3\n      swap2\n      pop\n      pop\n      jump\t// out\n        /* \"#utility.yul\":4026:4339   */\n    tag_14:\n        /* \"#utility.yul\":4139:4143   */\n      0x00\n        /* \"#utility.yul\":4177:4179   */\n      0x20\n        /* \"#utility.yul\":4166:4175   */\n      dup3\n        /* \"#utility.yul\":4162:4180   */\n      add\n        /* \"#utility.yul\":4154:4180   */\n      swap1\n      pop\n        /* \"#utility.yul\":4226:4235   */\n      dup2\n        /* \"#utility.yul\":4220:4224   */\n      dup2\n        /* \"#utility.yul\":4216:4236   */\n      sub\n        /* \"#utility.yul\":4212:4213   */\n      0x00\n        /* \"#utility.yul\":4201:4210   */\n      dup4\n        /* \"#utility.yul\":4197:4214   */\n      add\n        /* \"#utility.yul\":4190:4237   */\n      mstore\n        /* \"#utility.yul\":4254:4332   */\n      tag_190\n        /* \"#utility.yul\":4327:4331   */\n      dup2\n        /* \"#utility.yul\":4318:4324   */\n      dup5\n        /* \"#utility.yul\":4254:4332   */\n      tag_115\n      jump\t// in\n    tag_190:\n        /* \"#utility.yul\":4246:4332   */\n      swap1\n      pop\n        /* \"#utility.yul\":4026:4339   */\n      swap3\n      swap2\n      pop\n      pop\n      jump\t// out\n        /* \"#utility.yul\":4345:4422   */\n    tag_116:\n        /* \"#utility.yul\":4382:4389   */\n      0x00\n        /* \"#utility.yul\":4411:4416   */\n      dup2\n        /* \"#utility.yul\":4400:4416   */\n      swap1\n      pop\n        /* \"#utility.yul\":4345:4422   */\n      swap2\n      swap1\n      pop\n      jump\t// out\n        /* \"#utility.yul\":4428:4550   */\n    tag_117:\n        /* \"#utility.yul\":4501:4525   */\n      tag_193\n        /* \"#utility.yul\":4519:4524   */\n      dup2\n        /* \"#utility.yul\":4501:4525   */\n      tag_116\n      jump\t// in\n    tag_193:\n        /* \"#utility.yul\":4494:4499   */\n      dup2\n        /* \"#utility.yul\":4491:4526   */\n      eq\n        /* \"#utility.yul\":4481:4544   */\n      tag_194\n      jumpi\n        /* \"#utility.yul\":4540:4541   */\n      0x00\n        /* \"#utility.yul\":4537:4538   */\n      dup1\n        /* \"#utility.yul\":4530:4542   */\n      revert\n        /* \"#utility.yul\":4481:4544   */\n    tag_194:\n        /* \"#utility.yul\":4428:4550   */\n      pop\n      jump\t// out\n        /* \"#utility.yul\":4556:4695   */\n    tag_118:\n        /* \"#utility.yul\":4602:4607   */\n      0x00\n        /* \"#utility.yul\":4640:4646   */\n      dup2\n        /* \"#utility.yul\":4627:4647   */\n      calldataload\n        /* \"#utility.yul\":4618:4647   */\n      swap1\n      pop\n        /* \"#utility.yul\":4656:4689   */\n      tag_196\n        /* \"#utility.yul\":4683:4688   */\n      dup2\n        /* \"#utility.yul\":4656:4689   */\n      tag_117\n      jump\t// in\n    tag_196:\n        /* \"#utility.yul\":4556:4695   */\n      swap3\n      swap2\n      pop\n      pop\n      jump\t// out\n        /* \"#utility.yul\":4701:5030   */\n    tag_20:\n        /* \"#utility.yul\":4760:4766   */\n      0x00\n        /* \"#utility.yul\":4809:4811   */\n      0x20\n        /* \"#utility.yul\":4797:4806   */\n      dup3\n        /* \"#utility.yul\":4788:4795   */\n      dup5\n        /* \"#utility.yul\":4784:4807   */\n      sub\n        /* \"#utility.yul\":4780:4812   */\n      slt\n        /* \"#utility.yul\":4777:4896   */\n      iszero\n      tag_198\n      jumpi\n        /* \"#utility.yul\":4815:4894   */\n      tag_199\n      tag_100\n      jump\t// in\n    tag_199:\n        /* \"#utility.yul\":4777:4896   */\n    tag_198:\n        /* \"#utility.yul\":4935:4936   */\n      0x00\n        /* \"#utility.yul\":4960:5013   */\n      tag_200\n        /* \"#utility.yul\":5005:5012   */\n      dup5\n        /* \"#utility.yul\":4996:5002   */\n      dup3\n        /* \"#utility.yul\":4985:4994   */\n      dup6\n        /* \"#utility.yul\":4981:5003   */\n      add\n        /* \"#utility.yul\":4960:5013   */\n      tag_118\n      jump\t// in\n    tag_200:\n        /* \"#utility.yul\":4950:5013   */\n      swap2\n      pop\n        /* \"#utility.yul\":4906:5023   */\n      pop\n        /* \"#utility.yul\":4701:5030   */\n      swap3\n      swap2\n      pop\n      pop\n      jump\t// out\n        /* \"#utility.yul\":5036:5154   */\n    tag_119:\n        /* \"#utility.yul\":5123:5147   */\n      tag_202\n        /* \"#utility.yul\":5141:5146   */\n      dup2\n        /* \"#utility.yul\":5123:5147   */\n      tag_116\n      jump\t// in\n    tag_202:\n        /* \"#utility.yul\":5118:5121   */\n      dup3\n        /* \"#utility.yul\":5111:5148   */\n      mstore\n        /* \"#utility.yul\":5036:5154   */\n      pop\n      pop\n      jump\t// out\n        /* \"#utility.yul\":5160:5784   */\n    tag_23:\n        /* \"#utility.yul\":5349:5353   */\n      0x00\n        /* \"#utility.yul\":5387:5389   */\n      0x60\n        /* \"#utility.yul\":5376:5385   */\n      dup3\n        /* \"#utility.yul\":5372:5390   */\n      add\n        /* \"#utility.yul\":5364:5390   */\n      swap1\n      pop\n        /* \"#utility.yul\":5436:5445   */\n      dup2\n        /* \"#utility.yul\":5430:5434   */\n      dup2\n        /* \"#utility.yul\":5426:5446   */\n      sub\n        /* \"#utility.yul\":5422:5423   */\n      0x00\n        /* \"#utility.yul\":5411:5420   */\n      dup4\n        /* \"#utility.yul\":5407:5424   */\n      add\n        /* \"#utility.yul\":5400:5447   */\n      mstore\n        /* \"#utility.yul\":5464:5542   */\n      tag_204\n        /* \"#utility.yul\":5537:5541   */\n      dup2\n        /* \"#utility.yul\":5528:5534   */\n      dup7\n        /* \"#utility.yul\":5464:5542   */\n      tag_115\n      jump\t// in\n    tag_204:\n        /* \"#utility.yul\":5456:5542   */\n      swap1\n      pop\n        /* \"#utility.yul\":5589:5598   */\n      dup2\n        /* \"#utility.yul\":5583:5587   */\n      dup2\n        /* \"#utility.yul\":5579:5599   */\n      sub\n        /* \"#utility.yul\":5574:5576   */\n      0x20\n        /* \"#utility.yul\":5563:5572   */\n      dup4\n        /* \"#utility.yul\":5559:5577   */\n      add\n        /* \"#utility.yul\":5552:5600   */\n      mstore\n        /* \"#utility.yul\":5617:5695   */\n      tag_205\n        /* \"#utility.yul\":5690:5694   */\n      dup2\n        /* \"#utility.yul\":5681:5687   */\n      dup6\n        /* \"#utility.yul\":5617:5695   */\n      tag_115\n      jump\t// in\n    tag_205:\n        /* \"#utility.yul\":5609:5695   */\n      swap1\n      pop\n        /* \"#utility.yul\":5705:5777   */\n      tag_206\n        /* \"#utility.yul\":5773:5775   */\n      0x40\n        /* \"#utility.yul\":5762:5771   */\n      dup4\n        /* \"#utility.yul\":5758:5776   */\n      add\n        /* \"#utility.yul\":5749:5755   */\n      dup5\n        /* \"#utility.yul\":5705:5777   */\n      tag_119\n      jump\t// in\n    tag_206:\n        /* \"#utility.yul\":5160:5784   */\n      swap5\n      swap4\n      pop\n      pop\n      pop\n      pop\n      jump\t// out\n        /* \"#utility.yul\":5790:5949   */\n    tag_120:\n        /* \"#utility.yul\":5864:5875   */\n      0x00\n        /* \"#utility.yul\":5898:5904   */\n      dup3\n        /* \"#utility.yul\":5893:5896   */\n      dup3\n        /* \"#utility.yul\":5886:5905   */\n      mstore\n        /* \"#utility.yul\":5938:5942   */\n      0x20\n        /* \"#utility.yul\":5933:5936   */\n      dup3\n        /* \"#utility.yul\":5929:5943   */\n      add\n        /* \"#utility.yul\":5914:5943   */\n      swap1\n      pop\n        /* \"#utility.yul\":5790:5949   */\n      swap3\n      swap2\n      pop\n      pop\n      jump\t// out\n        /* \"#utility.yul\":5955:6299   */\n    tag_121:\n        /* \"#utility.yul\":6033:6036   */\n      0x00\n        /* \"#utility.yul\":6061:6100   */\n      tag_209\n        /* \"#utility.yul\":6094:6099   */\n      dup3\n        /* \"#utility.yul\":6061:6100   */\n      tag_112\n      jump\t// in\n    tag_209:\n        /* \"#utility.yul\":6116:6177   */\n      tag_210\n        /* \"#utility.yul\":6170:6176   */\n      dup2\n        /* \"#utility.yul\":6165:6168   */\n      dup6\n        /* \"#utility.yul\":6116:6177   */\n      tag_120\n      jump\t// in\n    tag_210:\n        /* \"#utility.yul\":6109:6177   */\n      swap4\n      pop\n        /* \"#utility.yul\":6186:6238   */\n      tag_211\n        /* \"#utility.yul\":6231:6237   */\n      dup2\n        /* \"#utility.yul\":6226:6229   */\n      dup6\n        /* \"#utility.yul\":6219:6223   */\n      0x20\n        /* \"#utility.yul\":6212:6217   */\n      dup7\n        /* \"#utility.yul\":6208:6224   */\n      add\n        /* \"#utility.yul\":6186:6238   */\n      tag_114\n      jump\t// in\n    tag_211:\n        /* \"#utility.yul\":6263:6292   */\n      tag_212\n        /* \"#utility.yul\":6285:6291   */\n      dup2\n        /* \"#utility.yul\":6263:6292   */\n      tag_104\n      jump\t// in\n    tag_212:\n        /* \"#utility.yul\":6258:6261   */\n      dup5\n        /* \"#utility.yul\":6254:6293   */\n      add\n        /* \"#utility.yul\":6247:6293   */\n      swap2\n      pop\n        /* \"#utility.yul\":6037:6299   */\n      pop\n        /* \"#utility.yul\":5955:6299   */\n      swap3\n      swap2\n      pop\n      pop\n      jump\t// out\n        /* \"#utility.yul\":6305:6444   */\n    tag_122:\n        /* \"#utility.yul\":6397:6403   */\n      0x00\n        /* \"#utility.yul\":6431:6436   */\n      dup2\n        /* \"#utility.yul\":6425:6437   */\n      mload\n        /* \"#utility.yul\":6415:6437   */\n      swap1\n      pop\n        /* \"#utility.yul\":6305:6444   */\n      swap2\n      swap1\n      pop\n      jump\t// out\n        /* \"#utility.yul\":6450:6649   */\n    tag_123:\n        /* \"#utility.yul\":6564:6575   */\n      0x00\n        /* \"#utility.yul\":6598:6604   */\n      dup3\n        /* \"#utility.yul\":6593:6596   */\n      dup3\n        /* \"#utility.yul\":6586:6605   */\n      mstore\n        /* \"#utility.yul\":6638:6642   */\n      0x20\n        /* \"#utility.yul\":6633:6636   */\n      dup3\n        /* \"#utility.yul\":6629:6643   */\n      add\n        /* \"#utility.yul\":6614:6643   */\n      swap1\n      pop\n        /* \"#utility.yul\":6450:6649   */\n      swap3\n      swap2\n      pop\n      pop\n      jump\t// out\n        /* \"#utility.yul\":6655:6812   */\n    tag_124:\n        /* \"#utility.yul\":6747:6751   */\n      0x00\n        /* \"#utility.yul\":6770:6773   */\n      dup2\n        /* \"#utility.yul\":6762:6773   */\n      swap1\n      pop\n        /* \"#utility.yul\":6800:6804   */\n      0x20\n        /* \"#utility.yul\":6795:6798   */\n      dup3\n        /* \"#utility.yul\":6791:6805   */\n      add\n        /* \"#utility.yul\":6783:6805   */\n      swap1\n      pop\n        /* \"#utility.yul\":6655:6812   */\n      swap2\n      swap1\n      pop\n      jump\t// out\n        /* \"#utility.yul\":6818:6926   */\n    tag_125:\n        /* \"#utility.yul\":6895:6919   */\n      tag_217\n        /* \"#utility.yul\":6913:6918   */\n      dup2\n        /* \"#utility.yul\":6895:6919   */\n      tag_116\n      jump\t// in\n    tag_217:\n        /* \"#utility.yul\":6890:6893   */\n      dup3\n        /* \"#utility.yul\":6883:6920   */\n      mstore\n        /* \"#utility.yul\":6818:6926   */\n      pop\n      pop\n      jump\t// out\n        /* \"#utility.yul\":6990:7832   */\n    tag_126:\n        /* \"#utility.yul\":7099:7102   */\n      0x00\n        /* \"#utility.yul\":7135:7139   */\n      0x60\n        /* \"#utility.yul\":7130:7133   */\n      dup4\n        /* \"#utility.yul\":7126:7140   */\n      add\n        /* \"#utility.yul\":7222:7226   */\n      0x00\n        /* \"#utility.yul\":7215:7220   */\n      dup4\n        /* \"#utility.yul\":7211:7227   */\n      add\n        /* \"#utility.yul\":7205:7228   */\n      mload\n        /* \"#utility.yul\":7275:7278   */\n      dup5\n        /* \"#utility.yul\":7269:7273   */\n      dup3\n        /* \"#utility.yul\":7265:7279   */\n      sub\n        /* \"#utility.yul\":7258:7262   */\n      0x00\n        /* \"#utility.yul\":7253:7256   */\n      dup7\n        /* \"#utility.yul\":7249:7263   */\n      add\n        /* \"#utility.yul\":7242:7280   */\n      mstore\n        /* \"#utility.yul\":7301:7374   */\n      tag_219\n        /* \"#utility.yul\":7369:7373   */\n      dup3\n        /* \"#utility.yul\":7355:7367   */\n      dup3\n        /* \"#utility.yul\":7301:7374   */\n      tag_121\n      jump\t// in\n    tag_219:\n        /* \"#utility.yul\":7293:7374   */\n      swap2\n      pop\n        /* \"#utility.yul\":7150:7385   */\n      pop\n        /* \"#utility.yul\":7467:7471   */\n      0x20\n        /* \"#utility.yul\":7460:7465   */\n      dup4\n        /* \"#utility.yul\":7456:7472   */\n      add\n        /* \"#utility.yul\":7450:7473   */\n      mload\n        /* \"#utility.yul\":7520:7523   */\n      dup5\n        /* \"#utility.yul\":7514:7518   */\n      dup3\n        /* \"#utility.yul\":7510:7524   */\n      sub\n        /* \"#utility.yul\":7503:7507   */\n      0x20\n        /* \"#utility.yul\":7498:7501   */\n      dup7\n        /* \"#utility.yul\":7494:7508   */\n      add\n        /* \"#utility.yul\":7487:7525   */\n      mstore\n        /* \"#utility.yul\":7546:7619   */\n      tag_220\n        /* \"#utility.yul\":7614:7618   */\n      dup3\n        /* \"#utility.yul\":7600:7612   */\n      dup3\n        /* \"#utility.yul\":7546:7619   */\n      tag_121\n      jump\t// in\n    tag_220:\n        /* \"#utility.yul\":7538:7619   */\n      swap2\n      pop\n        /* \"#utility.yul\":7395:7630   */\n      pop\n        /* \"#utility.yul\":7713:7717   */\n      0x40\n        /* \"#utility.yul\":7706:7711   */\n      dup4\n        /* \"#utility.yul\":7702:7718   */\n      add\n        /* \"#utility.yul\":7696:7719   */\n      mload\n        /* \"#utility.yul\":7732:7795   */\n      tag_221\n        /* \"#utility.yul\":7789:7793   */\n      0x40\n        /* \"#utility.yul\":7784:7787   */\n      dup7\n        /* \"#utility.yul\":7780:7794   */\n      add\n        /* \"#utility.yul\":7766:7778   */\n      dup3\n        /* \"#utility.yul\":7732:7795   */\n      tag_125\n      jump\t// in\n    tag_221:\n        /* \"#utility.yul\":7640:7805   */\n      pop\n        /* \"#utility.yul\":7822:7826   */\n      dup1\n        /* \"#utility.yul\":7815:7826   */\n      swap2\n      pop\n        /* \"#utility.yul\":7104:7832   */\n      pop\n        /* \"#utility.yul\":6990:7832   */\n      swap3\n      swap2\n      pop\n      pop\n      jump\t// out\n        /* \"#utility.yul\":7838:8094   */\n    tag_127:\n        /* \"#utility.yul\":7957:7967   */\n      0x00\n        /* \"#utility.yul\":7992:8088   */\n      tag_223\n        /* \"#utility.yul\":8084:8087   */\n      dup4\n        /* \"#utility.yul\":8076:8082   */\n      dup4\n        /* \"#utility.yul\":7992:8088   */\n      tag_126\n      jump\t// in\n    tag_223:\n        /* \"#utility.yul\":7978:8088   */\n      swap1\n      pop\n        /* \"#utility.yul\":7838:8094   */\n      swap3\n      swap2\n      pop\n      pop\n      jump\t// out\n        /* \"#utility.yul\":8100:8238   */\n    tag_128:\n        /* \"#utility.yul\":8195:8199   */\n      0x00\n        /* \"#utility.yul\":8227:8231   */\n      0x20\n        /* \"#utility.yul\":8222:8225   */\n      dup3\n        /* \"#utility.yul\":8218:8232   */\n      add\n        /* \"#utility.yul\":8210:8232   */\n      swap1\n      pop\n        /* \"#utility.yul\":8100:8238   */\n      swap2\n      swap1\n      pop\n      jump\t// out\n        /* \"#utility.yul\":8306:9397   */\n    tag_129:\n        /* \"#utility.yul\":8465:8468   */\n      0x00\n        /* \"#utility.yul\":8494:8573   */\n      tag_226\n        /* \"#utility.yul\":8567:8572   */\n      dup3\n        /* \"#utility.yul\":8494:8573   */\n      tag_122\n      jump\t// in\n    tag_226:\n        /* \"#utility.yul\":8589:8690   */\n      tag_227\n        /* \"#utility.yul\":8683:8689   */\n      dup2\n        /* \"#utility.yul\":8678:8681   */\n      dup6\n        /* \"#utility.yul\":8589:8690   */\n      tag_123\n      jump\t// in\n    tag_227:\n        /* \"#utility.yul\":8582:8690   */\n      swap4\n      pop\n        /* \"#utility.yul\":8716:8719   */\n      dup4\n        /* \"#utility.yul\":8761:8765   */\n      0x20\n        /* \"#utility.yul\":8753:8759   */\n      dup3\n        /* \"#utility.yul\":8749:8766   */\n      mul\n        /* \"#utility.yul\":8744:8747   */\n      dup6\n        /* \"#utility.yul\":8740:8767   */\n      add\n        /* \"#utility.yul\":8791:8872   */\n      tag_228\n        /* \"#utility.yul\":8866:8871   */\n      dup6\n        /* \"#utility.yul\":8791:8872   */\n      tag_124\n      jump\t// in\n    tag_228:\n        /* \"#utility.yul\":8895:8902   */\n      dup1\n        /* \"#utility.yul\":8926:8927   */\n      0x00\n        /* \"#utility.yul\":8911:9352   */\n    tag_229:\n        /* \"#utility.yul\":8936:8942   */\n      dup6\n        /* \"#utility.yul\":8933:8934   */\n      dup2\n        /* \"#utility.yul\":8930:8943   */\n      lt\n        /* \"#utility.yul\":8911:9352   */\n      iszero\n      tag_231\n      jumpi\n        /* \"#utility.yul\":9007:9016   */\n      dup5\n        /* \"#utility.yul\":9001:9005   */\n      dup5\n        /* \"#utility.yul\":8997:9017   */\n      sub\n        /* \"#utility.yul\":8992:8995   */\n      dup10\n        /* \"#utility.yul\":8985:9018   */\n      mstore\n        /* \"#utility.yul\":9058:9064   */\n      dup2\n        /* \"#utility.yul\":9052:9065   */\n      mload\n        /* \"#utility.yul\":9086:9200   */\n      tag_232\n        /* \"#utility.yul\":9195:9199   */\n      dup6\n        /* \"#utility.yul\":9180:9193   */\n      dup3\n        /* \"#utility.yul\":9086:9200   */\n      tag_127\n      jump\t// in\n    tag_232:\n        /* \"#utility.yul\":9078:9200   */\n      swap5\n      pop\n        /* \"#utility.yul\":9223:9308   */\n      tag_233\n        /* \"#utility.yul\":9301:9307   */\n      dup4\n        /* \"#utility.yul\":9223:9308   */\n      tag_128\n      jump\t// in\n    tag_233:\n        /* \"#utility.yul\":9213:9308   */\n      swap3\n      pop\n        /* \"#utility.yul\":9337:9341   */\n      0x20\n        /* \"#utility.yul\":9332:9335   */\n      dup11\n        /* \"#utility.yul\":9328:9342   */\n      add\n        /* \"#utility.yul\":9321:9342   */\n      swap10\n      pop\n        /* \"#utility.yul\":8971:9352   */\n      pop\n        /* \"#utility.yul\":8958:8959   */\n      0x01\n        /* \"#utility.yul\":8955:8956   */\n      dup2\n        /* \"#utility.yul\":8951:8960   */\n      add\n        /* \"#utility.yul\":8946:8960   */\n      swap1\n      pop\n        /* \"#utility.yul\":8911:9352   */\n      jump(tag_229)\n    tag_231:\n        /* \"#utility.yul\":8915:8929   */\n      pop\n        /* \"#utility.yul\":9368:9372   */\n      dup3\n        /* \"#utility.yul\":9361:9372   */\n      swap8\n      pop\n        /* \"#utility.yul\":9388:9391   */\n      dup8\n        /* \"#utility.yul\":9381:9391   */\n      swap6\n      pop\n        /* \"#utility.yul\":8470:9397   */\n      pop\n      pop\n      pop\n      pop\n      pop\n        /* \"#utility.yul\":8306:9397   */\n      swap3\n      swap2\n      pop\n      pop\n      jump\t// out\n        /* \"#utility.yul\":9459:10220   */\n    tag_130:\n        /* \"#utility.yul\":9576:9579   */\n      0x00\n        /* \"#utility.yul\":9612:9616   */\n      0x40\n        /* \"#utility.yul\":9607:9610   */\n      dup4\n        /* \"#utility.yul\":9603:9617   */\n      add\n        /* \"#utility.yul\":9699:9703   */\n      0x00\n        /* \"#utility.yul\":9692:9697   */\n      dup4\n        /* \"#utility.yul\":9688:9704   */\n      add\n        /* \"#utility.yul\":9682:9705   */\n      mload\n        /* \"#utility.yul\":9752:9755   */\n      dup5\n        /* \"#utility.yul\":9746:9750   */\n      dup3\n        /* \"#utility.yul\":9742:9756   */\n      sub\n        /* \"#utility.yul\":9735:9739   */\n      0x00\n        /* \"#utility.yul\":9730:9733   */\n      dup7\n        /* \"#utility.yul\":9726:9740   */\n      add\n        /* \"#utility.yul\":9719:9757   */\n      mstore\n        /* \"#utility.yul\":9778:9851   */\n      tag_235\n        /* \"#utility.yul\":9846:9850   */\n      dup3\n        /* \"#utility.yul\":9832:9844   */\n      dup3\n        /* \"#utility.yul\":9778:9851   */\n      tag_121\n      jump\t// in\n    tag_235:\n        /* \"#utility.yul\":9770:9851   */\n      swap2\n      pop\n        /* \"#utility.yul\":9627:9862   */\n      pop\n        /* \"#utility.yul\":9950:9954   */\n      0x20\n        /* \"#utility.yul\":9943:9948   */\n      dup4\n        /* \"#utility.yul\":9939:9955   */\n      add\n        /* \"#utility.yul\":9933:9956   */\n      mload\n        /* \"#utility.yul\":10003:10006   */\n      dup5\n        /* \"#utility.yul\":9997:10001   */\n      dup3\n        /* \"#utility.yul\":9993:10007   */\n      sub\n        /* \"#utility.yul\":9986:9990   */\n      0x20\n        /* \"#utility.yul\":9981:9984   */\n      dup7\n        /* \"#utility.yul\":9977:9991   */\n      add\n        /* \"#utility.yul\":9970:10008   */\n      mstore\n        /* \"#utility.yul\":10029:10182   */\n      tag_236\n        /* \"#utility.yul\":10177:10181   */\n      dup3\n        /* \"#utility.yul\":10163:10175   */\n      dup3\n        /* \"#utility.yul\":10029:10182   */\n      tag_129\n      jump\t// in\n    tag_236:\n        /* \"#utility.yul\":10021:10182   */\n      swap2\n      pop\n        /* \"#utility.yul\":9872:10193   */\n      pop\n        /* \"#utility.yul\":10210:10214   */\n      dup1\n        /* \"#utility.yul\":10203:10214   */\n      swap2\n      pop\n        /* \"#utility.yul\":9581:10220   */\n      pop\n        /* \"#utility.yul\":9459:10220   */\n      swap3\n      swap2\n      pop\n      pop\n      jump\t// out\n        /* \"#utility.yul\":10226:10595   */\n    tag_27:\n        /* \"#utility.yul\":10367:10371   */\n      0x00\n        /* \"#utility.yul\":10405:10407   */\n      0x20\n        /* \"#utility.yul\":10394:10403   */\n      dup3\n        /* \"#utility.yul\":10390:10408   */\n      add\n        /* \"#utility.yul\":10382:10408   */\n      swap1\n      pop\n        /* \"#utility.yul\":10454:10463   */\n      dup2\n        /* \"#utility.yul\":10448:10452   */\n      dup2\n        /* \"#utility.yul\":10444:10464   */\n      sub\n        /* \"#utility.yul\":10440:10441   */\n      0x00\n        /* \"#utility.yul\":10429:10438   */\n      dup4\n        /* \"#utility.yul\":10425:10442   */\n      add\n        /* \"#utility.yul\":10418:10465   */\n      mstore\n        /* \"#utility.yul\":10482:10588   */\n      tag_238\n        /* \"#utility.yul\":10583:10587   */\n      dup2\n        /* \"#utility.yul\":10574:10580   */\n      dup5\n        /* \"#utility.yul\":10482:10588   */\n      tag_130\n      jump\t// in\n    tag_238:\n        /* \"#utility.yul\":10474:10588   */\n      swap1\n      pop\n        /* \"#utility.yul\":10226:10595   */\n      swap3\n      swap2\n      pop\n      pop\n      jump\t// out\n        /* \"#utility.yul\":10601:10823   */\n    tag_31:\n        /* \"#utility.yul\":10694:10698   */\n      0x00\n        /* \"#utility.yul\":10732:10734   */\n      0x20\n        /* \"#utility.yul\":10721:10730   */\n      dup3\n        /* \"#utility.yul\":10717:10735   */\n      add\n        /* \"#utility.yul\":10709:10735   */\n      swap1\n      pop\n        /* \"#utility.yul\":10745:10816   */\n      tag_240\n        /* \"#utility.yul\":10813:10814   */\n      0x00\n        /* \"#utility.yul\":10802:10811   */\n      dup4\n        /* \"#utility.yul\":10798:10815   */\n      add\n        /* \"#utility.yul\":10789:10795   */\n      dup5\n        /* \"#utility.yul\":10745:10816   */\n      tag_119\n      jump\t// in\n    tag_240:\n        /* \"#utility.yul\":10601:10823   */\n      swap3\n      swap2\n      pop\n      pop\n      jump\t// out\n        /* \"#utility.yul\":10829:10955   */\n    tag_131:\n        /* \"#utility.yul\":10866:10873   */\n      0x00\n        /* \"#utility.yul\":10906:10948   */\n      0xffffffffffffffffffffffffffffffffffffffff\n        /* \"#utility.yul\":10899:10904   */\n      dup3\n        /* \"#utility.yul\":10895:10949   */\n      and\n        /* \"#utility.yul\":10884:10949   */\n      swap1\n      pop\n        /* \"#utility.yul\":10829:10955   */\n      swap2\n      swap1\n      pop\n      jump\t// out\n        /* \"#utility.yul\":10961:11057   */\n    tag_132:\n        /* \"#utility.yul\":10998:11005   */\n      0x00\n        /* \"#utility.yul\":11027:11051   */\n      tag_243\n        /* \"#utility.yul\":11045:11050   */\n      dup3\n        /* \"#utility.yul\":11027:11051   */\n      tag_131\n      jump\t// in\n    tag_243:\n        /* \"#utility.yul\":11016:11051   */\n      swap1\n      pop\n        /* \"#utility.yul\":10961:11057   */\n      swap2\n      swap1\n      pop\n      jump\t// out\n        /* \"#utility.yul\":11063:11181   */\n    tag_133:\n        /* \"#utility.yul\":11150:11174   */\n      tag_245\n        /* \"#utility.yul\":11168:11173   */\n      dup2\n        /* \"#utility.yul\":11150:11174   */\n      tag_132\n      jump\t// in\n    tag_245:\n        /* \"#utility.yul\":11145:11148   */\n      dup3\n        /* \"#utility.yul\":11138:11175   */\n      mstore\n        /* \"#utility.yul\":11063:11181   */\n      pop\n      pop\n      jump\t// out\n        /* \"#utility.yul\":11187:11409   */\n    tag_35:\n        /* \"#utility.yul\":11280:11284   */\n      0x00\n        /* \"#utility.yul\":11318:11320   */\n      0x20\n        /* \"#utility.yul\":11307:11316   */\n      dup3\n        /* \"#utility.yul\":11303:11321   */\n      add\n        /* \"#utility.yul\":11295:11321   */\n      swap1\n      pop\n        /* \"#utility.yul\":11331:11402   */\n      tag_247\n        /* \"#utility.yul\":11399:11400   */\n      0x00\n        /* \"#utility.yul\":11388:11397   */\n      dup4\n        /* \"#utility.yul\":11384:11401   */\n      add\n        /* \"#utility.yul\":11375:11381   */\n      dup5\n        /* \"#utility.yul\":11331:11402   */\n      tag_133\n      jump\t// in\n    tag_247:\n        /* \"#utility.yul\":11187:11409   */\n      swap3\n      swap2\n      pop\n      pop\n      jump\t// out\n        /* \"#utility.yul\":11415:11595   */\n    tag_134:\n        /* \"#utility.yul\":11463:11540   */\n      0x4e487b7100000000000000000000000000000000000000000000000000000000\n        /* \"#utility.yul\":11460:11461   */\n      0x00\n        /* \"#utility.yul\":11453:11541   */\n      mstore\n        /* \"#utility.yul\":11560:11564   */\n      0x22\n        /* \"#utility.yul\":11557:11558   */\n      0x04\n        /* \"#utility.yul\":11550:11565   */\n      mstore\n        /* \"#utility.yul\":11584:11588   */\n      0x24\n        /* \"#utility.yul\":11581:11582   */\n      0x00\n        /* \"#utility.yul\":11574:11589   */\n      revert\n        /* \"#utility.yul\":11601:11921   */\n    tag_37:\n        /* \"#utility.yul\":11645:11651   */\n      0x00\n        /* \"#utility.yul\":11682:11683   */\n      0x02\n        /* \"#utility.yul\":11676:11680   */\n      dup3\n        /* \"#utility.yul\":11672:11684   */\n      div\n        /* \"#utility.yul\":11662:11684   */\n      swap1\n      pop\n        /* \"#utility.yul\":11729:11730   */\n      0x01\n        /* \"#utility.yul\":11723:11727   */\n      dup3\n        /* \"#utility.yul\":11719:11731   */\n      and\n        /* \"#utility.yul\":11750:11768   */\n      dup1\n        /* \"#utility.yul\":11740:11821   */\n      tag_250\n      jumpi\n        /* \"#utility.yul\":11806:11810   */\n      0x7f\n        /* \"#utility.yul\":11798:11804   */\n      dup3\n        /* \"#utility.yul\":11794:11811   */\n      and\n        /* \"#utility.yul\":11784:11811   */\n      swap2\n      pop\n        /* \"#utility.yul\":11740:11821   */\n    tag_250:\n        /* \"#utility.yul\":11868:11870   */\n      0x20\n        /* \"#utility.yul\":11860:11866   */\n      dup3\n        /* \"#utility.yul\":11857:11871   */\n      lt\n        /* \"#utility.yul\":11837:11855   */\n      dup2\n        /* \"#utility.yul\":11834:11872   */\n      sub\n        /* \"#utility.yul\":11831:11915   */\n      tag_251\n      jumpi\n        /* \"#utility.yul\":11887:11905   */\n      tag_252\n      tag_134\n      jump\t// in\n    tag_252:\n        /* \"#utility.yul\":11831:11915   */\n    tag_251:\n        /* \"#utility.yul\":11652:11921   */\n      pop\n        /* \"#utility.yul\":11601:11921   */\n      swap2\n      swap1\n      pop\n      jump\t// out\n        /* \"#utility.yul\":11927:12108   */\n    tag_135:\n        /* \"#utility.yul\":12067:12100   */\n      0x4f6e6c792061646d696e2063616e20737461727420612063616d706169676e00\n        /* \"#utility.yul\":12063:12064   */\n      0x00\n        /* \"#utility.yul\":12055:12061   */\n      dup3\n        /* \"#utility.yul\":12051:12065   */\n      add\n        /* \"#utility.yul\":12044:12101   */\n      mstore\n        /* \"#utility.yul\":11927:12108   */\n      pop\n      jump\t// out\n        /* \"#utility.yul\":12114:12480   */\n    tag_136:\n        /* \"#utility.yul\":12256:12259   */\n      0x00\n        /* \"#utility.yul\":12277:12344   */\n      tag_255\n        /* \"#utility.yul\":12341:12343   */\n      0x1f\n        /* \"#utility.yul\":12336:12339   */\n      dup4\n        /* \"#utility.yul\":12277:12344   */\n      tag_113\n      jump\t// in\n    tag_255:\n        /* \"#utility.yul\":12270:12344   */\n      swap2\n      pop\n        /* \"#utility.yul\":12353:12446   */\n      tag_256\n        /* \"#utility.yul\":12442:12445   */\n      dup3\n        /* \"#utility.yul\":12353:12446   */\n      tag_135\n      jump\t// in\n    tag_256:\n        /* \"#utility.yul\":12471:12473   */\n      0x20\n        /* \"#utility.yul\":12466:12469   */\n      dup3\n        /* \"#utility.yul\":12462:12474   */\n      add\n        /* \"#utility.yul\":12455:12474   */\n      swap1\n      pop\n        /* \"#utility.yul\":12114:12480   */\n      swap2\n      swap1\n      pop\n      jump\t// out\n        /* \"#utility.yul\":12486:12905   */\n    tag_45:\n        /* \"#utility.yul\":12652:12656   */\n      0x00\n        /* \"#utility.yul\":12690:12692   */\n      0x20\n        /* \"#utility.yul\":12679:12688   */\n      dup3\n        /* \"#utility.yul\":12675:12693   */\n      add\n        /* \"#utility.yul\":12667:12693   */\n      swap1\n      pop\n        /* \"#utility.yul\":12739:12748   */\n      dup2\n        /* \"#utility.yul\":12733:12737   */\n      dup2\n        /* \"#utility.yul\":12729:12749   */\n      sub\n        /* \"#utility.yul\":12725:12726   */\n      0x00\n        /* \"#utility.yul\":12714:12723   */\n      dup4\n        /* \"#utility.yul\":12710:12727   */\n      add\n        /* \"#utility.yul\":12703:12750   */\n      mstore\n        /* \"#utility.yul\":12767:12898   */\n      tag_258\n        /* \"#utility.yul\":12893:12897   */\n      dup2\n        /* \"#utility.yul\":12767:12898   */\n      tag_136\n      jump\t// in\n    tag_258:\n        /* \"#utility.yul\":12759:12898   */\n      swap1\n      pop\n        /* \"#utility.yul\":12486:12905   */\n      swap2\n      swap1\n      pop\n      jump\t// out\n        /* \"#utility.yul\":12911:13059   */\n    tag_137:\n        /* \"#utility.yul\":13013:13024   */\n      0x00\n        /* \"#utility.yul\":13050:13053   */\n      dup2\n        /* \"#utility.yul\":13035:13053   */\n      swap1\n      pop\n        /* \"#utility.yul\":12911:13059   */\n      swap3\n      swap2\n      pop\n      pop\n      jump\t// out\n        /* \"#utility.yul\":13065:13442   */\n    tag_138:\n        /* \"#utility.yul\":13171:13174   */\n      0x00\n        /* \"#utility.yul\":13199:13238   */\n      tag_261\n        /* \"#utility.yul\":13232:13237   */\n      dup3\n        /* \"#utility.yul\":13199:13238   */\n      tag_112\n      jump\t// in\n    tag_261:\n        /* \"#utility.yul\":13254:13343   */\n      tag_262\n        /* \"#utility.yul\":13336:13342   */\n      dup2\n        /* \"#utility.yul\":13331:13334   */\n      dup6\n        /* \"#utility.yul\":13254:13343   */\n      tag_137\n      jump\t// in\n    tag_262:\n        /* \"#utility.yul\":13247:13343   */\n      swap4\n      pop\n        /* \"#utility.yul\":13352:13404   */\n      tag_263\n        /* \"#utility.yul\":13397:13403   */\n      dup2\n        /* \"#utility.yul\":13392:13395   */\n      dup6\n        /* \"#utility.yul\":13385:13389   */\n      0x20\n        /* \"#utility.yul\":13378:13383   */\n      dup7\n        /* \"#utility.yul\":13374:13390   */\n      add\n        /* \"#utility.yul\":13352:13404   */\n      tag_114\n      jump\t// in\n    tag_263:\n        /* \"#utility.yul\":13429:13435   */\n      dup1\n        /* \"#utility.yul\":13424:13427   */\n      dup5\n        /* \"#utility.yul\":13420:13436   */\n      add\n        /* \"#utility.yul\":13413:13436   */\n      swap2\n      pop\n        /* \"#utility.yul\":13175:13442   */\n      pop\n        /* \"#utility.yul\":13065:13442   */\n      swap3\n      swap2\n      pop\n      pop\n      jump\t// out\n        /* \"#utility.yul\":13448:13723   */\n    tag_47:\n        /* \"#utility.yul\":13580:13583   */\n      0x00\n        /* \"#utility.yul\":13602:13697   */\n      tag_265\n        /* \"#utility.yul\":13693:13696   */\n      dup3\n        /* \"#utility.yul\":13684:13690   */\n      dup5\n        /* \"#utility.yul\":13602:13697   */\n      tag_138\n      jump\t// in\n    tag_265:\n        /* \"#utility.yul\":13595:13697   */\n      swap2\n      pop\n        /* \"#utility.yul\":13714:13717   */\n      dup2\n        /* \"#utility.yul\":13707:13717   */\n      swap1\n      pop\n        /* \"#utility.yul\":13448:13723   */\n      swap3\n      swap2\n      pop\n      pop\n      jump\t// out\n        /* \"#utility.yul\":13729:13883   */\n    tag_139:\n        /* \"#utility.yul\":13869:13875   */\n      0x3131323200000000000000000000000000000000000000000000000000000000\n        /* \"#utility.yul\":13865:13866   */\n      0x00\n        /* \"#utility.yul\":13857:13863   */\n      dup3\n        /* \"#utility.yul\":13853:13867   */\n      add\n        /* \"#utility.yul\":13846:13876   */\n      mstore\n        /* \"#utility.yul\":13729:13883   */\n      pop\n      jump\t// out\n        /* \"#utility.yul\":13889:14289   */\n    tag_140:\n        /* \"#utility.yul\":14049:14052   */\n      0x00\n        /* \"#utility.yul\":14070:14154   */\n      tag_268\n        /* \"#utility.yul\":14152:14153   */\n      0x04\n        /* \"#utility.yul\":14147:14150   */\n      dup4\n        /* \"#utility.yul\":14070:14154   */\n      tag_137\n      jump\t// in\n    tag_268:\n        /* \"#utility.yul\":14063:14154   */\n      swap2\n      pop\n        /* \"#utility.yul\":14163:14256   */\n      tag_269\n        /* \"#utility.yul\":14252:14255   */\n      dup3\n        /* \"#utility.yul\":14163:14256   */\n      tag_139\n      jump\t// in\n    tag_269:\n        /* \"#utility.yul\":14281:14282   */\n      0x04\n        /* \"#utility.yul\":14276:14279   */\n      dup3\n        /* \"#utility.yul\":14272:14283   */\n      add\n        /* \"#utility.yul\":14265:14283   */\n      swap1\n      pop\n        /* \"#utility.yul\":13889:14289   */\n      swap2\n      swap1\n      pop\n      jump\t// out\n        /* \"#utility.yul\":14295:14676   */\n    tag_69:\n        /* \"#utility.yul\":14480:14483   */\n      0x00\n        /* \"#utility.yul\":14502:14650   */\n      tag_271\n        /* \"#utility.yul\":14646:14649   */\n      dup3\n        /* \"#utility.yul\":14502:14650   */\n      tag_140\n      jump\t// in\n    tag_271:\n        /* \"#utility.yul\":14495:14650   */\n      swap2\n      pop\n        /* \"#utility.yul\":14667:14670   */\n      dup2\n        /* \"#utility.yul\":14660:14670   */\n      swap1\n      pop\n        /* \"#utility.yul\":14295:14676   */\n      swap2\n      swap1\n      pop\n      jump\t// out\n\n    auxdata: 0xa2646970667358221220fc9b8de361523e0197c7c291739381774e9f4d3fa3114abf556ac2f0135c434364736f6c634300080d0033\n}\n",
				"bytecode": {
					"linkReferences": {},
					"object": "608060405234801561001057600080fd5b5033600260006101000a81548173ffffffffffffffffffffffffffffffffffffffff021916908373ffffffffffffffffffffffffffffffffffffffff160217905550610f54806100616000396000f3fe608060405234801561001057600080fd5b50600436106100625760003560e01c80631d39e50914610067578063202e7be4146100975780633477ee2e146100b357806386cdf604146100e5578063bf80f44a14610103578063f851a44014610121575b600080fd5b610081600480360381019061007c91906109a5565b61013f565b60405161008e9190610a76565b60405180910390f35b6100b160048036038101906100ac91906109a5565b6101fb565b005b6100cd60048036038101906100c89190610ace565b6103c2565b6040516100dc93929190610b0a565b60405180910390f35b6100ed61050c565b6040516100fa9190610d05565b60405180910390f35b61010b61075f565b6040516101189190610d27565b60405180910390f35b610129610768565b6040516101369190610d83565b60405180910390f35b60008180516020810182018051848252602083016020850120818352809550505050505060009150905080600001805461017890610dcd565b80601f01602080910402602001604051908101604052809291908181526020018280546101a490610dcd565b80156101f15780601f106101c6576101008083540402835291602001916101f1565b820191906000526020600020905b8154815290600101906020018083116101d457829003601f168201915b5050505050905081565b600260009054906101000a900473ffffffffffffffffffffffffffffffffffffffff1673ffffffffffffffffffffffffffffffffffffffff163373ffffffffffffffffffffffffffffffffffffffff161461028b576040517f08c379a000000000000000000000000000000000000000000000000000000000815260040161028290610e4a565b60405180910390fd5b6000808260405161029c9190610ea6565b90815260200160405180910390209050818160000190805190602001906102c492919061078e565b508060010160405180606001604052806040518060400160405280600681526020017f6e616d652d31000000000000000000000000000000000000000000000000000081525081526020016040518060400160405280600681526020017f7369676e2d310000000000000000000000000000000000000000000000000000815250815260200160008152509080600181540180825580915050600190039060005260206000209060030201600090919091909150600082015181600001908051906020019061039492919061078e565b5060208201518160010190805190602001906103b192919061078e565b506040820151816002015550505050565b600181815481106103d257600080fd5b90600052602060002090600302016000915090508060000180546103f590610dcd565b80601f016020809104026020016040519081016040528092919081815260200182805461042190610dcd565b801561046e5780601f106104435761010080835404028352916020019161046e565b820191906000526020600020905b81548152906001019060200180831161045157829003601f168201915b50505050509080600101805461048390610dcd565b80601f01602080910402602001604051908101604052809291908181526020018280546104af90610dcd565b80156104fc5780601f106104d1576101008083540402835291602001916104fc565b820191906000526020600020905b8154815290600101906020018083116104df57829003601f168201915b5050505050908060020154905083565b610514610814565b600060405161052290610f09565b908152602001604051809103902060405180604001604052908160008201805461054b90610dcd565b80601f016020809104026020016040519081016040528092919081815260200182805461057790610dcd565b80156105c45780601f10610599576101008083540402835291602001916105c4565b820191906000526020600020905b8154815290600101906020018083116105a757829003601f168201915b5050505050815260200160018201805480602002602001604051908101604052809291908181526020016000905b82821015610752578382906000526020600020906003020160405180606001604052908160008201805461062590610dcd565b80601f016020809104026020016040519081016040528092919081815260200182805461065190610dcd565b801561069e5780601f106106735761010080835404028352916020019161069e565b820191906000526020600020905b81548152906001019060200180831161068157829003601f168201915b505050505081526020016001820180546106b790610dcd565b80601f01602080910402602001604051908101604052809291908181526020018280546106e390610dcd565b80156107305780601f1061070557610100808354040283529160200191610730565b820191906000526020600020905b81548152906001019060200180831161071357829003601f168201915b50505050508152602001600282015481525050815260200190600101906105f2565b5050505081525050905090565b6000607b905090565b600260009054906101000a900473ffffffffffffffffffffffffffffffffffffffff1681565b82805461079a90610dcd565b90600052602060002090601f0160209004810192826107bc5760008555610803565b82601f106107d557805160ff1916838001178555610803565b82800160010185558215610803579182015b828111156108025782518255916020019190600101906107e7565b5b509050610810919061082e565b5090565b604051806040016040528060608152602001606081525090565b5b8082111561084757600081600090555060010161082f565b5090565b6000604051905090565b600080fd5b600080fd5b600080fd5b600080fd5b6000601f19601f8301169050919050565b7f4e487b7100000000000000000000000000000000000000000000000000000000600052604160045260246000fd5b6108b282610869565b810181811067ffffffffffffffff821117156108d1576108d061087a565b5b80604052505050565b60006108e461084b565b90506108f082826108a9565b919050565b600067ffffffffffffffff8211156109105761090f61087a565b5b61091982610869565b9050602081019050919050565b82818337600083830152505050565b6000610948610943846108f5565b6108da565b90508281526020810184848401111561096457610963610864565b5b61096f848285610926565b509392505050565b600082601f83011261098c5761098b61085f565b5b813561099c848260208601610935565b91505092915050565b6000602082840312156109bb576109ba610855565b5b600082013567ffffffffffffffff8111156109d9576109d861085a565b5b6109e584828501610977565b91505092915050565b600081519050919050565b600082825260208201905092915050565b60005b83811015610a28578082015181840152602081019050610a0d565b83811115610a37576000848401525b50505050565b6000610a48826109ee565b610a5281856109f9565b9350610a62818560208601610a0a565b610a6b81610869565b840191505092915050565b60006020820190508181036000830152610a908184610a3d565b905092915050565b6000819050919050565b610aab81610a98565b8114610ab657600080fd5b50565b600081359050610ac881610aa2565b92915050565b600060208284031215610ae457610ae3610855565b5b6000610af284828501610ab9565b91505092915050565b610b0481610a98565b82525050565b60006060820190508181036000830152610b248186610a3d565b90508181036020830152610b388185610a3d565b9050610b476040830184610afb565b949350505050565b600082825260208201905092915050565b6000610b6b826109ee565b610b758185610b4f565b9350610b85818560208601610a0a565b610b8e81610869565b840191505092915050565b600081519050919050565b600082825260208201905092915050565b6000819050602082019050919050565b610bce81610a98565b82525050565b60006060830160008301518482036000860152610bf18282610b60565b91505060208301518482036020860152610c0b8282610b60565b9150506040830151610c206040860182610bc5565b508091505092915050565b6000610c378383610bd4565b905092915050565b6000602082019050919050565b6000610c5782610b99565b610c618185610ba4565b935083602082028501610c7385610bb5565b8060005b85811015610caf5784840389528151610c908582610c2b565b9450610c9b83610c3f565b925060208a01995050600181019050610c77565b50829750879550505050505092915050565b60006040830160008301518482036000860152610cde8282610b60565b91505060208301518482036020860152610cf88282610c4c565b9150508091505092915050565b60006020820190508181036000830152610d1f8184610cc1565b905092915050565b6000602082019050610d3c6000830184610afb565b92915050565b600073ffffffffffffffffffffffffffffffffffffffff82169050919050565b6000610d6d82610d42565b9050919050565b610d7d81610d62565b82525050565b6000602082019050610d986000830184610d74565b92915050565b7f4e487b7100000000000000000000000000000000000000000000000000000000600052602260045260246000fd5b60006002820490506001821680610de557607f821691505b602082108103610df857610df7610d9e565b5b50919050565b7f4f6e6c792061646d696e2063616e20737461727420612063616d706169676e00600082015250565b6000610e34601f836109f9565b9150610e3f82610dfe565b602082019050919050565b60006020820190508181036000830152610e6381610e27565b9050919050565b600081905092915050565b6000610e80826109ee565b610e8a8185610e6a565b9350610e9a818560208601610a0a565b80840191505092915050565b6000610eb28284610e75565b915081905092915050565b7f3131323200000000000000000000000000000000000000000000000000000000600082015250565b6000610ef3600483610e6a565b9150610efe82610ebd565b600482019050919050565b6000610f1482610ee6565b915081905091905056fea2646970667358221220fc9b8de361523e0197c7c291739381774e9f4d3fa3114abf556ac2f0135c434364736f6c634300080d0033",
					"opcodes": "PUSH1 0x80 PUSH1 0x40 MSTORE CALLVALUE DUP1 ISZERO PUSH2 0x10 JUMPI PUSH1 0x0 DUP1 REVERT JUMPDEST POP CALLER PUSH1 0x2 PUSH1 0x0 PUSH2 0x100 EXP DUP2 SLOAD DUP2 PUSH20 0xFFFFFFFFFFFFFFFFFFFFFFFFFFFFFFFFFFFFFFFF MUL NOT AND SWAP1 DUP4 PUSH20 0xFFFFFFFFFFFFFFFFFFFFFFFFFFFFFFFFFFFFFFFF AND MUL OR SWAP1 SSTORE POP PUSH2 0xF54 DUP1 PUSH2 0x61 PUSH1 0x0 CODECOPY PUSH1 0x0 RETURN INVALID PUSH1 0x80 PUSH1 0x40 MSTORE CALLVALUE DUP1 ISZERO PUSH2 0x10 JUMPI PUSH1 0x0 DUP1 REVERT JUMPDEST POP PUSH1 0x4 CALLDATASIZE LT PUSH2 0x62 JUMPI PUSH1 0x0 CALLDATALOAD PUSH1 0xE0 SHR DUP1 PUSH4 0x1D39E509 EQ PUSH2 0x67 JUMPI DUP1 PUSH4 0x202E7BE4 EQ PUSH2 0x97 JUMPI DUP1 PUSH4 0x3477EE2E EQ PUSH2 0xB3 JUMPI DUP1 PUSH4 0x86CDF604 EQ PUSH2 0xE5 JUMPI DUP1 PUSH4 0xBF80F44A EQ PUSH2 0x103 JUMPI DUP1 PUSH4 0xF851A440 EQ PUSH2 0x121 JUMPI JUMPDEST PUSH1 0x0 DUP1 REVERT JUMPDEST PUSH2 0x81 PUSH1 0x4 DUP1 CALLDATASIZE SUB DUP2 ADD SWAP1 PUSH2 0x7C SWAP2 SWAP1 PUSH2 0x9A5 JUMP JUMPDEST PUSH2 0x13F JUMP JUMPDEST PUSH1 0x40 MLOAD PUSH2 0x8E SWAP2 SWAP1 PUSH2 0xA76 JUMP JUMPDEST PUSH1 0x40 MLOAD DUP1 SWAP2 SUB SWAP1 RETURN JUMPDEST PUSH2 0xB1 PUSH1 0x4 DUP1 CALLDATASIZE SUB DUP2 ADD SWAP1 PUSH2 0xAC SWAP2 SWAP1 PUSH2 0x9A5 JUMP JUMPDEST PUSH2 0x1FB JUMP JUMPDEST STOP JUMPDEST PUSH2 0xCD PUSH1 0x4 DUP1 CALLDATASIZE SUB DUP2 ADD SWAP1 PUSH2 0xC8 SWAP2 SWAP1 PUSH2 0xACE JUMP JUMPDEST PUSH2 0x3C2 JUMP JUMPDEST PUSH1 0x40 MLOAD PUSH2 0xDC SWAP4 SWAP3 SWAP2 SWAP1 PUSH2 0xB0A JUMP JUMPDEST PUSH1 0x40 MLOAD DUP1 SWAP2 SUB SWAP1 RETURN JUMPDEST PUSH2 0xED PUSH2 0x50C JUMP JUMPDEST PUSH1 0x40 MLOAD PUSH2 0xFA SWAP2 SWAP1 PUSH2 0xD05 JUMP JUMPDEST PUSH1 0x40 MLOAD DUP1 SWAP2 SUB SWAP1 RETURN JUMPDEST PUSH2 0x10B PUSH2 0x75F JUMP JUMPDEST PUSH1 0x40 MLOAD PUSH2 0x118 SWAP2 SWAP1 PUSH2 0xD27 JUMP JUMPDEST PUSH1 0x40 MLOAD DUP1 SWAP2 SUB SWAP1 RETURN JUMPDEST PUSH2 0x129 PUSH2 0x768 JUMP JUMPDEST PUSH1 0x40 MLOAD PUSH2 0x136 SWAP2 SWAP1 PUSH2 0xD83 JUMP JUMPDEST PUSH1 0x40 MLOAD DUP1 SWAP2 SUB SWAP1 RETURN JUMPDEST PUSH1 0x0 DUP2 DUP1 MLOAD PUSH1 0x20 DUP2 ADD DUP3 ADD DUP1 MLOAD DUP5 DUP3 MSTORE PUSH1 0x20 DUP4 ADD PUSH1 0x20 DUP6 ADD KECCAK256 DUP2 DUP4 MSTORE DUP1 SWAP6 POP POP POP POP POP POP PUSH1 0x0 SWAP2 POP SWAP1 POP DUP1 PUSH1 0x0 ADD DUP1 SLOAD PUSH2 0x178 SWAP1 PUSH2 0xDCD JUMP JUMPDEST DUP1 PUSH1 0x1F ADD PUSH1 0x20 DUP1 SWAP2 DIV MUL PUSH1 0x20 ADD PUSH1 0x40 MLOAD SWAP1 DUP2 ADD PUSH1 0x40 MSTORE DUP1 SWAP3 SWAP2 SWAP1 DUP2 DUP2 MSTORE PUSH1 0x20 ADD DUP3 DUP1 SLOAD PUSH2 0x1A4 SWAP1 PUSH2 0xDCD JUMP JUMPDEST DUP1 ISZERO PUSH2 0x1F1 JUMPI DUP1 PUSH1 0x1F LT PUSH2 0x1C6 JUMPI PUSH2 0x100 DUP1 DUP4 SLOAD DIV MUL DUP4 MSTORE SWAP2 PUSH1 0x20 ADD SWAP2 PUSH2 0x1F1 JUMP JUMPDEST DUP3 ADD SWAP2 SWAP1 PUSH1 0x0 MSTORE PUSH1 0x20 PUSH1 0x0 KECCAK256 SWAP1 JUMPDEST DUP2 SLOAD DUP2 MSTORE SWAP1 PUSH1 0x1 ADD SWAP1 PUSH1 0x20 ADD DUP1 DUP4 GT PUSH2 0x1D4 JUMPI DUP3 SWAP1 SUB PUSH1 0x1F AND DUP3 ADD SWAP2 JUMPDEST POP POP POP POP POP SWAP1 POP DUP2 JUMP JUMPDEST PUSH1 0x2 PUSH1 0x0 SWAP1 SLOAD SWAP1 PUSH2 0x100 EXP SWAP1 DIV PUSH20 0xFFFFFFFFFFFFFFFFFFFFFFFFFFFFFFFFFFFFFFFF AND PUSH20 0xFFFFFFFFFFFFFFFFFFFFFFFFFFFFFFFFFFFFFFFF AND CALLER PUSH20 0xFFFFFFFFFFFFFFFFFFFFFFFFFFFFFFFFFFFFFFFF AND EQ PUSH2 0x28B JUMPI PUSH1 0x40 MLOAD PUSH32 0x8C379A000000000000000000000000000000000000000000000000000000000 DUP2 MSTORE PUSH1 0x4 ADD PUSH2 0x282 SWAP1 PUSH2 0xE4A JUMP JUMPDEST PUSH1 0x40 MLOAD DUP1 SWAP2 SUB SWAP1 REVERT JUMPDEST PUSH1 0x0 DUP1 DUP3 PUSH1 0x40 MLOAD PUSH2 0x29C SWAP2 SWAP1 PUSH2 0xEA6 JUMP JUMPDEST SWAP1 DUP2 MSTORE PUSH1 0x20 ADD PUSH1 0x40 MLOAD DUP1 SWAP2 SUB SWAP1 KECCAK256 SWAP1 POP DUP2 DUP2 PUSH1 0x0 ADD SWAP1 DUP1 MLOAD SWAP1 PUSH1 0x20 ADD SWAP1 PUSH2 0x2C4 SWAP3 SWAP2 SWAP1 PUSH2 0x78E JUMP JUMPDEST POP DUP1 PUSH1 0x1 ADD PUSH1 0x40 MLOAD DUP1 PUSH1 0x60 ADD PUSH1 0x40 MSTORE DUP1 PUSH1 0x40 MLOAD DUP1 PUSH1 0x40 ADD PUSH1 0x40 MSTORE DUP1 PUSH1 0x6 DUP2 MSTORE PUSH1 0x20 ADD PUSH32 0x6E616D652D310000000000000000000000000000000000000000000000000000 DUP2 MSTORE POP DUP2 MSTORE PUSH1 0x20 ADD PUSH1 0x40 MLOAD DUP1 PUSH1 0x40 ADD PUSH1 0x40 MSTORE DUP1 PUSH1 0x6 DUP2 MSTORE PUSH1 0x20 ADD PUSH32 0x7369676E2D310000000000000000000000000000000000000000000000000000 DUP2 MSTORE POP DUP2 MSTORE PUSH1 0x20 ADD PUSH1 0x0 DUP2 MSTORE POP SWAP1 DUP1 PUSH1 0x1 DUP2 SLOAD ADD DUP1 DUP3 SSTORE DUP1 SWAP2 POP POP PUSH1 0x1 SWAP1 SUB SWAP1 PUSH1 0x0 MSTORE PUSH1 0x20 PUSH1 0x0 KECCAK256 SWAP1 PUSH1 0x3 MUL ADD PUSH1 0x0 SWAP1 SWAP2 SWAP1 SWAP2 SWAP1 SWAP2 POP PUSH1 0x0 DUP3 ADD MLOAD DUP2 PUSH1 0x0 ADD SWAP1 DUP1 MLOAD SWAP1 PUSH1 0x20 ADD SWAP1 PUSH2 0x394 SWAP3 SWAP2 SWAP1 PUSH2 0x78E JUMP JUMPDEST POP PUSH1 0x20 DUP3 ADD MLOAD DUP2 PUSH1 0x1 ADD SWAP1 DUP1 MLOAD SWAP1 PUSH1 0x20 ADD SWAP1 PUSH2 0x3B1 SWAP3 SWAP2 SWAP1 PUSH2 0x78E JUMP JUMPDEST POP PUSH1 0x40 DUP3 ADD MLOAD DUP2 PUSH1 0x2 ADD SSTORE POP POP POP POP JUMP JUMPDEST PUSH1 0x1 DUP2 DUP2 SLOAD DUP2 LT PUSH2 0x3D2 JUMPI PUSH1 0x0 DUP1 REVERT JUMPDEST SWAP1 PUSH1 0x0 MSTORE PUSH1 0x20 PUSH1 0x0 KECCAK256 SWAP1 PUSH1 0x3 MUL ADD PUSH1 0x0 SWAP2 POP SWAP1 POP DUP1 PUSH1 0x0 ADD DUP1 SLOAD PUSH2 0x3F5 SWAP1 PUSH2 0xDCD JUMP JUMPDEST DUP1 PUSH1 0x1F ADD PUSH1 0x20 DUP1 SWAP2 DIV MUL PUSH1 0x20 ADD PUSH1 0x40 MLOAD SWAP1 DUP2 ADD PUSH1 0x40 MSTORE DUP1 SWAP3 SWAP2 SWAP1 DUP2 DUP2 MSTORE PUSH1 0x20 ADD DUP3 DUP1 SLOAD PUSH2 0x421 SWAP1 PUSH2 0xDCD JUMP JUMPDEST DUP1 ISZERO PUSH2 0x46E JUMPI DUP1 PUSH1 0x1F LT PUSH2 0x443 JUMPI PUSH2 0x100 DUP1 DUP4 SLOAD DIV MUL DUP4 MSTORE SWAP2 PUSH1 0x20 ADD SWAP2 PUSH2 0x46E JUMP JUMPDEST DUP3 ADD SWAP2 SWAP1 PUSH1 0x0 MSTORE PUSH1 0x20 PUSH1 0x0 KECCAK256 SWAP1 JUMPDEST DUP2 SLOAD DUP2 MSTORE SWAP1 PUSH1 0x1 ADD SWAP1 PUSH1 0x20 ADD DUP1 DUP4 GT PUSH2 0x451 JUMPI DUP3 SWAP1 SUB PUSH1 0x1F AND DUP3 ADD SWAP2 JUMPDEST POP POP POP POP POP SWAP1 DUP1 PUSH1 0x1 ADD DUP1 SLOAD PUSH2 0x483 SWAP1 PUSH2 0xDCD JUMP JUMPDEST DUP1 PUSH1 0x1F ADD PUSH1 0x20 DUP1 SWAP2 DIV MUL PUSH1 0x20 ADD PUSH1 0x40 MLOAD SWAP1 DUP2 ADD PUSH1 0x40 MSTORE DUP1 SWAP3 SWAP2 SWAP1 DUP2 DUP2 MSTORE PUSH1 0x20 ADD DUP3 DUP1 SLOAD PUSH2 0x4AF SWAP1 PUSH2 0xDCD JUMP JUMPDEST DUP1 ISZERO PUSH2 0x4FC JUMPI DUP1 PUSH1 0x1F LT PUSH2 0x4D1 JUMPI PUSH2 0x100 DUP1 DUP4 SLOAD DIV MUL DUP4 MSTORE SWAP2 PUSH1 0x20 ADD SWAP2 PUSH2 0x4FC JUMP JUMPDEST DUP3 ADD SWAP2 SWAP1 PUSH1 0x0 MSTORE PUSH1 0x20 PUSH1 0x0 KECCAK256 SWAP1 JUMPDEST DUP2 SLOAD DUP2 MSTORE SWAP1 PUSH1 0x1 ADD SWAP1 PUSH1 0x20 ADD DUP1 DUP4 GT PUSH2 0x4DF JUMPI DUP3 SWAP1 SUB PUSH1 0x1F AND DUP3 ADD SWAP2 JUMPDEST POP POP POP POP POP SWAP1 DUP1 PUSH1 0x2 ADD SLOAD SWAP1 POP DUP4 JUMP JUMPDEST PUSH2 0x514 PUSH2 0x814 JUMP JUMPDEST PUSH1 0x0 PUSH1 0x40 MLOAD PUSH2 0x522 SWAP1 PUSH2 0xF09 JUMP JUMPDEST SWAP1 DUP2 MSTORE PUSH1 0x20 ADD PUSH1 0x40 MLOAD DUP1 SWAP2 SUB SWAP1 KECCAK256 PUSH1 0x40 MLOAD DUP1 PUSH1 0x40 ADD PUSH1 0x40 MSTORE SWAP1 DUP2 PUSH1 0x0 DUP3 ADD DUP1 SLOAD PUSH2 0x54B SWAP1 PUSH2 0xDCD JUMP JUMPDEST DUP1 PUSH1 0x1F ADD PUSH1 0x20 DUP1 SWAP2 DIV MUL PUSH1 0x20 ADD PUSH1 0x40 MLOAD SWAP1 DUP2 ADD PUSH1 0x40 MSTORE DUP1 SWAP3 SWAP2 SWAP1 DUP2 DUP2 MSTORE PUSH1 0x20 ADD DUP3 DUP1 SLOAD PUSH2 0x577 SWAP1 PUSH2 0xDCD JUMP JUMPDEST DUP1 ISZERO PUSH2 0x5C4 JUMPI DUP1 PUSH1 0x1F LT PUSH2 0x599 JUMPI PUSH2 0x100 DUP1 DUP4 SLOAD DIV MUL DUP4 MSTORE SWAP2 PUSH1 0x20 ADD SWAP2 PUSH2 0x5C4 JUMP JUMPDEST DUP3 ADD SWAP2 SWAP1 PUSH1 0x0 MSTORE PUSH1 0x20 PUSH1 0x0 KECCAK256 SWAP1 JUMPDEST DUP2 SLOAD DUP2 MSTORE SWAP1 PUSH1 0x1 ADD SWAP1 PUSH1 0x20 ADD DUP1 DUP4 GT PUSH2 0x5A7 JUMPI DUP3 SWAP1 SUB PUSH1 0x1F AND DUP3 ADD SWAP2 JUMPDEST POP POP POP POP POP DUP2 MSTORE PUSH1 0x20 ADD PUSH1 0x1 DUP3 ADD DUP1 SLOAD DUP1 PUSH1 0x20 MUL PUSH1 0x20 ADD PUSH1 0x40 MLOAD SWAP1 DUP2 ADD PUSH1 0x40 MSTORE DUP1 SWAP3 SWAP2 SWAP1 DUP2 DUP2 MSTORE PUSH1 0x20 ADD PUSH1 0x0 SWAP1 JUMPDEST DUP3 DUP3 LT ISZERO PUSH2 0x752 JUMPI DUP4 DUP3 SWAP1 PUSH1 0x0 MSTORE PUSH1 0x20 PUSH1 0x0 KECCAK256 SWAP1 PUSH1 0x3 MUL ADD PUSH1 0x40 MLOAD DUP1 PUSH1 0x60 ADD PUSH1 0x40 MSTORE SWAP1 DUP2 PUSH1 0x0 DUP3 ADD DUP1 SLOAD PUSH2 0x625 SWAP1 PUSH2 0xDCD JUMP JUMPDEST DUP1 PUSH1 0x1F ADD PUSH1 0x20 DUP1 SWAP2 DIV MUL PUSH1 0x20 ADD PUSH1 0x40 MLOAD SWAP1 DUP2 ADD PUSH1 0x40 MSTORE DUP1 SWAP3 SWAP2 SWAP1 DUP2 DUP2 MSTORE PUSH1 0x20 ADD DUP3 DUP1 SLOAD PUSH2 0x651 SWAP1 PUSH2 0xDCD JUMP JUMPDEST DUP1 ISZERO PUSH2 0x69E JUMPI DUP1 PUSH1 0x1F LT PUSH2 0x673 JUMPI PUSH2 0x100 DUP1 DUP4 SLOAD DIV MUL DUP4 MSTORE SWAP2 PUSH1 0x20 ADD SWAP2 PUSH2 0x69E JUMP JUMPDEST DUP3 ADD SWAP2 SWAP1 PUSH1 0x0 MSTORE PUSH1 0x20 PUSH1 0x0 KECCAK256 SWAP1 JUMPDEST DUP2 SLOAD DUP2 MSTORE SWAP1 PUSH1 0x1 ADD SWAP1 PUSH1 0x20 ADD DUP1 DUP4 GT PUSH2 0x681 JUMPI DUP3 SWAP1 SUB PUSH1 0x1F AND DUP3 ADD SWAP2 JUMPDEST POP POP POP POP POP DUP2 MSTORE PUSH1 0x20 ADD PUSH1 0x1 DUP3 ADD DUP1 SLOAD PUSH2 0x6B7 SWAP1 PUSH2 0xDCD JUMP JUMPDEST DUP1 PUSH1 0x1F ADD PUSH1 0x20 DUP1 SWAP2 DIV MUL PUSH1 0x20 ADD PUSH1 0x40 MLOAD SWAP1 DUP2 ADD PUSH1 0x40 MSTORE DUP1 SWAP3 SWAP2 SWAP1 DUP2 DUP2 MSTORE PUSH1 0x20 ADD DUP3 DUP1 SLOAD PUSH2 0x6E3 SWAP1 PUSH2 0xDCD JUMP JUMPDEST DUP1 ISZERO PUSH2 0x730 JUMPI DUP1 PUSH1 0x1F LT PUSH2 0x705 JUMPI PUSH2 0x100 DUP1 DUP4 SLOAD DIV MUL DUP4 MSTORE SWAP2 PUSH1 0x20 ADD SWAP2 PUSH2 0x730 JUMP JUMPDEST DUP3 ADD SWAP2 SWAP1 PUSH1 0x0 MSTORE PUSH1 0x20 PUSH1 0x0 KECCAK256 SWAP1 JUMPDEST DUP2 SLOAD DUP2 MSTORE SWAP1 PUSH1 0x1 ADD SWAP1 PUSH1 0x20 ADD DUP1 DUP4 GT PUSH2 0x713 JUMPI DUP3 SWAP1 SUB PUSH1 0x1F AND DUP3 ADD SWAP2 JUMPDEST POP POP POP POP POP DUP2 MSTORE PUSH1 0x20 ADD PUSH1 0x2 DUP3 ADD SLOAD DUP2 MSTORE POP POP DUP2 MSTORE PUSH1 0x20 ADD SWAP1 PUSH1 0x1 ADD SWAP1 PUSH2 0x5F2 JUMP JUMPDEST POP POP POP POP DUP2 MSTORE POP POP SWAP1 POP SWAP1 JUMP JUMPDEST PUSH1 0x0 PUSH1 0x7B SWAP1 POP SWAP1 JUMP JUMPDEST PUSH1 0x2 PUSH1 0x0 SWAP1 SLOAD SWAP1 PUSH2 0x100 EXP SWAP1 DIV PUSH20 0xFFFFFFFFFFFFFFFFFFFFFFFFFFFFFFFFFFFFFFFF AND DUP2 JUMP JUMPDEST DUP3 DUP1 SLOAD PUSH2 0x79A SWAP1 PUSH2 0xDCD JUMP JUMPDEST SWAP1 PUSH1 0x0 MSTORE PUSH1 0x20 PUSH1 0x0 KECCAK256 SWAP1 PUSH1 0x1F ADD PUSH1 0x20 SWAP1 DIV DUP2 ADD SWAP3 DUP3 PUSH2 0x7BC JUMPI PUSH1 0x0 DUP6 SSTORE PUSH2 0x803 JUMP JUMPDEST DUP3 PUSH1 0x1F LT PUSH2 0x7D5 JUMPI DUP1 MLOAD PUSH1 0xFF NOT AND DUP4 DUP1 ADD OR DUP6 SSTORE PUSH2 0x803 JUMP JUMPDEST DUP3 DUP1 ADD PUSH1 0x1 ADD DUP6 SSTORE DUP3 ISZERO PUSH2 0x803 JUMPI SWAP2 DUP3 ADD JUMPDEST DUP3 DUP2 GT ISZERO PUSH2 0x802 JUMPI DUP3 MLOAD DUP3 SSTORE SWAP2 PUSH1 0x20 ADD SWAP2 SWAP1 PUSH1 0x1 ADD SWAP1 PUSH2 0x7E7 JUMP JUMPDEST JUMPDEST POP SWAP1 POP PUSH2 0x810 SWAP2 SWAP1 PUSH2 0x82E JUMP JUMPDEST POP SWAP1 JUMP JUMPDEST PUSH1 0x40 MLOAD DUP1 PUSH1 0x40 ADD PUSH1 0x40 MSTORE DUP1 PUSH1 0x60 DUP2 MSTORE PUSH1 0x20 ADD PUSH1 0x60 DUP2 MSTORE POP SWAP1 JUMP JUMPDEST JUMPDEST DUP1 DUP3 GT ISZERO PUSH2 0x847 JUMPI PUSH1 0x0 DUP2 PUSH1 0x0 SWAP1 SSTORE POP PUSH1 0x1 ADD PUSH2 0x82F JUMP JUMPDEST POP SWAP1 JUMP JUMPDEST PUSH1 0x0 PUSH1 0x40 MLOAD SWAP1 POP SWAP1 JUMP JUMPDEST PUSH1 0x0 DUP1 REVERT JUMPDEST PUSH1 0x0 DUP1 REVERT JUMPDEST PUSH1 0x0 DUP1 REVERT JUMPDEST PUSH1 0x0 DUP1 REVERT JUMPDEST PUSH1 0x0 PUSH1 0x1F NOT PUSH1 0x1F DUP4 ADD AND SWAP1 POP SWAP2 SWAP1 POP JUMP JUMPDEST PUSH32 0x4E487B7100000000000000000000000000000000000000000000000000000000 PUSH1 0x0 MSTORE PUSH1 0x41 PUSH1 0x4 MSTORE PUSH1 0x24 PUSH1 0x0 REVERT JUMPDEST PUSH2 0x8B2 DUP3 PUSH2 0x869 JUMP JUMPDEST DUP2 ADD DUP2 DUP2 LT PUSH8 0xFFFFFFFFFFFFFFFF DUP3 GT OR ISZERO PUSH2 0x8D1 JUMPI PUSH2 0x8D0 PUSH2 0x87A JUMP JUMPDEST JUMPDEST DUP1 PUSH1 0x40 MSTORE POP POP POP JUMP JUMPDEST PUSH1 0x0 PUSH2 0x8E4 PUSH2 0x84B JUMP JUMPDEST SWAP1 POP PUSH2 0x8F0 DUP3 DUP3 PUSH2 0x8A9 JUMP JUMPDEST SWAP2 SWAP1 POP JUMP JUMPDEST PUSH1 0x0 PUSH8 0xFFFFFFFFFFFFFFFF DUP3 GT ISZERO PUSH2 0x910 JUMPI PUSH2 0x90F PUSH2 0x87A JUMP JUMPDEST JUMPDEST PUSH2 0x919 DUP3 PUSH2 0x869 JUMP JUMPDEST SWAP1 POP PUSH1 0x20 DUP2 ADD SWAP1 POP SWAP2 SWAP1 POP JUMP JUMPDEST DUP3 DUP2 DUP4 CALLDATACOPY PUSH1 0x0 DUP4 DUP4 ADD MSTORE POP POP POP JUMP JUMPDEST PUSH1 0x0 PUSH2 0x948 PUSH2 0x943 DUP5 PUSH2 0x8F5 JUMP JUMPDEST PUSH2 0x8DA JUMP JUMPDEST SWAP1 POP DUP3 DUP2 MSTORE PUSH1 0x20 DUP2 ADD DUP5 DUP5 DUP5 ADD GT ISZERO PUSH2 0x964 JUMPI PUSH2 0x963 PUSH2 0x864 JUMP JUMPDEST JUMPDEST PUSH2 0x96F DUP5 DUP3 DUP6 PUSH2 0x926 JUMP JUMPDEST POP SWAP4 SWAP3 POP POP POP JUMP JUMPDEST PUSH1 0x0 DUP3 PUSH1 0x1F DUP4 ADD SLT PUSH2 0x98C JUMPI PUSH2 0x98B PUSH2 0x85F JUMP JUMPDEST JUMPDEST DUP2 CALLDATALOAD PUSH2 0x99C DUP5 DUP3 PUSH1 0x20 DUP7 ADD PUSH2 0x935 JUMP JUMPDEST SWAP2 POP POP SWAP3 SWAP2 POP POP JUMP JUMPDEST PUSH1 0x0 PUSH1 0x20 DUP3 DUP5 SUB SLT ISZERO PUSH2 0x9BB JUMPI PUSH2 0x9BA PUSH2 0x855 JUMP JUMPDEST JUMPDEST PUSH1 0x0 DUP3 ADD CALLDATALOAD PUSH8 0xFFFFFFFFFFFFFFFF DUP2 GT ISZERO PUSH2 0x9D9 JUMPI PUSH2 0x9D8 PUSH2 0x85A JUMP JUMPDEST JUMPDEST PUSH2 0x9E5 DUP5 DUP3 DUP6 ADD PUSH2 0x977 JUMP JUMPDEST SWAP2 POP POP SWAP3 SWAP2 POP POP JUMP JUMPDEST PUSH1 0x0 DUP2 MLOAD SWAP1 POP SWAP2 SWAP1 POP JUMP JUMPDEST PUSH1 0x0 DUP3 DUP3 MSTORE PUSH1 0x20 DUP3 ADD SWAP1 POP SWAP3 SWAP2 POP POP JUMP JUMPDEST PUSH1 0x0 JUMPDEST DUP4 DUP2 LT ISZERO PUSH2 0xA28 JUMPI DUP1 DUP3 ADD MLOAD DUP2 DUP5 ADD MSTORE PUSH1 0x20 DUP2 ADD SWAP1 POP PUSH2 0xA0D JUMP JUMPDEST DUP4 DUP2 GT ISZERO PUSH2 0xA37 JUMPI PUSH1 0x0 DUP5 DUP5 ADD MSTORE JUMPDEST POP POP POP POP JUMP JUMPDEST PUSH1 0x0 PUSH2 0xA48 DUP3 PUSH2 0x9EE JUMP JUMPDEST PUSH2 0xA52 DUP2 DUP6 PUSH2 0x9F9 JUMP JUMPDEST SWAP4 POP PUSH2 0xA62 DUP2 DUP6 PUSH1 0x20 DUP7 ADD PUSH2 0xA0A JUMP JUMPDEST PUSH2 0xA6B DUP2 PUSH2 0x869 JUMP JUMPDEST DUP5 ADD SWAP2 POP POP SWAP3 SWAP2 POP POP JUMP JUMPDEST PUSH1 0x0 PUSH1 0x20 DUP3 ADD SWAP1 POP DUP2 DUP2 SUB PUSH1 0x0 DUP4 ADD MSTORE PUSH2 0xA90 DUP2 DUP5 PUSH2 0xA3D JUMP JUMPDEST SWAP1 POP SWAP3 SWAP2 POP POP JUMP JUMPDEST PUSH1 0x0 DUP2 SWAP1 POP SWAP2 SWAP1 POP JUMP JUMPDEST PUSH2 0xAAB DUP2 PUSH2 0xA98 JUMP JUMPDEST DUP2 EQ PUSH2 0xAB6 JUMPI PUSH1 0x0 DUP1 REVERT JUMPDEST POP JUMP JUMPDEST PUSH1 0x0 DUP2 CALLDATALOAD SWAP1 POP PUSH2 0xAC8 DUP2 PUSH2 0xAA2 JUMP JUMPDEST SWAP3 SWAP2 POP POP JUMP JUMPDEST PUSH1 0x0 PUSH1 0x20 DUP3 DUP5 SUB SLT ISZERO PUSH2 0xAE4 JUMPI PUSH2 0xAE3 PUSH2 0x855 JUMP JUMPDEST JUMPDEST PUSH1 0x0 PUSH2 0xAF2 DUP5 DUP3 DUP6 ADD PUSH2 0xAB9 JUMP JUMPDEST SWAP2 POP POP SWAP3 SWAP2 POP POP JUMP JUMPDEST PUSH2 0xB04 DUP2 PUSH2 0xA98 JUMP JUMPDEST DUP3 MSTORE POP POP JUMP JUMPDEST PUSH1 0x0 PUSH1 0x60 DUP3 ADD SWAP1 POP DUP2 DUP2 SUB PUSH1 0x0 DUP4 ADD MSTORE PUSH2 0xB24 DUP2 DUP7 PUSH2 0xA3D JUMP JUMPDEST SWAP1 POP DUP2 DUP2 SUB PUSH1 0x20 DUP4 ADD MSTORE PUSH2 0xB38 DUP2 DUP6 PUSH2 0xA3D JUMP JUMPDEST SWAP1 POP PUSH2 0xB47 PUSH1 0x40 DUP4 ADD DUP5 PUSH2 0xAFB JUMP JUMPDEST SWAP5 SWAP4 POP POP POP POP JUMP JUMPDEST PUSH1 0x0 DUP3 DUP3 MSTORE PUSH1 0x20 DUP3 ADD SWAP1 POP SWAP3 SWAP2 POP POP JUMP JUMPDEST PUSH1 0x0 PUSH2 0xB6B DUP3 PUSH2 0x9EE JUMP JUMPDEST PUSH2 0xB75 DUP2 DUP6 PUSH2 0xB4F JUMP JUMPDEST SWAP4 POP PUSH2 0xB85 DUP2 DUP6 PUSH1 0x20 DUP7 ADD PUSH2 0xA0A JUMP JUMPDEST PUSH2 0xB8E DUP2 PUSH2 0x869 JUMP JUMPDEST DUP5 ADD SWAP2 POP POP SWAP3 SWAP2 POP POP JUMP JUMPDEST PUSH1 0x0 DUP2 MLOAD SWAP1 POP SWAP2 SWAP1 POP JUMP JUMPDEST PUSH1 0x0 DUP3 DUP3 MSTORE PUSH1 0x20 DUP3 ADD SWAP1 POP SWAP3 SWAP2 POP POP JUMP JUMPDEST PUSH1 0x0 DUP2 SWAP1 POP PUSH1 0x20 DUP3 ADD SWAP1 POP SWAP2 SWAP1 POP JUMP JUMPDEST PUSH2 0xBCE DUP2 PUSH2 0xA98 JUMP JUMPDEST DUP3 MSTORE POP POP JUMP JUMPDEST PUSH1 0x0 PUSH1 0x60 DUP4 ADD PUSH1 0x0 DUP4 ADD MLOAD DUP5 DUP3 SUB PUSH1 0x0 DUP7 ADD MSTORE PUSH2 0xBF1 DUP3 DUP3 PUSH2 0xB60 JUMP JUMPDEST SWAP2 POP POP PUSH1 0x20 DUP4 ADD MLOAD DUP5 DUP3 SUB PUSH1 0x20 DUP7 ADD MSTORE PUSH2 0xC0B DUP3 DUP3 PUSH2 0xB60 JUMP JUMPDEST SWAP2 POP POP PUSH1 0x40 DUP4 ADD MLOAD PUSH2 0xC20 PUSH1 0x40 DUP7 ADD DUP3 PUSH2 0xBC5 JUMP JUMPDEST POP DUP1 SWAP2 POP POP SWAP3 SWAP2 POP POP JUMP JUMPDEST PUSH1 0x0 PUSH2 0xC37 DUP4 DUP4 PUSH2 0xBD4 JUMP JUMPDEST SWAP1 POP SWAP3 SWAP2 POP POP JUMP JUMPDEST PUSH1 0x0 PUSH1 0x20 DUP3 ADD SWAP1 POP SWAP2 SWAP1 POP JUMP JUMPDEST PUSH1 0x0 PUSH2 0xC57 DUP3 PUSH2 0xB99 JUMP JUMPDEST PUSH2 0xC61 DUP2 DUP6 PUSH2 0xBA4 JUMP JUMPDEST SWAP4 POP DUP4 PUSH1 0x20 DUP3 MUL DUP6 ADD PUSH2 0xC73 DUP6 PUSH2 0xBB5 JUMP JUMPDEST DUP1 PUSH1 0x0 JUMPDEST DUP6 DUP2 LT ISZERO PUSH2 0xCAF JUMPI DUP5 DUP5 SUB DUP10 MSTORE DUP2 MLOAD PUSH2 0xC90 DUP6 DUP3 PUSH2 0xC2B JUMP JUMPDEST SWAP5 POP PUSH2 0xC9B DUP4 PUSH2 0xC3F JUMP JUMPDEST SWAP3 POP PUSH1 0x20 DUP11 ADD SWAP10 POP POP PUSH1 0x1 DUP2 ADD SWAP1 POP PUSH2 0xC77 JUMP JUMPDEST POP DUP3 SWAP8 POP DUP8 SWAP6 POP POP POP POP POP POP SWAP3 SWAP2 POP POP JUMP JUMPDEST PUSH1 0x0 PUSH1 0x40 DUP4 ADD PUSH1 0x0 DUP4 ADD MLOAD DUP5 DUP3 SUB PUSH1 0x0 DUP7 ADD MSTORE PUSH2 0xCDE DUP3 DUP3 PUSH2 0xB60 JUMP JUMPDEST SWAP2 POP POP PUSH1 0x20 DUP4 ADD MLOAD DUP5 DUP3 SUB PUSH1 0x20 DUP7 ADD MSTORE PUSH2 0xCF8 DUP3 DUP3 PUSH2 0xC4C JUMP JUMPDEST SWAP2 POP POP DUP1 SWAP2 POP POP SWAP3 SWAP2 POP POP JUMP JUMPDEST PUSH1 0x0 PUSH1 0x20 DUP3 ADD SWAP1 POP DUP2 DUP2 SUB PUSH1 0x0 DUP4 ADD MSTORE PUSH2 0xD1F DUP2 DUP5 PUSH2 0xCC1 JUMP JUMPDEST SWAP1 POP SWAP3 SWAP2 POP POP JUMP JUMPDEST PUSH1 0x0 PUSH1 0x20 DUP3 ADD SWAP1 POP PUSH2 0xD3C PUSH1 0x0 DUP4 ADD DUP5 PUSH2 0xAFB JUMP JUMPDEST SWAP3 SWAP2 POP POP JUMP JUMPDEST PUSH1 0x0 PUSH20 0xFFFFFFFFFFFFFFFFFFFFFFFFFFFFFFFFFFFFFFFF DUP3 AND SWAP1 POP SWAP2 SWAP1 POP JUMP JUMPDEST PUSH1 0x0 PUSH2 0xD6D DUP3 PUSH2 0xD42 JUMP JUMPDEST SWAP1 POP SWAP2 SWAP1 POP JUMP JUMPDEST PUSH2 0xD7D DUP2 PUSH2 0xD62 JUMP JUMPDEST DUP3 MSTORE POP POP JUMP JUMPDEST PUSH1 0x0 PUSH1 0x20 DUP3 ADD SWAP1 POP PUSH2 0xD98 PUSH1 0x0 DUP4 ADD DUP5 PUSH2 0xD74 JUMP JUMPDEST SWAP3 SWAP2 POP POP JUMP JUMPDEST PUSH32 0x4E487B7100000000000000000000000000000000000000000000000000000000 PUSH1 0x0 MSTORE PUSH1 0x22 PUSH1 0x4 MSTORE PUSH1 0x24 PUSH1 0x0 REVERT JUMPDEST PUSH1 0x0 PUSH1 0x2 DUP3 DIV SWAP1 POP PUSH1 0x1 DUP3 AND DUP1 PUSH2 0xDE5 JUMPI PUSH1 0x7F DUP3 AND SWAP2 POP JUMPDEST PUSH1 0x20 DUP3 LT DUP2 SUB PUSH2 0xDF8 JUMPI PUSH2 0xDF7 PUSH2 0xD9E JUMP JUMPDEST JUMPDEST POP SWAP2 SWAP1 POP JUMP JUMPDEST PUSH32 0x4F6E6C792061646D696E2063616E20737461727420612063616D706169676E00 PUSH1 0x0 DUP3 ADD MSTORE POP JUMP JUMPDEST PUSH1 0x0 PUSH2 0xE34 PUSH1 0x1F DUP4 PUSH2 0x9F9 JUMP JUMPDEST SWAP2 POP PUSH2 0xE3F DUP3 PUSH2 0xDFE JUMP JUMPDEST PUSH1 0x20 DUP3 ADD SWAP1 POP SWAP2 SWAP1 POP JUMP JUMPDEST PUSH1 0x0 PUSH1 0x20 DUP3 ADD SWAP1 POP DUP2 DUP2 SUB PUSH1 0x0 DUP4 ADD MSTORE PUSH2 0xE63 DUP2 PUSH2 0xE27 JUMP JUMPDEST SWAP1 POP SWAP2 SWAP1 POP JUMP JUMPDEST PUSH1 0x0 DUP2 SWAP1 POP SWAP3 SWAP2 POP POP JUMP JUMPDEST PUSH1 0x0 PUSH2 0xE80 DUP3 PUSH2 0x9EE JUMP JUMPDEST PUSH2 0xE8A DUP2 DUP6 PUSH2 0xE6A JUMP JUMPDEST SWAP4 POP PUSH2 0xE9A DUP2 DUP6 PUSH1 0x20 DUP7 ADD PUSH2 0xA0A JUMP JUMPDEST DUP1 DUP5 ADD SWAP2 POP POP SWAP3 SWAP2 POP POP JUMP JUMPDEST PUSH1 0x0 PUSH2 0xEB2 DUP3 DUP5 PUSH2 0xE75 JUMP JUMPDEST SWAP2 POP DUP2 SWAP1 POP SWAP3 SWAP2 POP POP JUMP JUMPDEST PUSH32 0x3131323200000000000000000000000000000000000000000000000000000000 PUSH1 0x0 DUP3 ADD MSTORE POP JUMP JUMPDEST PUSH1 0x0 PUSH2 0xEF3 PUSH1 0x4 DUP4 PUSH2 0xE6A JUMP JUMPDEST SWAP2 POP PUSH2 0xEFE DUP3 PUSH2 0xEBD JUMP JUMPDEST PUSH1 0x4 DUP3 ADD SWAP1 POP SWAP2 SWAP1 POP JUMP JUMPDEST PUSH1 0x0 PUSH2 0xF14 DUP3 PUSH2 0xEE6 JUMP JUMPDEST SWAP2 POP DUP2 SWAP1 POP SWAP2 SWAP1 POP JUMP INVALID LOG2 PUSH5 0x6970667358 0x22 SLT KECCAK256 0xFC SWAP12 DUP14 0xE3 PUSH2 0x523E ADD SWAP8 0xC7 0xC2 SWAP2 PUSH20 0x9381774E9F4D3FA3114ABF556AC2F0135C434364 PUSH20 0x6F6C634300080D00330000000000000000000000 "
				},
				"gasEstimates": {
					"creation": {
						"codeDepositCost": "784800",
						"executionCost": "25084",
						"totalCost": "809884"
					},
					"external": {
						"addCampaign(string)": "infinite",
						"admin()": "2602",
						"campaigns(string)": "infinite",
						"candidates(uint256)": "infinite",
						"getAllCampaigns()": "infinite",
						"getNumResult()": "403"
					}
				},
				"methodIdentifiers": {
					"addCampaign(string)": "202e7be4",
					"admin()": "f851a440",
					"campaigns(string)": "1d39e509",
					"candidates(uint256)": "3477ee2e",
					"getAllCampaigns()": "86cdf604",
					"getNumResult()": "bf80f44a"
				}
			},
			"storageLayout": {
				"storage": [
					{
						"astId": 35,
						"contract": "github/fahadashiq/block-chain/smart-contracts/voting.sol:Voting",
						"label": "campaigns",
						"offset": 0,
						"slot": "0",
						"type": "t_mapping(t_string_memory_ptr,t_struct(Campaign)23_storage)"
					},
					{
						"astId": 39,
						"contract": "github/fahadashiq/block-chain/smart-contracts/voting.sol:Voting",
						"label": "candidates",
						"offset": 0,
						"slot": "1",
						"type": "t_array(t_struct(Candidate)30_storage)dyn_storage"
					},
					{
						"astId": 41,
						"contract": "github/fahadashiq/block-chain/smart-contracts/voting.sol:Voting",
						"label": "admin",
						"offset": 0,
						"slot": "2",
						"type": "t_address"
					}
				],
				"types": {
					"t_address": {
						"encoding": "inplace",
						"label": "address",
						"numberOfBytes": "20"
					},
					"t_array(t_struct(Candidate)30_storage)dyn_storage": {
						"base": "t_struct(Candidate)30_storage",
						"encoding": "dynamic_array",
						"label": "struct Voting.Candidate[]",
						"numberOfBytes": "32"
					},
					"t_mapping(t_string_memory_ptr,t_struct(Campaign)23_storage)": {
						"encoding": "mapping",
						"key": "t_string_memory_ptr",
						"label": "mapping(string => struct Voting.Campaign)",
						"numberOfBytes": "32",
						"value": "t_struct(Campaign)23_storage"
					},
					"t_string_memory_ptr": {
						"encoding": "bytes",
						"label": "string",
						"numberOfBytes": "32"
					},
					"t_string_storage": {
						"encoding": "bytes",
						"label": "string",
						"numberOfBytes": "32"
					},
					"t_struct(Campaign)23_storage": {
						"encoding": "inplace",
						"label": "struct Voting.Campaign",
						"members": [
							{
								"astId": 18,
								"contract": "github/fahadashiq/block-chain/smart-contracts/voting.sol:Voting",
								"label": "name",
								"offset": 0,
								"slot": "0",
								"type": "t_string_storage"
							},
							{
								"astId": 22,
								"contract": "github/fahadashiq/block-chain/smart-contracts/voting.sol:Voting",
								"label": "candidates",
								"offset": 0,
								"slot": "1",
								"type": "t_array(t_struct(Candidate)30_storage)dyn_storage"
							}
						],
						"numberOfBytes": "64"
					},
					"t_struct(Candidate)30_storage": {
						"encoding": "inplace",
						"label": "struct Voting.Candidate",
						"members": [
							{
								"astId": 25,
								"contract": "github/fahadashiq/block-chain/smart-contracts/voting.sol:Voting",
								"label": "name",
								"offset": 0,
								"slot": "0",
								"type": "t_string_storage"
							},
							{
								"astId": 27,
								"contract": "github/fahadashiq/block-chain/smart-contracts/voting.sol:Voting",
								"label": "sign",
								"offset": 0,
								"slot": "1",
								"type": "t_string_storage"
							},
							{
								"astId": 29,
								"contract": "github/fahadashiq/block-chain/smart-contracts/voting.sol:Voting",
								"label": "votes",
								"offset": 0,
								"slot": "2",
								"type": "t_uint256"
							}
						],
						"numberOfBytes": "96"
					},
					"t_uint256": {
						"encoding": "inplace",
						"label": "uint256",
						"numberOfBytes": "32"
					}
				}
			},
			"userdoc": {
				"kind": "user",
				"methods": {},
				"version": 1
			}
		}
	}
}